{
  "_format": "hh-sol-artifact-1",
  "contractName": "NFTAuctionPlatform",
  "sourceName": "contracts/task3/NFTAuctionPlatform.sol",
  "abi": [
    {
      "inputs": [],
      "stateMutability": "nonpayable",
      "type": "constructor"
    },
    {
      "inputs": [
        {
          "internalType": "address",
          "name": "target",
          "type": "address"
        }
      ],
      "name": "AddressEmptyCode",
      "type": "error"
    },
    {
      "inputs": [
        {
          "internalType": "address",
          "name": "implementation",
          "type": "address"
        }
      ],
      "name": "ERC1967InvalidImplementation",
      "type": "error"
    },
    {
      "inputs": [],
      "name": "ERC1967NonPayable",
      "type": "error"
    },
    {
      "inputs": [],
      "name": "FailedCall",
      "type": "error"
    },
    {
      "inputs": [],
      "name": "InvalidInitialization",
      "type": "error"
    },
    {
      "inputs": [],
      "name": "NotInitializing",
      "type": "error"
    },
    {
      "inputs": [
        {
          "internalType": "address",
          "name": "owner",
          "type": "address"
        }
      ],
      "name": "OwnableInvalidOwner",
      "type": "error"
    },
    {
      "inputs": [
        {
          "internalType": "address",
          "name": "account",
          "type": "address"
        }
      ],
      "name": "OwnableUnauthorizedAccount",
      "type": "error"
    },
    {
      "inputs": [],
      "name": "ReentrancyGuardReentrantCall",
      "type": "error"
    },
    {
      "inputs": [],
      "name": "UUPSUnauthorizedCallContext",
      "type": "error"
    },
    {
      "inputs": [
        {
          "internalType": "bytes32",
          "name": "slot",
          "type": "bytes32"
        }
      ],
      "name": "UUPSUnsupportedProxiableUUID",
      "type": "error"
    },
    {
      "anonymous": false,
      "inputs": [
        {
          "indexed": true,
          "internalType": "uint256",
          "name": "auctionId",
          "type": "uint256"
        },
        {
          "indexed": true,
          "internalType": "address",
          "name": "seller",
          "type": "address"
        },
        {
          "indexed": true,
          "internalType": "address",
          "name": "nftContract",
          "type": "address"
        },
        {
          "indexed": false,
          "internalType": "uint256",
          "name": "tokenId",
          "type": "uint256"
        },
        {
          "indexed": false,
          "internalType": "uint256",
          "name": "startPrice",
          "type": "uint256"
        },
        {
          "indexed": false,
          "internalType": "uint256",
          "name": "reservePrice",
          "type": "uint256"
        },
        {
          "indexed": false,
          "internalType": "uint256",
          "name": "duration",
          "type": "uint256"
        }
      ],
      "name": "AuctionCreated",
      "type": "event"
    },
    {
      "anonymous": false,
      "inputs": [
        {
          "indexed": true,
          "internalType": "uint256",
          "name": "auctionId",
          "type": "uint256"
        },
        {
          "indexed": true,
          "internalType": "address",
          "name": "winner",
          "type": "address"
        },
        {
          "indexed": false,
          "internalType": "uint256",
          "name": "finalPrice",
          "type": "uint256"
        },
        {
          "indexed": false,
          "internalType": "address",
          "name": "paymentToken",
          "type": "address"
        }
      ],
      "name": "AuctionEnded",
      "type": "event"
    },
    {
      "anonymous": false,
      "inputs": [
        {
          "indexed": true,
          "internalType": "uint256",
          "name": "auctionId",
          "type": "uint256"
        },
        {
          "indexed": true,
          "internalType": "address",
          "name": "bidder",
          "type": "address"
        },
        {
          "indexed": true,
          "internalType": "address",
          "name": "bidToken",
          "type": "address"
        },
        {
          "indexed": false,
          "internalType": "uint256",
          "name": "bidAmount",
          "type": "uint256"
        },
        {
          "indexed": false,
          "internalType": "uint256",
          "name": "usdValue",
          "type": "uint256"
        }
      ],
      "name": "BidPlaced",
      "type": "event"
    },
    {
      "anonymous": false,
      "inputs": [
        {
          "indexed": false,
          "internalType": "uint64",
          "name": "version",
          "type": "uint64"
        }
      ],
      "name": "Initialized",
      "type": "event"
    },
    {
      "anonymous": false,
      "inputs": [
        {
          "indexed": true,
          "internalType": "address",
          "name": "previousOwner",
          "type": "address"
        },
        {
          "indexed": true,
          "internalType": "address",
          "name": "newOwner",
          "type": "address"
        }
      ],
      "name": "OwnershipTransferred",
      "type": "event"
    },
    {
      "anonymous": false,
      "inputs": [
        {
          "indexed": true,
          "internalType": "address",
          "name": "token",
          "type": "address"
        },
        {
          "indexed": true,
          "internalType": "address",
          "name": "priceFeed",
          "type": "address"
        }
      ],
      "name": "PriceFeedUpdated",
      "type": "event"
    },
    {
      "anonymous": false,
      "inputs": [
        {
          "indexed": true,
          "internalType": "address",
          "name": "implementation",
          "type": "address"
        }
      ],
      "name": "Upgraded",
      "type": "event"
    },
    {
      "inputs": [],
      "name": "MAX_AUCTION_DURATION",
      "outputs": [
        {
          "internalType": "uint256",
          "name": "",
          "type": "uint256"
        }
      ],
      "stateMutability": "view",
      "type": "function"
    },
    {
      "inputs": [],
      "name": "MIN_AUCTION_DURATION",
      "outputs": [
        {
          "internalType": "uint256",
          "name": "",
          "type": "uint256"
        }
      ],
      "stateMutability": "view",
      "type": "function"
    },
    {
      "inputs": [],
      "name": "UPGRADE_INTERFACE_VERSION",
      "outputs": [
        {
          "internalType": "string",
          "name": "",
          "type": "string"
        }
      ],
      "stateMutability": "view",
      "type": "function"
    },
    {
      "inputs": [
        {
          "internalType": "uint256",
          "name": "",
          "type": "uint256"
        }
      ],
      "name": "auctions",
      "outputs": [
        {
          "internalType": "address",
          "name": "seller",
          "type": "address"
        },
        {
          "internalType": "uint256",
          "name": "duration",
          "type": "uint256"
        },
        {
          "internalType": "uint256",
          "name": "startPrice",
          "type": "uint256"
        },
        {
          "internalType": "uint256",
          "name": "startTime",
          "type": "uint256"
        },
        {
          "internalType": "bool",
          "name": "ended",
          "type": "bool"
        },
        {
          "internalType": "address",
          "name": "highestBidder",
          "type": "address"
        },
        {
          "internalType": "uint256",
          "name": "highestBid",
          "type": "uint256"
        },
        {
          "internalType": "address",
          "name": "nftContract",
          "type": "address"
        },
        {
          "internalType": "uint256",
          "name": "tokenId",
          "type": "uint256"
        },
        {
          "internalType": "address",
          "name": "bidToken",
          "type": "address"
        },
        {
          "internalType": "uint256",
          "name": "originalBidAmount",
          "type": "uint256"
        },
        {
          "internalType": "uint256",
          "name": "reservePrice",
          "type": "uint256"
        }
      ],
      "stateMutability": "view",
      "type": "function"
    },
    {
      "inputs": [
        {
          "internalType": "uint256",
          "name": "",
          "type": "uint256"
        },
        {
          "internalType": "address",
          "name": "",
          "type": "address"
        }
      ],
      "name": "bidRecords",
      "outputs": [
        {
          "internalType": "uint256",
          "name": "",
          "type": "uint256"
        }
      ],
      "stateMutability": "view",
      "type": "function"
    },
    {
      "inputs": [
        {
          "internalType": "uint256",
          "name": "duration",
          "type": "uint256"
        },
        {
          "internalType": "uint256",
          "name": "startPrice",
          "type": "uint256"
        },
        {
          "internalType": "uint256",
          "name": "reservePrice",
          "type": "uint256"
        },
        {
          "internalType": "address",
          "name": "nftAddress",
          "type": "address"
        },
        {
          "internalType": "uint256",
          "name": "tokenId",
          "type": "uint256"
        }
      ],
      "name": "createAuction",
      "outputs": [
        {
          "internalType": "uint256",
          "name": "",
          "type": "uint256"
        }
      ],
      "stateMutability": "nonpayable",
      "type": "function"
    },
    {
      "inputs": [],
      "name": "crossChainBridge",
      "outputs": [
        {
          "internalType": "address",
          "name": "",
          "type": "address"
        }
      ],
      "stateMutability": "view",
      "type": "function"
    },
    {
      "inputs": [
        {
          "internalType": "uint256",
          "name": "auctionId",
          "type": "uint256"
        }
      ],
      "name": "emergencyCancelAuction",
      "outputs": [],
      "stateMutability": "nonpayable",
      "type": "function"
    },
    {
      "inputs": [
        {
          "internalType": "uint256",
          "name": "auctionId",
          "type": "uint256"
        }
      ],
      "name": "endAuction",
      "outputs": [],
      "stateMutability": "nonpayable",
      "type": "function"
    },
    {
      "inputs": [],
      "name": "feeRecipient",
      "outputs": [
        {
          "internalType": "address",
          "name": "",
          "type": "address"
        }
      ],
      "stateMutability": "view",
      "type": "function"
    },
    {
      "inputs": [
        {
          "internalType": "uint256",
          "name": "auctionId",
          "type": "uint256"
        }
      ],
      "name": "getAuction",
      "outputs": [
        {
          "components": [
            {
              "internalType": "address",
              "name": "seller",
              "type": "address"
            },
            {
              "internalType": "uint256",
              "name": "duration",
              "type": "uint256"
            },
            {
              "internalType": "uint256",
              "name": "startPrice",
              "type": "uint256"
            },
            {
              "internalType": "uint256",
              "name": "startTime",
              "type": "uint256"
            },
            {
              "internalType": "bool",
              "name": "ended",
              "type": "bool"
            },
            {
              "internalType": "address",
              "name": "highestBidder",
              "type": "address"
            },
            {
              "internalType": "uint256",
              "name": "highestBid",
              "type": "uint256"
            },
            {
              "internalType": "address",
              "name": "nftContract",
              "type": "address"
            },
            {
              "internalType": "uint256",
              "name": "tokenId",
              "type": "uint256"
            },
            {
              "internalType": "address",
              "name": "bidToken",
              "type": "address"
            },
            {
              "internalType": "uint256",
              "name": "originalBidAmount",
              "type": "uint256"
            },
            {
              "internalType": "uint256",
              "name": "reservePrice",
              "type": "uint256"
            }
          ],
          "internalType": "struct NFTAuctionPlatform.Auction",
          "name": "",
          "type": "tuple"
        }
      ],
      "stateMutability": "view",
      "type": "function"
    },
    {
      "inputs": [
        {
          "internalType": "uint256",
          "name": "auctionId",
          "type": "uint256"
        }
      ],
      "name": "getTimeRemaining",
      "outputs": [
        {
          "internalType": "uint256",
          "name": "",
          "type": "uint256"
        }
      ],
      "stateMutability": "view",
      "type": "function"
    },
    {
      "inputs": [
        {
          "internalType": "address",
          "name": "tokenAddress",
          "type": "address"
        },
        {
          "internalType": "uint256",
          "name": "amount",
          "type": "uint256"
        }
      ],
      "name": "getTokenPriceInUSD",
      "outputs": [
        {
          "internalType": "uint256",
          "name": "",
          "type": "uint256"
        }
      ],
      "stateMutability": "view",
      "type": "function"
    },
    {
      "inputs": [
        {
          "internalType": "uint256",
          "name": "auctionId",
          "type": "uint256"
        },
        {
          "internalType": "address",
          "name": "bidder",
          "type": "address"
        }
      ],
      "name": "getUserBidAmount",
      "outputs": [
        {
          "internalType": "uint256",
          "name": "",
          "type": "uint256"
        }
      ],
      "stateMutability": "view",
      "type": "function"
    },
    {
      "inputs": [],
      "name": "initialize",
      "outputs": [],
      "stateMutability": "nonpayable",
      "type": "function"
    },
    {
      "inputs": [
        {
          "internalType": "uint256",
          "name": "auctionId",
          "type": "uint256"
        }
      ],
      "name": "isAuctionActive",
      "outputs": [
        {
          "internalType": "bool",
          "name": "",
          "type": "bool"
        }
      ],
      "stateMutability": "view",
      "type": "function"
    },
    {
      "inputs": [],
      "name": "nextAuctionId",
      "outputs": [
        {
          "internalType": "uint256",
          "name": "",
          "type": "uint256"
        }
      ],
      "stateMutability": "view",
      "type": "function"
    },
    {
      "inputs": [
        {
          "internalType": "address",
          "name": "",
          "type": "address"
        },
        {
          "internalType": "address",
          "name": "",
          "type": "address"
        },
        {
          "internalType": "uint256",
          "name": "",
          "type": "uint256"
        },
        {
          "internalType": "bytes",
          "name": "",
          "type": "bytes"
        }
      ],
      "name": "onERC721Received",
      "outputs": [
        {
          "internalType": "bytes4",
          "name": "",
          "type": "bytes4"
        }
      ],
      "stateMutability": "pure",
      "type": "function"
    },
    {
      "inputs": [],
      "name": "owner",
      "outputs": [
        {
          "internalType": "address",
          "name": "",
          "type": "address"
        }
      ],
      "stateMutability": "view",
      "type": "function"
    },
    {
      "inputs": [
        {
          "internalType": "uint256",
          "name": "auctionId",
          "type": "uint256"
        }
      ],
      "name": "placeBidWithETH",
      "outputs": [],
      "stateMutability": "payable",
      "type": "function"
    },
    {
      "inputs": [
        {
          "internalType": "uint256",
          "name": "auctionId",
          "type": "uint256"
        },
        {
          "internalType": "address",
          "name": "tokenAddress",
          "type": "address"
        },
        {
          "internalType": "uint256",
          "name": "amount",
          "type": "uint256"
        }
      ],
      "name": "placeBidWithToken",
      "outputs": [],
      "stateMutability": "nonpayable",
      "type": "function"
    },
    {
      "inputs": [],
      "name": "platformFeeRate",
      "outputs": [
        {
          "internalType": "uint256",
          "name": "",
          "type": "uint256"
        }
      ],
      "stateMutability": "view",
      "type": "function"
    },
    {
      "inputs": [
        {
          "internalType": "address",
          "name": "",
          "type": "address"
        }
      ],
      "name": "priceFeeds",
      "outputs": [
        {
          "internalType": "contract AggregatorV3Interface",
          "name": "",
          "type": "address"
        }
      ],
      "stateMutability": "view",
      "type": "function"
    },
    {
      "inputs": [],
      "name": "proxiableUUID",
      "outputs": [
        {
          "internalType": "bytes32",
          "name": "",
          "type": "bytes32"
        }
      ],
      "stateMutability": "view",
      "type": "function"
    },
    {
      "inputs": [],
      "name": "renounceOwnership",
      "outputs": [],
      "stateMutability": "nonpayable",
      "type": "function"
    },
    {
      "inputs": [
        {
          "internalType": "address",
          "name": "_crossChainBridge",
          "type": "address"
        }
      ],
      "name": "setCrossChainBridge",
      "outputs": [],
      "stateMutability": "nonpayable",
      "type": "function"
    },
    {
      "inputs": [
        {
          "internalType": "address",
          "name": "newFeeRecipient",
          "type": "address"
        }
      ],
      "name": "setFeeRecipient",
      "outputs": [],
      "stateMutability": "nonpayable",
      "type": "function"
    },
    {
      "inputs": [
        {
          "internalType": "uint256",
          "name": "newFeeRate",
          "type": "uint256"
        }
      ],
      "name": "setPlatformFeeRate",
      "outputs": [],
      "stateMutability": "nonpayable",
      "type": "function"
    },
    {
      "inputs": [
        {
          "internalType": "address",
          "name": "tokenAddress",
          "type": "address"
        },
        {
          "internalType": "address",
          "name": "priceFeed",
          "type": "address"
        }
      ],
      "name": "setPriceFeed",
      "outputs": [],
      "stateMutability": "nonpayable",
      "type": "function"
    },
    {
      "inputs": [
        {
          "internalType": "address",
          "name": "newOwner",
          "type": "address"
        }
      ],
      "name": "transferOwnership",
      "outputs": [],
      "stateMutability": "nonpayable",
      "type": "function"
    },
    {
      "inputs": [
        {
          "internalType": "address",
          "name": "newImplementation",
          "type": "address"
        },
        {
          "internalType": "bytes",
          "name": "data",
          "type": "bytes"
        }
      ],
      "name": "upgradeToAndCall",
      "outputs": [],
      "stateMutability": "payable",
      "type": "function"
    }
  ],
  "bytecode": "0x60a080604052346100cc57306080527ff0c57e16840df040f15088dc2f81fe391c3923bec73e23a9662efc9c229c6a009081549060ff8260401c166100bd57506001600160401b036002600160401b031982821601610078575b6040516129fe90816100d2823960805181818161131a01526114000152f35b6001600160401b031990911681179091556040519081527fc7f505b2f371ae2175ee4913f4499e1f2633a7b5936321eed1cdaeb6115181d290602090a1388080610059565b63f92ee8a960e01b8152600490fd5b600080fdfe608080604052600436101561001357600080fd5b600090813560e01c908163150b7a02146120f9575080632184630e14611bb55780632ae11ca814611ab55780633fb3517814611a975780634690484014611a6e5780634a5e0051146115b85780634f1ef2861461138457806352d1902d14611307578063571a26a01461124c5780636ce0572e14610e11578063715018a6146111e157806376e112861461116757806378bd7935146110605780637f0ebb03146110205780638129fc1c14610ead5780638cd4299114610e8e5780638da5cb5b14610e5857806391dad30714610e11578063927fef2e14610dac5780639bfd3b38146108965780639dcb511a1461085b578063ad3cb1cc146107b5578063b3e265661461078c578063b9a2de3a14610323578063c2f50a7a14610306578063e71f7b151461028f578063e74b981b14610211578063eeca08f0146101f3578063f2fde38b146101c6578063fc528482146101a85763fc9274001461017657600080fd5b346101a55760403660031901126101a557602061019d610194612166565b6024359061249d565b604051908152f35b80fd5b50346101a557806003193601126101a5576020600354604051908152f35b50346101a55760203660031901126101a5576101f06101e3612166565b6101eb6126b6565b6123df565b80f35b50346101a557806003193601126101a5576020600554604051908152f35b50346101a55760203660031901126101a55761022b612166565b6102336126b6565b6001600160a01b03168015610258576001600160601b0360a01b600654161760065580f35b60405162461bcd60e51b815260206004820152600f60248201526e496e76616c6964206164647265737360881b6044820152606490fd5b50346101a55760203660031901126101a5576102b86040602092600435815260028452206122a2565b60808101511590816102ea575b816102d6575b506040519015158152f35b516001600160a01b031615159050386102cb565b90506102fe6060820151838301519061233c565b4210906102c5565b50346101a557806003193601126101a5576020604051610e108152f35b50346101a55760208060031936011261063a57600435610341612686565b808352600282526040832080546001600160a01b03939084169190610367831515612219565b600482019283549061037c60ff83161561225e565b61038f600385015460018601549061233c565b421090811591610782575b50156107455760ff191660011780845560081c8516151580610733575b1561064d576103c5826122a2565b610140810151876103e66127106103de6005548561246a565b048093612349565b8860e085015116938960a082015116610100820151863b1561064957604051632142170760e11b81523060048201526001600160a01b0392909216602483015260448201529483908690606490829084905af194851561063e578a95610621575b506101208101518516806104e557508280806000805160206129898339815191529a9588979560409b9a996104889651165af16104826126ef565b5061282c565b89816104c2575b50505b5460081c16956008600584015493015416908351928352820152a360016000805160206129a98339815191525580f35b8080806104de9487600654165af16104d86126ef565b50612878565b388961048f565b905160405163a9059cbb60e01b8082526001600160a01b03979092169690961660048701526024860192909252915084846044818d865af1938415610616578994610536918c916105f9575061282c565b82610559575b505050906040929160008051602061298983398151915294610492565b600654604051918252939093166001600160a01b031660048401526024830191909152909291908190849060449082908b905af180156105ee57600080516020612989833981519152946105b788926040968b916105c15750612878565b948192939461053c565b6105e19150853d87116105e7575b6105d981836121c3565b810190612201565b386104d8565b503d6105cf565b6040513d89823e3d90fd5b6106109150873d89116105e7576105d981836121c3565b38610482565b6040513d8c823e3d90fd5b8391955061062e90612192565b61063a57889338610447565b5080fd5b6040513d85823e3d90fd5b8480fd5b610656826122a2565b928560e085015116908787865116610100870151843b1561072f57604051632142170760e11b81523060048201526001600160a01b0392909216602483015260448201529281908490606490829084905af1928315610722578893610701575b5050906040939291858260a060008051602061298983398151915298015116806106e2575b5050610492565b81610140856101206106fa950151169101519161271f565b38806106db565b61070f919295949350612192565b61071e579091859087386106b6565b8680fd5b50604051903d90823e3d90fd5b8280fd5b506005820154600a83015411156103b7565b60405162461bcd60e51b8152600481018390526015602482015274105d58dd1a5bdb881b9bdd081e595d08195b991959605a1b6044820152606490fd5b905033143861039a565b50346101a557806003193601126101a5576001546040516001600160a01b039091168152602090f35b50346101a557806003193601126101a5576040516040810181811067ffffffffffffffff8211176108455760405260058152602091640352e302e360dc1b602083015260405192839160208352835191826020850152815b83811061082e57505060408094508284010152601f80199101168101030190f35b80860182015187820160400152869450810161080d565b634e487b7160e01b600052604160045260246000fd5b50346101a55760203660031901126101a5576020906001600160a01b039060409082610885612166565b168152808452205416604051908152f35b50346101a55760a03660031901126101a5576024906064356001600160a01b0381169083359060043590839003610da757608435916108d3612686565b610e1082101580610d9a575b15610d63578015610d1f578060443510610ce3578315610ca8576040516331a9108f60e11b8152600481018490526020818881885afa908115610b86578691610c89575b50336001600160a01b0390911603610c525760405163e985e9c560e01b8152336004820152306024820152602081604481885afa908115610b86578691610c33575b508015610bc8575b15610b9157833b1561064957604051632142170760e11b815233600482015230602482015260448101849052858160648183895af18015610b8657908691610b72575b5050600354946000198614610b5f576020965060018601600355600a61016060408051936109dd856121a6565b338552868b86015285828601524260608601528060808601528060a08601528060c08601528860e08601528761010086015280610120860152806101408601526044358386015289815260028b52209260018060a01b038151166001600160601b0360a01b90818654161785558a82015160018601556040820151600286015560608201516003860155610ab0600486016080840151151560ff8019835416911617815560018060a01b0360a085015116815490610100600160a81b039060081b1690610100600160a81b031916179055565b60c082015160058601556006850160018060a01b0360e084015116828254161790556101008201516007860155600885019060018060a01b036101208401511690825416179055610140810151600985015501519101556040519283528583015260443560408301526060820152827fcaf0ae751fb2b122e8718bf7c0d4b7584d1418a853a4d0cdaba45418d3da138b60803393a460016000805160206129a983398151915255604051908152f35b634e487b7160e01b815260116004528690fd5b610b7b90612192565b6106495784386109b0565b6040513d88823e3d90fd5b60405162461bcd60e51b8152602060048201526010818801526f139195081b9bdd08185c1c1c9bdd995960821b6044820152606490fd5b5060405163020604bf60e21b8152600481018490526020818881885afa908115610b86578691610c04575b506001600160a01b0316301461096d565b610c26915060203d602011610c2c575b610c1e81836121c3565b8101906123c0565b38610bf3565b503d610c14565b610c4c915060203d6020116105e7576105d981836121c3565b38610965565b60405162461bcd60e51b8152602060048201526010818801526f139bdd081bdddb995c881bd98813919560821b6044820152606490fd5b610ca2915060203d602011610c2c57610c1e81836121c3565b38610923565b60405162461bcd60e51b81526020600482015260148188015273125b9d985b1a59081391950818dbdb9d1c9858dd60621b6044820152606490fd5b60405162461bcd60e51b815260206004820152601581880152745265736572766520707269636520746f6f206c6f7760581b6044820152606490fd5b60405162461bcd60e51b815260206004820152601c818801527f5374617274207072696365206d75737420626520706f736974697665000000006044820152606490fd5b60405162461bcd60e51b8152602060048201526010818801526f24b73b30b634b210323ab930ba34b7b760811b6044820152606490fd5b5062278d008211156108df565b600080fd5b50346101a55760203660031901126101a557600435610dc96126b6565b6103e88111610dd85760055580f35b60405162461bcd60e51b815260206004820152601160248201527008ccaca40e4c2e8ca40e8dede40d0d2ced607b1b6044820152606490fd5b50346101a55760403660031901126101a5576040610e2d61217c565b9160043581526004602052209060018060a01b03166000526020526020604060002054604051908152f35b50346101a557806003193601126101a557600080516020612969833981519152546040516001600160a01b039091168152602090f35b50346101a55760203660031901126101a557602061019d600435612356565b50346101a557806003193601126101a5577ff0c57e16840df040f15088dc2f81fe391c3923bec73e23a9662efc9c229c6a00805460ff8160401c16159067ffffffffffffffff811680159081611018575b600114908161100e575b159081611005575b50610ff35767ffffffffffffffff198116600117835581610fd4575b50610f356128c4565b610f3d6128c4565b610f46336123df565b610f4e6128c4565b610f566128c4565b610f5e6128c4565b60016000805160206129a983398151915255600160035560fa600555336001600160601b0360a01b6006541617600655610f96575080f35b68ff00000000000000001981541690557fc7f505b2f371ae2175ee4913f4499e1f2633a7b5936321eed1cdaeb6115181d2602060405160018152a180f35b68ffffffffffffffffff19166801000000000000000117825538610f2c565b60405163f92ee8a960e01b8152600490fd5b90501538610f10565b303b159150610f08565b839150610efe565b50346101a55760203660031901126101a55761103a612166565b6110426126b6565b60018060a01b03166001600160601b0360a01b600154161760015580f35b50346101a55760203660031901126101a55760405161018091611082826121a6565b8082528060208301528060408301528060608301528060808301528060a08301528060c08301528060e0830152610100918183820152610120828183015261014083818401526110e760408561016096878097015260043581526002602052206122a2565b916040519560018060a01b03908185511688526020850151602089015260408501516040890152606085015160608901526080850151151560808901528160a08601511660a089015260c085015160c08901528160e08601511660e089015280850151908801528184015116908601528082015190850152015190820152f35b50346101a55760403660031901126101a557611181612166565b61118961217c565b6111916126b6565b60018060a01b0380911691168083528260205260408320826001600160601b0360a01b8254161790557fa8abe0398416476db5b05737cd4da3b3cbde5012d978a6a6c3fd49d3217535368380a380f35b50346101a557806003193601126101a5576111fa6126b6565b60008051602061296983398151915280546001600160a01b031981169091556000906001600160a01b03167f8be0079c531659141344cd1fd0a4f28419497f9722a3daafe3b4186f6b6457e08280a380f35b50346101a55760203660031901126101a557604061018091600435815260026020522060018060a01b03808254169160018101549160028201549060038301549060048401549060058501549080600687015416926007870154948260088901541696600a60098a0154990154996040519b8c5260208c015260408b015260608a015260ff8116151560808a015260081c1660a088015260c087015260e0860152610100850152610120840152610140830152610160820152f35b50346101a557806003193601126101a5577f00000000000000000000000000000000000000000000000000000000000000006001600160a01b031630036113725760206040517f360894a13ba1a3210667c828492db98dca3e2076cc3735a920a3ca505d382bbc8152f35b60405163703e46dd60e11b8152600490fd5b5060403660031901126101a557611399612166565b602491823567ffffffffffffffff811161063a573660238201121561063a578060040135926113c7846121e5565b6113d460405191826121c3565b848152602094858201933688838301011161157f57818692898993018737830101526001600160a01b037f0000000000000000000000000000000000000000000000000000000000000000811630811490811561158a575b50611372576114396126b6565b6040516352d1902d60e01b81529083169580826004818a5afa9182918793611556575b505061147a57604051634c9c8ce360e01b8152600481018790528790fd5b8590877f360894a13ba1a3210667c828492db98dca3e2076cc3735a920a3ca505d382bbc918281036115415750843b1561152b575080546001600160a01b031916821790556040518592917fbc7cd75a20ee27fd9adebab32041f755214dbc6bffa90cc0225b39da2e5c2d3b8480a281511561150e575061150a9382915190845af46115046126ef565b91612905565b5080f35b93505050503461151c575080f35b63b398979f60e01b8152600490fd5b604051634c9c8ce360e01b815260048101849052fd5b60405190632a87526960e21b82526004820152fd5b9080929350813d8311611583575b61156e81836121c3565b8101031261157f575190388061145c565b8580fd5b503d611564565b9050817f360894a13ba1a3210667c828492db98dca3e2076cc3735a920a3ca505d382bbc541614153861142c565b5060208060031936011261063a57600435906115d2612686565b3415611a3357600080805280825260409020546001600160a01b039290831680156119f957604051633fabe5a360e21b81529060a082600481845afa91821561196a576000926119ab575b50600082131561197657836004916040519283809263313ce56760e01b82525afa90811561196a57600091611933575b5090670de0b6b3a764000091828202918083048414901517156117e45760ff16604d81116117e45761168761168c923492600a0a9061247d565b61246a565b04816000526002835260406000209380855416946116ab861515612219565b6004810180549060ff82166118fe5760038301938454986116d2600186019a8b549061233c565b4210156118c757331461188e5760028401548610611851576005840192835487111561181657918161172d9288959460081c16806117fa575b50508054610100600160a81b0319163360081b610100600160a81b0316179055565b55600881016001600160601b0360a01b815416905560093491015582600052600484526040600020336000528452816040600020555461177f85549161038491829161177a85429261233c565b612349565b106117d0575b505060009350604051923484528301527f2808decb743a25d04efe1bd3dc192acde3be644e2f6ad1dce5d3c46643e1c60260403393a460016000805160206129a98339815191525580f35b81018091116117e457600094553880611785565b634e487b7160e01b600052601160045260246000fd5b61180f9160088801541660098801549161271f565b388061170b565b60405162461bcd60e51b8152600481018a90526013602482015272084d2c840dcdee840d0d2ced040cadcdeeaced606b1b6044820152606490fd5b60405162461bcd60e51b81526004810189905260156024820152744269642062656c6f7720737461727420707269636560581b6044820152606490fd5b60405162461bcd60e51b815260048101899052601160248201527014d95b1b195c8818d85b9b9bdd08189a59607a1b6044820152606490fd5b60405162461bcd60e51b8152600481018a9052600f60248201526e105d58dd1a5bdb88195e1c1a5c9959608a1b6044820152606490fd5b60405162461bcd60e51b815260048101889052600d60248201526c105d58dd1a5bdb88195b991959609a1b6044820152606490fd5b8481813d8311611963575b61194881836121c3565b8101031261063a57519060ff821682036101a557503861164d565b503d61193e565b6040513d6000823e3d90fd5b60405162461bcd60e51b815260048101859052600d60248201526c496e76616c696420707269636560981b6044820152606490fd5b909160a0823d60a0116119f1575b816119c660a093836121c3565b810103126101a557506119d881612453565b506119e96080858301519201612453565b50903861161d565b3d91506119b9565b60405162461bcd60e51b8152600481018490526012602482015271141c9a58d94819995959081b9bdd081cd95d60721b6044820152606490fd5b6064906040519062461bcd60e51b825260048201526014602482015273426964206d75737420626520706f73697469766560601b6044820152fd5b50346101a557806003193601126101a5576006546040516001600160a01b039091168152602090f35b50346101a557806003193601126101a557602060405162278d008152f35b50346101a55760203660031901126101a557611acf6126b6565b600435815260026020526040812080546001600160a01b0391908216611af6811515612219565b600482019060018254611b0c60ff82161561225e565b60ff19161782556006830154600784015486918616803b1561072f57604051632142170760e11b81523060048201526001600160a01b0394909416602485015260448401919091528290606490829084905af18015611baa57611b97575b505460081c82169081611b7b578380f35b6009611b90936008830154169101549161271f565b3880808380f35b93611ba3849295612192565b9390611b6a565b6040513d87823e3d90fd5b50346101a55760603660031901126101a557600435611bd261217c565b90604490813591611be1612686565b82156120b5576001600160a01b03848116949091908515612071578587526020918783528360408920541615612038576040516370a0823160e01b815233600482015260249290848185818c5afa80156106165788918b91612007575b5010611fcd57604051636eb1769f60e11b815233600482015230602482015284816044818c5afa80156106165788918b91611f98575b5010611f5c5786611c849161249d565b6040516323b872dd60e01b81523360048201523060248201526044810188905290949084816064818d8d5af1801561061657611f3f575b5085895260028452604089208181541692611cd7841515612219565b6004820180549360ff8516611f0c576003840194855496611cfe600187019889549061233c565b421015611ed7573314611ea05760028501548a10611e6557600585019384548b1115611e2d575092611d5d8c9593838c9460099760081c1680611e195750508054610100600160a81b0319163360081b610100600160a81b0316179055565b55600881018b6001600160601b0360a01b82541617905501558589526004845260408920338a5284528460408a20555491611da582549361038491829161177a87429261233c565b10611df3575b505050506040519384528301527f2808decb743a25d04efe1bd3dc192acde3be644e2f6ad1dce5d3c46643e1c60260403393a460016000805160206129a98339815191525580f35b8301809311611e0757505538808080611dab565b634e487b7160e01b8952601160045288fd5b61180f91600888015416888801549161271f565b8972084d2c840dcdee840d0d2ced040cadcdeeaced606b1b60649260138c6040519462461bcd60e51b86526004860152840152820152fd5b60405162461bcd60e51b8152600481018a90526015818a0152744269642062656c6f7720737461727420707269636560581b81860152606490fd5b60405162461bcd60e51b8152600481018a90526011818a01527014d95b1b195c8818d85b9b9bdd08189a59607a1b81860152606490fd5b60405162461bcd60e51b8152600481018b9052600f818b01526e105d58dd1a5bdb88195e1c1a5c9959608a1b81870152606490fd5b60405162461bcd60e51b815260048101899052600d818901526c105d58dd1a5bdb88195b991959609a1b81850152606490fd5b611f5590853d87116105e7576105d981836121c3565b5038611cbb565b60405162461bcd60e51b81526004810185905260168185015275496e73756666696369656e7420616c6c6f77616e636560501b81840152606490fd5b809250868092503d8311611fc6575b611fb181836121c3565b81010312611fc25787905138611c74565b8980fd5b503d611fa7565b60405162461bcd60e51b81526004810185905260148185015273496e73756666696369656e742062616c616e636560601b81840152606490fd5b809250868092503d8311612031575b61202081836121c3565b81010312611fc25787905138611c3e565b503d612016565b8272151bdad95b881b9bdd081cdd5c1c1bdc9d1959606a1b6064926040519262461bcd60e51b8452600484015260136024840152820152fd5b60405162461bcd60e51b815260206004820152601b60248201527f55736520706c6163654269645769746845544820666f7220455448000000000081840152606490fd5b6064907f416d6f756e74206d75737420626520706f7369746976650000000000000000006040519162461bcd60e51b83526020600484015260176024840152820152fd5b90503461063a57608036600319011261063a57612114612166565b5061211d61217c565b5060643567ffffffffffffffff8082116121625736602383011215612162578160040135908111612162573691016024011161063a57630a85bd0160e11b8152602090f35b8380fd5b600435906001600160a01b0382168203610da757565b602435906001600160a01b0382168203610da757565b67ffffffffffffffff811161084557604052565b610180810190811067ffffffffffffffff82111761084557604052565b90601f8019910116810190811067ffffffffffffffff82111761084557604052565b67ffffffffffffffff811161084557601f01601f191660200190565b90816020910312610da757518015158103610da75790565b1561222057565b60405162461bcd60e51b8152602060048201526016602482015275105d58dd1a5bdb88191bd95cc81b9bdd08195e1a5cdd60521b6044820152606490fd5b1561226557565b60405162461bcd60e51b8152602060048201526015602482015274105d58dd1a5bdb88185b1c9958591e48195b991959605a1b6044820152606490fd5b906040516122af816121a6565b82546001600160a01b039081168252600184015460208301526002840154604083015260038401546060830152600484015460ff811615156080840152600890811c821660a0840152600585015460c08401526006850154821660e08401526007850154610100840152840154166101208201526009830154610140820152600a90920154610160830152565b919082018092116117e457565b919082039182116117e457565b600052600260205261236b60406000206122a2565b6080810151158015906123a4575b61239e57612394816020606061239b9401519101519061233c565b4290612349565b90565b50600090565b506123b8606082015160208301519061233c565b421015612379565b90816020910312610da757516001600160a01b0381168103610da75790565b6001600160a01b0390811690811561243a5760008051602061296983398151915280546001600160a01b031981168417909155167f8be0079c531659141344cd1fd0a4f28419497f9722a3daafe3b4186f6b6457e0600080a3565b604051631e4fbdf760e01b815260006004820152602490fd5b519069ffffffffffffffffffff82168203610da757565b818102929181159184041417156117e457565b8115612487570490565b634e487b7160e01b600052601260045260246000fd5b6001600160a01b0390811660009081526020818152604080832054909493169190821561264e578451633fabe5a360e21b81529260a084600481845afa9384156126445783946125f6575b50828413156125c257908060049287519384809263313ce56760e01b82525afa9586156125b95750829561257f575b5050670de0b6b3a7640000938483029280840486149015171561256b5760ff1690604d82116125575750612553929161168791600a0a9061247d565b0490565b634e487b7160e01b81526011600452602490fd5b634e487b7160e01b82526011600452602482fd5b9080929550813d83116125b2575b61259781836121c3565b81010312612162575160ff8116810361216257923880612517565b503d61258d565b513d84823e3d90fd5b855162461bcd60e51b815260048101839052600d60248201526c496e76616c696420707269636560981b6044820152606490fd5b90935060a0813d60a01161263c575b8161261260a093836121c3565b8101031261072f5761262381612453565b506126346080838301519201612453565b5092386124e8565b3d9150612605565b86513d85823e3d90fd5b60649085519062461bcd60e51b825260048201526012602482015271141c9a58d94819995959081b9bdd081cd95d60721b6044820152fd5b6000805160206129a983398151915260028154146126a45760029055565b604051633ee5aeb560e01b8152600490fd5b600080516020612969833981519152546001600160a01b031633036126d757565b60405163118cdaa760e01b8152336004820152602490fd5b3d1561271a573d90612700826121e5565b9161270e60405193846121c3565b82523d6000602084013e565b606090565b6001600160a01b039182168061278457506000809381938293165af16127436126ef565b501561274b57565b60405162461bcd60e51b8152602060048201526011602482015270115512081c99599d5b990819985a5b1959607a1b6044820152606490fd5b60405163a9059cbb60e01b81526001600160a01b0392909216600483015260248201939093529160209150829060449082906000905af190811561196a5760009161280d575b50156127d257565b60405162461bcd60e51b8152602060048201526013602482015272151bdad95b881c99599d5b990819985a5b1959606a1b6044820152606490fd5b612826915060203d6020116105e7576105d981836121c3565b386127ca565b1561283357565b60405162461bcd60e51b815260206004820152601860248201527f5061796d656e7420746f2073656c6c6572206661696c656400000000000000006044820152606490fd5b1561287f57565b60405162461bcd60e51b815260206004820152601c60248201527f506c6174666f726d20666565207472616e73666572206661696c6564000000006044820152606490fd5b60ff7ff0c57e16840df040f15088dc2f81fe391c3923bec73e23a9662efc9c229c6a005460401c16156128f357565b604051631afcd79f60e31b8152600490fd5b9061292c575080511561291a57602081519101fd5b60405163d6bda27560e01b8152600490fd5b8151158061295f575b61293d575090565b604051639996b31560e01b81526001600160a01b039091166004820152602490fd5b50803b1561293556fe9016d09d72d40fdae2fd8ceac6b6234c7706214fd39c1cd1e609a0528c199300bb6764412c29916bdf4a5c6fe6b1c079de35682160b2289928ce003ab459a7499b779b17422d0df92223018b32b4d1fa46e071723d6817e2486d003becc55f00a26469706673582212205732af75017860c840a7eae8c8099d21765daf3e47418203e7fff18626d3d1ac64736f6c63430008160033",
  "linkReferences": {},
  "deployedLinkReferences": {}
}