{"contracts/task3/SimpleCrossChainBridge.sol":{"SimpleCrossChainBridge":{"abi":[{"inputs":[],"stateMutability":"nonpayable","type":"constructor"},{"inputs":[{"internalType":"address","name":"owner","type":"address"}],"name":"OwnableInvalidOwner","type":"error"},{"inputs":[{"internalType":"address","name":"account","type":"address"}],"name":"OwnableUnauthorizedAccount","type":"error"},{"inputs":[],"name":"ReentrancyGuardReentrantCall","type":"error"},{"anonymous":false,"inputs":[{"indexed":true,"internalType":"uint64","name":"chainId","type":"uint64"},{"indexed":false,"internalType":"bool","name":"supported","type":"bool"}],"name":"ChainSupported","type":"event"},{"anonymous":false,"inputs":[{"indexed":true,"internalType":"bytes32","name":"transferId","type":"bytes32"},{"indexed":true,"internalType":"address","name":"recipient","type":"address"},{"indexed":false,"internalType":"address","name":"token","type":"address"},{"indexed":false,"internalType":"uint256","name":"amount","type":"uint256"}],"name":"CrossChainTransferCompleted","type":"event"},{"anonymous":false,"inputs":[{"indexed":true,"internalType":"bytes32","name":"transferId","type":"bytes32"},{"indexed":true,"internalType":"address","name":"sender","type":"address"},{"indexed":true,"internalType":"address","name":"recipient","type":"address"},{"indexed":false,"internalType":"address","name":"token","type":"address"},{"indexed":false,"internalType":"uint256","name":"amount","type":"uint256"},{"indexed":false,"internalType":"uint64","name":"destinationChain","type":"uint64"},{"indexed":false,"internalType":"string","name":"message","type":"string"}],"name":"CrossChainTransferInitiated","type":"event"},{"anonymous":false,"inputs":[{"indexed":false,"internalType":"uint256","name":"newFee","type":"uint256"}],"name":"FeeUpdated","type":"event"},{"anonymous":false,"inputs":[{"indexed":true,"internalType":"address","name":"previousOwner","type":"address"},{"indexed":true,"internalType":"address","name":"newOwner","type":"address"}],"name":"OwnershipTransferred","type":"event"},{"anonymous":false,"inputs":[{"indexed":true,"internalType":"uint64","name":"chainId","type":"uint64"},{"indexed":false,"internalType":"address","name":"bridge","type":"address"}],"name":"RemoteBridgeSet","type":"event"},{"inputs":[{"internalType":"bytes32","name":"transferId","type":"bytes32"},{"internalType":"address","name":"recipient","type":"address"},{"internalType":"address","name":"token","type":"address"},{"internalType":"uint256","name":"amount","type":"uint256"}],"name":"completeTransfer","outputs":[],"stateMutability":"nonpayable","type":"function"},{"inputs":[{"internalType":"address","name":"token","type":"address"},{"internalType":"uint256","name":"amount","type":"uint256"}],"name":"emergencyWithdraw","outputs":[],"stateMutability":"nonpayable","type":"function"},{"inputs":[{"internalType":"bytes32","name":"transferId","type":"bytes32"}],"name":"getTransfer","outputs":[{"components":[{"internalType":"address","name":"sender","type":"address"},{"internalType":"address","name":"recipient","type":"address"},{"internalType":"address","name":"token","type":"address"},{"internalType":"uint256","name":"amount","type":"uint256"},{"internalType":"uint64","name":"destinationChain","type":"uint64"},{"internalType":"string","name":"message","type":"string"},{"internalType":"uint256","name":"timestamp","type":"uint256"},{"internalType":"bool","name":"completed","type":"bool"}],"internalType":"struct SimpleCrossChainBridge.CrossChainTransfer","name":"","type":"tuple"}],"stateMutability":"view","type":"function"},{"inputs":[],"name":"owner","outputs":[{"internalType":"address","name":"","type":"address"}],"stateMutability":"view","type":"function"},{"inputs":[{"internalType":"uint64","name":"","type":"uint64"}],"name":"remoteBridges","outputs":[{"internalType":"address","name":"","type":"address"}],"stateMutability":"view","type":"function"},{"inputs":[],"name":"renounceOwnership","outputs":[],"stateMutability":"nonpayable","type":"function"},{"inputs":[{"internalType":"uint64","name":"chainId","type":"uint64"},{"internalType":"address","name":"bridgeAddress","type":"address"}],"name":"setRemoteBridge","outputs":[],"stateMutability":"nonpayable","type":"function"},{"inputs":[{"internalType":"uint64","name":"chainId","type":"uint64"},{"internalType":"bool","name":"supported","type":"bool"}],"name":"setSupportedChain","outputs":[],"stateMutability":"nonpayable","type":"function"},{"inputs":[{"internalType":"uint256","name":"newFee","type":"uint256"}],"name":"setTransferFee","outputs":[],"stateMutability":"nonpayable","type":"function"},{"inputs":[{"internalType":"address","name":"sender","type":"address"},{"internalType":"address","name":"recipient","type":"address"},{"internalType":"address","name":"token","type":"address"},{"internalType":"uint256","name":"amount","type":"uint256"},{"internalType":"string","name":"message","type":"string"}],"name":"simulateReceiveTransfer","outputs":[],"stateMutability":"nonpayable","type":"function"},{"inputs":[{"internalType":"uint64","name":"","type":"uint64"}],"name":"supportedChains","outputs":[{"internalType":"bool","name":"","type":"bool"}],"stateMutability":"view","type":"function"},{"inputs":[],"name":"transferCounter","outputs":[{"internalType":"uint256","name":"","type":"uint256"}],"stateMutability":"view","type":"function"},{"inputs":[{"internalType":"uint64","name":"destinationChain","type":"uint64"},{"internalType":"address","name":"recipient","type":"address"},{"internalType":"string","name":"message","type":"string"}],"name":"transferETHCrossChain","outputs":[],"stateMutability":"payable","type":"function"},{"inputs":[],"name":"transferFee","outputs":[{"internalType":"uint256","name":"","type":"uint256"}],"stateMutability":"view","type":"function"},{"inputs":[{"internalType":"address","name":"newOwner","type":"address"}],"name":"transferOwnership","outputs":[],"stateMutability":"nonpayable","type":"function"},{"inputs":[{"internalType":"uint64","name":"destinationChain","type":"uint64"},{"internalType":"address","name":"recipient","type":"address"},{"internalType":"address","name":"token","type":"address"},{"internalType":"uint256","name":"amount","type":"uint256"},{"internalType":"string","name":"message","type":"string"}],"name":"transferTokenCrossChain","outputs":[],"stateMutability":"payable","type":"function"},{"inputs":[{"internalType":"bytes32","name":"","type":"bytes32"}],"name":"transfers","outputs":[{"internalType":"address","name":"sender","type":"address"},{"internalType":"address","name":"recipient","type":"address"},{"internalType":"address","name":"token","type":"address"},{"internalType":"uint256","name":"amount","type":"uint256"},{"internalType":"uint64","name":"destinationChain","type":"uint64"},{"internalType":"string","name":"message","type":"string"},{"internalType":"uint256","name":"timestamp","type":"uint256"},{"internalType":"bool","name":"completed","type":"bool"}],"stateMutability":"view","type":"function"},{"inputs":[],"name":"withdrawFees","outputs":[],"stateMutability":"nonpayable","type":"function"},{"stateMutability":"payable","type":"receive"}],"devdoc":{"details":"简化的跨链桥，专注于转账功能","errors":{"OwnableInvalidOwner(address)":[{"details":"The owner is not a valid owner account. (eg. `address(0)`)"}],"OwnableUnauthorizedAccount(address)":[{"details":"The caller account is not authorized to perform an operation."}],"ReentrancyGuardReentrantCall()":[{"details":"Unauthorized reentrant call."}]},"kind":"dev","methods":{"completeTransfer(bytes32,address,address,uint256)":{"details":"完成跨链转账 (模拟从其他链接收)"},"emergencyWithdraw(address,uint256)":{"details":"紧急提取代币"},"getTransfer(bytes32)":{"details":"获取转账信息"},"owner()":{"details":"Returns the address of the current owner."},"renounceOwnership()":{"details":"Leaves the contract without owner. It will not be possible to call `onlyOwner` functions. Can only be called by the current owner. NOTE: Renouncing ownership will leave the contract without an owner, thereby disabling any functionality that is only available to the owner."},"setRemoteBridge(uint64,address)":{"details":"设置远程桥接合约"},"setSupportedChain(uint64,bool)":{"details":"设置支持的链"},"setTransferFee(uint256)":{"details":"设置转账费用"},"simulateReceiveTransfer(address,address,address,uint256,string)":{"details":"模拟处理来自其他链的转账"},"transferETHCrossChain(uint64,address,string)":{"details":"跨链转账 ETH"},"transferOwnership(address)":{"details":"Transfers ownership of the contract to a new account (`newOwner`). Can only be called by the current owner."},"transferTokenCrossChain(uint64,address,address,uint256,string)":{"details":"跨链转账 ERC20 代币"},"withdrawFees()":{"details":"提取费用"}},"title":"SimpleCrossChainBridge","version":1},"evm":{"bytecode":{"linkReferences":{},"object":"608080604052346100895733156100735760008054336001600160a01b03198216811783556040519290916001600160a01b0316907f8be0079c531659141344cd1fd0a4f28419497f9722a3daafe3b4186f6b6457e09080a36001805566038d7ea4c6800060055561197c908161008f8239f35b631e4fbdf760e01b815260006004820152602490fd5b600080fdfe608080604052600436101561001d575b50361561001b57600080fd5b005b60003560e01c908163260958a5146113e4575080633c64f04b146113365780633cf8ddf214611318578063476343ee14611262578063715018a6146112095780638da5cb5b146111e05780638f02bb5b1461119457806395ccea67146110a6578063a6a849b714610cfd578063acb2ad6f14610cdf578063d047c80614610842578063d9e05c02146106c2578063e6f8ca6514610680578063ec0e97f9146102cf578063f2fde38b14610246578063f5b5b804146101bd578063f9c3f3321461017e5763ffa739df146100f0573861000f565b34610179576040366003190112610179576101096116c1565b7f904bd135b5f2791af10b42bb9c934453298d028f5bb7aa70ab054222012b4b4560206001600160401b0361013c611695565b93610145611862565b1660008181526004835260409081902080546001600160a01b0319166001600160a01b0390961695861790555193845292a2005b600080fd5b34610179576020366003190112610179576001600160401b0361019f6116c1565b166000526003602052602060ff604060002054166040519015158152f35b34610179576040366003190112610179576101d66116c1565b6024359081151590818303610179577f1e0c3057f04400da671fb47f00beb7d5ac4d6ffc2280ddcdf55321419659ebef9161023d6001600160401b0360209361021d611862565b1694856000526003845260406000209060ff801983541691151516179055565b604051908152a2005b346101795760203660031901126101795761025f61167f565b610267611862565b6001600160a01b039081169081156102b657600054826001600160601b0360a01b821617600055167f8be0079c531659141344cd1fd0a4f28419497f9722a3daafe3b4186f6b6457e0600080a3005b604051631e4fbdf760e01b815260006004820152602490fd5b346101795760a0366003190112610179576102e861167f565b6102f0611695565b906102f96116ab565b916084356001600160401b038111610179576103199036906004016116d7565b9092610323611862565b61032b6118b1565b93604051916103398361159d565b6001600160a01b039081168352848116602084015286166040830190815260643560608401908152466001600160401b031660808501908152919490926103819136916117e9565b9160a084019283524260c0850152600160e085015286600052600260205260406000209460018060a01b038551166001600160601b0360a01b90818854161787556001870160018060a01b0360208801511682825416179055600287019160018060a01b03905116908254161790555160038501556001600160401b03600485019151166001600160401b0319825416179055518051906001600160401b03821161066a576104336005850154611563565b601f8111610623575b50602090601f83116001146105aa57928260079360e093610499979660009261059f575b50508160011b916000199060031b1c19161760058501555b60c081015160068501550151151591019060ff801983541691151516179055565b6001600160a01b038316610501576104fc600080516020611907833981519152916104d66000808080606435865af16104d061171f565b50611820565b604080516001600160a01b03968716815260643560208201529590911694918291820190565b0390a3005b60405163a9059cbb60e01b81526001600160a01b03821660048201526064356024820152906020828060448101038160006001600160a01b0389165af190811561059357600080516020611907833981519152926104fc92610564575b506104d6565b6105859060203d60201161058c575b61057d81836115b9565b81019061174f565b508561055e565b503d610573565b6040513d6000823e3d90fd5b015190508a80610460565b906005850160005260206000209160005b601f198516811061060b57508360e093610499979693600193600797601f198116106105f2575b505050811b016005850155610478565b015160001960f88460031b161c191690558a80806105e2565b919260206001819286850151815501940192016105bb565b600585016000526020600020601f840160051c810160208510610663575b601f830160051c8201811061065757505061043c565b60008155600101610641565b5080610641565b634e487b7160e01b600052604160045260246000fd5b34610179576020366003190112610179576001600160401b036106a16116c1565b166000526004602052602060018060a01b0360406000205416604051908152f35b34610179576080366003190112610179576004356106de611695565b906106e76116ab565b916064356106f3611862565b826000526020916002835260ff600760406000200154166107fd576001600160a01b03918583168061078557508060026000805160206119078339815191529561074a60008080806104fc988a5af16104d061171f565b87600052526007604060002001600160ff1982541617905560405193849316968360209093929193604081019460018060a01b031681520152565b60405163a9059cbb60e01b81526001600160a01b03841660048201526024810183905291908590839060449082906000905af1801561059357600080516020611907833981519152956104fc936002926107e0575b5061074a565b6107f690823d841161058c5761057d81836115b9565b50896107da565b60405162461bcd60e51b815260048101849052601a60248201527f5472616e7366657220616c726561647920636f6d706c657465640000000000006044820152606490fd5b60a0366003190112610179576108566116c1565b61085e611695565b906108676116ab565b916084356001600160401b038111610179576108879036906004016116d7565b92909161089261188e565b6001600160401b03821660005260036020526108b560ff60406000205416611767565b6108c96001600160a01b03821615156117a9565b6001600160a01b03851615610caa5760643515610c74576005543410610c3c576040516323b872dd60e01b815233600482015230602482015260648035604483015260209082908160006001600160a01b038b165af1801561059357610c1d575b506109336118b1565b92604051906109418261159d565b3382526001600160a01b0383811660208401528716604083015260643560608301526001600160401b038416608083015261097d3687836117e9565b60a08301524260c0830152600060e0830152846000526002602052604060002060018060a01b038351166001600160601b0360a01b8254161781556001810160018060a01b036020850151166001600160601b0360a01b8254161790556002810160018060a01b036040850151166001600160601b0360a01b82541617905560608301516003820155600481016001600160401b036080850151166001600160401b031982541617905560a08301519283516001600160401b03811161066a578894610a4c6005850154611563565b601f8111610bc2575b50602090601f8311600114610b2b5760e0600080516020611927833981519152999484610ac8956001600160401b039895600795600092610b205750508160011b916000199060031b1c191617600585015560c081015160068501550151151591019060ff801983541691151516179055565b6040519860018060a01b0316895260643560208a01521660408801526080606088015281608088015260a0870137600060a0858701015260018060a01b03169360a0813395601f80199101168101030190a460018055005b015190503880610460565b60058594939299950160005260206000209060005b601f1984168110610ba75750610ac8936001846007946000805160206119278339815191529d60e0956001600160401b039b9a98601f19811610610b8e57505050811b016005850155610478565b015160001960f88460031b161c191690553880806105e2565b818b0151835560209a8b019a8d995060019093019201610b40565b90919293949550600585016000526020600020601f840160051c810160208510610c16575b908b979695949392915b601f830160051c82018110610c07575050610a55565b600081558c9850600101610bf1565b5080610be7565b610c359060203d60201161058c5761057d81836115b9565b508561092a565b60405162461bcd60e51b815260206004820152601060248201526f496e73756666696369656e742066656560801b6044820152606490fd5b60405162461bcd60e51b815260206004820152600e60248201526d125b9d985b1a5908185b5bdd5b9d60921b6044820152606490fd5b60405162461bcd60e51b815260206004820152600d60248201526c24b73b30b634b2103a37b5b2b760991b6044820152606490fd5b34610179576000366003190112610179576020600554604051908152f35b606036600319011261017957610d116116c1565b610d19611695565b906044356001600160401b03811161017957610d399036906004016116d7565b91610d4261188e565b6001600160401b0381166000526003602052610d6560ff60406000205416611767565b610d796001600160a01b03851615156117a9565b600554938434111561106b57348534031161105557610d966118b1565b9260405190610da48261159d565b3382526001600160a01b0383166020830152600060408301523487900360608301526001600160401b0384166080830152610de03687836117e9565b60a08301524260c0830152600060e0830152846000526002602052604060002060018060a01b038351166001600160601b0360a01b8254161781556001810160018060a01b036020850151166001600160601b0360a01b8254161790556002810160018060a01b036040850151166001600160601b0360a01b82541617905560608301516003820155600481016001600160401b036080850151166001600160401b031982541617905560a08301519283516001600160401b03811161066a578894610eaf6005850154611563565b601f8111610ffa575b50602090601f8311600114610f7c5760e0600080516020611927833981519152999484610f2b956001600160401b039895600795600092610b205750508160011b916000199060031b1c191617600585015560c081015160068501550151151591019060ff801983541691151516179055565b6040519860008a52340360208a01521660408801526080606088015281608088015260a0870137600060a0858701015260018060a01b03169360a0813395601f80199101168101030190a460018055005b60058594939299950160005260206000209060005b601f1984168110610fdf5750610f2b936001846007946000805160206119278339815191529d60e0956001600160401b039b9a98601f19811610610b8e57505050811b016005850155610478565b818b0151835560209a8b019a8d995060019093019201610f91565b90919293949550600585016000526020600020601f840160051c81016020851061104e575b908b979695949392915b601f830160051c8201811061103f575050610eb8565b600081558c9850600101611029565b508061101f565b634e487b7160e01b600052601160045260246000fd5b60405162461bcd60e51b8152602060048201526013602482015272125b9cdd59999a58da595b9d08185b5bdd5b9d606a1b6044820152606490fd5b34610179576040366003190112610179576110bf61167f565b602435906110cb611862565b6001600160a01b03908116806111355750600080809381938254165af16110f061171f565b50156110f857005b60405162461bcd60e51b8152602060048201526015602482015274115512081dda5d1a191c985dd85b0819985a5b1959605a1b6044820152606490fd5b6000805460405163a9059cbb60e01b815293166001600160a01b031660048401526024830193909352909160209183918290816044810103925af180156105935761117c57005b61001b9060203d60201161058c5761057d81836115b9565b34610179576020366003190112610179577f8c4d35e54a3f2ef1134138fd8ea3daee6a3c89e10d2665996babdf70261e2c7660206004356111d3611862565b80600555604051908152a1005b34610179576000366003190112610179576000546040516001600160a01b039091168152602090f35b3461017957600036600319011261017957611222611862565b600080546001600160a01b0319811682556001600160a01b03167f8be0079c531659141344cd1fd0a4f28419497f9722a3daafe3b4186f6b6457e08280a3005b346101795760003660031901126101795761127b611862565b4780156112dd5760008080809360018060a01b038254165af161129c61171f565b50156112a457005b60405162461bcd60e51b815260206004820152601160248201527015da5d1a191c985dd85b0819985a5b1959607a1b6044820152606490fd5b60405162461bcd60e51b81526020600482015260136024820152724e6f206665657320746f20776974686472617760681b6044820152606490fd5b34610179576000366003190112610179576020600654604051908152f35b34610179576020366003190112610179576004356000526002602052604060002060018060a01b0380825416918160018201541691600282015416926113d36003830154916001600160401b0360048501541690611396600586016115da565b9160ff600760068801549701541694604051988998610100948a5260208a01526040890152606088015260808701528060a0870152850190611523565b9160c0840152151560e08301520390f35b3461017957602090816003193601126101795760e08161140560009361159d565b8281528284820152826040820152826060820152826080820152606060a08201528260c0820152015260043560005260028152604060002090604051809261144c8261159d565b60018060a01b0390818154168352816001820154169184840192835280600283015416604085019081526003830154606086019081526001600160401b03928360048601541692608088019384528160ff60076114ab60058a016115da565b9860a08c01998a5260c060068201549c019b8c520154169760e08c0198151589528a826040519d8e9d8e525116908c0152511660408a015251166060880152516080870152511660a08501525190611511610100928360c0870152610120860190611523565b925160e0850152511515908301520390f35b919082519283825260005b84811061154f575050826000602080949584010152601f8019910116010190565b60208183018101518483018201520161152e565b90600182811c92168015611593575b602083101461157d57565b634e487b7160e01b600052602260045260246000fd5b91607f1691611572565b61010081019081106001600160401b0382111761066a57604052565b90601f801991011681019081106001600160401b0382111761066a57604052565b906040519182600082546115ed81611563565b9081845260209460019160018116908160001461165d575060011461161e575b50505061161c925003836115b9565b565b600090815285812095935091905b81831061164557505061161c935082010138808061160d565b8554888401850152948501948794509183019161162c565b9250505061161c94925060ff191682840152151560051b82010138808061160d565b600435906001600160a01b038216820361017957565b602435906001600160a01b038216820361017957565b604435906001600160a01b038216820361017957565b600435906001600160401b038216820361017957565b9181601f84011215610179578235916001600160401b038311610179576020838186019501011161017957565b6001600160401b03811161066a57601f01601f191660200190565b3d1561174a573d9061173082611704565b9161173e60405193846115b9565b82523d6000602084013e565b606090565b90816020910312610179575180151581036101795790565b1561176e57565b60405162461bcd60e51b815260206004820152601360248201527210da185a5b881b9bdd081cdd5c1c1bdc9d1959606a1b6044820152606490fd5b156117b057565b60405162461bcd60e51b8152602060048201526011602482015270125b9d985b1a59081c9958da5c1a595b9d607a1b6044820152606490fd5b9291926117f582611704565b9161180360405193846115b9565b829481845281830111610179578281602093846000960137010152565b1561182757565b60405162461bcd60e51b8152602060048201526013602482015272115512081d1c985b9cd9995c8819985a5b1959606a1b6044820152606490fd5b6000546001600160a01b0316330361187657565b60405163118cdaa760e01b8152336004820152602490fd5b60026001541461189f576002600155565b604051633ee5aeb560e01b8152600490fd5b6006546000198114611055576001018060065560405160208101914283524460408301523360601b606083015260748201526074815260a081018181106001600160401b0382111761066a576040525190209056fe174132cbe441741d0eabc42bd8d4344c92da5172baf0d4adac5296082a6e768bf5e7668fc05e2bc8c6ef0c7c2e8c88b96b9788cf4818cfc618c2cf43ad0bab3ba26469706673582212205baecca74a063da55f9775dbe74eaa82729fbb6d1b56f02f6da1a7f53d056f0464736f6c63430008160033","opcodes":"PUSH1 0x80 DUP1 PUSH1 0x40 MSTORE CALLVALUE PUSH2 0x89 JUMPI CALLER ISZERO PUSH2 0x73 JUMPI PUSH1 0x0 DUP1 SLOAD CALLER PUSH1 0x1 PUSH1 0x1 PUSH1 0xA0 SHL SUB NOT DUP3 AND DUP2 OR DUP4 SSTORE PUSH1 0x40 MLOAD SWAP3 SWAP1 SWAP2 PUSH1 0x1 PUSH1 0x1 PUSH1 0xA0 SHL SUB AND SWAP1 PUSH32 0x8BE0079C531659141344CD1FD0A4F28419497F9722A3DAAFE3B4186F6B6457E0 SWAP1 DUP1 LOG3 PUSH1 0x1 DUP1 SSTORE PUSH7 0x38D7EA4C68000 PUSH1 0x5 SSTORE PUSH2 0x197C SWAP1 DUP2 PUSH2 0x8F DUP3 CODECOPY RETURN JUMPDEST PUSH4 0x1E4FBDF7 PUSH1 0xE0 SHL DUP2 MSTORE PUSH1 0x0 PUSH1 0x4 DUP3 ADD MSTORE PUSH1 0x24 SWAP1 REVERT JUMPDEST PUSH1 0x0 DUP1 REVERT INVALID PUSH1 0x80 DUP1 PUSH1 0x40 MSTORE PUSH1 0x4 CALLDATASIZE LT ISZERO PUSH2 0x1D JUMPI JUMPDEST POP CALLDATASIZE ISZERO PUSH2 0x1B JUMPI PUSH1 0x0 DUP1 REVERT JUMPDEST STOP JUMPDEST PUSH1 0x0 CALLDATALOAD PUSH1 0xE0 SHR SWAP1 DUP2 PUSH4 0x260958A5 EQ PUSH2 0x13E4 JUMPI POP DUP1 PUSH4 0x3C64F04B EQ PUSH2 0x1336 JUMPI DUP1 PUSH4 0x3CF8DDF2 EQ PUSH2 0x1318 JUMPI DUP1 PUSH4 0x476343EE EQ PUSH2 0x1262 JUMPI DUP1 PUSH4 0x715018A6 EQ PUSH2 0x1209 JUMPI DUP1 PUSH4 0x8DA5CB5B EQ PUSH2 0x11E0 JUMPI DUP1 PUSH4 0x8F02BB5B EQ PUSH2 0x1194 JUMPI DUP1 PUSH4 0x95CCEA67 EQ PUSH2 0x10A6 JUMPI DUP1 PUSH4 0xA6A849B7 EQ PUSH2 0xCFD JUMPI DUP1 PUSH4 0xACB2AD6F EQ PUSH2 0xCDF JUMPI DUP1 PUSH4 0xD047C806 EQ PUSH2 0x842 JUMPI DUP1 PUSH4 0xD9E05C02 EQ PUSH2 0x6C2 JUMPI DUP1 PUSH4 0xE6F8CA65 EQ PUSH2 0x680 JUMPI DUP1 PUSH4 0xEC0E97F9 EQ PUSH2 0x2CF JUMPI DUP1 PUSH4 0xF2FDE38B EQ PUSH2 0x246 JUMPI DUP1 PUSH4 0xF5B5B804 EQ PUSH2 0x1BD JUMPI DUP1 PUSH4 0xF9C3F332 EQ PUSH2 0x17E JUMPI PUSH4 0xFFA739DF EQ PUSH2 0xF0 JUMPI CODESIZE PUSH2 0xF JUMP JUMPDEST CALLVALUE PUSH2 0x179 JUMPI PUSH1 0x40 CALLDATASIZE PUSH1 0x3 NOT ADD SLT PUSH2 0x179 JUMPI PUSH2 0x109 PUSH2 0x16C1 JUMP JUMPDEST PUSH32 0x904BD135B5F2791AF10B42BB9C934453298D028F5BB7AA70AB054222012B4B45 PUSH1 0x20 PUSH1 0x1 PUSH1 0x1 PUSH1 0x40 SHL SUB PUSH2 0x13C PUSH2 0x1695 JUMP JUMPDEST SWAP4 PUSH2 0x145 PUSH2 0x1862 JUMP JUMPDEST AND PUSH1 0x0 DUP2 DUP2 MSTORE PUSH1 0x4 DUP4 MSTORE PUSH1 0x40 SWAP1 DUP2 SWAP1 KECCAK256 DUP1 SLOAD PUSH1 0x1 PUSH1 0x1 PUSH1 0xA0 SHL SUB NOT AND PUSH1 0x1 PUSH1 0x1 PUSH1 0xA0 SHL SUB SWAP1 SWAP7 AND SWAP6 DUP7 OR SWAP1 SSTORE MLOAD SWAP4 DUP5 MSTORE SWAP3 LOG2 STOP JUMPDEST PUSH1 0x0 DUP1 REVERT JUMPDEST CALLVALUE PUSH2 0x179 JUMPI PUSH1 0x20 CALLDATASIZE PUSH1 0x3 NOT ADD SLT PUSH2 0x179 JUMPI PUSH1 0x1 PUSH1 0x1 PUSH1 0x40 SHL SUB PUSH2 0x19F PUSH2 0x16C1 JUMP JUMPDEST AND PUSH1 0x0 MSTORE PUSH1 0x3 PUSH1 0x20 MSTORE PUSH1 0x20 PUSH1 0xFF PUSH1 0x40 PUSH1 0x0 KECCAK256 SLOAD AND PUSH1 0x40 MLOAD SWAP1 ISZERO ISZERO DUP2 MSTORE RETURN JUMPDEST CALLVALUE PUSH2 0x179 JUMPI PUSH1 0x40 CALLDATASIZE PUSH1 0x3 NOT ADD SLT PUSH2 0x179 JUMPI PUSH2 0x1D6 PUSH2 0x16C1 JUMP JUMPDEST PUSH1 0x24 CALLDATALOAD SWAP1 DUP2 ISZERO ISZERO SWAP1 DUP2 DUP4 SUB PUSH2 0x179 JUMPI PUSH32 0x1E0C3057F04400DA671FB47F00BEB7D5AC4D6FFC2280DDCDF55321419659EBEF SWAP2 PUSH2 0x23D PUSH1 0x1 PUSH1 0x1 PUSH1 0x40 SHL SUB PUSH1 0x20 SWAP4 PUSH2 0x21D PUSH2 0x1862 JUMP JUMPDEST AND SWAP5 DUP6 PUSH1 0x0 MSTORE PUSH1 0x3 DUP5 MSTORE PUSH1 0x40 PUSH1 0x0 KECCAK256 SWAP1 PUSH1 0xFF DUP1 NOT DUP4 SLOAD AND SWAP2 ISZERO ISZERO AND OR SWAP1 SSTORE JUMP JUMPDEST PUSH1 0x40 MLOAD SWAP1 DUP2 MSTORE LOG2 STOP JUMPDEST CALLVALUE PUSH2 0x179 JUMPI PUSH1 0x20 CALLDATASIZE PUSH1 0x3 NOT ADD SLT PUSH2 0x179 JUMPI PUSH2 0x25F PUSH2 0x167F JUMP JUMPDEST PUSH2 0x267 PUSH2 0x1862 JUMP JUMPDEST PUSH1 0x1 PUSH1 0x1 PUSH1 0xA0 SHL SUB SWAP1 DUP2 AND SWAP1 DUP2 ISZERO PUSH2 0x2B6 JUMPI PUSH1 0x0 SLOAD DUP3 PUSH1 0x1 PUSH1 0x1 PUSH1 0x60 SHL SUB PUSH1 0xA0 SHL DUP3 AND OR PUSH1 0x0 SSTORE AND PUSH32 0x8BE0079C531659141344CD1FD0A4F28419497F9722A3DAAFE3B4186F6B6457E0 PUSH1 0x0 DUP1 LOG3 STOP JUMPDEST PUSH1 0x40 MLOAD PUSH4 0x1E4FBDF7 PUSH1 0xE0 SHL DUP2 MSTORE PUSH1 0x0 PUSH1 0x4 DUP3 ADD MSTORE PUSH1 0x24 SWAP1 REVERT JUMPDEST CALLVALUE PUSH2 0x179 JUMPI PUSH1 0xA0 CALLDATASIZE PUSH1 0x3 NOT ADD SLT PUSH2 0x179 JUMPI PUSH2 0x2E8 PUSH2 0x167F JUMP JUMPDEST PUSH2 0x2F0 PUSH2 0x1695 JUMP JUMPDEST SWAP1 PUSH2 0x2F9 PUSH2 0x16AB JUMP JUMPDEST SWAP2 PUSH1 0x84 CALLDATALOAD PUSH1 0x1 PUSH1 0x1 PUSH1 0x40 SHL SUB DUP2 GT PUSH2 0x179 JUMPI PUSH2 0x319 SWAP1 CALLDATASIZE SWAP1 PUSH1 0x4 ADD PUSH2 0x16D7 JUMP JUMPDEST SWAP1 SWAP3 PUSH2 0x323 PUSH2 0x1862 JUMP JUMPDEST PUSH2 0x32B PUSH2 0x18B1 JUMP JUMPDEST SWAP4 PUSH1 0x40 MLOAD SWAP2 PUSH2 0x339 DUP4 PUSH2 0x159D JUMP JUMPDEST PUSH1 0x1 PUSH1 0x1 PUSH1 0xA0 SHL SUB SWAP1 DUP2 AND DUP4 MSTORE DUP5 DUP2 AND PUSH1 0x20 DUP5 ADD MSTORE DUP7 AND PUSH1 0x40 DUP4 ADD SWAP1 DUP2 MSTORE PUSH1 0x64 CALLDATALOAD PUSH1 0x60 DUP5 ADD SWAP1 DUP2 MSTORE CHAINID PUSH1 0x1 PUSH1 0x1 PUSH1 0x40 SHL SUB AND PUSH1 0x80 DUP6 ADD SWAP1 DUP2 MSTORE SWAP2 SWAP5 SWAP1 SWAP3 PUSH2 0x381 SWAP2 CALLDATASIZE SWAP2 PUSH2 0x17E9 JUMP JUMPDEST SWAP2 PUSH1 0xA0 DUP5 ADD SWAP3 DUP4 MSTORE TIMESTAMP PUSH1 0xC0 DUP6 ADD MSTORE PUSH1 0x1 PUSH1 0xE0 DUP6 ADD MSTORE DUP7 PUSH1 0x0 MSTORE PUSH1 0x2 PUSH1 0x20 MSTORE PUSH1 0x40 PUSH1 0x0 KECCAK256 SWAP5 PUSH1 0x1 DUP1 PUSH1 0xA0 SHL SUB DUP6 MLOAD AND PUSH1 0x1 PUSH1 0x1 PUSH1 0x60 SHL SUB PUSH1 0xA0 SHL SWAP1 DUP2 DUP9 SLOAD AND OR DUP8 SSTORE PUSH1 0x1 DUP8 ADD PUSH1 0x1 DUP1 PUSH1 0xA0 SHL SUB PUSH1 0x20 DUP9 ADD MLOAD AND DUP3 DUP3 SLOAD AND OR SWAP1 SSTORE PUSH1 0x2 DUP8 ADD SWAP2 PUSH1 0x1 DUP1 PUSH1 0xA0 SHL SUB SWAP1 MLOAD AND SWAP1 DUP3 SLOAD AND OR SWAP1 SSTORE MLOAD PUSH1 0x3 DUP6 ADD SSTORE PUSH1 0x1 PUSH1 0x1 PUSH1 0x40 SHL SUB PUSH1 0x4 DUP6 ADD SWAP2 MLOAD AND PUSH1 0x1 PUSH1 0x1 PUSH1 0x40 SHL SUB NOT DUP3 SLOAD AND OR SWAP1 SSTORE MLOAD DUP1 MLOAD SWAP1 PUSH1 0x1 PUSH1 0x1 PUSH1 0x40 SHL SUB DUP3 GT PUSH2 0x66A JUMPI PUSH2 0x433 PUSH1 0x5 DUP6 ADD SLOAD PUSH2 0x1563 JUMP JUMPDEST PUSH1 0x1F DUP2 GT PUSH2 0x623 JUMPI JUMPDEST POP PUSH1 0x20 SWAP1 PUSH1 0x1F DUP4 GT PUSH1 0x1 EQ PUSH2 0x5AA JUMPI SWAP3 DUP3 PUSH1 0x7 SWAP4 PUSH1 0xE0 SWAP4 PUSH2 0x499 SWAP8 SWAP7 PUSH1 0x0 SWAP3 PUSH2 0x59F JUMPI JUMPDEST POP POP DUP2 PUSH1 0x1 SHL SWAP2 PUSH1 0x0 NOT SWAP1 PUSH1 0x3 SHL SHR NOT AND OR PUSH1 0x5 DUP6 ADD SSTORE JUMPDEST PUSH1 0xC0 DUP2 ADD MLOAD PUSH1 0x6 DUP6 ADD SSTORE ADD MLOAD ISZERO ISZERO SWAP2 ADD SWAP1 PUSH1 0xFF DUP1 NOT DUP4 SLOAD AND SWAP2 ISZERO ISZERO AND OR SWAP1 SSTORE JUMP JUMPDEST PUSH1 0x1 PUSH1 0x1 PUSH1 0xA0 SHL SUB DUP4 AND PUSH2 0x501 JUMPI PUSH2 0x4FC PUSH1 0x0 DUP1 MLOAD PUSH1 0x20 PUSH2 0x1907 DUP4 CODECOPY DUP2 MLOAD SWAP2 MSTORE SWAP2 PUSH2 0x4D6 PUSH1 0x0 DUP1 DUP1 DUP1 PUSH1 0x64 CALLDATALOAD DUP7 GAS CALL PUSH2 0x4D0 PUSH2 0x171F JUMP JUMPDEST POP PUSH2 0x1820 JUMP JUMPDEST PUSH1 0x40 DUP1 MLOAD PUSH1 0x1 PUSH1 0x1 PUSH1 0xA0 SHL SUB SWAP7 DUP8 AND DUP2 MSTORE PUSH1 0x64 CALLDATALOAD PUSH1 0x20 DUP3 ADD MSTORE SWAP6 SWAP1 SWAP2 AND SWAP5 SWAP2 DUP3 SWAP2 DUP3 ADD SWAP1 JUMP JUMPDEST SUB SWAP1 LOG3 STOP JUMPDEST PUSH1 0x40 MLOAD PUSH4 0xA9059CBB PUSH1 0xE0 SHL DUP2 MSTORE PUSH1 0x1 PUSH1 0x1 PUSH1 0xA0 SHL SUB DUP3 AND PUSH1 0x4 DUP3 ADD MSTORE PUSH1 0x64 CALLDATALOAD PUSH1 0x24 DUP3 ADD MSTORE SWAP1 PUSH1 0x20 DUP3 DUP1 PUSH1 0x44 DUP2 ADD SUB DUP2 PUSH1 0x0 PUSH1 0x1 PUSH1 0x1 PUSH1 0xA0 SHL SUB DUP10 AND GAS CALL SWAP1 DUP2 ISZERO PUSH2 0x593 JUMPI PUSH1 0x0 DUP1 MLOAD PUSH1 0x20 PUSH2 0x1907 DUP4 CODECOPY DUP2 MLOAD SWAP2 MSTORE SWAP3 PUSH2 0x4FC SWAP3 PUSH2 0x564 JUMPI JUMPDEST POP PUSH2 0x4D6 JUMP JUMPDEST PUSH2 0x585 SWAP1 PUSH1 0x20 RETURNDATASIZE PUSH1 0x20 GT PUSH2 0x58C JUMPI JUMPDEST PUSH2 0x57D DUP2 DUP4 PUSH2 0x15B9 JUMP JUMPDEST DUP2 ADD SWAP1 PUSH2 0x174F JUMP JUMPDEST POP DUP6 PUSH2 0x55E JUMP JUMPDEST POP RETURNDATASIZE PUSH2 0x573 JUMP JUMPDEST PUSH1 0x40 MLOAD RETURNDATASIZE PUSH1 0x0 DUP3 RETURNDATACOPY RETURNDATASIZE SWAP1 REVERT JUMPDEST ADD MLOAD SWAP1 POP DUP11 DUP1 PUSH2 0x460 JUMP JUMPDEST SWAP1 PUSH1 0x5 DUP6 ADD PUSH1 0x0 MSTORE PUSH1 0x20 PUSH1 0x0 KECCAK256 SWAP2 PUSH1 0x0 JUMPDEST PUSH1 0x1F NOT DUP6 AND DUP2 LT PUSH2 0x60B JUMPI POP DUP4 PUSH1 0xE0 SWAP4 PUSH2 0x499 SWAP8 SWAP7 SWAP4 PUSH1 0x1 SWAP4 PUSH1 0x7 SWAP8 PUSH1 0x1F NOT DUP2 AND LT PUSH2 0x5F2 JUMPI JUMPDEST POP POP POP DUP2 SHL ADD PUSH1 0x5 DUP6 ADD SSTORE PUSH2 0x478 JUMP JUMPDEST ADD MLOAD PUSH1 0x0 NOT PUSH1 0xF8 DUP5 PUSH1 0x3 SHL AND SHR NOT AND SWAP1 SSTORE DUP11 DUP1 DUP1 PUSH2 0x5E2 JUMP JUMPDEST SWAP2 SWAP3 PUSH1 0x20 PUSH1 0x1 DUP2 SWAP3 DUP7 DUP6 ADD MLOAD DUP2 SSTORE ADD SWAP5 ADD SWAP3 ADD PUSH2 0x5BB JUMP JUMPDEST PUSH1 0x5 DUP6 ADD PUSH1 0x0 MSTORE PUSH1 0x20 PUSH1 0x0 KECCAK256 PUSH1 0x1F DUP5 ADD PUSH1 0x5 SHR DUP2 ADD PUSH1 0x20 DUP6 LT PUSH2 0x663 JUMPI JUMPDEST PUSH1 0x1F DUP4 ADD PUSH1 0x5 SHR DUP3 ADD DUP2 LT PUSH2 0x657 JUMPI POP POP PUSH2 0x43C JUMP JUMPDEST PUSH1 0x0 DUP2 SSTORE PUSH1 0x1 ADD PUSH2 0x641 JUMP JUMPDEST POP DUP1 PUSH2 0x641 JUMP JUMPDEST PUSH4 0x4E487B71 PUSH1 0xE0 SHL PUSH1 0x0 MSTORE PUSH1 0x41 PUSH1 0x4 MSTORE PUSH1 0x24 PUSH1 0x0 REVERT JUMPDEST CALLVALUE PUSH2 0x179 JUMPI PUSH1 0x20 CALLDATASIZE PUSH1 0x3 NOT ADD SLT PUSH2 0x179 JUMPI PUSH1 0x1 PUSH1 0x1 PUSH1 0x40 SHL SUB PUSH2 0x6A1 PUSH2 0x16C1 JUMP JUMPDEST AND PUSH1 0x0 MSTORE PUSH1 0x4 PUSH1 0x20 MSTORE PUSH1 0x20 PUSH1 0x1 DUP1 PUSH1 0xA0 SHL SUB PUSH1 0x40 PUSH1 0x0 KECCAK256 SLOAD AND PUSH1 0x40 MLOAD SWAP1 DUP2 MSTORE RETURN JUMPDEST CALLVALUE PUSH2 0x179 JUMPI PUSH1 0x80 CALLDATASIZE PUSH1 0x3 NOT ADD SLT PUSH2 0x179 JUMPI PUSH1 0x4 CALLDATALOAD PUSH2 0x6DE PUSH2 0x1695 JUMP JUMPDEST SWAP1 PUSH2 0x6E7 PUSH2 0x16AB JUMP JUMPDEST SWAP2 PUSH1 0x64 CALLDATALOAD PUSH2 0x6F3 PUSH2 0x1862 JUMP JUMPDEST DUP3 PUSH1 0x0 MSTORE PUSH1 0x20 SWAP2 PUSH1 0x2 DUP4 MSTORE PUSH1 0xFF PUSH1 0x7 PUSH1 0x40 PUSH1 0x0 KECCAK256 ADD SLOAD AND PUSH2 0x7FD JUMPI PUSH1 0x1 PUSH1 0x1 PUSH1 0xA0 SHL SUB SWAP2 DUP6 DUP4 AND DUP1 PUSH2 0x785 JUMPI POP DUP1 PUSH1 0x2 PUSH1 0x0 DUP1 MLOAD PUSH1 0x20 PUSH2 0x1907 DUP4 CODECOPY DUP2 MLOAD SWAP2 MSTORE SWAP6 PUSH2 0x74A PUSH1 0x0 DUP1 DUP1 DUP1 PUSH2 0x4FC SWAP9 DUP11 GAS CALL PUSH2 0x4D0 PUSH2 0x171F JUMP JUMPDEST DUP8 PUSH1 0x0 MSTORE MSTORE PUSH1 0x7 PUSH1 0x40 PUSH1 0x0 KECCAK256 ADD PUSH1 0x1 PUSH1 0xFF NOT DUP3 SLOAD AND OR SWAP1 SSTORE PUSH1 0x40 MLOAD SWAP4 DUP5 SWAP4 AND SWAP7 DUP4 PUSH1 0x20 SWAP1 SWAP4 SWAP3 SWAP2 SWAP4 PUSH1 0x40 DUP2 ADD SWAP5 PUSH1 0x1 DUP1 PUSH1 0xA0 SHL SUB AND DUP2 MSTORE ADD MSTORE JUMP JUMPDEST PUSH1 0x40 MLOAD PUSH4 0xA9059CBB PUSH1 0xE0 SHL DUP2 MSTORE PUSH1 0x1 PUSH1 0x1 PUSH1 0xA0 SHL SUB DUP5 AND PUSH1 0x4 DUP3 ADD MSTORE PUSH1 0x24 DUP2 ADD DUP4 SWAP1 MSTORE SWAP2 SWAP1 DUP6 SWAP1 DUP4 SWAP1 PUSH1 0x44 SWAP1 DUP3 SWAP1 PUSH1 0x0 SWAP1 GAS CALL DUP1 ISZERO PUSH2 0x593 JUMPI PUSH1 0x0 DUP1 MLOAD PUSH1 0x20 PUSH2 0x1907 DUP4 CODECOPY DUP2 MLOAD SWAP2 MSTORE SWAP6 PUSH2 0x4FC SWAP4 PUSH1 0x2 SWAP3 PUSH2 0x7E0 JUMPI JUMPDEST POP PUSH2 0x74A JUMP JUMPDEST PUSH2 0x7F6 SWAP1 DUP3 RETURNDATASIZE DUP5 GT PUSH2 0x58C JUMPI PUSH2 0x57D DUP2 DUP4 PUSH2 0x15B9 JUMP JUMPDEST POP DUP10 PUSH2 0x7DA JUMP JUMPDEST PUSH1 0x40 MLOAD PUSH3 0x461BCD PUSH1 0xE5 SHL DUP2 MSTORE PUSH1 0x4 DUP2 ADD DUP5 SWAP1 MSTORE PUSH1 0x1A PUSH1 0x24 DUP3 ADD MSTORE PUSH32 0x5472616E7366657220616C726561647920636F6D706C65746564000000000000 PUSH1 0x44 DUP3 ADD MSTORE PUSH1 0x64 SWAP1 REVERT JUMPDEST PUSH1 0xA0 CALLDATASIZE PUSH1 0x3 NOT ADD SLT PUSH2 0x179 JUMPI PUSH2 0x856 PUSH2 0x16C1 JUMP JUMPDEST PUSH2 0x85E PUSH2 0x1695 JUMP JUMPDEST SWAP1 PUSH2 0x867 PUSH2 0x16AB JUMP JUMPDEST SWAP2 PUSH1 0x84 CALLDATALOAD PUSH1 0x1 PUSH1 0x1 PUSH1 0x40 SHL SUB DUP2 GT PUSH2 0x179 JUMPI PUSH2 0x887 SWAP1 CALLDATASIZE SWAP1 PUSH1 0x4 ADD PUSH2 0x16D7 JUMP JUMPDEST SWAP3 SWAP1 SWAP2 PUSH2 0x892 PUSH2 0x188E JUMP JUMPDEST PUSH1 0x1 PUSH1 0x1 PUSH1 0x40 SHL SUB DUP3 AND PUSH1 0x0 MSTORE PUSH1 0x3 PUSH1 0x20 MSTORE PUSH2 0x8B5 PUSH1 0xFF PUSH1 0x40 PUSH1 0x0 KECCAK256 SLOAD AND PUSH2 0x1767 JUMP JUMPDEST PUSH2 0x8C9 PUSH1 0x1 PUSH1 0x1 PUSH1 0xA0 SHL SUB DUP3 AND ISZERO ISZERO PUSH2 0x17A9 JUMP JUMPDEST PUSH1 0x1 PUSH1 0x1 PUSH1 0xA0 SHL SUB DUP6 AND ISZERO PUSH2 0xCAA JUMPI PUSH1 0x64 CALLDATALOAD ISZERO PUSH2 0xC74 JUMPI PUSH1 0x5 SLOAD CALLVALUE LT PUSH2 0xC3C JUMPI PUSH1 0x40 MLOAD PUSH4 0x23B872DD PUSH1 0xE0 SHL DUP2 MSTORE CALLER PUSH1 0x4 DUP3 ADD MSTORE ADDRESS PUSH1 0x24 DUP3 ADD MSTORE PUSH1 0x64 DUP1 CALLDATALOAD PUSH1 0x44 DUP4 ADD MSTORE PUSH1 0x20 SWAP1 DUP3 SWAP1 DUP2 PUSH1 0x0 PUSH1 0x1 PUSH1 0x1 PUSH1 0xA0 SHL SUB DUP12 AND GAS CALL DUP1 ISZERO PUSH2 0x593 JUMPI PUSH2 0xC1D JUMPI JUMPDEST POP PUSH2 0x933 PUSH2 0x18B1 JUMP JUMPDEST SWAP3 PUSH1 0x40 MLOAD SWAP1 PUSH2 0x941 DUP3 PUSH2 0x159D JUMP JUMPDEST CALLER DUP3 MSTORE PUSH1 0x1 PUSH1 0x1 PUSH1 0xA0 SHL SUB DUP4 DUP2 AND PUSH1 0x20 DUP5 ADD MSTORE DUP8 AND PUSH1 0x40 DUP4 ADD MSTORE PUSH1 0x64 CALLDATALOAD PUSH1 0x60 DUP4 ADD MSTORE PUSH1 0x1 PUSH1 0x1 PUSH1 0x40 SHL SUB DUP5 AND PUSH1 0x80 DUP4 ADD MSTORE PUSH2 0x97D CALLDATASIZE DUP8 DUP4 PUSH2 0x17E9 JUMP JUMPDEST PUSH1 0xA0 DUP4 ADD MSTORE TIMESTAMP PUSH1 0xC0 DUP4 ADD MSTORE PUSH1 0x0 PUSH1 0xE0 DUP4 ADD MSTORE DUP5 PUSH1 0x0 MSTORE PUSH1 0x2 PUSH1 0x20 MSTORE PUSH1 0x40 PUSH1 0x0 KECCAK256 PUSH1 0x1 DUP1 PUSH1 0xA0 SHL SUB DUP4 MLOAD AND PUSH1 0x1 PUSH1 0x1 PUSH1 0x60 SHL SUB PUSH1 0xA0 SHL DUP3 SLOAD AND OR DUP2 SSTORE PUSH1 0x1 DUP2 ADD PUSH1 0x1 DUP1 PUSH1 0xA0 SHL SUB PUSH1 0x20 DUP6 ADD MLOAD AND PUSH1 0x1 PUSH1 0x1 PUSH1 0x60 SHL SUB PUSH1 0xA0 SHL DUP3 SLOAD AND OR SWAP1 SSTORE PUSH1 0x2 DUP2 ADD PUSH1 0x1 DUP1 PUSH1 0xA0 SHL SUB PUSH1 0x40 DUP6 ADD MLOAD AND PUSH1 0x1 PUSH1 0x1 PUSH1 0x60 SHL SUB PUSH1 0xA0 SHL DUP3 SLOAD AND OR SWAP1 SSTORE PUSH1 0x60 DUP4 ADD MLOAD PUSH1 0x3 DUP3 ADD SSTORE PUSH1 0x4 DUP2 ADD PUSH1 0x1 PUSH1 0x1 PUSH1 0x40 SHL SUB PUSH1 0x80 DUP6 ADD MLOAD AND PUSH1 0x1 PUSH1 0x1 PUSH1 0x40 SHL SUB NOT DUP3 SLOAD AND OR SWAP1 SSTORE PUSH1 0xA0 DUP4 ADD MLOAD SWAP3 DUP4 MLOAD PUSH1 0x1 PUSH1 0x1 PUSH1 0x40 SHL SUB DUP2 GT PUSH2 0x66A JUMPI DUP9 SWAP5 PUSH2 0xA4C PUSH1 0x5 DUP6 ADD SLOAD PUSH2 0x1563 JUMP JUMPDEST PUSH1 0x1F DUP2 GT PUSH2 0xBC2 JUMPI JUMPDEST POP PUSH1 0x20 SWAP1 PUSH1 0x1F DUP4 GT PUSH1 0x1 EQ PUSH2 0xB2B JUMPI PUSH1 0xE0 PUSH1 0x0 DUP1 MLOAD PUSH1 0x20 PUSH2 0x1927 DUP4 CODECOPY DUP2 MLOAD SWAP2 MSTORE SWAP10 SWAP5 DUP5 PUSH2 0xAC8 SWAP6 PUSH1 0x1 PUSH1 0x1 PUSH1 0x40 SHL SUB SWAP9 SWAP6 PUSH1 0x7 SWAP6 PUSH1 0x0 SWAP3 PUSH2 0xB20 JUMPI POP POP DUP2 PUSH1 0x1 SHL SWAP2 PUSH1 0x0 NOT SWAP1 PUSH1 0x3 SHL SHR NOT AND OR PUSH1 0x5 DUP6 ADD SSTORE PUSH1 0xC0 DUP2 ADD MLOAD PUSH1 0x6 DUP6 ADD SSTORE ADD MLOAD ISZERO ISZERO SWAP2 ADD SWAP1 PUSH1 0xFF DUP1 NOT DUP4 SLOAD AND SWAP2 ISZERO ISZERO AND OR SWAP1 SSTORE JUMP JUMPDEST PUSH1 0x40 MLOAD SWAP9 PUSH1 0x1 DUP1 PUSH1 0xA0 SHL SUB AND DUP10 MSTORE PUSH1 0x64 CALLDATALOAD PUSH1 0x20 DUP11 ADD MSTORE AND PUSH1 0x40 DUP9 ADD MSTORE PUSH1 0x80 PUSH1 0x60 DUP9 ADD MSTORE DUP2 PUSH1 0x80 DUP9 ADD MSTORE PUSH1 0xA0 DUP8 ADD CALLDATACOPY PUSH1 0x0 PUSH1 0xA0 DUP6 DUP8 ADD ADD MSTORE PUSH1 0x1 DUP1 PUSH1 0xA0 SHL SUB AND SWAP4 PUSH1 0xA0 DUP2 CALLER SWAP6 PUSH1 0x1F DUP1 NOT SWAP2 ADD AND DUP2 ADD SUB ADD SWAP1 LOG4 PUSH1 0x1 DUP1 SSTORE STOP JUMPDEST ADD MLOAD SWAP1 POP CODESIZE DUP1 PUSH2 0x460 JUMP JUMPDEST PUSH1 0x5 DUP6 SWAP5 SWAP4 SWAP3 SWAP10 SWAP6 ADD PUSH1 0x0 MSTORE PUSH1 0x20 PUSH1 0x0 KECCAK256 SWAP1 PUSH1 0x0 JUMPDEST PUSH1 0x1F NOT DUP5 AND DUP2 LT PUSH2 0xBA7 JUMPI POP PUSH2 0xAC8 SWAP4 PUSH1 0x1 DUP5 PUSH1 0x7 SWAP5 PUSH1 0x0 DUP1 MLOAD PUSH1 0x20 PUSH2 0x1927 DUP4 CODECOPY DUP2 MLOAD SWAP2 MSTORE SWAP14 PUSH1 0xE0 SWAP6 PUSH1 0x1 PUSH1 0x1 PUSH1 0x40 SHL SUB SWAP12 SWAP11 SWAP9 PUSH1 0x1F NOT DUP2 AND LT PUSH2 0xB8E JUMPI POP POP POP DUP2 SHL ADD PUSH1 0x5 DUP6 ADD SSTORE PUSH2 0x478 JUMP JUMPDEST ADD MLOAD PUSH1 0x0 NOT PUSH1 0xF8 DUP5 PUSH1 0x3 SHL AND SHR NOT AND SWAP1 SSTORE CODESIZE DUP1 DUP1 PUSH2 0x5E2 JUMP JUMPDEST DUP2 DUP12 ADD MLOAD DUP4 SSTORE PUSH1 0x20 SWAP11 DUP12 ADD SWAP11 DUP14 SWAP10 POP PUSH1 0x1 SWAP1 SWAP4 ADD SWAP3 ADD PUSH2 0xB40 JUMP JUMPDEST SWAP1 SWAP2 SWAP3 SWAP4 SWAP5 SWAP6 POP PUSH1 0x5 DUP6 ADD PUSH1 0x0 MSTORE PUSH1 0x20 PUSH1 0x0 KECCAK256 PUSH1 0x1F DUP5 ADD PUSH1 0x5 SHR DUP2 ADD PUSH1 0x20 DUP6 LT PUSH2 0xC16 JUMPI JUMPDEST SWAP1 DUP12 SWAP8 SWAP7 SWAP6 SWAP5 SWAP4 SWAP3 SWAP2 JUMPDEST PUSH1 0x1F DUP4 ADD PUSH1 0x5 SHR DUP3 ADD DUP2 LT PUSH2 0xC07 JUMPI POP POP PUSH2 0xA55 JUMP JUMPDEST PUSH1 0x0 DUP2 SSTORE DUP13 SWAP9 POP PUSH1 0x1 ADD PUSH2 0xBF1 JUMP JUMPDEST POP DUP1 PUSH2 0xBE7 JUMP JUMPDEST PUSH2 0xC35 SWAP1 PUSH1 0x20 RETURNDATASIZE PUSH1 0x20 GT PUSH2 0x58C JUMPI PUSH2 0x57D DUP2 DUP4 PUSH2 0x15B9 JUMP JUMPDEST POP DUP6 PUSH2 0x92A JUMP JUMPDEST PUSH1 0x40 MLOAD PUSH3 0x461BCD PUSH1 0xE5 SHL DUP2 MSTORE PUSH1 0x20 PUSH1 0x4 DUP3 ADD MSTORE PUSH1 0x10 PUSH1 0x24 DUP3 ADD MSTORE PUSH16 0x496E73756666696369656E7420666565 PUSH1 0x80 SHL PUSH1 0x44 DUP3 ADD MSTORE PUSH1 0x64 SWAP1 REVERT JUMPDEST PUSH1 0x40 MLOAD PUSH3 0x461BCD PUSH1 0xE5 SHL DUP2 MSTORE PUSH1 0x20 PUSH1 0x4 DUP3 ADD MSTORE PUSH1 0xE PUSH1 0x24 DUP3 ADD MSTORE PUSH14 0x125B9D985B1A5908185B5BDD5B9D PUSH1 0x92 SHL PUSH1 0x44 DUP3 ADD MSTORE PUSH1 0x64 SWAP1 REVERT JUMPDEST PUSH1 0x40 MLOAD PUSH3 0x461BCD PUSH1 0xE5 SHL DUP2 MSTORE PUSH1 0x20 PUSH1 0x4 DUP3 ADD MSTORE PUSH1 0xD PUSH1 0x24 DUP3 ADD MSTORE PUSH13 0x24B73B30B634B2103A37B5B2B7 PUSH1 0x99 SHL PUSH1 0x44 DUP3 ADD MSTORE PUSH1 0x64 SWAP1 REVERT JUMPDEST CALLVALUE PUSH2 0x179 JUMPI PUSH1 0x0 CALLDATASIZE PUSH1 0x3 NOT ADD SLT PUSH2 0x179 JUMPI PUSH1 0x20 PUSH1 0x5 SLOAD PUSH1 0x40 MLOAD SWAP1 DUP2 MSTORE RETURN JUMPDEST PUSH1 0x60 CALLDATASIZE PUSH1 0x3 NOT ADD SLT PUSH2 0x179 JUMPI PUSH2 0xD11 PUSH2 0x16C1 JUMP JUMPDEST PUSH2 0xD19 PUSH2 0x1695 JUMP JUMPDEST SWAP1 PUSH1 0x44 CALLDATALOAD PUSH1 0x1 PUSH1 0x1 PUSH1 0x40 SHL SUB DUP2 GT PUSH2 0x179 JUMPI PUSH2 0xD39 SWAP1 CALLDATASIZE SWAP1 PUSH1 0x4 ADD PUSH2 0x16D7 JUMP JUMPDEST SWAP2 PUSH2 0xD42 PUSH2 0x188E JUMP JUMPDEST PUSH1 0x1 PUSH1 0x1 PUSH1 0x40 SHL SUB DUP2 AND PUSH1 0x0 MSTORE PUSH1 0x3 PUSH1 0x20 MSTORE PUSH2 0xD65 PUSH1 0xFF PUSH1 0x40 PUSH1 0x0 KECCAK256 SLOAD AND PUSH2 0x1767 JUMP JUMPDEST PUSH2 0xD79 PUSH1 0x1 PUSH1 0x1 PUSH1 0xA0 SHL SUB DUP6 AND ISZERO ISZERO PUSH2 0x17A9 JUMP JUMPDEST PUSH1 0x5 SLOAD SWAP4 DUP5 CALLVALUE GT ISZERO PUSH2 0x106B JUMPI CALLVALUE DUP6 CALLVALUE SUB GT PUSH2 0x1055 JUMPI PUSH2 0xD96 PUSH2 0x18B1 JUMP JUMPDEST SWAP3 PUSH1 0x40 MLOAD SWAP1 PUSH2 0xDA4 DUP3 PUSH2 0x159D JUMP JUMPDEST CALLER DUP3 MSTORE PUSH1 0x1 PUSH1 0x1 PUSH1 0xA0 SHL SUB DUP4 AND PUSH1 0x20 DUP4 ADD MSTORE PUSH1 0x0 PUSH1 0x40 DUP4 ADD MSTORE CALLVALUE DUP8 SWAP1 SUB PUSH1 0x60 DUP4 ADD MSTORE PUSH1 0x1 PUSH1 0x1 PUSH1 0x40 SHL SUB DUP5 AND PUSH1 0x80 DUP4 ADD MSTORE PUSH2 0xDE0 CALLDATASIZE DUP8 DUP4 PUSH2 0x17E9 JUMP JUMPDEST PUSH1 0xA0 DUP4 ADD MSTORE TIMESTAMP PUSH1 0xC0 DUP4 ADD MSTORE PUSH1 0x0 PUSH1 0xE0 DUP4 ADD MSTORE DUP5 PUSH1 0x0 MSTORE PUSH1 0x2 PUSH1 0x20 MSTORE PUSH1 0x40 PUSH1 0x0 KECCAK256 PUSH1 0x1 DUP1 PUSH1 0xA0 SHL SUB DUP4 MLOAD AND PUSH1 0x1 PUSH1 0x1 PUSH1 0x60 SHL SUB PUSH1 0xA0 SHL DUP3 SLOAD AND OR DUP2 SSTORE PUSH1 0x1 DUP2 ADD PUSH1 0x1 DUP1 PUSH1 0xA0 SHL SUB PUSH1 0x20 DUP6 ADD MLOAD AND PUSH1 0x1 PUSH1 0x1 PUSH1 0x60 SHL SUB PUSH1 0xA0 SHL DUP3 SLOAD AND OR SWAP1 SSTORE PUSH1 0x2 DUP2 ADD PUSH1 0x1 DUP1 PUSH1 0xA0 SHL SUB PUSH1 0x40 DUP6 ADD MLOAD AND PUSH1 0x1 PUSH1 0x1 PUSH1 0x60 SHL SUB PUSH1 0xA0 SHL DUP3 SLOAD AND OR SWAP1 SSTORE PUSH1 0x60 DUP4 ADD MLOAD PUSH1 0x3 DUP3 ADD SSTORE PUSH1 0x4 DUP2 ADD PUSH1 0x1 PUSH1 0x1 PUSH1 0x40 SHL SUB PUSH1 0x80 DUP6 ADD MLOAD AND PUSH1 0x1 PUSH1 0x1 PUSH1 0x40 SHL SUB NOT DUP3 SLOAD AND OR SWAP1 SSTORE PUSH1 0xA0 DUP4 ADD MLOAD SWAP3 DUP4 MLOAD PUSH1 0x1 PUSH1 0x1 PUSH1 0x40 SHL SUB DUP2 GT PUSH2 0x66A JUMPI DUP9 SWAP5 PUSH2 0xEAF PUSH1 0x5 DUP6 ADD SLOAD PUSH2 0x1563 JUMP JUMPDEST PUSH1 0x1F DUP2 GT PUSH2 0xFFA JUMPI JUMPDEST POP PUSH1 0x20 SWAP1 PUSH1 0x1F DUP4 GT PUSH1 0x1 EQ PUSH2 0xF7C JUMPI PUSH1 0xE0 PUSH1 0x0 DUP1 MLOAD PUSH1 0x20 PUSH2 0x1927 DUP4 CODECOPY DUP2 MLOAD SWAP2 MSTORE SWAP10 SWAP5 DUP5 PUSH2 0xF2B SWAP6 PUSH1 0x1 PUSH1 0x1 PUSH1 0x40 SHL SUB SWAP9 SWAP6 PUSH1 0x7 SWAP6 PUSH1 0x0 SWAP3 PUSH2 0xB20 JUMPI POP POP DUP2 PUSH1 0x1 SHL SWAP2 PUSH1 0x0 NOT SWAP1 PUSH1 0x3 SHL SHR NOT AND OR PUSH1 0x5 DUP6 ADD SSTORE PUSH1 0xC0 DUP2 ADD MLOAD PUSH1 0x6 DUP6 ADD SSTORE ADD MLOAD ISZERO ISZERO SWAP2 ADD SWAP1 PUSH1 0xFF DUP1 NOT DUP4 SLOAD AND SWAP2 ISZERO ISZERO AND OR SWAP1 SSTORE JUMP JUMPDEST PUSH1 0x40 MLOAD SWAP9 PUSH1 0x0 DUP11 MSTORE CALLVALUE SUB PUSH1 0x20 DUP11 ADD MSTORE AND PUSH1 0x40 DUP9 ADD MSTORE PUSH1 0x80 PUSH1 0x60 DUP9 ADD MSTORE DUP2 PUSH1 0x80 DUP9 ADD MSTORE PUSH1 0xA0 DUP8 ADD CALLDATACOPY PUSH1 0x0 PUSH1 0xA0 DUP6 DUP8 ADD ADD MSTORE PUSH1 0x1 DUP1 PUSH1 0xA0 SHL SUB AND SWAP4 PUSH1 0xA0 DUP2 CALLER SWAP6 PUSH1 0x1F DUP1 NOT SWAP2 ADD AND DUP2 ADD SUB ADD SWAP1 LOG4 PUSH1 0x1 DUP1 SSTORE STOP JUMPDEST PUSH1 0x5 DUP6 SWAP5 SWAP4 SWAP3 SWAP10 SWAP6 ADD PUSH1 0x0 MSTORE PUSH1 0x20 PUSH1 0x0 KECCAK256 SWAP1 PUSH1 0x0 JUMPDEST PUSH1 0x1F NOT DUP5 AND DUP2 LT PUSH2 0xFDF JUMPI POP PUSH2 0xF2B SWAP4 PUSH1 0x1 DUP5 PUSH1 0x7 SWAP5 PUSH1 0x0 DUP1 MLOAD PUSH1 0x20 PUSH2 0x1927 DUP4 CODECOPY DUP2 MLOAD SWAP2 MSTORE SWAP14 PUSH1 0xE0 SWAP6 PUSH1 0x1 PUSH1 0x1 PUSH1 0x40 SHL SUB SWAP12 SWAP11 SWAP9 PUSH1 0x1F NOT DUP2 AND LT PUSH2 0xB8E JUMPI POP POP POP DUP2 SHL ADD PUSH1 0x5 DUP6 ADD SSTORE PUSH2 0x478 JUMP JUMPDEST DUP2 DUP12 ADD MLOAD DUP4 SSTORE PUSH1 0x20 SWAP11 DUP12 ADD SWAP11 DUP14 SWAP10 POP PUSH1 0x1 SWAP1 SWAP4 ADD SWAP3 ADD PUSH2 0xF91 JUMP JUMPDEST SWAP1 SWAP2 SWAP3 SWAP4 SWAP5 SWAP6 POP PUSH1 0x5 DUP6 ADD PUSH1 0x0 MSTORE PUSH1 0x20 PUSH1 0x0 KECCAK256 PUSH1 0x1F DUP5 ADD PUSH1 0x5 SHR DUP2 ADD PUSH1 0x20 DUP6 LT PUSH2 0x104E JUMPI JUMPDEST SWAP1 DUP12 SWAP8 SWAP7 SWAP6 SWAP5 SWAP4 SWAP3 SWAP2 JUMPDEST PUSH1 0x1F DUP4 ADD PUSH1 0x5 SHR DUP3 ADD DUP2 LT PUSH2 0x103F JUMPI POP POP PUSH2 0xEB8 JUMP JUMPDEST PUSH1 0x0 DUP2 SSTORE DUP13 SWAP9 POP PUSH1 0x1 ADD PUSH2 0x1029 JUMP JUMPDEST POP DUP1 PUSH2 0x101F JUMP JUMPDEST PUSH4 0x4E487B71 PUSH1 0xE0 SHL PUSH1 0x0 MSTORE PUSH1 0x11 PUSH1 0x4 MSTORE PUSH1 0x24 PUSH1 0x0 REVERT JUMPDEST PUSH1 0x40 MLOAD PUSH3 0x461BCD PUSH1 0xE5 SHL DUP2 MSTORE PUSH1 0x20 PUSH1 0x4 DUP3 ADD MSTORE PUSH1 0x13 PUSH1 0x24 DUP3 ADD MSTORE PUSH19 0x125B9CDD59999A58DA595B9D08185B5BDD5B9D PUSH1 0x6A SHL PUSH1 0x44 DUP3 ADD MSTORE PUSH1 0x64 SWAP1 REVERT JUMPDEST CALLVALUE PUSH2 0x179 JUMPI PUSH1 0x40 CALLDATASIZE PUSH1 0x3 NOT ADD SLT PUSH2 0x179 JUMPI PUSH2 0x10BF PUSH2 0x167F JUMP JUMPDEST PUSH1 0x24 CALLDATALOAD SWAP1 PUSH2 0x10CB PUSH2 0x1862 JUMP JUMPDEST PUSH1 0x1 PUSH1 0x1 PUSH1 0xA0 SHL SUB SWAP1 DUP2 AND DUP1 PUSH2 0x1135 JUMPI POP PUSH1 0x0 DUP1 DUP1 SWAP4 DUP2 SWAP4 DUP3 SLOAD AND GAS CALL PUSH2 0x10F0 PUSH2 0x171F JUMP JUMPDEST POP ISZERO PUSH2 0x10F8 JUMPI STOP JUMPDEST PUSH1 0x40 MLOAD PUSH3 0x461BCD PUSH1 0xE5 SHL DUP2 MSTORE PUSH1 0x20 PUSH1 0x4 DUP3 ADD MSTORE PUSH1 0x15 PUSH1 0x24 DUP3 ADD MSTORE PUSH21 0x115512081DDA5D1A191C985DD85B0819985A5B1959 PUSH1 0x5A SHL PUSH1 0x44 DUP3 ADD MSTORE PUSH1 0x64 SWAP1 REVERT JUMPDEST PUSH1 0x0 DUP1 SLOAD PUSH1 0x40 MLOAD PUSH4 0xA9059CBB PUSH1 0xE0 SHL DUP2 MSTORE SWAP4 AND PUSH1 0x1 PUSH1 0x1 PUSH1 0xA0 SHL SUB AND PUSH1 0x4 DUP5 ADD MSTORE PUSH1 0x24 DUP4 ADD SWAP4 SWAP1 SWAP4 MSTORE SWAP1 SWAP2 PUSH1 0x20 SWAP2 DUP4 SWAP2 DUP3 SWAP1 DUP2 PUSH1 0x44 DUP2 ADD SUB SWAP3 GAS CALL DUP1 ISZERO PUSH2 0x593 JUMPI PUSH2 0x117C JUMPI STOP JUMPDEST PUSH2 0x1B SWAP1 PUSH1 0x20 RETURNDATASIZE PUSH1 0x20 GT PUSH2 0x58C JUMPI PUSH2 0x57D DUP2 DUP4 PUSH2 0x15B9 JUMP JUMPDEST CALLVALUE PUSH2 0x179 JUMPI PUSH1 0x20 CALLDATASIZE PUSH1 0x3 NOT ADD SLT PUSH2 0x179 JUMPI PUSH32 0x8C4D35E54A3F2EF1134138FD8EA3DAEE6A3C89E10D2665996BABDF70261E2C76 PUSH1 0x20 PUSH1 0x4 CALLDATALOAD PUSH2 0x11D3 PUSH2 0x1862 JUMP JUMPDEST DUP1 PUSH1 0x5 SSTORE PUSH1 0x40 MLOAD SWAP1 DUP2 MSTORE LOG1 STOP JUMPDEST CALLVALUE PUSH2 0x179 JUMPI PUSH1 0x0 CALLDATASIZE PUSH1 0x3 NOT ADD SLT PUSH2 0x179 JUMPI PUSH1 0x0 SLOAD PUSH1 0x40 MLOAD PUSH1 0x1 PUSH1 0x1 PUSH1 0xA0 SHL SUB SWAP1 SWAP2 AND DUP2 MSTORE PUSH1 0x20 SWAP1 RETURN JUMPDEST CALLVALUE PUSH2 0x179 JUMPI PUSH1 0x0 CALLDATASIZE PUSH1 0x3 NOT ADD SLT PUSH2 0x179 JUMPI PUSH2 0x1222 PUSH2 0x1862 JUMP JUMPDEST PUSH1 0x0 DUP1 SLOAD PUSH1 0x1 PUSH1 0x1 PUSH1 0xA0 SHL SUB NOT DUP2 AND DUP3 SSTORE PUSH1 0x1 PUSH1 0x1 PUSH1 0xA0 SHL SUB AND PUSH32 0x8BE0079C531659141344CD1FD0A4F28419497F9722A3DAAFE3B4186F6B6457E0 DUP3 DUP1 LOG3 STOP JUMPDEST CALLVALUE PUSH2 0x179 JUMPI PUSH1 0x0 CALLDATASIZE PUSH1 0x3 NOT ADD SLT PUSH2 0x179 JUMPI PUSH2 0x127B PUSH2 0x1862 JUMP JUMPDEST SELFBALANCE DUP1 ISZERO PUSH2 0x12DD JUMPI PUSH1 0x0 DUP1 DUP1 DUP1 SWAP4 PUSH1 0x1 DUP1 PUSH1 0xA0 SHL SUB DUP3 SLOAD AND GAS CALL PUSH2 0x129C PUSH2 0x171F JUMP JUMPDEST POP ISZERO PUSH2 0x12A4 JUMPI STOP JUMPDEST PUSH1 0x40 MLOAD PUSH3 0x461BCD PUSH1 0xE5 SHL DUP2 MSTORE PUSH1 0x20 PUSH1 0x4 DUP3 ADD MSTORE PUSH1 0x11 PUSH1 0x24 DUP3 ADD MSTORE PUSH17 0x15DA5D1A191C985DD85B0819985A5B1959 PUSH1 0x7A SHL PUSH1 0x44 DUP3 ADD MSTORE PUSH1 0x64 SWAP1 REVERT JUMPDEST PUSH1 0x40 MLOAD PUSH3 0x461BCD PUSH1 0xE5 SHL DUP2 MSTORE PUSH1 0x20 PUSH1 0x4 DUP3 ADD MSTORE PUSH1 0x13 PUSH1 0x24 DUP3 ADD MSTORE PUSH19 0x4E6F206665657320746F207769746864726177 PUSH1 0x68 SHL PUSH1 0x44 DUP3 ADD MSTORE PUSH1 0x64 SWAP1 REVERT JUMPDEST CALLVALUE PUSH2 0x179 JUMPI PUSH1 0x0 CALLDATASIZE PUSH1 0x3 NOT ADD SLT PUSH2 0x179 JUMPI PUSH1 0x20 PUSH1 0x6 SLOAD PUSH1 0x40 MLOAD SWAP1 DUP2 MSTORE RETURN JUMPDEST CALLVALUE PUSH2 0x179 JUMPI PUSH1 0x20 CALLDATASIZE PUSH1 0x3 NOT ADD SLT PUSH2 0x179 JUMPI PUSH1 0x4 CALLDATALOAD PUSH1 0x0 MSTORE PUSH1 0x2 PUSH1 0x20 MSTORE PUSH1 0x40 PUSH1 0x0 KECCAK256 PUSH1 0x1 DUP1 PUSH1 0xA0 SHL SUB DUP1 DUP3 SLOAD AND SWAP2 DUP2 PUSH1 0x1 DUP3 ADD SLOAD AND SWAP2 PUSH1 0x2 DUP3 ADD SLOAD AND SWAP3 PUSH2 0x13D3 PUSH1 0x3 DUP4 ADD SLOAD SWAP2 PUSH1 0x1 PUSH1 0x1 PUSH1 0x40 SHL SUB PUSH1 0x4 DUP6 ADD SLOAD AND SWAP1 PUSH2 0x1396 PUSH1 0x5 DUP7 ADD PUSH2 0x15DA JUMP JUMPDEST SWAP2 PUSH1 0xFF PUSH1 0x7 PUSH1 0x6 DUP9 ADD SLOAD SWAP8 ADD SLOAD AND SWAP5 PUSH1 0x40 MLOAD SWAP9 DUP10 SWAP9 PUSH2 0x100 SWAP5 DUP11 MSTORE PUSH1 0x20 DUP11 ADD MSTORE PUSH1 0x40 DUP10 ADD MSTORE PUSH1 0x60 DUP9 ADD MSTORE PUSH1 0x80 DUP8 ADD MSTORE DUP1 PUSH1 0xA0 DUP8 ADD MSTORE DUP6 ADD SWAP1 PUSH2 0x1523 JUMP JUMPDEST SWAP2 PUSH1 0xC0 DUP5 ADD MSTORE ISZERO ISZERO PUSH1 0xE0 DUP4 ADD MSTORE SUB SWAP1 RETURN JUMPDEST CALLVALUE PUSH2 0x179 JUMPI PUSH1 0x20 SWAP1 DUP2 PUSH1 0x3 NOT CALLDATASIZE ADD SLT PUSH2 0x179 JUMPI PUSH1 0xE0 DUP2 PUSH2 0x1405 PUSH1 0x0 SWAP4 PUSH2 0x159D JUMP JUMPDEST DUP3 DUP2 MSTORE DUP3 DUP5 DUP3 ADD MSTORE DUP3 PUSH1 0x40 DUP3 ADD MSTORE DUP3 PUSH1 0x60 DUP3 ADD MSTORE DUP3 PUSH1 0x80 DUP3 ADD MSTORE PUSH1 0x60 PUSH1 0xA0 DUP3 ADD MSTORE DUP3 PUSH1 0xC0 DUP3 ADD MSTORE ADD MSTORE PUSH1 0x4 CALLDATALOAD PUSH1 0x0 MSTORE PUSH1 0x2 DUP2 MSTORE PUSH1 0x40 PUSH1 0x0 KECCAK256 SWAP1 PUSH1 0x40 MLOAD DUP1 SWAP3 PUSH2 0x144C DUP3 PUSH2 0x159D JUMP JUMPDEST PUSH1 0x1 DUP1 PUSH1 0xA0 SHL SUB SWAP1 DUP2 DUP2 SLOAD AND DUP4 MSTORE DUP2 PUSH1 0x1 DUP3 ADD SLOAD AND SWAP2 DUP5 DUP5 ADD SWAP3 DUP4 MSTORE DUP1 PUSH1 0x2 DUP4 ADD SLOAD AND PUSH1 0x40 DUP6 ADD SWAP1 DUP2 MSTORE PUSH1 0x3 DUP4 ADD SLOAD PUSH1 0x60 DUP7 ADD SWAP1 DUP2 MSTORE PUSH1 0x1 PUSH1 0x1 PUSH1 0x40 SHL SUB SWAP3 DUP4 PUSH1 0x4 DUP7 ADD SLOAD AND SWAP3 PUSH1 0x80 DUP9 ADD SWAP4 DUP5 MSTORE DUP2 PUSH1 0xFF PUSH1 0x7 PUSH2 0x14AB PUSH1 0x5 DUP11 ADD PUSH2 0x15DA JUMP JUMPDEST SWAP9 PUSH1 0xA0 DUP13 ADD SWAP10 DUP11 MSTORE PUSH1 0xC0 PUSH1 0x6 DUP3 ADD SLOAD SWAP13 ADD SWAP12 DUP13 MSTORE ADD SLOAD AND SWAP8 PUSH1 0xE0 DUP13 ADD SWAP9 ISZERO ISZERO DUP10 MSTORE DUP11 DUP3 PUSH1 0x40 MLOAD SWAP14 DUP15 SWAP14 DUP15 MSTORE MLOAD AND SWAP1 DUP13 ADD MSTORE MLOAD AND PUSH1 0x40 DUP11 ADD MSTORE MLOAD AND PUSH1 0x60 DUP9 ADD MSTORE MLOAD PUSH1 0x80 DUP8 ADD MSTORE MLOAD AND PUSH1 0xA0 DUP6 ADD MSTORE MLOAD SWAP1 PUSH2 0x1511 PUSH2 0x100 SWAP3 DUP4 PUSH1 0xC0 DUP8 ADD MSTORE PUSH2 0x120 DUP7 ADD SWAP1 PUSH2 0x1523 JUMP JUMPDEST SWAP3 MLOAD PUSH1 0xE0 DUP6 ADD MSTORE MLOAD ISZERO ISZERO SWAP1 DUP4 ADD MSTORE SUB SWAP1 RETURN JUMPDEST SWAP2 SWAP1 DUP3 MLOAD SWAP3 DUP4 DUP3 MSTORE PUSH1 0x0 JUMPDEST DUP5 DUP2 LT PUSH2 0x154F JUMPI POP POP DUP3 PUSH1 0x0 PUSH1 0x20 DUP1 SWAP5 SWAP6 DUP5 ADD ADD MSTORE PUSH1 0x1F DUP1 NOT SWAP2 ADD AND ADD ADD SWAP1 JUMP JUMPDEST PUSH1 0x20 DUP2 DUP4 ADD DUP2 ADD MLOAD DUP5 DUP4 ADD DUP3 ADD MSTORE ADD PUSH2 0x152E JUMP JUMPDEST SWAP1 PUSH1 0x1 DUP3 DUP2 SHR SWAP3 AND DUP1 ISZERO PUSH2 0x1593 JUMPI JUMPDEST PUSH1 0x20 DUP4 LT EQ PUSH2 0x157D JUMPI JUMP JUMPDEST PUSH4 0x4E487B71 PUSH1 0xE0 SHL PUSH1 0x0 MSTORE PUSH1 0x22 PUSH1 0x4 MSTORE PUSH1 0x24 PUSH1 0x0 REVERT JUMPDEST SWAP2 PUSH1 0x7F AND SWAP2 PUSH2 0x1572 JUMP JUMPDEST PUSH2 0x100 DUP2 ADD SWAP1 DUP2 LT PUSH1 0x1 PUSH1 0x1 PUSH1 0x40 SHL SUB DUP3 GT OR PUSH2 0x66A JUMPI PUSH1 0x40 MSTORE JUMP JUMPDEST SWAP1 PUSH1 0x1F DUP1 NOT SWAP2 ADD AND DUP2 ADD SWAP1 DUP2 LT PUSH1 0x1 PUSH1 0x1 PUSH1 0x40 SHL SUB DUP3 GT OR PUSH2 0x66A JUMPI PUSH1 0x40 MSTORE JUMP JUMPDEST SWAP1 PUSH1 0x40 MLOAD SWAP2 DUP3 PUSH1 0x0 DUP3 SLOAD PUSH2 0x15ED DUP2 PUSH2 0x1563 JUMP JUMPDEST SWAP1 DUP2 DUP5 MSTORE PUSH1 0x20 SWAP5 PUSH1 0x1 SWAP2 PUSH1 0x1 DUP2 AND SWAP1 DUP2 PUSH1 0x0 EQ PUSH2 0x165D JUMPI POP PUSH1 0x1 EQ PUSH2 0x161E JUMPI JUMPDEST POP POP POP PUSH2 0x161C SWAP3 POP SUB DUP4 PUSH2 0x15B9 JUMP JUMPDEST JUMP JUMPDEST PUSH1 0x0 SWAP1 DUP2 MSTORE DUP6 DUP2 KECCAK256 SWAP6 SWAP4 POP SWAP2 SWAP1 JUMPDEST DUP2 DUP4 LT PUSH2 0x1645 JUMPI POP POP PUSH2 0x161C SWAP4 POP DUP3 ADD ADD CODESIZE DUP1 DUP1 PUSH2 0x160D JUMP JUMPDEST DUP6 SLOAD DUP9 DUP5 ADD DUP6 ADD MSTORE SWAP5 DUP6 ADD SWAP5 DUP8 SWAP5 POP SWAP2 DUP4 ADD SWAP2 PUSH2 0x162C JUMP JUMPDEST SWAP3 POP POP POP PUSH2 0x161C SWAP5 SWAP3 POP PUSH1 0xFF NOT AND DUP3 DUP5 ADD MSTORE ISZERO ISZERO PUSH1 0x5 SHL DUP3 ADD ADD CODESIZE DUP1 DUP1 PUSH2 0x160D JUMP JUMPDEST PUSH1 0x4 CALLDATALOAD SWAP1 PUSH1 0x1 PUSH1 0x1 PUSH1 0xA0 SHL SUB DUP3 AND DUP3 SUB PUSH2 0x179 JUMPI JUMP JUMPDEST PUSH1 0x24 CALLDATALOAD SWAP1 PUSH1 0x1 PUSH1 0x1 PUSH1 0xA0 SHL SUB DUP3 AND DUP3 SUB PUSH2 0x179 JUMPI JUMP JUMPDEST PUSH1 0x44 CALLDATALOAD SWAP1 PUSH1 0x1 PUSH1 0x1 PUSH1 0xA0 SHL SUB DUP3 AND DUP3 SUB PUSH2 0x179 JUMPI JUMP JUMPDEST PUSH1 0x4 CALLDATALOAD SWAP1 PUSH1 0x1 PUSH1 0x1 PUSH1 0x40 SHL SUB DUP3 AND DUP3 SUB PUSH2 0x179 JUMPI JUMP JUMPDEST SWAP2 DUP2 PUSH1 0x1F DUP5 ADD SLT ISZERO PUSH2 0x179 JUMPI DUP3 CALLDATALOAD SWAP2 PUSH1 0x1 PUSH1 0x1 PUSH1 0x40 SHL SUB DUP4 GT PUSH2 0x179 JUMPI PUSH1 0x20 DUP4 DUP2 DUP7 ADD SWAP6 ADD ADD GT PUSH2 0x179 JUMPI JUMP JUMPDEST PUSH1 0x1 PUSH1 0x1 PUSH1 0x40 SHL SUB DUP2 GT PUSH2 0x66A JUMPI PUSH1 0x1F ADD PUSH1 0x1F NOT AND PUSH1 0x20 ADD SWAP1 JUMP JUMPDEST RETURNDATASIZE ISZERO PUSH2 0x174A JUMPI RETURNDATASIZE SWAP1 PUSH2 0x1730 DUP3 PUSH2 0x1704 JUMP JUMPDEST SWAP2 PUSH2 0x173E PUSH1 0x40 MLOAD SWAP4 DUP5 PUSH2 0x15B9 JUMP JUMPDEST DUP3 MSTORE RETURNDATASIZE PUSH1 0x0 PUSH1 0x20 DUP5 ADD RETURNDATACOPY JUMP JUMPDEST PUSH1 0x60 SWAP1 JUMP JUMPDEST SWAP1 DUP2 PUSH1 0x20 SWAP2 SUB SLT PUSH2 0x179 JUMPI MLOAD DUP1 ISZERO ISZERO DUP2 SUB PUSH2 0x179 JUMPI SWAP1 JUMP JUMPDEST ISZERO PUSH2 0x176E JUMPI JUMP JUMPDEST PUSH1 0x40 MLOAD PUSH3 0x461BCD PUSH1 0xE5 SHL DUP2 MSTORE PUSH1 0x20 PUSH1 0x4 DUP3 ADD MSTORE PUSH1 0x13 PUSH1 0x24 DUP3 ADD MSTORE PUSH19 0x10DA185A5B881B9BDD081CDD5C1C1BDC9D1959 PUSH1 0x6A SHL PUSH1 0x44 DUP3 ADD MSTORE PUSH1 0x64 SWAP1 REVERT JUMPDEST ISZERO PUSH2 0x17B0 JUMPI JUMP JUMPDEST PUSH1 0x40 MLOAD PUSH3 0x461BCD PUSH1 0xE5 SHL DUP2 MSTORE PUSH1 0x20 PUSH1 0x4 DUP3 ADD MSTORE PUSH1 0x11 PUSH1 0x24 DUP3 ADD MSTORE PUSH17 0x125B9D985B1A59081C9958DA5C1A595B9D PUSH1 0x7A SHL PUSH1 0x44 DUP3 ADD MSTORE PUSH1 0x64 SWAP1 REVERT JUMPDEST SWAP3 SWAP2 SWAP3 PUSH2 0x17F5 DUP3 PUSH2 0x1704 JUMP JUMPDEST SWAP2 PUSH2 0x1803 PUSH1 0x40 MLOAD SWAP4 DUP5 PUSH2 0x15B9 JUMP JUMPDEST DUP3 SWAP5 DUP2 DUP5 MSTORE DUP2 DUP4 ADD GT PUSH2 0x179 JUMPI DUP3 DUP2 PUSH1 0x20 SWAP4 DUP5 PUSH1 0x0 SWAP7 ADD CALLDATACOPY ADD ADD MSTORE JUMP JUMPDEST ISZERO PUSH2 0x1827 JUMPI JUMP JUMPDEST PUSH1 0x40 MLOAD PUSH3 0x461BCD PUSH1 0xE5 SHL DUP2 MSTORE PUSH1 0x20 PUSH1 0x4 DUP3 ADD MSTORE PUSH1 0x13 PUSH1 0x24 DUP3 ADD MSTORE PUSH19 0x115512081D1C985B9CD9995C8819985A5B1959 PUSH1 0x6A SHL PUSH1 0x44 DUP3 ADD MSTORE PUSH1 0x64 SWAP1 REVERT JUMPDEST PUSH1 0x0 SLOAD PUSH1 0x1 PUSH1 0x1 PUSH1 0xA0 SHL SUB AND CALLER SUB PUSH2 0x1876 JUMPI JUMP JUMPDEST PUSH1 0x40 MLOAD PUSH4 0x118CDAA7 PUSH1 0xE0 SHL DUP2 MSTORE CALLER PUSH1 0x4 DUP3 ADD MSTORE PUSH1 0x24 SWAP1 REVERT JUMPDEST PUSH1 0x2 PUSH1 0x1 SLOAD EQ PUSH2 0x189F JUMPI PUSH1 0x2 PUSH1 0x1 SSTORE JUMP JUMPDEST PUSH1 0x40 MLOAD PUSH4 0x3EE5AEB5 PUSH1 0xE0 SHL DUP2 MSTORE PUSH1 0x4 SWAP1 REVERT JUMPDEST PUSH1 0x6 SLOAD PUSH1 0x0 NOT DUP2 EQ PUSH2 0x1055 JUMPI PUSH1 0x1 ADD DUP1 PUSH1 0x6 SSTORE PUSH1 0x40 MLOAD PUSH1 0x20 DUP2 ADD SWAP2 TIMESTAMP DUP4 MSTORE PREVRANDAO PUSH1 0x40 DUP4 ADD MSTORE CALLER PUSH1 0x60 SHL PUSH1 0x60 DUP4 ADD MSTORE PUSH1 0x74 DUP3 ADD MSTORE PUSH1 0x74 DUP2 MSTORE PUSH1 0xA0 DUP2 ADD DUP2 DUP2 LT PUSH1 0x1 PUSH1 0x1 PUSH1 0x40 SHL SUB DUP3 GT OR PUSH2 0x66A JUMPI PUSH1 0x40 MSTORE MLOAD SWAP1 KECCAK256 SWAP1 JUMP INVALID OR COINBASE ORIGIN 0xCB 0xE4 COINBASE PUSH21 0x1D0EABC42BD8D4344C92DA5172BAF0D4ADAC529608 0x2A PUSH15 0x768BF5E7668FC05E2BC8C6EF0C7C2E DUP13 DUP9 0xB9 PUSH12 0x9788CF4818CFC618C2CF43AD SIGNEXTEND 0xAB EXTCODESIZE LOG2 PUSH5 0x6970667358 0x22 SLT KECCAK256 JUMPDEST 0xAE 0xCC 0xA7 0x4A MOD RETURNDATASIZE 0xA5 PUSH0 SWAP8 PUSH22 0xDBE74EAA82729FBB6D1B56F02F6DA1A7F53D056F0464 PUSH20 0x6F6C634300081600330000000000000000000000 "},"gasEstimates":{"creation":{"codeDepositCost":"1304800","executionCost":"71381","totalCost":"1376181"},"external":{"completeTransfer(bytes32,address,address,uint256)":"infinite","emergencyWithdraw(address,uint256)":"infinite","getTransfer(bytes32)":"infinite","owner()":"2392","remoteBridges(uint64)":"2691","renounceOwnership()":"28142","setRemoteBridge(uint64,address)":"28575","setSupportedChain(uint64,bool)":"28489","setTransferFee(uint256)":"25571","simulateReceiveTransfer(address,address,address,uint256,string)":"infinite","supportedChains(uint64)":"2773","transferCounter()":"2302","transferETHCrossChain(uint64,address,string)":"infinite","transferFee()":"2456","transferOwnership(address)":"28472","transferTokenCrossChain(uint64,address,address,uint256,string)":"infinite","transfers(bytes32)":"infinite","withdrawFees()":"infinite"},"internal":{"_generateTransferId()":"infinite"}},"methodIdentifiers":{"completeTransfer(bytes32,address,address,uint256)":"d9e05c02","emergencyWithdraw(address,uint256)":"95ccea67","getTransfer(bytes32)":"260958a5","owner()":"8da5cb5b","remoteBridges(uint64)":"e6f8ca65","renounceOwnership()":"715018a6","setRemoteBridge(uint64,address)":"ffa739df","setSupportedChain(uint64,bool)":"f5b5b804","setTransferFee(uint256)":"8f02bb5b","simulateReceiveTransfer(address,address,address,uint256,string)":"ec0e97f9","supportedChains(uint64)":"f9c3f332","transferCounter()":"3cf8ddf2","transferETHCrossChain(uint64,address,string)":"a6a849b7","transferFee()":"acb2ad6f","transferOwnership(address)":"f2fde38b","transferTokenCrossChain(uint64,address,address,uint256,string)":"d047c806","transfers(bytes32)":"3c64f04b","withdrawFees()":"476343ee"}},"storageLayout":{"storage":[{"astId":874,"contract":"contracts/task3/SimpleCrossChainBridge.sol:SimpleCrossChainBridge","label":"_owner","offset":0,"slot":"0","type":"t_address"},{"astId":2636,"contract":"contracts/task3/SimpleCrossChainBridge.sol:SimpleCrossChainBridge","label":"_status","offset":0,"slot":"1","type":"t_uint256"},{"astId":6310,"contract":"contracts/task3/SimpleCrossChainBridge.sol:SimpleCrossChainBridge","label":"transfers","offset":0,"slot":"2","type":"t_mapping(t_bytes32,t_struct(CrossChainTransfer)6305_storage)"},{"astId":6314,"contract":"contracts/task3/SimpleCrossChainBridge.sol:SimpleCrossChainBridge","label":"supportedChains","offset":0,"slot":"3","type":"t_mapping(t_uint64,t_bool)"},{"astId":6318,"contract":"contracts/task3/SimpleCrossChainBridge.sol:SimpleCrossChainBridge","label":"remoteBridges","offset":0,"slot":"4","type":"t_mapping(t_uint64,t_address)"},{"astId":6321,"contract":"contracts/task3/SimpleCrossChainBridge.sol:SimpleCrossChainBridge","label":"transferFee","offset":0,"slot":"5","type":"t_uint256"},{"astId":6323,"contract":"contracts/task3/SimpleCrossChainBridge.sol:SimpleCrossChainBridge","label":"transferCounter","offset":0,"slot":"6","type":"t_uint256"}],"types":{"t_address":{"encoding":"inplace","label":"address","numberOfBytes":"20"},"t_bool":{"encoding":"inplace","label":"bool","numberOfBytes":"1"},"t_bytes32":{"encoding":"inplace","label":"bytes32","numberOfBytes":"32"},"t_mapping(t_bytes32,t_struct(CrossChainTransfer)6305_storage)":{"encoding":"mapping","key":"t_bytes32","label":"mapping(bytes32 => struct SimpleCrossChainBridge.CrossChainTransfer)","numberOfBytes":"32","value":"t_struct(CrossChainTransfer)6305_storage"},"t_mapping(t_uint64,t_address)":{"encoding":"mapping","key":"t_uint64","label":"mapping(uint64 => address)","numberOfBytes":"32","value":"t_address"},"t_mapping(t_uint64,t_bool)":{"encoding":"mapping","key":"t_uint64","label":"mapping(uint64 => bool)","numberOfBytes":"32","value":"t_bool"},"t_string_storage":{"encoding":"bytes","label":"string","numberOfBytes":"32"},"t_struct(CrossChainTransfer)6305_storage":{"encoding":"inplace","label":"struct SimpleCrossChainBridge.CrossChainTransfer","members":[{"astId":6290,"contract":"contracts/task3/SimpleCrossChainBridge.sol:SimpleCrossChainBridge","label":"sender","offset":0,"slot":"0","type":"t_address"},{"astId":6292,"contract":"contracts/task3/SimpleCrossChainBridge.sol:SimpleCrossChainBridge","label":"recipient","offset":0,"slot":"1","type":"t_address"},{"astId":6294,"contract":"contracts/task3/SimpleCrossChainBridge.sol:SimpleCrossChainBridge","label":"token","offset":0,"slot":"2","type":"t_address"},{"astId":6296,"contract":"contracts/task3/SimpleCrossChainBridge.sol:SimpleCrossChainBridge","label":"amount","offset":0,"slot":"3","type":"t_uint256"},{"astId":6298,"contract":"contracts/task3/SimpleCrossChainBridge.sol:SimpleCrossChainBridge","label":"destinationChain","offset":0,"slot":"4","type":"t_uint64"},{"astId":6300,"contract":"contracts/task3/SimpleCrossChainBridge.sol:SimpleCrossChainBridge","label":"message","offset":0,"slot":"5","type":"t_string_storage"},{"astId":6302,"contract":"contracts/task3/SimpleCrossChainBridge.sol:SimpleCrossChainBridge","label":"timestamp","offset":0,"slot":"6","type":"t_uint256"},{"astId":6304,"contract":"contracts/task3/SimpleCrossChainBridge.sol:SimpleCrossChainBridge","label":"completed","offset":0,"slot":"7","type":"t_bool"}],"numberOfBytes":"256"},"t_uint256":{"encoding":"inplace","label":"uint256","numberOfBytes":"32"},"t_uint64":{"encoding":"inplace","label":"uint64","numberOfBytes":"8"}}},"userdoc":{"kind":"user","methods":{},"version":1}}}}