{"contracts/task3/NFTAuctionFactory.sol":{"NFTAuctionFactory":{"abi":[{"inputs":[],"stateMutability":"nonpayable","type":"constructor"},{"inputs":[{"internalType":"address","name":"owner","type":"address"}],"name":"OwnableInvalidOwner","type":"error"},{"inputs":[{"internalType":"address","name":"account","type":"address"}],"name":"OwnableUnauthorizedAccount","type":"error"},{"anonymous":false,"inputs":[{"indexed":true,"internalType":"address","name":"creator","type":"address"},{"indexed":true,"internalType":"address","name":"auctionPlatform","type":"address"},{"indexed":false,"internalType":"uint256","name":"platformIndex","type":"uint256"}],"name":"AuctionPlatformCreated","type":"event"},{"anonymous":false,"inputs":[{"indexed":true,"internalType":"address","name":"token","type":"address"},{"indexed":true,"internalType":"address","name":"priceFeed","type":"address"}],"name":"DefaultPriceFeedAdded","type":"event"},{"anonymous":false,"inputs":[{"indexed":true,"internalType":"address","name":"token","type":"address"}],"name":"DefaultPriceFeedRemoved","type":"event"},{"anonymous":false,"inputs":[{"indexed":true,"internalType":"address","name":"previousOwner","type":"address"},{"indexed":true,"internalType":"address","name":"newOwner","type":"address"}],"name":"OwnershipTransferred","type":"event"},{"inputs":[{"internalType":"address","name":"token","type":"address"},{"internalType":"address","name":"priceFeed","type":"address"}],"name":"addDefaultPriceFeed","outputs":[],"stateMutability":"nonpayable","type":"function"},{"inputs":[{"internalType":"uint256","name":"","type":"uint256"}],"name":"allAuctions","outputs":[{"internalType":"address","name":"","type":"address"}],"stateMutability":"view","type":"function"},{"inputs":[],"name":"allAuctionsLength","outputs":[{"internalType":"uint256","name":"","type":"uint256"}],"stateMutability":"view","type":"function"},{"inputs":[{"internalType":"address","name":"","type":"address"}],"name":"auctionCreator","outputs":[{"internalType":"address","name":"","type":"address"}],"stateMutability":"view","type":"function"},{"inputs":[],"name":"auctionImplementation","outputs":[{"internalType":"address","name":"","type":"address"}],"stateMutability":"view","type":"function"},{"inputs":[{"internalType":"address","name":"token","type":"address"},{"internalType":"address","name":"priceFeed","type":"address"},{"internalType":"address[]","name":"platforms","type":"address[]"}],"name":"batchUpdatePriceFeed","outputs":[],"stateMutability":"nonpayable","type":"function"},{"inputs":[{"internalType":"address","name":"newImplementation","type":"address"},{"internalType":"address[]","name":"platforms","type":"address[]"}],"name":"batchUpgradeAuctionPlatforms","outputs":[],"stateMutability":"nonpayable","type":"function"},{"inputs":[],"name":"createAuctionPlatform","outputs":[{"internalType":"address","name":"auctionPlatform","type":"address"}],"stateMutability":"nonpayable","type":"function"},{"inputs":[{"internalType":"uint256","name":"","type":"uint256"}],"name":"defaultPriceFeeds","outputs":[{"internalType":"address","name":"token","type":"address"},{"internalType":"address","name":"priceFeed","type":"address"}],"stateMutability":"view","type":"function"},{"inputs":[],"name":"defaultPriceFeedsLength","outputs":[{"internalType":"uint256","name":"","type":"uint256"}],"stateMutability":"view","type":"function"},{"inputs":[{"internalType":"address[]","name":"platforms","type":"address[]"}],"name":"emergencyPauseAuctionPlatforms","outputs":[],"stateMutability":"nonpayable","type":"function"},{"inputs":[],"name":"getAllDefaultPriceFeeds","outputs":[{"components":[{"internalType":"address","name":"token","type":"address"},{"internalType":"address","name":"priceFeed","type":"address"}],"internalType":"struct NFTAuctionFactory.PriceFeedConfig[]","name":"","type":"tuple[]"}],"stateMutability":"view","type":"function"},{"inputs":[{"internalType":"address","name":"platform","type":"address"}],"name":"getAuctionCreator","outputs":[{"internalType":"address","name":"","type":"address"}],"stateMutability":"view","type":"function"},{"inputs":[{"internalType":"uint256","name":"start","type":"uint256"},{"internalType":"uint256","name":"end","type":"uint256"}],"name":"getAuctionsPaginated","outputs":[{"internalType":"address[]","name":"","type":"address[]"}],"stateMutability":"view","type":"function"},{"inputs":[{"internalType":"address","name":"user","type":"address"}],"name":"getUserAuctions","outputs":[{"internalType":"address[]","name":"","type":"address[]"}],"stateMutability":"view","type":"function"},{"inputs":[{"internalType":"address","name":"","type":"address"}],"name":"isAuctionPlatform","outputs":[{"internalType":"bool","name":"","type":"bool"}],"stateMutability":"view","type":"function"},{"inputs":[{"internalType":"address","name":"platform","type":"address"}],"name":"isValidAuctionPlatform","outputs":[{"internalType":"bool","name":"","type":"bool"}],"stateMutability":"view","type":"function"},{"inputs":[],"name":"owner","outputs":[{"internalType":"address","name":"","type":"address"}],"stateMutability":"view","type":"function"},{"inputs":[{"internalType":"address","name":"token","type":"address"}],"name":"removeDefaultPriceFeed","outputs":[],"stateMutability":"nonpayable","type":"function"},{"inputs":[],"name":"renounceOwnership","outputs":[],"stateMutability":"nonpayable","type":"function"},{"inputs":[{"internalType":"address","name":"newOwner","type":"address"}],"name":"transferOwnership","outputs":[],"stateMutability":"nonpayable","type":"function"},{"inputs":[{"internalType":"address","name":"","type":"address"},{"internalType":"uint256","name":"","type":"uint256"}],"name":"userAuctions","outputs":[{"internalType":"address","name":"","type":"address"}],"stateMutability":"view","type":"function"},{"inputs":[{"internalType":"address","name":"user","type":"address"}],"name":"userAuctionsLength","outputs":[{"internalType":"uint256","name":"","type":"uint256"}],"stateMutability":"view","type":"function"}],"devdoc":{"details":"拍卖工厂合约，用于创建和管理多个拍卖平台实例 参考 Uniswap V2 Factory 模式","errors":{"OwnableInvalidOwner(address)":[{"details":"The owner is not a valid owner account. (eg. `address(0)`)"}],"OwnableUnauthorizedAccount(address)":[{"details":"The caller account is not authorized to perform an operation."}]},"kind":"dev","methods":{"addDefaultPriceFeed(address,address)":{"details":"添加默认价格预言机配置","params":{"priceFeed":"价格预言机地址","token":"代币地址 (address(0) 表示 ETH)"}},"allAuctionsLength()":{"details":"获取所有拍卖平台数量"},"batchUpdatePriceFeed(address,address,address[])":{"details":"批量为现有拍卖平台更新价格预言机","params":{"platforms":"要更新的拍卖平台地址数组","priceFeed":"价格预言机地址","token":"代币地址"}},"batchUpgradeAuctionPlatforms(address,address[])":{"details":"升级所有拍卖平台的实现合约（如果有权限）","params":{"newImplementation":"新的实现合约地址","platforms":"要升级的平台列表"}},"constructor":{"details":"构造函数"},"createAuctionPlatform()":{"details":"创建新的拍卖平台","returns":{"auctionPlatform":"新创建的拍卖平台地址"}},"defaultPriceFeedsLength()":{"details":"获取默认价格预言机配置数量"},"emergencyPauseAuctionPlatforms(address[])":{"details":"紧急暂停指定的拍卖平台（如果有权限）","params":{"platforms":"要暂停的平台列表"}},"getAllDefaultPriceFeeds()":{"details":"获取所有默认价格预言机配置"},"getAuctionCreator(address)":{"details":"获取拍卖平台的创建者","params":{"platform":"拍卖平台地址"}},"getAuctionsPaginated(uint256,uint256)":{"details":"获取指定范围的拍卖平台","params":{"end":"结束索引（不包含）","start":"起始索引"}},"getUserAuctions(address)":{"details":"获取用户创建的所有拍卖平台","params":{"user":"用户地址"}},"isValidAuctionPlatform(address)":{"details":"检查地址是否为有效的拍卖平台","params":{"platform":"要检查的地址"}},"owner()":{"details":"Returns the address of the current owner."},"removeDefaultPriceFeed(address)":{"details":"移除默认价格预言机配置","params":{"token":"代币地址"}},"renounceOwnership()":{"details":"Leaves the contract without owner. It will not be possible to call `onlyOwner` functions. Can only be called by the current owner. NOTE: Renouncing ownership will leave the contract without an owner, thereby disabling any functionality that is only available to the owner."},"transferOwnership(address)":{"details":"Transfers ownership of the contract to a new account (`newOwner`). Can only be called by the current owner."},"userAuctionsLength(address)":{"details":"获取用户创建的拍卖平台数量","params":{"user":"用户地址"}}},"title":"NFTAuctionFactory","version":1},"evm":{"bytecode":{"linkReferences":{},"object":"60a080604052346100e05733156100ca5760008054336001600160a01b03198216811783556040516001600160a01b03939290919084167f8be0079c531659141344cd1fd0a4f28419497f9722a3daafe3b4186f6b6457e08480a3612ad0818101906001600160401b038211838310176100b6579082916117768339039082f09081156100aa57501660805260405161169090816100e6823960805181818161023901526109730152f35b604051903d90823e3d90fd5b634e487b7160e01b84526041600452602484fd5b631e4fbdf760e01b815260006004820152602490fd5b600080fdfe604060808152600490813610156200001657600080fd5b600091823560e01c908163165c58811462000dc8578163184b9d2b1462000d325781632c22318b1462000bf15781632d20581f1462000b9e5781634077503a1462000b7d5781634243783f1462000b265781634fa15fd11462000ae7578163596ea66114620009de57816362da5d0814620009a25781636a7f3f6c146200095c578163715018a614620008fe57816377044b4014620007465781638da5cb5b14620008d4578163aa2a04d114620008b3578163abc68ce71462000787578163af36b6f61462000746578163b4fbe80a14620006e6578163b59da2d214620006aa578163eded09c31462000587578163f2fde38b14620004f9578163f3e6bccd14620004c1578163fb6c51a714620001d3575063ff3ad0b4146200013857600080fd5b34620001cf576020906020600319360112620001cb576001600160a01b0392836200016262000eae565b16815260026020528181209382519081946020875493848152019684526020842093915b838310620001b157620001ad8787620001a2828c038362001019565b519182918262000f17565b0390f35b845481168852968101966001948501949092019162000186565b8280fd5b5080fd5b905034620001cb5782600319360112620001cb5781519160209263204a7f0760e21b84820152828152620002078162000ffc565b81516102d38082019082821067ffffffffffffffff831117620004ae579290926200138883398160018060a01b0393847f000000000000000000000000000000000000000000000000000000000000000016815285888201528251808783015289935b89828610620004945750506060935089848284010152601f80199101160103019086f080156200048a578116855b600554811015620003365782620002af8262000edc565b50541687846001620002c18562000edc565b50015416843b15620001cf578651633b70894360e11b81526001600160a01b0393841689820190815291909316602082015282908190604001038183875af180156200032c5790600192916200031a575b500162000298565b620003259062000fd1565b3862000312565b85513d8a823e3d90fd5b5092908590843b15620001cf57835163f2fde38b60e01b815233848201528281602481838a5af1801562000480576200046e575b506001908154600160401b90818110156200045b5780846200038f9201855562000e0e565b81549060031b90848a831b921b1916179055338452600288528584208054918210156200045b5790620003c791848201815562000e5c565b8154600391821b93841b19169288901b929092179055858352865283822080546001600160a01b03191633179055828652838220805460ff1916821790555460001981019290831162000448575050829082519081527f0f6a1edb350018130b9440e418c9439bee0f72e1455141edc62b4c1f33674201853392a351908152f35b634e487b7160e01b825260119052602490fd5b634e487b7160e01b855260418652602485fd5b620004799062000fd1565b866200036a565b85513d85823e3d90fd5b82513d87823e3d90fd5b85820181015160608588010152909401938593506200026a565b634e487b7160e01b885260418652602488fd5b8334620004f6576020366003190112620004f657620004f3620004e362000eae565b620004ed6200135a565b62001202565b80f35b80fd5b905034620001cb576020366003190112620001cb576200051862000eae565b90620005236200135a565b6001600160a01b039182169283156200057157505082546001600160a01b0319811683178455167f8be0079c531659141344cd1fd0a4f28419497f9722a3daafe3b4186f6b6457e08380a380f35b51631e4fbdf760e01b8152908101849052602490fd5b838334620001cf5780600319360112620001cf5782359160249360243591828510806200069d575b156200066a57620005c18584620011de565b94620005e9620005d1876200103c565b96620005e08751988962001019565b8088526200103c565b60209290601f19013688850137815b8581106200060f57865180620001ad8a8262000f17565b6200061a8162000e0e565b905490620006298584620011de565b918a51831015620006585760039190911b1c6001600160a01b031660059190911b8901850152600101620005f8565b634e487b7160e01b8552603288528b85fd5b835162461bcd60e51b8152602081840152600d60248201526c496e76616c69642072616e676560981b6044820152606490fd5b50600154831115620005af565b505034620001cf576020366003190112620001cf5760209181906001600160a01b03620006d662000eae565b1681526002845220549051908152f35b505034620001cf5780600319360112620001cf576200070462000eae565b6001600160a01b039081168352600260205281832080546024359490851015620004f65750602093620007379162000e5c565b92905490519260031b1c168152f35b905034620001cb576020366003190112620001cb5760209260ff918391906001600160a01b036200077662000eae565b168252855220541690519015158152f35b91905034620001cb576060366003190112620001cb57620007a762000eae565b90620007b262000ec5565b9160443567ffffffffffffffff8111620008af57620007d5903690860162000e75565b620007e29591956200135a565b6001600160a01b0390620007fa868316151562001055565b87805b82811062000809575080f35b83620008216200081b83868d62000f5e565b62000f6f565b168252846020526200083960ff888420541662000f84565b836200084b6200081b83868d62000f5e565b16803b15620001cb578751633b70894360e11b81526001600160a01b03808916828901908152908b1660208201526001949192839182908490829060400103925af16200089d575b50018890620007fd565b620008a89062000fd1565b3862000893565b8580fd5b505034620001cf5781600319360112620001cf576020906005549051908152f35b505034620001cf5781600319360112620001cf57905490516001600160a01b039091168152602090f35b8334620004f65780600319360112620004f6576200091b6200135a565b80546001600160a01b03198116825581906001600160a01b03167f8be0079c531659141344cd1fd0a4f28419497f9722a3daafe3b4186f6b6457e08280a380f35b505034620001cf5781600319360112620001cf57517f00000000000000000000000000000000000000000000000000000000000000006001600160a01b03168152602090f35b505034620001cf57366003190112620004f657620004f3620009c362000eae565b620009cd62000ec5565b90620009d86200135a565b62001097565b828434620004f65780600319360112620004f6579060055462000a01816200103c565b9262000a108351948562001019565b8184526005815260209384810192827f036b6384b5eca791c62761152d0c79bb0604c104a5fb6f4eb0703f3154bb3db0855b83831062000aa55750505050835194859481860192828752518093528086019493905b83821062000a735786860387f35b845180516001600160a01b03908116885290840151168684015287965094850194938201936001919091019062000a65565b6002896001928a9b9897999a5162000abd8162000ffc565b848060a01b0380875416825285870154168382015281520192019201919097969593949762000a42565b505034620001cf576020366003190112620001cf576020916001600160a01b039082908262000b1562000eae565b168152600385522054169051908152f35b905034620001cb576020366003190112620001cb576020926001600160a01b03918391908362000b5562000eae565b1690818352865262000b6d60ff848420541662000f84565b8152600385522054169051908152f35b505034620001cf5781600319360112620001cf576020906001549051908152f35b83915034620001cf576020366003190112620001cf573590600554821015620004f6575062000bcd9062000edc565b50805460019091015491516001600160a01b03918216815291166020820152604090f35b91905034620001cb5780600319360112620001cb5762000c1062000eae565b9060249060243567ffffffffffffffff8111620008af5762000c36903690860162000e75565b91909362000c436200135a565b6001600160a01b0390811692831562000cf65787805b82811062000c65575080f35b8362000c776200081b83868c62000f5e565b1682528860205262000c8f60ff868420541662000f84565b8362000ca16200081b83868c62000f5e565b16803b15620001cb57828760648c6001968c958b8051978896879563278f794360e11b87528601528401528160448401525af162000ce4575b5001889062000c59565b62000cef9062000fd1565b3862000cda565b825162461bcd60e51b8152602081890152601660248201527524b73b30b634b21034b6b83632b6b2b73a30ba34b7b760511b6044820152606490fd5b91905034620001cb57602091602060031936011262000dc457803567ffffffffffffffff811162000dc05762000d6c903690830162000e75565b939062000d786200135a565b855b85811062000d86578680f35b6001906001600160a01b0362000da26200081b838a8762000f5e565b16885284845262000db960ff878a20541662000f84565b0162000d7a565b8480fd5b8380fd5b905034620001cb576020366003190112620001cb573591600154831015620004f6575062000df860209262000e0e565b905491519160018060a01b039160031b1c168152f35b60015481101562000e465760016000527fb10e2d527612073b26eecdfd717e6a320cf44b4afac2b0732d9fcbe2b7fa0cf60190600090565b634e487b7160e01b600052603260045260246000fd5b805482101562000e465760005260206000200190600090565b9181601f8401121562000ea95782359167ffffffffffffffff831162000ea9576020808501948460051b01011162000ea957565b600080fd5b600435906001600160a01b038216820362000ea957565b602435906001600160a01b038216820362000ea957565b60055481101562000e4657600560005260011b7f036b6384b5eca791c62761152d0c79bb0604c104a5fb6f4eb0703f3154bb3db00190600090565b602090602060408183019282815285518094520193019160005b82811062000f40575050505090565b83516001600160a01b03168552938101939281019260010162000f31565b919081101562000e465760051b0190565b356001600160a01b038116810362000ea95790565b1562000f8c57565b60405162461bcd60e51b815260206004820152601c60248201527f4e6f7420612076616c69642061756374696f6e20706c6174666f726d000000006044820152606490fd5b67ffffffffffffffff811162000fe657604052565b634e487b7160e01b600052604160045260246000fd5b6040810190811067ffffffffffffffff82111762000fe657604052565b90601f8019910116810190811067ffffffffffffffff82111762000fe657604052565b67ffffffffffffffff811162000fe65760051b60200190565b156200105d57565b60405162461bcd60e51b8152602060048201526012602482015271125b9d985b1a59081c1c9a58d9481999595960721b6044820152606490fd5b6001600160a01b0391821690620010b082151562001055565b60005b6005548110156200112d5783620010ca8262000edc565b505416848316809114620010e25750600101620010b3565b92935060019150620010f49062000edc565b500180546001600160a01b031916831790557f670d28c95e308414a856c5aa97743a7c7bfc9d03dc9a05ea9ffffdc98275100b600080a3565b5090918060405192620011408462000ffc565b16918281526020810191848352600554600160401b81101562000fe6578060016200116f920160055562000edc565b929092620011c857816001915116926bffffffffffffffffffffffff60a01b938482541617815501925116908254161790557f670d28c95e308414a856c5aa97743a7c7bfc9d03dc9a05ea9ffffdc98275100b600080a3565b634e487b7160e01b600052600060045260246000fd5b91908203918211620011ec57565b634e487b7160e01b600052601160045260246000fd5b6000905b600591825492838210156200131e57620012208262000edc565b50546001600160a01b038481169591811686146200124657505050600101915062001206565b919350600019929190838101908111620011ec5762001269620012719162000edc565b509262000edc565b919091620011c857828203620012e8575b50505081548015620012d25701906200129b8262000edc565b620011c85760018160008093550155557f905e9d1898e23231337cef55cdd51330ab685518f8b18378da4c22772d7f35d0600080a2565b634e487b7160e01b600052603160045260246000fd5b80835416916bffffffffffffffffffffffff60a01b92838254161781556001809101930154169082541617905538808062001282565b60405162461bcd60e51b8152602060048201526014602482015273141c9a58d94819995959081b9bdd08199bdd5b9960621b6044820152606490fd5b6000546001600160a01b031633036200136f57565b60405163118cdaa760e01b8152336004820152602490fdfe60806040526102d38038038061001481610194565b92833981019060408183031261018f5780516001600160a01b03811680820361018f5760208381015190936001600160401b03821161018f570184601f8201121561018f5780519061006d610068836101cf565b610194565b9582875285838301011161018f57849060005b83811061017b57505060009186010152813b15610163577f360894a13ba1a3210667c828492db98dca3e2076cc3735a920a3ca505d382bbc80546001600160a01b03191682179055604051907fbc7cd75a20ee27fd9adebab32041f755214dbc6bffa90cc0225b39da2e5c2d3b600080a28351156101455750600080848461012c96519101845af4903d1561013c573d61011c610068826101cf565b908152600081943d92013e6101ea565b505b6040516085908161024e8239f35b606092506101ea565b9250505034610154575061012e565b63b398979f60e01b8152600490fd5b60249060405190634c9c8ce360e01b82526004820152fd5b818101830151888201840152869201610080565b600080fd5b6040519190601f01601f191682016001600160401b038111838210176101b957604052565b634e487b7160e01b600052604160045260246000fd5b6001600160401b0381116101b957601f01601f191660200190565b9061021157508051156101ff57602081519101fd5b60405163d6bda27560e01b8152600490fd5b81511580610244575b610222575090565b604051639996b31560e01b81526001600160a01b039091166004820152602490fd5b50803b1561021a56fe60806040527f360894a13ba1a3210667c828492db98dca3e2076cc3735a920a3ca505d382bbc54600090819081906001600160a01b0316368280378136915af43d82803e15604b573d90f35b3d90fdfea2646970667358221220a2e13e598f5aacb2b5f44b25f537f22506c580210d588e0f5dca37ad0c5d77cb64736f6c63430008160033a26469706673582212201b5cf2382054e65b78cc0b80756ff4937f35384aae6daaf310e833c8ebece65664736f6c6343000816003360a080604052346100cc57306080527ff0c57e16840df040f15088dc2f81fe391c3923bec73e23a9662efc9c229c6a009081549060ff8260401c166100bd57506001600160401b036002600160401b031982821601610078575b6040516129fe90816100d2823960805181818161131a01526114000152f35b6001600160401b031990911681179091556040519081527fc7f505b2f371ae2175ee4913f4499e1f2633a7b5936321eed1cdaeb6115181d290602090a1388080610059565b63f92ee8a960e01b8152600490fd5b600080fdfe608080604052600436101561001357600080fd5b600090813560e01c908163150b7a02146120f9575080632184630e14611bb55780632ae11ca814611ab55780633fb3517814611a975780634690484014611a6e5780634a5e0051146115b85780634f1ef2861461138457806352d1902d14611307578063571a26a01461124c5780636ce0572e14610e11578063715018a6146111e157806376e112861461116757806378bd7935146110605780637f0ebb03146110205780638129fc1c14610ead5780638cd4299114610e8e5780638da5cb5b14610e5857806391dad30714610e11578063927fef2e14610dac5780639bfd3b38146108965780639dcb511a1461085b578063ad3cb1cc146107b5578063b3e265661461078c578063b9a2de3a14610323578063c2f50a7a14610306578063e71f7b151461028f578063e74b981b14610211578063eeca08f0146101f3578063f2fde38b146101c6578063fc528482146101a85763fc9274001461017657600080fd5b346101a55760403660031901126101a557602061019d610194612166565b6024359061249d565b604051908152f35b80fd5b50346101a557806003193601126101a5576020600354604051908152f35b50346101a55760203660031901126101a5576101f06101e3612166565b6101eb6126b6565b6123df565b80f35b50346101a557806003193601126101a5576020600554604051908152f35b50346101a55760203660031901126101a55761022b612166565b6102336126b6565b6001600160a01b03168015610258576001600160601b0360a01b600654161760065580f35b60405162461bcd60e51b815260206004820152600f60248201526e496e76616c6964206164647265737360881b6044820152606490fd5b50346101a55760203660031901126101a5576102b86040602092600435815260028452206122a2565b60808101511590816102ea575b816102d6575b506040519015158152f35b516001600160a01b031615159050386102cb565b90506102fe6060820151838301519061233c565b4210906102c5565b50346101a557806003193601126101a5576020604051610e108152f35b50346101a55760208060031936011261063a57600435610341612686565b808352600282526040832080546001600160a01b03939084169190610367831515612219565b600482019283549061037c60ff83161561225e565b61038f600385015460018601549061233c565b421090811591610782575b50156107455760ff191660011780845560081c8516151580610733575b1561064d576103c5826122a2565b610140810151876103e66127106103de6005548561246a565b048093612349565b8860e085015116938960a082015116610100820151863b1561064957604051632142170760e11b81523060048201526001600160a01b0392909216602483015260448201529483908690606490829084905af194851561063e578a95610621575b506101208101518516806104e557508280806000805160206129898339815191529a9588979560409b9a996104889651165af16104826126ef565b5061282c565b89816104c2575b50505b5460081c16956008600584015493015416908351928352820152a360016000805160206129a98339815191525580f35b8080806104de9487600654165af16104d86126ef565b50612878565b388961048f565b905160405163a9059cbb60e01b8082526001600160a01b03979092169690961660048701526024860192909252915084846044818d865af1938415610616578994610536918c916105f9575061282c565b82610559575b505050906040929160008051602061298983398151915294610492565b600654604051918252939093166001600160a01b031660048401526024830191909152909291908190849060449082908b905af180156105ee57600080516020612989833981519152946105b788926040968b916105c15750612878565b948192939461053c565b6105e19150853d87116105e7575b6105d981836121c3565b810190612201565b386104d8565b503d6105cf565b6040513d89823e3d90fd5b6106109150873d89116105e7576105d981836121c3565b38610482565b6040513d8c823e3d90fd5b8391955061062e90612192565b61063a57889338610447565b5080fd5b6040513d85823e3d90fd5b8480fd5b610656826122a2565b928560e085015116908787865116610100870151843b1561072f57604051632142170760e11b81523060048201526001600160a01b0392909216602483015260448201529281908490606490829084905af1928315610722578893610701575b5050906040939291858260a060008051602061298983398151915298015116806106e2575b5050610492565b81610140856101206106fa950151169101519161271f565b38806106db565b61070f919295949350612192565b61071e579091859087386106b6565b8680fd5b50604051903d90823e3d90fd5b8280fd5b506005820154600a83015411156103b7565b60405162461bcd60e51b8152600481018390526015602482015274105d58dd1a5bdb881b9bdd081e595d08195b991959605a1b6044820152606490fd5b905033143861039a565b50346101a557806003193601126101a5576001546040516001600160a01b039091168152602090f35b50346101a557806003193601126101a5576040516040810181811067ffffffffffffffff8211176108455760405260058152602091640352e302e360dc1b602083015260405192839160208352835191826020850152815b83811061082e57505060408094508284010152601f80199101168101030190f35b80860182015187820160400152869450810161080d565b634e487b7160e01b600052604160045260246000fd5b50346101a55760203660031901126101a5576020906001600160a01b039060409082610885612166565b168152808452205416604051908152f35b50346101a55760a03660031901126101a5576024906064356001600160a01b0381169083359060043590839003610da757608435916108d3612686565b610e1082101580610d9a575b15610d63578015610d1f578060443510610ce3578315610ca8576040516331a9108f60e11b8152600481018490526020818881885afa908115610b86578691610c89575b50336001600160a01b0390911603610c525760405163e985e9c560e01b8152336004820152306024820152602081604481885afa908115610b86578691610c33575b508015610bc8575b15610b9157833b1561064957604051632142170760e11b815233600482015230602482015260448101849052858160648183895af18015610b8657908691610b72575b5050600354946000198614610b5f576020965060018601600355600a61016060408051936109dd856121a6565b338552868b86015285828601524260608601528060808601528060a08601528060c08601528860e08601528761010086015280610120860152806101408601526044358386015289815260028b52209260018060a01b038151166001600160601b0360a01b90818654161785558a82015160018601556040820151600286015560608201516003860155610ab0600486016080840151151560ff8019835416911617815560018060a01b0360a085015116815490610100600160a81b039060081b1690610100600160a81b031916179055565b60c082015160058601556006850160018060a01b0360e084015116828254161790556101008201516007860155600885019060018060a01b036101208401511690825416179055610140810151600985015501519101556040519283528583015260443560408301526060820152827fcaf0ae751fb2b122e8718bf7c0d4b7584d1418a853a4d0cdaba45418d3da138b60803393a460016000805160206129a983398151915255604051908152f35b634e487b7160e01b815260116004528690fd5b610b7b90612192565b6106495784386109b0565b6040513d88823e3d90fd5b60405162461bcd60e51b8152602060048201526010818801526f139195081b9bdd08185c1c1c9bdd995960821b6044820152606490fd5b5060405163020604bf60e21b8152600481018490526020818881885afa908115610b86578691610c04575b506001600160a01b0316301461096d565b610c26915060203d602011610c2c575b610c1e81836121c3565b8101906123c0565b38610bf3565b503d610c14565b610c4c915060203d6020116105e7576105d981836121c3565b38610965565b60405162461bcd60e51b8152602060048201526010818801526f139bdd081bdddb995c881bd98813919560821b6044820152606490fd5b610ca2915060203d602011610c2c57610c1e81836121c3565b38610923565b60405162461bcd60e51b81526020600482015260148188015273125b9d985b1a59081391950818dbdb9d1c9858dd60621b6044820152606490fd5b60405162461bcd60e51b815260206004820152601581880152745265736572766520707269636520746f6f206c6f7760581b6044820152606490fd5b60405162461bcd60e51b815260206004820152601c818801527f5374617274207072696365206d75737420626520706f736974697665000000006044820152606490fd5b60405162461bcd60e51b8152602060048201526010818801526f24b73b30b634b210323ab930ba34b7b760811b6044820152606490fd5b5062278d008211156108df565b600080fd5b50346101a55760203660031901126101a557600435610dc96126b6565b6103e88111610dd85760055580f35b60405162461bcd60e51b815260206004820152601160248201527008ccaca40e4c2e8ca40e8dede40d0d2ced607b1b6044820152606490fd5b50346101a55760403660031901126101a5576040610e2d61217c565b9160043581526004602052209060018060a01b03166000526020526020604060002054604051908152f35b50346101a557806003193601126101a557600080516020612969833981519152546040516001600160a01b039091168152602090f35b50346101a55760203660031901126101a557602061019d600435612356565b50346101a557806003193601126101a5577ff0c57e16840df040f15088dc2f81fe391c3923bec73e23a9662efc9c229c6a00805460ff8160401c16159067ffffffffffffffff811680159081611018575b600114908161100e575b159081611005575b50610ff35767ffffffffffffffff198116600117835581610fd4575b50610f356128c4565b610f3d6128c4565b610f46336123df565b610f4e6128c4565b610f566128c4565b610f5e6128c4565b60016000805160206129a983398151915255600160035560fa600555336001600160601b0360a01b6006541617600655610f96575080f35b68ff00000000000000001981541690557fc7f505b2f371ae2175ee4913f4499e1f2633a7b5936321eed1cdaeb6115181d2602060405160018152a180f35b68ffffffffffffffffff19166801000000000000000117825538610f2c565b60405163f92ee8a960e01b8152600490fd5b90501538610f10565b303b159150610f08565b839150610efe565b50346101a55760203660031901126101a55761103a612166565b6110426126b6565b60018060a01b03166001600160601b0360a01b600154161760015580f35b50346101a55760203660031901126101a55760405161018091611082826121a6565b8082528060208301528060408301528060608301528060808301528060a08301528060c08301528060e0830152610100918183820152610120828183015261014083818401526110e760408561016096878097015260043581526002602052206122a2565b916040519560018060a01b03908185511688526020850151602089015260408501516040890152606085015160608901526080850151151560808901528160a08601511660a089015260c085015160c08901528160e08601511660e089015280850151908801528184015116908601528082015190850152015190820152f35b50346101a55760403660031901126101a557611181612166565b61118961217c565b6111916126b6565b60018060a01b0380911691168083528260205260408320826001600160601b0360a01b8254161790557fa8abe0398416476db5b05737cd4da3b3cbde5012d978a6a6c3fd49d3217535368380a380f35b50346101a557806003193601126101a5576111fa6126b6565b60008051602061296983398151915280546001600160a01b031981169091556000906001600160a01b03167f8be0079c531659141344cd1fd0a4f28419497f9722a3daafe3b4186f6b6457e08280a380f35b50346101a55760203660031901126101a557604061018091600435815260026020522060018060a01b03808254169160018101549160028201549060038301549060048401549060058501549080600687015416926007870154948260088901541696600a60098a0154990154996040519b8c5260208c015260408b015260608a015260ff8116151560808a015260081c1660a088015260c087015260e0860152610100850152610120840152610140830152610160820152f35b50346101a557806003193601126101a5577f00000000000000000000000000000000000000000000000000000000000000006001600160a01b031630036113725760206040517f360894a13ba1a3210667c828492db98dca3e2076cc3735a920a3ca505d382bbc8152f35b60405163703e46dd60e11b8152600490fd5b5060403660031901126101a557611399612166565b602491823567ffffffffffffffff811161063a573660238201121561063a578060040135926113c7846121e5565b6113d460405191826121c3565b848152602094858201933688838301011161157f57818692898993018737830101526001600160a01b037f0000000000000000000000000000000000000000000000000000000000000000811630811490811561158a575b50611372576114396126b6565b6040516352d1902d60e01b81529083169580826004818a5afa9182918793611556575b505061147a57604051634c9c8ce360e01b8152600481018790528790fd5b8590877f360894a13ba1a3210667c828492db98dca3e2076cc3735a920a3ca505d382bbc918281036115415750843b1561152b575080546001600160a01b031916821790556040518592917fbc7cd75a20ee27fd9adebab32041f755214dbc6bffa90cc0225b39da2e5c2d3b8480a281511561150e575061150a9382915190845af46115046126ef565b91612905565b5080f35b93505050503461151c575080f35b63b398979f60e01b8152600490fd5b604051634c9c8ce360e01b815260048101849052fd5b60405190632a87526960e21b82526004820152fd5b9080929350813d8311611583575b61156e81836121c3565b8101031261157f575190388061145c565b8580fd5b503d611564565b9050817f360894a13ba1a3210667c828492db98dca3e2076cc3735a920a3ca505d382bbc541614153861142c565b5060208060031936011261063a57600435906115d2612686565b3415611a3357600080805280825260409020546001600160a01b039290831680156119f957604051633fabe5a360e21b81529060a082600481845afa91821561196a576000926119ab575b50600082131561197657836004916040519283809263313ce56760e01b82525afa90811561196a57600091611933575b5090670de0b6b3a764000091828202918083048414901517156117e45760ff16604d81116117e45761168761168c923492600a0a9061247d565b61246a565b04816000526002835260406000209380855416946116ab861515612219565b6004810180549060ff82166118fe5760038301938454986116d2600186019a8b549061233c565b4210156118c757331461188e5760028401548610611851576005840192835487111561181657918161172d9288959460081c16806117fa575b50508054610100600160a81b0319163360081b610100600160a81b0316179055565b55600881016001600160601b0360a01b815416905560093491015582600052600484526040600020336000528452816040600020555461177f85549161038491829161177a85429261233c565b612349565b106117d0575b505060009350604051923484528301527f2808decb743a25d04efe1bd3dc192acde3be644e2f6ad1dce5d3c46643e1c60260403393a460016000805160206129a98339815191525580f35b81018091116117e457600094553880611785565b634e487b7160e01b600052601160045260246000fd5b61180f9160088801541660098801549161271f565b388061170b565b60405162461bcd60e51b8152600481018a90526013602482015272084d2c840dcdee840d0d2ced040cadcdeeaced606b1b6044820152606490fd5b60405162461bcd60e51b81526004810189905260156024820152744269642062656c6f7720737461727420707269636560581b6044820152606490fd5b60405162461bcd60e51b815260048101899052601160248201527014d95b1b195c8818d85b9b9bdd08189a59607a1b6044820152606490fd5b60405162461bcd60e51b8152600481018a9052600f60248201526e105d58dd1a5bdb88195e1c1a5c9959608a1b6044820152606490fd5b60405162461bcd60e51b815260048101889052600d60248201526c105d58dd1a5bdb88195b991959609a1b6044820152606490fd5b8481813d8311611963575b61194881836121c3565b8101031261063a57519060ff821682036101a557503861164d565b503d61193e565b6040513d6000823e3d90fd5b60405162461bcd60e51b815260048101859052600d60248201526c496e76616c696420707269636560981b6044820152606490fd5b909160a0823d60a0116119f1575b816119c660a093836121c3565b810103126101a557506119d881612453565b506119e96080858301519201612453565b50903861161d565b3d91506119b9565b60405162461bcd60e51b8152600481018490526012602482015271141c9a58d94819995959081b9bdd081cd95d60721b6044820152606490fd5b6064906040519062461bcd60e51b825260048201526014602482015273426964206d75737420626520706f73697469766560601b6044820152fd5b50346101a557806003193601126101a5576006546040516001600160a01b039091168152602090f35b50346101a557806003193601126101a557602060405162278d008152f35b50346101a55760203660031901126101a557611acf6126b6565b600435815260026020526040812080546001600160a01b0391908216611af6811515612219565b600482019060018254611b0c60ff82161561225e565b60ff19161782556006830154600784015486918616803b1561072f57604051632142170760e11b81523060048201526001600160a01b0394909416602485015260448401919091528290606490829084905af18015611baa57611b97575b505460081c82169081611b7b578380f35b6009611b90936008830154169101549161271f565b3880808380f35b93611ba3849295612192565b9390611b6a565b6040513d87823e3d90fd5b50346101a55760603660031901126101a557600435611bd261217c565b90604490813591611be1612686565b82156120b5576001600160a01b03848116949091908515612071578587526020918783528360408920541615612038576040516370a0823160e01b815233600482015260249290848185818c5afa80156106165788918b91612007575b5010611fcd57604051636eb1769f60e11b815233600482015230602482015284816044818c5afa80156106165788918b91611f98575b5010611f5c5786611c849161249d565b6040516323b872dd60e01b81523360048201523060248201526044810188905290949084816064818d8d5af1801561061657611f3f575b5085895260028452604089208181541692611cd7841515612219565b6004820180549360ff8516611f0c576003840194855496611cfe600187019889549061233c565b421015611ed7573314611ea05760028501548a10611e6557600585019384548b1115611e2d575092611d5d8c9593838c9460099760081c1680611e195750508054610100600160a81b0319163360081b610100600160a81b0316179055565b55600881018b6001600160601b0360a01b82541617905501558589526004845260408920338a5284528460408a20555491611da582549361038491829161177a87429261233c565b10611df3575b505050506040519384528301527f2808decb743a25d04efe1bd3dc192acde3be644e2f6ad1dce5d3c46643e1c60260403393a460016000805160206129a98339815191525580f35b8301809311611e0757505538808080611dab565b634e487b7160e01b8952601160045288fd5b61180f91600888015416888801549161271f565b8972084d2c840dcdee840d0d2ced040cadcdeeaced606b1b60649260138c6040519462461bcd60e51b86526004860152840152820152fd5b60405162461bcd60e51b8152600481018a90526015818a0152744269642062656c6f7720737461727420707269636560581b81860152606490fd5b60405162461bcd60e51b8152600481018a90526011818a01527014d95b1b195c8818d85b9b9bdd08189a59607a1b81860152606490fd5b60405162461bcd60e51b8152600481018b9052600f818b01526e105d58dd1a5bdb88195e1c1a5c9959608a1b81870152606490fd5b60405162461bcd60e51b815260048101899052600d818901526c105d58dd1a5bdb88195b991959609a1b81850152606490fd5b611f5590853d87116105e7576105d981836121c3565b5038611cbb565b60405162461bcd60e51b81526004810185905260168185015275496e73756666696369656e7420616c6c6f77616e636560501b81840152606490fd5b809250868092503d8311611fc6575b611fb181836121c3565b81010312611fc25787905138611c74565b8980fd5b503d611fa7565b60405162461bcd60e51b81526004810185905260148185015273496e73756666696369656e742062616c616e636560601b81840152606490fd5b809250868092503d8311612031575b61202081836121c3565b81010312611fc25787905138611c3e565b503d612016565b8272151bdad95b881b9bdd081cdd5c1c1bdc9d1959606a1b6064926040519262461bcd60e51b8452600484015260136024840152820152fd5b60405162461bcd60e51b815260206004820152601b60248201527f55736520706c6163654269645769746845544820666f7220455448000000000081840152606490fd5b6064907f416d6f756e74206d75737420626520706f7369746976650000000000000000006040519162461bcd60e51b83526020600484015260176024840152820152fd5b90503461063a57608036600319011261063a57612114612166565b5061211d61217c565b5060643567ffffffffffffffff8082116121625736602383011215612162578160040135908111612162573691016024011161063a57630a85bd0160e11b8152602090f35b8380fd5b600435906001600160a01b0382168203610da757565b602435906001600160a01b0382168203610da757565b67ffffffffffffffff811161084557604052565b610180810190811067ffffffffffffffff82111761084557604052565b90601f8019910116810190811067ffffffffffffffff82111761084557604052565b67ffffffffffffffff811161084557601f01601f191660200190565b90816020910312610da757518015158103610da75790565b1561222057565b60405162461bcd60e51b8152602060048201526016602482015275105d58dd1a5bdb88191bd95cc81b9bdd08195e1a5cdd60521b6044820152606490fd5b1561226557565b60405162461bcd60e51b8152602060048201526015602482015274105d58dd1a5bdb88185b1c9958591e48195b991959605a1b6044820152606490fd5b906040516122af816121a6565b82546001600160a01b039081168252600184015460208301526002840154604083015260038401546060830152600484015460ff811615156080840152600890811c821660a0840152600585015460c08401526006850154821660e08401526007850154610100840152840154166101208201526009830154610140820152600a90920154610160830152565b919082018092116117e457565b919082039182116117e457565b600052600260205261236b60406000206122a2565b6080810151158015906123a4575b61239e57612394816020606061239b9401519101519061233c565b4290612349565b90565b50600090565b506123b8606082015160208301519061233c565b421015612379565b90816020910312610da757516001600160a01b0381168103610da75790565b6001600160a01b0390811690811561243a5760008051602061296983398151915280546001600160a01b031981168417909155167f8be0079c531659141344cd1fd0a4f28419497f9722a3daafe3b4186f6b6457e0600080a3565b604051631e4fbdf760e01b815260006004820152602490fd5b519069ffffffffffffffffffff82168203610da757565b818102929181159184041417156117e457565b8115612487570490565b634e487b7160e01b600052601260045260246000fd5b6001600160a01b0390811660009081526020818152604080832054909493169190821561264e578451633fabe5a360e21b81529260a084600481845afa9384156126445783946125f6575b50828413156125c257908060049287519384809263313ce56760e01b82525afa9586156125b95750829561257f575b5050670de0b6b3a7640000938483029280840486149015171561256b5760ff1690604d82116125575750612553929161168791600a0a9061247d565b0490565b634e487b7160e01b81526011600452602490fd5b634e487b7160e01b82526011600452602482fd5b9080929550813d83116125b2575b61259781836121c3565b81010312612162575160ff8116810361216257923880612517565b503d61258d565b513d84823e3d90fd5b855162461bcd60e51b815260048101839052600d60248201526c496e76616c696420707269636560981b6044820152606490fd5b90935060a0813d60a01161263c575b8161261260a093836121c3565b8101031261072f5761262381612453565b506126346080838301519201612453565b5092386124e8565b3d9150612605565b86513d85823e3d90fd5b60649085519062461bcd60e51b825260048201526012602482015271141c9a58d94819995959081b9bdd081cd95d60721b6044820152fd5b6000805160206129a983398151915260028154146126a45760029055565b604051633ee5aeb560e01b8152600490fd5b600080516020612969833981519152546001600160a01b031633036126d757565b60405163118cdaa760e01b8152336004820152602490fd5b3d1561271a573d90612700826121e5565b9161270e60405193846121c3565b82523d6000602084013e565b606090565b6001600160a01b039182168061278457506000809381938293165af16127436126ef565b501561274b57565b60405162461bcd60e51b8152602060048201526011602482015270115512081c99599d5b990819985a5b1959607a1b6044820152606490fd5b60405163a9059cbb60e01b81526001600160a01b0392909216600483015260248201939093529160209150829060449082906000905af190811561196a5760009161280d575b50156127d257565b60405162461bcd60e51b8152602060048201526013602482015272151bdad95b881c99599d5b990819985a5b1959606a1b6044820152606490fd5b612826915060203d6020116105e7576105d981836121c3565b386127ca565b1561283357565b60405162461bcd60e51b815260206004820152601860248201527f5061796d656e7420746f2073656c6c6572206661696c656400000000000000006044820152606490fd5b1561287f57565b60405162461bcd60e51b815260206004820152601c60248201527f506c6174666f726d20666565207472616e73666572206661696c6564000000006044820152606490fd5b60ff7ff0c57e16840df040f15088dc2f81fe391c3923bec73e23a9662efc9c229c6a005460401c16156128f357565b604051631afcd79f60e31b8152600490fd5b9061292c575080511561291a57602081519101fd5b60405163d6bda27560e01b8152600490fd5b8151158061295f575b61293d575090565b604051639996b31560e01b81526001600160a01b039091166004820152602490fd5b50803b1561293556fe9016d09d72d40fdae2fd8ceac6b6234c7706214fd39c1cd1e609a0528c199300bb6764412c29916bdf4a5c6fe6b1c079de35682160b2289928ce003ab459a7499b779b17422d0df92223018b32b4d1fa46e071723d6817e2486d003becc55f00a26469706673582212205732af75017860c840a7eae8c8099d21765daf3e47418203e7fff18626d3d1ac64736f6c63430008160033","opcodes":"PUSH1 0xA0 DUP1 PUSH1 0x40 MSTORE CALLVALUE PUSH2 0xE0 JUMPI CALLER ISZERO PUSH2 0xCA JUMPI PUSH1 0x0 DUP1 SLOAD CALLER PUSH1 0x1 PUSH1 0x1 PUSH1 0xA0 SHL SUB NOT DUP3 AND DUP2 OR DUP4 SSTORE PUSH1 0x40 MLOAD PUSH1 0x1 PUSH1 0x1 PUSH1 0xA0 SHL SUB SWAP4 SWAP3 SWAP1 SWAP2 SWAP1 DUP5 AND PUSH32 0x8BE0079C531659141344CD1FD0A4F28419497F9722A3DAAFE3B4186F6B6457E0 DUP5 DUP1 LOG3 PUSH2 0x2AD0 DUP2 DUP2 ADD SWAP1 PUSH1 0x1 PUSH1 0x1 PUSH1 0x40 SHL SUB DUP3 GT DUP4 DUP4 LT OR PUSH2 0xB6 JUMPI SWAP1 DUP3 SWAP2 PUSH2 0x1776 DUP4 CODECOPY SUB SWAP1 DUP3 CREATE SWAP1 DUP2 ISZERO PUSH2 0xAA JUMPI POP AND PUSH1 0x80 MSTORE PUSH1 0x40 MLOAD PUSH2 0x1690 SWAP1 DUP2 PUSH2 0xE6 DUP3 CODECOPY PUSH1 0x80 MLOAD DUP2 DUP2 DUP2 PUSH2 0x239 ADD MSTORE PUSH2 0x973 ADD MSTORE RETURN JUMPDEST PUSH1 0x40 MLOAD SWAP1 RETURNDATASIZE SWAP1 DUP3 RETURNDATACOPY RETURNDATASIZE SWAP1 REVERT JUMPDEST PUSH4 0x4E487B71 PUSH1 0xE0 SHL DUP5 MSTORE PUSH1 0x41 PUSH1 0x4 MSTORE PUSH1 0x24 DUP5 REVERT JUMPDEST PUSH4 0x1E4FBDF7 PUSH1 0xE0 SHL DUP2 MSTORE PUSH1 0x0 PUSH1 0x4 DUP3 ADD MSTORE PUSH1 0x24 SWAP1 REVERT JUMPDEST PUSH1 0x0 DUP1 REVERT INVALID PUSH1 0x40 PUSH1 0x80 DUP2 MSTORE PUSH1 0x4 SWAP1 DUP2 CALLDATASIZE LT ISZERO PUSH3 0x16 JUMPI PUSH1 0x0 DUP1 REVERT JUMPDEST PUSH1 0x0 SWAP2 DUP3 CALLDATALOAD PUSH1 0xE0 SHR SWAP1 DUP2 PUSH4 0x165C5881 EQ PUSH3 0xDC8 JUMPI DUP2 PUSH4 0x184B9D2B EQ PUSH3 0xD32 JUMPI DUP2 PUSH4 0x2C22318B EQ PUSH3 0xBF1 JUMPI DUP2 PUSH4 0x2D20581F EQ PUSH3 0xB9E JUMPI DUP2 PUSH4 0x4077503A EQ PUSH3 0xB7D JUMPI DUP2 PUSH4 0x4243783F EQ PUSH3 0xB26 JUMPI DUP2 PUSH4 0x4FA15FD1 EQ PUSH3 0xAE7 JUMPI DUP2 PUSH4 0x596EA661 EQ PUSH3 0x9DE JUMPI DUP2 PUSH4 0x62DA5D08 EQ PUSH3 0x9A2 JUMPI DUP2 PUSH4 0x6A7F3F6C EQ PUSH3 0x95C JUMPI DUP2 PUSH4 0x715018A6 EQ PUSH3 0x8FE JUMPI DUP2 PUSH4 0x77044B40 EQ PUSH3 0x746 JUMPI DUP2 PUSH4 0x8DA5CB5B EQ PUSH3 0x8D4 JUMPI DUP2 PUSH4 0xAA2A04D1 EQ PUSH3 0x8B3 JUMPI DUP2 PUSH4 0xABC68CE7 EQ PUSH3 0x787 JUMPI DUP2 PUSH4 0xAF36B6F6 EQ PUSH3 0x746 JUMPI DUP2 PUSH4 0xB4FBE80A EQ PUSH3 0x6E6 JUMPI DUP2 PUSH4 0xB59DA2D2 EQ PUSH3 0x6AA JUMPI DUP2 PUSH4 0xEDED09C3 EQ PUSH3 0x587 JUMPI DUP2 PUSH4 0xF2FDE38B EQ PUSH3 0x4F9 JUMPI DUP2 PUSH4 0xF3E6BCCD EQ PUSH3 0x4C1 JUMPI DUP2 PUSH4 0xFB6C51A7 EQ PUSH3 0x1D3 JUMPI POP PUSH4 0xFF3AD0B4 EQ PUSH3 0x138 JUMPI PUSH1 0x0 DUP1 REVERT JUMPDEST CALLVALUE PUSH3 0x1CF JUMPI PUSH1 0x20 SWAP1 PUSH1 0x20 PUSH1 0x3 NOT CALLDATASIZE ADD SLT PUSH3 0x1CB JUMPI PUSH1 0x1 PUSH1 0x1 PUSH1 0xA0 SHL SUB SWAP3 DUP4 PUSH3 0x162 PUSH3 0xEAE JUMP JUMPDEST AND DUP2 MSTORE PUSH1 0x2 PUSH1 0x20 MSTORE DUP2 DUP2 KECCAK256 SWAP4 DUP3 MLOAD SWAP1 DUP2 SWAP5 PUSH1 0x20 DUP8 SLOAD SWAP4 DUP5 DUP2 MSTORE ADD SWAP7 DUP5 MSTORE PUSH1 0x20 DUP5 KECCAK256 SWAP4 SWAP2 JUMPDEST DUP4 DUP4 LT PUSH3 0x1B1 JUMPI PUSH3 0x1AD DUP8 DUP8 PUSH3 0x1A2 DUP3 DUP13 SUB DUP4 PUSH3 0x1019 JUMP JUMPDEST MLOAD SWAP2 DUP3 SWAP2 DUP3 PUSH3 0xF17 JUMP JUMPDEST SUB SWAP1 RETURN JUMPDEST DUP5 SLOAD DUP2 AND DUP9 MSTORE SWAP7 DUP2 ADD SWAP7 PUSH1 0x1 SWAP5 DUP6 ADD SWAP5 SWAP1 SWAP3 ADD SWAP2 PUSH3 0x186 JUMP JUMPDEST DUP3 DUP1 REVERT JUMPDEST POP DUP1 REVERT JUMPDEST SWAP1 POP CALLVALUE PUSH3 0x1CB JUMPI DUP3 PUSH1 0x3 NOT CALLDATASIZE ADD SLT PUSH3 0x1CB JUMPI DUP2 MLOAD SWAP2 PUSH1 0x20 SWAP3 PUSH4 0x204A7F07 PUSH1 0xE2 SHL DUP5 DUP3 ADD MSTORE DUP3 DUP2 MSTORE PUSH3 0x207 DUP2 PUSH3 0xFFC JUMP JUMPDEST DUP2 MLOAD PUSH2 0x2D3 DUP1 DUP3 ADD SWAP1 DUP3 DUP3 LT PUSH8 0xFFFFFFFFFFFFFFFF DUP4 GT OR PUSH3 0x4AE JUMPI SWAP3 SWAP1 SWAP3 PUSH3 0x1388 DUP4 CODECOPY DUP2 PUSH1 0x1 DUP1 PUSH1 0xA0 SHL SUB SWAP4 DUP5 PUSH32 0x0 AND DUP2 MSTORE DUP6 DUP9 DUP3 ADD MSTORE DUP3 MLOAD DUP1 DUP8 DUP4 ADD MSTORE DUP10 SWAP4 JUMPDEST DUP10 DUP3 DUP7 LT PUSH3 0x494 JUMPI POP POP PUSH1 0x60 SWAP4 POP DUP10 DUP5 DUP3 DUP5 ADD ADD MSTORE PUSH1 0x1F DUP1 NOT SWAP2 ADD AND ADD SUB ADD SWAP1 DUP7 CREATE DUP1 ISZERO PUSH3 0x48A JUMPI DUP2 AND DUP6 JUMPDEST PUSH1 0x5 SLOAD DUP2 LT ISZERO PUSH3 0x336 JUMPI DUP3 PUSH3 0x2AF DUP3 PUSH3 0xEDC JUMP JUMPDEST POP SLOAD AND DUP8 DUP5 PUSH1 0x1 PUSH3 0x2C1 DUP6 PUSH3 0xEDC JUMP JUMPDEST POP ADD SLOAD AND DUP5 EXTCODESIZE ISZERO PUSH3 0x1CF JUMPI DUP7 MLOAD PUSH4 0x3B708943 PUSH1 0xE1 SHL DUP2 MSTORE PUSH1 0x1 PUSH1 0x1 PUSH1 0xA0 SHL SUB SWAP4 DUP5 AND DUP10 DUP3 ADD SWAP1 DUP2 MSTORE SWAP2 SWAP1 SWAP4 AND PUSH1 0x20 DUP3 ADD MSTORE DUP3 SWAP1 DUP2 SWAP1 PUSH1 0x40 ADD SUB DUP2 DUP4 DUP8 GAS CALL DUP1 ISZERO PUSH3 0x32C JUMPI SWAP1 PUSH1 0x1 SWAP3 SWAP2 PUSH3 0x31A JUMPI JUMPDEST POP ADD PUSH3 0x298 JUMP JUMPDEST PUSH3 0x325 SWAP1 PUSH3 0xFD1 JUMP JUMPDEST CODESIZE PUSH3 0x312 JUMP JUMPDEST DUP6 MLOAD RETURNDATASIZE DUP11 DUP3 RETURNDATACOPY RETURNDATASIZE SWAP1 REVERT JUMPDEST POP SWAP3 SWAP1 DUP6 SWAP1 DUP5 EXTCODESIZE ISZERO PUSH3 0x1CF JUMPI DUP4 MLOAD PUSH4 0xF2FDE38B PUSH1 0xE0 SHL DUP2 MSTORE CALLER DUP5 DUP3 ADD MSTORE DUP3 DUP2 PUSH1 0x24 DUP2 DUP4 DUP11 GAS CALL DUP1 ISZERO PUSH3 0x480 JUMPI PUSH3 0x46E JUMPI JUMPDEST POP PUSH1 0x1 SWAP1 DUP2 SLOAD PUSH1 0x1 PUSH1 0x40 SHL SWAP1 DUP2 DUP2 LT ISZERO PUSH3 0x45B JUMPI DUP1 DUP5 PUSH3 0x38F SWAP3 ADD DUP6 SSTORE PUSH3 0xE0E JUMP JUMPDEST DUP2 SLOAD SWAP1 PUSH1 0x3 SHL SWAP1 DUP5 DUP11 DUP4 SHL SWAP3 SHL NOT AND OR SWAP1 SSTORE CALLER DUP5 MSTORE PUSH1 0x2 DUP9 MSTORE DUP6 DUP5 KECCAK256 DUP1 SLOAD SWAP2 DUP3 LT ISZERO PUSH3 0x45B JUMPI SWAP1 PUSH3 0x3C7 SWAP2 DUP5 DUP3 ADD DUP2 SSTORE PUSH3 0xE5C JUMP JUMPDEST DUP2 SLOAD PUSH1 0x3 SWAP2 DUP3 SHL SWAP4 DUP5 SHL NOT AND SWAP3 DUP9 SWAP1 SHL SWAP3 SWAP1 SWAP3 OR SWAP1 SSTORE DUP6 DUP4 MSTORE DUP7 MSTORE DUP4 DUP3 KECCAK256 DUP1 SLOAD PUSH1 0x1 PUSH1 0x1 PUSH1 0xA0 SHL SUB NOT AND CALLER OR SWAP1 SSTORE DUP3 DUP7 MSTORE DUP4 DUP3 KECCAK256 DUP1 SLOAD PUSH1 0xFF NOT AND DUP3 OR SWAP1 SSTORE SLOAD PUSH1 0x0 NOT DUP2 ADD SWAP3 SWAP1 DUP4 GT PUSH3 0x448 JUMPI POP POP DUP3 SWAP1 DUP3 MLOAD SWAP1 DUP2 MSTORE PUSH32 0xF6A1EDB350018130B9440E418C9439BEE0F72E1455141EDC62B4C1F33674201 DUP6 CALLER SWAP3 LOG3 MLOAD SWAP1 DUP2 MSTORE RETURN JUMPDEST PUSH4 0x4E487B71 PUSH1 0xE0 SHL DUP3 MSTORE PUSH1 0x11 SWAP1 MSTORE PUSH1 0x24 SWAP1 REVERT JUMPDEST PUSH4 0x4E487B71 PUSH1 0xE0 SHL DUP6 MSTORE PUSH1 0x41 DUP7 MSTORE PUSH1 0x24 DUP6 REVERT JUMPDEST PUSH3 0x479 SWAP1 PUSH3 0xFD1 JUMP JUMPDEST DUP7 PUSH3 0x36A JUMP JUMPDEST DUP6 MLOAD RETURNDATASIZE DUP6 DUP3 RETURNDATACOPY RETURNDATASIZE SWAP1 REVERT JUMPDEST DUP3 MLOAD RETURNDATASIZE DUP8 DUP3 RETURNDATACOPY RETURNDATASIZE SWAP1 REVERT JUMPDEST DUP6 DUP3 ADD DUP2 ADD MLOAD PUSH1 0x60 DUP6 DUP9 ADD ADD MSTORE SWAP1 SWAP5 ADD SWAP4 DUP6 SWAP4 POP PUSH3 0x26A JUMP JUMPDEST PUSH4 0x4E487B71 PUSH1 0xE0 SHL DUP9 MSTORE PUSH1 0x41 DUP7 MSTORE PUSH1 0x24 DUP9 REVERT JUMPDEST DUP4 CALLVALUE PUSH3 0x4F6 JUMPI PUSH1 0x20 CALLDATASIZE PUSH1 0x3 NOT ADD SLT PUSH3 0x4F6 JUMPI PUSH3 0x4F3 PUSH3 0x4E3 PUSH3 0xEAE JUMP JUMPDEST PUSH3 0x4ED PUSH3 0x135A JUMP JUMPDEST PUSH3 0x1202 JUMP JUMPDEST DUP1 RETURN JUMPDEST DUP1 REVERT JUMPDEST SWAP1 POP CALLVALUE PUSH3 0x1CB JUMPI PUSH1 0x20 CALLDATASIZE PUSH1 0x3 NOT ADD SLT PUSH3 0x1CB JUMPI PUSH3 0x518 PUSH3 0xEAE JUMP JUMPDEST SWAP1 PUSH3 0x523 PUSH3 0x135A JUMP JUMPDEST PUSH1 0x1 PUSH1 0x1 PUSH1 0xA0 SHL SUB SWAP2 DUP3 AND SWAP3 DUP4 ISZERO PUSH3 0x571 JUMPI POP POP DUP3 SLOAD PUSH1 0x1 PUSH1 0x1 PUSH1 0xA0 SHL SUB NOT DUP2 AND DUP4 OR DUP5 SSTORE AND PUSH32 0x8BE0079C531659141344CD1FD0A4F28419497F9722A3DAAFE3B4186F6B6457E0 DUP4 DUP1 LOG3 DUP1 RETURN JUMPDEST MLOAD PUSH4 0x1E4FBDF7 PUSH1 0xE0 SHL DUP2 MSTORE SWAP1 DUP2 ADD DUP5 SWAP1 MSTORE PUSH1 0x24 SWAP1 REVERT JUMPDEST DUP4 DUP4 CALLVALUE PUSH3 0x1CF JUMPI DUP1 PUSH1 0x3 NOT CALLDATASIZE ADD SLT PUSH3 0x1CF JUMPI DUP3 CALLDATALOAD SWAP2 PUSH1 0x24 SWAP4 PUSH1 0x24 CALLDATALOAD SWAP2 DUP3 DUP6 LT DUP1 PUSH3 0x69D JUMPI JUMPDEST ISZERO PUSH3 0x66A JUMPI PUSH3 0x5C1 DUP6 DUP5 PUSH3 0x11DE JUMP JUMPDEST SWAP5 PUSH3 0x5E9 PUSH3 0x5D1 DUP8 PUSH3 0x103C JUMP JUMPDEST SWAP7 PUSH3 0x5E0 DUP8 MLOAD SWAP9 DUP10 PUSH3 0x1019 JUMP JUMPDEST DUP1 DUP9 MSTORE PUSH3 0x103C JUMP JUMPDEST PUSH1 0x20 SWAP3 SWAP1 PUSH1 0x1F NOT ADD CALLDATASIZE DUP9 DUP6 ADD CALLDATACOPY DUP2 JUMPDEST DUP6 DUP2 LT PUSH3 0x60F JUMPI DUP7 MLOAD DUP1 PUSH3 0x1AD DUP11 DUP3 PUSH3 0xF17 JUMP JUMPDEST PUSH3 0x61A DUP2 PUSH3 0xE0E JUMP JUMPDEST SWAP1 SLOAD SWAP1 PUSH3 0x629 DUP6 DUP5 PUSH3 0x11DE JUMP JUMPDEST SWAP2 DUP11 MLOAD DUP4 LT ISZERO PUSH3 0x658 JUMPI PUSH1 0x3 SWAP2 SWAP1 SWAP2 SHL SHR PUSH1 0x1 PUSH1 0x1 PUSH1 0xA0 SHL SUB AND PUSH1 0x5 SWAP2 SWAP1 SWAP2 SHL DUP10 ADD DUP6 ADD MSTORE PUSH1 0x1 ADD PUSH3 0x5F8 JUMP JUMPDEST PUSH4 0x4E487B71 PUSH1 0xE0 SHL DUP6 MSTORE PUSH1 0x32 DUP9 MSTORE DUP12 DUP6 REVERT JUMPDEST DUP4 MLOAD PUSH3 0x461BCD PUSH1 0xE5 SHL DUP2 MSTORE PUSH1 0x20 DUP2 DUP5 ADD MSTORE PUSH1 0xD PUSH1 0x24 DUP3 ADD MSTORE PUSH13 0x496E76616C69642072616E6765 PUSH1 0x98 SHL PUSH1 0x44 DUP3 ADD MSTORE PUSH1 0x64 SWAP1 REVERT JUMPDEST POP PUSH1 0x1 SLOAD DUP4 GT ISZERO PUSH3 0x5AF JUMP JUMPDEST POP POP CALLVALUE PUSH3 0x1CF JUMPI PUSH1 0x20 CALLDATASIZE PUSH1 0x3 NOT ADD SLT PUSH3 0x1CF JUMPI PUSH1 0x20 SWAP2 DUP2 SWAP1 PUSH1 0x1 PUSH1 0x1 PUSH1 0xA0 SHL SUB PUSH3 0x6D6 PUSH3 0xEAE JUMP JUMPDEST AND DUP2 MSTORE PUSH1 0x2 DUP5 MSTORE KECCAK256 SLOAD SWAP1 MLOAD SWAP1 DUP2 MSTORE RETURN JUMPDEST POP POP CALLVALUE PUSH3 0x1CF JUMPI DUP1 PUSH1 0x3 NOT CALLDATASIZE ADD SLT PUSH3 0x1CF JUMPI PUSH3 0x704 PUSH3 0xEAE JUMP JUMPDEST PUSH1 0x1 PUSH1 0x1 PUSH1 0xA0 SHL SUB SWAP1 DUP2 AND DUP4 MSTORE PUSH1 0x2 PUSH1 0x20 MSTORE DUP2 DUP4 KECCAK256 DUP1 SLOAD PUSH1 0x24 CALLDATALOAD SWAP5 SWAP1 DUP6 LT ISZERO PUSH3 0x4F6 JUMPI POP PUSH1 0x20 SWAP4 PUSH3 0x737 SWAP2 PUSH3 0xE5C JUMP JUMPDEST SWAP3 SWAP1 SLOAD SWAP1 MLOAD SWAP3 PUSH1 0x3 SHL SHR AND DUP2 MSTORE RETURN JUMPDEST SWAP1 POP CALLVALUE PUSH3 0x1CB JUMPI PUSH1 0x20 CALLDATASIZE PUSH1 0x3 NOT ADD SLT PUSH3 0x1CB JUMPI PUSH1 0x20 SWAP3 PUSH1 0xFF SWAP2 DUP4 SWAP2 SWAP1 PUSH1 0x1 PUSH1 0x1 PUSH1 0xA0 SHL SUB PUSH3 0x776 PUSH3 0xEAE JUMP JUMPDEST AND DUP3 MSTORE DUP6 MSTORE KECCAK256 SLOAD AND SWAP1 MLOAD SWAP1 ISZERO ISZERO DUP2 MSTORE RETURN JUMPDEST SWAP2 SWAP1 POP CALLVALUE PUSH3 0x1CB JUMPI PUSH1 0x60 CALLDATASIZE PUSH1 0x3 NOT ADD SLT PUSH3 0x1CB JUMPI PUSH3 0x7A7 PUSH3 0xEAE JUMP JUMPDEST SWAP1 PUSH3 0x7B2 PUSH3 0xEC5 JUMP JUMPDEST SWAP2 PUSH1 0x44 CALLDATALOAD PUSH8 0xFFFFFFFFFFFFFFFF DUP2 GT PUSH3 0x8AF JUMPI PUSH3 0x7D5 SWAP1 CALLDATASIZE SWAP1 DUP7 ADD PUSH3 0xE75 JUMP JUMPDEST PUSH3 0x7E2 SWAP6 SWAP2 SWAP6 PUSH3 0x135A JUMP JUMPDEST PUSH1 0x1 PUSH1 0x1 PUSH1 0xA0 SHL SUB SWAP1 PUSH3 0x7FA DUP7 DUP4 AND ISZERO ISZERO PUSH3 0x1055 JUMP JUMPDEST DUP8 DUP1 JUMPDEST DUP3 DUP2 LT PUSH3 0x809 JUMPI POP DUP1 RETURN JUMPDEST DUP4 PUSH3 0x821 PUSH3 0x81B DUP4 DUP7 DUP14 PUSH3 0xF5E JUMP JUMPDEST PUSH3 0xF6F JUMP JUMPDEST AND DUP3 MSTORE DUP5 PUSH1 0x20 MSTORE PUSH3 0x839 PUSH1 0xFF DUP9 DUP5 KECCAK256 SLOAD AND PUSH3 0xF84 JUMP JUMPDEST DUP4 PUSH3 0x84B PUSH3 0x81B DUP4 DUP7 DUP14 PUSH3 0xF5E JUMP JUMPDEST AND DUP1 EXTCODESIZE ISZERO PUSH3 0x1CB JUMPI DUP8 MLOAD PUSH4 0x3B708943 PUSH1 0xE1 SHL DUP2 MSTORE PUSH1 0x1 PUSH1 0x1 PUSH1 0xA0 SHL SUB DUP1 DUP10 AND DUP3 DUP10 ADD SWAP1 DUP2 MSTORE SWAP1 DUP12 AND PUSH1 0x20 DUP3 ADD MSTORE PUSH1 0x1 SWAP5 SWAP2 SWAP3 DUP4 SWAP2 DUP3 SWAP1 DUP5 SWAP1 DUP3 SWAP1 PUSH1 0x40 ADD SUB SWAP3 GAS CALL PUSH3 0x89D JUMPI JUMPDEST POP ADD DUP9 SWAP1 PUSH3 0x7FD JUMP JUMPDEST PUSH3 0x8A8 SWAP1 PUSH3 0xFD1 JUMP JUMPDEST CODESIZE PUSH3 0x893 JUMP JUMPDEST DUP6 DUP1 REVERT JUMPDEST POP POP CALLVALUE PUSH3 0x1CF JUMPI DUP2 PUSH1 0x3 NOT CALLDATASIZE ADD SLT PUSH3 0x1CF JUMPI PUSH1 0x20 SWAP1 PUSH1 0x5 SLOAD SWAP1 MLOAD SWAP1 DUP2 MSTORE RETURN JUMPDEST POP POP CALLVALUE PUSH3 0x1CF JUMPI DUP2 PUSH1 0x3 NOT CALLDATASIZE ADD SLT PUSH3 0x1CF JUMPI SWAP1 SLOAD SWAP1 MLOAD PUSH1 0x1 PUSH1 0x1 PUSH1 0xA0 SHL SUB SWAP1 SWAP2 AND DUP2 MSTORE PUSH1 0x20 SWAP1 RETURN JUMPDEST DUP4 CALLVALUE PUSH3 0x4F6 JUMPI DUP1 PUSH1 0x3 NOT CALLDATASIZE ADD SLT PUSH3 0x4F6 JUMPI PUSH3 0x91B PUSH3 0x135A JUMP JUMPDEST DUP1 SLOAD PUSH1 0x1 PUSH1 0x1 PUSH1 0xA0 SHL SUB NOT DUP2 AND DUP3 SSTORE DUP2 SWAP1 PUSH1 0x1 PUSH1 0x1 PUSH1 0xA0 SHL SUB AND PUSH32 0x8BE0079C531659141344CD1FD0A4F28419497F9722A3DAAFE3B4186F6B6457E0 DUP3 DUP1 LOG3 DUP1 RETURN JUMPDEST POP POP CALLVALUE PUSH3 0x1CF JUMPI DUP2 PUSH1 0x3 NOT CALLDATASIZE ADD SLT PUSH3 0x1CF JUMPI MLOAD PUSH32 0x0 PUSH1 0x1 PUSH1 0x1 PUSH1 0xA0 SHL SUB AND DUP2 MSTORE PUSH1 0x20 SWAP1 RETURN JUMPDEST POP POP CALLVALUE PUSH3 0x1CF JUMPI CALLDATASIZE PUSH1 0x3 NOT ADD SLT PUSH3 0x4F6 JUMPI PUSH3 0x4F3 PUSH3 0x9C3 PUSH3 0xEAE JUMP JUMPDEST PUSH3 0x9CD PUSH3 0xEC5 JUMP JUMPDEST SWAP1 PUSH3 0x9D8 PUSH3 0x135A JUMP JUMPDEST PUSH3 0x1097 JUMP JUMPDEST DUP3 DUP5 CALLVALUE PUSH3 0x4F6 JUMPI DUP1 PUSH1 0x3 NOT CALLDATASIZE ADD SLT PUSH3 0x4F6 JUMPI SWAP1 PUSH1 0x5 SLOAD PUSH3 0xA01 DUP2 PUSH3 0x103C JUMP JUMPDEST SWAP3 PUSH3 0xA10 DUP4 MLOAD SWAP5 DUP6 PUSH3 0x1019 JUMP JUMPDEST DUP2 DUP5 MSTORE PUSH1 0x5 DUP2 MSTORE PUSH1 0x20 SWAP4 DUP5 DUP2 ADD SWAP3 DUP3 PUSH32 0x36B6384B5ECA791C62761152D0C79BB0604C104A5FB6F4EB0703F3154BB3DB0 DUP6 JUMPDEST DUP4 DUP4 LT PUSH3 0xAA5 JUMPI POP POP POP POP DUP4 MLOAD SWAP5 DUP6 SWAP5 DUP2 DUP7 ADD SWAP3 DUP3 DUP8 MSTORE MLOAD DUP1 SWAP4 MSTORE DUP1 DUP7 ADD SWAP5 SWAP4 SWAP1 JUMPDEST DUP4 DUP3 LT PUSH3 0xA73 JUMPI DUP7 DUP7 SUB DUP8 RETURN JUMPDEST DUP5 MLOAD DUP1 MLOAD PUSH1 0x1 PUSH1 0x1 PUSH1 0xA0 SHL SUB SWAP1 DUP2 AND DUP9 MSTORE SWAP1 DUP5 ADD MLOAD AND DUP7 DUP5 ADD MSTORE DUP8 SWAP7 POP SWAP5 DUP6 ADD SWAP5 SWAP4 DUP3 ADD SWAP4 PUSH1 0x1 SWAP2 SWAP1 SWAP2 ADD SWAP1 PUSH3 0xA65 JUMP JUMPDEST PUSH1 0x2 DUP10 PUSH1 0x1 SWAP3 DUP11 SWAP12 SWAP9 SWAP8 SWAP10 SWAP11 MLOAD PUSH3 0xABD DUP2 PUSH3 0xFFC JUMP JUMPDEST DUP5 DUP1 PUSH1 0xA0 SHL SUB DUP1 DUP8 SLOAD AND DUP3 MSTORE DUP6 DUP8 ADD SLOAD AND DUP4 DUP3 ADD MSTORE DUP2 MSTORE ADD SWAP3 ADD SWAP3 ADD SWAP2 SWAP1 SWAP8 SWAP7 SWAP6 SWAP4 SWAP5 SWAP8 PUSH3 0xA42 JUMP JUMPDEST POP POP CALLVALUE PUSH3 0x1CF JUMPI PUSH1 0x20 CALLDATASIZE PUSH1 0x3 NOT ADD SLT PUSH3 0x1CF JUMPI PUSH1 0x20 SWAP2 PUSH1 0x1 PUSH1 0x1 PUSH1 0xA0 SHL SUB SWAP1 DUP3 SWAP1 DUP3 PUSH3 0xB15 PUSH3 0xEAE JUMP JUMPDEST AND DUP2 MSTORE PUSH1 0x3 DUP6 MSTORE KECCAK256 SLOAD AND SWAP1 MLOAD SWAP1 DUP2 MSTORE RETURN JUMPDEST SWAP1 POP CALLVALUE PUSH3 0x1CB JUMPI PUSH1 0x20 CALLDATASIZE PUSH1 0x3 NOT ADD SLT PUSH3 0x1CB JUMPI PUSH1 0x20 SWAP3 PUSH1 0x1 PUSH1 0x1 PUSH1 0xA0 SHL SUB SWAP2 DUP4 SWAP2 SWAP1 DUP4 PUSH3 0xB55 PUSH3 0xEAE JUMP JUMPDEST AND SWAP1 DUP2 DUP4 MSTORE DUP7 MSTORE PUSH3 0xB6D PUSH1 0xFF DUP5 DUP5 KECCAK256 SLOAD AND PUSH3 0xF84 JUMP JUMPDEST DUP2 MSTORE PUSH1 0x3 DUP6 MSTORE KECCAK256 SLOAD AND SWAP1 MLOAD SWAP1 DUP2 MSTORE RETURN JUMPDEST POP POP CALLVALUE PUSH3 0x1CF JUMPI DUP2 PUSH1 0x3 NOT CALLDATASIZE ADD SLT PUSH3 0x1CF JUMPI PUSH1 0x20 SWAP1 PUSH1 0x1 SLOAD SWAP1 MLOAD SWAP1 DUP2 MSTORE RETURN JUMPDEST DUP4 SWAP2 POP CALLVALUE PUSH3 0x1CF JUMPI PUSH1 0x20 CALLDATASIZE PUSH1 0x3 NOT ADD SLT PUSH3 0x1CF JUMPI CALLDATALOAD SWAP1 PUSH1 0x5 SLOAD DUP3 LT ISZERO PUSH3 0x4F6 JUMPI POP PUSH3 0xBCD SWAP1 PUSH3 0xEDC JUMP JUMPDEST POP DUP1 SLOAD PUSH1 0x1 SWAP1 SWAP2 ADD SLOAD SWAP2 MLOAD PUSH1 0x1 PUSH1 0x1 PUSH1 0xA0 SHL SUB SWAP2 DUP3 AND DUP2 MSTORE SWAP2 AND PUSH1 0x20 DUP3 ADD MSTORE PUSH1 0x40 SWAP1 RETURN JUMPDEST SWAP2 SWAP1 POP CALLVALUE PUSH3 0x1CB JUMPI DUP1 PUSH1 0x3 NOT CALLDATASIZE ADD SLT PUSH3 0x1CB JUMPI PUSH3 0xC10 PUSH3 0xEAE JUMP JUMPDEST SWAP1 PUSH1 0x24 SWAP1 PUSH1 0x24 CALLDATALOAD PUSH8 0xFFFFFFFFFFFFFFFF DUP2 GT PUSH3 0x8AF JUMPI PUSH3 0xC36 SWAP1 CALLDATASIZE SWAP1 DUP7 ADD PUSH3 0xE75 JUMP JUMPDEST SWAP2 SWAP1 SWAP4 PUSH3 0xC43 PUSH3 0x135A JUMP JUMPDEST PUSH1 0x1 PUSH1 0x1 PUSH1 0xA0 SHL SUB SWAP1 DUP2 AND SWAP3 DUP4 ISZERO PUSH3 0xCF6 JUMPI DUP8 DUP1 JUMPDEST DUP3 DUP2 LT PUSH3 0xC65 JUMPI POP DUP1 RETURN JUMPDEST DUP4 PUSH3 0xC77 PUSH3 0x81B DUP4 DUP7 DUP13 PUSH3 0xF5E JUMP JUMPDEST AND DUP3 MSTORE DUP9 PUSH1 0x20 MSTORE PUSH3 0xC8F PUSH1 0xFF DUP7 DUP5 KECCAK256 SLOAD AND PUSH3 0xF84 JUMP JUMPDEST DUP4 PUSH3 0xCA1 PUSH3 0x81B DUP4 DUP7 DUP13 PUSH3 0xF5E JUMP JUMPDEST AND DUP1 EXTCODESIZE ISZERO PUSH3 0x1CB JUMPI DUP3 DUP8 PUSH1 0x64 DUP13 PUSH1 0x1 SWAP7 DUP13 SWAP6 DUP12 DUP1 MLOAD SWAP8 DUP9 SWAP7 DUP8 SWAP6 PUSH4 0x278F7943 PUSH1 0xE1 SHL DUP8 MSTORE DUP7 ADD MSTORE DUP5 ADD MSTORE DUP2 PUSH1 0x44 DUP5 ADD MSTORE GAS CALL PUSH3 0xCE4 JUMPI JUMPDEST POP ADD DUP9 SWAP1 PUSH3 0xC59 JUMP JUMPDEST PUSH3 0xCEF SWAP1 PUSH3 0xFD1 JUMP JUMPDEST CODESIZE PUSH3 0xCDA JUMP JUMPDEST DUP3 MLOAD PUSH3 0x461BCD PUSH1 0xE5 SHL DUP2 MSTORE PUSH1 0x20 DUP2 DUP10 ADD MSTORE PUSH1 0x16 PUSH1 0x24 DUP3 ADD MSTORE PUSH22 0x24B73B30B634B21034B6B83632B6B2B73A30BA34B7B7 PUSH1 0x51 SHL PUSH1 0x44 DUP3 ADD MSTORE PUSH1 0x64 SWAP1 REVERT JUMPDEST SWAP2 SWAP1 POP CALLVALUE PUSH3 0x1CB JUMPI PUSH1 0x20 SWAP2 PUSH1 0x20 PUSH1 0x3 NOT CALLDATASIZE ADD SLT PUSH3 0xDC4 JUMPI DUP1 CALLDATALOAD PUSH8 0xFFFFFFFFFFFFFFFF DUP2 GT PUSH3 0xDC0 JUMPI PUSH3 0xD6C SWAP1 CALLDATASIZE SWAP1 DUP4 ADD PUSH3 0xE75 JUMP JUMPDEST SWAP4 SWAP1 PUSH3 0xD78 PUSH3 0x135A JUMP JUMPDEST DUP6 JUMPDEST DUP6 DUP2 LT PUSH3 0xD86 JUMPI DUP7 DUP1 RETURN JUMPDEST PUSH1 0x1 SWAP1 PUSH1 0x1 PUSH1 0x1 PUSH1 0xA0 SHL SUB PUSH3 0xDA2 PUSH3 0x81B DUP4 DUP11 DUP8 PUSH3 0xF5E JUMP JUMPDEST AND DUP9 MSTORE DUP5 DUP5 MSTORE PUSH3 0xDB9 PUSH1 0xFF DUP8 DUP11 KECCAK256 SLOAD AND PUSH3 0xF84 JUMP JUMPDEST ADD PUSH3 0xD7A JUMP JUMPDEST DUP5 DUP1 REVERT JUMPDEST DUP4 DUP1 REVERT JUMPDEST SWAP1 POP CALLVALUE PUSH3 0x1CB JUMPI PUSH1 0x20 CALLDATASIZE PUSH1 0x3 NOT ADD SLT PUSH3 0x1CB JUMPI CALLDATALOAD SWAP2 PUSH1 0x1 SLOAD DUP4 LT ISZERO PUSH3 0x4F6 JUMPI POP PUSH3 0xDF8 PUSH1 0x20 SWAP3 PUSH3 0xE0E JUMP JUMPDEST SWAP1 SLOAD SWAP2 MLOAD SWAP2 PUSH1 0x1 DUP1 PUSH1 0xA0 SHL SUB SWAP2 PUSH1 0x3 SHL SHR AND DUP2 MSTORE RETURN JUMPDEST PUSH1 0x1 SLOAD DUP2 LT ISZERO PUSH3 0xE46 JUMPI PUSH1 0x1 PUSH1 0x0 MSTORE PUSH32 0xB10E2D527612073B26EECDFD717E6A320CF44B4AFAC2B0732D9FCBE2B7FA0CF6 ADD SWAP1 PUSH1 0x0 SWAP1 JUMP JUMPDEST PUSH4 0x4E487B71 PUSH1 0xE0 SHL PUSH1 0x0 MSTORE PUSH1 0x32 PUSH1 0x4 MSTORE PUSH1 0x24 PUSH1 0x0 REVERT JUMPDEST DUP1 SLOAD DUP3 LT ISZERO PUSH3 0xE46 JUMPI PUSH1 0x0 MSTORE PUSH1 0x20 PUSH1 0x0 KECCAK256 ADD SWAP1 PUSH1 0x0 SWAP1 JUMP JUMPDEST SWAP2 DUP2 PUSH1 0x1F DUP5 ADD SLT ISZERO PUSH3 0xEA9 JUMPI DUP3 CALLDATALOAD SWAP2 PUSH8 0xFFFFFFFFFFFFFFFF DUP4 GT PUSH3 0xEA9 JUMPI PUSH1 0x20 DUP1 DUP6 ADD SWAP5 DUP5 PUSH1 0x5 SHL ADD ADD GT PUSH3 0xEA9 JUMPI JUMP JUMPDEST PUSH1 0x0 DUP1 REVERT JUMPDEST PUSH1 0x4 CALLDATALOAD SWAP1 PUSH1 0x1 PUSH1 0x1 PUSH1 0xA0 SHL SUB DUP3 AND DUP3 SUB PUSH3 0xEA9 JUMPI JUMP JUMPDEST PUSH1 0x24 CALLDATALOAD SWAP1 PUSH1 0x1 PUSH1 0x1 PUSH1 0xA0 SHL SUB DUP3 AND DUP3 SUB PUSH3 0xEA9 JUMPI JUMP JUMPDEST PUSH1 0x5 SLOAD DUP2 LT ISZERO PUSH3 0xE46 JUMPI PUSH1 0x5 PUSH1 0x0 MSTORE PUSH1 0x1 SHL PUSH32 0x36B6384B5ECA791C62761152D0C79BB0604C104A5FB6F4EB0703F3154BB3DB0 ADD SWAP1 PUSH1 0x0 SWAP1 JUMP JUMPDEST PUSH1 0x20 SWAP1 PUSH1 0x20 PUSH1 0x40 DUP2 DUP4 ADD SWAP3 DUP3 DUP2 MSTORE DUP6 MLOAD DUP1 SWAP5 MSTORE ADD SWAP4 ADD SWAP2 PUSH1 0x0 JUMPDEST DUP3 DUP2 LT PUSH3 0xF40 JUMPI POP POP POP POP SWAP1 JUMP JUMPDEST DUP4 MLOAD PUSH1 0x1 PUSH1 0x1 PUSH1 0xA0 SHL SUB AND DUP6 MSTORE SWAP4 DUP2 ADD SWAP4 SWAP3 DUP2 ADD SWAP3 PUSH1 0x1 ADD PUSH3 0xF31 JUMP JUMPDEST SWAP2 SWAP1 DUP2 LT ISZERO PUSH3 0xE46 JUMPI PUSH1 0x5 SHL ADD SWAP1 JUMP JUMPDEST CALLDATALOAD PUSH1 0x1 PUSH1 0x1 PUSH1 0xA0 SHL SUB DUP2 AND DUP2 SUB PUSH3 0xEA9 JUMPI SWAP1 JUMP JUMPDEST ISZERO PUSH3 0xF8C JUMPI JUMP JUMPDEST PUSH1 0x40 MLOAD PUSH3 0x461BCD PUSH1 0xE5 SHL DUP2 MSTORE PUSH1 0x20 PUSH1 0x4 DUP3 ADD MSTORE PUSH1 0x1C PUSH1 0x24 DUP3 ADD MSTORE PUSH32 0x4E6F7420612076616C69642061756374696F6E20706C6174666F726D00000000 PUSH1 0x44 DUP3 ADD MSTORE PUSH1 0x64 SWAP1 REVERT JUMPDEST PUSH8 0xFFFFFFFFFFFFFFFF DUP2 GT PUSH3 0xFE6 JUMPI PUSH1 0x40 MSTORE JUMP JUMPDEST PUSH4 0x4E487B71 PUSH1 0xE0 SHL PUSH1 0x0 MSTORE PUSH1 0x41 PUSH1 0x4 MSTORE PUSH1 0x24 PUSH1 0x0 REVERT JUMPDEST PUSH1 0x40 DUP2 ADD SWAP1 DUP2 LT PUSH8 0xFFFFFFFFFFFFFFFF DUP3 GT OR PUSH3 0xFE6 JUMPI PUSH1 0x40 MSTORE JUMP JUMPDEST SWAP1 PUSH1 0x1F DUP1 NOT SWAP2 ADD AND DUP2 ADD SWAP1 DUP2 LT PUSH8 0xFFFFFFFFFFFFFFFF DUP3 GT OR PUSH3 0xFE6 JUMPI PUSH1 0x40 MSTORE JUMP JUMPDEST PUSH8 0xFFFFFFFFFFFFFFFF DUP2 GT PUSH3 0xFE6 JUMPI PUSH1 0x5 SHL PUSH1 0x20 ADD SWAP1 JUMP JUMPDEST ISZERO PUSH3 0x105D JUMPI JUMP JUMPDEST PUSH1 0x40 MLOAD PUSH3 0x461BCD PUSH1 0xE5 SHL DUP2 MSTORE PUSH1 0x20 PUSH1 0x4 DUP3 ADD MSTORE PUSH1 0x12 PUSH1 0x24 DUP3 ADD MSTORE PUSH18 0x125B9D985B1A59081C1C9A58D94819995959 PUSH1 0x72 SHL PUSH1 0x44 DUP3 ADD MSTORE PUSH1 0x64 SWAP1 REVERT JUMPDEST PUSH1 0x1 PUSH1 0x1 PUSH1 0xA0 SHL SUB SWAP2 DUP3 AND SWAP1 PUSH3 0x10B0 DUP3 ISZERO ISZERO PUSH3 0x1055 JUMP JUMPDEST PUSH1 0x0 JUMPDEST PUSH1 0x5 SLOAD DUP2 LT ISZERO PUSH3 0x112D JUMPI DUP4 PUSH3 0x10CA DUP3 PUSH3 0xEDC JUMP JUMPDEST POP SLOAD AND DUP5 DUP4 AND DUP1 SWAP2 EQ PUSH3 0x10E2 JUMPI POP PUSH1 0x1 ADD PUSH3 0x10B3 JUMP JUMPDEST SWAP3 SWAP4 POP PUSH1 0x1 SWAP2 POP PUSH3 0x10F4 SWAP1 PUSH3 0xEDC JUMP JUMPDEST POP ADD DUP1 SLOAD PUSH1 0x1 PUSH1 0x1 PUSH1 0xA0 SHL SUB NOT AND DUP4 OR SWAP1 SSTORE PUSH32 0x670D28C95E308414A856C5AA97743A7C7BFC9D03DC9A05EA9FFFFDC98275100B PUSH1 0x0 DUP1 LOG3 JUMP JUMPDEST POP SWAP1 SWAP2 DUP1 PUSH1 0x40 MLOAD SWAP3 PUSH3 0x1140 DUP5 PUSH3 0xFFC JUMP JUMPDEST AND SWAP2 DUP3 DUP2 MSTORE PUSH1 0x20 DUP2 ADD SWAP2 DUP5 DUP4 MSTORE PUSH1 0x5 SLOAD PUSH1 0x1 PUSH1 0x40 SHL DUP2 LT ISZERO PUSH3 0xFE6 JUMPI DUP1 PUSH1 0x1 PUSH3 0x116F SWAP3 ADD PUSH1 0x5 SSTORE PUSH3 0xEDC JUMP JUMPDEST SWAP3 SWAP1 SWAP3 PUSH3 0x11C8 JUMPI DUP2 PUSH1 0x1 SWAP2 MLOAD AND SWAP3 PUSH12 0xFFFFFFFFFFFFFFFFFFFFFFFF PUSH1 0xA0 SHL SWAP4 DUP5 DUP3 SLOAD AND OR DUP2 SSTORE ADD SWAP3 MLOAD AND SWAP1 DUP3 SLOAD AND OR SWAP1 SSTORE PUSH32 0x670D28C95E308414A856C5AA97743A7C7BFC9D03DC9A05EA9FFFFDC98275100B PUSH1 0x0 DUP1 LOG3 JUMP JUMPDEST PUSH4 0x4E487B71 PUSH1 0xE0 SHL PUSH1 0x0 MSTORE PUSH1 0x0 PUSH1 0x4 MSTORE PUSH1 0x24 PUSH1 0x0 REVERT JUMPDEST SWAP2 SWAP1 DUP3 SUB SWAP2 DUP3 GT PUSH3 0x11EC JUMPI JUMP JUMPDEST PUSH4 0x4E487B71 PUSH1 0xE0 SHL PUSH1 0x0 MSTORE PUSH1 0x11 PUSH1 0x4 MSTORE PUSH1 0x24 PUSH1 0x0 REVERT JUMPDEST PUSH1 0x0 SWAP1 JUMPDEST PUSH1 0x5 SWAP2 DUP3 SLOAD SWAP3 DUP4 DUP3 LT ISZERO PUSH3 0x131E JUMPI PUSH3 0x1220 DUP3 PUSH3 0xEDC JUMP JUMPDEST POP SLOAD PUSH1 0x1 PUSH1 0x1 PUSH1 0xA0 SHL SUB DUP5 DUP2 AND SWAP6 SWAP2 DUP2 AND DUP7 EQ PUSH3 0x1246 JUMPI POP POP POP PUSH1 0x1 ADD SWAP2 POP PUSH3 0x1206 JUMP JUMPDEST SWAP2 SWAP4 POP PUSH1 0x0 NOT SWAP3 SWAP2 SWAP1 DUP4 DUP2 ADD SWAP1 DUP2 GT PUSH3 0x11EC JUMPI PUSH3 0x1269 PUSH3 0x1271 SWAP2 PUSH3 0xEDC JUMP JUMPDEST POP SWAP3 PUSH3 0xEDC JUMP JUMPDEST SWAP2 SWAP1 SWAP2 PUSH3 0x11C8 JUMPI DUP3 DUP3 SUB PUSH3 0x12E8 JUMPI JUMPDEST POP POP POP DUP2 SLOAD DUP1 ISZERO PUSH3 0x12D2 JUMPI ADD SWAP1 PUSH3 0x129B DUP3 PUSH3 0xEDC JUMP JUMPDEST PUSH3 0x11C8 JUMPI PUSH1 0x1 DUP2 PUSH1 0x0 DUP1 SWAP4 SSTORE ADD SSTORE SSTORE PUSH32 0x905E9D1898E23231337CEF55CDD51330AB685518F8B18378DA4C22772D7F35D0 PUSH1 0x0 DUP1 LOG2 JUMP JUMPDEST PUSH4 0x4E487B71 PUSH1 0xE0 SHL PUSH1 0x0 MSTORE PUSH1 0x31 PUSH1 0x4 MSTORE PUSH1 0x24 PUSH1 0x0 REVERT JUMPDEST DUP1 DUP4 SLOAD AND SWAP2 PUSH12 0xFFFFFFFFFFFFFFFFFFFFFFFF PUSH1 0xA0 SHL SWAP3 DUP4 DUP3 SLOAD AND OR DUP2 SSTORE PUSH1 0x1 DUP1 SWAP2 ADD SWAP4 ADD SLOAD AND SWAP1 DUP3 SLOAD AND OR SWAP1 SSTORE CODESIZE DUP1 DUP1 PUSH3 0x1282 JUMP JUMPDEST PUSH1 0x40 MLOAD PUSH3 0x461BCD PUSH1 0xE5 SHL DUP2 MSTORE PUSH1 0x20 PUSH1 0x4 DUP3 ADD MSTORE PUSH1 0x14 PUSH1 0x24 DUP3 ADD MSTORE PUSH20 0x141C9A58D94819995959081B9BDD08199BDD5B99 PUSH1 0x62 SHL PUSH1 0x44 DUP3 ADD MSTORE PUSH1 0x64 SWAP1 REVERT JUMPDEST PUSH1 0x0 SLOAD PUSH1 0x1 PUSH1 0x1 PUSH1 0xA0 SHL SUB AND CALLER SUB PUSH3 0x136F JUMPI JUMP JUMPDEST PUSH1 0x40 MLOAD PUSH4 0x118CDAA7 PUSH1 0xE0 SHL DUP2 MSTORE CALLER PUSH1 0x4 DUP3 ADD MSTORE PUSH1 0x24 SWAP1 REVERT INVALID PUSH1 0x80 PUSH1 0x40 MSTORE PUSH2 0x2D3 DUP1 CODESIZE SUB DUP1 PUSH2 0x14 DUP2 PUSH2 0x194 JUMP JUMPDEST SWAP3 DUP4 CODECOPY DUP2 ADD SWAP1 PUSH1 0x40 DUP2 DUP4 SUB SLT PUSH2 0x18F JUMPI DUP1 MLOAD PUSH1 0x1 PUSH1 0x1 PUSH1 0xA0 SHL SUB DUP2 AND DUP1 DUP3 SUB PUSH2 0x18F JUMPI PUSH1 0x20 DUP4 DUP2 ADD MLOAD SWAP1 SWAP4 PUSH1 0x1 PUSH1 0x1 PUSH1 0x40 SHL SUB DUP3 GT PUSH2 0x18F JUMPI ADD DUP5 PUSH1 0x1F DUP3 ADD SLT ISZERO PUSH2 0x18F JUMPI DUP1 MLOAD SWAP1 PUSH2 0x6D PUSH2 0x68 DUP4 PUSH2 0x1CF JUMP JUMPDEST PUSH2 0x194 JUMP JUMPDEST SWAP6 DUP3 DUP8 MSTORE DUP6 DUP4 DUP4 ADD ADD GT PUSH2 0x18F JUMPI DUP5 SWAP1 PUSH1 0x0 JUMPDEST DUP4 DUP2 LT PUSH2 0x17B JUMPI POP POP PUSH1 0x0 SWAP2 DUP7 ADD ADD MSTORE DUP2 EXTCODESIZE ISZERO PUSH2 0x163 JUMPI PUSH32 0x360894A13BA1A3210667C828492DB98DCA3E2076CC3735A920A3CA505D382BBC DUP1 SLOAD PUSH1 0x1 PUSH1 0x1 PUSH1 0xA0 SHL SUB NOT AND DUP3 OR SWAP1 SSTORE PUSH1 0x40 MLOAD SWAP1 PUSH32 0xBC7CD75A20EE27FD9ADEBAB32041F755214DBC6BFFA90CC0225B39DA2E5C2D3B PUSH1 0x0 DUP1 LOG2 DUP4 MLOAD ISZERO PUSH2 0x145 JUMPI POP PUSH1 0x0 DUP1 DUP5 DUP5 PUSH2 0x12C SWAP7 MLOAD SWAP2 ADD DUP5 GAS DELEGATECALL SWAP1 RETURNDATASIZE ISZERO PUSH2 0x13C JUMPI RETURNDATASIZE PUSH2 0x11C PUSH2 0x68 DUP3 PUSH2 0x1CF JUMP JUMPDEST SWAP1 DUP2 MSTORE PUSH1 0x0 DUP2 SWAP5 RETURNDATASIZE SWAP3 ADD RETURNDATACOPY PUSH2 0x1EA JUMP JUMPDEST POP JUMPDEST PUSH1 0x40 MLOAD PUSH1 0x85 SWAP1 DUP2 PUSH2 0x24E DUP3 CODECOPY RETURN JUMPDEST PUSH1 0x60 SWAP3 POP PUSH2 0x1EA JUMP JUMPDEST SWAP3 POP POP POP CALLVALUE PUSH2 0x154 JUMPI POP PUSH2 0x12E JUMP JUMPDEST PUSH4 0xB398979F PUSH1 0xE0 SHL DUP2 MSTORE PUSH1 0x4 SWAP1 REVERT JUMPDEST PUSH1 0x24 SWAP1 PUSH1 0x40 MLOAD SWAP1 PUSH4 0x4C9C8CE3 PUSH1 0xE0 SHL DUP3 MSTORE PUSH1 0x4 DUP3 ADD MSTORE REVERT JUMPDEST DUP2 DUP2 ADD DUP4 ADD MLOAD DUP9 DUP3 ADD DUP5 ADD MSTORE DUP7 SWAP3 ADD PUSH2 0x80 JUMP JUMPDEST PUSH1 0x0 DUP1 REVERT JUMPDEST PUSH1 0x40 MLOAD SWAP2 SWAP1 PUSH1 0x1F ADD PUSH1 0x1F NOT AND DUP3 ADD PUSH1 0x1 PUSH1 0x1 PUSH1 0x40 SHL SUB DUP2 GT DUP4 DUP3 LT OR PUSH2 0x1B9 JUMPI PUSH1 0x40 MSTORE JUMP JUMPDEST PUSH4 0x4E487B71 PUSH1 0xE0 SHL PUSH1 0x0 MSTORE PUSH1 0x41 PUSH1 0x4 MSTORE PUSH1 0x24 PUSH1 0x0 REVERT JUMPDEST PUSH1 0x1 PUSH1 0x1 PUSH1 0x40 SHL SUB DUP2 GT PUSH2 0x1B9 JUMPI PUSH1 0x1F ADD PUSH1 0x1F NOT AND PUSH1 0x20 ADD SWAP1 JUMP JUMPDEST SWAP1 PUSH2 0x211 JUMPI POP DUP1 MLOAD ISZERO PUSH2 0x1FF JUMPI PUSH1 0x20 DUP2 MLOAD SWAP2 ADD REVERT JUMPDEST PUSH1 0x40 MLOAD PUSH4 0xD6BDA275 PUSH1 0xE0 SHL DUP2 MSTORE PUSH1 0x4 SWAP1 REVERT JUMPDEST DUP2 MLOAD ISZERO DUP1 PUSH2 0x244 JUMPI JUMPDEST PUSH2 0x222 JUMPI POP SWAP1 JUMP JUMPDEST PUSH1 0x40 MLOAD PUSH4 0x9996B315 PUSH1 0xE0 SHL DUP2 MSTORE PUSH1 0x1 PUSH1 0x1 PUSH1 0xA0 SHL SUB SWAP1 SWAP2 AND PUSH1 0x4 DUP3 ADD MSTORE PUSH1 0x24 SWAP1 REVERT JUMPDEST POP DUP1 EXTCODESIZE ISZERO PUSH2 0x21A JUMP INVALID PUSH1 0x80 PUSH1 0x40 MSTORE PUSH32 0x360894A13BA1A3210667C828492DB98DCA3E2076CC3735A920A3CA505D382BBC SLOAD PUSH1 0x0 SWAP1 DUP2 SWAP1 DUP2 SWAP1 PUSH1 0x1 PUSH1 0x1 PUSH1 0xA0 SHL SUB AND CALLDATASIZE DUP3 DUP1 CALLDATACOPY DUP2 CALLDATASIZE SWAP2 GAS DELEGATECALL RETURNDATASIZE DUP3 DUP1 RETURNDATACOPY ISZERO PUSH1 0x4B JUMPI RETURNDATASIZE SWAP1 RETURN JUMPDEST RETURNDATASIZE SWAP1 REVERT INVALID LOG2 PUSH5 0x6970667358 0x22 SLT KECCAK256 LOG2 0xE1 RETURNDATACOPY MSIZE DUP16 GAS 0xAC 0xB2 0xB5 DELEGATECALL 0x4B 0x25 CREATE2 CALLDATACOPY CALLCODE 0x25 MOD 0xC5 DUP1 0x21 0xD PC DUP15 0xF 0x5D 0xCA CALLDATACOPY 0xAD 0xC 0x5D PUSH24 0xCB64736F6C63430008160033A26469706673582212201B5C CALLCODE CODESIZE KECCAK256 SLOAD 0xE6 JUMPDEST PUSH25 0xCC0B80756FF4937F35384AAE6DAAF310E833C8EBECE6566473 PUSH16 0x6C6343000816003360A0806040523461 STOP 0xCC JUMPI ADDRESS PUSH1 0x80 MSTORE PUSH32 0xF0C57E16840DF040F15088DC2F81FE391C3923BEC73E23A9662EFC9C229C6A00 SWAP1 DUP2 SLOAD SWAP1 PUSH1 0xFF DUP3 PUSH1 0x40 SHR AND PUSH2 0xBD JUMPI POP PUSH1 0x1 PUSH1 0x1 PUSH1 0x40 SHL SUB PUSH1 0x2 PUSH1 0x1 PUSH1 0x40 SHL SUB NOT DUP3 DUP3 AND ADD PUSH2 0x78 JUMPI JUMPDEST PUSH1 0x40 MLOAD PUSH2 0x29FE SWAP1 DUP2 PUSH2 0xD2 DUP3 CODECOPY PUSH1 0x80 MLOAD DUP2 DUP2 DUP2 PUSH2 0x131A ADD MSTORE PUSH2 0x1400 ADD MSTORE RETURN JUMPDEST PUSH1 0x1 PUSH1 0x1 PUSH1 0x40 SHL SUB NOT SWAP1 SWAP2 AND DUP2 OR SWAP1 SWAP2 SSTORE PUSH1 0x40 MLOAD SWAP1 DUP2 MSTORE PUSH32 0xC7F505B2F371AE2175EE4913F4499E1F2633A7B5936321EED1CDAEB6115181D2 SWAP1 PUSH1 0x20 SWAP1 LOG1 CODESIZE DUP1 DUP1 PUSH2 0x59 JUMP JUMPDEST PUSH4 0xF92EE8A9 PUSH1 0xE0 SHL DUP2 MSTORE PUSH1 0x4 SWAP1 REVERT JUMPDEST PUSH1 0x0 DUP1 REVERT INVALID PUSH1 0x80 DUP1 PUSH1 0x40 MSTORE PUSH1 0x4 CALLDATASIZE LT ISZERO PUSH2 0x13 JUMPI PUSH1 0x0 DUP1 REVERT JUMPDEST PUSH1 0x0 SWAP1 DUP2 CALLDATALOAD PUSH1 0xE0 SHR SWAP1 DUP2 PUSH4 0x150B7A02 EQ PUSH2 0x20F9 JUMPI POP DUP1 PUSH4 0x2184630E EQ PUSH2 0x1BB5 JUMPI DUP1 PUSH4 0x2AE11CA8 EQ PUSH2 0x1AB5 JUMPI DUP1 PUSH4 0x3FB35178 EQ PUSH2 0x1A97 JUMPI DUP1 PUSH4 0x46904840 EQ PUSH2 0x1A6E JUMPI DUP1 PUSH4 0x4A5E0051 EQ PUSH2 0x15B8 JUMPI DUP1 PUSH4 0x4F1EF286 EQ PUSH2 0x1384 JUMPI DUP1 PUSH4 0x52D1902D EQ PUSH2 0x1307 JUMPI DUP1 PUSH4 0x571A26A0 EQ PUSH2 0x124C JUMPI DUP1 PUSH4 0x6CE0572E EQ PUSH2 0xE11 JUMPI DUP1 PUSH4 0x715018A6 EQ PUSH2 0x11E1 JUMPI DUP1 PUSH4 0x76E11286 EQ PUSH2 0x1167 JUMPI DUP1 PUSH4 0x78BD7935 EQ PUSH2 0x1060 JUMPI DUP1 PUSH4 0x7F0EBB03 EQ PUSH2 0x1020 JUMPI DUP1 PUSH4 0x8129FC1C EQ PUSH2 0xEAD JUMPI DUP1 PUSH4 0x8CD42991 EQ PUSH2 0xE8E JUMPI DUP1 PUSH4 0x8DA5CB5B EQ PUSH2 0xE58 JUMPI DUP1 PUSH4 0x91DAD307 EQ PUSH2 0xE11 JUMPI DUP1 PUSH4 0x927FEF2E EQ PUSH2 0xDAC JUMPI DUP1 PUSH4 0x9BFD3B38 EQ PUSH2 0x896 JUMPI DUP1 PUSH4 0x9DCB511A EQ PUSH2 0x85B JUMPI DUP1 PUSH4 0xAD3CB1CC EQ PUSH2 0x7B5 JUMPI DUP1 PUSH4 0xB3E26566 EQ PUSH2 0x78C JUMPI DUP1 PUSH4 0xB9A2DE3A EQ PUSH2 0x323 JUMPI DUP1 PUSH4 0xC2F50A7A EQ PUSH2 0x306 JUMPI DUP1 PUSH4 0xE71F7B15 EQ PUSH2 0x28F JUMPI DUP1 PUSH4 0xE74B981B EQ PUSH2 0x211 JUMPI DUP1 PUSH4 0xEECA08F0 EQ PUSH2 0x1F3 JUMPI DUP1 PUSH4 0xF2FDE38B EQ PUSH2 0x1C6 JUMPI DUP1 PUSH4 0xFC528482 EQ PUSH2 0x1A8 JUMPI PUSH4 0xFC927400 EQ PUSH2 0x176 JUMPI PUSH1 0x0 DUP1 REVERT JUMPDEST CALLVALUE PUSH2 0x1A5 JUMPI PUSH1 0x40 CALLDATASIZE PUSH1 0x3 NOT ADD SLT PUSH2 0x1A5 JUMPI PUSH1 0x20 PUSH2 0x19D PUSH2 0x194 PUSH2 0x2166 JUMP JUMPDEST PUSH1 0x24 CALLDATALOAD SWAP1 PUSH2 0x249D JUMP JUMPDEST PUSH1 0x40 MLOAD SWAP1 DUP2 MSTORE RETURN JUMPDEST DUP1 REVERT JUMPDEST POP CALLVALUE PUSH2 0x1A5 JUMPI DUP1 PUSH1 0x3 NOT CALLDATASIZE ADD SLT PUSH2 0x1A5 JUMPI PUSH1 0x20 PUSH1 0x3 SLOAD PUSH1 0x40 MLOAD SWAP1 DUP2 MSTORE RETURN JUMPDEST POP CALLVALUE PUSH2 0x1A5 JUMPI PUSH1 0x20 CALLDATASIZE PUSH1 0x3 NOT ADD SLT PUSH2 0x1A5 JUMPI PUSH2 0x1F0 PUSH2 0x1E3 PUSH2 0x2166 JUMP JUMPDEST PUSH2 0x1EB PUSH2 0x26B6 JUMP JUMPDEST PUSH2 0x23DF JUMP JUMPDEST DUP1 RETURN JUMPDEST POP CALLVALUE PUSH2 0x1A5 JUMPI DUP1 PUSH1 0x3 NOT CALLDATASIZE ADD SLT PUSH2 0x1A5 JUMPI PUSH1 0x20 PUSH1 0x5 SLOAD PUSH1 0x40 MLOAD SWAP1 DUP2 MSTORE RETURN JUMPDEST POP CALLVALUE PUSH2 0x1A5 JUMPI PUSH1 0x20 CALLDATASIZE PUSH1 0x3 NOT ADD SLT PUSH2 0x1A5 JUMPI PUSH2 0x22B PUSH2 0x2166 JUMP JUMPDEST PUSH2 0x233 PUSH2 0x26B6 JUMP JUMPDEST PUSH1 0x1 PUSH1 0x1 PUSH1 0xA0 SHL SUB AND DUP1 ISZERO PUSH2 0x258 JUMPI PUSH1 0x1 PUSH1 0x1 PUSH1 0x60 SHL SUB PUSH1 0xA0 SHL PUSH1 0x6 SLOAD AND OR PUSH1 0x6 SSTORE DUP1 RETURN JUMPDEST PUSH1 0x40 MLOAD PUSH3 0x461BCD PUSH1 0xE5 SHL DUP2 MSTORE PUSH1 0x20 PUSH1 0x4 DUP3 ADD MSTORE PUSH1 0xF PUSH1 0x24 DUP3 ADD MSTORE PUSH15 0x496E76616C69642061646472657373 PUSH1 0x88 SHL PUSH1 0x44 DUP3 ADD MSTORE PUSH1 0x64 SWAP1 REVERT JUMPDEST POP CALLVALUE PUSH2 0x1A5 JUMPI PUSH1 0x20 CALLDATASIZE PUSH1 0x3 NOT ADD SLT PUSH2 0x1A5 JUMPI PUSH2 0x2B8 PUSH1 0x40 PUSH1 0x20 SWAP3 PUSH1 0x4 CALLDATALOAD DUP2 MSTORE PUSH1 0x2 DUP5 MSTORE KECCAK256 PUSH2 0x22A2 JUMP JUMPDEST PUSH1 0x80 DUP2 ADD MLOAD ISZERO SWAP1 DUP2 PUSH2 0x2EA JUMPI JUMPDEST DUP2 PUSH2 0x2D6 JUMPI JUMPDEST POP PUSH1 0x40 MLOAD SWAP1 ISZERO ISZERO DUP2 MSTORE RETURN JUMPDEST MLOAD PUSH1 0x1 PUSH1 0x1 PUSH1 0xA0 SHL SUB AND ISZERO ISZERO SWAP1 POP CODESIZE PUSH2 0x2CB JUMP JUMPDEST SWAP1 POP PUSH2 0x2FE PUSH1 0x60 DUP3 ADD MLOAD DUP4 DUP4 ADD MLOAD SWAP1 PUSH2 0x233C JUMP JUMPDEST TIMESTAMP LT SWAP1 PUSH2 0x2C5 JUMP JUMPDEST POP CALLVALUE PUSH2 0x1A5 JUMPI DUP1 PUSH1 0x3 NOT CALLDATASIZE ADD SLT PUSH2 0x1A5 JUMPI PUSH1 0x20 PUSH1 0x40 MLOAD PUSH2 0xE10 DUP2 MSTORE RETURN JUMPDEST POP CALLVALUE PUSH2 0x1A5 JUMPI PUSH1 0x20 DUP1 PUSH1 0x3 NOT CALLDATASIZE ADD SLT PUSH2 0x63A JUMPI PUSH1 0x4 CALLDATALOAD PUSH2 0x341 PUSH2 0x2686 JUMP JUMPDEST DUP1 DUP4 MSTORE PUSH1 0x2 DUP3 MSTORE PUSH1 0x40 DUP4 KECCAK256 DUP1 SLOAD PUSH1 0x1 PUSH1 0x1 PUSH1 0xA0 SHL SUB SWAP4 SWAP1 DUP5 AND SWAP2 SWAP1 PUSH2 0x367 DUP4 ISZERO ISZERO PUSH2 0x2219 JUMP JUMPDEST PUSH1 0x4 DUP3 ADD SWAP3 DUP4 SLOAD SWAP1 PUSH2 0x37C PUSH1 0xFF DUP4 AND ISZERO PUSH2 0x225E JUMP JUMPDEST PUSH2 0x38F PUSH1 0x3 DUP6 ADD SLOAD PUSH1 0x1 DUP7 ADD SLOAD SWAP1 PUSH2 0x233C JUMP JUMPDEST TIMESTAMP LT SWAP1 DUP2 ISZERO SWAP2 PUSH2 0x782 JUMPI JUMPDEST POP ISZERO PUSH2 0x745 JUMPI PUSH1 0xFF NOT AND PUSH1 0x1 OR DUP1 DUP5 SSTORE PUSH1 0x8 SHR DUP6 AND ISZERO ISZERO DUP1 PUSH2 0x733 JUMPI JUMPDEST ISZERO PUSH2 0x64D JUMPI PUSH2 0x3C5 DUP3 PUSH2 0x22A2 JUMP JUMPDEST PUSH2 0x140 DUP2 ADD MLOAD DUP8 PUSH2 0x3E6 PUSH2 0x2710 PUSH2 0x3DE PUSH1 0x5 SLOAD DUP6 PUSH2 0x246A JUMP JUMPDEST DIV DUP1 SWAP4 PUSH2 0x2349 JUMP JUMPDEST DUP9 PUSH1 0xE0 DUP6 ADD MLOAD AND SWAP4 DUP10 PUSH1 0xA0 DUP3 ADD MLOAD AND PUSH2 0x100 DUP3 ADD MLOAD DUP7 EXTCODESIZE ISZERO PUSH2 0x649 JUMPI PUSH1 0x40 MLOAD PUSH4 0x21421707 PUSH1 0xE1 SHL DUP2 MSTORE ADDRESS PUSH1 0x4 DUP3 ADD MSTORE PUSH1 0x1 PUSH1 0x1 PUSH1 0xA0 SHL SUB SWAP3 SWAP1 SWAP3 AND PUSH1 0x24 DUP4 ADD MSTORE PUSH1 0x44 DUP3 ADD MSTORE SWAP5 DUP4 SWAP1 DUP7 SWAP1 PUSH1 0x64 SWAP1 DUP3 SWAP1 DUP5 SWAP1 GAS CALL SWAP5 DUP6 ISZERO PUSH2 0x63E JUMPI DUP11 SWAP6 PUSH2 0x621 JUMPI JUMPDEST POP PUSH2 0x120 DUP2 ADD MLOAD DUP6 AND DUP1 PUSH2 0x4E5 JUMPI POP DUP3 DUP1 DUP1 PUSH1 0x0 DUP1 MLOAD PUSH1 0x20 PUSH2 0x2989 DUP4 CODECOPY DUP2 MLOAD SWAP2 MSTORE SWAP11 SWAP6 DUP9 SWAP8 SWAP6 PUSH1 0x40 SWAP12 SWAP11 SWAP10 PUSH2 0x488 SWAP7 MLOAD AND GAS CALL PUSH2 0x482 PUSH2 0x26EF JUMP JUMPDEST POP PUSH2 0x282C JUMP JUMPDEST DUP10 DUP2 PUSH2 0x4C2 JUMPI JUMPDEST POP POP JUMPDEST SLOAD PUSH1 0x8 SHR AND SWAP6 PUSH1 0x8 PUSH1 0x5 DUP5 ADD SLOAD SWAP4 ADD SLOAD AND SWAP1 DUP4 MLOAD SWAP3 DUP4 MSTORE DUP3 ADD MSTORE LOG3 PUSH1 0x1 PUSH1 0x0 DUP1 MLOAD PUSH1 0x20 PUSH2 0x29A9 DUP4 CODECOPY DUP2 MLOAD SWAP2 MSTORE SSTORE DUP1 RETURN JUMPDEST DUP1 DUP1 DUP1 PUSH2 0x4DE SWAP5 DUP8 PUSH1 0x6 SLOAD AND GAS CALL PUSH2 0x4D8 PUSH2 0x26EF JUMP JUMPDEST POP PUSH2 0x2878 JUMP JUMPDEST CODESIZE DUP10 PUSH2 0x48F JUMP JUMPDEST SWAP1 MLOAD PUSH1 0x40 MLOAD PUSH4 0xA9059CBB PUSH1 0xE0 SHL DUP1 DUP3 MSTORE PUSH1 0x1 PUSH1 0x1 PUSH1 0xA0 SHL SUB SWAP8 SWAP1 SWAP3 AND SWAP7 SWAP1 SWAP7 AND PUSH1 0x4 DUP8 ADD MSTORE PUSH1 0x24 DUP7 ADD SWAP3 SWAP1 SWAP3 MSTORE SWAP2 POP DUP5 DUP5 PUSH1 0x44 DUP2 DUP14 DUP7 GAS CALL SWAP4 DUP5 ISZERO PUSH2 0x616 JUMPI DUP10 SWAP5 PUSH2 0x536 SWAP2 DUP13 SWAP2 PUSH2 0x5F9 JUMPI POP PUSH2 0x282C JUMP JUMPDEST DUP3 PUSH2 0x559 JUMPI JUMPDEST POP POP POP SWAP1 PUSH1 0x40 SWAP3 SWAP2 PUSH1 0x0 DUP1 MLOAD PUSH1 0x20 PUSH2 0x2989 DUP4 CODECOPY DUP2 MLOAD SWAP2 MSTORE SWAP5 PUSH2 0x492 JUMP JUMPDEST PUSH1 0x6 SLOAD PUSH1 0x40 MLOAD SWAP2 DUP3 MSTORE SWAP4 SWAP1 SWAP4 AND PUSH1 0x1 PUSH1 0x1 PUSH1 0xA0 SHL SUB AND PUSH1 0x4 DUP5 ADD MSTORE PUSH1 0x24 DUP4 ADD SWAP2 SWAP1 SWAP2 MSTORE SWAP1 SWAP3 SWAP2 SWAP1 DUP2 SWAP1 DUP5 SWAP1 PUSH1 0x44 SWAP1 DUP3 SWAP1 DUP12 SWAP1 GAS CALL DUP1 ISZERO PUSH2 0x5EE JUMPI PUSH1 0x0 DUP1 MLOAD PUSH1 0x20 PUSH2 0x2989 DUP4 CODECOPY DUP2 MLOAD SWAP2 MSTORE SWAP5 PUSH2 0x5B7 DUP9 SWAP3 PUSH1 0x40 SWAP7 DUP12 SWAP2 PUSH2 0x5C1 JUMPI POP PUSH2 0x2878 JUMP JUMPDEST SWAP5 DUP2 SWAP3 SWAP4 SWAP5 PUSH2 0x53C JUMP JUMPDEST PUSH2 0x5E1 SWAP2 POP DUP6 RETURNDATASIZE DUP8 GT PUSH2 0x5E7 JUMPI JUMPDEST PUSH2 0x5D9 DUP2 DUP4 PUSH2 0x21C3 JUMP JUMPDEST DUP2 ADD SWAP1 PUSH2 0x2201 JUMP JUMPDEST CODESIZE PUSH2 0x4D8 JUMP JUMPDEST POP RETURNDATASIZE PUSH2 0x5CF JUMP JUMPDEST PUSH1 0x40 MLOAD RETURNDATASIZE DUP10 DUP3 RETURNDATACOPY RETURNDATASIZE SWAP1 REVERT JUMPDEST PUSH2 0x610 SWAP2 POP DUP8 RETURNDATASIZE DUP10 GT PUSH2 0x5E7 JUMPI PUSH2 0x5D9 DUP2 DUP4 PUSH2 0x21C3 JUMP JUMPDEST CODESIZE PUSH2 0x482 JUMP JUMPDEST PUSH1 0x40 MLOAD RETURNDATASIZE DUP13 DUP3 RETURNDATACOPY RETURNDATASIZE SWAP1 REVERT JUMPDEST DUP4 SWAP2 SWAP6 POP PUSH2 0x62E SWAP1 PUSH2 0x2192 JUMP JUMPDEST PUSH2 0x63A JUMPI DUP9 SWAP4 CODESIZE PUSH2 0x447 JUMP JUMPDEST POP DUP1 REVERT JUMPDEST PUSH1 0x40 MLOAD RETURNDATASIZE DUP6 DUP3 RETURNDATACOPY RETURNDATASIZE SWAP1 REVERT JUMPDEST DUP5 DUP1 REVERT JUMPDEST PUSH2 0x656 DUP3 PUSH2 0x22A2 JUMP JUMPDEST SWAP3 DUP6 PUSH1 0xE0 DUP6 ADD MLOAD AND SWAP1 DUP8 DUP8 DUP7 MLOAD AND PUSH2 0x100 DUP8 ADD MLOAD DUP5 EXTCODESIZE ISZERO PUSH2 0x72F JUMPI PUSH1 0x40 MLOAD PUSH4 0x21421707 PUSH1 0xE1 SHL DUP2 MSTORE ADDRESS PUSH1 0x4 DUP3 ADD MSTORE PUSH1 0x1 PUSH1 0x1 PUSH1 0xA0 SHL SUB SWAP3 SWAP1 SWAP3 AND PUSH1 0x24 DUP4 ADD MSTORE PUSH1 0x44 DUP3 ADD MSTORE SWAP3 DUP2 SWAP1 DUP5 SWAP1 PUSH1 0x64 SWAP1 DUP3 SWAP1 DUP5 SWAP1 GAS CALL SWAP3 DUP4 ISZERO PUSH2 0x722 JUMPI DUP9 SWAP4 PUSH2 0x701 JUMPI JUMPDEST POP POP SWAP1 PUSH1 0x40 SWAP4 SWAP3 SWAP2 DUP6 DUP3 PUSH1 0xA0 PUSH1 0x0 DUP1 MLOAD PUSH1 0x20 PUSH2 0x2989 DUP4 CODECOPY DUP2 MLOAD SWAP2 MSTORE SWAP9 ADD MLOAD AND DUP1 PUSH2 0x6E2 JUMPI JUMPDEST POP POP PUSH2 0x492 JUMP JUMPDEST DUP2 PUSH2 0x140 DUP6 PUSH2 0x120 PUSH2 0x6FA SWAP6 ADD MLOAD AND SWAP2 ADD MLOAD SWAP2 PUSH2 0x271F JUMP JUMPDEST CODESIZE DUP1 PUSH2 0x6DB JUMP JUMPDEST PUSH2 0x70F SWAP2 SWAP3 SWAP6 SWAP5 SWAP4 POP PUSH2 0x2192 JUMP JUMPDEST PUSH2 0x71E JUMPI SWAP1 SWAP2 DUP6 SWAP1 DUP8 CODESIZE PUSH2 0x6B6 JUMP JUMPDEST DUP7 DUP1 REVERT JUMPDEST POP PUSH1 0x40 MLOAD SWAP1 RETURNDATASIZE SWAP1 DUP3 RETURNDATACOPY RETURNDATASIZE SWAP1 REVERT JUMPDEST DUP3 DUP1 REVERT JUMPDEST POP PUSH1 0x5 DUP3 ADD SLOAD PUSH1 0xA DUP4 ADD SLOAD GT ISZERO PUSH2 0x3B7 JUMP JUMPDEST PUSH1 0x40 MLOAD PUSH3 0x461BCD PUSH1 0xE5 SHL DUP2 MSTORE PUSH1 0x4 DUP2 ADD DUP4 SWAP1 MSTORE PUSH1 0x15 PUSH1 0x24 DUP3 ADD MSTORE PUSH21 0x105D58DD1A5BDB881B9BDD081E595D08195B991959 PUSH1 0x5A SHL PUSH1 0x44 DUP3 ADD MSTORE PUSH1 0x64 SWAP1 REVERT JUMPDEST SWAP1 POP CALLER EQ CODESIZE PUSH2 0x39A JUMP JUMPDEST POP CALLVALUE PUSH2 0x1A5 JUMPI DUP1 PUSH1 0x3 NOT CALLDATASIZE ADD SLT PUSH2 0x1A5 JUMPI PUSH1 0x1 SLOAD PUSH1 0x40 MLOAD PUSH1 0x1 PUSH1 0x1 PUSH1 0xA0 SHL SUB SWAP1 SWAP2 AND DUP2 MSTORE PUSH1 0x20 SWAP1 RETURN JUMPDEST POP CALLVALUE PUSH2 0x1A5 JUMPI DUP1 PUSH1 0x3 NOT CALLDATASIZE ADD SLT PUSH2 0x1A5 JUMPI PUSH1 0x40 MLOAD PUSH1 0x40 DUP2 ADD DUP2 DUP2 LT PUSH8 0xFFFFFFFFFFFFFFFF DUP3 GT OR PUSH2 0x845 JUMPI PUSH1 0x40 MSTORE PUSH1 0x5 DUP2 MSTORE PUSH1 0x20 SWAP2 PUSH5 0x352E302E3 PUSH1 0xDC SHL PUSH1 0x20 DUP4 ADD MSTORE PUSH1 0x40 MLOAD SWAP3 DUP4 SWAP2 PUSH1 0x20 DUP4 MSTORE DUP4 MLOAD SWAP2 DUP3 PUSH1 0x20 DUP6 ADD MSTORE DUP2 JUMPDEST DUP4 DUP2 LT PUSH2 0x82E JUMPI POP POP PUSH1 0x40 DUP1 SWAP5 POP DUP3 DUP5 ADD ADD MSTORE PUSH1 0x1F DUP1 NOT SWAP2 ADD AND DUP2 ADD SUB ADD SWAP1 RETURN JUMPDEST DUP1 DUP7 ADD DUP3 ADD MLOAD DUP8 DUP3 ADD PUSH1 0x40 ADD MSTORE DUP7 SWAP5 POP DUP2 ADD PUSH2 0x80D JUMP JUMPDEST PUSH4 0x4E487B71 PUSH1 0xE0 SHL PUSH1 0x0 MSTORE PUSH1 0x41 PUSH1 0x4 MSTORE PUSH1 0x24 PUSH1 0x0 REVERT JUMPDEST POP CALLVALUE PUSH2 0x1A5 JUMPI PUSH1 0x20 CALLDATASIZE PUSH1 0x3 NOT ADD SLT PUSH2 0x1A5 JUMPI PUSH1 0x20 SWAP1 PUSH1 0x1 PUSH1 0x1 PUSH1 0xA0 SHL SUB SWAP1 PUSH1 0x40 SWAP1 DUP3 PUSH2 0x885 PUSH2 0x2166 JUMP JUMPDEST AND DUP2 MSTORE DUP1 DUP5 MSTORE KECCAK256 SLOAD AND PUSH1 0x40 MLOAD SWAP1 DUP2 MSTORE RETURN JUMPDEST POP CALLVALUE PUSH2 0x1A5 JUMPI PUSH1 0xA0 CALLDATASIZE PUSH1 0x3 NOT ADD SLT PUSH2 0x1A5 JUMPI PUSH1 0x24 SWAP1 PUSH1 0x64 CALLDATALOAD PUSH1 0x1 PUSH1 0x1 PUSH1 0xA0 SHL SUB DUP2 AND SWAP1 DUP4 CALLDATALOAD SWAP1 PUSH1 0x4 CALLDATALOAD SWAP1 DUP4 SWAP1 SUB PUSH2 0xDA7 JUMPI PUSH1 0x84 CALLDATALOAD SWAP2 PUSH2 0x8D3 PUSH2 0x2686 JUMP JUMPDEST PUSH2 0xE10 DUP3 LT ISZERO DUP1 PUSH2 0xD9A JUMPI JUMPDEST ISZERO PUSH2 0xD63 JUMPI DUP1 ISZERO PUSH2 0xD1F JUMPI DUP1 PUSH1 0x44 CALLDATALOAD LT PUSH2 0xCE3 JUMPI DUP4 ISZERO PUSH2 0xCA8 JUMPI PUSH1 0x40 MLOAD PUSH4 0x31A9108F PUSH1 0xE1 SHL DUP2 MSTORE PUSH1 0x4 DUP2 ADD DUP5 SWAP1 MSTORE PUSH1 0x20 DUP2 DUP9 DUP2 DUP9 GAS STATICCALL SWAP1 DUP2 ISZERO PUSH2 0xB86 JUMPI DUP7 SWAP2 PUSH2 0xC89 JUMPI JUMPDEST POP CALLER PUSH1 0x1 PUSH1 0x1 PUSH1 0xA0 SHL SUB SWAP1 SWAP2 AND SUB PUSH2 0xC52 JUMPI PUSH1 0x40 MLOAD PUSH4 0xE985E9C5 PUSH1 0xE0 SHL DUP2 MSTORE CALLER PUSH1 0x4 DUP3 ADD MSTORE ADDRESS PUSH1 0x24 DUP3 ADD MSTORE PUSH1 0x20 DUP2 PUSH1 0x44 DUP2 DUP9 GAS STATICCALL SWAP1 DUP2 ISZERO PUSH2 0xB86 JUMPI DUP7 SWAP2 PUSH2 0xC33 JUMPI JUMPDEST POP DUP1 ISZERO PUSH2 0xBC8 JUMPI JUMPDEST ISZERO PUSH2 0xB91 JUMPI DUP4 EXTCODESIZE ISZERO PUSH2 0x649 JUMPI PUSH1 0x40 MLOAD PUSH4 0x21421707 PUSH1 0xE1 SHL DUP2 MSTORE CALLER PUSH1 0x4 DUP3 ADD MSTORE ADDRESS PUSH1 0x24 DUP3 ADD MSTORE PUSH1 0x44 DUP2 ADD DUP5 SWAP1 MSTORE DUP6 DUP2 PUSH1 0x64 DUP2 DUP4 DUP10 GAS CALL DUP1 ISZERO PUSH2 0xB86 JUMPI SWAP1 DUP7 SWAP2 PUSH2 0xB72 JUMPI JUMPDEST POP POP PUSH1 0x3 SLOAD SWAP5 PUSH1 0x0 NOT DUP7 EQ PUSH2 0xB5F JUMPI PUSH1 0x20 SWAP7 POP PUSH1 0x1 DUP7 ADD PUSH1 0x3 SSTORE PUSH1 0xA PUSH2 0x160 PUSH1 0x40 DUP1 MLOAD SWAP4 PUSH2 0x9DD DUP6 PUSH2 0x21A6 JUMP JUMPDEST CALLER DUP6 MSTORE DUP7 DUP12 DUP7 ADD MSTORE DUP6 DUP3 DUP7 ADD MSTORE TIMESTAMP PUSH1 0x60 DUP7 ADD MSTORE DUP1 PUSH1 0x80 DUP7 ADD MSTORE DUP1 PUSH1 0xA0 DUP7 ADD MSTORE DUP1 PUSH1 0xC0 DUP7 ADD MSTORE DUP9 PUSH1 0xE0 DUP7 ADD MSTORE DUP8 PUSH2 0x100 DUP7 ADD MSTORE DUP1 PUSH2 0x120 DUP7 ADD MSTORE DUP1 PUSH2 0x140 DUP7 ADD MSTORE PUSH1 0x44 CALLDATALOAD DUP4 DUP7 ADD MSTORE DUP10 DUP2 MSTORE PUSH1 0x2 DUP12 MSTORE KECCAK256 SWAP3 PUSH1 0x1 DUP1 PUSH1 0xA0 SHL SUB DUP2 MLOAD AND PUSH1 0x1 PUSH1 0x1 PUSH1 0x60 SHL SUB PUSH1 0xA0 SHL SWAP1 DUP2 DUP7 SLOAD AND OR DUP6 SSTORE DUP11 DUP3 ADD MLOAD PUSH1 0x1 DUP7 ADD SSTORE PUSH1 0x40 DUP3 ADD MLOAD PUSH1 0x2 DUP7 ADD SSTORE PUSH1 0x60 DUP3 ADD MLOAD PUSH1 0x3 DUP7 ADD SSTORE PUSH2 0xAB0 PUSH1 0x4 DUP7 ADD PUSH1 0x80 DUP5 ADD MLOAD ISZERO ISZERO PUSH1 0xFF DUP1 NOT DUP4 SLOAD AND SWAP2 AND OR DUP2 SSTORE PUSH1 0x1 DUP1 PUSH1 0xA0 SHL SUB PUSH1 0xA0 DUP6 ADD MLOAD AND DUP2 SLOAD SWAP1 PUSH2 0x100 PUSH1 0x1 PUSH1 0xA8 SHL SUB SWAP1 PUSH1 0x8 SHL AND SWAP1 PUSH2 0x100 PUSH1 0x1 PUSH1 0xA8 SHL SUB NOT AND OR SWAP1 SSTORE JUMP JUMPDEST PUSH1 0xC0 DUP3 ADD MLOAD PUSH1 0x5 DUP7 ADD SSTORE PUSH1 0x6 DUP6 ADD PUSH1 0x1 DUP1 PUSH1 0xA0 SHL SUB PUSH1 0xE0 DUP5 ADD MLOAD AND DUP3 DUP3 SLOAD AND OR SWAP1 SSTORE PUSH2 0x100 DUP3 ADD MLOAD PUSH1 0x7 DUP7 ADD SSTORE PUSH1 0x8 DUP6 ADD SWAP1 PUSH1 0x1 DUP1 PUSH1 0xA0 SHL SUB PUSH2 0x120 DUP5 ADD MLOAD AND SWAP1 DUP3 SLOAD AND OR SWAP1 SSTORE PUSH2 0x140 DUP2 ADD MLOAD PUSH1 0x9 DUP6 ADD SSTORE ADD MLOAD SWAP2 ADD SSTORE PUSH1 0x40 MLOAD SWAP3 DUP4 MSTORE DUP6 DUP4 ADD MSTORE PUSH1 0x44 CALLDATALOAD PUSH1 0x40 DUP4 ADD MSTORE PUSH1 0x60 DUP3 ADD MSTORE DUP3 PUSH32 0xCAF0AE751FB2B122E8718BF7C0D4B7584D1418A853A4D0CDABA45418D3DA138B PUSH1 0x80 CALLER SWAP4 LOG4 PUSH1 0x1 PUSH1 0x0 DUP1 MLOAD PUSH1 0x20 PUSH2 0x29A9 DUP4 CODECOPY DUP2 MLOAD SWAP2 MSTORE SSTORE PUSH1 0x40 MLOAD SWAP1 DUP2 MSTORE RETURN JUMPDEST PUSH4 0x4E487B71 PUSH1 0xE0 SHL DUP2 MSTORE PUSH1 0x11 PUSH1 0x4 MSTORE DUP7 SWAP1 REVERT JUMPDEST PUSH2 0xB7B SWAP1 PUSH2 0x2192 JUMP JUMPDEST PUSH2 0x649 JUMPI DUP5 CODESIZE PUSH2 0x9B0 JUMP JUMPDEST PUSH1 0x40 MLOAD RETURNDATASIZE DUP9 DUP3 RETURNDATACOPY RETURNDATASIZE SWAP1 REVERT JUMPDEST PUSH1 0x40 MLOAD PUSH3 0x461BCD PUSH1 0xE5 SHL DUP2 MSTORE PUSH1 0x20 PUSH1 0x4 DUP3 ADD MSTORE PUSH1 0x10 DUP2 DUP9 ADD MSTORE PUSH16 0x139195081B9BDD08185C1C1C9BDD9959 PUSH1 0x82 SHL PUSH1 0x44 DUP3 ADD MSTORE PUSH1 0x64 SWAP1 REVERT JUMPDEST POP PUSH1 0x40 MLOAD PUSH4 0x20604BF PUSH1 0xE2 SHL DUP2 MSTORE PUSH1 0x4 DUP2 ADD DUP5 SWAP1 MSTORE PUSH1 0x20 DUP2 DUP9 DUP2 DUP9 GAS STATICCALL SWAP1 DUP2 ISZERO PUSH2 0xB86 JUMPI DUP7 SWAP2 PUSH2 0xC04 JUMPI JUMPDEST POP PUSH1 0x1 PUSH1 0x1 PUSH1 0xA0 SHL SUB AND ADDRESS EQ PUSH2 0x96D JUMP JUMPDEST PUSH2 0xC26 SWAP2 POP PUSH1 0x20 RETURNDATASIZE PUSH1 0x20 GT PUSH2 0xC2C JUMPI JUMPDEST PUSH2 0xC1E DUP2 DUP4 PUSH2 0x21C3 JUMP JUMPDEST DUP2 ADD SWAP1 PUSH2 0x23C0 JUMP JUMPDEST CODESIZE PUSH2 0xBF3 JUMP JUMPDEST POP RETURNDATASIZE PUSH2 0xC14 JUMP JUMPDEST PUSH2 0xC4C SWAP2 POP PUSH1 0x20 RETURNDATASIZE PUSH1 0x20 GT PUSH2 0x5E7 JUMPI PUSH2 0x5D9 DUP2 DUP4 PUSH2 0x21C3 JUMP JUMPDEST CODESIZE PUSH2 0x965 JUMP JUMPDEST PUSH1 0x40 MLOAD PUSH3 0x461BCD PUSH1 0xE5 SHL DUP2 MSTORE PUSH1 0x20 PUSH1 0x4 DUP3 ADD MSTORE PUSH1 0x10 DUP2 DUP9 ADD MSTORE PUSH16 0x139BDD081BDDDB995C881BD988139195 PUSH1 0x82 SHL PUSH1 0x44 DUP3 ADD MSTORE PUSH1 0x64 SWAP1 REVERT JUMPDEST PUSH2 0xCA2 SWAP2 POP PUSH1 0x20 RETURNDATASIZE PUSH1 0x20 GT PUSH2 0xC2C JUMPI PUSH2 0xC1E DUP2 DUP4 PUSH2 0x21C3 JUMP JUMPDEST CODESIZE PUSH2 0x923 JUMP JUMPDEST PUSH1 0x40 MLOAD PUSH3 0x461BCD PUSH1 0xE5 SHL DUP2 MSTORE PUSH1 0x20 PUSH1 0x4 DUP3 ADD MSTORE PUSH1 0x14 DUP2 DUP9 ADD MSTORE PUSH20 0x125B9D985B1A59081391950818DBDB9D1C9858DD PUSH1 0x62 SHL PUSH1 0x44 DUP3 ADD MSTORE PUSH1 0x64 SWAP1 REVERT JUMPDEST PUSH1 0x40 MLOAD PUSH3 0x461BCD PUSH1 0xE5 SHL DUP2 MSTORE PUSH1 0x20 PUSH1 0x4 DUP3 ADD MSTORE PUSH1 0x15 DUP2 DUP9 ADD MSTORE PUSH21 0x5265736572766520707269636520746F6F206C6F77 PUSH1 0x58 SHL PUSH1 0x44 DUP3 ADD MSTORE PUSH1 0x64 SWAP1 REVERT JUMPDEST PUSH1 0x40 MLOAD PUSH3 0x461BCD PUSH1 0xE5 SHL DUP2 MSTORE PUSH1 0x20 PUSH1 0x4 DUP3 ADD MSTORE PUSH1 0x1C DUP2 DUP9 ADD MSTORE PUSH32 0x5374617274207072696365206D75737420626520706F73697469766500000000 PUSH1 0x44 DUP3 ADD MSTORE PUSH1 0x64 SWAP1 REVERT JUMPDEST PUSH1 0x40 MLOAD PUSH3 0x461BCD PUSH1 0xE5 SHL DUP2 MSTORE PUSH1 0x20 PUSH1 0x4 DUP3 ADD MSTORE PUSH1 0x10 DUP2 DUP9 ADD MSTORE PUSH16 0x24B73B30B634B210323AB930BA34B7B7 PUSH1 0x81 SHL PUSH1 0x44 DUP3 ADD MSTORE PUSH1 0x64 SWAP1 REVERT JUMPDEST POP PUSH3 0x278D00 DUP3 GT ISZERO PUSH2 0x8DF JUMP JUMPDEST PUSH1 0x0 DUP1 REVERT JUMPDEST POP CALLVALUE PUSH2 0x1A5 JUMPI PUSH1 0x20 CALLDATASIZE PUSH1 0x3 NOT ADD SLT PUSH2 0x1A5 JUMPI PUSH1 0x4 CALLDATALOAD PUSH2 0xDC9 PUSH2 0x26B6 JUMP JUMPDEST PUSH2 0x3E8 DUP2 GT PUSH2 0xDD8 JUMPI PUSH1 0x5 SSTORE DUP1 RETURN JUMPDEST PUSH1 0x40 MLOAD PUSH3 0x461BCD PUSH1 0xE5 SHL DUP2 MSTORE PUSH1 0x20 PUSH1 0x4 DUP3 ADD MSTORE PUSH1 0x11 PUSH1 0x24 DUP3 ADD MSTORE PUSH17 0x8CCACA40E4C2E8CA40E8DEDE40D0D2CED PUSH1 0x7B SHL PUSH1 0x44 DUP3 ADD MSTORE PUSH1 0x64 SWAP1 REVERT JUMPDEST POP CALLVALUE PUSH2 0x1A5 JUMPI PUSH1 0x40 CALLDATASIZE PUSH1 0x3 NOT ADD SLT PUSH2 0x1A5 JUMPI PUSH1 0x40 PUSH2 0xE2D PUSH2 0x217C JUMP JUMPDEST SWAP2 PUSH1 0x4 CALLDATALOAD DUP2 MSTORE PUSH1 0x4 PUSH1 0x20 MSTORE KECCAK256 SWAP1 PUSH1 0x1 DUP1 PUSH1 0xA0 SHL SUB AND PUSH1 0x0 MSTORE PUSH1 0x20 MSTORE PUSH1 0x20 PUSH1 0x40 PUSH1 0x0 KECCAK256 SLOAD PUSH1 0x40 MLOAD SWAP1 DUP2 MSTORE RETURN JUMPDEST POP CALLVALUE PUSH2 0x1A5 JUMPI DUP1 PUSH1 0x3 NOT CALLDATASIZE ADD SLT PUSH2 0x1A5 JUMPI PUSH1 0x0 DUP1 MLOAD PUSH1 0x20 PUSH2 0x2969 DUP4 CODECOPY DUP2 MLOAD SWAP2 MSTORE SLOAD PUSH1 0x40 MLOAD PUSH1 0x1 PUSH1 0x1 PUSH1 0xA0 SHL SUB SWAP1 SWAP2 AND DUP2 MSTORE PUSH1 0x20 SWAP1 RETURN JUMPDEST POP CALLVALUE PUSH2 0x1A5 JUMPI PUSH1 0x20 CALLDATASIZE PUSH1 0x3 NOT ADD SLT PUSH2 0x1A5 JUMPI PUSH1 0x20 PUSH2 0x19D PUSH1 0x4 CALLDATALOAD PUSH2 0x2356 JUMP JUMPDEST POP CALLVALUE PUSH2 0x1A5 JUMPI DUP1 PUSH1 0x3 NOT CALLDATASIZE ADD SLT PUSH2 0x1A5 JUMPI PUSH32 0xF0C57E16840DF040F15088DC2F81FE391C3923BEC73E23A9662EFC9C229C6A00 DUP1 SLOAD PUSH1 0xFF DUP2 PUSH1 0x40 SHR AND ISZERO SWAP1 PUSH8 0xFFFFFFFFFFFFFFFF DUP2 AND DUP1 ISZERO SWAP1 DUP2 PUSH2 0x1018 JUMPI JUMPDEST PUSH1 0x1 EQ SWAP1 DUP2 PUSH2 0x100E JUMPI JUMPDEST ISZERO SWAP1 DUP2 PUSH2 0x1005 JUMPI JUMPDEST POP PUSH2 0xFF3 JUMPI PUSH8 0xFFFFFFFFFFFFFFFF NOT DUP2 AND PUSH1 0x1 OR DUP4 SSTORE DUP2 PUSH2 0xFD4 JUMPI JUMPDEST POP PUSH2 0xF35 PUSH2 0x28C4 JUMP JUMPDEST PUSH2 0xF3D PUSH2 0x28C4 JUMP JUMPDEST PUSH2 0xF46 CALLER PUSH2 0x23DF JUMP JUMPDEST PUSH2 0xF4E PUSH2 0x28C4 JUMP JUMPDEST PUSH2 0xF56 PUSH2 0x28C4 JUMP JUMPDEST PUSH2 0xF5E PUSH2 0x28C4 JUMP JUMPDEST PUSH1 0x1 PUSH1 0x0 DUP1 MLOAD PUSH1 0x20 PUSH2 0x29A9 DUP4 CODECOPY DUP2 MLOAD SWAP2 MSTORE SSTORE PUSH1 0x1 PUSH1 0x3 SSTORE PUSH1 0xFA PUSH1 0x5 SSTORE CALLER PUSH1 0x1 PUSH1 0x1 PUSH1 0x60 SHL SUB PUSH1 0xA0 SHL PUSH1 0x6 SLOAD AND OR PUSH1 0x6 SSTORE PUSH2 0xF96 JUMPI POP DUP1 RETURN JUMPDEST PUSH9 0xFF0000000000000000 NOT DUP2 SLOAD AND SWAP1 SSTORE PUSH32 0xC7F505B2F371AE2175EE4913F4499E1F2633A7B5936321EED1CDAEB6115181D2 PUSH1 0x20 PUSH1 0x40 MLOAD PUSH1 0x1 DUP2 MSTORE LOG1 DUP1 RETURN JUMPDEST PUSH9 0xFFFFFFFFFFFFFFFFFF NOT AND PUSH9 0x10000000000000001 OR DUP3 SSTORE CODESIZE PUSH2 0xF2C JUMP JUMPDEST PUSH1 0x40 MLOAD PUSH4 0xF92EE8A9 PUSH1 0xE0 SHL DUP2 MSTORE PUSH1 0x4 SWAP1 REVERT JUMPDEST SWAP1 POP ISZERO CODESIZE PUSH2 0xF10 JUMP JUMPDEST ADDRESS EXTCODESIZE ISZERO SWAP2 POP PUSH2 0xF08 JUMP JUMPDEST DUP4 SWAP2 POP PUSH2 0xEFE JUMP JUMPDEST POP CALLVALUE PUSH2 0x1A5 JUMPI PUSH1 0x20 CALLDATASIZE PUSH1 0x3 NOT ADD SLT PUSH2 0x1A5 JUMPI PUSH2 0x103A PUSH2 0x2166 JUMP JUMPDEST PUSH2 0x1042 PUSH2 0x26B6 JUMP JUMPDEST PUSH1 0x1 DUP1 PUSH1 0xA0 SHL SUB AND PUSH1 0x1 PUSH1 0x1 PUSH1 0x60 SHL SUB PUSH1 0xA0 SHL PUSH1 0x1 SLOAD AND OR PUSH1 0x1 SSTORE DUP1 RETURN JUMPDEST POP CALLVALUE PUSH2 0x1A5 JUMPI PUSH1 0x20 CALLDATASIZE PUSH1 0x3 NOT ADD SLT PUSH2 0x1A5 JUMPI PUSH1 0x40 MLOAD PUSH2 0x180 SWAP2 PUSH2 0x1082 DUP3 PUSH2 0x21A6 JUMP JUMPDEST DUP1 DUP3 MSTORE DUP1 PUSH1 0x20 DUP4 ADD MSTORE DUP1 PUSH1 0x40 DUP4 ADD MSTORE DUP1 PUSH1 0x60 DUP4 ADD MSTORE DUP1 PUSH1 0x80 DUP4 ADD MSTORE DUP1 PUSH1 0xA0 DUP4 ADD MSTORE DUP1 PUSH1 0xC0 DUP4 ADD MSTORE DUP1 PUSH1 0xE0 DUP4 ADD MSTORE PUSH2 0x100 SWAP2 DUP2 DUP4 DUP3 ADD MSTORE PUSH2 0x120 DUP3 DUP2 DUP4 ADD MSTORE PUSH2 0x140 DUP4 DUP2 DUP5 ADD MSTORE PUSH2 0x10E7 PUSH1 0x40 DUP6 PUSH2 0x160 SWAP7 DUP8 DUP1 SWAP8 ADD MSTORE PUSH1 0x4 CALLDATALOAD DUP2 MSTORE PUSH1 0x2 PUSH1 0x20 MSTORE KECCAK256 PUSH2 0x22A2 JUMP JUMPDEST SWAP2 PUSH1 0x40 MLOAD SWAP6 PUSH1 0x1 DUP1 PUSH1 0xA0 SHL SUB SWAP1 DUP2 DUP6 MLOAD AND DUP9 MSTORE PUSH1 0x20 DUP6 ADD MLOAD PUSH1 0x20 DUP10 ADD MSTORE PUSH1 0x40 DUP6 ADD MLOAD PUSH1 0x40 DUP10 ADD MSTORE PUSH1 0x60 DUP6 ADD MLOAD PUSH1 0x60 DUP10 ADD MSTORE PUSH1 0x80 DUP6 ADD MLOAD ISZERO ISZERO PUSH1 0x80 DUP10 ADD MSTORE DUP2 PUSH1 0xA0 DUP7 ADD MLOAD AND PUSH1 0xA0 DUP10 ADD MSTORE PUSH1 0xC0 DUP6 ADD MLOAD PUSH1 0xC0 DUP10 ADD MSTORE DUP2 PUSH1 0xE0 DUP7 ADD MLOAD AND PUSH1 0xE0 DUP10 ADD MSTORE DUP1 DUP6 ADD MLOAD SWAP1 DUP9 ADD MSTORE DUP2 DUP5 ADD MLOAD AND SWAP1 DUP7 ADD MSTORE DUP1 DUP3 ADD MLOAD SWAP1 DUP6 ADD MSTORE ADD MLOAD SWAP1 DUP3 ADD MSTORE RETURN JUMPDEST POP CALLVALUE PUSH2 0x1A5 JUMPI PUSH1 0x40 CALLDATASIZE PUSH1 0x3 NOT ADD SLT PUSH2 0x1A5 JUMPI PUSH2 0x1181 PUSH2 0x2166 JUMP JUMPDEST PUSH2 0x1189 PUSH2 0x217C JUMP JUMPDEST PUSH2 0x1191 PUSH2 0x26B6 JUMP JUMPDEST PUSH1 0x1 DUP1 PUSH1 0xA0 SHL SUB DUP1 SWAP2 AND SWAP2 AND DUP1 DUP4 MSTORE DUP3 PUSH1 0x20 MSTORE PUSH1 0x40 DUP4 KECCAK256 DUP3 PUSH1 0x1 PUSH1 0x1 PUSH1 0x60 SHL SUB PUSH1 0xA0 SHL DUP3 SLOAD AND OR SWAP1 SSTORE PUSH32 0xA8ABE0398416476DB5B05737CD4DA3B3CBDE5012D978A6A6C3FD49D321753536 DUP4 DUP1 LOG3 DUP1 RETURN JUMPDEST POP CALLVALUE PUSH2 0x1A5 JUMPI DUP1 PUSH1 0x3 NOT CALLDATASIZE ADD SLT PUSH2 0x1A5 JUMPI PUSH2 0x11FA PUSH2 0x26B6 JUMP JUMPDEST PUSH1 0x0 DUP1 MLOAD PUSH1 0x20 PUSH2 0x2969 DUP4 CODECOPY DUP2 MLOAD SWAP2 MSTORE DUP1 SLOAD PUSH1 0x1 PUSH1 0x1 PUSH1 0xA0 SHL SUB NOT DUP2 AND SWAP1 SWAP2 SSTORE PUSH1 0x0 SWAP1 PUSH1 0x1 PUSH1 0x1 PUSH1 0xA0 SHL SUB AND PUSH32 0x8BE0079C531659141344CD1FD0A4F28419497F9722A3DAAFE3B4186F6B6457E0 DUP3 DUP1 LOG3 DUP1 RETURN JUMPDEST POP CALLVALUE PUSH2 0x1A5 JUMPI PUSH1 0x20 CALLDATASIZE PUSH1 0x3 NOT ADD SLT PUSH2 0x1A5 JUMPI PUSH1 0x40 PUSH2 0x180 SWAP2 PUSH1 0x4 CALLDATALOAD DUP2 MSTORE PUSH1 0x2 PUSH1 0x20 MSTORE KECCAK256 PUSH1 0x1 DUP1 PUSH1 0xA0 SHL SUB DUP1 DUP3 SLOAD AND SWAP2 PUSH1 0x1 DUP2 ADD SLOAD SWAP2 PUSH1 0x2 DUP3 ADD SLOAD SWAP1 PUSH1 0x3 DUP4 ADD SLOAD SWAP1 PUSH1 0x4 DUP5 ADD SLOAD SWAP1 PUSH1 0x5 DUP6 ADD SLOAD SWAP1 DUP1 PUSH1 0x6 DUP8 ADD SLOAD AND SWAP3 PUSH1 0x7 DUP8 ADD SLOAD SWAP5 DUP3 PUSH1 0x8 DUP10 ADD SLOAD AND SWAP7 PUSH1 0xA PUSH1 0x9 DUP11 ADD SLOAD SWAP10 ADD SLOAD SWAP10 PUSH1 0x40 MLOAD SWAP12 DUP13 MSTORE PUSH1 0x20 DUP13 ADD MSTORE PUSH1 0x40 DUP12 ADD MSTORE PUSH1 0x60 DUP11 ADD MSTORE PUSH1 0xFF DUP2 AND ISZERO ISZERO PUSH1 0x80 DUP11 ADD MSTORE PUSH1 0x8 SHR AND PUSH1 0xA0 DUP9 ADD MSTORE PUSH1 0xC0 DUP8 ADD MSTORE PUSH1 0xE0 DUP7 ADD MSTORE PUSH2 0x100 DUP6 ADD MSTORE PUSH2 0x120 DUP5 ADD MSTORE PUSH2 0x140 DUP4 ADD MSTORE PUSH2 0x160 DUP3 ADD MSTORE RETURN JUMPDEST POP CALLVALUE PUSH2 0x1A5 JUMPI DUP1 PUSH1 0x3 NOT CALLDATASIZE ADD SLT PUSH2 0x1A5 JUMPI PUSH32 0x0 PUSH1 0x1 PUSH1 0x1 PUSH1 0xA0 SHL SUB AND ADDRESS SUB PUSH2 0x1372 JUMPI PUSH1 0x20 PUSH1 0x40 MLOAD PUSH32 0x360894A13BA1A3210667C828492DB98DCA3E2076CC3735A920A3CA505D382BBC DUP2 MSTORE RETURN JUMPDEST PUSH1 0x40 MLOAD PUSH4 0x703E46DD PUSH1 0xE1 SHL DUP2 MSTORE PUSH1 0x4 SWAP1 REVERT JUMPDEST POP PUSH1 0x40 CALLDATASIZE PUSH1 0x3 NOT ADD SLT PUSH2 0x1A5 JUMPI PUSH2 0x1399 PUSH2 0x2166 JUMP JUMPDEST PUSH1 0x24 SWAP2 DUP3 CALLDATALOAD PUSH8 0xFFFFFFFFFFFFFFFF DUP2 GT PUSH2 0x63A JUMPI CALLDATASIZE PUSH1 0x23 DUP3 ADD SLT ISZERO PUSH2 0x63A JUMPI DUP1 PUSH1 0x4 ADD CALLDATALOAD SWAP3 PUSH2 0x13C7 DUP5 PUSH2 0x21E5 JUMP JUMPDEST PUSH2 0x13D4 PUSH1 0x40 MLOAD SWAP2 DUP3 PUSH2 0x21C3 JUMP JUMPDEST DUP5 DUP2 MSTORE PUSH1 0x20 SWAP5 DUP6 DUP3 ADD SWAP4 CALLDATASIZE DUP9 DUP4 DUP4 ADD ADD GT PUSH2 0x157F JUMPI DUP2 DUP7 SWAP3 DUP10 DUP10 SWAP4 ADD DUP8 CALLDATACOPY DUP4 ADD ADD MSTORE PUSH1 0x1 PUSH1 0x1 PUSH1 0xA0 SHL SUB PUSH32 0x0 DUP2 AND ADDRESS DUP2 EQ SWAP1 DUP2 ISZERO PUSH2 0x158A JUMPI JUMPDEST POP PUSH2 0x1372 JUMPI PUSH2 0x1439 PUSH2 0x26B6 JUMP JUMPDEST PUSH1 0x40 MLOAD PUSH4 0x52D1902D PUSH1 0xE0 SHL DUP2 MSTORE SWAP1 DUP4 AND SWAP6 DUP1 DUP3 PUSH1 0x4 DUP2 DUP11 GAS STATICCALL SWAP2 DUP3 SWAP2 DUP8 SWAP4 PUSH2 0x1556 JUMPI JUMPDEST POP POP PUSH2 0x147A JUMPI PUSH1 0x40 MLOAD PUSH4 0x4C9C8CE3 PUSH1 0xE0 SHL DUP2 MSTORE PUSH1 0x4 DUP2 ADD DUP8 SWAP1 MSTORE DUP8 SWAP1 REVERT JUMPDEST DUP6 SWAP1 DUP8 PUSH32 0x360894A13BA1A3210667C828492DB98DCA3E2076CC3735A920A3CA505D382BBC SWAP2 DUP3 DUP2 SUB PUSH2 0x1541 JUMPI POP DUP5 EXTCODESIZE ISZERO PUSH2 0x152B JUMPI POP DUP1 SLOAD PUSH1 0x1 PUSH1 0x1 PUSH1 0xA0 SHL SUB NOT AND DUP3 OR SWAP1 SSTORE PUSH1 0x40 MLOAD DUP6 SWAP3 SWAP2 PUSH32 0xBC7CD75A20EE27FD9ADEBAB32041F755214DBC6BFFA90CC0225B39DA2E5C2D3B DUP5 DUP1 LOG2 DUP2 MLOAD ISZERO PUSH2 0x150E JUMPI POP PUSH2 0x150A SWAP4 DUP3 SWAP2 MLOAD SWAP1 DUP5 GAS DELEGATECALL PUSH2 0x1504 PUSH2 0x26EF JUMP JUMPDEST SWAP2 PUSH2 0x2905 JUMP JUMPDEST POP DUP1 RETURN JUMPDEST SWAP4 POP POP POP POP CALLVALUE PUSH2 0x151C JUMPI POP DUP1 RETURN JUMPDEST PUSH4 0xB398979F PUSH1 0xE0 SHL DUP2 MSTORE PUSH1 0x4 SWAP1 REVERT JUMPDEST PUSH1 0x40 MLOAD PUSH4 0x4C9C8CE3 PUSH1 0xE0 SHL DUP2 MSTORE PUSH1 0x4 DUP2 ADD DUP5 SWAP1 MSTORE REVERT JUMPDEST PUSH1 0x40 MLOAD SWAP1 PUSH4 0x2A875269 PUSH1 0xE2 SHL DUP3 MSTORE PUSH1 0x4 DUP3 ADD MSTORE REVERT JUMPDEST SWAP1 DUP1 SWAP3 SWAP4 POP DUP2 RETURNDATASIZE DUP4 GT PUSH2 0x1583 JUMPI JUMPDEST PUSH2 0x156E DUP2 DUP4 PUSH2 0x21C3 JUMP JUMPDEST DUP2 ADD SUB SLT PUSH2 0x157F JUMPI MLOAD SWAP1 CODESIZE DUP1 PUSH2 0x145C JUMP JUMPDEST DUP6 DUP1 REVERT JUMPDEST POP RETURNDATASIZE PUSH2 0x1564 JUMP JUMPDEST SWAP1 POP DUP2 PUSH32 0x360894A13BA1A3210667C828492DB98DCA3E2076CC3735A920A3CA505D382BBC SLOAD AND EQ ISZERO CODESIZE PUSH2 0x142C JUMP JUMPDEST POP PUSH1 0x20 DUP1 PUSH1 0x3 NOT CALLDATASIZE ADD SLT PUSH2 0x63A JUMPI PUSH1 0x4 CALLDATALOAD SWAP1 PUSH2 0x15D2 PUSH2 0x2686 JUMP JUMPDEST CALLVALUE ISZERO PUSH2 0x1A33 JUMPI PUSH1 0x0 DUP1 DUP1 MSTORE DUP1 DUP3 MSTORE PUSH1 0x40 SWAP1 KECCAK256 SLOAD PUSH1 0x1 PUSH1 0x1 PUSH1 0xA0 SHL SUB SWAP3 SWAP1 DUP4 AND DUP1 ISZERO PUSH2 0x19F9 JUMPI PUSH1 0x40 MLOAD PUSH4 0x3FABE5A3 PUSH1 0xE2 SHL DUP2 MSTORE SWAP1 PUSH1 0xA0 DUP3 PUSH1 0x4 DUP2 DUP5 GAS STATICCALL SWAP2 DUP3 ISZERO PUSH2 0x196A JUMPI PUSH1 0x0 SWAP3 PUSH2 0x19AB JUMPI JUMPDEST POP PUSH1 0x0 DUP3 SGT ISZERO PUSH2 0x1976 JUMPI DUP4 PUSH1 0x4 SWAP2 PUSH1 0x40 MLOAD SWAP3 DUP4 DUP1 SWAP3 PUSH4 0x313CE567 PUSH1 0xE0 SHL DUP3 MSTORE GAS STATICCALL SWAP1 DUP2 ISZERO PUSH2 0x196A JUMPI PUSH1 0x0 SWAP2 PUSH2 0x1933 JUMPI JUMPDEST POP SWAP1 PUSH8 0xDE0B6B3A7640000 SWAP2 DUP3 DUP3 MUL SWAP2 DUP1 DUP4 DIV DUP5 EQ SWAP1 ISZERO OR ISZERO PUSH2 0x17E4 JUMPI PUSH1 0xFF AND PUSH1 0x4D DUP2 GT PUSH2 0x17E4 JUMPI PUSH2 0x1687 PUSH2 0x168C SWAP3 CALLVALUE SWAP3 PUSH1 0xA EXP SWAP1 PUSH2 0x247D JUMP JUMPDEST PUSH2 0x246A JUMP JUMPDEST DIV DUP2 PUSH1 0x0 MSTORE PUSH1 0x2 DUP4 MSTORE PUSH1 0x40 PUSH1 0x0 KECCAK256 SWAP4 DUP1 DUP6 SLOAD AND SWAP5 PUSH2 0x16AB DUP7 ISZERO ISZERO PUSH2 0x2219 JUMP JUMPDEST PUSH1 0x4 DUP2 ADD DUP1 SLOAD SWAP1 PUSH1 0xFF DUP3 AND PUSH2 0x18FE JUMPI PUSH1 0x3 DUP4 ADD SWAP4 DUP5 SLOAD SWAP9 PUSH2 0x16D2 PUSH1 0x1 DUP7 ADD SWAP11 DUP12 SLOAD SWAP1 PUSH2 0x233C JUMP JUMPDEST TIMESTAMP LT ISZERO PUSH2 0x18C7 JUMPI CALLER EQ PUSH2 0x188E JUMPI PUSH1 0x2 DUP5 ADD SLOAD DUP7 LT PUSH2 0x1851 JUMPI PUSH1 0x5 DUP5 ADD SWAP3 DUP4 SLOAD DUP8 GT ISZERO PUSH2 0x1816 JUMPI SWAP2 DUP2 PUSH2 0x172D SWAP3 DUP9 SWAP6 SWAP5 PUSH1 0x8 SHR AND DUP1 PUSH2 0x17FA JUMPI JUMPDEST POP POP DUP1 SLOAD PUSH2 0x100 PUSH1 0x1 PUSH1 0xA8 SHL SUB NOT AND CALLER PUSH1 0x8 SHL PUSH2 0x100 PUSH1 0x1 PUSH1 0xA8 SHL SUB AND OR SWAP1 SSTORE JUMP JUMPDEST SSTORE PUSH1 0x8 DUP2 ADD PUSH1 0x1 PUSH1 0x1 PUSH1 0x60 SHL SUB PUSH1 0xA0 SHL DUP2 SLOAD AND SWAP1 SSTORE PUSH1 0x9 CALLVALUE SWAP2 ADD SSTORE DUP3 PUSH1 0x0 MSTORE PUSH1 0x4 DUP5 MSTORE PUSH1 0x40 PUSH1 0x0 KECCAK256 CALLER PUSH1 0x0 MSTORE DUP5 MSTORE DUP2 PUSH1 0x40 PUSH1 0x0 KECCAK256 SSTORE SLOAD PUSH2 0x177F DUP6 SLOAD SWAP2 PUSH2 0x384 SWAP2 DUP3 SWAP2 PUSH2 0x177A DUP6 TIMESTAMP SWAP3 PUSH2 0x233C JUMP JUMPDEST PUSH2 0x2349 JUMP JUMPDEST LT PUSH2 0x17D0 JUMPI JUMPDEST POP POP PUSH1 0x0 SWAP4 POP PUSH1 0x40 MLOAD SWAP3 CALLVALUE DUP5 MSTORE DUP4 ADD MSTORE PUSH32 0x2808DECB743A25D04EFE1BD3DC192ACDE3BE644E2F6AD1DCE5D3C46643E1C602 PUSH1 0x40 CALLER SWAP4 LOG4 PUSH1 0x1 PUSH1 0x0 DUP1 MLOAD PUSH1 0x20 PUSH2 0x29A9 DUP4 CODECOPY DUP2 MLOAD SWAP2 MSTORE SSTORE DUP1 RETURN JUMPDEST DUP2 ADD DUP1 SWAP2 GT PUSH2 0x17E4 JUMPI PUSH1 0x0 SWAP5 SSTORE CODESIZE DUP1 PUSH2 0x1785 JUMP JUMPDEST PUSH4 0x4E487B71 PUSH1 0xE0 SHL PUSH1 0x0 MSTORE PUSH1 0x11 PUSH1 0x4 MSTORE PUSH1 0x24 PUSH1 0x0 REVERT JUMPDEST PUSH2 0x180F SWAP2 PUSH1 0x8 DUP9 ADD SLOAD AND PUSH1 0x9 DUP9 ADD SLOAD SWAP2 PUSH2 0x271F JUMP JUMPDEST CODESIZE DUP1 PUSH2 0x170B JUMP JUMPDEST PUSH1 0x40 MLOAD PUSH3 0x461BCD PUSH1 0xE5 SHL DUP2 MSTORE PUSH1 0x4 DUP2 ADD DUP11 SWAP1 MSTORE PUSH1 0x13 PUSH1 0x24 DUP3 ADD MSTORE PUSH19 0x84D2C840DCDEE840D0D2CED040CADCDEEACED PUSH1 0x6B SHL PUSH1 0x44 DUP3 ADD MSTORE PUSH1 0x64 SWAP1 REVERT JUMPDEST PUSH1 0x40 MLOAD PUSH3 0x461BCD PUSH1 0xE5 SHL DUP2 MSTORE PUSH1 0x4 DUP2 ADD DUP10 SWAP1 MSTORE PUSH1 0x15 PUSH1 0x24 DUP3 ADD MSTORE PUSH21 0x4269642062656C6F77207374617274207072696365 PUSH1 0x58 SHL PUSH1 0x44 DUP3 ADD MSTORE PUSH1 0x64 SWAP1 REVERT JUMPDEST PUSH1 0x40 MLOAD PUSH3 0x461BCD PUSH1 0xE5 SHL DUP2 MSTORE PUSH1 0x4 DUP2 ADD DUP10 SWAP1 MSTORE PUSH1 0x11 PUSH1 0x24 DUP3 ADD MSTORE PUSH17 0x14D95B1B195C8818D85B9B9BDD08189A59 PUSH1 0x7A SHL PUSH1 0x44 DUP3 ADD MSTORE PUSH1 0x64 SWAP1 REVERT JUMPDEST PUSH1 0x40 MLOAD PUSH3 0x461BCD PUSH1 0xE5 SHL DUP2 MSTORE PUSH1 0x4 DUP2 ADD DUP11 SWAP1 MSTORE PUSH1 0xF PUSH1 0x24 DUP3 ADD MSTORE PUSH15 0x105D58DD1A5BDB88195E1C1A5C9959 PUSH1 0x8A SHL PUSH1 0x44 DUP3 ADD MSTORE PUSH1 0x64 SWAP1 REVERT JUMPDEST PUSH1 0x40 MLOAD PUSH3 0x461BCD PUSH1 0xE5 SHL DUP2 MSTORE PUSH1 0x4 DUP2 ADD DUP9 SWAP1 MSTORE PUSH1 0xD PUSH1 0x24 DUP3 ADD MSTORE PUSH13 0x105D58DD1A5BDB88195B991959 PUSH1 0x9A SHL PUSH1 0x44 DUP3 ADD MSTORE PUSH1 0x64 SWAP1 REVERT JUMPDEST DUP5 DUP2 DUP2 RETURNDATASIZE DUP4 GT PUSH2 0x1963 JUMPI JUMPDEST PUSH2 0x1948 DUP2 DUP4 PUSH2 0x21C3 JUMP JUMPDEST DUP2 ADD SUB SLT PUSH2 0x63A JUMPI MLOAD SWAP1 PUSH1 0xFF DUP3 AND DUP3 SUB PUSH2 0x1A5 JUMPI POP CODESIZE PUSH2 0x164D JUMP JUMPDEST POP RETURNDATASIZE PUSH2 0x193E JUMP JUMPDEST PUSH1 0x40 MLOAD RETURNDATASIZE PUSH1 0x0 DUP3 RETURNDATACOPY RETURNDATASIZE SWAP1 REVERT JUMPDEST PUSH1 0x40 MLOAD PUSH3 0x461BCD PUSH1 0xE5 SHL DUP2 MSTORE PUSH1 0x4 DUP2 ADD DUP6 SWAP1 MSTORE PUSH1 0xD PUSH1 0x24 DUP3 ADD MSTORE PUSH13 0x496E76616C6964207072696365 PUSH1 0x98 SHL PUSH1 0x44 DUP3 ADD MSTORE PUSH1 0x64 SWAP1 REVERT JUMPDEST SWAP1 SWAP2 PUSH1 0xA0 DUP3 RETURNDATASIZE PUSH1 0xA0 GT PUSH2 0x19F1 JUMPI JUMPDEST DUP2 PUSH2 0x19C6 PUSH1 0xA0 SWAP4 DUP4 PUSH2 0x21C3 JUMP JUMPDEST DUP2 ADD SUB SLT PUSH2 0x1A5 JUMPI POP PUSH2 0x19D8 DUP2 PUSH2 0x2453 JUMP JUMPDEST POP PUSH2 0x19E9 PUSH1 0x80 DUP6 DUP4 ADD MLOAD SWAP3 ADD PUSH2 0x2453 JUMP JUMPDEST POP SWAP1 CODESIZE PUSH2 0x161D JUMP JUMPDEST RETURNDATASIZE SWAP2 POP PUSH2 0x19B9 JUMP JUMPDEST PUSH1 0x40 MLOAD PUSH3 0x461BCD PUSH1 0xE5 SHL DUP2 MSTORE PUSH1 0x4 DUP2 ADD DUP5 SWAP1 MSTORE PUSH1 0x12 PUSH1 0x24 DUP3 ADD MSTORE PUSH18 0x141C9A58D94819995959081B9BDD081CD95D PUSH1 0x72 SHL PUSH1 0x44 DUP3 ADD MSTORE PUSH1 0x64 SWAP1 REVERT JUMPDEST PUSH1 0x64 SWAP1 PUSH1 0x40 MLOAD SWAP1 PUSH3 0x461BCD PUSH1 0xE5 SHL DUP3 MSTORE PUSH1 0x4 DUP3 ADD MSTORE PUSH1 0x14 PUSH1 0x24 DUP3 ADD MSTORE PUSH20 0x426964206D75737420626520706F736974697665 PUSH1 0x60 SHL PUSH1 0x44 DUP3 ADD MSTORE REVERT JUMPDEST POP CALLVALUE PUSH2 0x1A5 JUMPI DUP1 PUSH1 0x3 NOT CALLDATASIZE ADD SLT PUSH2 0x1A5 JUMPI PUSH1 0x6 SLOAD PUSH1 0x40 MLOAD PUSH1 0x1 PUSH1 0x1 PUSH1 0xA0 SHL SUB SWAP1 SWAP2 AND DUP2 MSTORE PUSH1 0x20 SWAP1 RETURN JUMPDEST POP CALLVALUE PUSH2 0x1A5 JUMPI DUP1 PUSH1 0x3 NOT CALLDATASIZE ADD SLT PUSH2 0x1A5 JUMPI PUSH1 0x20 PUSH1 0x40 MLOAD PUSH3 0x278D00 DUP2 MSTORE RETURN JUMPDEST POP CALLVALUE PUSH2 0x1A5 JUMPI PUSH1 0x20 CALLDATASIZE PUSH1 0x3 NOT ADD SLT PUSH2 0x1A5 JUMPI PUSH2 0x1ACF PUSH2 0x26B6 JUMP JUMPDEST PUSH1 0x4 CALLDATALOAD DUP2 MSTORE PUSH1 0x2 PUSH1 0x20 MSTORE PUSH1 0x40 DUP2 KECCAK256 DUP1 SLOAD PUSH1 0x1 PUSH1 0x1 PUSH1 0xA0 SHL SUB SWAP2 SWAP1 DUP3 AND PUSH2 0x1AF6 DUP2 ISZERO ISZERO PUSH2 0x2219 JUMP JUMPDEST PUSH1 0x4 DUP3 ADD SWAP1 PUSH1 0x1 DUP3 SLOAD PUSH2 0x1B0C PUSH1 0xFF DUP3 AND ISZERO PUSH2 0x225E JUMP JUMPDEST PUSH1 0xFF NOT AND OR DUP3 SSTORE PUSH1 0x6 DUP4 ADD SLOAD PUSH1 0x7 DUP5 ADD SLOAD DUP7 SWAP2 DUP7 AND DUP1 EXTCODESIZE ISZERO PUSH2 0x72F JUMPI PUSH1 0x40 MLOAD PUSH4 0x21421707 PUSH1 0xE1 SHL DUP2 MSTORE ADDRESS PUSH1 0x4 DUP3 ADD MSTORE PUSH1 0x1 PUSH1 0x1 PUSH1 0xA0 SHL SUB SWAP5 SWAP1 SWAP5 AND PUSH1 0x24 DUP6 ADD MSTORE PUSH1 0x44 DUP5 ADD SWAP2 SWAP1 SWAP2 MSTORE DUP3 SWAP1 PUSH1 0x64 SWAP1 DUP3 SWAP1 DUP5 SWAP1 GAS CALL DUP1 ISZERO PUSH2 0x1BAA JUMPI PUSH2 0x1B97 JUMPI JUMPDEST POP SLOAD PUSH1 0x8 SHR DUP3 AND SWAP1 DUP2 PUSH2 0x1B7B JUMPI DUP4 DUP1 RETURN JUMPDEST PUSH1 0x9 PUSH2 0x1B90 SWAP4 PUSH1 0x8 DUP4 ADD SLOAD AND SWAP2 ADD SLOAD SWAP2 PUSH2 0x271F JUMP JUMPDEST CODESIZE DUP1 DUP1 DUP4 DUP1 RETURN JUMPDEST SWAP4 PUSH2 0x1BA3 DUP5 SWAP3 SWAP6 PUSH2 0x2192 JUMP JUMPDEST SWAP4 SWAP1 PUSH2 0x1B6A JUMP JUMPDEST PUSH1 0x40 MLOAD RETURNDATASIZE DUP8 DUP3 RETURNDATACOPY RETURNDATASIZE SWAP1 REVERT JUMPDEST POP CALLVALUE PUSH2 0x1A5 JUMPI PUSH1 0x60 CALLDATASIZE PUSH1 0x3 NOT ADD SLT PUSH2 0x1A5 JUMPI PUSH1 0x4 CALLDATALOAD PUSH2 0x1BD2 PUSH2 0x217C JUMP JUMPDEST SWAP1 PUSH1 0x44 SWAP1 DUP2 CALLDATALOAD SWAP2 PUSH2 0x1BE1 PUSH2 0x2686 JUMP JUMPDEST DUP3 ISZERO PUSH2 0x20B5 JUMPI PUSH1 0x1 PUSH1 0x1 PUSH1 0xA0 SHL SUB DUP5 DUP2 AND SWAP5 SWAP1 SWAP2 SWAP1 DUP6 ISZERO PUSH2 0x2071 JUMPI DUP6 DUP8 MSTORE PUSH1 0x20 SWAP2 DUP8 DUP4 MSTORE DUP4 PUSH1 0x40 DUP10 KECCAK256 SLOAD AND ISZERO PUSH2 0x2038 JUMPI PUSH1 0x40 MLOAD PUSH4 0x70A08231 PUSH1 0xE0 SHL DUP2 MSTORE CALLER PUSH1 0x4 DUP3 ADD MSTORE PUSH1 0x24 SWAP3 SWAP1 DUP5 DUP2 DUP6 DUP2 DUP13 GAS STATICCALL DUP1 ISZERO PUSH2 0x616 JUMPI DUP9 SWAP2 DUP12 SWAP2 PUSH2 0x2007 JUMPI JUMPDEST POP LT PUSH2 0x1FCD JUMPI PUSH1 0x40 MLOAD PUSH4 0x6EB1769F PUSH1 0xE1 SHL DUP2 MSTORE CALLER PUSH1 0x4 DUP3 ADD MSTORE ADDRESS PUSH1 0x24 DUP3 ADD MSTORE DUP5 DUP2 PUSH1 0x44 DUP2 DUP13 GAS STATICCALL DUP1 ISZERO PUSH2 0x616 JUMPI DUP9 SWAP2 DUP12 SWAP2 PUSH2 0x1F98 JUMPI JUMPDEST POP LT PUSH2 0x1F5C JUMPI DUP7 PUSH2 0x1C84 SWAP2 PUSH2 0x249D JUMP JUMPDEST PUSH1 0x40 MLOAD PUSH4 0x23B872DD PUSH1 0xE0 SHL DUP2 MSTORE CALLER PUSH1 0x4 DUP3 ADD MSTORE ADDRESS PUSH1 0x24 DUP3 ADD MSTORE PUSH1 0x44 DUP2 ADD DUP9 SWAP1 MSTORE SWAP1 SWAP5 SWAP1 DUP5 DUP2 PUSH1 0x64 DUP2 DUP14 DUP14 GAS CALL DUP1 ISZERO PUSH2 0x616 JUMPI PUSH2 0x1F3F JUMPI JUMPDEST POP DUP6 DUP10 MSTORE PUSH1 0x2 DUP5 MSTORE PUSH1 0x40 DUP10 KECCAK256 DUP2 DUP2 SLOAD AND SWAP3 PUSH2 0x1CD7 DUP5 ISZERO ISZERO PUSH2 0x2219 JUMP JUMPDEST PUSH1 0x4 DUP3 ADD DUP1 SLOAD SWAP4 PUSH1 0xFF DUP6 AND PUSH2 0x1F0C JUMPI PUSH1 0x3 DUP5 ADD SWAP5 DUP6 SLOAD SWAP7 PUSH2 0x1CFE PUSH1 0x1 DUP8 ADD SWAP9 DUP10 SLOAD SWAP1 PUSH2 0x233C JUMP JUMPDEST TIMESTAMP LT ISZERO PUSH2 0x1ED7 JUMPI CALLER EQ PUSH2 0x1EA0 JUMPI PUSH1 0x2 DUP6 ADD SLOAD DUP11 LT PUSH2 0x1E65 JUMPI PUSH1 0x5 DUP6 ADD SWAP4 DUP5 SLOAD DUP12 GT ISZERO PUSH2 0x1E2D JUMPI POP SWAP3 PUSH2 0x1D5D DUP13 SWAP6 SWAP4 DUP4 DUP13 SWAP5 PUSH1 0x9 SWAP8 PUSH1 0x8 SHR AND DUP1 PUSH2 0x1E19 JUMPI POP POP DUP1 SLOAD PUSH2 0x100 PUSH1 0x1 PUSH1 0xA8 SHL SUB NOT AND CALLER PUSH1 0x8 SHL PUSH2 0x100 PUSH1 0x1 PUSH1 0xA8 SHL SUB AND OR SWAP1 SSTORE JUMP JUMPDEST SSTORE PUSH1 0x8 DUP2 ADD DUP12 PUSH1 0x1 PUSH1 0x1 PUSH1 0x60 SHL SUB PUSH1 0xA0 SHL DUP3 SLOAD AND OR SWAP1 SSTORE ADD SSTORE DUP6 DUP10 MSTORE PUSH1 0x4 DUP5 MSTORE PUSH1 0x40 DUP10 KECCAK256 CALLER DUP11 MSTORE DUP5 MSTORE DUP5 PUSH1 0x40 DUP11 KECCAK256 SSTORE SLOAD SWAP2 PUSH2 0x1DA5 DUP3 SLOAD SWAP4 PUSH2 0x384 SWAP2 DUP3 SWAP2 PUSH2 0x177A DUP8 TIMESTAMP SWAP3 PUSH2 0x233C JUMP JUMPDEST LT PUSH2 0x1DF3 JUMPI JUMPDEST POP POP POP POP PUSH1 0x40 MLOAD SWAP4 DUP5 MSTORE DUP4 ADD MSTORE PUSH32 0x2808DECB743A25D04EFE1BD3DC192ACDE3BE644E2F6AD1DCE5D3C46643E1C602 PUSH1 0x40 CALLER SWAP4 LOG4 PUSH1 0x1 PUSH1 0x0 DUP1 MLOAD PUSH1 0x20 PUSH2 0x29A9 DUP4 CODECOPY DUP2 MLOAD SWAP2 MSTORE SSTORE DUP1 RETURN JUMPDEST DUP4 ADD DUP1 SWAP4 GT PUSH2 0x1E07 JUMPI POP SSTORE CODESIZE DUP1 DUP1 DUP1 PUSH2 0x1DAB JUMP JUMPDEST PUSH4 0x4E487B71 PUSH1 0xE0 SHL DUP10 MSTORE PUSH1 0x11 PUSH1 0x4 MSTORE DUP9 REVERT JUMPDEST PUSH2 0x180F SWAP2 PUSH1 0x8 DUP9 ADD SLOAD AND DUP9 DUP9 ADD SLOAD SWAP2 PUSH2 0x271F JUMP JUMPDEST DUP10 PUSH19 0x84D2C840DCDEE840D0D2CED040CADCDEEACED PUSH1 0x6B SHL PUSH1 0x64 SWAP3 PUSH1 0x13 DUP13 PUSH1 0x40 MLOAD SWAP5 PUSH3 0x461BCD PUSH1 0xE5 SHL DUP7 MSTORE PUSH1 0x4 DUP7 ADD MSTORE DUP5 ADD MSTORE DUP3 ADD MSTORE REVERT JUMPDEST PUSH1 0x40 MLOAD PUSH3 0x461BCD PUSH1 0xE5 SHL DUP2 MSTORE PUSH1 0x4 DUP2 ADD DUP11 SWAP1 MSTORE PUSH1 0x15 DUP2 DUP11 ADD MSTORE PUSH21 0x4269642062656C6F77207374617274207072696365 PUSH1 0x58 SHL DUP2 DUP7 ADD MSTORE PUSH1 0x64 SWAP1 REVERT JUMPDEST PUSH1 0x40 MLOAD PUSH3 0x461BCD PUSH1 0xE5 SHL DUP2 MSTORE PUSH1 0x4 DUP2 ADD DUP11 SWAP1 MSTORE PUSH1 0x11 DUP2 DUP11 ADD MSTORE PUSH17 0x14D95B1B195C8818D85B9B9BDD08189A59 PUSH1 0x7A SHL DUP2 DUP7 ADD MSTORE PUSH1 0x64 SWAP1 REVERT JUMPDEST PUSH1 0x40 MLOAD PUSH3 0x461BCD PUSH1 0xE5 SHL DUP2 MSTORE PUSH1 0x4 DUP2 ADD DUP12 SWAP1 MSTORE PUSH1 0xF DUP2 DUP12 ADD MSTORE PUSH15 0x105D58DD1A5BDB88195E1C1A5C9959 PUSH1 0x8A SHL DUP2 DUP8 ADD MSTORE PUSH1 0x64 SWAP1 REVERT JUMPDEST PUSH1 0x40 MLOAD PUSH3 0x461BCD PUSH1 0xE5 SHL DUP2 MSTORE PUSH1 0x4 DUP2 ADD DUP10 SWAP1 MSTORE PUSH1 0xD DUP2 DUP10 ADD MSTORE PUSH13 0x105D58DD1A5BDB88195B991959 PUSH1 0x9A SHL DUP2 DUP6 ADD MSTORE PUSH1 0x64 SWAP1 REVERT JUMPDEST PUSH2 0x1F55 SWAP1 DUP6 RETURNDATASIZE DUP8 GT PUSH2 0x5E7 JUMPI PUSH2 0x5D9 DUP2 DUP4 PUSH2 0x21C3 JUMP JUMPDEST POP CODESIZE PUSH2 0x1CBB JUMP JUMPDEST PUSH1 0x40 MLOAD PUSH3 0x461BCD PUSH1 0xE5 SHL DUP2 MSTORE PUSH1 0x4 DUP2 ADD DUP6 SWAP1 MSTORE PUSH1 0x16 DUP2 DUP6 ADD MSTORE PUSH22 0x496E73756666696369656E7420616C6C6F77616E6365 PUSH1 0x50 SHL DUP2 DUP5 ADD MSTORE PUSH1 0x64 SWAP1 REVERT JUMPDEST DUP1 SWAP3 POP DUP7 DUP1 SWAP3 POP RETURNDATASIZE DUP4 GT PUSH2 0x1FC6 JUMPI JUMPDEST PUSH2 0x1FB1 DUP2 DUP4 PUSH2 0x21C3 JUMP JUMPDEST DUP2 ADD SUB SLT PUSH2 0x1FC2 JUMPI DUP8 SWAP1 MLOAD CODESIZE PUSH2 0x1C74 JUMP JUMPDEST DUP10 DUP1 REVERT JUMPDEST POP RETURNDATASIZE PUSH2 0x1FA7 JUMP JUMPDEST PUSH1 0x40 MLOAD PUSH3 0x461BCD PUSH1 0xE5 SHL DUP2 MSTORE PUSH1 0x4 DUP2 ADD DUP6 SWAP1 MSTORE PUSH1 0x14 DUP2 DUP6 ADD MSTORE PUSH20 0x496E73756666696369656E742062616C616E6365 PUSH1 0x60 SHL DUP2 DUP5 ADD MSTORE PUSH1 0x64 SWAP1 REVERT JUMPDEST DUP1 SWAP3 POP DUP7 DUP1 SWAP3 POP RETURNDATASIZE DUP4 GT PUSH2 0x2031 JUMPI JUMPDEST PUSH2 0x2020 DUP2 DUP4 PUSH2 0x21C3 JUMP JUMPDEST DUP2 ADD SUB SLT PUSH2 0x1FC2 JUMPI DUP8 SWAP1 MLOAD CODESIZE PUSH2 0x1C3E JUMP JUMPDEST POP RETURNDATASIZE PUSH2 0x2016 JUMP JUMPDEST DUP3 PUSH19 0x151BDAD95B881B9BDD081CDD5C1C1BDC9D1959 PUSH1 0x6A SHL PUSH1 0x64 SWAP3 PUSH1 0x40 MLOAD SWAP3 PUSH3 0x461BCD PUSH1 0xE5 SHL DUP5 MSTORE PUSH1 0x4 DUP5 ADD MSTORE PUSH1 0x13 PUSH1 0x24 DUP5 ADD MSTORE DUP3 ADD MSTORE REVERT JUMPDEST PUSH1 0x40 MLOAD PUSH3 0x461BCD PUSH1 0xE5 SHL DUP2 MSTORE PUSH1 0x20 PUSH1 0x4 DUP3 ADD MSTORE PUSH1 0x1B PUSH1 0x24 DUP3 ADD MSTORE PUSH32 0x55736520706C6163654269645769746845544820666F72204554480000000000 DUP2 DUP5 ADD MSTORE PUSH1 0x64 SWAP1 REVERT JUMPDEST PUSH1 0x64 SWAP1 PUSH32 0x416D6F756E74206D75737420626520706F736974697665000000000000000000 PUSH1 0x40 MLOAD SWAP2 PUSH3 0x461BCD PUSH1 0xE5 SHL DUP4 MSTORE PUSH1 0x20 PUSH1 0x4 DUP5 ADD MSTORE PUSH1 0x17 PUSH1 0x24 DUP5 ADD MSTORE DUP3 ADD MSTORE REVERT JUMPDEST SWAP1 POP CALLVALUE PUSH2 0x63A JUMPI PUSH1 0x80 CALLDATASIZE PUSH1 0x3 NOT ADD SLT PUSH2 0x63A JUMPI PUSH2 0x2114 PUSH2 0x2166 JUMP JUMPDEST POP PUSH2 0x211D PUSH2 0x217C JUMP JUMPDEST POP PUSH1 0x64 CALLDATALOAD PUSH8 0xFFFFFFFFFFFFFFFF DUP1 DUP3 GT PUSH2 0x2162 JUMPI CALLDATASIZE PUSH1 0x23 DUP4 ADD SLT ISZERO PUSH2 0x2162 JUMPI DUP2 PUSH1 0x4 ADD CALLDATALOAD SWAP1 DUP2 GT PUSH2 0x2162 JUMPI CALLDATASIZE SWAP2 ADD PUSH1 0x24 ADD GT PUSH2 0x63A JUMPI PUSH4 0xA85BD01 PUSH1 0xE1 SHL DUP2 MSTORE PUSH1 0x20 SWAP1 RETURN JUMPDEST DUP4 DUP1 REVERT JUMPDEST PUSH1 0x4 CALLDATALOAD SWAP1 PUSH1 0x1 PUSH1 0x1 PUSH1 0xA0 SHL SUB DUP3 AND DUP3 SUB PUSH2 0xDA7 JUMPI JUMP JUMPDEST PUSH1 0x24 CALLDATALOAD SWAP1 PUSH1 0x1 PUSH1 0x1 PUSH1 0xA0 SHL SUB DUP3 AND DUP3 SUB PUSH2 0xDA7 JUMPI JUMP JUMPDEST PUSH8 0xFFFFFFFFFFFFFFFF DUP2 GT PUSH2 0x845 JUMPI PUSH1 0x40 MSTORE JUMP JUMPDEST PUSH2 0x180 DUP2 ADD SWAP1 DUP2 LT PUSH8 0xFFFFFFFFFFFFFFFF DUP3 GT OR PUSH2 0x845 JUMPI PUSH1 0x40 MSTORE JUMP JUMPDEST SWAP1 PUSH1 0x1F DUP1 NOT SWAP2 ADD AND DUP2 ADD SWAP1 DUP2 LT PUSH8 0xFFFFFFFFFFFFFFFF DUP3 GT OR PUSH2 0x845 JUMPI PUSH1 0x40 MSTORE JUMP JUMPDEST PUSH8 0xFFFFFFFFFFFFFFFF DUP2 GT PUSH2 0x845 JUMPI PUSH1 0x1F ADD PUSH1 0x1F NOT AND PUSH1 0x20 ADD SWAP1 JUMP JUMPDEST SWAP1 DUP2 PUSH1 0x20 SWAP2 SUB SLT PUSH2 0xDA7 JUMPI MLOAD DUP1 ISZERO ISZERO DUP2 SUB PUSH2 0xDA7 JUMPI SWAP1 JUMP JUMPDEST ISZERO PUSH2 0x2220 JUMPI JUMP JUMPDEST PUSH1 0x40 MLOAD PUSH3 0x461BCD PUSH1 0xE5 SHL DUP2 MSTORE PUSH1 0x20 PUSH1 0x4 DUP3 ADD MSTORE PUSH1 0x16 PUSH1 0x24 DUP3 ADD MSTORE PUSH22 0x105D58DD1A5BDB88191BD95CC81B9BDD08195E1A5CDD PUSH1 0x52 SHL PUSH1 0x44 DUP3 ADD MSTORE PUSH1 0x64 SWAP1 REVERT JUMPDEST ISZERO PUSH2 0x2265 JUMPI JUMP JUMPDEST PUSH1 0x40 MLOAD PUSH3 0x461BCD PUSH1 0xE5 SHL DUP2 MSTORE PUSH1 0x20 PUSH1 0x4 DUP3 ADD MSTORE PUSH1 0x15 PUSH1 0x24 DUP3 ADD MSTORE PUSH21 0x105D58DD1A5BDB88185B1C9958591E48195B991959 PUSH1 0x5A SHL PUSH1 0x44 DUP3 ADD MSTORE PUSH1 0x64 SWAP1 REVERT JUMPDEST SWAP1 PUSH1 0x40 MLOAD PUSH2 0x22AF DUP2 PUSH2 0x21A6 JUMP JUMPDEST DUP3 SLOAD PUSH1 0x1 PUSH1 0x1 PUSH1 0xA0 SHL SUB SWAP1 DUP2 AND DUP3 MSTORE PUSH1 0x1 DUP5 ADD SLOAD PUSH1 0x20 DUP4 ADD MSTORE PUSH1 0x2 DUP5 ADD SLOAD PUSH1 0x40 DUP4 ADD MSTORE PUSH1 0x3 DUP5 ADD SLOAD PUSH1 0x60 DUP4 ADD MSTORE PUSH1 0x4 DUP5 ADD SLOAD PUSH1 0xFF DUP2 AND ISZERO ISZERO PUSH1 0x80 DUP5 ADD MSTORE PUSH1 0x8 SWAP1 DUP2 SHR DUP3 AND PUSH1 0xA0 DUP5 ADD MSTORE PUSH1 0x5 DUP6 ADD SLOAD PUSH1 0xC0 DUP5 ADD MSTORE PUSH1 0x6 DUP6 ADD SLOAD DUP3 AND PUSH1 0xE0 DUP5 ADD MSTORE PUSH1 0x7 DUP6 ADD SLOAD PUSH2 0x100 DUP5 ADD MSTORE DUP5 ADD SLOAD AND PUSH2 0x120 DUP3 ADD MSTORE PUSH1 0x9 DUP4 ADD SLOAD PUSH2 0x140 DUP3 ADD MSTORE PUSH1 0xA SWAP1 SWAP3 ADD SLOAD PUSH2 0x160 DUP4 ADD MSTORE JUMP JUMPDEST SWAP2 SWAP1 DUP3 ADD DUP1 SWAP3 GT PUSH2 0x17E4 JUMPI JUMP JUMPDEST SWAP2 SWAP1 DUP3 SUB SWAP2 DUP3 GT PUSH2 0x17E4 JUMPI JUMP JUMPDEST PUSH1 0x0 MSTORE PUSH1 0x2 PUSH1 0x20 MSTORE PUSH2 0x236B PUSH1 0x40 PUSH1 0x0 KECCAK256 PUSH2 0x22A2 JUMP JUMPDEST PUSH1 0x80 DUP2 ADD MLOAD ISZERO DUP1 ISZERO SWAP1 PUSH2 0x23A4 JUMPI JUMPDEST PUSH2 0x239E JUMPI PUSH2 0x2394 DUP2 PUSH1 0x20 PUSH1 0x60 PUSH2 0x239B SWAP5 ADD MLOAD SWAP2 ADD MLOAD SWAP1 PUSH2 0x233C JUMP JUMPDEST TIMESTAMP SWAP1 PUSH2 0x2349 JUMP JUMPDEST SWAP1 JUMP JUMPDEST POP PUSH1 0x0 SWAP1 JUMP JUMPDEST POP PUSH2 0x23B8 PUSH1 0x60 DUP3 ADD MLOAD PUSH1 0x20 DUP4 ADD MLOAD SWAP1 PUSH2 0x233C JUMP JUMPDEST TIMESTAMP LT ISZERO PUSH2 0x2379 JUMP JUMPDEST SWAP1 DUP2 PUSH1 0x20 SWAP2 SUB SLT PUSH2 0xDA7 JUMPI MLOAD PUSH1 0x1 PUSH1 0x1 PUSH1 0xA0 SHL SUB DUP2 AND DUP2 SUB PUSH2 0xDA7 JUMPI SWAP1 JUMP JUMPDEST PUSH1 0x1 PUSH1 0x1 PUSH1 0xA0 SHL SUB SWAP1 DUP2 AND SWAP1 DUP2 ISZERO PUSH2 0x243A JUMPI PUSH1 0x0 DUP1 MLOAD PUSH1 0x20 PUSH2 0x2969 DUP4 CODECOPY DUP2 MLOAD SWAP2 MSTORE DUP1 SLOAD PUSH1 0x1 PUSH1 0x1 PUSH1 0xA0 SHL SUB NOT DUP2 AND DUP5 OR SWAP1 SWAP2 SSTORE AND PUSH32 0x8BE0079C531659141344CD1FD0A4F28419497F9722A3DAAFE3B4186F6B6457E0 PUSH1 0x0 DUP1 LOG3 JUMP JUMPDEST PUSH1 0x40 MLOAD PUSH4 0x1E4FBDF7 PUSH1 0xE0 SHL DUP2 MSTORE PUSH1 0x0 PUSH1 0x4 DUP3 ADD MSTORE PUSH1 0x24 SWAP1 REVERT JUMPDEST MLOAD SWAP1 PUSH10 0xFFFFFFFFFFFFFFFFFFFF DUP3 AND DUP3 SUB PUSH2 0xDA7 JUMPI JUMP JUMPDEST DUP2 DUP2 MUL SWAP3 SWAP2 DUP2 ISZERO SWAP2 DUP5 DIV EQ OR ISZERO PUSH2 0x17E4 JUMPI JUMP JUMPDEST DUP2 ISZERO PUSH2 0x2487 JUMPI DIV SWAP1 JUMP JUMPDEST PUSH4 0x4E487B71 PUSH1 0xE0 SHL PUSH1 0x0 MSTORE PUSH1 0x12 PUSH1 0x4 MSTORE PUSH1 0x24 PUSH1 0x0 REVERT JUMPDEST PUSH1 0x1 PUSH1 0x1 PUSH1 0xA0 SHL SUB SWAP1 DUP2 AND PUSH1 0x0 SWAP1 DUP2 MSTORE PUSH1 0x20 DUP2 DUP2 MSTORE PUSH1 0x40 DUP1 DUP4 KECCAK256 SLOAD SWAP1 SWAP5 SWAP4 AND SWAP2 SWAP1 DUP3 ISZERO PUSH2 0x264E JUMPI DUP5 MLOAD PUSH4 0x3FABE5A3 PUSH1 0xE2 SHL DUP2 MSTORE SWAP3 PUSH1 0xA0 DUP5 PUSH1 0x4 DUP2 DUP5 GAS STATICCALL SWAP4 DUP5 ISZERO PUSH2 0x2644 JUMPI DUP4 SWAP5 PUSH2 0x25F6 JUMPI JUMPDEST POP DUP3 DUP5 SGT ISZERO PUSH2 0x25C2 JUMPI SWAP1 DUP1 PUSH1 0x4 SWAP3 DUP8 MLOAD SWAP4 DUP5 DUP1 SWAP3 PUSH4 0x313CE567 PUSH1 0xE0 SHL DUP3 MSTORE GAS STATICCALL SWAP6 DUP7 ISZERO PUSH2 0x25B9 JUMPI POP DUP3 SWAP6 PUSH2 0x257F JUMPI JUMPDEST POP POP PUSH8 0xDE0B6B3A7640000 SWAP4 DUP5 DUP4 MUL SWAP3 DUP1 DUP5 DIV DUP7 EQ SWAP1 ISZERO OR ISZERO PUSH2 0x256B JUMPI PUSH1 0xFF AND SWAP1 PUSH1 0x4D DUP3 GT PUSH2 0x2557 JUMPI POP PUSH2 0x2553 SWAP3 SWAP2 PUSH2 0x1687 SWAP2 PUSH1 0xA EXP SWAP1 PUSH2 0x247D JUMP JUMPDEST DIV SWAP1 JUMP JUMPDEST PUSH4 0x4E487B71 PUSH1 0xE0 SHL DUP2 MSTORE PUSH1 0x11 PUSH1 0x4 MSTORE PUSH1 0x24 SWAP1 REVERT JUMPDEST PUSH4 0x4E487B71 PUSH1 0xE0 SHL DUP3 MSTORE PUSH1 0x11 PUSH1 0x4 MSTORE PUSH1 0x24 DUP3 REVERT JUMPDEST SWAP1 DUP1 SWAP3 SWAP6 POP DUP2 RETURNDATASIZE DUP4 GT PUSH2 0x25B2 JUMPI JUMPDEST PUSH2 0x2597 DUP2 DUP4 PUSH2 0x21C3 JUMP JUMPDEST DUP2 ADD SUB SLT PUSH2 0x2162 JUMPI MLOAD PUSH1 0xFF DUP2 AND DUP2 SUB PUSH2 0x2162 JUMPI SWAP3 CODESIZE DUP1 PUSH2 0x2517 JUMP JUMPDEST POP RETURNDATASIZE PUSH2 0x258D JUMP JUMPDEST MLOAD RETURNDATASIZE DUP5 DUP3 RETURNDATACOPY RETURNDATASIZE SWAP1 REVERT JUMPDEST DUP6 MLOAD PUSH3 0x461BCD PUSH1 0xE5 SHL DUP2 MSTORE PUSH1 0x4 DUP2 ADD DUP4 SWAP1 MSTORE PUSH1 0xD PUSH1 0x24 DUP3 ADD MSTORE PUSH13 0x496E76616C6964207072696365 PUSH1 0x98 SHL PUSH1 0x44 DUP3 ADD MSTORE PUSH1 0x64 SWAP1 REVERT JUMPDEST SWAP1 SWAP4 POP PUSH1 0xA0 DUP2 RETURNDATASIZE PUSH1 0xA0 GT PUSH2 0x263C JUMPI JUMPDEST DUP2 PUSH2 0x2612 PUSH1 0xA0 SWAP4 DUP4 PUSH2 0x21C3 JUMP JUMPDEST DUP2 ADD SUB SLT PUSH2 0x72F JUMPI PUSH2 0x2623 DUP2 PUSH2 0x2453 JUMP JUMPDEST POP PUSH2 0x2634 PUSH1 0x80 DUP4 DUP4 ADD MLOAD SWAP3 ADD PUSH2 0x2453 JUMP JUMPDEST POP SWAP3 CODESIZE PUSH2 0x24E8 JUMP JUMPDEST RETURNDATASIZE SWAP2 POP PUSH2 0x2605 JUMP JUMPDEST DUP7 MLOAD RETURNDATASIZE DUP6 DUP3 RETURNDATACOPY RETURNDATASIZE SWAP1 REVERT JUMPDEST PUSH1 0x64 SWAP1 DUP6 MLOAD SWAP1 PUSH3 0x461BCD PUSH1 0xE5 SHL DUP3 MSTORE PUSH1 0x4 DUP3 ADD MSTORE PUSH1 0x12 PUSH1 0x24 DUP3 ADD MSTORE PUSH18 0x141C9A58D94819995959081B9BDD081CD95D PUSH1 0x72 SHL PUSH1 0x44 DUP3 ADD MSTORE REVERT JUMPDEST PUSH1 0x0 DUP1 MLOAD PUSH1 0x20 PUSH2 0x29A9 DUP4 CODECOPY DUP2 MLOAD SWAP2 MSTORE PUSH1 0x2 DUP2 SLOAD EQ PUSH2 0x26A4 JUMPI PUSH1 0x2 SWAP1 SSTORE JUMP JUMPDEST PUSH1 0x40 MLOAD PUSH4 0x3EE5AEB5 PUSH1 0xE0 SHL DUP2 MSTORE PUSH1 0x4 SWAP1 REVERT JUMPDEST PUSH1 0x0 DUP1 MLOAD PUSH1 0x20 PUSH2 0x2969 DUP4 CODECOPY DUP2 MLOAD SWAP2 MSTORE SLOAD PUSH1 0x1 PUSH1 0x1 PUSH1 0xA0 SHL SUB AND CALLER SUB PUSH2 0x26D7 JUMPI JUMP JUMPDEST PUSH1 0x40 MLOAD PUSH4 0x118CDAA7 PUSH1 0xE0 SHL DUP2 MSTORE CALLER PUSH1 0x4 DUP3 ADD MSTORE PUSH1 0x24 SWAP1 REVERT JUMPDEST RETURNDATASIZE ISZERO PUSH2 0x271A JUMPI RETURNDATASIZE SWAP1 PUSH2 0x2700 DUP3 PUSH2 0x21E5 JUMP JUMPDEST SWAP2 PUSH2 0x270E PUSH1 0x40 MLOAD SWAP4 DUP5 PUSH2 0x21C3 JUMP JUMPDEST DUP3 MSTORE RETURNDATASIZE PUSH1 0x0 PUSH1 0x20 DUP5 ADD RETURNDATACOPY JUMP JUMPDEST PUSH1 0x60 SWAP1 JUMP JUMPDEST PUSH1 0x1 PUSH1 0x1 PUSH1 0xA0 SHL SUB SWAP2 DUP3 AND DUP1 PUSH2 0x2784 JUMPI POP PUSH1 0x0 DUP1 SWAP4 DUP2 SWAP4 DUP3 SWAP4 AND GAS CALL PUSH2 0x2743 PUSH2 0x26EF JUMP JUMPDEST POP ISZERO PUSH2 0x274B JUMPI JUMP JUMPDEST PUSH1 0x40 MLOAD PUSH3 0x461BCD PUSH1 0xE5 SHL DUP2 MSTORE PUSH1 0x20 PUSH1 0x4 DUP3 ADD MSTORE PUSH1 0x11 PUSH1 0x24 DUP3 ADD MSTORE PUSH17 0x115512081C99599D5B990819985A5B1959 PUSH1 0x7A SHL PUSH1 0x44 DUP3 ADD MSTORE PUSH1 0x64 SWAP1 REVERT JUMPDEST PUSH1 0x40 MLOAD PUSH4 0xA9059CBB PUSH1 0xE0 SHL DUP2 MSTORE PUSH1 0x1 PUSH1 0x1 PUSH1 0xA0 SHL SUB SWAP3 SWAP1 SWAP3 AND PUSH1 0x4 DUP4 ADD MSTORE PUSH1 0x24 DUP3 ADD SWAP4 SWAP1 SWAP4 MSTORE SWAP2 PUSH1 0x20 SWAP2 POP DUP3 SWAP1 PUSH1 0x44 SWAP1 DUP3 SWAP1 PUSH1 0x0 SWAP1 GAS CALL SWAP1 DUP2 ISZERO PUSH2 0x196A JUMPI PUSH1 0x0 SWAP2 PUSH2 0x280D JUMPI JUMPDEST POP ISZERO PUSH2 0x27D2 JUMPI JUMP JUMPDEST PUSH1 0x40 MLOAD PUSH3 0x461BCD PUSH1 0xE5 SHL DUP2 MSTORE PUSH1 0x20 PUSH1 0x4 DUP3 ADD MSTORE PUSH1 0x13 PUSH1 0x24 DUP3 ADD MSTORE PUSH19 0x151BDAD95B881C99599D5B990819985A5B1959 PUSH1 0x6A SHL PUSH1 0x44 DUP3 ADD MSTORE PUSH1 0x64 SWAP1 REVERT JUMPDEST PUSH2 0x2826 SWAP2 POP PUSH1 0x20 RETURNDATASIZE PUSH1 0x20 GT PUSH2 0x5E7 JUMPI PUSH2 0x5D9 DUP2 DUP4 PUSH2 0x21C3 JUMP JUMPDEST CODESIZE PUSH2 0x27CA JUMP JUMPDEST ISZERO PUSH2 0x2833 JUMPI JUMP JUMPDEST PUSH1 0x40 MLOAD PUSH3 0x461BCD PUSH1 0xE5 SHL DUP2 MSTORE PUSH1 0x20 PUSH1 0x4 DUP3 ADD MSTORE PUSH1 0x18 PUSH1 0x24 DUP3 ADD MSTORE PUSH32 0x5061796D656E7420746F2073656C6C6572206661696C65640000000000000000 PUSH1 0x44 DUP3 ADD MSTORE PUSH1 0x64 SWAP1 REVERT JUMPDEST ISZERO PUSH2 0x287F JUMPI JUMP JUMPDEST PUSH1 0x40 MLOAD PUSH3 0x461BCD PUSH1 0xE5 SHL DUP2 MSTORE PUSH1 0x20 PUSH1 0x4 DUP3 ADD MSTORE PUSH1 0x1C PUSH1 0x24 DUP3 ADD MSTORE PUSH32 0x506C6174666F726D20666565207472616E73666572206661696C656400000000 PUSH1 0x44 DUP3 ADD MSTORE PUSH1 0x64 SWAP1 REVERT JUMPDEST PUSH1 0xFF PUSH32 0xF0C57E16840DF040F15088DC2F81FE391C3923BEC73E23A9662EFC9C229C6A00 SLOAD PUSH1 0x40 SHR AND ISZERO PUSH2 0x28F3 JUMPI JUMP JUMPDEST PUSH1 0x40 MLOAD PUSH4 0x1AFCD79F PUSH1 0xE3 SHL DUP2 MSTORE PUSH1 0x4 SWAP1 REVERT JUMPDEST SWAP1 PUSH2 0x292C JUMPI POP DUP1 MLOAD ISZERO PUSH2 0x291A JUMPI PUSH1 0x20 DUP2 MLOAD SWAP2 ADD REVERT JUMPDEST PUSH1 0x40 MLOAD PUSH4 0xD6BDA275 PUSH1 0xE0 SHL DUP2 MSTORE PUSH1 0x4 SWAP1 REVERT JUMPDEST DUP2 MLOAD ISZERO DUP1 PUSH2 0x295F JUMPI JUMPDEST PUSH2 0x293D JUMPI POP SWAP1 JUMP JUMPDEST PUSH1 0x40 MLOAD PUSH4 0x9996B315 PUSH1 0xE0 SHL DUP2 MSTORE PUSH1 0x1 PUSH1 0x1 PUSH1 0xA0 SHL SUB SWAP1 SWAP2 AND PUSH1 0x4 DUP3 ADD MSTORE PUSH1 0x24 SWAP1 REVERT JUMPDEST POP DUP1 EXTCODESIZE ISZERO PUSH2 0x2935 JUMP INVALID SWAP1 AND 0xD0 SWAP14 PUSH19 0xD40FDAE2FD8CEAC6B6234C7706214FD39C1CD1 0xE6 MULMOD LOG0 MSTORE DUP13 NOT SWAP4 STOP 0xBB PUSH8 0x64412C29916BDF4A 0x5C PUSH16 0xE6B1C079DE35682160B2289928CE003A 0xB4 MSIZE 0xA7 0x49 SWAP12 PUSH24 0x9B17422D0DF92223018B32B4D1FA46E071723D6817E2486D STOP EXTCODESIZE 0xEC 0xC5 PUSH0 STOP LOG2 PUSH5 0x6970667358 0x22 SLT KECCAK256 JUMPI ORIGIN 0xAF PUSH22 0x17860C840A7EAE8C8099D21765DAF3E47418203E7FF CALL DUP7 0x26 0xD3 0xD1 0xAC PUSH5 0x736F6C6343 STOP ADDMOD AND STOP CALLER "},"gasEstimates":{"creation":{"codeDepositCost":"1155200","executionCost":"infinite","totalCost":"infinite"},"external":{"addDefaultPriceFeed(address,address)":"81435","allAuctions(uint256)":"6612","allAuctionsLength()":"2363","auctionCreator(address)":"2567","auctionImplementation()":"infinite","batchUpdatePriceFeed(address,address,address[])":"infinite","batchUpgradeAuctionPlatforms(address,address[])":"infinite","createAuctionPlatform()":"infinite","defaultPriceFeeds(uint256)":"8816","defaultPriceFeedsLength()":"2561","emergencyPauseAuctionPlatforms(address[])":"infinite","getAllDefaultPriceFeeds()":"infinite","getAuctionCreator(address)":"4761","getAuctionsPaginated(uint256,uint256)":"infinite","getUserAuctions(address)":"infinite","isAuctionPlatform(address)":"2684","isValidAuctionPlatform(address)":"2772","owner()":"2560","removeDefaultPriceFeed(address)":"infinite","renounceOwnership()":"28293","transferOwnership(address)":"28604","userAuctions(address,uint256)":"7153","userAuctionsLength(address)":"2800"},"internal":{"_setDefaultPriceFeeds(address)":"infinite"}},"methodIdentifiers":{"addDefaultPriceFeed(address,address)":"62da5d08","allAuctions(uint256)":"165c5881","allAuctionsLength()":"4077503a","auctionCreator(address)":"4fa15fd1","auctionImplementation()":"6a7f3f6c","batchUpdatePriceFeed(address,address,address[])":"abc68ce7","batchUpgradeAuctionPlatforms(address,address[])":"2c22318b","createAuctionPlatform()":"fb6c51a7","defaultPriceFeeds(uint256)":"2d20581f","defaultPriceFeedsLength()":"aa2a04d1","emergencyPauseAuctionPlatforms(address[])":"184b9d2b","getAllDefaultPriceFeeds()":"596ea661","getAuctionCreator(address)":"4243783f","getAuctionsPaginated(uint256,uint256)":"eded09c3","getUserAuctions(address)":"ff3ad0b4","isAuctionPlatform(address)":"77044b40","isValidAuctionPlatform(address)":"af36b6f6","owner()":"8da5cb5b","removeDefaultPriceFeed(address)":"f3e6bccd","renounceOwnership()":"715018a6","transferOwnership(address)":"f2fde38b","userAuctions(address,uint256)":"b4fbe80a","userAuctionsLength(address)":"b59da2d2"}},"storageLayout":{"storage":[{"astId":874,"contract":"contracts/task3/NFTAuctionFactory.sol:NFTAuctionFactory","label":"_owner","offset":0,"slot":"0","type":"t_address"},{"astId":2971,"contract":"contracts/task3/NFTAuctionFactory.sol:NFTAuctionFactory","label":"allAuctions","offset":0,"slot":"1","type":"t_array(t_address)dyn_storage"},{"astId":2976,"contract":"contracts/task3/NFTAuctionFactory.sol:NFTAuctionFactory","label":"userAuctions","offset":0,"slot":"2","type":"t_mapping(t_address,t_array(t_address)dyn_storage)"},{"astId":2980,"contract":"contracts/task3/NFTAuctionFactory.sol:NFTAuctionFactory","label":"auctionCreator","offset":0,"slot":"3","type":"t_mapping(t_address,t_address)"},{"astId":2984,"contract":"contracts/task3/NFTAuctionFactory.sol:NFTAuctionFactory","label":"isAuctionPlatform","offset":0,"slot":"4","type":"t_mapping(t_address,t_bool)"},{"astId":2993,"contract":"contracts/task3/NFTAuctionFactory.sol:NFTAuctionFactory","label":"defaultPriceFeeds","offset":0,"slot":"5","type":"t_array(t_struct(PriceFeedConfig)2989_storage)dyn_storage"}],"types":{"t_address":{"encoding":"inplace","label":"address","numberOfBytes":"20"},"t_array(t_address)dyn_storage":{"base":"t_address","encoding":"dynamic_array","label":"address[]","numberOfBytes":"32"},"t_array(t_struct(PriceFeedConfig)2989_storage)dyn_storage":{"base":"t_struct(PriceFeedConfig)2989_storage","encoding":"dynamic_array","label":"struct NFTAuctionFactory.PriceFeedConfig[]","numberOfBytes":"32"},"t_bool":{"encoding":"inplace","label":"bool","numberOfBytes":"1"},"t_mapping(t_address,t_address)":{"encoding":"mapping","key":"t_address","label":"mapping(address => address)","numberOfBytes":"32","value":"t_address"},"t_mapping(t_address,t_array(t_address)dyn_storage)":{"encoding":"mapping","key":"t_address","label":"mapping(address => address[])","numberOfBytes":"32","value":"t_array(t_address)dyn_storage"},"t_mapping(t_address,t_bool)":{"encoding":"mapping","key":"t_address","label":"mapping(address => bool)","numberOfBytes":"32","value":"t_bool"},"t_struct(PriceFeedConfig)2989_storage":{"encoding":"inplace","label":"struct NFTAuctionFactory.PriceFeedConfig","members":[{"astId":2986,"contract":"contracts/task3/NFTAuctionFactory.sol:NFTAuctionFactory","label":"token","offset":0,"slot":"0","type":"t_address"},{"astId":2988,"contract":"contracts/task3/NFTAuctionFactory.sol:NFTAuctionFactory","label":"priceFeed","offset":0,"slot":"1","type":"t_address"}],"numberOfBytes":"64"}}},"userdoc":{"kind":"user","methods":{},"version":1}}}}