{"contracts/test/CallDelegateCallTest.sol":{"StorageConflictDemo":{"abi":[{"inputs":[{"internalType":"address","name":"","type":"address"}],"name":"balances","outputs":[{"internalType":"uint256","name":"","type":"uint256"}],"stateMutability":"view","type":"function"},{"inputs":[],"name":"owner","outputs":[{"internalType":"address","name":"","type":"address"}],"stateMutability":"view","type":"function"},{"inputs":[{"internalType":"address","name":"account","type":"address"},{"internalType":"uint256","name":"amount","type":"uint256"}],"name":"setBalance","outputs":[],"stateMutability":"nonpayable","type":"function"},{"inputs":[{"internalType":"uint256","name":"_value1","type":"uint256"},{"internalType":"uint256","name":"_value2","type":"uint256"}],"name":"setValues","outputs":[],"stateMutability":"nonpayable","type":"function"},{"inputs":[],"name":"value1","outputs":[{"internalType":"uint256","name":"","type":"uint256"}],"stateMutability":"view","type":"function"},{"inputs":[],"name":"value2","outputs":[{"internalType":"uint256","name":"","type":"uint256"}],"stateMutability":"view","type":"function"}],"devdoc":{"kind":"dev","methods":{},"version":1},"evm":{"bytecode":{"linkReferences":{},"object":"60808060405234610016576101a8908161001c8239f35b600080fdfe60806040818152600436101561001457600080fd5b600091823560e01c90816327e235e31461011f575080633033413b146101015780635d33a27f146100e35780638da5cb5b146100bc5780639c3dfaf61461009a5763e30443bc1461006457600080fd5b346100965780600319360112610096576001600160a01b03610084610157565b16825260036020526024359082205580f35b5080fd5b5034610096573660031901126100b95760043560015560243560025580f35b80fd5b5034610096578160031936011261009657905490516001600160a01b039091168152602090f35b50346100965781600319360112610096576020906002549051908152f35b50346100965781600319360112610096576020906001549051908152f35b91905034610153576020366003190112610153576020926001600160a01b03610146610157565b1681526003845220548152f35b8280fd5b600435906001600160a01b038216820361016d57565b600080fdfea26469706673582212204806a64077b4427872ace3f64a7749bbf3c8549a817e426d379a38464805412764736f6c63430008160033","opcodes":"PUSH1 0x80 DUP1 PUSH1 0x40 MSTORE CALLVALUE PUSH2 0x16 JUMPI PUSH2 0x1A8 SWAP1 DUP2 PUSH2 0x1C DUP3 CODECOPY RETURN JUMPDEST PUSH1 0x0 DUP1 REVERT INVALID PUSH1 0x80 PUSH1 0x40 DUP2 DUP2 MSTORE PUSH1 0x4 CALLDATASIZE LT ISZERO PUSH2 0x14 JUMPI PUSH1 0x0 DUP1 REVERT JUMPDEST PUSH1 0x0 SWAP2 DUP3 CALLDATALOAD PUSH1 0xE0 SHR SWAP1 DUP2 PUSH4 0x27E235E3 EQ PUSH2 0x11F JUMPI POP DUP1 PUSH4 0x3033413B EQ PUSH2 0x101 JUMPI DUP1 PUSH4 0x5D33A27F EQ PUSH2 0xE3 JUMPI DUP1 PUSH4 0x8DA5CB5B EQ PUSH2 0xBC JUMPI DUP1 PUSH4 0x9C3DFAF6 EQ PUSH2 0x9A JUMPI PUSH4 0xE30443BC EQ PUSH2 0x64 JUMPI PUSH1 0x0 DUP1 REVERT JUMPDEST CALLVALUE PUSH2 0x96 JUMPI DUP1 PUSH1 0x3 NOT CALLDATASIZE ADD SLT PUSH2 0x96 JUMPI PUSH1 0x1 PUSH1 0x1 PUSH1 0xA0 SHL SUB PUSH2 0x84 PUSH2 0x157 JUMP JUMPDEST AND DUP3 MSTORE PUSH1 0x3 PUSH1 0x20 MSTORE PUSH1 0x24 CALLDATALOAD SWAP1 DUP3 KECCAK256 SSTORE DUP1 RETURN JUMPDEST POP DUP1 REVERT JUMPDEST POP CALLVALUE PUSH2 0x96 JUMPI CALLDATASIZE PUSH1 0x3 NOT ADD SLT PUSH2 0xB9 JUMPI PUSH1 0x4 CALLDATALOAD PUSH1 0x1 SSTORE PUSH1 0x24 CALLDATALOAD PUSH1 0x2 SSTORE DUP1 RETURN JUMPDEST DUP1 REVERT JUMPDEST POP CALLVALUE PUSH2 0x96 JUMPI DUP2 PUSH1 0x3 NOT CALLDATASIZE ADD SLT PUSH2 0x96 JUMPI SWAP1 SLOAD SWAP1 MLOAD PUSH1 0x1 PUSH1 0x1 PUSH1 0xA0 SHL SUB SWAP1 SWAP2 AND DUP2 MSTORE PUSH1 0x20 SWAP1 RETURN JUMPDEST POP CALLVALUE PUSH2 0x96 JUMPI DUP2 PUSH1 0x3 NOT CALLDATASIZE ADD SLT PUSH2 0x96 JUMPI PUSH1 0x20 SWAP1 PUSH1 0x2 SLOAD SWAP1 MLOAD SWAP1 DUP2 MSTORE RETURN JUMPDEST POP CALLVALUE PUSH2 0x96 JUMPI DUP2 PUSH1 0x3 NOT CALLDATASIZE ADD SLT PUSH2 0x96 JUMPI PUSH1 0x20 SWAP1 PUSH1 0x1 SLOAD SWAP1 MLOAD SWAP1 DUP2 MSTORE RETURN JUMPDEST SWAP2 SWAP1 POP CALLVALUE PUSH2 0x153 JUMPI PUSH1 0x20 CALLDATASIZE PUSH1 0x3 NOT ADD SLT PUSH2 0x153 JUMPI PUSH1 0x20 SWAP3 PUSH1 0x1 PUSH1 0x1 PUSH1 0xA0 SHL SUB PUSH2 0x146 PUSH2 0x157 JUMP JUMPDEST AND DUP2 MSTORE PUSH1 0x3 DUP5 MSTORE KECCAK256 SLOAD DUP2 MSTORE RETURN JUMPDEST DUP3 DUP1 REVERT JUMPDEST PUSH1 0x4 CALLDATALOAD SWAP1 PUSH1 0x1 PUSH1 0x1 PUSH1 0xA0 SHL SUB DUP3 AND DUP3 SUB PUSH2 0x16D JUMPI JUMP JUMPDEST PUSH1 0x0 DUP1 REVERT INVALID LOG2 PUSH5 0x6970667358 0x22 SLT KECCAK256 BASEFEE MOD 0xA6 BLOCKHASH PUSH24 0xB4427872ACE3F64A7749BBF3C8549A817E426D379A384648 SDIV COINBASE 0x27 PUSH5 0x736F6C6343 STOP ADDMOD AND STOP CALLER "},"gasEstimates":{"creation":{"codeDepositCost":"84800","executionCost":"141","totalCost":"84941"},"external":{"balances(address)":"2412","owner()":"2359","setBalance(address,uint256)":"22510","setValues(uint256,uint256)":"44448","value1()":"2294","value2()":"2316"}},"methodIdentifiers":{"balances(address)":"27e235e3","owner()":"8da5cb5b","setBalance(address,uint256)":"e30443bc","setValues(uint256,uint256)":"9c3dfaf6","value1()":"3033413b","value2()":"5d33a27f"}},"storageLayout":{"storage":[{"astId":188,"contract":"contracts/test/CallDelegateCallTest.sol:StorageConflictDemo","label":"owner","offset":0,"slot":"0","type":"t_address"},{"astId":190,"contract":"contracts/test/CallDelegateCallTest.sol:StorageConflictDemo","label":"value1","offset":0,"slot":"1","type":"t_uint256"},{"astId":192,"contract":"contracts/test/CallDelegateCallTest.sol:StorageConflictDemo","label":"value2","offset":0,"slot":"2","type":"t_uint256"},{"astId":196,"contract":"contracts/test/CallDelegateCallTest.sol:StorageConflictDemo","label":"balances","offset":0,"slot":"3","type":"t_mapping(t_address,t_uint256)"}],"types":{"t_address":{"encoding":"inplace","label":"address","numberOfBytes":"20"},"t_mapping(t_address,t_uint256)":{"encoding":"mapping","key":"t_address","label":"mapping(address => uint256)","numberOfBytes":"32","value":"t_uint256"},"t_uint256":{"encoding":"inplace","label":"uint256","numberOfBytes":"32"}}},"userdoc":{"kind":"user","methods":{},"version":1}}}}