{"contracts/test/CallDelegateCallTest.sol":{"CallTestCaller":{"abi":[{"inputs":[],"name":"contractAddress","outputs":[{"internalType":"address","name":"","type":"address"}],"stateMutability":"view","type":"function"},{"inputs":[],"name":"getCurrentState","outputs":[{"internalType":"uint256","name":"","type":"uint256"},{"internalType":"address","name":"","type":"address"},{"internalType":"address","name":"","type":"address"}],"stateMutability":"view","type":"function"},{"inputs":[],"name":"reset","outputs":[],"stateMutability":"nonpayable","type":"function"},{"inputs":[],"name":"sender","outputs":[{"internalType":"address","name":"","type":"address"}],"stateMutability":"view","type":"function"},{"inputs":[{"internalType":"address","name":"target","type":"address"},{"internalType":"uint256","name":"_value","type":"uint256"}],"name":"testCall","outputs":[],"stateMutability":"nonpayable","type":"function"},{"inputs":[{"internalType":"address","name":"target","type":"address"},{"internalType":"uint256","name":"_value","type":"uint256"}],"name":"testDelegateCall","outputs":[],"stateMutability":"nonpayable","type":"function"},{"inputs":[],"name":"value","outputs":[{"internalType":"uint256","name":"","type":"uint256"}],"stateMutability":"view","type":"function"}],"devdoc":{"kind":"dev","methods":{},"version":1},"evm":{"bytecode":{"linkReferences":{},"object":"608080604052346100165761032e908161001c8239f35b600080fdfe60806040818152600436101561001457600080fd5b600091823560e01c908163378aa70114610216575080633fa4f245146101fa57806359c75ada1461017e57806367e404ce14610156578063c3ffae73146100d3578063d826f88f1461009a5763f6b4dfb41461006f57600080fd5b3461009657816003193601126100965760025490516001600160a01b039091168152602090f35b5080fd5b82346100d057806003193601126100d0578080556bffffffffffffffffffffffff60a01b80600154166001556002541660025580f35b80fd5b50346100965781806100e436610250565b845160208101916366452af160e11b83526024820152602481526101078161027b565b51915af46101136102ad565b501561011d575080f35b5162461bcd60e51b815260206004820152601360248201527211195b1959d85d1950d85b1b0819985a5b1959606a1b6044820152606490fd5b503461009657816003193601126100965760015490516001600160a01b039091168152602090f35b503461009657818061018f36610250565b82855160208101926366452af160e11b84526024820152602481526101b38161027b565b51925af16101bf6102ad565b50156101c9575080f35b5162461bcd60e51b815260206004820152600b60248201526a10d85b1b0819985a5b195960aa1b6044820152606490fd5b5034610096578160031936011261009657602091549051908152f35b9190503461024c578260031936011261024c57606092549060018060a01b03806001541690600254169284526020840152820152f35b8280fd5b6040906003190112610276576004356001600160a01b0381168103610276579060243590565b600080fd5b6060810190811067ffffffffffffffff82111761029757604052565b634e487b7160e01b600052604160045260246000fd5b3d156102f35767ffffffffffffffff903d8281116102975760405192601f8201601f19908116603f01168401908111848210176102975760405282523d6000602084013e565b60609056fea2646970667358221220b49b8a17c9458522e2287eaa6442043b3d491025fd6febca296e4657aa9c698564736f6c63430008160033","opcodes":"PUSH1 0x80 DUP1 PUSH1 0x40 MSTORE CALLVALUE PUSH2 0x16 JUMPI PUSH2 0x32E SWAP1 DUP2 PUSH2 0x1C DUP3 CODECOPY RETURN JUMPDEST PUSH1 0x0 DUP1 REVERT INVALID PUSH1 0x80 PUSH1 0x40 DUP2 DUP2 MSTORE PUSH1 0x4 CALLDATASIZE LT ISZERO PUSH2 0x14 JUMPI PUSH1 0x0 DUP1 REVERT JUMPDEST PUSH1 0x0 SWAP2 DUP3 CALLDATALOAD PUSH1 0xE0 SHR SWAP1 DUP2 PUSH4 0x378AA701 EQ PUSH2 0x216 JUMPI POP DUP1 PUSH4 0x3FA4F245 EQ PUSH2 0x1FA JUMPI DUP1 PUSH4 0x59C75ADA EQ PUSH2 0x17E JUMPI DUP1 PUSH4 0x67E404CE EQ PUSH2 0x156 JUMPI DUP1 PUSH4 0xC3FFAE73 EQ PUSH2 0xD3 JUMPI DUP1 PUSH4 0xD826F88F EQ PUSH2 0x9A JUMPI PUSH4 0xF6B4DFB4 EQ PUSH2 0x6F JUMPI PUSH1 0x0 DUP1 REVERT JUMPDEST CALLVALUE PUSH2 0x96 JUMPI DUP2 PUSH1 0x3 NOT CALLDATASIZE ADD SLT PUSH2 0x96 JUMPI PUSH1 0x2 SLOAD SWAP1 MLOAD PUSH1 0x1 PUSH1 0x1 PUSH1 0xA0 SHL SUB SWAP1 SWAP2 AND DUP2 MSTORE PUSH1 0x20 SWAP1 RETURN JUMPDEST POP DUP1 REVERT JUMPDEST DUP3 CALLVALUE PUSH2 0xD0 JUMPI DUP1 PUSH1 0x3 NOT CALLDATASIZE ADD SLT PUSH2 0xD0 JUMPI DUP1 DUP1 SSTORE PUSH12 0xFFFFFFFFFFFFFFFFFFFFFFFF PUSH1 0xA0 SHL DUP1 PUSH1 0x1 SLOAD AND PUSH1 0x1 SSTORE PUSH1 0x2 SLOAD AND PUSH1 0x2 SSTORE DUP1 RETURN JUMPDEST DUP1 REVERT JUMPDEST POP CALLVALUE PUSH2 0x96 JUMPI DUP2 DUP1 PUSH2 0xE4 CALLDATASIZE PUSH2 0x250 JUMP JUMPDEST DUP5 MLOAD PUSH1 0x20 DUP2 ADD SWAP2 PUSH4 0x66452AF1 PUSH1 0xE1 SHL DUP4 MSTORE PUSH1 0x24 DUP3 ADD MSTORE PUSH1 0x24 DUP2 MSTORE PUSH2 0x107 DUP2 PUSH2 0x27B JUMP JUMPDEST MLOAD SWAP2 GAS DELEGATECALL PUSH2 0x113 PUSH2 0x2AD JUMP JUMPDEST POP ISZERO PUSH2 0x11D JUMPI POP DUP1 RETURN JUMPDEST MLOAD PUSH3 0x461BCD PUSH1 0xE5 SHL DUP2 MSTORE PUSH1 0x20 PUSH1 0x4 DUP3 ADD MSTORE PUSH1 0x13 PUSH1 0x24 DUP3 ADD MSTORE PUSH19 0x11195B1959D85D1950D85B1B0819985A5B1959 PUSH1 0x6A SHL PUSH1 0x44 DUP3 ADD MSTORE PUSH1 0x64 SWAP1 REVERT JUMPDEST POP CALLVALUE PUSH2 0x96 JUMPI DUP2 PUSH1 0x3 NOT CALLDATASIZE ADD SLT PUSH2 0x96 JUMPI PUSH1 0x1 SLOAD SWAP1 MLOAD PUSH1 0x1 PUSH1 0x1 PUSH1 0xA0 SHL SUB SWAP1 SWAP2 AND DUP2 MSTORE PUSH1 0x20 SWAP1 RETURN JUMPDEST POP CALLVALUE PUSH2 0x96 JUMPI DUP2 DUP1 PUSH2 0x18F CALLDATASIZE PUSH2 0x250 JUMP JUMPDEST DUP3 DUP6 MLOAD PUSH1 0x20 DUP2 ADD SWAP3 PUSH4 0x66452AF1 PUSH1 0xE1 SHL DUP5 MSTORE PUSH1 0x24 DUP3 ADD MSTORE PUSH1 0x24 DUP2 MSTORE PUSH2 0x1B3 DUP2 PUSH2 0x27B JUMP JUMPDEST MLOAD SWAP3 GAS CALL PUSH2 0x1BF PUSH2 0x2AD JUMP JUMPDEST POP ISZERO PUSH2 0x1C9 JUMPI POP DUP1 RETURN JUMPDEST MLOAD PUSH3 0x461BCD PUSH1 0xE5 SHL DUP2 MSTORE PUSH1 0x20 PUSH1 0x4 DUP3 ADD MSTORE PUSH1 0xB PUSH1 0x24 DUP3 ADD MSTORE PUSH11 0x10D85B1B0819985A5B1959 PUSH1 0xAA SHL PUSH1 0x44 DUP3 ADD MSTORE PUSH1 0x64 SWAP1 REVERT JUMPDEST POP CALLVALUE PUSH2 0x96 JUMPI DUP2 PUSH1 0x3 NOT CALLDATASIZE ADD SLT PUSH2 0x96 JUMPI PUSH1 0x20 SWAP2 SLOAD SWAP1 MLOAD SWAP1 DUP2 MSTORE RETURN JUMPDEST SWAP2 SWAP1 POP CALLVALUE PUSH2 0x24C JUMPI DUP3 PUSH1 0x3 NOT CALLDATASIZE ADD SLT PUSH2 0x24C JUMPI PUSH1 0x60 SWAP3 SLOAD SWAP1 PUSH1 0x1 DUP1 PUSH1 0xA0 SHL SUB DUP1 PUSH1 0x1 SLOAD AND SWAP1 PUSH1 0x2 SLOAD AND SWAP3 DUP5 MSTORE PUSH1 0x20 DUP5 ADD MSTORE DUP3 ADD MSTORE RETURN JUMPDEST DUP3 DUP1 REVERT JUMPDEST PUSH1 0x40 SWAP1 PUSH1 0x3 NOT ADD SLT PUSH2 0x276 JUMPI PUSH1 0x4 CALLDATALOAD PUSH1 0x1 PUSH1 0x1 PUSH1 0xA0 SHL SUB DUP2 AND DUP2 SUB PUSH2 0x276 JUMPI SWAP1 PUSH1 0x24 CALLDATALOAD SWAP1 JUMP JUMPDEST PUSH1 0x0 DUP1 REVERT JUMPDEST PUSH1 0x60 DUP2 ADD SWAP1 DUP2 LT PUSH8 0xFFFFFFFFFFFFFFFF DUP3 GT OR PUSH2 0x297 JUMPI PUSH1 0x40 MSTORE JUMP JUMPDEST PUSH4 0x4E487B71 PUSH1 0xE0 SHL PUSH1 0x0 MSTORE PUSH1 0x41 PUSH1 0x4 MSTORE PUSH1 0x24 PUSH1 0x0 REVERT JUMPDEST RETURNDATASIZE ISZERO PUSH2 0x2F3 JUMPI PUSH8 0xFFFFFFFFFFFFFFFF SWAP1 RETURNDATASIZE DUP3 DUP2 GT PUSH2 0x297 JUMPI PUSH1 0x40 MLOAD SWAP3 PUSH1 0x1F DUP3 ADD PUSH1 0x1F NOT SWAP1 DUP2 AND PUSH1 0x3F ADD AND DUP5 ADD SWAP1 DUP2 GT DUP5 DUP3 LT OR PUSH2 0x297 JUMPI PUSH1 0x40 MSTORE DUP3 MSTORE RETURNDATASIZE PUSH1 0x0 PUSH1 0x20 DUP5 ADD RETURNDATACOPY JUMP JUMPDEST PUSH1 0x60 SWAP1 JUMP INVALID LOG2 PUSH5 0x6970667358 0x22 SLT KECCAK256 0xB4 SWAP12 DUP11 OR 0xC9 GASLIMIT DUP6 0x22 0xE2 0x28 PUSH31 0xAA6442043B3D491025FD6FEBCA296E4657AA9C698564736F6C634300081600 CALLER "},"gasEstimates":{"creation":{"codeDepositCost":"162800","executionCost":"214","totalCost":"163014"},"external":{"contractAddress()":"2420","getCurrentState()":"6530","reset()":"53692","sender()":"2359","testCall(address,uint256)":"infinite","testDelegateCall(address,uint256)":"infinite","value()":"2291"}},"methodIdentifiers":{"contractAddress()":"f6b4dfb4","getCurrentState()":"378aa701","reset()":"d826f88f","sender()":"67e404ce","testCall(address,uint256)":"59c75ada","testDelegateCall(address,uint256)":"c3ffae73","value()":"3fa4f245"}},"storageLayout":{"storage":[{"astId":70,"contract":"contracts/test/CallDelegateCallTest.sol:CallTestCaller","label":"value","offset":0,"slot":"0","type":"t_uint256"},{"astId":72,"contract":"contracts/test/CallDelegateCallTest.sol:CallTestCaller","label":"sender","offset":0,"slot":"1","type":"t_address"},{"astId":74,"contract":"contracts/test/CallDelegateCallTest.sol:CallTestCaller","label":"contractAddress","offset":0,"slot":"2","type":"t_address"}],"types":{"t_address":{"encoding":"inplace","label":"address","numberOfBytes":"20"},"t_uint256":{"encoding":"inplace","label":"uint256","numberOfBytes":"32"}}},"userdoc":{"kind":"user","methods":{},"version":1}}}}