{"contracts/test/CallDelegateCallTest.sol":{"CallTestTarget":{"abi":[{"inputs":[],"name":"contractAddress","outputs":[{"internalType":"address","name":"","type":"address"}],"stateMutability":"view","type":"function"},{"inputs":[],"name":"getCurrentState","outputs":[{"internalType":"uint256","name":"","type":"uint256"},{"internalType":"address","name":"","type":"address"},{"internalType":"address","name":"","type":"address"}],"stateMutability":"view","type":"function"},{"inputs":[],"name":"reset","outputs":[],"stateMutability":"nonpayable","type":"function"},{"inputs":[],"name":"sender","outputs":[{"internalType":"address","name":"","type":"address"}],"stateMutability":"view","type":"function"},{"inputs":[{"internalType":"uint256","name":"_value","type":"uint256"}],"name":"updateState","outputs":[],"stateMutability":"nonpayable","type":"function"},{"inputs":[],"name":"value","outputs":[{"internalType":"uint256","name":"","type":"uint256"}],"stateMutability":"view","type":"function"}],"devdoc":{"details":"用于演示 call 和 delegatecall 的区别","kind":"dev","methods":{},"title":"Call vs DelegateCall 测试合约","version":1},"evm":{"bytecode":{"linkReferences":{},"object":"60808060405234610016576101ba908161001c8239f35b600080fdfe608080604052600436101561001357600080fd5b600090813560e01c908163378aa70114610148575080633fa4f2451461012b57806367e404ce14610102578063cc8a55e2146100c4578063d826f88f1461008e5763f6b4dfb41461006357600080fd5b3461008b578060031936011261008b576002546040516001600160a01b039091168152602090f35b80fd5b503461008b578060031936011261008b578080556bffffffffffffffffffffffff60a01b80600154166001556002541660025580f35b503461008b57602036600319011261008b5760043581556bffffffffffffffffffffffff60a01b338160015416176001553090600254161760025580f35b503461008b578060031936011261008b576001546040516001600160a01b039091168152602090f35b503461008b578060031936011261008b5760209054604051908152f35b90503461018057816003193601126101805790546001546002549183526001600160a01b039081166020840152166040820152606090f35b5080fdfea2646970667358221220a7fe194e5251737b974e04a6eefb4eee139ca6824498bb1c241879bea59324b964736f6c63430008160033","opcodes":"PUSH1 0x80 DUP1 PUSH1 0x40 MSTORE CALLVALUE PUSH2 0x16 JUMPI PUSH2 0x1BA SWAP1 DUP2 PUSH2 0x1C DUP3 CODECOPY RETURN JUMPDEST PUSH1 0x0 DUP1 REVERT INVALID PUSH1 0x80 DUP1 PUSH1 0x40 MSTORE PUSH1 0x4 CALLDATASIZE LT ISZERO PUSH2 0x13 JUMPI PUSH1 0x0 DUP1 REVERT JUMPDEST PUSH1 0x0 SWAP1 DUP2 CALLDATALOAD PUSH1 0xE0 SHR SWAP1 DUP2 PUSH4 0x378AA701 EQ PUSH2 0x148 JUMPI POP DUP1 PUSH4 0x3FA4F245 EQ PUSH2 0x12B JUMPI DUP1 PUSH4 0x67E404CE EQ PUSH2 0x102 JUMPI DUP1 PUSH4 0xCC8A55E2 EQ PUSH2 0xC4 JUMPI DUP1 PUSH4 0xD826F88F EQ PUSH2 0x8E JUMPI PUSH4 0xF6B4DFB4 EQ PUSH2 0x63 JUMPI PUSH1 0x0 DUP1 REVERT JUMPDEST CALLVALUE PUSH2 0x8B JUMPI DUP1 PUSH1 0x3 NOT CALLDATASIZE ADD SLT PUSH2 0x8B JUMPI PUSH1 0x2 SLOAD PUSH1 0x40 MLOAD PUSH1 0x1 PUSH1 0x1 PUSH1 0xA0 SHL SUB SWAP1 SWAP2 AND DUP2 MSTORE PUSH1 0x20 SWAP1 RETURN JUMPDEST DUP1 REVERT JUMPDEST POP CALLVALUE PUSH2 0x8B JUMPI DUP1 PUSH1 0x3 NOT CALLDATASIZE ADD SLT PUSH2 0x8B JUMPI DUP1 DUP1 SSTORE PUSH12 0xFFFFFFFFFFFFFFFFFFFFFFFF PUSH1 0xA0 SHL DUP1 PUSH1 0x1 SLOAD AND PUSH1 0x1 SSTORE PUSH1 0x2 SLOAD AND PUSH1 0x2 SSTORE DUP1 RETURN JUMPDEST POP CALLVALUE PUSH2 0x8B JUMPI PUSH1 0x20 CALLDATASIZE PUSH1 0x3 NOT ADD SLT PUSH2 0x8B JUMPI PUSH1 0x4 CALLDATALOAD DUP2 SSTORE PUSH12 0xFFFFFFFFFFFFFFFFFFFFFFFF PUSH1 0xA0 SHL CALLER DUP2 PUSH1 0x1 SLOAD AND OR PUSH1 0x1 SSTORE ADDRESS SWAP1 PUSH1 0x2 SLOAD AND OR PUSH1 0x2 SSTORE DUP1 RETURN JUMPDEST POP CALLVALUE PUSH2 0x8B JUMPI DUP1 PUSH1 0x3 NOT CALLDATASIZE ADD SLT PUSH2 0x8B JUMPI PUSH1 0x1 SLOAD PUSH1 0x40 MLOAD PUSH1 0x1 PUSH1 0x1 PUSH1 0xA0 SHL SUB SWAP1 SWAP2 AND DUP2 MSTORE PUSH1 0x20 SWAP1 RETURN JUMPDEST POP CALLVALUE PUSH2 0x8B JUMPI DUP1 PUSH1 0x3 NOT CALLDATASIZE ADD SLT PUSH2 0x8B JUMPI PUSH1 0x20 SWAP1 SLOAD PUSH1 0x40 MLOAD SWAP1 DUP2 MSTORE RETURN JUMPDEST SWAP1 POP CALLVALUE PUSH2 0x180 JUMPI DUP2 PUSH1 0x3 NOT CALLDATASIZE ADD SLT PUSH2 0x180 JUMPI SWAP1 SLOAD PUSH1 0x1 SLOAD PUSH1 0x2 SLOAD SWAP2 DUP4 MSTORE PUSH1 0x1 PUSH1 0x1 PUSH1 0xA0 SHL SUB SWAP1 DUP2 AND PUSH1 0x20 DUP5 ADD MSTORE AND PUSH1 0x40 DUP3 ADD MSTORE PUSH1 0x60 SWAP1 RETURN JUMPDEST POP DUP1 REVERT INVALID LOG2 PUSH5 0x6970667358 0x22 SLT KECCAK256 0xA7 INVALID NOT 0x4E MSTORE MLOAD PUSH20 0x7B974E04A6EEFB4EEE139CA6824498BB1C241879 0xBE 0xA5 SWAP4 0x24 0xB9 PUSH5 0x736F6C6343 STOP ADDMOD AND STOP CALLER "},"gasEstimates":{"creation":{"codeDepositCost":"88400","executionCost":"141","totalCost":"88541"},"external":{"contractAddress()":"2395","getCurrentState()":"6527","reset()":"53666","sender()":"2334","updateState(uint256)":"70760","value()":"2288"}},"methodIdentifiers":{"contractAddress()":"f6b4dfb4","getCurrentState()":"378aa701","reset()":"d826f88f","sender()":"67e404ce","updateState(uint256)":"cc8a55e2","value()":"3fa4f245"}},"storageLayout":{"storage":[{"astId":4,"contract":"contracts/test/CallDelegateCallTest.sol:CallTestTarget","label":"value","offset":0,"slot":"0","type":"t_uint256"},{"astId":6,"contract":"contracts/test/CallDelegateCallTest.sol:CallTestTarget","label":"sender","offset":0,"slot":"1","type":"t_address"},{"astId":8,"contract":"contracts/test/CallDelegateCallTest.sol:CallTestTarget","label":"contractAddress","offset":0,"slot":"2","type":"t_address"}],"types":{"t_address":{"encoding":"inplace","label":"address","numberOfBytes":"20"},"t_uint256":{"encoding":"inplace","label":"uint256","numberOfBytes":"32"}}},"userdoc":{"kind":"user","methods":{},"version":1}}}}