{"contracts/test/CallDelegateCallTest.sol":{"EIP1967Demo":{"abi":[{"inputs":[],"name":"getAdmin","outputs":[{"internalType":"address","name":"","type":"address"}],"stateMutability":"view","type":"function"},{"inputs":[],"name":"getImplementation","outputs":[{"internalType":"address","name":"","type":"address"}],"stateMutability":"view","type":"function"},{"inputs":[],"name":"regularAddress","outputs":[{"internalType":"address","name":"","type":"address"}],"stateMutability":"view","type":"function"},{"inputs":[],"name":"regularValue1","outputs":[{"internalType":"uint256","name":"","type":"uint256"}],"stateMutability":"view","type":"function"},{"inputs":[],"name":"regularValue2","outputs":[{"internalType":"uint256","name":"","type":"uint256"}],"stateMutability":"view","type":"function"},{"inputs":[{"internalType":"address","name":"newAdmin","type":"address"}],"name":"setAdmin","outputs":[],"stateMutability":"nonpayable","type":"function"},{"inputs":[{"internalType":"address","name":"newImplementation","type":"address"}],"name":"setImplementation","outputs":[],"stateMutability":"nonpayable","type":"function"}],"devdoc":{"kind":"dev","methods":{},"version":1},"evm":{"bytecode":{"linkReferences":{},"object":"6080806040523461001657610227908161001c8239f35b600080fdfe6080604052600436101561001257600080fd5b6000803560e01c908163502ac2401461008a575080636e9960c314610085578063704b6c0214610080578063aaf10f421461007b578063c1dd2c1014610076578063cbe50673146100715763d784d4261461006c57600080fd5b6101bf565b6101a1565b610178565b61013c565b61010a565b6100a7565b346100a457806003193601126100a4575460805260206080f35b80fd5b346100e35760003660031901126100e3577fb53127684a568b3173ae13b9f8a6016e243e63b6e8ee1178d6a717850b5d61035460005260206000f35b600080fd5b60209060031901126100e3576004356001600160a01b03811681036100e35790565b346100e357610118366100e8565b7fb53127684a568b3173ae13b9f8a6016e243e63b6e8ee1178d6a717850b5d610355005b346100e35760003660031901126100e3577f360894a13ba1a3210667c828492db98dca3e2076cc3735a920a3ca505d382bbc5460005260206000f35b346100e35760003660031901126100e3576002546040516001600160a01b039091168152602090f35b346100e35760003660031901126100e3576020600154604051908152f35b346100e3576101cd366100e8565b7f360894a13ba1a3210667c828492db98dca3e2076cc3735a920a3ca505d382bbc5500fea26469706673582212208574851ef847c19526624ea24413da6d09277c0aa0067213d1d88f25080b94b964736f6c63430008160033","opcodes":"PUSH1 0x80 DUP1 PUSH1 0x40 MSTORE CALLVALUE PUSH2 0x16 JUMPI PUSH2 0x227 SWAP1 DUP2 PUSH2 0x1C DUP3 CODECOPY RETURN JUMPDEST PUSH1 0x0 DUP1 REVERT INVALID PUSH1 0x80 PUSH1 0x40 MSTORE PUSH1 0x4 CALLDATASIZE LT ISZERO PUSH2 0x12 JUMPI PUSH1 0x0 DUP1 REVERT JUMPDEST PUSH1 0x0 DUP1 CALLDATALOAD PUSH1 0xE0 SHR SWAP1 DUP2 PUSH4 0x502AC240 EQ PUSH2 0x8A JUMPI POP DUP1 PUSH4 0x6E9960C3 EQ PUSH2 0x85 JUMPI DUP1 PUSH4 0x704B6C02 EQ PUSH2 0x80 JUMPI DUP1 PUSH4 0xAAF10F42 EQ PUSH2 0x7B JUMPI DUP1 PUSH4 0xC1DD2C10 EQ PUSH2 0x76 JUMPI DUP1 PUSH4 0xCBE50673 EQ PUSH2 0x71 JUMPI PUSH4 0xD784D426 EQ PUSH2 0x6C JUMPI PUSH1 0x0 DUP1 REVERT JUMPDEST PUSH2 0x1BF JUMP JUMPDEST PUSH2 0x1A1 JUMP JUMPDEST PUSH2 0x178 JUMP JUMPDEST PUSH2 0x13C JUMP JUMPDEST PUSH2 0x10A JUMP JUMPDEST PUSH2 0xA7 JUMP JUMPDEST CALLVALUE PUSH2 0xA4 JUMPI DUP1 PUSH1 0x3 NOT CALLDATASIZE ADD SLT PUSH2 0xA4 JUMPI SLOAD PUSH1 0x80 MSTORE PUSH1 0x20 PUSH1 0x80 RETURN JUMPDEST DUP1 REVERT JUMPDEST CALLVALUE PUSH2 0xE3 JUMPI PUSH1 0x0 CALLDATASIZE PUSH1 0x3 NOT ADD SLT PUSH2 0xE3 JUMPI PUSH32 0xB53127684A568B3173AE13B9F8A6016E243E63B6E8EE1178D6A717850B5D6103 SLOAD PUSH1 0x0 MSTORE PUSH1 0x20 PUSH1 0x0 RETURN JUMPDEST PUSH1 0x0 DUP1 REVERT JUMPDEST PUSH1 0x20 SWAP1 PUSH1 0x3 NOT ADD SLT PUSH2 0xE3 JUMPI PUSH1 0x4 CALLDATALOAD PUSH1 0x1 PUSH1 0x1 PUSH1 0xA0 SHL SUB DUP2 AND DUP2 SUB PUSH2 0xE3 JUMPI SWAP1 JUMP JUMPDEST CALLVALUE PUSH2 0xE3 JUMPI PUSH2 0x118 CALLDATASIZE PUSH2 0xE8 JUMP JUMPDEST PUSH32 0xB53127684A568B3173AE13B9F8A6016E243E63B6E8EE1178D6A717850B5D6103 SSTORE STOP JUMPDEST CALLVALUE PUSH2 0xE3 JUMPI PUSH1 0x0 CALLDATASIZE PUSH1 0x3 NOT ADD SLT PUSH2 0xE3 JUMPI PUSH32 0x360894A13BA1A3210667C828492DB98DCA3E2076CC3735A920A3CA505D382BBC SLOAD PUSH1 0x0 MSTORE PUSH1 0x20 PUSH1 0x0 RETURN JUMPDEST CALLVALUE PUSH2 0xE3 JUMPI PUSH1 0x0 CALLDATASIZE PUSH1 0x3 NOT ADD SLT PUSH2 0xE3 JUMPI PUSH1 0x2 SLOAD PUSH1 0x40 MLOAD PUSH1 0x1 PUSH1 0x1 PUSH1 0xA0 SHL SUB SWAP1 SWAP2 AND DUP2 MSTORE PUSH1 0x20 SWAP1 RETURN JUMPDEST CALLVALUE PUSH2 0xE3 JUMPI PUSH1 0x0 CALLDATASIZE PUSH1 0x3 NOT ADD SLT PUSH2 0xE3 JUMPI PUSH1 0x20 PUSH1 0x1 SLOAD PUSH1 0x40 MLOAD SWAP1 DUP2 MSTORE RETURN JUMPDEST CALLVALUE PUSH2 0xE3 JUMPI PUSH2 0x1CD CALLDATASIZE PUSH2 0xE8 JUMP JUMPDEST PUSH32 0x360894A13BA1A3210667C828492DB98DCA3E2076CC3735A920A3CA505D382BBC SSTORE STOP INVALID LOG2 PUSH5 0x6970667358 0x22 SLT KECCAK256 DUP6 PUSH21 0x851EF847C19526624EA24413DA6D09277C0AA00672 SGT 0xD1 0xD8 DUP16 0x25 ADDMOD SIGNEXTEND SWAP5 0xB9 PUSH5 0x736F6C6343 STOP ADDMOD AND STOP CALLER "},"gasEstimates":{"creation":{"codeDepositCost":"110200","executionCost":"165","totalCost":"110365"},"external":{"getAdmin()":"2280","getImplementation()":"2324","regularAddress()":"2382","regularValue1()":"2247","regularValue2()":"2380","setAdmin(address)":"22366","setImplementation(address)":"22451"}},"methodIdentifiers":{"getAdmin()":"6e9960c3","getImplementation()":"aaf10f42","regularAddress()":"c1dd2c10","regularValue1()":"502ac240","regularValue2()":"cbe50673","setAdmin(address)":"704b6c02","setImplementation(address)":"d784d426"}},"storageLayout":{"storage":[{"astId":235,"contract":"contracts/test/CallDelegateCallTest.sol:EIP1967Demo","label":"regularValue1","offset":0,"slot":"0","type":"t_uint256"},{"astId":237,"contract":"contracts/test/CallDelegateCallTest.sol:EIP1967Demo","label":"regularValue2","offset":0,"slot":"1","type":"t_uint256"},{"astId":239,"contract":"contracts/test/CallDelegateCallTest.sol:EIP1967Demo","label":"regularAddress","offset":0,"slot":"2","type":"t_address"}],"types":{"t_address":{"encoding":"inplace","label":"address","numberOfBytes":"20"},"t_uint256":{"encoding":"inplace","label":"uint256","numberOfBytes":"32"}}},"userdoc":{"kind":"user","methods":{},"version":1}}}}