{"contracts/test/CallDelegateCallTest.sol":{"InitializerDemo":{"abi":[{"inputs":[{"internalType":"address","name":"_owner","type":"address"},{"internalType":"uint256","name":"_value","type":"uint256"}],"name":"initialize","outputs":[],"stateMutability":"nonpayable","type":"function"},{"inputs":[],"name":"owner","outputs":[{"internalType":"address","name":"","type":"address"}],"stateMutability":"view","type":"function"},{"inputs":[{"internalType":"uint256","name":"_value","type":"uint256"}],"name":"setValue","outputs":[],"stateMutability":"nonpayable","type":"function"},{"inputs":[],"name":"value","outputs":[{"internalType":"uint256","name":"","type":"uint256"}],"stateMutability":"view","type":"function"}],"devdoc":{"kind":"dev","methods":{},"version":1},"evm":{"bytecode":{"linkReferences":{},"object":"60808060405234610016576101c8908161001c8239f35b600080fdfe608080604052600436101561001357600080fd5b600090813560e01c9081633fa4f245146101765750806355241077146101155780638da5cb5b146100ea5763cd6dc6871461004d57600080fd5b346100e75760403660031901126100e7576004356001600160a01b03811681036100e357815460ff81166100a85760019160243583556101008360a81b039060081b16906affffffffffffffffffffff60a81b161717815580f35b60405162461bcd60e51b8152602060048201526013602482015272105b1c9958591e481a5b9a5d1a585b1a5e9959606a1b6044820152606490fd5b5080fd5b80fd5b50346100e757806003193601126100e7575460405160089190911c6001600160a01b03168152602090f35b50346100e75760203660031901126100e757805460081c6001600160a01b031633036101445760043560015580f35b60405162461bcd60e51b815260206004820152600a60248201526927b7363c9037bbb732b960b11b6044820152606490fd5b9050346100e357816003193601126100e3576020906001548152f3fea264697066735822122053fb18b6167d4376a903aa230dada5793cd4a2f09071e576a132d5594171ec8564736f6c63430008160033","opcodes":"PUSH1 0x80 DUP1 PUSH1 0x40 MSTORE CALLVALUE PUSH2 0x16 JUMPI PUSH2 0x1C8 SWAP1 DUP2 PUSH2 0x1C DUP3 CODECOPY RETURN JUMPDEST PUSH1 0x0 DUP1 REVERT INVALID PUSH1 0x80 DUP1 PUSH1 0x40 MSTORE PUSH1 0x4 CALLDATASIZE LT ISZERO PUSH2 0x13 JUMPI PUSH1 0x0 DUP1 REVERT JUMPDEST PUSH1 0x0 SWAP1 DUP2 CALLDATALOAD PUSH1 0xE0 SHR SWAP1 DUP2 PUSH4 0x3FA4F245 EQ PUSH2 0x176 JUMPI POP DUP1 PUSH4 0x55241077 EQ PUSH2 0x115 JUMPI DUP1 PUSH4 0x8DA5CB5B EQ PUSH2 0xEA JUMPI PUSH4 0xCD6DC687 EQ PUSH2 0x4D JUMPI PUSH1 0x0 DUP1 REVERT JUMPDEST CALLVALUE PUSH2 0xE7 JUMPI PUSH1 0x40 CALLDATASIZE PUSH1 0x3 NOT ADD SLT PUSH2 0xE7 JUMPI PUSH1 0x4 CALLDATALOAD PUSH1 0x1 PUSH1 0x1 PUSH1 0xA0 SHL SUB DUP2 AND DUP2 SUB PUSH2 0xE3 JUMPI DUP2 SLOAD PUSH1 0xFF DUP2 AND PUSH2 0xA8 JUMPI PUSH1 0x1 SWAP2 PUSH1 0x24 CALLDATALOAD DUP4 SSTORE PUSH2 0x100 DUP4 PUSH1 0xA8 SHL SUB SWAP1 PUSH1 0x8 SHL AND SWAP1 PUSH11 0xFFFFFFFFFFFFFFFFFFFFFF PUSH1 0xA8 SHL AND OR OR DUP2 SSTORE DUP1 RETURN JUMPDEST PUSH1 0x40 MLOAD PUSH3 0x461BCD PUSH1 0xE5 SHL DUP2 MSTORE PUSH1 0x20 PUSH1 0x4 DUP3 ADD MSTORE PUSH1 0x13 PUSH1 0x24 DUP3 ADD MSTORE PUSH19 0x105B1C9958591E481A5B9A5D1A585B1A5E9959 PUSH1 0x6A SHL PUSH1 0x44 DUP3 ADD MSTORE PUSH1 0x64 SWAP1 REVERT JUMPDEST POP DUP1 REVERT JUMPDEST DUP1 REVERT JUMPDEST POP CALLVALUE PUSH2 0xE7 JUMPI DUP1 PUSH1 0x3 NOT CALLDATASIZE ADD SLT PUSH2 0xE7 JUMPI SLOAD PUSH1 0x40 MLOAD PUSH1 0x8 SWAP2 SWAP1 SWAP2 SHR PUSH1 0x1 PUSH1 0x1 PUSH1 0xA0 SHL SUB AND DUP2 MSTORE PUSH1 0x20 SWAP1 RETURN JUMPDEST POP CALLVALUE PUSH2 0xE7 JUMPI PUSH1 0x20 CALLDATASIZE PUSH1 0x3 NOT ADD SLT PUSH2 0xE7 JUMPI DUP1 SLOAD PUSH1 0x8 SHR PUSH1 0x1 PUSH1 0x1 PUSH1 0xA0 SHL SUB AND CALLER SUB PUSH2 0x144 JUMPI PUSH1 0x4 CALLDATALOAD PUSH1 0x1 SSTORE DUP1 RETURN JUMPDEST PUSH1 0x40 MLOAD PUSH3 0x461BCD PUSH1 0xE5 SHL DUP2 MSTORE PUSH1 0x20 PUSH1 0x4 DUP3 ADD MSTORE PUSH1 0xA PUSH1 0x24 DUP3 ADD MSTORE PUSH10 0x27B7363C9037BBB732B9 PUSH1 0xB1 SHL PUSH1 0x44 DUP3 ADD MSTORE PUSH1 0x64 SWAP1 REVERT JUMPDEST SWAP1 POP CALLVALUE PUSH2 0xE3 JUMPI DUP2 PUSH1 0x3 NOT CALLDATASIZE ADD SLT PUSH2 0xE3 JUMPI PUSH1 0x20 SWAP1 PUSH1 0x1 SLOAD DUP2 MSTORE RETURN INVALID LOG2 PUSH5 0x6970667358 0x22 SLT KECCAK256 MSTORE8 0xFB XOR 0xB6 AND PUSH30 0x4376A903AA230DADA5793CD4A2F09071E576A132D5594171EC8564736F6C PUSH4 0x43000816 STOP CALLER "},"gasEstimates":{"creation":{"codeDepositCost":"91200","executionCost":"147","totalCost":"91347"},"external":{"initialize(address,uint256)":"46640","owner()":"2340","setValue(uint256)":"24418","value()":"2261"}},"methodIdentifiers":{"initialize(address,uint256)":"cd6dc687","owner()":"8da5cb5b","setValue(uint256)":"55241077","value()":"3fa4f245"}},"storageLayout":{"storage":[{"astId":270,"contract":"contracts/test/CallDelegateCallTest.sol:InitializerDemo","label":"initialized","offset":0,"slot":"0","type":"t_bool"},{"astId":272,"contract":"contracts/test/CallDelegateCallTest.sol:InitializerDemo","label":"owner","offset":1,"slot":"0","type":"t_address"},{"astId":274,"contract":"contracts/test/CallDelegateCallTest.sol:InitializerDemo","label":"value","offset":0,"slot":"1","type":"t_uint256"}],"types":{"t_address":{"encoding":"inplace","label":"address","numberOfBytes":"20"},"t_bool":{"encoding":"inplace","label":"bool","numberOfBytes":"1"},"t_uint256":{"encoding":"inplace","label":"uint256","numberOfBytes":"32"}}},"userdoc":{"kind":"user","methods":{},"version":1}}}}