{"contracts/NftAuction.sol":{"NftAuction":{"abi":[{"inputs":[{"internalType":"address","name":"target","type":"address"}],"name":"AddressEmptyCode","type":"error"},{"inputs":[{"internalType":"address","name":"implementation","type":"address"}],"name":"ERC1967InvalidImplementation","type":"error"},{"inputs":[],"name":"ERC1967NonPayable","type":"error"},{"inputs":[],"name":"FailedCall","type":"error"},{"inputs":[],"name":"InvalidInitialization","type":"error"},{"inputs":[],"name":"NotInitializing","type":"error"},{"inputs":[],"name":"UUPSUnauthorizedCallContext","type":"error"},{"inputs":[{"internalType":"bytes32","name":"slot","type":"bytes32"}],"name":"UUPSUnsupportedProxiableUUID","type":"error"},{"anonymous":false,"inputs":[{"indexed":false,"internalType":"uint64","name":"version","type":"uint64"}],"name":"Initialized","type":"event"},{"anonymous":false,"inputs":[{"indexed":true,"internalType":"address","name":"implementation","type":"address"}],"name":"Upgraded","type":"event"},{"inputs":[],"name":"UPGRADE_INTERFACE_VERSION","outputs":[{"internalType":"string","name":"","type":"string"}],"stateMutability":"view","type":"function"},{"inputs":[],"name":"admin","outputs":[{"internalType":"address","name":"","type":"address"}],"stateMutability":"view","type":"function"},{"inputs":[{"internalType":"uint256","name":"","type":"uint256"}],"name":"auctions","outputs":[{"internalType":"address","name":"seller","type":"address"},{"internalType":"uint256","name":"duration","type":"uint256"},{"internalType":"uint256","name":"startPrice","type":"uint256"},{"internalType":"uint256","name":"startTime","type":"uint256"},{"internalType":"bool","name":"ended","type":"bool"},{"internalType":"address","name":"highestBidder","type":"address"},{"internalType":"uint256","name":"highestBid","type":"uint256"},{"internalType":"address","name":"nftContract","type":"address"},{"internalType":"uint256","name":"tokenId","type":"uint256"},{"internalType":"address","name":"tokenAddress","type":"address"}],"stateMutability":"view","type":"function"},{"inputs":[{"internalType":"uint256","name":"_duration","type":"uint256"},{"internalType":"uint256","name":"_startPrice","type":"uint256"},{"internalType":"address","name":"_nftAddress","type":"address"},{"internalType":"uint256","name":"_tokenId","type":"uint256"}],"name":"createAuction","outputs":[],"stateMutability":"nonpayable","type":"function"},{"inputs":[{"internalType":"uint256","name":"_auctionID","type":"uint256"}],"name":"endAuction","outputs":[],"stateMutability":"nonpayable","type":"function"},{"inputs":[{"internalType":"address","name":"tokenAddress","type":"address"}],"name":"getChainlinkDataFeedLatestAnswer","outputs":[{"internalType":"int256","name":"","type":"int256"}],"stateMutability":"view","type":"function"},{"inputs":[],"name":"initialize","outputs":[],"stateMutability":"nonpayable","type":"function"},{"inputs":[],"name":"nextAuctionId","outputs":[{"internalType":"uint256","name":"","type":"uint256"}],"stateMutability":"view","type":"function"},{"inputs":[{"internalType":"address","name":"operator","type":"address"},{"internalType":"address","name":"from","type":"address"},{"internalType":"uint256","name":"tokenId","type":"uint256"},{"internalType":"bytes","name":"data","type":"bytes"}],"name":"onERC721Received","outputs":[{"internalType":"bytes4","name":"","type":"bytes4"}],"stateMutability":"pure","type":"function"},{"inputs":[{"internalType":"uint256","name":"_auctionID","type":"uint256"},{"internalType":"uint256","name":"amount","type":"uint256"},{"internalType":"address","name":"_tokenAddress","type":"address"}],"name":"placeBid","outputs":[],"stateMutability":"payable","type":"function"},{"inputs":[{"internalType":"address","name":"","type":"address"}],"name":"priceFeeds","outputs":[{"internalType":"contract AggregatorV3Interface","name":"","type":"address"}],"stateMutability":"view","type":"function"},{"inputs":[],"name":"proxiableUUID","outputs":[{"internalType":"bytes32","name":"","type":"bytes32"}],"stateMutability":"view","type":"function"},{"inputs":[{"internalType":"address","name":"tokenAddress","type":"address"},{"internalType":"address","name":"_priceFeed","type":"address"}],"name":"setPriceFeed","outputs":[],"stateMutability":"nonpayable","type":"function"},{"inputs":[{"internalType":"address","name":"newImplementation","type":"address"},{"internalType":"bytes","name":"data","type":"bytes"}],"name":"upgradeToAndCall","outputs":[],"stateMutability":"payable","type":"function"}],"devdoc":{"errors":{"AddressEmptyCode(address)":[{"details":"There's no code at `target` (it is not a contract)."}],"ERC1967InvalidImplementation(address)":[{"details":"The `implementation` of the proxy is invalid."}],"ERC1967NonPayable()":[{"details":"An upgrade function sees `msg.value > 0` that may be lost."}],"FailedCall()":[{"details":"A call to an address target failed. The target may have reverted."}],"InvalidInitialization()":[{"details":"The contract is already initialized."}],"NotInitializing()":[{"details":"The contract is not initializing."}],"UUPSUnauthorizedCallContext()":[{"details":"The call is from an unauthorized context."}],"UUPSUnsupportedProxiableUUID(bytes32)":[{"details":"The storage `slot` is unsupported as a UUID."}]},"events":{"Initialized(uint64)":{"details":"Triggered when the contract has been initialized or reinitialized."},"Upgraded(address)":{"details":"Emitted when the implementation is upgraded."}},"kind":"dev","methods":{"proxiableUUID()":{"details":"Implementation of the ERC-1822 {proxiableUUID} function. This returns the storage slot used by the implementation. It is used to validate the implementation's compatibility when performing an upgrade. IMPORTANT: A proxy pointing at a proxiable contract should not be considered proxiable itself, because this risks bricking a proxy that upgrades to it, by delegating to itself until out of gas. Thus it is critical that this function revert if invoked through a proxy. This is guaranteed by the `notDelegated` modifier."},"upgradeToAndCall(address,bytes)":{"custom:oz-upgrades-unsafe-allow-reachable":"delegatecall","details":"Upgrade the implementation of the proxy to `newImplementation`, and subsequently execute the function call encoded in `data`. Calls {_authorizeUpgrade}. Emits an {Upgraded} event."}},"version":1},"evm":{"bytecode":{"linkReferences":{},"object":"60a06040523060805234801561001457600080fd5b5060805161164061003e60003960008181610d5e01528181610d870152610f1d01526116406000f3fe6080604052600436106100dd5760003560e01c8063ad3cb1cc1161007f578063b9a2de3a11610059578063b9a2de3a14610359578063e7078f9214610379578063f851a44014610399578063fc528482146103b957600080fd5b8063ad3cb1cc146102e8578063ad6561ec14610326578063b1cb48ef1461033957600080fd5b8063571a26a0116100bb578063571a26a01461016457806376e112861461023c5780638129fc1c146102855780639dcb511a1461029a57600080fd5b8063150b7a02146100e25780634f1ef2861461012c57806352d1902d14610141575b600080fd5b3480156100ee57600080fd5b5061010e6100fd3660046111f2565b630a85bd0160e11b95945050505050565b6040516001600160e01b031990911681526020015b60405180910390f35b61013f61013a3660046112a3565b6103cf565b005b34801561014d57600080fd5b506101566103ee565b604051908152602001610123565b34801561017057600080fd5b506101e161017f366004611365565b6000602081905290815260409020805460018201546002830154600384015460048501546005860154600687015460078801546008909801546001600160a01b039788169896979596949560ff8516956101009095048116949281169291168a565b604080516001600160a01b039b8c168152602081019a909a528901979097526060880195909552921515608087015290861660a086015260c0850152841660e084015261010083015290911661012082015261014001610123565b34801561024857600080fd5b5061013f61025736600461137e565b6001600160a01b03918216600090815260036020526040902080546001600160a01b03191691909216179055565b34801561029157600080fd5b5061013f61040b565b3480156102a657600080fd5b506102d06102b53660046113b1565b6003602052600090815260409020546001600160a01b031681565b6040516001600160a01b039091168152602001610123565b3480156102f457600080fd5b50610319604051806040016040528060058152602001640352e302e360dc1b81525081565b604051610123919061141c565b61013f61033436600461142f565b61050f565b34801561034557600080fd5b5061013f610354366004611464565b61085a565b34801561036557600080fd5b5061013f610374366004611365565b610b7d565b34801561038557600080fd5b506101566103943660046113b1565b610cc6565b3480156103a557600080fd5b506002546102d0906001600160a01b031681565b3480156103c557600080fd5b5061015660015481565b6103d7610d53565b6103e082610dfa565b6103ea8282610e50565b5050565b60006103f8610f12565b506000805160206115eb83398151915290565b6000610415610f5b565b805490915060ff600160401b820416159067ffffffffffffffff1660008115801561043d5750825b905060008267ffffffffffffffff16600114801561045a5750303b155b905081158015610468575080155b156104865760405163f92ee8a960e01b815260040160405180910390fd5b845467ffffffffffffffff1916600117855583156104b057845460ff60401b1916600160401b1785555b600280546001600160a01b03191633179055831561050857845460ff60401b19168555604051600181527fc7f505b2f371ae2175ee4913f4499e1f2633a7b5936321eed1cdaeb6115181d29060200160405180910390a15b5050505050565b6000838152602081905260409020600481015460ff161580156105445750428160010154826003015461054291906114b7565b115b6105895760405162461bcd60e51b8152602060048201526011602482015270105d58dd1a5bdb881a185cc8195b991959607a1b60448201526064015b60405180910390fd5b60006001600160a01b038316156105b4576105a383610cc6565b6105ad90856114ca565b90506105ce565b3493506105c16000610cc6565b6105cb90856114ca565b90505b60088201546000906105e8906001600160a01b0316610cc6565b83600201546105f791906114ca565b6008840154909150600090610614906001600160a01b0316610cc6565b846005015461062391906114ca565b905081831015801561063457508083115b6106985760405162461bcd60e51b815260206004820152602f60248201527f426964206d75737420626520686967686572207468616e20746865206375727260448201526e195b9d081a1a59da195cdd08189a59608a1b6064820152608401610580565b6001600160a01b03851615610720576040516323b872dd60e01b8152336004820152306024820152604481018790526001600160a01b038616906323b872dd906064016020604051808303816000875af11580156106fa573d6000803e3d6000fd5b505050506040513d601f19601f8201168201806040525081019061071e91906114e1565b505b6005840154156108115760088401546001600160a01b031661078657600484015460058501546040516101009092046001600160a01b0316916108fc82150291906000818181858888f19350505050158015610780573d6000803e3d6000fd5b50610811565b6008840154600480860154600587015460405163a9059cbb60e01b81526101009092046001600160a01b0390811693830193909352602482015291169063a9059cbb906044016020604051808303816000875af11580156107eb573d6000803e3d6000fd5b505050506040513d601f19601f8201168201806040525081019061080f91906114e1565b505b5050506008810180546001600160a01b0319166001600160a01b03939093169290921790915560058101919091556004018054610100600160a81b031916610100330217905550565b6002546001600160a01b031633146108b45760405162461bcd60e51b815260206004820152601e60248201527f4f6e6c792061646d696e2063616e206372656174652061756374696f6e7300006044820152606401610580565b600a84101561090f5760405162461bcd60e51b815260206004820152602160248201527f4475726174696f6e206d7573742062652067726561746572207468616e2031306044820152607360f81b6064820152608401610580565b6000831161096a5760405162461bcd60e51b815260206004820152602260248201527f5374617274207072696365206d7573742062652067726561746572207468616e604482015261020360f41b6064820152608401610580565b604051632142170760e11b8152336004820152306024820152604481018290526001600160a01b038316906342842e0e90606401600060405180830381600087803b1580156109b857600080fd5b505af11580156109cc573d6000803e3d6000fd5b50505050604051806101400160405280336001600160a01b0316815260200185815260200184815260200142815260200160001515815260200160006001600160a01b0316815260200160008152602001836001600160a01b0316815260200182815260200160006001600160a01b0316815250600080600154815260200190815260200160002060008201518160000160006101000a8154816001600160a01b0302191690836001600160a01b0316021790555060208201518160010155604082015181600201556060820151816003015560808201518160040160006101000a81548160ff02191690831515021790555060a08201518160040160016101000a8154816001600160a01b0302191690836001600160a01b0316021790555060c0820151816005015560e08201518160060160006101000a8154816001600160a01b0302191690836001600160a01b0316021790555061010082015181600701556101208201518160080160006101000a8154816001600160a01b0302191690836001600160a01b0316021790555090505060016000815480929190610b7290611503565b919050555050505050565b60008060008381526020019081526020016000209050610bc96040518060400160405280600a81526020016932b73220bab1ba34b7b760b11b8152508260030154836001015442610f86565b600481015460ff16158015610bf157504281600101548260030154610bee91906114b7565b11155b610c355760405162461bcd60e51b8152602060048201526015602482015274105d58dd1a5bdb881a185cc81b9bdd08195b991959605a1b6044820152606401610580565b60068101546004808301546007840154604051632142170760e11b815230938101939093526001600160a01b03610100909204821660248401526044830152909116906342842e0e90606401600060405180830381600087803b158015610c9b57600080fd5b505af1158015610caf573d6000803e3d6000fd5b5050506004909101805460ff191660011790555050565b6001600160a01b03808216600090815260036020526040808220548151633fabe5a360e21b81529151929316918391839163feaf968c9160048082019260a0929091908290030181865afa158015610d22573d6000803e3d6000fd5b505050506040513d601f19601f82011682018060405250810190610d469190611536565b5091979650505050505050565b306001600160a01b037f0000000000000000000000000000000000000000000000000000000000000000161480610dda57507f00000000000000000000000000000000000000000000000000000000000000006001600160a01b0316610dce6000805160206115eb833981519152546001600160a01b031690565b6001600160a01b031614155b15610df85760405163703e46dd60e11b815260040160405180910390fd5b565b6002546001600160a01b03163314610e4d5760405162461bcd60e51b81526020600482015260166024820152754f6e6c792061646d696e2063616e207570677261646560501b6044820152606401610580565b50565b816001600160a01b03166352d1902d6040518163ffffffff1660e01b8152600401602060405180830381865afa925050508015610eaa575060408051601f3d908101601f19168201909252610ea791810190611586565b60015b610ed257604051634c9c8ce360e01b81526001600160a01b0383166004820152602401610580565b6000805160206115eb8339815191528114610f0357604051632a87526960e21b815260048101829052602401610580565b610f0d8383610fd5565b505050565b306001600160a01b037f00000000000000000000000000000000000000000000000000000000000000001614610df85760405163703e46dd60e11b815260040160405180910390fd5b6000807ff0c57e16840df040f15088dc2f81fe391c3923bec73e23a9662efc9c229c6a005b92915050565b610fcf84848484604051602401610fa0949392919061159f565b60408051601f198184030181529190526020810180516001600160e01b031663a7a8785360e01b17905261102b565b50505050565b610fde82611034565b6040516001600160a01b038316907fbc7cd75a20ee27fd9adebab32041f755214dbc6bffa90cc0225b39da2e5c2d3b90600090a280511561102357610f0d8282611099565b6103ea61110f565b610e4d8161112e565b806001600160a01b03163b60000361106a57604051634c9c8ce360e01b81526001600160a01b0382166004820152602401610580565b6000805160206115eb83398151915280546001600160a01b0319166001600160a01b0392909216919091179055565b6060600080846001600160a01b0316846040516110b691906115ce565b600060405180830381855af49150503d80600081146110f1576040519150601f19603f3d011682016040523d82523d6000602084013e6110f6565b606091505b509150915061110685838361114f565b95945050505050565b3415610df85760405163b398979f60e01b815260040160405180910390fd5b60006a636f6e736f6c652e6c6f679050600080835160208501845afa505050565b6060826111645761115f826111ae565b6111a7565b815115801561117b57506001600160a01b0384163b155b156111a457604051639996b31560e01b81526001600160a01b0385166004820152602401610580565b50805b9392505050565b8051156111bd57805160208201fd5b60405163d6bda27560e01b815260040160405180910390fd5b80356001600160a01b03811681146111ed57600080fd5b919050565b60008060008060006080868803121561120a57600080fd5b611213866111d6565b9450611221602087016111d6565b935060408601359250606086013567ffffffffffffffff8082111561124557600080fd5b818801915088601f83011261125957600080fd5b81358181111561126857600080fd5b89602082850101111561127a57600080fd5b9699959850939650602001949392505050565b634e487b7160e01b600052604160045260246000fd5b600080604083850312156112b657600080fd5b6112bf836111d6565b9150602083013567ffffffffffffffff808211156112dc57600080fd5b818501915085601f8301126112f057600080fd5b8135818111156113025761130261128d565b604051601f8201601f19908116603f0116810190838211818310171561132a5761132a61128d565b8160405282815288602084870101111561134357600080fd5b8260208601602083013760006020848301015280955050505050509250929050565b60006020828403121561137757600080fd5b5035919050565b6000806040838503121561139157600080fd5b61139a836111d6565b91506113a8602084016111d6565b90509250929050565b6000602082840312156113c357600080fd5b6111a7826111d6565b60005b838110156113e75781810151838201526020016113cf565b50506000910152565b600081518084526114088160208601602086016113cc565b601f01601f19169290920160200192915050565b6020815260006111a760208301846113f0565b60008060006060848603121561144457600080fd5b833592506020840135915061145b604085016111d6565b90509250925092565b6000806000806080858703121561147a57600080fd5b8435935060208501359250611491604086016111d6565b9396929550929360600135925050565b634e487b7160e01b600052601160045260246000fd5b80820180821115610f8057610f806114a1565b8082028115828204841417610f8057610f806114a1565b6000602082840312156114f357600080fd5b815180151581146111a757600080fd5b600060018201611515576115156114a1565b5060010190565b805169ffffffffffffffffffff811681146111ed57600080fd5b600080600080600060a0868803121561154e57600080fd5b6115578661151c565b945060208601519350604086015192506060860151915061157a6080870161151c565b90509295509295909350565b60006020828403121561159857600080fd5b5051919050565b6080815260006115b260808301876113f0565b6020830195909552506040810192909252606090910152919050565b600082516115e08184602087016113cc565b919091019291505056fe360894a13ba1a3210667c828492db98dca3e2076cc3735a920a3ca505d382bbca2646970667358221220ccd9560c707437b4cf2650bcfa280562064f9430814d3712ffcb07ef855a21f664736f6c63430008160033","opcodes":"PUSH1 0xA0 PUSH1 0x40 MSTORE ADDRESS PUSH1 0x80 MSTORE CALLVALUE DUP1 ISZERO PUSH2 0x14 JUMPI PUSH1 0x0 DUP1 REVERT JUMPDEST POP PUSH1 0x80 MLOAD PUSH2 0x1640 PUSH2 0x3E PUSH1 0x0 CODECOPY PUSH1 0x0 DUP2 DUP2 PUSH2 0xD5E ADD MSTORE DUP2 DUP2 PUSH2 0xD87 ADD MSTORE PUSH2 0xF1D ADD MSTORE PUSH2 0x1640 PUSH1 0x0 RETURN INVALID PUSH1 0x80 PUSH1 0x40 MSTORE PUSH1 0x4 CALLDATASIZE LT PUSH2 0xDD JUMPI PUSH1 0x0 CALLDATALOAD PUSH1 0xE0 SHR DUP1 PUSH4 0xAD3CB1CC GT PUSH2 0x7F JUMPI DUP1 PUSH4 0xB9A2DE3A GT PUSH2 0x59 JUMPI DUP1 PUSH4 0xB9A2DE3A EQ PUSH2 0x359 JUMPI DUP1 PUSH4 0xE7078F92 EQ PUSH2 0x379 JUMPI DUP1 PUSH4 0xF851A440 EQ PUSH2 0x399 JUMPI DUP1 PUSH4 0xFC528482 EQ PUSH2 0x3B9 JUMPI PUSH1 0x0 DUP1 REVERT JUMPDEST DUP1 PUSH4 0xAD3CB1CC EQ PUSH2 0x2E8 JUMPI DUP1 PUSH4 0xAD6561EC EQ PUSH2 0x326 JUMPI DUP1 PUSH4 0xB1CB48EF EQ PUSH2 0x339 JUMPI PUSH1 0x0 DUP1 REVERT JUMPDEST DUP1 PUSH4 0x571A26A0 GT PUSH2 0xBB JUMPI DUP1 PUSH4 0x571A26A0 EQ PUSH2 0x164 JUMPI DUP1 PUSH4 0x76E11286 EQ PUSH2 0x23C JUMPI DUP1 PUSH4 0x8129FC1C EQ PUSH2 0x285 JUMPI DUP1 PUSH4 0x9DCB511A EQ PUSH2 0x29A JUMPI PUSH1 0x0 DUP1 REVERT JUMPDEST DUP1 PUSH4 0x150B7A02 EQ PUSH2 0xE2 JUMPI DUP1 PUSH4 0x4F1EF286 EQ PUSH2 0x12C JUMPI DUP1 PUSH4 0x52D1902D EQ PUSH2 0x141 JUMPI JUMPDEST PUSH1 0x0 DUP1 REVERT JUMPDEST CALLVALUE DUP1 ISZERO PUSH2 0xEE JUMPI PUSH1 0x0 DUP1 REVERT JUMPDEST POP PUSH2 0x10E PUSH2 0xFD CALLDATASIZE PUSH1 0x4 PUSH2 0x11F2 JUMP JUMPDEST PUSH4 0xA85BD01 PUSH1 0xE1 SHL SWAP6 SWAP5 POP POP POP POP POP JUMP JUMPDEST PUSH1 0x40 MLOAD PUSH1 0x1 PUSH1 0x1 PUSH1 0xE0 SHL SUB NOT SWAP1 SWAP2 AND DUP2 MSTORE PUSH1 0x20 ADD JUMPDEST PUSH1 0x40 MLOAD DUP1 SWAP2 SUB SWAP1 RETURN JUMPDEST PUSH2 0x13F PUSH2 0x13A CALLDATASIZE PUSH1 0x4 PUSH2 0x12A3 JUMP JUMPDEST PUSH2 0x3CF JUMP JUMPDEST STOP JUMPDEST CALLVALUE DUP1 ISZERO PUSH2 0x14D JUMPI PUSH1 0x0 DUP1 REVERT JUMPDEST POP PUSH2 0x156 PUSH2 0x3EE JUMP JUMPDEST PUSH1 0x40 MLOAD SWAP1 DUP2 MSTORE PUSH1 0x20 ADD PUSH2 0x123 JUMP JUMPDEST CALLVALUE DUP1 ISZERO PUSH2 0x170 JUMPI PUSH1 0x0 DUP1 REVERT JUMPDEST POP PUSH2 0x1E1 PUSH2 0x17F CALLDATASIZE PUSH1 0x4 PUSH2 0x1365 JUMP JUMPDEST PUSH1 0x0 PUSH1 0x20 DUP2 SWAP1 MSTORE SWAP1 DUP2 MSTORE PUSH1 0x40 SWAP1 KECCAK256 DUP1 SLOAD PUSH1 0x1 DUP3 ADD SLOAD PUSH1 0x2 DUP4 ADD SLOAD PUSH1 0x3 DUP5 ADD SLOAD PUSH1 0x4 DUP6 ADD SLOAD PUSH1 0x5 DUP7 ADD SLOAD PUSH1 0x6 DUP8 ADD SLOAD PUSH1 0x7 DUP9 ADD SLOAD PUSH1 0x8 SWAP1 SWAP9 ADD SLOAD PUSH1 0x1 PUSH1 0x1 PUSH1 0xA0 SHL SUB SWAP8 DUP9 AND SWAP9 SWAP7 SWAP8 SWAP6 SWAP7 SWAP5 SWAP6 PUSH1 0xFF DUP6 AND SWAP6 PUSH2 0x100 SWAP1 SWAP6 DIV DUP2 AND SWAP5 SWAP3 DUP2 AND SWAP3 SWAP2 AND DUP11 JUMP JUMPDEST PUSH1 0x40 DUP1 MLOAD PUSH1 0x1 PUSH1 0x1 PUSH1 0xA0 SHL SUB SWAP12 DUP13 AND DUP2 MSTORE PUSH1 0x20 DUP2 ADD SWAP11 SWAP1 SWAP11 MSTORE DUP10 ADD SWAP8 SWAP1 SWAP8 MSTORE PUSH1 0x60 DUP9 ADD SWAP6 SWAP1 SWAP6 MSTORE SWAP3 ISZERO ISZERO PUSH1 0x80 DUP8 ADD MSTORE SWAP1 DUP7 AND PUSH1 0xA0 DUP7 ADD MSTORE PUSH1 0xC0 DUP6 ADD MSTORE DUP5 AND PUSH1 0xE0 DUP5 ADD MSTORE PUSH2 0x100 DUP4 ADD MSTORE SWAP1 SWAP2 AND PUSH2 0x120 DUP3 ADD MSTORE PUSH2 0x140 ADD PUSH2 0x123 JUMP JUMPDEST CALLVALUE DUP1 ISZERO PUSH2 0x248 JUMPI PUSH1 0x0 DUP1 REVERT JUMPDEST POP PUSH2 0x13F PUSH2 0x257 CALLDATASIZE PUSH1 0x4 PUSH2 0x137E JUMP JUMPDEST PUSH1 0x1 PUSH1 0x1 PUSH1 0xA0 SHL SUB SWAP2 DUP3 AND PUSH1 0x0 SWAP1 DUP2 MSTORE PUSH1 0x3 PUSH1 0x20 MSTORE PUSH1 0x40 SWAP1 KECCAK256 DUP1 SLOAD PUSH1 0x1 PUSH1 0x1 PUSH1 0xA0 SHL SUB NOT AND SWAP2 SWAP1 SWAP3 AND OR SWAP1 SSTORE JUMP JUMPDEST CALLVALUE DUP1 ISZERO PUSH2 0x291 JUMPI PUSH1 0x0 DUP1 REVERT JUMPDEST POP PUSH2 0x13F PUSH2 0x40B JUMP JUMPDEST CALLVALUE DUP1 ISZERO PUSH2 0x2A6 JUMPI PUSH1 0x0 DUP1 REVERT JUMPDEST POP PUSH2 0x2D0 PUSH2 0x2B5 CALLDATASIZE PUSH1 0x4 PUSH2 0x13B1 JUMP JUMPDEST PUSH1 0x3 PUSH1 0x20 MSTORE PUSH1 0x0 SWAP1 DUP2 MSTORE PUSH1 0x40 SWAP1 KECCAK256 SLOAD PUSH1 0x1 PUSH1 0x1 PUSH1 0xA0 SHL SUB AND DUP2 JUMP JUMPDEST PUSH1 0x40 MLOAD PUSH1 0x1 PUSH1 0x1 PUSH1 0xA0 SHL SUB SWAP1 SWAP2 AND DUP2 MSTORE PUSH1 0x20 ADD PUSH2 0x123 JUMP JUMPDEST CALLVALUE DUP1 ISZERO PUSH2 0x2F4 JUMPI PUSH1 0x0 DUP1 REVERT JUMPDEST POP PUSH2 0x319 PUSH1 0x40 MLOAD DUP1 PUSH1 0x40 ADD PUSH1 0x40 MSTORE DUP1 PUSH1 0x5 DUP2 MSTORE PUSH1 0x20 ADD PUSH5 0x352E302E3 PUSH1 0xDC SHL DUP2 MSTORE POP DUP2 JUMP JUMPDEST PUSH1 0x40 MLOAD PUSH2 0x123 SWAP2 SWAP1 PUSH2 0x141C JUMP JUMPDEST PUSH2 0x13F PUSH2 0x334 CALLDATASIZE PUSH1 0x4 PUSH2 0x142F JUMP JUMPDEST PUSH2 0x50F JUMP JUMPDEST CALLVALUE DUP1 ISZERO PUSH2 0x345 JUMPI PUSH1 0x0 DUP1 REVERT JUMPDEST POP PUSH2 0x13F PUSH2 0x354 CALLDATASIZE PUSH1 0x4 PUSH2 0x1464 JUMP JUMPDEST PUSH2 0x85A JUMP JUMPDEST CALLVALUE DUP1 ISZERO PUSH2 0x365 JUMPI PUSH1 0x0 DUP1 REVERT JUMPDEST POP PUSH2 0x13F PUSH2 0x374 CALLDATASIZE PUSH1 0x4 PUSH2 0x1365 JUMP JUMPDEST PUSH2 0xB7D JUMP JUMPDEST CALLVALUE DUP1 ISZERO PUSH2 0x385 JUMPI PUSH1 0x0 DUP1 REVERT JUMPDEST POP PUSH2 0x156 PUSH2 0x394 CALLDATASIZE PUSH1 0x4 PUSH2 0x13B1 JUMP JUMPDEST PUSH2 0xCC6 JUMP JUMPDEST CALLVALUE DUP1 ISZERO PUSH2 0x3A5 JUMPI PUSH1 0x0 DUP1 REVERT JUMPDEST POP PUSH1 0x2 SLOAD PUSH2 0x2D0 SWAP1 PUSH1 0x1 PUSH1 0x1 PUSH1 0xA0 SHL SUB AND DUP2 JUMP JUMPDEST CALLVALUE DUP1 ISZERO PUSH2 0x3C5 JUMPI PUSH1 0x0 DUP1 REVERT JUMPDEST POP PUSH2 0x156 PUSH1 0x1 SLOAD DUP2 JUMP JUMPDEST PUSH2 0x3D7 PUSH2 0xD53 JUMP JUMPDEST PUSH2 0x3E0 DUP3 PUSH2 0xDFA JUMP JUMPDEST PUSH2 0x3EA DUP3 DUP3 PUSH2 0xE50 JUMP JUMPDEST POP POP JUMP JUMPDEST PUSH1 0x0 PUSH2 0x3F8 PUSH2 0xF12 JUMP JUMPDEST POP PUSH1 0x0 DUP1 MLOAD PUSH1 0x20 PUSH2 0x15EB DUP4 CODECOPY DUP2 MLOAD SWAP2 MSTORE SWAP1 JUMP JUMPDEST PUSH1 0x0 PUSH2 0x415 PUSH2 0xF5B JUMP JUMPDEST DUP1 SLOAD SWAP1 SWAP2 POP PUSH1 0xFF PUSH1 0x1 PUSH1 0x40 SHL DUP3 DIV AND ISZERO SWAP1 PUSH8 0xFFFFFFFFFFFFFFFF AND PUSH1 0x0 DUP2 ISZERO DUP1 ISZERO PUSH2 0x43D JUMPI POP DUP3 JUMPDEST SWAP1 POP PUSH1 0x0 DUP3 PUSH8 0xFFFFFFFFFFFFFFFF AND PUSH1 0x1 EQ DUP1 ISZERO PUSH2 0x45A JUMPI POP ADDRESS EXTCODESIZE ISZERO JUMPDEST SWAP1 POP DUP2 ISZERO DUP1 ISZERO PUSH2 0x468 JUMPI POP DUP1 ISZERO JUMPDEST ISZERO PUSH2 0x486 JUMPI PUSH1 0x40 MLOAD PUSH4 0xF92EE8A9 PUSH1 0xE0 SHL DUP2 MSTORE PUSH1 0x4 ADD PUSH1 0x40 MLOAD DUP1 SWAP2 SUB SWAP1 REVERT JUMPDEST DUP5 SLOAD PUSH8 0xFFFFFFFFFFFFFFFF NOT AND PUSH1 0x1 OR DUP6 SSTORE DUP4 ISZERO PUSH2 0x4B0 JUMPI DUP5 SLOAD PUSH1 0xFF PUSH1 0x40 SHL NOT AND PUSH1 0x1 PUSH1 0x40 SHL OR DUP6 SSTORE JUMPDEST PUSH1 0x2 DUP1 SLOAD PUSH1 0x1 PUSH1 0x1 PUSH1 0xA0 SHL SUB NOT AND CALLER OR SWAP1 SSTORE DUP4 ISZERO PUSH2 0x508 JUMPI DUP5 SLOAD PUSH1 0xFF PUSH1 0x40 SHL NOT AND DUP6 SSTORE PUSH1 0x40 MLOAD PUSH1 0x1 DUP2 MSTORE PUSH32 0xC7F505B2F371AE2175EE4913F4499E1F2633A7B5936321EED1CDAEB6115181D2 SWAP1 PUSH1 0x20 ADD PUSH1 0x40 MLOAD DUP1 SWAP2 SUB SWAP1 LOG1 JUMPDEST POP POP POP POP POP JUMP JUMPDEST PUSH1 0x0 DUP4 DUP2 MSTORE PUSH1 0x20 DUP2 SWAP1 MSTORE PUSH1 0x40 SWAP1 KECCAK256 PUSH1 0x4 DUP2 ADD SLOAD PUSH1 0xFF AND ISZERO DUP1 ISZERO PUSH2 0x544 JUMPI POP TIMESTAMP DUP2 PUSH1 0x1 ADD SLOAD DUP3 PUSH1 0x3 ADD SLOAD PUSH2 0x542 SWAP2 SWAP1 PUSH2 0x14B7 JUMP JUMPDEST GT JUMPDEST PUSH2 0x589 JUMPI PUSH1 0x40 MLOAD PUSH3 0x461BCD PUSH1 0xE5 SHL DUP2 MSTORE PUSH1 0x20 PUSH1 0x4 DUP3 ADD MSTORE PUSH1 0x11 PUSH1 0x24 DUP3 ADD MSTORE PUSH17 0x105D58DD1A5BDB881A185CC8195B991959 PUSH1 0x7A SHL PUSH1 0x44 DUP3 ADD MSTORE PUSH1 0x64 ADD JUMPDEST PUSH1 0x40 MLOAD DUP1 SWAP2 SUB SWAP1 REVERT JUMPDEST PUSH1 0x0 PUSH1 0x1 PUSH1 0x1 PUSH1 0xA0 SHL SUB DUP4 AND ISZERO PUSH2 0x5B4 JUMPI PUSH2 0x5A3 DUP4 PUSH2 0xCC6 JUMP JUMPDEST PUSH2 0x5AD SWAP1 DUP6 PUSH2 0x14CA JUMP JUMPDEST SWAP1 POP PUSH2 0x5CE JUMP JUMPDEST CALLVALUE SWAP4 POP PUSH2 0x5C1 PUSH1 0x0 PUSH2 0xCC6 JUMP JUMPDEST PUSH2 0x5CB SWAP1 DUP6 PUSH2 0x14CA JUMP JUMPDEST SWAP1 POP JUMPDEST PUSH1 0x8 DUP3 ADD SLOAD PUSH1 0x0 SWAP1 PUSH2 0x5E8 SWAP1 PUSH1 0x1 PUSH1 0x1 PUSH1 0xA0 SHL SUB AND PUSH2 0xCC6 JUMP JUMPDEST DUP4 PUSH1 0x2 ADD SLOAD PUSH2 0x5F7 SWAP2 SWAP1 PUSH2 0x14CA JUMP JUMPDEST PUSH1 0x8 DUP5 ADD SLOAD SWAP1 SWAP2 POP PUSH1 0x0 SWAP1 PUSH2 0x614 SWAP1 PUSH1 0x1 PUSH1 0x1 PUSH1 0xA0 SHL SUB AND PUSH2 0xCC6 JUMP JUMPDEST DUP5 PUSH1 0x5 ADD SLOAD PUSH2 0x623 SWAP2 SWAP1 PUSH2 0x14CA JUMP JUMPDEST SWAP1 POP DUP2 DUP4 LT ISZERO DUP1 ISZERO PUSH2 0x634 JUMPI POP DUP1 DUP4 GT JUMPDEST PUSH2 0x698 JUMPI PUSH1 0x40 MLOAD PUSH3 0x461BCD PUSH1 0xE5 SHL DUP2 MSTORE PUSH1 0x20 PUSH1 0x4 DUP3 ADD MSTORE PUSH1 0x2F PUSH1 0x24 DUP3 ADD MSTORE PUSH32 0x426964206D75737420626520686967686572207468616E207468652063757272 PUSH1 0x44 DUP3 ADD MSTORE PUSH15 0x195B9D081A1A59DA195CDD08189A59 PUSH1 0x8A SHL PUSH1 0x64 DUP3 ADD MSTORE PUSH1 0x84 ADD PUSH2 0x580 JUMP JUMPDEST PUSH1 0x1 PUSH1 0x1 PUSH1 0xA0 SHL SUB DUP6 AND ISZERO PUSH2 0x720 JUMPI PUSH1 0x40 MLOAD PUSH4 0x23B872DD PUSH1 0xE0 SHL DUP2 MSTORE CALLER PUSH1 0x4 DUP3 ADD MSTORE ADDRESS PUSH1 0x24 DUP3 ADD MSTORE PUSH1 0x44 DUP2 ADD DUP8 SWAP1 MSTORE PUSH1 0x1 PUSH1 0x1 PUSH1 0xA0 SHL SUB DUP7 AND SWAP1 PUSH4 0x23B872DD SWAP1 PUSH1 0x64 ADD PUSH1 0x20 PUSH1 0x40 MLOAD DUP1 DUP4 SUB DUP2 PUSH1 0x0 DUP8 GAS CALL ISZERO DUP1 ISZERO PUSH2 0x6FA JUMPI RETURNDATASIZE PUSH1 0x0 DUP1 RETURNDATACOPY RETURNDATASIZE PUSH1 0x0 REVERT JUMPDEST POP POP POP POP PUSH1 0x40 MLOAD RETURNDATASIZE PUSH1 0x1F NOT PUSH1 0x1F DUP3 ADD AND DUP3 ADD DUP1 PUSH1 0x40 MSTORE POP DUP2 ADD SWAP1 PUSH2 0x71E SWAP2 SWAP1 PUSH2 0x14E1 JUMP JUMPDEST POP JUMPDEST PUSH1 0x5 DUP5 ADD SLOAD ISZERO PUSH2 0x811 JUMPI PUSH1 0x8 DUP5 ADD SLOAD PUSH1 0x1 PUSH1 0x1 PUSH1 0xA0 SHL SUB AND PUSH2 0x786 JUMPI PUSH1 0x4 DUP5 ADD SLOAD PUSH1 0x5 DUP6 ADD SLOAD PUSH1 0x40 MLOAD PUSH2 0x100 SWAP1 SWAP3 DIV PUSH1 0x1 PUSH1 0x1 PUSH1 0xA0 SHL SUB AND SWAP2 PUSH2 0x8FC DUP3 ISZERO MUL SWAP2 SWAP1 PUSH1 0x0 DUP2 DUP2 DUP2 DUP6 DUP9 DUP9 CALL SWAP4 POP POP POP POP ISZERO DUP1 ISZERO PUSH2 0x780 JUMPI RETURNDATASIZE PUSH1 0x0 DUP1 RETURNDATACOPY RETURNDATASIZE PUSH1 0x0 REVERT JUMPDEST POP PUSH2 0x811 JUMP JUMPDEST PUSH1 0x8 DUP5 ADD SLOAD PUSH1 0x4 DUP1 DUP7 ADD SLOAD PUSH1 0x5 DUP8 ADD SLOAD PUSH1 0x40 MLOAD PUSH4 0xA9059CBB PUSH1 0xE0 SHL DUP2 MSTORE PUSH2 0x100 SWAP1 SWAP3 DIV PUSH1 0x1 PUSH1 0x1 PUSH1 0xA0 SHL SUB SWAP1 DUP2 AND SWAP4 DUP4 ADD SWAP4 SWAP1 SWAP4 MSTORE PUSH1 0x24 DUP3 ADD MSTORE SWAP2 AND SWAP1 PUSH4 0xA9059CBB SWAP1 PUSH1 0x44 ADD PUSH1 0x20 PUSH1 0x40 MLOAD DUP1 DUP4 SUB DUP2 PUSH1 0x0 DUP8 GAS CALL ISZERO DUP1 ISZERO PUSH2 0x7EB JUMPI RETURNDATASIZE PUSH1 0x0 DUP1 RETURNDATACOPY RETURNDATASIZE PUSH1 0x0 REVERT JUMPDEST POP POP POP POP PUSH1 0x40 MLOAD RETURNDATASIZE PUSH1 0x1F NOT PUSH1 0x1F DUP3 ADD AND DUP3 ADD DUP1 PUSH1 0x40 MSTORE POP DUP2 ADD SWAP1 PUSH2 0x80F SWAP2 SWAP1 PUSH2 0x14E1 JUMP JUMPDEST POP JUMPDEST POP POP POP PUSH1 0x8 DUP2 ADD DUP1 SLOAD PUSH1 0x1 PUSH1 0x1 PUSH1 0xA0 SHL SUB NOT AND PUSH1 0x1 PUSH1 0x1 PUSH1 0xA0 SHL SUB SWAP4 SWAP1 SWAP4 AND SWAP3 SWAP1 SWAP3 OR SWAP1 SWAP2 SSTORE PUSH1 0x5 DUP2 ADD SWAP2 SWAP1 SWAP2 SSTORE PUSH1 0x4 ADD DUP1 SLOAD PUSH2 0x100 PUSH1 0x1 PUSH1 0xA8 SHL SUB NOT AND PUSH2 0x100 CALLER MUL OR SWAP1 SSTORE POP JUMP JUMPDEST PUSH1 0x2 SLOAD PUSH1 0x1 PUSH1 0x1 PUSH1 0xA0 SHL SUB AND CALLER EQ PUSH2 0x8B4 JUMPI PUSH1 0x40 MLOAD PUSH3 0x461BCD PUSH1 0xE5 SHL DUP2 MSTORE PUSH1 0x20 PUSH1 0x4 DUP3 ADD MSTORE PUSH1 0x1E PUSH1 0x24 DUP3 ADD MSTORE PUSH32 0x4F6E6C792061646D696E2063616E206372656174652061756374696F6E730000 PUSH1 0x44 DUP3 ADD MSTORE PUSH1 0x64 ADD PUSH2 0x580 JUMP JUMPDEST PUSH1 0xA DUP5 LT ISZERO PUSH2 0x90F JUMPI PUSH1 0x40 MLOAD PUSH3 0x461BCD PUSH1 0xE5 SHL DUP2 MSTORE PUSH1 0x20 PUSH1 0x4 DUP3 ADD MSTORE PUSH1 0x21 PUSH1 0x24 DUP3 ADD MSTORE PUSH32 0x4475726174696F6E206D7573742062652067726561746572207468616E203130 PUSH1 0x44 DUP3 ADD MSTORE PUSH1 0x73 PUSH1 0xF8 SHL PUSH1 0x64 DUP3 ADD MSTORE PUSH1 0x84 ADD PUSH2 0x580 JUMP JUMPDEST PUSH1 0x0 DUP4 GT PUSH2 0x96A JUMPI PUSH1 0x40 MLOAD PUSH3 0x461BCD PUSH1 0xE5 SHL DUP2 MSTORE PUSH1 0x20 PUSH1 0x4 DUP3 ADD MSTORE PUSH1 0x22 PUSH1 0x24 DUP3 ADD MSTORE PUSH32 0x5374617274207072696365206D7573742062652067726561746572207468616E PUSH1 0x44 DUP3 ADD MSTORE PUSH2 0x203 PUSH1 0xF4 SHL PUSH1 0x64 DUP3 ADD MSTORE PUSH1 0x84 ADD PUSH2 0x580 JUMP JUMPDEST PUSH1 0x40 MLOAD PUSH4 0x21421707 PUSH1 0xE1 SHL DUP2 MSTORE CALLER PUSH1 0x4 DUP3 ADD MSTORE ADDRESS PUSH1 0x24 DUP3 ADD MSTORE PUSH1 0x44 DUP2 ADD DUP3 SWAP1 MSTORE PUSH1 0x1 PUSH1 0x1 PUSH1 0xA0 SHL SUB DUP4 AND SWAP1 PUSH4 0x42842E0E SWAP1 PUSH1 0x64 ADD PUSH1 0x0 PUSH1 0x40 MLOAD DUP1 DUP4 SUB DUP2 PUSH1 0x0 DUP8 DUP1 EXTCODESIZE ISZERO DUP1 ISZERO PUSH2 0x9B8 JUMPI PUSH1 0x0 DUP1 REVERT JUMPDEST POP GAS CALL ISZERO DUP1 ISZERO PUSH2 0x9CC JUMPI RETURNDATASIZE PUSH1 0x0 DUP1 RETURNDATACOPY RETURNDATASIZE PUSH1 0x0 REVERT JUMPDEST POP POP POP POP PUSH1 0x40 MLOAD DUP1 PUSH2 0x140 ADD PUSH1 0x40 MSTORE DUP1 CALLER PUSH1 0x1 PUSH1 0x1 PUSH1 0xA0 SHL SUB AND DUP2 MSTORE PUSH1 0x20 ADD DUP6 DUP2 MSTORE PUSH1 0x20 ADD DUP5 DUP2 MSTORE PUSH1 0x20 ADD TIMESTAMP DUP2 MSTORE PUSH1 0x20 ADD PUSH1 0x0 ISZERO ISZERO DUP2 MSTORE PUSH1 0x20 ADD PUSH1 0x0 PUSH1 0x1 PUSH1 0x1 PUSH1 0xA0 SHL SUB AND DUP2 MSTORE PUSH1 0x20 ADD PUSH1 0x0 DUP2 MSTORE PUSH1 0x20 ADD DUP4 PUSH1 0x1 PUSH1 0x1 PUSH1 0xA0 SHL SUB AND DUP2 MSTORE PUSH1 0x20 ADD DUP3 DUP2 MSTORE PUSH1 0x20 ADD PUSH1 0x0 PUSH1 0x1 PUSH1 0x1 PUSH1 0xA0 SHL SUB AND DUP2 MSTORE POP PUSH1 0x0 DUP1 PUSH1 0x1 SLOAD DUP2 MSTORE PUSH1 0x20 ADD SWAP1 DUP2 MSTORE PUSH1 0x20 ADD PUSH1 0x0 KECCAK256 PUSH1 0x0 DUP3 ADD MLOAD DUP2 PUSH1 0x0 ADD PUSH1 0x0 PUSH2 0x100 EXP DUP2 SLOAD DUP2 PUSH1 0x1 PUSH1 0x1 PUSH1 0xA0 SHL SUB MUL NOT AND SWAP1 DUP4 PUSH1 0x1 PUSH1 0x1 PUSH1 0xA0 SHL SUB AND MUL OR SWAP1 SSTORE POP PUSH1 0x20 DUP3 ADD MLOAD DUP2 PUSH1 0x1 ADD SSTORE PUSH1 0x40 DUP3 ADD MLOAD DUP2 PUSH1 0x2 ADD SSTORE PUSH1 0x60 DUP3 ADD MLOAD DUP2 PUSH1 0x3 ADD SSTORE PUSH1 0x80 DUP3 ADD MLOAD DUP2 PUSH1 0x4 ADD PUSH1 0x0 PUSH2 0x100 EXP DUP2 SLOAD DUP2 PUSH1 0xFF MUL NOT AND SWAP1 DUP4 ISZERO ISZERO MUL OR SWAP1 SSTORE POP PUSH1 0xA0 DUP3 ADD MLOAD DUP2 PUSH1 0x4 ADD PUSH1 0x1 PUSH2 0x100 EXP DUP2 SLOAD DUP2 PUSH1 0x1 PUSH1 0x1 PUSH1 0xA0 SHL SUB MUL NOT AND SWAP1 DUP4 PUSH1 0x1 PUSH1 0x1 PUSH1 0xA0 SHL SUB AND MUL OR SWAP1 SSTORE POP PUSH1 0xC0 DUP3 ADD MLOAD DUP2 PUSH1 0x5 ADD SSTORE PUSH1 0xE0 DUP3 ADD MLOAD DUP2 PUSH1 0x6 ADD PUSH1 0x0 PUSH2 0x100 EXP DUP2 SLOAD DUP2 PUSH1 0x1 PUSH1 0x1 PUSH1 0xA0 SHL SUB MUL NOT AND SWAP1 DUP4 PUSH1 0x1 PUSH1 0x1 PUSH1 0xA0 SHL SUB AND MUL OR SWAP1 SSTORE POP PUSH2 0x100 DUP3 ADD MLOAD DUP2 PUSH1 0x7 ADD SSTORE PUSH2 0x120 DUP3 ADD MLOAD DUP2 PUSH1 0x8 ADD PUSH1 0x0 PUSH2 0x100 EXP DUP2 SLOAD DUP2 PUSH1 0x1 PUSH1 0x1 PUSH1 0xA0 SHL SUB MUL NOT AND SWAP1 DUP4 PUSH1 0x1 PUSH1 0x1 PUSH1 0xA0 SHL SUB AND MUL OR SWAP1 SSTORE POP SWAP1 POP POP PUSH1 0x1 PUSH1 0x0 DUP2 SLOAD DUP1 SWAP3 SWAP2 SWAP1 PUSH2 0xB72 SWAP1 PUSH2 0x1503 JUMP JUMPDEST SWAP2 SWAP1 POP SSTORE POP POP POP POP POP JUMP JUMPDEST PUSH1 0x0 DUP1 PUSH1 0x0 DUP4 DUP2 MSTORE PUSH1 0x20 ADD SWAP1 DUP2 MSTORE PUSH1 0x20 ADD PUSH1 0x0 KECCAK256 SWAP1 POP PUSH2 0xBC9 PUSH1 0x40 MLOAD DUP1 PUSH1 0x40 ADD PUSH1 0x40 MSTORE DUP1 PUSH1 0xA DUP2 MSTORE PUSH1 0x20 ADD PUSH10 0x32B73220BAB1BA34B7B7 PUSH1 0xB1 SHL DUP2 MSTORE POP DUP3 PUSH1 0x3 ADD SLOAD DUP4 PUSH1 0x1 ADD SLOAD TIMESTAMP PUSH2 0xF86 JUMP JUMPDEST PUSH1 0x4 DUP2 ADD SLOAD PUSH1 0xFF AND ISZERO DUP1 ISZERO PUSH2 0xBF1 JUMPI POP TIMESTAMP DUP2 PUSH1 0x1 ADD SLOAD DUP3 PUSH1 0x3 ADD SLOAD PUSH2 0xBEE SWAP2 SWAP1 PUSH2 0x14B7 JUMP JUMPDEST GT ISZERO JUMPDEST PUSH2 0xC35 JUMPI PUSH1 0x40 MLOAD PUSH3 0x461BCD PUSH1 0xE5 SHL DUP2 MSTORE PUSH1 0x20 PUSH1 0x4 DUP3 ADD MSTORE PUSH1 0x15 PUSH1 0x24 DUP3 ADD MSTORE PUSH21 0x105D58DD1A5BDB881A185CC81B9BDD08195B991959 PUSH1 0x5A SHL PUSH1 0x44 DUP3 ADD MSTORE PUSH1 0x64 ADD PUSH2 0x580 JUMP JUMPDEST PUSH1 0x6 DUP2 ADD SLOAD PUSH1 0x4 DUP1 DUP4 ADD SLOAD PUSH1 0x7 DUP5 ADD SLOAD PUSH1 0x40 MLOAD PUSH4 0x21421707 PUSH1 0xE1 SHL DUP2 MSTORE ADDRESS SWAP4 DUP2 ADD SWAP4 SWAP1 SWAP4 MSTORE PUSH1 0x1 PUSH1 0x1 PUSH1 0xA0 SHL SUB PUSH2 0x100 SWAP1 SWAP3 DIV DUP3 AND PUSH1 0x24 DUP5 ADD MSTORE PUSH1 0x44 DUP4 ADD MSTORE SWAP1 SWAP2 AND SWAP1 PUSH4 0x42842E0E SWAP1 PUSH1 0x64 ADD PUSH1 0x0 PUSH1 0x40 MLOAD DUP1 DUP4 SUB DUP2 PUSH1 0x0 DUP8 DUP1 EXTCODESIZE ISZERO DUP1 ISZERO PUSH2 0xC9B JUMPI PUSH1 0x0 DUP1 REVERT JUMPDEST POP GAS CALL ISZERO DUP1 ISZERO PUSH2 0xCAF JUMPI RETURNDATASIZE PUSH1 0x0 DUP1 RETURNDATACOPY RETURNDATASIZE PUSH1 0x0 REVERT JUMPDEST POP POP POP PUSH1 0x4 SWAP1 SWAP2 ADD DUP1 SLOAD PUSH1 0xFF NOT AND PUSH1 0x1 OR SWAP1 SSTORE POP POP JUMP JUMPDEST PUSH1 0x1 PUSH1 0x1 PUSH1 0xA0 SHL SUB DUP1 DUP3 AND PUSH1 0x0 SWAP1 DUP2 MSTORE PUSH1 0x3 PUSH1 0x20 MSTORE PUSH1 0x40 DUP1 DUP3 KECCAK256 SLOAD DUP2 MLOAD PUSH4 0x3FABE5A3 PUSH1 0xE2 SHL DUP2 MSTORE SWAP2 MLOAD SWAP3 SWAP4 AND SWAP2 DUP4 SWAP2 DUP4 SWAP2 PUSH4 0xFEAF968C SWAP2 PUSH1 0x4 DUP1 DUP3 ADD SWAP3 PUSH1 0xA0 SWAP3 SWAP1 SWAP2 SWAP1 DUP3 SWAP1 SUB ADD DUP2 DUP7 GAS STATICCALL ISZERO DUP1 ISZERO PUSH2 0xD22 JUMPI RETURNDATASIZE PUSH1 0x0 DUP1 RETURNDATACOPY RETURNDATASIZE PUSH1 0x0 REVERT JUMPDEST POP POP POP POP PUSH1 0x40 MLOAD RETURNDATASIZE PUSH1 0x1F NOT PUSH1 0x1F DUP3 ADD AND DUP3 ADD DUP1 PUSH1 0x40 MSTORE POP DUP2 ADD SWAP1 PUSH2 0xD46 SWAP2 SWAP1 PUSH2 0x1536 JUMP JUMPDEST POP SWAP2 SWAP8 SWAP7 POP POP POP POP POP POP POP JUMP JUMPDEST ADDRESS PUSH1 0x1 PUSH1 0x1 PUSH1 0xA0 SHL SUB PUSH32 0x0 AND EQ DUP1 PUSH2 0xDDA JUMPI POP PUSH32 0x0 PUSH1 0x1 PUSH1 0x1 PUSH1 0xA0 SHL SUB AND PUSH2 0xDCE PUSH1 0x0 DUP1 MLOAD PUSH1 0x20 PUSH2 0x15EB DUP4 CODECOPY DUP2 MLOAD SWAP2 MSTORE SLOAD PUSH1 0x1 PUSH1 0x1 PUSH1 0xA0 SHL SUB AND SWAP1 JUMP JUMPDEST PUSH1 0x1 PUSH1 0x1 PUSH1 0xA0 SHL SUB AND EQ ISZERO JUMPDEST ISZERO PUSH2 0xDF8 JUMPI PUSH1 0x40 MLOAD PUSH4 0x703E46DD PUSH1 0xE1 SHL DUP2 MSTORE PUSH1 0x4 ADD PUSH1 0x40 MLOAD DUP1 SWAP2 SUB SWAP1 REVERT JUMPDEST JUMP JUMPDEST PUSH1 0x2 SLOAD PUSH1 0x1 PUSH1 0x1 PUSH1 0xA0 SHL SUB AND CALLER EQ PUSH2 0xE4D JUMPI PUSH1 0x40 MLOAD PUSH3 0x461BCD PUSH1 0xE5 SHL DUP2 MSTORE PUSH1 0x20 PUSH1 0x4 DUP3 ADD MSTORE PUSH1 0x16 PUSH1 0x24 DUP3 ADD MSTORE PUSH22 0x4F6E6C792061646D696E2063616E2075706772616465 PUSH1 0x50 SHL PUSH1 0x44 DUP3 ADD MSTORE PUSH1 0x64 ADD PUSH2 0x580 JUMP JUMPDEST POP JUMP JUMPDEST DUP2 PUSH1 0x1 PUSH1 0x1 PUSH1 0xA0 SHL SUB AND PUSH4 0x52D1902D PUSH1 0x40 MLOAD DUP2 PUSH4 0xFFFFFFFF AND PUSH1 0xE0 SHL DUP2 MSTORE PUSH1 0x4 ADD PUSH1 0x20 PUSH1 0x40 MLOAD DUP1 DUP4 SUB DUP2 DUP7 GAS STATICCALL SWAP3 POP POP POP DUP1 ISZERO PUSH2 0xEAA JUMPI POP PUSH1 0x40 DUP1 MLOAD PUSH1 0x1F RETURNDATASIZE SWAP1 DUP2 ADD PUSH1 0x1F NOT AND DUP3 ADD SWAP1 SWAP3 MSTORE PUSH2 0xEA7 SWAP2 DUP2 ADD SWAP1 PUSH2 0x1586 JUMP JUMPDEST PUSH1 0x1 JUMPDEST PUSH2 0xED2 JUMPI PUSH1 0x40 MLOAD PUSH4 0x4C9C8CE3 PUSH1 0xE0 SHL DUP2 MSTORE PUSH1 0x1 PUSH1 0x1 PUSH1 0xA0 SHL SUB DUP4 AND PUSH1 0x4 DUP3 ADD MSTORE PUSH1 0x24 ADD PUSH2 0x580 JUMP JUMPDEST PUSH1 0x0 DUP1 MLOAD PUSH1 0x20 PUSH2 0x15EB DUP4 CODECOPY DUP2 MLOAD SWAP2 MSTORE DUP2 EQ PUSH2 0xF03 JUMPI PUSH1 0x40 MLOAD PUSH4 0x2A875269 PUSH1 0xE2 SHL DUP2 MSTORE PUSH1 0x4 DUP2 ADD DUP3 SWAP1 MSTORE PUSH1 0x24 ADD PUSH2 0x580 JUMP JUMPDEST PUSH2 0xF0D DUP4 DUP4 PUSH2 0xFD5 JUMP JUMPDEST POP POP POP JUMP JUMPDEST ADDRESS PUSH1 0x1 PUSH1 0x1 PUSH1 0xA0 SHL SUB PUSH32 0x0 AND EQ PUSH2 0xDF8 JUMPI PUSH1 0x40 MLOAD PUSH4 0x703E46DD PUSH1 0xE1 SHL DUP2 MSTORE PUSH1 0x4 ADD PUSH1 0x40 MLOAD DUP1 SWAP2 SUB SWAP1 REVERT JUMPDEST PUSH1 0x0 DUP1 PUSH32 0xF0C57E16840DF040F15088DC2F81FE391C3923BEC73E23A9662EFC9C229C6A00 JUMPDEST SWAP3 SWAP2 POP POP JUMP JUMPDEST PUSH2 0xFCF DUP5 DUP5 DUP5 DUP5 PUSH1 0x40 MLOAD PUSH1 0x24 ADD PUSH2 0xFA0 SWAP5 SWAP4 SWAP3 SWAP2 SWAP1 PUSH2 0x159F JUMP JUMPDEST PUSH1 0x40 DUP1 MLOAD PUSH1 0x1F NOT DUP2 DUP5 SUB ADD DUP2 MSTORE SWAP2 SWAP1 MSTORE PUSH1 0x20 DUP2 ADD DUP1 MLOAD PUSH1 0x1 PUSH1 0x1 PUSH1 0xE0 SHL SUB AND PUSH4 0xA7A87853 PUSH1 0xE0 SHL OR SWAP1 MSTORE PUSH2 0x102B JUMP JUMPDEST POP POP POP POP JUMP JUMPDEST PUSH2 0xFDE DUP3 PUSH2 0x1034 JUMP JUMPDEST PUSH1 0x40 MLOAD PUSH1 0x1 PUSH1 0x1 PUSH1 0xA0 SHL SUB DUP4 AND SWAP1 PUSH32 0xBC7CD75A20EE27FD9ADEBAB32041F755214DBC6BFFA90CC0225B39DA2E5C2D3B SWAP1 PUSH1 0x0 SWAP1 LOG2 DUP1 MLOAD ISZERO PUSH2 0x1023 JUMPI PUSH2 0xF0D DUP3 DUP3 PUSH2 0x1099 JUMP JUMPDEST PUSH2 0x3EA PUSH2 0x110F JUMP JUMPDEST PUSH2 0xE4D DUP2 PUSH2 0x112E JUMP JUMPDEST DUP1 PUSH1 0x1 PUSH1 0x1 PUSH1 0xA0 SHL SUB AND EXTCODESIZE PUSH1 0x0 SUB PUSH2 0x106A JUMPI PUSH1 0x40 MLOAD PUSH4 0x4C9C8CE3 PUSH1 0xE0 SHL DUP2 MSTORE PUSH1 0x1 PUSH1 0x1 PUSH1 0xA0 SHL SUB DUP3 AND PUSH1 0x4 DUP3 ADD MSTORE PUSH1 0x24 ADD PUSH2 0x580 JUMP JUMPDEST PUSH1 0x0 DUP1 MLOAD PUSH1 0x20 PUSH2 0x15EB DUP4 CODECOPY DUP2 MLOAD SWAP2 MSTORE DUP1 SLOAD PUSH1 0x1 PUSH1 0x1 PUSH1 0xA0 SHL SUB NOT AND PUSH1 0x1 PUSH1 0x1 PUSH1 0xA0 SHL SUB SWAP3 SWAP1 SWAP3 AND SWAP2 SWAP1 SWAP2 OR SWAP1 SSTORE JUMP JUMPDEST PUSH1 0x60 PUSH1 0x0 DUP1 DUP5 PUSH1 0x1 PUSH1 0x1 PUSH1 0xA0 SHL SUB AND DUP5 PUSH1 0x40 MLOAD PUSH2 0x10B6 SWAP2 SWAP1 PUSH2 0x15CE JUMP JUMPDEST PUSH1 0x0 PUSH1 0x40 MLOAD DUP1 DUP4 SUB DUP2 DUP6 GAS DELEGATECALL SWAP2 POP POP RETURNDATASIZE DUP1 PUSH1 0x0 DUP2 EQ PUSH2 0x10F1 JUMPI PUSH1 0x40 MLOAD SWAP2 POP PUSH1 0x1F NOT PUSH1 0x3F RETURNDATASIZE ADD AND DUP3 ADD PUSH1 0x40 MSTORE RETURNDATASIZE DUP3 MSTORE RETURNDATASIZE PUSH1 0x0 PUSH1 0x20 DUP5 ADD RETURNDATACOPY PUSH2 0x10F6 JUMP JUMPDEST PUSH1 0x60 SWAP2 POP JUMPDEST POP SWAP2 POP SWAP2 POP PUSH2 0x1106 DUP6 DUP4 DUP4 PUSH2 0x114F JUMP JUMPDEST SWAP6 SWAP5 POP POP POP POP POP JUMP JUMPDEST CALLVALUE ISZERO PUSH2 0xDF8 JUMPI PUSH1 0x40 MLOAD PUSH4 0xB398979F PUSH1 0xE0 SHL DUP2 MSTORE PUSH1 0x4 ADD PUSH1 0x40 MLOAD DUP1 SWAP2 SUB SWAP1 REVERT JUMPDEST PUSH1 0x0 PUSH11 0x636F6E736F6C652E6C6F67 SWAP1 POP PUSH1 0x0 DUP1 DUP4 MLOAD PUSH1 0x20 DUP6 ADD DUP5 GAS STATICCALL POP POP POP JUMP JUMPDEST PUSH1 0x60 DUP3 PUSH2 0x1164 JUMPI PUSH2 0x115F DUP3 PUSH2 0x11AE JUMP JUMPDEST PUSH2 0x11A7 JUMP JUMPDEST DUP2 MLOAD ISZERO DUP1 ISZERO PUSH2 0x117B JUMPI POP PUSH1 0x1 PUSH1 0x1 PUSH1 0xA0 SHL SUB DUP5 AND EXTCODESIZE ISZERO JUMPDEST ISZERO PUSH2 0x11A4 JUMPI PUSH1 0x40 MLOAD PUSH4 0x9996B315 PUSH1 0xE0 SHL DUP2 MSTORE PUSH1 0x1 PUSH1 0x1 PUSH1 0xA0 SHL SUB DUP6 AND PUSH1 0x4 DUP3 ADD MSTORE PUSH1 0x24 ADD PUSH2 0x580 JUMP JUMPDEST POP DUP1 JUMPDEST SWAP4 SWAP3 POP POP POP JUMP JUMPDEST DUP1 MLOAD ISZERO PUSH2 0x11BD JUMPI DUP1 MLOAD PUSH1 0x20 DUP3 ADD REVERT JUMPDEST PUSH1 0x40 MLOAD PUSH4 0xD6BDA275 PUSH1 0xE0 SHL DUP2 MSTORE PUSH1 0x4 ADD PUSH1 0x40 MLOAD DUP1 SWAP2 SUB SWAP1 REVERT JUMPDEST DUP1 CALLDATALOAD PUSH1 0x1 PUSH1 0x1 PUSH1 0xA0 SHL SUB DUP2 AND DUP2 EQ PUSH2 0x11ED JUMPI PUSH1 0x0 DUP1 REVERT JUMPDEST SWAP2 SWAP1 POP JUMP JUMPDEST PUSH1 0x0 DUP1 PUSH1 0x0 DUP1 PUSH1 0x0 PUSH1 0x80 DUP7 DUP9 SUB SLT ISZERO PUSH2 0x120A JUMPI PUSH1 0x0 DUP1 REVERT JUMPDEST PUSH2 0x1213 DUP7 PUSH2 0x11D6 JUMP JUMPDEST SWAP5 POP PUSH2 0x1221 PUSH1 0x20 DUP8 ADD PUSH2 0x11D6 JUMP JUMPDEST SWAP4 POP PUSH1 0x40 DUP7 ADD CALLDATALOAD SWAP3 POP PUSH1 0x60 DUP7 ADD CALLDATALOAD PUSH8 0xFFFFFFFFFFFFFFFF DUP1 DUP3 GT ISZERO PUSH2 0x1245 JUMPI PUSH1 0x0 DUP1 REVERT JUMPDEST DUP2 DUP9 ADD SWAP2 POP DUP9 PUSH1 0x1F DUP4 ADD SLT PUSH2 0x1259 JUMPI PUSH1 0x0 DUP1 REVERT JUMPDEST DUP2 CALLDATALOAD DUP2 DUP2 GT ISZERO PUSH2 0x1268 JUMPI PUSH1 0x0 DUP1 REVERT JUMPDEST DUP10 PUSH1 0x20 DUP3 DUP6 ADD ADD GT ISZERO PUSH2 0x127A JUMPI PUSH1 0x0 DUP1 REVERT JUMPDEST SWAP7 SWAP10 SWAP6 SWAP9 POP SWAP4 SWAP7 POP PUSH1 0x20 ADD SWAP5 SWAP4 SWAP3 POP POP POP JUMP JUMPDEST PUSH4 0x4E487B71 PUSH1 0xE0 SHL PUSH1 0x0 MSTORE PUSH1 0x41 PUSH1 0x4 MSTORE PUSH1 0x24 PUSH1 0x0 REVERT JUMPDEST PUSH1 0x0 DUP1 PUSH1 0x40 DUP4 DUP6 SUB SLT ISZERO PUSH2 0x12B6 JUMPI PUSH1 0x0 DUP1 REVERT JUMPDEST PUSH2 0x12BF DUP4 PUSH2 0x11D6 JUMP JUMPDEST SWAP2 POP PUSH1 0x20 DUP4 ADD CALLDATALOAD PUSH8 0xFFFFFFFFFFFFFFFF DUP1 DUP3 GT ISZERO PUSH2 0x12DC JUMPI PUSH1 0x0 DUP1 REVERT JUMPDEST DUP2 DUP6 ADD SWAP2 POP DUP6 PUSH1 0x1F DUP4 ADD SLT PUSH2 0x12F0 JUMPI PUSH1 0x0 DUP1 REVERT JUMPDEST DUP2 CALLDATALOAD DUP2 DUP2 GT ISZERO PUSH2 0x1302 JUMPI PUSH2 0x1302 PUSH2 0x128D JUMP JUMPDEST PUSH1 0x40 MLOAD PUSH1 0x1F DUP3 ADD PUSH1 0x1F NOT SWAP1 DUP2 AND PUSH1 0x3F ADD AND DUP2 ADD SWAP1 DUP4 DUP3 GT DUP2 DUP4 LT OR ISZERO PUSH2 0x132A JUMPI PUSH2 0x132A PUSH2 0x128D JUMP JUMPDEST DUP2 PUSH1 0x40 MSTORE DUP3 DUP2 MSTORE DUP9 PUSH1 0x20 DUP5 DUP8 ADD ADD GT ISZERO PUSH2 0x1343 JUMPI PUSH1 0x0 DUP1 REVERT JUMPDEST DUP3 PUSH1 0x20 DUP7 ADD PUSH1 0x20 DUP4 ADD CALLDATACOPY PUSH1 0x0 PUSH1 0x20 DUP5 DUP4 ADD ADD MSTORE DUP1 SWAP6 POP POP POP POP POP POP SWAP3 POP SWAP3 SWAP1 POP JUMP JUMPDEST PUSH1 0x0 PUSH1 0x20 DUP3 DUP5 SUB SLT ISZERO PUSH2 0x1377 JUMPI PUSH1 0x0 DUP1 REVERT JUMPDEST POP CALLDATALOAD SWAP2 SWAP1 POP JUMP JUMPDEST PUSH1 0x0 DUP1 PUSH1 0x40 DUP4 DUP6 SUB SLT ISZERO PUSH2 0x1391 JUMPI PUSH1 0x0 DUP1 REVERT JUMPDEST PUSH2 0x139A DUP4 PUSH2 0x11D6 JUMP JUMPDEST SWAP2 POP PUSH2 0x13A8 PUSH1 0x20 DUP5 ADD PUSH2 0x11D6 JUMP JUMPDEST SWAP1 POP SWAP3 POP SWAP3 SWAP1 POP JUMP JUMPDEST PUSH1 0x0 PUSH1 0x20 DUP3 DUP5 SUB SLT ISZERO PUSH2 0x13C3 JUMPI PUSH1 0x0 DUP1 REVERT JUMPDEST PUSH2 0x11A7 DUP3 PUSH2 0x11D6 JUMP JUMPDEST PUSH1 0x0 JUMPDEST DUP4 DUP2 LT ISZERO PUSH2 0x13E7 JUMPI DUP2 DUP2 ADD MLOAD DUP4 DUP3 ADD MSTORE PUSH1 0x20 ADD PUSH2 0x13CF JUMP JUMPDEST POP POP PUSH1 0x0 SWAP2 ADD MSTORE JUMP JUMPDEST PUSH1 0x0 DUP2 MLOAD DUP1 DUP5 MSTORE PUSH2 0x1408 DUP2 PUSH1 0x20 DUP7 ADD PUSH1 0x20 DUP7 ADD PUSH2 0x13CC JUMP JUMPDEST PUSH1 0x1F ADD PUSH1 0x1F NOT AND SWAP3 SWAP1 SWAP3 ADD PUSH1 0x20 ADD SWAP3 SWAP2 POP POP JUMP JUMPDEST PUSH1 0x20 DUP2 MSTORE PUSH1 0x0 PUSH2 0x11A7 PUSH1 0x20 DUP4 ADD DUP5 PUSH2 0x13F0 JUMP JUMPDEST PUSH1 0x0 DUP1 PUSH1 0x0 PUSH1 0x60 DUP5 DUP7 SUB SLT ISZERO PUSH2 0x1444 JUMPI PUSH1 0x0 DUP1 REVERT JUMPDEST DUP4 CALLDATALOAD SWAP3 POP PUSH1 0x20 DUP5 ADD CALLDATALOAD SWAP2 POP PUSH2 0x145B PUSH1 0x40 DUP6 ADD PUSH2 0x11D6 JUMP JUMPDEST SWAP1 POP SWAP3 POP SWAP3 POP SWAP3 JUMP JUMPDEST PUSH1 0x0 DUP1 PUSH1 0x0 DUP1 PUSH1 0x80 DUP6 DUP8 SUB SLT ISZERO PUSH2 0x147A JUMPI PUSH1 0x0 DUP1 REVERT JUMPDEST DUP5 CALLDATALOAD SWAP4 POP PUSH1 0x20 DUP6 ADD CALLDATALOAD SWAP3 POP PUSH2 0x1491 PUSH1 0x40 DUP7 ADD PUSH2 0x11D6 JUMP JUMPDEST SWAP4 SWAP7 SWAP3 SWAP6 POP SWAP3 SWAP4 PUSH1 0x60 ADD CALLDATALOAD SWAP3 POP POP JUMP JUMPDEST PUSH4 0x4E487B71 PUSH1 0xE0 SHL PUSH1 0x0 MSTORE PUSH1 0x11 PUSH1 0x4 MSTORE PUSH1 0x24 PUSH1 0x0 REVERT JUMPDEST DUP1 DUP3 ADD DUP1 DUP3 GT ISZERO PUSH2 0xF80 JUMPI PUSH2 0xF80 PUSH2 0x14A1 JUMP JUMPDEST DUP1 DUP3 MUL DUP2 ISZERO DUP3 DUP3 DIV DUP5 EQ OR PUSH2 0xF80 JUMPI PUSH2 0xF80 PUSH2 0x14A1 JUMP JUMPDEST PUSH1 0x0 PUSH1 0x20 DUP3 DUP5 SUB SLT ISZERO PUSH2 0x14F3 JUMPI PUSH1 0x0 DUP1 REVERT JUMPDEST DUP2 MLOAD DUP1 ISZERO ISZERO DUP2 EQ PUSH2 0x11A7 JUMPI PUSH1 0x0 DUP1 REVERT JUMPDEST PUSH1 0x0 PUSH1 0x1 DUP3 ADD PUSH2 0x1515 JUMPI PUSH2 0x1515 PUSH2 0x14A1 JUMP JUMPDEST POP PUSH1 0x1 ADD SWAP1 JUMP JUMPDEST DUP1 MLOAD PUSH10 0xFFFFFFFFFFFFFFFFFFFF DUP2 AND DUP2 EQ PUSH2 0x11ED JUMPI PUSH1 0x0 DUP1 REVERT JUMPDEST PUSH1 0x0 DUP1 PUSH1 0x0 DUP1 PUSH1 0x0 PUSH1 0xA0 DUP7 DUP9 SUB SLT ISZERO PUSH2 0x154E JUMPI PUSH1 0x0 DUP1 REVERT JUMPDEST PUSH2 0x1557 DUP7 PUSH2 0x151C JUMP JUMPDEST SWAP5 POP PUSH1 0x20 DUP7 ADD MLOAD SWAP4 POP PUSH1 0x40 DUP7 ADD MLOAD SWAP3 POP PUSH1 0x60 DUP7 ADD MLOAD SWAP2 POP PUSH2 0x157A PUSH1 0x80 DUP8 ADD PUSH2 0x151C JUMP JUMPDEST SWAP1 POP SWAP3 SWAP6 POP SWAP3 SWAP6 SWAP1 SWAP4 POP JUMP JUMPDEST PUSH1 0x0 PUSH1 0x20 DUP3 DUP5 SUB SLT ISZERO PUSH2 0x1598 JUMPI PUSH1 0x0 DUP1 REVERT JUMPDEST POP MLOAD SWAP2 SWAP1 POP JUMP JUMPDEST PUSH1 0x80 DUP2 MSTORE PUSH1 0x0 PUSH2 0x15B2 PUSH1 0x80 DUP4 ADD DUP8 PUSH2 0x13F0 JUMP JUMPDEST PUSH1 0x20 DUP4 ADD SWAP6 SWAP1 SWAP6 MSTORE POP PUSH1 0x40 DUP2 ADD SWAP3 SWAP1 SWAP3 MSTORE PUSH1 0x60 SWAP1 SWAP2 ADD MSTORE SWAP2 SWAP1 POP JUMP JUMPDEST PUSH1 0x0 DUP3 MLOAD PUSH2 0x15E0 DUP2 DUP5 PUSH1 0x20 DUP8 ADD PUSH2 0x13CC JUMP JUMPDEST SWAP2 SWAP1 SWAP2 ADD SWAP3 SWAP2 POP POP JUMP INVALID CALLDATASIZE ADDMOD SWAP5 LOG1 EXTCODESIZE LOG1 LOG3 0x21 MOD PUSH8 0xC828492DB98DCA3E KECCAK256 PUSH23 0xCC3735A920A3CA505D382BBCA2646970667358221220CC 0xD9 JUMP 0xC PUSH17 0x7437B4CF2650BCFA280562064F9430814D CALLDATACOPY SLT SELFDESTRUCT 0xCB SMOD 0xEF DUP6 GAS 0x21 0xF6 PUSH5 0x736F6C6343 STOP ADDMOD AND STOP CALLER "},"gasEstimates":{"creation":{"codeDepositCost":"1139200","executionCost":"infinite","totalCost":"infinite"},"external":{"UPGRADE_INTERFACE_VERSION()":"infinite","admin()":"2403","auctions(uint256)":"19656","createAuction(uint256,uint256,address,uint256)":"infinite","endAuction(uint256)":"infinite","getChainlinkDataFeedLatestAnswer(address)":"infinite","initialize()":"103161","nextAuctionId()":"2383","onERC721Received(address,address,uint256,bytes)":"infinite","placeBid(uint256,uint256,address)":"infinite","priceFeeds(address)":"2647","proxiableUUID()":"infinite","setPriceFeed(address,address)":"infinite","upgradeToAndCall(address,bytes)":"infinite"},"internal":{"_authorizeUpgrade(address)":"infinite"}},"methodIdentifiers":{"UPGRADE_INTERFACE_VERSION()":"ad3cb1cc","admin()":"f851a440","auctions(uint256)":"571a26a0","createAuction(uint256,uint256,address,uint256)":"b1cb48ef","endAuction(uint256)":"b9a2de3a","getChainlinkDataFeedLatestAnswer(address)":"e7078f92","initialize()":"8129fc1c","nextAuctionId()":"fc528482","onERC721Received(address,address,uint256,bytes)":"150b7a02","placeBid(uint256,uint256,address)":"ad6561ec","priceFeeds(address)":"9dcb511a","proxiableUUID()":"52d1902d","setPriceFeed(address,address)":"76e11286","upgradeToAndCall(address,bytes)":"4f1ef286"}},"storageLayout":{"storage":[{"astId":2217,"contract":"contracts/NftAuction.sol:NftAuction","label":"auctions","offset":0,"slot":"0","type":"t_mapping(t_uint256,t_struct(Auction)2212_storage)"},{"astId":2219,"contract":"contracts/NftAuction.sol:NftAuction","label":"nextAuctionId","offset":0,"slot":"1","type":"t_uint256"},{"astId":2221,"contract":"contracts/NftAuction.sol:NftAuction","label":"admin","offset":0,"slot":"2","type":"t_address"},{"astId":2226,"contract":"contracts/NftAuction.sol:NftAuction","label":"priceFeeds","offset":0,"slot":"3","type":"t_mapping(t_address,t_contract(AggregatorV3Interface)45)"}],"types":{"t_address":{"encoding":"inplace","label":"address","numberOfBytes":"20"},"t_bool":{"encoding":"inplace","label":"bool","numberOfBytes":"1"},"t_contract(AggregatorV3Interface)45":{"encoding":"inplace","label":"contract AggregatorV3Interface","numberOfBytes":"20"},"t_mapping(t_address,t_contract(AggregatorV3Interface)45)":{"encoding":"mapping","key":"t_address","label":"mapping(address => contract AggregatorV3Interface)","numberOfBytes":"32","value":"t_contract(AggregatorV3Interface)45"},"t_mapping(t_uint256,t_struct(Auction)2212_storage)":{"encoding":"mapping","key":"t_uint256","label":"mapping(uint256 => struct NftAuction.Auction)","numberOfBytes":"32","value":"t_struct(Auction)2212_storage"},"t_struct(Auction)2212_storage":{"encoding":"inplace","label":"struct NftAuction.Auction","members":[{"astId":2193,"contract":"contracts/NftAuction.sol:NftAuction","label":"seller","offset":0,"slot":"0","type":"t_address"},{"astId":2195,"contract":"contracts/NftAuction.sol:NftAuction","label":"duration","offset":0,"slot":"1","type":"t_uint256"},{"astId":2197,"contract":"contracts/NftAuction.sol:NftAuction","label":"startPrice","offset":0,"slot":"2","type":"t_uint256"},{"astId":2199,"contract":"contracts/NftAuction.sol:NftAuction","label":"startTime","offset":0,"slot":"3","type":"t_uint256"},{"astId":2201,"contract":"contracts/NftAuction.sol:NftAuction","label":"ended","offset":0,"slot":"4","type":"t_bool"},{"astId":2203,"contract":"contracts/NftAuction.sol:NftAuction","label":"highestBidder","offset":1,"slot":"4","type":"t_address"},{"astId":2205,"contract":"contracts/NftAuction.sol:NftAuction","label":"highestBid","offset":0,"slot":"5","type":"t_uint256"},{"astId":2207,"contract":"contracts/NftAuction.sol:NftAuction","label":"nftContract","offset":0,"slot":"6","type":"t_address"},{"astId":2209,"contract":"contracts/NftAuction.sol:NftAuction","label":"tokenId","offset":0,"slot":"7","type":"t_uint256"},{"astId":2211,"contract":"contracts/NftAuction.sol:NftAuction","label":"tokenAddress","offset":0,"slot":"8","type":"t_address"}],"numberOfBytes":"288"},"t_uint256":{"encoding":"inplace","label":"uint256","numberOfBytes":"32"}}},"userdoc":{"kind":"user","methods":{},"version":1}}}}