{"contracts/task3/NFTAuctionPlatformV2.sol":{"NFTAuctionPlatformV2":{"abi":[{"inputs":[],"stateMutability":"nonpayable","type":"constructor"},{"inputs":[{"internalType":"address","name":"target","type":"address"}],"name":"AddressEmptyCode","type":"error"},{"inputs":[{"internalType":"address","name":"implementation","type":"address"}],"name":"ERC1967InvalidImplementation","type":"error"},{"inputs":[],"name":"ERC1967NonPayable","type":"error"},{"inputs":[],"name":"FailedCall","type":"error"},{"inputs":[],"name":"InvalidInitialization","type":"error"},{"inputs":[],"name":"NotInitializing","type":"error"},{"inputs":[{"internalType":"address","name":"owner","type":"address"}],"name":"OwnableInvalidOwner","type":"error"},{"inputs":[{"internalType":"address","name":"account","type":"address"}],"name":"OwnableUnauthorizedAccount","type":"error"},{"inputs":[],"name":"ReentrancyGuardReentrantCall","type":"error"},{"inputs":[],"name":"UUPSUnauthorizedCallContext","type":"error"},{"inputs":[{"internalType":"bytes32","name":"slot","type":"bytes32"}],"name":"UUPSUnsupportedProxiableUUID","type":"error"},{"anonymous":false,"inputs":[{"indexed":true,"internalType":"uint256","name":"auctionId","type":"uint256"},{"indexed":true,"internalType":"address","name":"seller","type":"address"},{"indexed":true,"internalType":"address","name":"nftContract","type":"address"},{"indexed":false,"internalType":"uint256","name":"tokenId","type":"uint256"},{"indexed":false,"internalType":"uint256","name":"startPrice","type":"uint256"},{"indexed":false,"internalType":"uint256","name":"reservePrice","type":"uint256"},{"indexed":false,"internalType":"uint256","name":"duration","type":"uint256"}],"name":"AuctionCreated","type":"event"},{"anonymous":false,"inputs":[{"indexed":true,"internalType":"uint256","name":"auctionId","type":"uint256"},{"indexed":true,"internalType":"address","name":"winner","type":"address"},{"indexed":false,"internalType":"uint256","name":"finalPrice","type":"uint256"},{"indexed":false,"internalType":"address","name":"paymentToken","type":"address"}],"name":"AuctionEnded","type":"event"},{"anonymous":false,"inputs":[{"indexed":true,"internalType":"uint256","name":"auctionId","type":"uint256"},{"indexed":true,"internalType":"enum NFTAuctionPlatformV2.AuctionType","name":"auctionType","type":"uint8"},{"indexed":false,"internalType":"uint256","name":"buyNowPrice","type":"uint256"},{"indexed":false,"internalType":"uint256","name":"minimumBidIncrement","type":"uint256"}],"name":"AuctionV2Created","type":"event"},{"anonymous":false,"inputs":[{"indexed":false,"internalType":"uint256[]","name":"auctionIds","type":"uint256[]"},{"indexed":true,"internalType":"address","name":"creator","type":"address"},{"indexed":false,"internalType":"enum NFTAuctionPlatformV2.AuctionType","name":"auctionType","type":"uint8"}],"name":"BatchAuctionCreated","type":"event"},{"anonymous":false,"inputs":[{"indexed":true,"internalType":"uint256","name":"auctionId","type":"uint256"},{"indexed":true,"internalType":"address","name":"bidder","type":"address"},{"indexed":true,"internalType":"address","name":"bidToken","type":"address"},{"indexed":false,"internalType":"uint256","name":"bidAmount","type":"uint256"},{"indexed":false,"internalType":"uint256","name":"usdValue","type":"uint256"}],"name":"BidPlaced","type":"event"},{"anonymous":false,"inputs":[{"indexed":true,"internalType":"uint256","name":"auctionId","type":"uint256"},{"indexed":true,"internalType":"address","name":"buyer","type":"address"},{"indexed":false,"internalType":"uint256","name":"price","type":"uint256"},{"indexed":false,"internalType":"address","name":"paymentToken","type":"address"}],"name":"BuyNowPurchase","type":"event"},{"anonymous":false,"inputs":[{"indexed":true,"internalType":"uint256","name":"auctionId","type":"uint256"},{"indexed":false,"internalType":"uint256","name":"currentPrice","type":"uint256"},{"indexed":false,"internalType":"uint256","name":"timestamp","type":"uint256"}],"name":"DutchAuctionPriceUpdate","type":"event"},{"anonymous":false,"inputs":[{"indexed":false,"internalType":"uint64","name":"version","type":"uint64"}],"name":"Initialized","type":"event"},{"anonymous":false,"inputs":[{"indexed":true,"internalType":"address","name":"previousOwner","type":"address"},{"indexed":true,"internalType":"address","name":"newOwner","type":"address"}],"name":"OwnershipTransferred","type":"event"},{"anonymous":false,"inputs":[{"indexed":true,"internalType":"address","name":"token","type":"address"},{"indexed":true,"internalType":"address","name":"priceFeed","type":"address"}],"name":"PriceFeedUpdated","type":"event"},{"anonymous":false,"inputs":[{"indexed":true,"internalType":"uint256","name":"auctionId","type":"uint256"},{"indexed":true,"internalType":"address","name":"bidder","type":"address"},{"indexed":false,"internalType":"bytes32","name":"commitment","type":"bytes32"},{"indexed":false,"internalType":"uint256","name":"deposit","type":"uint256"}],"name":"SealedBidCommitted","type":"event"},{"anonymous":false,"inputs":[{"indexed":true,"internalType":"uint256","name":"auctionId","type":"uint256"},{"indexed":true,"internalType":"address","name":"bidder","type":"address"},{"indexed":false,"internalType":"uint256","name":"actualBid","type":"uint256"}],"name":"SealedBidRevealed","type":"event"},{"anonymous":false,"inputs":[{"indexed":true,"internalType":"address","name":"implementation","type":"address"}],"name":"Upgraded","type":"event"},{"inputs":[],"name":"MAX_AUCTION_DURATION","outputs":[{"internalType":"uint256","name":"","type":"uint256"}],"stateMutability":"view","type":"function"},{"inputs":[],"name":"MIN_AUCTION_DURATION","outputs":[{"internalType":"uint256","name":"","type":"uint256"}],"stateMutability":"view","type":"function"},{"inputs":[],"name":"UPGRADE_INTERFACE_VERSION","outputs":[{"internalType":"string","name":"","type":"string"}],"stateMutability":"view","type":"function"},{"inputs":[{"internalType":"uint256","name":"","type":"uint256"},{"internalType":"uint256","name":"","type":"uint256"}],"name":"auctionParticipants","outputs":[{"internalType":"address","name":"","type":"address"}],"stateMutability":"view","type":"function"},{"inputs":[{"internalType":"uint256","name":"","type":"uint256"}],"name":"auctionStats","outputs":[{"internalType":"uint256","name":"totalBids","type":"uint256"},{"internalType":"uint256","name":"uniqueBidders","type":"uint256"},{"internalType":"uint256","name":"averageBidAmount","type":"uint256"},{"internalType":"uint256","name":"lastBidTime","type":"uint256"}],"stateMutability":"view","type":"function"},{"inputs":[{"internalType":"uint256","name":"","type":"uint256"}],"name":"auctions","outputs":[{"internalType":"address","name":"seller","type":"address"},{"internalType":"uint256","name":"duration","type":"uint256"},{"internalType":"uint256","name":"startPrice","type":"uint256"},{"internalType":"uint256","name":"startTime","type":"uint256"},{"internalType":"bool","name":"ended","type":"bool"},{"internalType":"address","name":"highestBidder","type":"address"},{"internalType":"uint256","name":"highestBid","type":"uint256"},{"internalType":"address","name":"nftContract","type":"address"},{"internalType":"uint256","name":"tokenId","type":"uint256"},{"internalType":"address","name":"bidToken","type":"address"},{"internalType":"uint256","name":"originalBidAmount","type":"uint256"},{"internalType":"uint256","name":"reservePrice","type":"uint256"}],"stateMutability":"view","type":"function"},{"inputs":[{"internalType":"uint256","name":"","type":"uint256"}],"name":"auctionsV2","outputs":[{"internalType":"enum NFTAuctionPlatformV2.AuctionType","name":"auctionType","type":"uint8"},{"internalType":"uint256","name":"decreaseRate","type":"uint256"},{"internalType":"uint256","name":"revealDeadline","type":"uint256"},{"internalType":"uint256","name":"buyNowPrice","type":"uint256"},{"internalType":"bool","name":"allowBuyNow","type":"bool"},{"internalType":"uint256","name":"minimumBidIncrement","type":"uint256"},{"internalType":"bool","name":"isWhitelistEnabled","type":"bool"}],"stateMutability":"view","type":"function"},{"inputs":[{"components":[{"internalType":"uint256","name":"duration","type":"uint256"},{"internalType":"uint256","name":"startPrice","type":"uint256"},{"internalType":"uint256","name":"reservePrice","type":"uint256"},{"internalType":"address","name":"nftContract","type":"address"},{"internalType":"uint256[]","name":"tokenIds","type":"uint256[]"},{"internalType":"enum NFTAuctionPlatformV2.AuctionType","name":"auctionType","type":"uint8"},{"internalType":"uint256","name":"buyNowPrice","type":"uint256"}],"internalType":"struct NFTAuctionPlatformV2.BatchCreateParams","name":"params","type":"tuple"}],"name":"batchCreateAuctions","outputs":[{"internalType":"uint256[]","name":"","type":"uint256[]"}],"stateMutability":"nonpayable","type":"function"},{"inputs":[{"internalType":"uint256","name":"","type":"uint256"},{"internalType":"address","name":"","type":"address"}],"name":"bidRecords","outputs":[{"internalType":"uint256","name":"","type":"uint256"}],"stateMutability":"view","type":"function"},{"inputs":[{"internalType":"uint256","name":"auctionId","type":"uint256"},{"internalType":"address","name":"paymentToken","type":"address"}],"name":"buyNow","outputs":[],"stateMutability":"payable","type":"function"},{"inputs":[{"internalType":"uint256","name":"auctionId","type":"uint256"},{"internalType":"bytes32","name":"commitment","type":"bytes32"}],"name":"commitSealedBid","outputs":[],"stateMutability":"payable","type":"function"},{"inputs":[{"internalType":"uint256","name":"duration","type":"uint256"},{"internalType":"uint256","name":"startPrice","type":"uint256"},{"internalType":"uint256","name":"reservePrice","type":"uint256"},{"internalType":"address","name":"nftAddress","type":"address"},{"internalType":"uint256","name":"tokenId","type":"uint256"}],"name":"createAuction","outputs":[{"internalType":"uint256","name":"","type":"uint256"}],"stateMutability":"nonpayable","type":"function"},{"inputs":[{"internalType":"uint256","name":"duration","type":"uint256"},{"internalType":"uint256","name":"startPrice","type":"uint256"},{"internalType":"uint256","name":"reservePrice","type":"uint256"},{"internalType":"address","name":"nftAddress","type":"address"},{"internalType":"uint256","name":"tokenId","type":"uint256"},{"internalType":"enum NFTAuctionPlatformV2.AuctionType","name":"auctionType","type":"uint8"},{"internalType":"uint256","name":"buyNowPrice","type":"uint256"},{"internalType":"uint256","name":"minimumBidIncrement","type":"uint256"},{"internalType":"address[]","name":"bidTokenWhitelist","type":"address[]"}],"name":"createAuctionV2","outputs":[{"internalType":"uint256","name":"","type":"uint256"}],"stateMutability":"nonpayable","type":"function"},{"inputs":[],"name":"crossChainBridge","outputs":[{"internalType":"address","name":"","type":"address"}],"stateMutability":"view","type":"function"},{"inputs":[{"internalType":"uint256","name":"auctionId","type":"uint256"}],"name":"emergencyCancelAuction","outputs":[],"stateMutability":"nonpayable","type":"function"},{"inputs":[{"internalType":"uint256","name":"auctionId","type":"uint256"}],"name":"endAuction","outputs":[],"stateMutability":"nonpayable","type":"function"},{"inputs":[],"name":"feeRecipient","outputs":[{"internalType":"address","name":"","type":"address"}],"stateMutability":"view","type":"function"},{"inputs":[{"internalType":"uint256","name":"auctionId","type":"uint256"}],"name":"getAuction","outputs":[{"components":[{"internalType":"address","name":"seller","type":"address"},{"internalType":"uint256","name":"duration","type":"uint256"},{"internalType":"uint256","name":"startPrice","type":"uint256"},{"internalType":"uint256","name":"startTime","type":"uint256"},{"internalType":"bool","name":"ended","type":"bool"},{"internalType":"address","name":"highestBidder","type":"address"},{"internalType":"uint256","name":"highestBid","type":"uint256"},{"internalType":"address","name":"nftContract","type":"address"},{"internalType":"uint256","name":"tokenId","type":"uint256"},{"internalType":"address","name":"bidToken","type":"address"},{"internalType":"uint256","name":"originalBidAmount","type":"uint256"},{"internalType":"uint256","name":"reservePrice","type":"uint256"}],"internalType":"struct NFTAuctionPlatform.Auction","name":"","type":"tuple"}],"stateMutability":"view","type":"function"},{"inputs":[{"internalType":"uint256","name":"auctionId","type":"uint256"}],"name":"getAuctionParticipants","outputs":[{"internalType":"address[]","name":"","type":"address[]"}],"stateMutability":"view","type":"function"},{"inputs":[{"internalType":"uint256","name":"auctionId","type":"uint256"}],"name":"getAuctionStats","outputs":[{"components":[{"internalType":"uint256","name":"totalBids","type":"uint256"},{"internalType":"uint256","name":"uniqueBidders","type":"uint256"},{"internalType":"uint256","name":"averageBidAmount","type":"uint256"},{"internalType":"uint256","name":"lastBidTime","type":"uint256"}],"internalType":"struct NFTAuctionPlatformV2.AuctionStats","name":"","type":"tuple"}],"stateMutability":"view","type":"function"},{"inputs":[{"internalType":"uint256","name":"auctionId","type":"uint256"}],"name":"getDutchAuctionCurrentPrice","outputs":[{"internalType":"uint256","name":"","type":"uint256"}],"stateMutability":"view","type":"function"},{"inputs":[{"internalType":"uint256","name":"auctionId","type":"uint256"}],"name":"getTimeRemaining","outputs":[{"internalType":"uint256","name":"","type":"uint256"}],"stateMutability":"view","type":"function"},{"inputs":[{"internalType":"address","name":"tokenAddress","type":"address"},{"internalType":"uint256","name":"amount","type":"uint256"}],"name":"getTokenPriceInUSD","outputs":[{"internalType":"uint256","name":"","type":"uint256"}],"stateMutability":"view","type":"function"},{"inputs":[{"internalType":"uint256","name":"auctionId","type":"uint256"},{"internalType":"address","name":"bidder","type":"address"}],"name":"getUserBidAmount","outputs":[{"internalType":"uint256","name":"","type":"uint256"}],"stateMutability":"view","type":"function"},{"inputs":[{"internalType":"address","name":"user","type":"address"}],"name":"getUserParticipatedAuctions","outputs":[{"internalType":"uint256[]","name":"","type":"uint256[]"}],"stateMutability":"view","type":"function"},{"inputs":[{"internalType":"address","name":"user","type":"address"}],"name":"getUserWonAuctions","outputs":[{"internalType":"uint256[]","name":"","type":"uint256[]"}],"stateMutability":"view","type":"function"},{"inputs":[],"name":"initialize","outputs":[],"stateMutability":"nonpayable","type":"function"},{"inputs":[],"name":"initializeV2","outputs":[],"stateMutability":"nonpayable","type":"function"},{"inputs":[{"internalType":"uint256","name":"auctionId","type":"uint256"}],"name":"isAuctionActive","outputs":[{"internalType":"bool","name":"","type":"bool"}],"stateMutability":"view","type":"function"},{"inputs":[],"name":"nextAuctionId","outputs":[{"internalType":"uint256","name":"","type":"uint256"}],"stateMutability":"view","type":"function"},{"inputs":[{"internalType":"address","name":"","type":"address"},{"internalType":"address","name":"","type":"address"},{"internalType":"uint256","name":"","type":"uint256"},{"internalType":"bytes","name":"","type":"bytes"}],"name":"onERC721Received","outputs":[{"internalType":"bytes4","name":"","type":"bytes4"}],"stateMutability":"pure","type":"function"},{"inputs":[],"name":"owner","outputs":[{"internalType":"address","name":"","type":"address"}],"stateMutability":"view","type":"function"},{"inputs":[{"internalType":"uint256","name":"auctionId","type":"uint256"}],"name":"placeBidWithETH","outputs":[],"stateMutability":"payable","type":"function"},{"inputs":[{"internalType":"uint256","name":"auctionId","type":"uint256"},{"internalType":"address","name":"tokenAddress","type":"address"},{"internalType":"uint256","name":"amount","type":"uint256"}],"name":"placeBidWithToken","outputs":[],"stateMutability":"nonpayable","type":"function"},{"inputs":[],"name":"platformFeeRate","outputs":[{"internalType":"uint256","name":"","type":"uint256"}],"stateMutability":"view","type":"function"},{"inputs":[{"internalType":"address","name":"","type":"address"}],"name":"priceFeeds","outputs":[{"internalType":"contract AggregatorV3Interface","name":"","type":"address"}],"stateMutability":"view","type":"function"},{"inputs":[],"name":"proxiableUUID","outputs":[{"internalType":"bytes32","name":"","type":"bytes32"}],"stateMutability":"view","type":"function"},{"inputs":[],"name":"renounceOwnership","outputs":[],"stateMutability":"nonpayable","type":"function"},{"inputs":[{"internalType":"uint256","name":"auctionId","type":"uint256"},{"internalType":"uint256","name":"bidAmount","type":"uint256"},{"internalType":"address","name":"bidToken","type":"address"},{"internalType":"uint256","name":"nonce","type":"uint256"}],"name":"revealSealedBid","outputs":[],"stateMutability":"nonpayable","type":"function"},{"inputs":[{"internalType":"uint256","name":"","type":"uint256"},{"internalType":"address","name":"","type":"address"}],"name":"sealedBids","outputs":[{"internalType":"bytes32","name":"commitment","type":"bytes32"},{"internalType":"uint256","name":"deposit","type":"uint256"},{"internalType":"bool","name":"revealed","type":"bool"},{"internalType":"uint256","name":"actualBid","type":"uint256"},{"internalType":"address","name":"bidToken","type":"address"}],"stateMutability":"view","type":"function"},{"inputs":[{"internalType":"address","name":"_crossChainBridge","type":"address"}],"name":"setCrossChainBridge","outputs":[],"stateMutability":"nonpayable","type":"function"},{"inputs":[{"internalType":"address","name":"newFeeRecipient","type":"address"}],"name":"setFeeRecipient","outputs":[],"stateMutability":"nonpayable","type":"function"},{"inputs":[{"internalType":"uint256","name":"newFeeRate","type":"uint256"}],"name":"setPlatformFeeRate","outputs":[],"stateMutability":"nonpayable","type":"function"},{"inputs":[{"internalType":"address","name":"tokenAddress","type":"address"},{"internalType":"address","name":"priceFeed","type":"address"}],"name":"setPriceFeed","outputs":[],"stateMutability":"nonpayable","type":"function"},{"inputs":[{"internalType":"address","name":"newOwner","type":"address"}],"name":"transferOwnership","outputs":[],"stateMutability":"nonpayable","type":"function"},{"inputs":[{"internalType":"address","name":"newImplementation","type":"address"},{"internalType":"bytes","name":"data","type":"bytes"}],"name":"upgradeToAndCall","outputs":[],"stateMutability":"payable","type":"function"},{"inputs":[{"internalType":"address","name":"","type":"address"},{"internalType":"uint256","name":"","type":"uint256"}],"name":"userParticipatedAuctions","outputs":[{"internalType":"uint256","name":"","type":"uint256"}],"stateMutability":"view","type":"function"},{"inputs":[{"internalType":"address","name":"","type":"address"},{"internalType":"uint256","name":"","type":"uint256"}],"name":"userWonAuctions","outputs":[{"internalType":"uint256","name":"","type":"uint256"}],"stateMutability":"view","type":"function"}],"devdoc":{"details":"NFT ","errors":{"AddressEmptyCode(address)":[{"details":"There's no code at `target` (it is not a contract)."}],"ERC1967InvalidImplementation(address)":[{"details":"The `implementation` of the proxy is invalid."}],"ERC1967NonPayable()":[{"details":"An upgrade function sees `msg.value > 0` that may be lost."}],"FailedCall()":[{"details":"A call to an address target failed. The target may have reverted."}],"InvalidInitialization()":[{"details":"The contract is already initialized."}],"NotInitializing()":[{"details":"The contract is not initializing."}],"OwnableInvalidOwner(address)":[{"details":"The owner is not a valid owner account. (eg. `address(0)`)"}],"OwnableUnauthorizedAccount(address)":[{"details":"The caller account is not authorized to perform an operation."}],"ReentrancyGuardReentrantCall()":[{"details":"Unauthorized reentrant call."}],"UUPSUnauthorizedCallContext()":[{"details":"The call is from an unauthorized context."}],"UUPSUnsupportedProxiableUUID(bytes32)":[{"details":"The storage `slot` is unsupported as a UUID."}]},"events":{"Initialized(uint64)":{"details":"Triggered when the contract has been initialized or reinitialized."},"Upgraded(address)":{"details":"Emitted when the implementation is upgraded."}},"kind":"dev","methods":{"batchCreateAuctions((uint256,uint256,uint256,address,uint256[],uint8,uint256))":{"details":""},"buyNow(uint256,address)":{"details":""},"commitSealedBid(uint256,bytes32)":{"details":""},"constructor":{"custom:oz-upgrades-unsafe-allow":"constructor"},"createAuction(uint256,uint256,uint256,address,uint256)":{"details":"","params":{"duration":"","nftAddress":"NFT ","reservePrice":"18","startPrice":"18","tokenId":"NFT Token ID"}},"createAuctionV2(uint256,uint256,uint256,address,uint256,uint8,uint256,uint256,address[])":{"details":" V2 "},"emergencyCancelAuction(uint256)":{"details":"","params":{"auctionId":" ID"}},"endAuction(uint256)":{"details":"","params":{"auctionId":" ID"}},"getAuction(uint256)":{"details":"","params":{"auctionId":" ID"}},"getAuctionParticipants(uint256)":{"details":""},"getAuctionStats(uint256)":{"details":""},"getDutchAuctionCurrentPrice(uint256)":{"details":""},"getTimeRemaining(uint256)":{"details":"","params":{"auctionId":" ID"}},"getTokenPriceInUSD(address,uint256)":{"details":"","params":{"amount":"","tokenAddress":" (address(0)  ETH)"},"returns":{"_0":" (18)"}},"getUserBidAmount(uint256,address)":{"details":"","params":{"auctionId":" ID","bidder":""}},"getUserParticipatedAuctions(address)":{"details":""},"getUserWonAuctions(address)":{"details":""},"initialize()":{"details":""},"initializeV2()":{"details":""},"isAuctionActive(uint256)":{"details":"","params":{"auctionId":" ID"}},"owner()":{"details":"Returns the address of the current owner."},"placeBidWithETH(uint256)":{"details":" ETH ","params":{"auctionId":" ID"}},"placeBidWithToken(uint256,address,uint256)":{"details":" ERC20 ","params":{"amount":"","auctionId":" ID","tokenAddress":""}},"proxiableUUID()":{"details":"Implementation of the ERC-1822 {proxiableUUID} function. This returns the storage slot used by the implementation. It is used to validate the implementation's compatibility when performing an upgrade. IMPORTANT: A proxy pointing at a proxiable contract should not be considered proxiable itself, because this risks bricking a proxy that upgrades to it, by delegating to itself until out of gas. Thus it is critical that this function revert if invoked through a proxy. This is guaranteed by the `notDelegated` modifier."},"renounceOwnership()":{"details":"Leaves the contract without owner. It will not be possible to call `onlyOwner` functions. Can only be called by the current owner. NOTE: Renouncing ownership will leave the contract without an owner, thereby disabling any functionality that is only available to the owner."},"revealSealedBid(uint256,uint256,address,uint256)":{"details":""},"setCrossChainBridge(address)":{"details":"","params":{"_crossChainBridge":""}},"setFeeRecipient(address)":{"details":"","params":{"newFeeRecipient":""}},"setPlatformFeeRate(uint256)":{"details":"","params":{"newFeeRate":" (1000 = 10%)"}},"setPriceFeed(address,address)":{"details":"","params":{"priceFeed":"","tokenAddress":" (address(0)  ETH)"}},"transferOwnership(address)":{"details":"Transfers ownership of the contract to a new account (`newOwner`). Can only be called by the current owner."},"upgradeToAndCall(address,bytes)":{"custom:oz-upgrades-unsafe-allow-reachable":"delegatecall","details":"Upgrade the implementation of the proxy to `newImplementation`, and subsequently execute the function call encoded in `data`. Calls {_authorizeUpgrade}. Emits an {Upgraded} event."}},"title":"NFTAuctionPlatformV2","version":1},"evm":{"bytecode":{"linkReferences":{},"object":"60a0604052346200004257306080526200001862000047565b6200002262000047565b6040516150b69081620000e7823960805181818161270b01526127f00152f35b600080fd5b7ff0c57e16840df040f15088dc2f81fe391c3923bec73e23a9662efc9c229c6a00805460ff8160401c16620000d4576001600160401b036002600160401b0319828216016200009557505050565b6001600160401b031990911681179091556040519081527fc7f505b2f371ae2175ee4913f4499e1f2633a7b5936321eed1cdaeb6115181d290602090a1565b60405163f92ee8a960e01b8152600490fdfe608080604052600436101561001357600080fd5b600090813560e01c90816303700a5e146140a857508063150b7a021461403e5780631be662841461401f5780631fd95ac914613fcc5780632184630e14613728578063283a4218146134af5780632ae11ca8146133ba5780633fb351781461339c57806345cdba451461332957806346904840146133005780634a5e005114612d1a5780634e2d7f39146129a45780634f1ef2861461277557806352d1902d146126f8578063571a26a01461263d5780635cd8a76b146125a35780636c3203ef146122695780636ce0572e1461106d578063715018a6146121fe57806376e112861461218457806378bd79351461207d5780637f0ebb031461203d5780638129fc1c14611ecb578063866a2f7114611e7e5780638bc31a3514611dee5780638ca9ccba146117905780638cd42991146117715780638da5cb5b1461173b5780638f347257146110b457806391dad3071461106d578063927fef2e146110085780639bfd3b3814610b365780639dcb511a14610afb578063a0c048fa14610ab3578063a11d0dc414610a74578063ad3cb1cc146109cf578063b3e26566146109a6578063b9a2de3a14610543578063bd9ff32b146104b4578063c2f50a7a14610497578063c65feb2714610417578063ded75d79146103c1578063e71f7b151461034a578063e74b981b146102cc578063eeca08f0146102ae578063f2fde38b14610281578063fc528482146102635763fc9274001461023157600080fd5b3461026057604036600319011261026057602061025861024f614132565b60243590614b3c565b604051908152f35b80fd5b50346102605780600319360112610260576020600354604051908152f35b5034610260576020366003190112610260576102ab61029e614132565b6102a6614b90565b6148a7565b80f35b50346102605780600319360112610260576020600554604051908152f35b5034610260576020366003190112610260576102e6614132565b6102ee614b90565b6001600160a01b03168015610313576001600160601b0360a01b600654161760065580f35b60405162461bcd60e51b815260206004820152600f60248201526e496e76616c6964206164647265737360881b6044820152606490fd5b5034610260576020366003190112610260576103736040602092600435815260028452206142ac565b60808101511590816103a5575b81610391575b506040519015158152f35b516001600160a01b03161515905038610386565b90506103b96060820151838301519061461b565b421090610380565b5034610260576040366003190112610260576103db614132565b6001600160a01b03168152600b6020526040812080546024359290831015610260576020610409848461415e565b90546040519160031b1c8152f35b503461026057602036600319011261026057604060e091600435815260076020522060ff815416906001810154906002810154600382015460ff6004840154169160ff600760058601549501541694610473604051809861429f565b6020870152604086015260608501521515608084015260a0830152151560c0820152f35b50346102605780600319360112610260576020604051610e108152f35b50346102605760208060031936011261053f576001600160a01b036104d7614132565b168252600b81526040822091604051809384918482549182815201918452848420935b858282106105295750505061051192500383614226565b61052560405192828493845283019061418c565b0390f35b85548452600195860195889550930192016104fa565b5080fd5b50346102605760208060031936011261053f57600435610561614b60565b808352600282526040832080546001600160a01b0393908416919061058783151561458a565b600482019283549061059c60ff831615614698565b6105af600385015460018601549061461b565b42109081159161099c575b501561095f5760ff191660011780845560081c851615158061094d575b15610870576105e5826142ac565b92610140840151876106076127106105ff6005548561440b565b0480936143de565b958860e082015116948960a083015116610100830151873b1561086c57604051632142170760e11b81523060048201526001600160a01b0392909216602483015260448201529583908790606490829084905af1958615610861578a96610848575b506101208201518616806107155750509080808060008051602061504183398151915299886106a49651165af161069e614bc9565b50614ee4565b87816106f2575b50505b5460058301546008938401546040805192835297166001600160a01b03166020820152921c1693819081015b0390a360016000805160206150618339815191525580f35b80808061070e9487600654165af1610708614bc9565b50614f30565b38876106ab565b915160405163a9059cbb60e01b8082526001600160a01b0398909216979097166004880152602487019890985292915082856044818d855af194851561083d578995610767918c916108205750614ee4565b81610786575b50505060008051602061504183398151915293506106ae565b600654604051978852949094166001600160a01b03166004870152602486015293918490839060449082908b905af1938415610815576000805160206150418339815191529487936107e0928a926107e8575b5050614f30565b38808061076d565b6108079250803d1061080e575b6107ff8183614226565b810190614572565b38806107d9565b503d6107f5565b6040513d89823e3d90fd5b6108379150853d871161080e576107ff8183614226565b3861069e565b6040513d8c823e3d90fd5b83919650610855906141dc565b61053f57889438610669565b6040513d85823e3d90fd5b8480fd5b5061087a816142ac565b8460e082015116908686825116610100830151843b1561094957604051632142170760e11b81523060048201526001600160a01b0392909216602483015260448201529281908490606490829084905af192831561093c57879361091f575b505092838260a06000805160206150418339815191529601511680610900575b50506106ae565b81610140856101206109189501511691015191614bf9565b38806108f9565b61092b919293506141dc565b61093857849086386108d9565b8580fd5b50604051903d90823e3d90fd5b8280fd5b506005820154600a83015411156105d7565b60405162461bcd60e51b8152600481018390526015602482015274105d58dd1a5bdb881b9bdd081e595d08195b991959605a1b6044820152606490fd5b90503314386105ba565b50346102605780600319360112610260576001546040516001600160a01b039091168152602090f35b5034610260578060031936011261026057604051604081018181106001600160401b03821117610a5e5760405260058152602091640352e302e360dc1b602083015260405192839160208352835191826020850152815b838110610a4757505060408094508284010152601f80199101168101030190f35b808601820151878201604001528694508101610a26565b634e487b7160e01b600052604160045260246000fd5b503461026057602036600319011261026057610a9f6040610525926004358152600960205220614346565b604051918291602083526020830190614262565b503461026057604036600319011261026057610acd614132565b6001600160a01b03168152600c6020526040812080546024359290831015610260576020610409848461415e565b5034610260576020366003190112610260576020906001600160a01b039060409082610b25614132565b168152808452205416604051908152f35b50346102605760a036600319011261026057602490610b53614148565b610b5b614b60565b610e10600435101580610ff9575b15610fc257823515610f7e57823560443510610f42576001600160a01b03811615610f07576040516331a9108f60e11b8152608435600482015260208185816001600160a01b0386165afa9081156108615790610bd8918491610ee8575b506001600160a01b0316331461477e565b60405163e985e9c560e01b81523360048201523060248201526020816044816001600160a01b0386165afa908115610861578391610ec9575b508015610e4d575b610c22906147bd565b6001600160a01b0381163b1561053f57604051632142170760e11b815233600482015230602482015260843560448201528281606481836001600160a01b0387165af1801561086157610e39575b5060209260035492610c8184614750565b600355600a6101606040805193610c97856141ef565b338552600435898601528535828601524260608601528060808601528060a08601528060c086015260018060a01b03871660e086015260843561010086015280610120860152806101408601526044358386015287815260028952209260018060a01b038151166001600160601b0360a01b90818654161785558882015160018601556040820151600286015560608201516003860155610d7860048601610d5160808501511515829060ff801983541691151516179055565b60a08401518154610100600160a81b03191660089190911b610100600160a81b0316179055565b60c0820151600586015560e082015160068601805483166001600160a01b0392831617905561010083015160078701556101208301516008870180549093169082161790915561014082015160098601559101519190920155604080516084358152923560208401526044359083015260043560608301529190911690339083907fcaf0ae751fb2b122e8718bf7c0d4b7584d1418a853a4d0cdaba45418d3da138b90608090a4600160008051602061506183398151915255604051908152f35b610e4383916141dc565b61053f5738610c70565b5060405163020604bf60e21b8152608435600482015260208185816001600160a01b0386165afa9081156108615790610c22918491610e9a575b506001600160a01b031630149050610c19565b610ebc915060203d602011610ec2575b610eb48183614226565b81019061475f565b38610e87565b503d610eaa565b610ee2915060203d60201161080e576107ff8183614226565b38610c11565b610f01915060203d602011610ec257610eb48183614226565b38610bc7565b60405162461bcd60e51b81526020600482015260148185015273125b9d985b1a59081391950818dbdb9d1c9858dd60621b6044820152606490fd5b60405162461bcd60e51b815260206004820152601581850152745265736572766520707269636520746f6f206c6f7760581b6044820152606490fd5b60405162461bcd60e51b815260206004820152601c818501527f5374617274207072696365206d75737420626520706f736974697665000000006044820152606490fd5b60405162461bcd60e51b8152602060048201526010818501526f24b73b30b634b210323ab930ba34b7b760811b6044820152606490fd5b5062278d006004351115610b69565b503461026057602036600319011261026057600435611025614b90565b6103e881116110345760055580f35b60405162461bcd60e51b815260206004820152601160248201527008ccaca40e4c2e8ca40e8dede40d0d2ced607b1b6044820152606490fd5b503461026057604036600319011261026057604061108961411c565b9160043581526004602052209060018060a01b03166000526020526020604060002054604051908152f35b506040366003190112610260576004356110cc61411c565b906110d5614b60565b8083526020600281526110ea604085206142ac565b9282855260078252604085209360405190611104826141c0565b60ff8654166003811015611727578252600186015484830152600286015460408301526003860154916060810192835260e060ff60078160048b01541699608085019a15158b52600581015460a086015261116160068201614346565b60c0860152015416151591015280516001600160a01b039690611187908816151561458a565b6111956080830151156143a2565b51156116ea578590511633146116b1575193818116806114e257856111b934614a0b565b106114a65761121587915b86835260028652604083206004810180546001600160a81b0319163360081b610100600160a81b03161760011790559088600583015560088201906001600160601b0360a01b8254161790556142ac565b916101408301519261123761271061122f6005548761440b565b0480956143de565b908260e0820151168360a083015116610100830151823b156114a257604051632142170760e11b81523060048201526001600160a01b0392909216602483015260448201529085908290606490829084905af190811561149757859161147f575b5050610120810151831680611343575092826112e9828080806106da9b9a977f25fd3809e71ab0de85ab3c43a9f9d0b7c57b056ae8873faef831e57c691b67d79d99600c9b51165af161069e614bc9565b82611325575b5050505b338852526113048460408820614663565b604080519586526001600160a01b0390911660208601523394918291820190565b818061133b948193600654165af1610708614bc9565b3888816112ef565b905160405163a9059cbb60e01b8082529185166001600160a01b031660048201526024810193909352909390929091878160448186895af18015610861576113919184916114685750614ee4565b846113c9575b50505050506106da90600c7f25fd3809e71ab0de85ab3c43a9f9d0b7c57b056ae8873faef831e57c691b67d7936112f3565b600654604051938452166001600160a01b0316600483015260248201939093529291849184916044918391905af1801561145d577f25fd3809e71ab0de85ab3c43a9f9d0b7c57b056ae8873faef831e57c691b67d793611435600c926106da958a916114405750614f30565b938293508738611397565b6114579150833d851161080e576107ff8183614226565b38610708565b6040513d88823e3d90fd5b6108379150893d8b1161080e576107ff8183614226565b611488906141dc565b611493578338611298565b8380fd5b6040513d87823e3d90fd5b8680fd5b60405162461bcd60e51b8152600481018590526014602482015273125b9cdd59999a58da595b9d081c185e5b595b9d60621b6044820152606490fd5b6114f46114ef8487614df8565b614863565b8087528684528160408820541661150c81151561491b565b604051633fabe5a360e21b815260a081600481855afa9081156116705760049287918b9361167b575b506115418b84136149a5565b60405163313ce56760e01b815293849182905afa918215611670578992611641575b50670de0b6b3a7640000918282029180830484149015171561162d579061158c611592926149fa565b906143eb565b908088029088820414881517156116195791856115b36115e0938b956143eb565b6040516323b872dd60e01b8152336004820152306024820152604481019190915292839081906064820190565b038186855af191821561086157611215926115fc575b506111c4565b61161290873d891161080e576107ff8183614226565b50386115f6565b634e487b7160e01b89526011600452602489fd5b634e487b7160e01b8a52601160045260248afd5b611662919250863d8811611669575b61165a8183614226565b8101906149e1565b9038611563565b503d611650565b6040513d8b823e3d90fd5b61169e91935060a03d60a0116116aa575b6116968183614226565b810190614973565b50505090509138611535565b503d61168c565b60405162461bcd60e51b815260048101849052601160248201527053656c6c65722063616e6e6f742062757960781b6044820152606490fd5b60405162461bcd60e51b8152600481018590526015602482015274427579206e6f77206e6f7420617661696c61626c6560581b6044820152606490fd5b634e487b7160e01b88526021600452602488fd5b5034610260578060031936011261026057600080516020615021833981519152546040516001600160a01b039091168152602090f35b50346102605760203660031901126102605760206102586004356147fc565b503461026057610120366003190112610260576117ab614148565b90600360a4351015610260576001600160401b0380610104351161053f573660236101043501121561053f5761010435600401351161026057366024610104356004013560051b6101043501011161026057611805614b60565b6003549161181283614750565b6003556040516331a9108f60e11b815260843560048201526020816024816001600160a01b0386165afa908115610861579061185f918491610ee857506001600160a01b0316331461477e565b60405163e985e9c560e01b81523360048201523060248201526020816044816001600160a01b0386165afa908115610861578391611dcf575b508015611d62575b6118a9906147bd565b6001600160a01b0381163b1561053f57604051632142170760e11b815233600482015230602482015260843560448201528281606481836001600160a01b0387165af1801561086157908391611d4e575b5050604051611908816141ef565b338152600435602082015260243560408201524260608201528260808201528260a08201528260c082015260018060a01b03821660e082015260843561010082015282610120820152826101408201526044356101608201528383526002602052600a610160604085209260018060a01b038151166001600160601b0360a01b8554161784556020810151600185015560408101516002850155606081015160038501556119f6600485016119cf60808401511515829060ff801983541691151516179055565b60a08301518154610100600160a81b03191660089190911b610100600160a81b0316179055565b60c0810151600585015560e08101516006850180546001600160a01b03199081166001600160a01b03938416179091556101008301516007870155610120830151600887018054909216908316179055610140820151600986015591015191909201556040805160843581526024356020820152604435918101919091526004356060820152911690339084907fcaf0ae751fb2b122e8718bf7c0d4b7584d1418a853a4d0cdaba45418d3da138b90608090a481815260076020526040812060ff1981541660ff60a4351617815560c4356003820155611ae960c4351515600483019060ff801983541691151516179055565b60e4356005820155600160401b610104356004013511611d3a57600681018054600461010435013591829055908111611d08575b506006810182526020822061010435602401835b61010435600401358110611ced5750505060078101805460ff19166101043560040135151560ff1617905560009060a435600103611ca0576024356044351015611c4d576001611b95611b886044356024356143de565b610e1060043504906143eb565b9101555b604051611ba58161420b565b828152600360208201848152604083018581526060840191868352878752600a602052604087209451855551600185015551600284015551910155611c395760208260405160c435815260e43583820152817f4a5d64507c82bc8298d14deb0d31fdfafd619bd90afe131fbea1f556370a2eb3604060a43593a3600160008051602061506183398151915255604051908152f35b634e487b7160e01b81526021600452602490fd5b60405162461bcd60e51b815260206004820152602560248201527f496e76616c69642070726963652072616e676520666f7220447574636820617560448201526431ba34b7b760d91b6064820152608490fd5b6000915060a435600214611cb5575b50611b99565b611cc16004354261461b565b90620151808201809211611cd9576002015538611caf565b634e487b7160e01b84526011600452602484fd5b6001906020611cfb84614728565b9301928185015501611b31565b6006820183526020832090610104356004013582015b8183018110611d2e575050611b1d565b60008155600101611d1e565b634e487b7160e01b82526041600452602482fd5b611d57906141dc565b61053f5781386118fa565b5060405163020604bf60e21b815260843560048201526020816024816001600160a01b0386165afa90811561086157906118a9918491611db0575b506001600160a01b0316301490506118a0565b611dc9915060203d602011610ec257610eb48183614226565b38611d9d565b611de8915060203d60201161080e576107ff8183614226565b38611898565b50346102605760203660031901126102605760408160809260608351611e138161420b565b828152826020820152828582015201526004358152600a60205220604051611e3a8161420b565b815491828252600181015460208301908152606060036002840154936040860194855201549301928352604051938452516020840152516040830152516060820152f35b5034610260576020366003190112610260576004358152600a6020908152604091829020805460018201546002830154600390930154855192835293820152928301526060820152608090f35b50346102605780600319360112610260577ff0c57e16840df040f15088dc2f81fe391c3923bec73e23a9662efc9c229c6a00805460ff8160401c1615906001600160401b03811680159081612035575b600114908161202b575b159081612022575b506120105767ffffffffffffffff198116600117835581611ff1575b50611f52614f7c565b611f5a614f7c565b611f63336148a7565b611f6b614f7c565b611f73614f7c565b611f7b614f7c565b600160008051602061506183398151915255600160035560fa600555336001600160601b0360a01b6006541617600655611fb3575080f35b68ff00000000000000001981541690557fc7f505b2f371ae2175ee4913f4499e1f2633a7b5936321eed1cdaeb6115181d2602060405160018152a180f35b68ffffffffffffffffff19166801000000000000000117825538611f49565b60405163f92ee8a960e01b8152600490fd5b90501538611f2d565b303b159150611f25565b839150611f1b565b503461026057602036600319011261026057612057614132565b61205f614b90565b60018060a01b03166001600160601b0360a01b600154161760015580f35b5034610260576020366003190112610260576040516101809161209f826141ef565b8082528060208301528060408301528060608301528060808301528060a08301528060c08301528060e08301526101009181838201526101208281830152610140838184015261210460408561016096878097015260043581526002602052206142ac565b916040519560018060a01b03908185511688526020850151602089015260408501516040890152606085015160608901526080850151151560808901528160a08601511660a089015260c085015160c08901528160e08601511660e089015280850151908801528184015116908601528082015190850152015190820152f35b50346102605760403660031901126102605761219e614132565b6121a661411c565b6121ae614b90565b60018060a01b0380911691168083528260205260408320826001600160601b0360a01b8254161790557fa8abe0398416476db5b05737cd4da3b3cbde5012d978a6a6c3fd49d3217535368380a380f35b5034610260578060031936011261026057612217614b90565b60008051602061502183398151915280546001600160a01b031981169091556000906001600160a01b03167f8be0079c531659141344cd1fd0a4f28419497f9722a3daafe3b4186f6b6457e08280a380f35b50346102605760031960203682011261053f576001600160401b036004351161053f5760e09060043536030112610260576122a2614b60565b6122b66084600435016004356004016146dc565b9050156125695760326122d36084600435016004356004016146dc565b905011612532576122ee6084600435016004356004016146dc565b90506122f981614711565b906123076040519283614226565b808252612316601f1991614711565b01366020830137815b6123336084600435016004356004016146dc565b90508110156124a95761234a606460043501614728565b9061235f6084600435016004356004016146dc565b82939193101561249557600360a46004350135101561086c57604051928360208101106001600160401b03602086011117610a5e5760209182850160405286855261242a6040519586938493634654e65d60e11b855260043560040135600486015260246004350135602486015260446004350135604486015260018060a01b031660648501528660051b0135608484015261240460a4840160a4600435013561429f565b60c4600435013560c48401528860e4840152610120610104840152610124830190614262565b038187305af1801561248a578490612452575b6001925061244b828561473c565b520161231f565b506020823d602011612482575b8161246c60209383614226565b8101031261247d576001915161243d565b600080fd5b3d915061245f565b6040513d86823e3d90fd5b634e487b7160e01b85526032600452602485fd5b50600360a46004350135101561053f5761052590604051604081527fa6c16b80e996df657323141eac9568a3d32a4652b0a15c2c1fe68613c17b55536124f2604083018461418c565b916125066020820160a4600435013561429f565b8033930390a260016000805160206150618339815191525560405191829160208352602083019061418c565b60405162461bcd60e51b815260206004820152600f60248201526e546f6f206d616e7920746f6b656e7360881b6044820152606490fd5b60405162461bcd60e51b8152602060048201526012602482015271139bc81d1bdad95b9cc81c1c9bdd9a59195960721b6044820152606490fd5b50346102605780600319360112610260577ff0c57e16840df040f15088dc2f81fe391c3923bec73e23a9662efc9c229c6a00805460ff8160401c168015612629575b6120105760029068ffffffffffffffffff19161790557fc7f505b2f371ae2175ee4913f4499e1f2633a7b5936321eed1cdaeb6115181d2602060405160028152a180f35b5060026001600160401b03821610156125e5565b503461026057602036600319011261026057604061018091600435815260026020522060018060a01b03808254169160018101549160028201549060038301549060048401549060058501549080600687015416926007870154948260088901541696600a60098a0154990154996040519b8c5260208c015260408b015260608a015260ff8116151560808a015260081c1660a088015260c087015260e0860152610100850152610120840152610140830152610160820152f35b50346102605780600319360112610260577f00000000000000000000000000000000000000000000000000000000000000006001600160a01b031630036127635760206040517f360894a13ba1a3210667c828492db98dca3e2076cc3735a920a3ca505d382bbc8152f35b60405163703e46dd60e11b8152600490fd5b5060403660031901126102605761278a614132565b60249182356001600160401b03811161053f573660238201121561053f578060040135926127b784614247565b6127c46040519182614226565b848152602094858201933688838301011161093857818692898993018737830101526001600160a01b037f00000000000000000000000000000000000000000000000000000000000000008116308114908115612976575b5061276357612829614b90565b6040516352d1902d60e01b81529083169580826004818a5afa9182918793612946575b505061286a57604051634c9c8ce360e01b8152600481018790528790fd5b8590877f360894a13ba1a3210667c828492db98dca3e2076cc3735a920a3ca505d382bbc918281036129315750843b1561291b575080546001600160a01b031916821790556040518592917fbc7cd75a20ee27fd9adebab32041f755214dbc6bffa90cc0225b39da2e5c2d3b8480a28151156128fe57506128fa9382915190845af46128f4614bc9565b91614fbd565b5080f35b93505050503461290c575080f35b63b398979f60e01b8152600490fd5b604051634c9c8ce360e01b815260048101849052fd5b60405190632a87526960e21b82526004820152fd5b9080929350813d831161296f575b61295e8183614226565b81010312610938575190388061284c565b503d612954565b9050817f360894a13ba1a3210667c828492db98dca3e2076cc3735a920a3ca505d382bbc541614153861281c565b5034610260576080366003190112610260576024803590600435906044356001600160a01b038116919082810361247d576064906129e0614b60565b84875260209360028552604088209260078652604089209460405195612a05876141c0565b60ff8154166003811015612cd057875260018101548888015260ff600760028301549260408a01938452600381015460608b015282600482015416151560808b0152600581015460a08b0152612a5d60068201614346565b60c08b0152015416151560e0880152600486019660ff88541615612ce357516003811015612cd0576002612a9191146145cf565b514211612c9957878a526008875260408a203360005287526040600020918254908115612c6257600284019283549260ff8416612c2d57604051908d8c83019081526001600160601b03198a60601b166040840152843560548401523360601b60748401526068835260a08301938385106001600160401b03861117612c195750836040528251902003612bea575050508960047fe114ea9e9a27652a7d68437b8464a4c003a7697f8123821f48a4b83718c05bc699989694829896946001612b7c9560ff191617905582600382015501936001600160601b0360a01b948486825416179055614b3c565b6005840180548211612bae575b505050505050506040519384523393a360016000805160206150618339815191525580f35b8554610100600160a81b0319163360081b610100600160a81b031617909555600994556008830191825416179055015583388080808080612b89565b60e46d125b9d985b1a59081c995d99585b60921b918c62461bcd60e51b855260a4820152600e60c48201520152fd5b634e487b7160e01b60009081526041600452fd5b5060108a916040519262461bcd60e51b845260048401528201526f105b1c9958591e481c995d99585b195960821b6044820152fd5b60405162461bcd60e51b8152600481018a905260138185015272139bc818dbdb5b5a5d1b595b9d08199bdd5b99606a1b6044820152fd5b601387916040519262461bcd60e51b845260048401528201527214995d99585b081c195c9a5bd908195b991959606a1b6044820152fd5b634e487b7160e01b8c526021600452828cfd5b60405162461bcd60e51b8152600481018a905260118185015270105d58dd1a5bdb881b9bdd08195b991959607a1b60448201528490fd5b5060208060031936011261053f5760043590612d34614b60565b34156132c557612d4334614a0b565b826000526007825260406000209060405190612d5e826141c0565b60ff835416926003938481101561307a57835260018101548584015260029081810154604085015284810154606085015260ff6004820154161515608085015260ff600760058301549260a08701938452612dbb60068201614346565b60c0880152015416151560e0850152612dd66114ef88614d06565b8051613256575b5082518481101561307a5781146131fd5760008681528186526040902080546001600160a01b0390811691612e1383151561458a565b60048101805490612e2760ff8316156143a2565b88830193845495612e3e600186019788549061461b565b4210156131c657331461318d578684015488106131505760058401928354891115613115579181612e98928a959460081c16806130f9575b50508054610100600160a81b0319163360081b610100600160a81b0316179055565b55600881016001600160601b0360a01b815416905560093491015587600052600487526040600020336000528752836040600020555490612eeb815492610384918291612ee686429261461b565b6143de565b106130e7575b50505060006040513481528387820152877f2808decb743a25d04efe1bd3dc192acde3be644e2f6ad1dce5d3c46643e1c60260403393a485600052600a8552604060002090612f408254614750565b8255428583015586600052600486526040600020336000528652604060002054156130a6575b810180549154909260001982019082821161309057612f8b612f9092612f959561440b565b61461b565b6143eb565b9055519081101561307a57600114612fbe575b8260016000805160206150618339815191525580f35b6040516306f998a160e21b8152600481018390528181602481305afa90811561306e57600091613021575b506040907f3e4d8ed649dd2450d7270ff39de8be25aa60ce073687cfbcf658a1bbd02e56f49282519182524290820152a23880612fa8565b90508181813d8311613067575b6130388183614226565b8101031261247d57517f3e4d8ed649dd2450d7270ff39de8be25aa60ce073687cfbcf658a1bbd02e56f4612fe9565b503d61302e565b6040513d6000823e3d90fd5b634e487b7160e01b600052602160045260246000fd5b634e487b7160e01b600052601160045260246000fd5b600182016130b48154614750565b905586600052600986526130cc336040600020614628565b33600052600b86526130e2876040600020614663565b612f66565b82018092116130905755388080612ef1565b61310e91600888015416600988015491614bf9565b3880612e76565b60405162461bcd60e51b8152600481018d90526013602482015272084d2c840dcdee840d0d2ced040cadcdeeaced606b1b6044820152606490fd5b60405162461bcd60e51b8152600481018c905260156024820152744269642062656c6f7720737461727420707269636560581b6044820152606490fd5b60405162461bcd60e51b8152600481018c9052601160248201527014d95b1b195c8818d85b9b9bdd08189a59607a1b6044820152606490fd5b60405162461bcd60e51b8152600481018d9052600f60248201526e105d58dd1a5bdb88195e1c1a5c9959608a1b6044820152606490fd5b60405162461bcd60e51b815260048101869052602b60248201527f55736520636f6d6d69745365616c656442696420666f72207365616c6564206260448201526a69642061756374696f6e7360a81b6064820152608490fd5b61327a908760005282875260c061327060406000206142ac565b015190519061461b565b82106132865738612ddd565b60405162461bcd60e51b8152600481018690526017602482015276109a59081a5b98dc995b595b9d081d1bdbc81cdb585b1b604a1b6044820152606490fd5b6064906040519062461bcd60e51b825260048201526014602482015273426964206d75737420626520706f73697469766560601b6044820152fd5b50346102605780600319360112610260576006546040516001600160a01b039091168152602090f35b50346102605760208060031936011261053f576001600160a01b0361334c614132565b168252600c81526040822091604051809384918482549182815201918452848420935b858282106133865750505061051192500383614226565b855484526001958601958895509301920161336f565b5034610260578060031936011261026057602060405162278d008152f35b5034610260576020366003190112610260576133d4614b90565b600435815260026020526040812080546001600160a01b03919082166133fb81151561458a565b60048201906001825461341160ff821615614698565b60ff19161782556006830154600784015486918616803b1561094957604051632142170760e11b81523060048201526001600160a01b0394909416602485015260448401919091528290606490829084905af180156114975761349c575b505460081c82169081613480578380f35b60096134959360088301541691015491614bf9565b3880808380f35b936134a88492956141dc565b939061346f565b506040366003190112610260576004356024908135916134cd614b60565b818452602090600282526134e3604086206142ac565b8386526007835260408620604051906134fb826141c0565b60ff81541660038110156137155760ff91600791845260018101548785015260028101546040850152600381015460608501528260048201541615156080850152600581015460a085015261355260068201614346565b60c0850152015416151560e08201528151613577906001600160a01b0316151561458a565b6135856080830151156143a2565b516003811015613702579061359f60026135ae93146145cf565b8360608201519101519061461b565b4210156136c857341561369157828552600882526040852033865282526040852090815461365a57508084600292553460018201550160ff198154169055818452600981526136003360408620614628565b338452600b81526136148260408620614663565b60405192835234908301527f04e71b78e229efc5f686df2afb7777d59c497424a6eeef4f2e705824fd915fd260403393a360016000805160206150618339815191525580f35b8260116064926040519262461bcd60e51b8452600484015282015270105b1c9958591e4818dbdb5b5a5d1d1959607a1b6044820152fd5b9060116064926040519262461bcd60e51b8452600484015282015270135d5cdd081cd95b990819195c1bdcda5d607a1b6044820152fd5b9060146064926040519262461bcd60e51b8452600484015282015273109a59191a5b99c81c195c9a5bd908195b99195960621b6044820152fd5b634e487b7160e01b875260216004528287fd5b634e487b7160e01b895260216004528489fd5b50346102605760603660031901126102605761374261411c565b61374a614b60565b60443515613f87576001600160a01b03811615613f42576001600160a01b038181168352602083905260408320541615613f07576040516370a0823160e01b81523360048201526020816024816001600160a01b0386165afa908115610861578391613ed5575b5060443511613e9957604051636eb1769f60e11b81523360048201523060248201526020816044816001600160a01b0386165afa908115610861578391613e67575b5060443511613e295761380860443582614b3c565b6040516323b872dd60e01b81523360048201523060248201526044803590820152602081606481876001600160a01b0388165af1801561248a57613e0a575b5060043583526007602052604083209160405192613864846141c0565b60ff8154166003811015613df657845260018101546020850152600281015460408501526003810154606085015260ff6004820154161515608085015260ff600760058301549260a087019384526138be60068201614346565b60c0880152015416151560e08501526138dc6114ef83600435614df8565b8051613d8f575b5082516003811015613d7b57600214613d2257600435845260026020526040842080546001600160a01b031661391a81151561458a565b60048201549061392d60ff8316156143a2565b613940600384015460018501549061461b565b421015613ceb573314613cb25760028201548410613c75576005820154841115613c3a5760081c6001600160a01b031680613c15575b50600481018054610100600160a81b0319163360081b610100600160a81b03161790558260058201556008810160018060a01b0383166001600160601b0360a01b825416179055604435600982015560043585526004602052604085203386526020528260408620556003810154906139ff600182015492610384918291612ee686429261461b565b10613bec575b5050604080516044358152602081018590526001600160a01b0390931692339250600435917f2808decb743a25d04efe1bd3dc192acde3be644e2f6ad1dce5d3c46643e1c60291a46004358352600a60205260408320613a658154614750565b81554260038201556004358452600460205260408420338552602052604084205415613ba9575b60028101918254915491600019830190838211613b955791612f8b612f9092613ab5959461440b565b9055516003811015613b8157600114613ade575b60016000805160206150618339815191525580f35b6040516306f998a160e21b81526004803590820152602081602481305afa908115613b76578291613b44575b506040519081524260208201527f3e4d8ed649dd2450d7270ff39de8be25aa60ce073687cfbcf658a1bbd02e56f4604060043592a2613ac9565b90506020813d602011613b6e575b81613b5f60209383614226565b8101031261053f575138613b0a565b3d9150613b52565b6040513d84823e3d90fd5b634e487b7160e01b82526021600452602482fd5b634e487b7160e01b87526011600452602487fd5b60018101613bb78154614750565b905560043584526009602052613bd03360408620614628565b338452600b602052613be760043560408620614663565b613a8c565b8201809211613c015760010155388080613a05565b634e487b7160e01b86526011600452602486fd5b60088201546009830154613c349290916001600160a01b031690614bf9565b38613976565b60405162461bcd60e51b8152602060048201526013602482015272084d2c840dcdee840d0d2ced040cadcdeeaced606b1b6044820152606490fd5b60405162461bcd60e51b81526020600482015260156024820152744269642062656c6f7720737461727420707269636560581b6044820152606490fd5b60405162461bcd60e51b815260206004820152601160248201527014d95b1b195c8818d85b9b9bdd08189a59607a1b6044820152606490fd5b60405162461bcd60e51b815260206004820152600f60248201526e105d58dd1a5bdb88195e1c1a5c9959608a1b6044820152606490fd5b60405162461bcd60e51b815260206004820152602b60248201527f55736520636f6d6d69745365616c656442696420666f72207365616c6564206260448201526a69642061756374696f6e7360a81b6064820152608490fd5b634e487b7160e01b85526021600452602485fd5b613dab906004358652600260205260c0613270604088206142ac565b8210613db757386138e3565b60405162461bcd60e51b8152602060048201526017602482015276109a59081a5b98dc995b595b9d081d1bdbc81cdb585b1b604a1b6044820152606490fd5b634e487b7160e01b86526021600452602486fd5b613e229060203d60201161080e576107ff8183614226565b5038613847565b60405162461bcd60e51b8152602060048201526016602482015275496e73756666696369656e7420616c6c6f77616e636560501b6044820152606490fd5b90506020813d602011613e91575b81613e8260209383614226565b810103126109495751386137f3565b3d9150613e75565b60405162461bcd60e51b8152602060048201526014602482015273496e73756666696369656e742062616c616e636560601b6044820152606490fd5b90506020813d602011613eff575b81613ef060209383614226565b810103126109495751386137b1565b3d9150613ee3565b60405162461bcd60e51b8152602060048201526013602482015272151bdad95b881b9bdd081cdd5c1c1bdc9d1959606a1b6044820152606490fd5b60405162461bcd60e51b815260206004820152601b60248201527f55736520706c6163654269645769746845544820666f722045544800000000006044820152606490fd5b60405162461bcd60e51b815260206004820152601760248201527f416d6f756e74206d75737420626520706f7369746976650000000000000000006044820152606490fd5b503461026057604036600319011261026057602435906004358152600960205260408120908154831015610260576020614006848461415e565b905460405160039290921b1c6001600160a01b03168152f35b503461026057602036600319011261026057602061025860043561441e565b503461026057608036600319011261026057614058614132565b5061406161411c565b506064356001600160401b038082116109495736602383011215610949578160040135908111610949573691016024011161026057604051630a85bd0160e11b8152602090f35b90503461053f57604036600319011261053f5760a09160406140c861411c565b9160043581526008602052818120600180871b03809416825260205220805491600182015460ff60028401541691600460038501549401541693855260208501521515604084015260608301526080820152f35b602435906001600160a01b038216820361247d57565b600435906001600160a01b038216820361247d57565b606435906001600160a01b038216820361247d57565b80548210156141765760005260206000200190600090565b634e487b7160e01b600052603260045260246000fd5b90815180825260208080930193019160005b8281106141ac575050505090565b83518552938101939281019260010161419e565b61010081019081106001600160401b03821117610a5e57604052565b6001600160401b038111610a5e57604052565b61018081019081106001600160401b03821117610a5e57604052565b608081019081106001600160401b03821117610a5e57604052565b90601f801991011681019081106001600160401b03821117610a5e57604052565b6001600160401b038111610a5e57601f01601f191660200190565b90815180825260208080930193019160005b828110614282575050505090565b83516001600160a01b031685529381019392810192600101614274565b90600382101561307a5752565b906040516142b9816141ef565b82546001600160a01b039081168252600184015460208301526002840154604083015260038401546060830152600484015460ff811615156080840152600890811c821660a0840152600585015460c08401526006850154821660e08401526007850154610100840152840154166101208201526009830154610140820152600a90920154610160830152565b90604051918281549182825260209260208301916000526020600020936000905b82821061437f5750505061437d92500383614226565b565b85546001600160a01b031684526001958601958895509381019390910190614367565b156143a957565b60405162461bcd60e51b815260206004820152600d60248201526c105d58dd1a5bdb88195b991959609a1b6044820152606490fd5b9190820391821161309057565b81156143f5570490565b634e487b7160e01b600052601260045260246000fd5b8181029291811591840414171561309057565b600081815260026020526040906144368282206142ac565b928152600760205281812090825161444d816141c0565b60ff835416600381101561455e57815260ff600760018501549460208401958652600281015487850152600381015460608501528260048201541615156080850152600581015460a08501526144a560068201614346565b60c0850152015416151560e082015251906003821015611c395750600103614524576144f3906144d96080850151156143a2565b610e106144ea6060860151426143de565b0490519061440b565b90820161450961016082519401938451906143de565b82101561451e5761451b9250516143de565b90565b50505190565b815162461bcd60e51b81526020600482015260136024820152722737ba103090223aba31b41030bab1ba34b7b760691b6044820152606490fd5b634e487b7160e01b83526021600452602483fd5b9081602091031261247d5751801515810361247d5790565b1561459157565b60405162461bcd60e51b8152602060048201526016602482015275105d58dd1a5bdb88191bd95cc81b9bdd08195e1a5cdd60521b6044820152606490fd5b156145d657565b60405162461bcd60e51b815260206004820152601860248201527f4e6f742061207365616c6564206269642061756374696f6e00000000000000006044820152606490fd5b9190820180921161309057565b8054600160401b811015610a5e576146459160018201815561415e565b60018060a09493941b038084549260031b9316831b921b1916179055565b8054600160401b811015610a5e576146809160018201815561415e565b819291549060031b91821b91600019901b1916179055565b1561469f57565b60405162461bcd60e51b8152602060048201526015602482015274105d58dd1a5bdb88185b1c9958591e48195b991959605a1b6044820152606490fd5b903590601e198136030182121561247d57018035906001600160401b03821161247d57602001918160051b3603831361247d57565b6001600160401b038111610a5e5760051b60200190565b356001600160a01b038116810361247d5790565b80518210156141765760209160051b010190565b60001981146130905760010190565b9081602091031261247d57516001600160a01b038116810361247d5790565b1561478557565b60405162461bcd60e51b815260206004820152601060248201526f139bdd081bdddb995c881bd98813919560821b6044820152606490fd5b156147c457565b60405162461bcd60e51b815260206004820152601060248201526f139195081b9bdd08185c1c1c9bdd995960821b6044820152606490fd5b600052600260205261481160406000206142ac565b608081015115801590614847575b6148415761483a816020606061451b9401519101519061461b565b42906143de565b50600090565b5061485b606082015160208301519061461b565b42101561481f565b1561486a57565b60405162461bcd60e51b8152602060048201526015602482015274151bdad95b881b9bdd081dda1a5d195b1a5cdd1959605a1b6044820152606490fd5b6001600160a01b039081169081156149025760008051602061502183398151915280546001600160a01b031981168417909155167f8be0079c531659141344cd1fd0a4f28419497f9722a3daafe3b4186f6b6457e0600080a3565b604051631e4fbdf760e01b815260006004820152602490fd5b1561492257565b60405162461bcd60e51b8152602060048201526012602482015271141c9a58d94819995959081b9bdd081cd95d60721b6044820152606490fd5b519069ffffffffffffffffffff8216820361247d57565b908160a091031261247d576149878161495c565b9160208201519160408101519161451b60806060840151930161495c565b156149ac57565b60405162461bcd60e51b815260206004820152600d60248201526c496e76616c696420707269636560981b6044820152606490fd5b9081602091031261247d575160ff8116810361247d5790565b60ff16604d811161309057600a0a90565b600080805260208190527fad3228b676f7d3cd4284a5443f17f1962b36e491b30a40b2405849e597ba5fb5549091906001600160a01b0316614a4e81151561491b565b604051633fabe5a360e21b81529060a082600481845afa91821561248a578492614b10575b506020600491614a848685136149a5565b60405163313ce56760e01b815292839182905afa90811561248a578491614af1575b50670de0b6b3a76400009384830292808404861490151715614add5750614ad9929161158c614ad4926149fa565b61440b565b0490565b634e487b7160e01b81526011600452602490fd5b614b0a915060203d6020116116695761165a8183614226565b38614aa6565b6004919250614b2f60209160a03d60a0116116aa576116968183614226565b5050509050929150614a73565b9060018060a01b038060009316835282602052604083205416614a4e81151561491b565b6000805160206150618339815191526002815414614b7e5760029055565b604051633ee5aeb560e01b8152600490fd5b600080516020615021833981519152546001600160a01b03163303614bb157565b60405163118cdaa760e01b8152336004820152602490fd5b3d15614bf4573d90614bda82614247565b91614be86040519384614226565b82523d6000602084013e565b606090565b6001600160a01b0391821680614c5e57506000809381938293165af1614c1d614bc9565b5015614c2557565b60405162461bcd60e51b8152602060048201526011602482015270115512081c99599d5b990819985a5b1959607a1b6044820152606490fd5b60405163a9059cbb60e01b81526001600160a01b0392909216600483015260248201939093529160209150829060449082906000905af190811561306e57600091614ce7575b5015614cac57565b60405162461bcd60e51b8152602060048201526013602482015272151bdad95b881c99599d5b990819985a5b1959606a1b6044820152606490fd5b614d00915060203d60201161080e576107ff8183614226565b38614ca4565b600090815260076020526040812060405190614d21826141c0565b60ff8154166003811015614de457825260019160018201546020820152600282015460408201526003820154606082015260ff60048301541615156080820152600582015460a082015260ff6007614d7b60068501614346565b9360c08401948552015416159060e08215910152614ddc5782825b614da1575b50505090565b81518051821015614dd6576001600160a01b0390614dc090839061473c565b511615614dcf57820182614d96565b5050905090565b50614d9b565b505050600190565b634e487b7160e01b84526021600452602484fd5b90600091825260076020526040822060405191614e14836141c0565b60ff8254166003811015613d7b57835260019260018301546020820152600283015460408201526003830154606082015260ff60048401541615156080820152600583015460a082015260ff6007614e6e60068601614346565b9460c08401958652015416159060e08215910152614edb57839291825b614e98575b505050905090565b80518051861015614ed5576001600160a01b03908190614eb990889061473c565b511690831614614ecd579382019382614e8b565b505091505090565b50614e90565b50505050600190565b15614eeb57565b60405162461bcd60e51b815260206004820152601860248201527f5061796d656e7420746f2073656c6c6572206661696c656400000000000000006044820152606490fd5b15614f3757565b60405162461bcd60e51b815260206004820152601c60248201527f506c6174666f726d20666565207472616e73666572206661696c6564000000006044820152606490fd5b60ff7ff0c57e16840df040f15088dc2f81fe391c3923bec73e23a9662efc9c229c6a005460401c1615614fab57565b604051631afcd79f60e31b8152600490fd5b90614fe45750805115614fd257602081519101fd5b60405163d6bda27560e01b8152600490fd5b81511580615017575b614ff5575090565b604051639996b31560e01b81526001600160a01b039091166004820152602490fd5b50803b15614fed56fe9016d09d72d40fdae2fd8ceac6b6234c7706214fd39c1cd1e609a0528c199300bb6764412c29916bdf4a5c6fe6b1c079de35682160b2289928ce003ab459a7499b779b17422d0df92223018b32b4d1fa46e071723d6817e2486d003becc55f00a26469706673582212203bb7f7878f96da25ea41e85cad79a71e85c30628d3479192c70db11512bf8d2164736f6c63430008160033","opcodes":"PUSH1 0xA0 PUSH1 0x40 MSTORE CALLVALUE PUSH3 0x42 JUMPI ADDRESS PUSH1 0x80 MSTORE PUSH3 0x18 PUSH3 0x47 JUMP JUMPDEST PUSH3 0x22 PUSH3 0x47 JUMP JUMPDEST PUSH1 0x40 MLOAD PUSH2 0x50B6 SWAP1 DUP2 PUSH3 0xE7 DUP3 CODECOPY PUSH1 0x80 MLOAD DUP2 DUP2 DUP2 PUSH2 0x270B ADD MSTORE PUSH2 0x27F0 ADD MSTORE RETURN JUMPDEST PUSH1 0x0 DUP1 REVERT JUMPDEST PUSH32 0xF0C57E16840DF040F15088DC2F81FE391C3923BEC73E23A9662EFC9C229C6A00 DUP1 SLOAD PUSH1 0xFF DUP2 PUSH1 0x40 SHR AND PUSH3 0xD4 JUMPI PUSH1 0x1 PUSH1 0x1 PUSH1 0x40 SHL SUB PUSH1 0x2 PUSH1 0x1 PUSH1 0x40 SHL SUB NOT DUP3 DUP3 AND ADD PUSH3 0x95 JUMPI POP POP POP JUMP JUMPDEST PUSH1 0x1 PUSH1 0x1 PUSH1 0x40 SHL SUB NOT SWAP1 SWAP2 AND DUP2 OR SWAP1 SWAP2 SSTORE PUSH1 0x40 MLOAD SWAP1 DUP2 MSTORE PUSH32 0xC7F505B2F371AE2175EE4913F4499E1F2633A7B5936321EED1CDAEB6115181D2 SWAP1 PUSH1 0x20 SWAP1 LOG1 JUMP JUMPDEST PUSH1 0x40 MLOAD PUSH4 0xF92EE8A9 PUSH1 0xE0 SHL DUP2 MSTORE PUSH1 0x4 SWAP1 REVERT INVALID PUSH1 0x80 DUP1 PUSH1 0x40 MSTORE PUSH1 0x4 CALLDATASIZE LT ISZERO PUSH2 0x13 JUMPI PUSH1 0x0 DUP1 REVERT JUMPDEST PUSH1 0x0 SWAP1 DUP2 CALLDATALOAD PUSH1 0xE0 SHR SWAP1 DUP2 PUSH4 0x3700A5E EQ PUSH2 0x40A8 JUMPI POP DUP1 PUSH4 0x150B7A02 EQ PUSH2 0x403E JUMPI DUP1 PUSH4 0x1BE66284 EQ PUSH2 0x401F JUMPI DUP1 PUSH4 0x1FD95AC9 EQ PUSH2 0x3FCC JUMPI DUP1 PUSH4 0x2184630E EQ PUSH2 0x3728 JUMPI DUP1 PUSH4 0x283A4218 EQ PUSH2 0x34AF JUMPI DUP1 PUSH4 0x2AE11CA8 EQ PUSH2 0x33BA JUMPI DUP1 PUSH4 0x3FB35178 EQ PUSH2 0x339C JUMPI DUP1 PUSH4 0x45CDBA45 EQ PUSH2 0x3329 JUMPI DUP1 PUSH4 0x46904840 EQ PUSH2 0x3300 JUMPI DUP1 PUSH4 0x4A5E0051 EQ PUSH2 0x2D1A JUMPI DUP1 PUSH4 0x4E2D7F39 EQ PUSH2 0x29A4 JUMPI DUP1 PUSH4 0x4F1EF286 EQ PUSH2 0x2775 JUMPI DUP1 PUSH4 0x52D1902D EQ PUSH2 0x26F8 JUMPI DUP1 PUSH4 0x571A26A0 EQ PUSH2 0x263D JUMPI DUP1 PUSH4 0x5CD8A76B EQ PUSH2 0x25A3 JUMPI DUP1 PUSH4 0x6C3203EF EQ PUSH2 0x2269 JUMPI DUP1 PUSH4 0x6CE0572E EQ PUSH2 0x106D JUMPI DUP1 PUSH4 0x715018A6 EQ PUSH2 0x21FE JUMPI DUP1 PUSH4 0x76E11286 EQ PUSH2 0x2184 JUMPI DUP1 PUSH4 0x78BD7935 EQ PUSH2 0x207D JUMPI DUP1 PUSH4 0x7F0EBB03 EQ PUSH2 0x203D JUMPI DUP1 PUSH4 0x8129FC1C EQ PUSH2 0x1ECB JUMPI DUP1 PUSH4 0x866A2F71 EQ PUSH2 0x1E7E JUMPI DUP1 PUSH4 0x8BC31A35 EQ PUSH2 0x1DEE JUMPI DUP1 PUSH4 0x8CA9CCBA EQ PUSH2 0x1790 JUMPI DUP1 PUSH4 0x8CD42991 EQ PUSH2 0x1771 JUMPI DUP1 PUSH4 0x8DA5CB5B EQ PUSH2 0x173B JUMPI DUP1 PUSH4 0x8F347257 EQ PUSH2 0x10B4 JUMPI DUP1 PUSH4 0x91DAD307 EQ PUSH2 0x106D JUMPI DUP1 PUSH4 0x927FEF2E EQ PUSH2 0x1008 JUMPI DUP1 PUSH4 0x9BFD3B38 EQ PUSH2 0xB36 JUMPI DUP1 PUSH4 0x9DCB511A EQ PUSH2 0xAFB JUMPI DUP1 PUSH4 0xA0C048FA EQ PUSH2 0xAB3 JUMPI DUP1 PUSH4 0xA11D0DC4 EQ PUSH2 0xA74 JUMPI DUP1 PUSH4 0xAD3CB1CC EQ PUSH2 0x9CF JUMPI DUP1 PUSH4 0xB3E26566 EQ PUSH2 0x9A6 JUMPI DUP1 PUSH4 0xB9A2DE3A EQ PUSH2 0x543 JUMPI DUP1 PUSH4 0xBD9FF32B EQ PUSH2 0x4B4 JUMPI DUP1 PUSH4 0xC2F50A7A EQ PUSH2 0x497 JUMPI DUP1 PUSH4 0xC65FEB27 EQ PUSH2 0x417 JUMPI DUP1 PUSH4 0xDED75D79 EQ PUSH2 0x3C1 JUMPI DUP1 PUSH4 0xE71F7B15 EQ PUSH2 0x34A JUMPI DUP1 PUSH4 0xE74B981B EQ PUSH2 0x2CC JUMPI DUP1 PUSH4 0xEECA08F0 EQ PUSH2 0x2AE JUMPI DUP1 PUSH4 0xF2FDE38B EQ PUSH2 0x281 JUMPI DUP1 PUSH4 0xFC528482 EQ PUSH2 0x263 JUMPI PUSH4 0xFC927400 EQ PUSH2 0x231 JUMPI PUSH1 0x0 DUP1 REVERT JUMPDEST CALLVALUE PUSH2 0x260 JUMPI PUSH1 0x40 CALLDATASIZE PUSH1 0x3 NOT ADD SLT PUSH2 0x260 JUMPI PUSH1 0x20 PUSH2 0x258 PUSH2 0x24F PUSH2 0x4132 JUMP JUMPDEST PUSH1 0x24 CALLDATALOAD SWAP1 PUSH2 0x4B3C JUMP JUMPDEST PUSH1 0x40 MLOAD SWAP1 DUP2 MSTORE RETURN JUMPDEST DUP1 REVERT JUMPDEST POP CALLVALUE PUSH2 0x260 JUMPI DUP1 PUSH1 0x3 NOT CALLDATASIZE ADD SLT PUSH2 0x260 JUMPI PUSH1 0x20 PUSH1 0x3 SLOAD PUSH1 0x40 MLOAD SWAP1 DUP2 MSTORE RETURN JUMPDEST POP CALLVALUE PUSH2 0x260 JUMPI PUSH1 0x20 CALLDATASIZE PUSH1 0x3 NOT ADD SLT PUSH2 0x260 JUMPI PUSH2 0x2AB PUSH2 0x29E PUSH2 0x4132 JUMP JUMPDEST PUSH2 0x2A6 PUSH2 0x4B90 JUMP JUMPDEST PUSH2 0x48A7 JUMP JUMPDEST DUP1 RETURN JUMPDEST POP CALLVALUE PUSH2 0x260 JUMPI DUP1 PUSH1 0x3 NOT CALLDATASIZE ADD SLT PUSH2 0x260 JUMPI PUSH1 0x20 PUSH1 0x5 SLOAD PUSH1 0x40 MLOAD SWAP1 DUP2 MSTORE RETURN JUMPDEST POP CALLVALUE PUSH2 0x260 JUMPI PUSH1 0x20 CALLDATASIZE PUSH1 0x3 NOT ADD SLT PUSH2 0x260 JUMPI PUSH2 0x2E6 PUSH2 0x4132 JUMP JUMPDEST PUSH2 0x2EE PUSH2 0x4B90 JUMP JUMPDEST PUSH1 0x1 PUSH1 0x1 PUSH1 0xA0 SHL SUB AND DUP1 ISZERO PUSH2 0x313 JUMPI PUSH1 0x1 PUSH1 0x1 PUSH1 0x60 SHL SUB PUSH1 0xA0 SHL PUSH1 0x6 SLOAD AND OR PUSH1 0x6 SSTORE DUP1 RETURN JUMPDEST PUSH1 0x40 MLOAD PUSH3 0x461BCD PUSH1 0xE5 SHL DUP2 MSTORE PUSH1 0x20 PUSH1 0x4 DUP3 ADD MSTORE PUSH1 0xF PUSH1 0x24 DUP3 ADD MSTORE PUSH15 0x496E76616C69642061646472657373 PUSH1 0x88 SHL PUSH1 0x44 DUP3 ADD MSTORE PUSH1 0x64 SWAP1 REVERT JUMPDEST POP CALLVALUE PUSH2 0x260 JUMPI PUSH1 0x20 CALLDATASIZE PUSH1 0x3 NOT ADD SLT PUSH2 0x260 JUMPI PUSH2 0x373 PUSH1 0x40 PUSH1 0x20 SWAP3 PUSH1 0x4 CALLDATALOAD DUP2 MSTORE PUSH1 0x2 DUP5 MSTORE KECCAK256 PUSH2 0x42AC JUMP JUMPDEST PUSH1 0x80 DUP2 ADD MLOAD ISZERO SWAP1 DUP2 PUSH2 0x3A5 JUMPI JUMPDEST DUP2 PUSH2 0x391 JUMPI JUMPDEST POP PUSH1 0x40 MLOAD SWAP1 ISZERO ISZERO DUP2 MSTORE RETURN JUMPDEST MLOAD PUSH1 0x1 PUSH1 0x1 PUSH1 0xA0 SHL SUB AND ISZERO ISZERO SWAP1 POP CODESIZE PUSH2 0x386 JUMP JUMPDEST SWAP1 POP PUSH2 0x3B9 PUSH1 0x60 DUP3 ADD MLOAD DUP4 DUP4 ADD MLOAD SWAP1 PUSH2 0x461B JUMP JUMPDEST TIMESTAMP LT SWAP1 PUSH2 0x380 JUMP JUMPDEST POP CALLVALUE PUSH2 0x260 JUMPI PUSH1 0x40 CALLDATASIZE PUSH1 0x3 NOT ADD SLT PUSH2 0x260 JUMPI PUSH2 0x3DB PUSH2 0x4132 JUMP JUMPDEST PUSH1 0x1 PUSH1 0x1 PUSH1 0xA0 SHL SUB AND DUP2 MSTORE PUSH1 0xB PUSH1 0x20 MSTORE PUSH1 0x40 DUP2 KECCAK256 DUP1 SLOAD PUSH1 0x24 CALLDATALOAD SWAP3 SWAP1 DUP4 LT ISZERO PUSH2 0x260 JUMPI PUSH1 0x20 PUSH2 0x409 DUP5 DUP5 PUSH2 0x415E JUMP JUMPDEST SWAP1 SLOAD PUSH1 0x40 MLOAD SWAP2 PUSH1 0x3 SHL SHR DUP2 MSTORE RETURN JUMPDEST POP CALLVALUE PUSH2 0x260 JUMPI PUSH1 0x20 CALLDATASIZE PUSH1 0x3 NOT ADD SLT PUSH2 0x260 JUMPI PUSH1 0x40 PUSH1 0xE0 SWAP2 PUSH1 0x4 CALLDATALOAD DUP2 MSTORE PUSH1 0x7 PUSH1 0x20 MSTORE KECCAK256 PUSH1 0xFF DUP2 SLOAD AND SWAP1 PUSH1 0x1 DUP2 ADD SLOAD SWAP1 PUSH1 0x2 DUP2 ADD SLOAD PUSH1 0x3 DUP3 ADD SLOAD PUSH1 0xFF PUSH1 0x4 DUP5 ADD SLOAD AND SWAP2 PUSH1 0xFF PUSH1 0x7 PUSH1 0x5 DUP7 ADD SLOAD SWAP6 ADD SLOAD AND SWAP5 PUSH2 0x473 PUSH1 0x40 MLOAD DUP1 SWAP9 PUSH2 0x429F JUMP JUMPDEST PUSH1 0x20 DUP8 ADD MSTORE PUSH1 0x40 DUP7 ADD MSTORE PUSH1 0x60 DUP6 ADD MSTORE ISZERO ISZERO PUSH1 0x80 DUP5 ADD MSTORE PUSH1 0xA0 DUP4 ADD MSTORE ISZERO ISZERO PUSH1 0xC0 DUP3 ADD MSTORE RETURN JUMPDEST POP CALLVALUE PUSH2 0x260 JUMPI DUP1 PUSH1 0x3 NOT CALLDATASIZE ADD SLT PUSH2 0x260 JUMPI PUSH1 0x20 PUSH1 0x40 MLOAD PUSH2 0xE10 DUP2 MSTORE RETURN JUMPDEST POP CALLVALUE PUSH2 0x260 JUMPI PUSH1 0x20 DUP1 PUSH1 0x3 NOT CALLDATASIZE ADD SLT PUSH2 0x53F JUMPI PUSH1 0x1 PUSH1 0x1 PUSH1 0xA0 SHL SUB PUSH2 0x4D7 PUSH2 0x4132 JUMP JUMPDEST AND DUP3 MSTORE PUSH1 0xB DUP2 MSTORE PUSH1 0x40 DUP3 KECCAK256 SWAP2 PUSH1 0x40 MLOAD DUP1 SWAP4 DUP5 SWAP2 DUP5 DUP3 SLOAD SWAP2 DUP3 DUP2 MSTORE ADD SWAP2 DUP5 MSTORE DUP5 DUP5 KECCAK256 SWAP4 JUMPDEST DUP6 DUP3 DUP3 LT PUSH2 0x529 JUMPI POP POP POP PUSH2 0x511 SWAP3 POP SUB DUP4 PUSH2 0x4226 JUMP JUMPDEST PUSH2 0x525 PUSH1 0x40 MLOAD SWAP3 DUP3 DUP5 SWAP4 DUP5 MSTORE DUP4 ADD SWAP1 PUSH2 0x418C JUMP JUMPDEST SUB SWAP1 RETURN JUMPDEST DUP6 SLOAD DUP5 MSTORE PUSH1 0x1 SWAP6 DUP7 ADD SWAP6 DUP9 SWAP6 POP SWAP4 ADD SWAP3 ADD PUSH2 0x4FA JUMP JUMPDEST POP DUP1 REVERT JUMPDEST POP CALLVALUE PUSH2 0x260 JUMPI PUSH1 0x20 DUP1 PUSH1 0x3 NOT CALLDATASIZE ADD SLT PUSH2 0x53F JUMPI PUSH1 0x4 CALLDATALOAD PUSH2 0x561 PUSH2 0x4B60 JUMP JUMPDEST DUP1 DUP4 MSTORE PUSH1 0x2 DUP3 MSTORE PUSH1 0x40 DUP4 KECCAK256 DUP1 SLOAD PUSH1 0x1 PUSH1 0x1 PUSH1 0xA0 SHL SUB SWAP4 SWAP1 DUP5 AND SWAP2 SWAP1 PUSH2 0x587 DUP4 ISZERO ISZERO PUSH2 0x458A JUMP JUMPDEST PUSH1 0x4 DUP3 ADD SWAP3 DUP4 SLOAD SWAP1 PUSH2 0x59C PUSH1 0xFF DUP4 AND ISZERO PUSH2 0x4698 JUMP JUMPDEST PUSH2 0x5AF PUSH1 0x3 DUP6 ADD SLOAD PUSH1 0x1 DUP7 ADD SLOAD SWAP1 PUSH2 0x461B JUMP JUMPDEST TIMESTAMP LT SWAP1 DUP2 ISZERO SWAP2 PUSH2 0x99C JUMPI JUMPDEST POP ISZERO PUSH2 0x95F JUMPI PUSH1 0xFF NOT AND PUSH1 0x1 OR DUP1 DUP5 SSTORE PUSH1 0x8 SHR DUP6 AND ISZERO ISZERO DUP1 PUSH2 0x94D JUMPI JUMPDEST ISZERO PUSH2 0x870 JUMPI PUSH2 0x5E5 DUP3 PUSH2 0x42AC JUMP JUMPDEST SWAP3 PUSH2 0x140 DUP5 ADD MLOAD DUP8 PUSH2 0x607 PUSH2 0x2710 PUSH2 0x5FF PUSH1 0x5 SLOAD DUP6 PUSH2 0x440B JUMP JUMPDEST DIV DUP1 SWAP4 PUSH2 0x43DE JUMP JUMPDEST SWAP6 DUP9 PUSH1 0xE0 DUP3 ADD MLOAD AND SWAP5 DUP10 PUSH1 0xA0 DUP4 ADD MLOAD AND PUSH2 0x100 DUP4 ADD MLOAD DUP8 EXTCODESIZE ISZERO PUSH2 0x86C JUMPI PUSH1 0x40 MLOAD PUSH4 0x21421707 PUSH1 0xE1 SHL DUP2 MSTORE ADDRESS PUSH1 0x4 DUP3 ADD MSTORE PUSH1 0x1 PUSH1 0x1 PUSH1 0xA0 SHL SUB SWAP3 SWAP1 SWAP3 AND PUSH1 0x24 DUP4 ADD MSTORE PUSH1 0x44 DUP3 ADD MSTORE SWAP6 DUP4 SWAP1 DUP8 SWAP1 PUSH1 0x64 SWAP1 DUP3 SWAP1 DUP5 SWAP1 GAS CALL SWAP6 DUP7 ISZERO PUSH2 0x861 JUMPI DUP11 SWAP7 PUSH2 0x848 JUMPI JUMPDEST POP PUSH2 0x120 DUP3 ADD MLOAD DUP7 AND DUP1 PUSH2 0x715 JUMPI POP POP SWAP1 DUP1 DUP1 DUP1 PUSH1 0x0 DUP1 MLOAD PUSH1 0x20 PUSH2 0x5041 DUP4 CODECOPY DUP2 MLOAD SWAP2 MSTORE SWAP10 DUP9 PUSH2 0x6A4 SWAP7 MLOAD AND GAS CALL PUSH2 0x69E PUSH2 0x4BC9 JUMP JUMPDEST POP PUSH2 0x4EE4 JUMP JUMPDEST DUP8 DUP2 PUSH2 0x6F2 JUMPI JUMPDEST POP POP JUMPDEST SLOAD PUSH1 0x5 DUP4 ADD SLOAD PUSH1 0x8 SWAP4 DUP5 ADD SLOAD PUSH1 0x40 DUP1 MLOAD SWAP3 DUP4 MSTORE SWAP8 AND PUSH1 0x1 PUSH1 0x1 PUSH1 0xA0 SHL SUB AND PUSH1 0x20 DUP3 ADD MSTORE SWAP3 SHR AND SWAP4 DUP2 SWAP1 DUP2 ADD JUMPDEST SUB SWAP1 LOG3 PUSH1 0x1 PUSH1 0x0 DUP1 MLOAD PUSH1 0x20 PUSH2 0x5061 DUP4 CODECOPY DUP2 MLOAD SWAP2 MSTORE SSTORE DUP1 RETURN JUMPDEST DUP1 DUP1 DUP1 PUSH2 0x70E SWAP5 DUP8 PUSH1 0x6 SLOAD AND GAS CALL PUSH2 0x708 PUSH2 0x4BC9 JUMP JUMPDEST POP PUSH2 0x4F30 JUMP JUMPDEST CODESIZE DUP8 PUSH2 0x6AB JUMP JUMPDEST SWAP2 MLOAD PUSH1 0x40 MLOAD PUSH4 0xA9059CBB PUSH1 0xE0 SHL DUP1 DUP3 MSTORE PUSH1 0x1 PUSH1 0x1 PUSH1 0xA0 SHL SUB SWAP9 SWAP1 SWAP3 AND SWAP8 SWAP1 SWAP8 AND PUSH1 0x4 DUP9 ADD MSTORE PUSH1 0x24 DUP8 ADD SWAP9 SWAP1 SWAP9 MSTORE SWAP3 SWAP2 POP DUP3 DUP6 PUSH1 0x44 DUP2 DUP14 DUP6 GAS CALL SWAP5 DUP6 ISZERO PUSH2 0x83D JUMPI DUP10 SWAP6 PUSH2 0x767 SWAP2 DUP13 SWAP2 PUSH2 0x820 JUMPI POP PUSH2 0x4EE4 JUMP JUMPDEST DUP2 PUSH2 0x786 JUMPI JUMPDEST POP POP POP PUSH1 0x0 DUP1 MLOAD PUSH1 0x20 PUSH2 0x5041 DUP4 CODECOPY DUP2 MLOAD SWAP2 MSTORE SWAP4 POP PUSH2 0x6AE JUMP JUMPDEST PUSH1 0x6 SLOAD PUSH1 0x40 MLOAD SWAP8 DUP9 MSTORE SWAP5 SWAP1 SWAP5 AND PUSH1 0x1 PUSH1 0x1 PUSH1 0xA0 SHL SUB AND PUSH1 0x4 DUP8 ADD MSTORE PUSH1 0x24 DUP7 ADD MSTORE SWAP4 SWAP2 DUP5 SWAP1 DUP4 SWAP1 PUSH1 0x44 SWAP1 DUP3 SWAP1 DUP12 SWAP1 GAS CALL SWAP4 DUP5 ISZERO PUSH2 0x815 JUMPI PUSH1 0x0 DUP1 MLOAD PUSH1 0x20 PUSH2 0x5041 DUP4 CODECOPY DUP2 MLOAD SWAP2 MSTORE SWAP5 DUP8 SWAP4 PUSH2 0x7E0 SWAP3 DUP11 SWAP3 PUSH2 0x7E8 JUMPI JUMPDEST POP POP PUSH2 0x4F30 JUMP JUMPDEST CODESIZE DUP1 DUP1 PUSH2 0x76D JUMP JUMPDEST PUSH2 0x807 SWAP3 POP DUP1 RETURNDATASIZE LT PUSH2 0x80E JUMPI JUMPDEST PUSH2 0x7FF DUP2 DUP4 PUSH2 0x4226 JUMP JUMPDEST DUP2 ADD SWAP1 PUSH2 0x4572 JUMP JUMPDEST CODESIZE DUP1 PUSH2 0x7D9 JUMP JUMPDEST POP RETURNDATASIZE PUSH2 0x7F5 JUMP JUMPDEST PUSH1 0x40 MLOAD RETURNDATASIZE DUP10 DUP3 RETURNDATACOPY RETURNDATASIZE SWAP1 REVERT JUMPDEST PUSH2 0x837 SWAP2 POP DUP6 RETURNDATASIZE DUP8 GT PUSH2 0x80E JUMPI PUSH2 0x7FF DUP2 DUP4 PUSH2 0x4226 JUMP JUMPDEST CODESIZE PUSH2 0x69E JUMP JUMPDEST PUSH1 0x40 MLOAD RETURNDATASIZE DUP13 DUP3 RETURNDATACOPY RETURNDATASIZE SWAP1 REVERT JUMPDEST DUP4 SWAP2 SWAP7 POP PUSH2 0x855 SWAP1 PUSH2 0x41DC JUMP JUMPDEST PUSH2 0x53F JUMPI DUP9 SWAP5 CODESIZE PUSH2 0x669 JUMP JUMPDEST PUSH1 0x40 MLOAD RETURNDATASIZE DUP6 DUP3 RETURNDATACOPY RETURNDATASIZE SWAP1 REVERT JUMPDEST DUP5 DUP1 REVERT JUMPDEST POP PUSH2 0x87A DUP2 PUSH2 0x42AC JUMP JUMPDEST DUP5 PUSH1 0xE0 DUP3 ADD MLOAD AND SWAP1 DUP7 DUP7 DUP3 MLOAD AND PUSH2 0x100 DUP4 ADD MLOAD DUP5 EXTCODESIZE ISZERO PUSH2 0x949 JUMPI PUSH1 0x40 MLOAD PUSH4 0x21421707 PUSH1 0xE1 SHL DUP2 MSTORE ADDRESS PUSH1 0x4 DUP3 ADD MSTORE PUSH1 0x1 PUSH1 0x1 PUSH1 0xA0 SHL SUB SWAP3 SWAP1 SWAP3 AND PUSH1 0x24 DUP4 ADD MSTORE PUSH1 0x44 DUP3 ADD MSTORE SWAP3 DUP2 SWAP1 DUP5 SWAP1 PUSH1 0x64 SWAP1 DUP3 SWAP1 DUP5 SWAP1 GAS CALL SWAP3 DUP4 ISZERO PUSH2 0x93C JUMPI DUP8 SWAP4 PUSH2 0x91F JUMPI JUMPDEST POP POP SWAP3 DUP4 DUP3 PUSH1 0xA0 PUSH1 0x0 DUP1 MLOAD PUSH1 0x20 PUSH2 0x5041 DUP4 CODECOPY DUP2 MLOAD SWAP2 MSTORE SWAP7 ADD MLOAD AND DUP1 PUSH2 0x900 JUMPI JUMPDEST POP POP PUSH2 0x6AE JUMP JUMPDEST DUP2 PUSH2 0x140 DUP6 PUSH2 0x120 PUSH2 0x918 SWAP6 ADD MLOAD AND SWAP2 ADD MLOAD SWAP2 PUSH2 0x4BF9 JUMP JUMPDEST CODESIZE DUP1 PUSH2 0x8F9 JUMP JUMPDEST PUSH2 0x92B SWAP2 SWAP3 SWAP4 POP PUSH2 0x41DC JUMP JUMPDEST PUSH2 0x938 JUMPI DUP5 SWAP1 DUP7 CODESIZE PUSH2 0x8D9 JUMP JUMPDEST DUP6 DUP1 REVERT JUMPDEST POP PUSH1 0x40 MLOAD SWAP1 RETURNDATASIZE SWAP1 DUP3 RETURNDATACOPY RETURNDATASIZE SWAP1 REVERT JUMPDEST DUP3 DUP1 REVERT JUMPDEST POP PUSH1 0x5 DUP3 ADD SLOAD PUSH1 0xA DUP4 ADD SLOAD GT ISZERO PUSH2 0x5D7 JUMP JUMPDEST PUSH1 0x40 MLOAD PUSH3 0x461BCD PUSH1 0xE5 SHL DUP2 MSTORE PUSH1 0x4 DUP2 ADD DUP4 SWAP1 MSTORE PUSH1 0x15 PUSH1 0x24 DUP3 ADD MSTORE PUSH21 0x105D58DD1A5BDB881B9BDD081E595D08195B991959 PUSH1 0x5A SHL PUSH1 0x44 DUP3 ADD MSTORE PUSH1 0x64 SWAP1 REVERT JUMPDEST SWAP1 POP CALLER EQ CODESIZE PUSH2 0x5BA JUMP JUMPDEST POP CALLVALUE PUSH2 0x260 JUMPI DUP1 PUSH1 0x3 NOT CALLDATASIZE ADD SLT PUSH2 0x260 JUMPI PUSH1 0x1 SLOAD PUSH1 0x40 MLOAD PUSH1 0x1 PUSH1 0x1 PUSH1 0xA0 SHL SUB SWAP1 SWAP2 AND DUP2 MSTORE PUSH1 0x20 SWAP1 RETURN JUMPDEST POP CALLVALUE PUSH2 0x260 JUMPI DUP1 PUSH1 0x3 NOT CALLDATASIZE ADD SLT PUSH2 0x260 JUMPI PUSH1 0x40 MLOAD PUSH1 0x40 DUP2 ADD DUP2 DUP2 LT PUSH1 0x1 PUSH1 0x1 PUSH1 0x40 SHL SUB DUP3 GT OR PUSH2 0xA5E JUMPI PUSH1 0x40 MSTORE PUSH1 0x5 DUP2 MSTORE PUSH1 0x20 SWAP2 PUSH5 0x352E302E3 PUSH1 0xDC SHL PUSH1 0x20 DUP4 ADD MSTORE PUSH1 0x40 MLOAD SWAP3 DUP4 SWAP2 PUSH1 0x20 DUP4 MSTORE DUP4 MLOAD SWAP2 DUP3 PUSH1 0x20 DUP6 ADD MSTORE DUP2 JUMPDEST DUP4 DUP2 LT PUSH2 0xA47 JUMPI POP POP PUSH1 0x40 DUP1 SWAP5 POP DUP3 DUP5 ADD ADD MSTORE PUSH1 0x1F DUP1 NOT SWAP2 ADD AND DUP2 ADD SUB ADD SWAP1 RETURN JUMPDEST DUP1 DUP7 ADD DUP3 ADD MLOAD DUP8 DUP3 ADD PUSH1 0x40 ADD MSTORE DUP7 SWAP5 POP DUP2 ADD PUSH2 0xA26 JUMP JUMPDEST PUSH4 0x4E487B71 PUSH1 0xE0 SHL PUSH1 0x0 MSTORE PUSH1 0x41 PUSH1 0x4 MSTORE PUSH1 0x24 PUSH1 0x0 REVERT JUMPDEST POP CALLVALUE PUSH2 0x260 JUMPI PUSH1 0x20 CALLDATASIZE PUSH1 0x3 NOT ADD SLT PUSH2 0x260 JUMPI PUSH2 0xA9F PUSH1 0x40 PUSH2 0x525 SWAP3 PUSH1 0x4 CALLDATALOAD DUP2 MSTORE PUSH1 0x9 PUSH1 0x20 MSTORE KECCAK256 PUSH2 0x4346 JUMP JUMPDEST PUSH1 0x40 MLOAD SWAP2 DUP3 SWAP2 PUSH1 0x20 DUP4 MSTORE PUSH1 0x20 DUP4 ADD SWAP1 PUSH2 0x4262 JUMP JUMPDEST POP CALLVALUE PUSH2 0x260 JUMPI PUSH1 0x40 CALLDATASIZE PUSH1 0x3 NOT ADD SLT PUSH2 0x260 JUMPI PUSH2 0xACD PUSH2 0x4132 JUMP JUMPDEST PUSH1 0x1 PUSH1 0x1 PUSH1 0xA0 SHL SUB AND DUP2 MSTORE PUSH1 0xC PUSH1 0x20 MSTORE PUSH1 0x40 DUP2 KECCAK256 DUP1 SLOAD PUSH1 0x24 CALLDATALOAD SWAP3 SWAP1 DUP4 LT ISZERO PUSH2 0x260 JUMPI PUSH1 0x20 PUSH2 0x409 DUP5 DUP5 PUSH2 0x415E JUMP JUMPDEST POP CALLVALUE PUSH2 0x260 JUMPI PUSH1 0x20 CALLDATASIZE PUSH1 0x3 NOT ADD SLT PUSH2 0x260 JUMPI PUSH1 0x20 SWAP1 PUSH1 0x1 PUSH1 0x1 PUSH1 0xA0 SHL SUB SWAP1 PUSH1 0x40 SWAP1 DUP3 PUSH2 0xB25 PUSH2 0x4132 JUMP JUMPDEST AND DUP2 MSTORE DUP1 DUP5 MSTORE KECCAK256 SLOAD AND PUSH1 0x40 MLOAD SWAP1 DUP2 MSTORE RETURN JUMPDEST POP CALLVALUE PUSH2 0x260 JUMPI PUSH1 0xA0 CALLDATASIZE PUSH1 0x3 NOT ADD SLT PUSH2 0x260 JUMPI PUSH1 0x24 SWAP1 PUSH2 0xB53 PUSH2 0x4148 JUMP JUMPDEST PUSH2 0xB5B PUSH2 0x4B60 JUMP JUMPDEST PUSH2 0xE10 PUSH1 0x4 CALLDATALOAD LT ISZERO DUP1 PUSH2 0xFF9 JUMPI JUMPDEST ISZERO PUSH2 0xFC2 JUMPI DUP3 CALLDATALOAD ISZERO PUSH2 0xF7E JUMPI DUP3 CALLDATALOAD PUSH1 0x44 CALLDATALOAD LT PUSH2 0xF42 JUMPI PUSH1 0x1 PUSH1 0x1 PUSH1 0xA0 SHL SUB DUP2 AND ISZERO PUSH2 0xF07 JUMPI PUSH1 0x40 MLOAD PUSH4 0x31A9108F PUSH1 0xE1 SHL DUP2 MSTORE PUSH1 0x84 CALLDATALOAD PUSH1 0x4 DUP3 ADD MSTORE PUSH1 0x20 DUP2 DUP6 DUP2 PUSH1 0x1 PUSH1 0x1 PUSH1 0xA0 SHL SUB DUP7 AND GAS STATICCALL SWAP1 DUP2 ISZERO PUSH2 0x861 JUMPI SWAP1 PUSH2 0xBD8 SWAP2 DUP5 SWAP2 PUSH2 0xEE8 JUMPI JUMPDEST POP PUSH1 0x1 PUSH1 0x1 PUSH1 0xA0 SHL SUB AND CALLER EQ PUSH2 0x477E JUMP JUMPDEST PUSH1 0x40 MLOAD PUSH4 0xE985E9C5 PUSH1 0xE0 SHL DUP2 MSTORE CALLER PUSH1 0x4 DUP3 ADD MSTORE ADDRESS PUSH1 0x24 DUP3 ADD MSTORE PUSH1 0x20 DUP2 PUSH1 0x44 DUP2 PUSH1 0x1 PUSH1 0x1 PUSH1 0xA0 SHL SUB DUP7 AND GAS STATICCALL SWAP1 DUP2 ISZERO PUSH2 0x861 JUMPI DUP4 SWAP2 PUSH2 0xEC9 JUMPI JUMPDEST POP DUP1 ISZERO PUSH2 0xE4D JUMPI JUMPDEST PUSH2 0xC22 SWAP1 PUSH2 0x47BD JUMP JUMPDEST PUSH1 0x1 PUSH1 0x1 PUSH1 0xA0 SHL SUB DUP2 AND EXTCODESIZE ISZERO PUSH2 0x53F JUMPI PUSH1 0x40 MLOAD PUSH4 0x21421707 PUSH1 0xE1 SHL DUP2 MSTORE CALLER PUSH1 0x4 DUP3 ADD MSTORE ADDRESS PUSH1 0x24 DUP3 ADD MSTORE PUSH1 0x84 CALLDATALOAD PUSH1 0x44 DUP3 ADD MSTORE DUP3 DUP2 PUSH1 0x64 DUP2 DUP4 PUSH1 0x1 PUSH1 0x1 PUSH1 0xA0 SHL SUB DUP8 AND GAS CALL DUP1 ISZERO PUSH2 0x861 JUMPI PUSH2 0xE39 JUMPI JUMPDEST POP PUSH1 0x20 SWAP3 PUSH1 0x3 SLOAD SWAP3 PUSH2 0xC81 DUP5 PUSH2 0x4750 JUMP JUMPDEST PUSH1 0x3 SSTORE PUSH1 0xA PUSH2 0x160 PUSH1 0x40 DUP1 MLOAD SWAP4 PUSH2 0xC97 DUP6 PUSH2 0x41EF JUMP JUMPDEST CALLER DUP6 MSTORE PUSH1 0x4 CALLDATALOAD DUP10 DUP7 ADD MSTORE DUP6 CALLDATALOAD DUP3 DUP7 ADD MSTORE TIMESTAMP PUSH1 0x60 DUP7 ADD MSTORE DUP1 PUSH1 0x80 DUP7 ADD MSTORE DUP1 PUSH1 0xA0 DUP7 ADD MSTORE DUP1 PUSH1 0xC0 DUP7 ADD MSTORE PUSH1 0x1 DUP1 PUSH1 0xA0 SHL SUB DUP8 AND PUSH1 0xE0 DUP7 ADD MSTORE PUSH1 0x84 CALLDATALOAD PUSH2 0x100 DUP7 ADD MSTORE DUP1 PUSH2 0x120 DUP7 ADD MSTORE DUP1 PUSH2 0x140 DUP7 ADD MSTORE PUSH1 0x44 CALLDATALOAD DUP4 DUP7 ADD MSTORE DUP8 DUP2 MSTORE PUSH1 0x2 DUP10 MSTORE KECCAK256 SWAP3 PUSH1 0x1 DUP1 PUSH1 0xA0 SHL SUB DUP2 MLOAD AND PUSH1 0x1 PUSH1 0x1 PUSH1 0x60 SHL SUB PUSH1 0xA0 SHL SWAP1 DUP2 DUP7 SLOAD AND OR DUP6 SSTORE DUP9 DUP3 ADD MLOAD PUSH1 0x1 DUP7 ADD SSTORE PUSH1 0x40 DUP3 ADD MLOAD PUSH1 0x2 DUP7 ADD SSTORE PUSH1 0x60 DUP3 ADD MLOAD PUSH1 0x3 DUP7 ADD SSTORE PUSH2 0xD78 PUSH1 0x4 DUP7 ADD PUSH2 0xD51 PUSH1 0x80 DUP6 ADD MLOAD ISZERO ISZERO DUP3 SWAP1 PUSH1 0xFF DUP1 NOT DUP4 SLOAD AND SWAP2 ISZERO ISZERO AND OR SWAP1 SSTORE JUMP JUMPDEST PUSH1 0xA0 DUP5 ADD MLOAD DUP2 SLOAD PUSH2 0x100 PUSH1 0x1 PUSH1 0xA8 SHL SUB NOT AND PUSH1 0x8 SWAP2 SWAP1 SWAP2 SHL PUSH2 0x100 PUSH1 0x1 PUSH1 0xA8 SHL SUB AND OR SWAP1 SSTORE JUMP JUMPDEST PUSH1 0xC0 DUP3 ADD MLOAD PUSH1 0x5 DUP7 ADD SSTORE PUSH1 0xE0 DUP3 ADD MLOAD PUSH1 0x6 DUP7 ADD DUP1 SLOAD DUP4 AND PUSH1 0x1 PUSH1 0x1 PUSH1 0xA0 SHL SUB SWAP3 DUP4 AND OR SWAP1 SSTORE PUSH2 0x100 DUP4 ADD MLOAD PUSH1 0x7 DUP8 ADD SSTORE PUSH2 0x120 DUP4 ADD MLOAD PUSH1 0x8 DUP8 ADD DUP1 SLOAD SWAP1 SWAP4 AND SWAP1 DUP3 AND OR SWAP1 SWAP2 SSTORE PUSH2 0x140 DUP3 ADD MLOAD PUSH1 0x9 DUP7 ADD SSTORE SWAP2 ADD MLOAD SWAP2 SWAP1 SWAP3 ADD SSTORE PUSH1 0x40 DUP1 MLOAD PUSH1 0x84 CALLDATALOAD DUP2 MSTORE SWAP3 CALLDATALOAD PUSH1 0x20 DUP5 ADD MSTORE PUSH1 0x44 CALLDATALOAD SWAP1 DUP4 ADD MSTORE PUSH1 0x4 CALLDATALOAD PUSH1 0x60 DUP4 ADD MSTORE SWAP2 SWAP1 SWAP2 AND SWAP1 CALLER SWAP1 DUP4 SWAP1 PUSH32 0xCAF0AE751FB2B122E8718BF7C0D4B7584D1418A853A4D0CDABA45418D3DA138B SWAP1 PUSH1 0x80 SWAP1 LOG4 PUSH1 0x1 PUSH1 0x0 DUP1 MLOAD PUSH1 0x20 PUSH2 0x5061 DUP4 CODECOPY DUP2 MLOAD SWAP2 MSTORE SSTORE PUSH1 0x40 MLOAD SWAP1 DUP2 MSTORE RETURN JUMPDEST PUSH2 0xE43 DUP4 SWAP2 PUSH2 0x41DC JUMP JUMPDEST PUSH2 0x53F JUMPI CODESIZE PUSH2 0xC70 JUMP JUMPDEST POP PUSH1 0x40 MLOAD PUSH4 0x20604BF PUSH1 0xE2 SHL DUP2 MSTORE PUSH1 0x84 CALLDATALOAD PUSH1 0x4 DUP3 ADD MSTORE PUSH1 0x20 DUP2 DUP6 DUP2 PUSH1 0x1 PUSH1 0x1 PUSH1 0xA0 SHL SUB DUP7 AND GAS STATICCALL SWAP1 DUP2 ISZERO PUSH2 0x861 JUMPI SWAP1 PUSH2 0xC22 SWAP2 DUP5 SWAP2 PUSH2 0xE9A JUMPI JUMPDEST POP PUSH1 0x1 PUSH1 0x1 PUSH1 0xA0 SHL SUB AND ADDRESS EQ SWAP1 POP PUSH2 0xC19 JUMP JUMPDEST PUSH2 0xEBC SWAP2 POP PUSH1 0x20 RETURNDATASIZE PUSH1 0x20 GT PUSH2 0xEC2 JUMPI JUMPDEST PUSH2 0xEB4 DUP2 DUP4 PUSH2 0x4226 JUMP JUMPDEST DUP2 ADD SWAP1 PUSH2 0x475F JUMP JUMPDEST CODESIZE PUSH2 0xE87 JUMP JUMPDEST POP RETURNDATASIZE PUSH2 0xEAA JUMP JUMPDEST PUSH2 0xEE2 SWAP2 POP PUSH1 0x20 RETURNDATASIZE PUSH1 0x20 GT PUSH2 0x80E JUMPI PUSH2 0x7FF DUP2 DUP4 PUSH2 0x4226 JUMP JUMPDEST CODESIZE PUSH2 0xC11 JUMP JUMPDEST PUSH2 0xF01 SWAP2 POP PUSH1 0x20 RETURNDATASIZE PUSH1 0x20 GT PUSH2 0xEC2 JUMPI PUSH2 0xEB4 DUP2 DUP4 PUSH2 0x4226 JUMP JUMPDEST CODESIZE PUSH2 0xBC7 JUMP JUMPDEST PUSH1 0x40 MLOAD PUSH3 0x461BCD PUSH1 0xE5 SHL DUP2 MSTORE PUSH1 0x20 PUSH1 0x4 DUP3 ADD MSTORE PUSH1 0x14 DUP2 DUP6 ADD MSTORE PUSH20 0x125B9D985B1A59081391950818DBDB9D1C9858DD PUSH1 0x62 SHL PUSH1 0x44 DUP3 ADD MSTORE PUSH1 0x64 SWAP1 REVERT JUMPDEST PUSH1 0x40 MLOAD PUSH3 0x461BCD PUSH1 0xE5 SHL DUP2 MSTORE PUSH1 0x20 PUSH1 0x4 DUP3 ADD MSTORE PUSH1 0x15 DUP2 DUP6 ADD MSTORE PUSH21 0x5265736572766520707269636520746F6F206C6F77 PUSH1 0x58 SHL PUSH1 0x44 DUP3 ADD MSTORE PUSH1 0x64 SWAP1 REVERT JUMPDEST PUSH1 0x40 MLOAD PUSH3 0x461BCD PUSH1 0xE5 SHL DUP2 MSTORE PUSH1 0x20 PUSH1 0x4 DUP3 ADD MSTORE PUSH1 0x1C DUP2 DUP6 ADD MSTORE PUSH32 0x5374617274207072696365206D75737420626520706F73697469766500000000 PUSH1 0x44 DUP3 ADD MSTORE PUSH1 0x64 SWAP1 REVERT JUMPDEST PUSH1 0x40 MLOAD PUSH3 0x461BCD PUSH1 0xE5 SHL DUP2 MSTORE PUSH1 0x20 PUSH1 0x4 DUP3 ADD MSTORE PUSH1 0x10 DUP2 DUP6 ADD MSTORE PUSH16 0x24B73B30B634B210323AB930BA34B7B7 PUSH1 0x81 SHL PUSH1 0x44 DUP3 ADD MSTORE PUSH1 0x64 SWAP1 REVERT JUMPDEST POP PUSH3 0x278D00 PUSH1 0x4 CALLDATALOAD GT ISZERO PUSH2 0xB69 JUMP JUMPDEST POP CALLVALUE PUSH2 0x260 JUMPI PUSH1 0x20 CALLDATASIZE PUSH1 0x3 NOT ADD SLT PUSH2 0x260 JUMPI PUSH1 0x4 CALLDATALOAD PUSH2 0x1025 PUSH2 0x4B90 JUMP JUMPDEST PUSH2 0x3E8 DUP2 GT PUSH2 0x1034 JUMPI PUSH1 0x5 SSTORE DUP1 RETURN JUMPDEST PUSH1 0x40 MLOAD PUSH3 0x461BCD PUSH1 0xE5 SHL DUP2 MSTORE PUSH1 0x20 PUSH1 0x4 DUP3 ADD MSTORE PUSH1 0x11 PUSH1 0x24 DUP3 ADD MSTORE PUSH17 0x8CCACA40E4C2E8CA40E8DEDE40D0D2CED PUSH1 0x7B SHL PUSH1 0x44 DUP3 ADD MSTORE PUSH1 0x64 SWAP1 REVERT JUMPDEST POP CALLVALUE PUSH2 0x260 JUMPI PUSH1 0x40 CALLDATASIZE PUSH1 0x3 NOT ADD SLT PUSH2 0x260 JUMPI PUSH1 0x40 PUSH2 0x1089 PUSH2 0x411C JUMP JUMPDEST SWAP2 PUSH1 0x4 CALLDATALOAD DUP2 MSTORE PUSH1 0x4 PUSH1 0x20 MSTORE KECCAK256 SWAP1 PUSH1 0x1 DUP1 PUSH1 0xA0 SHL SUB AND PUSH1 0x0 MSTORE PUSH1 0x20 MSTORE PUSH1 0x20 PUSH1 0x40 PUSH1 0x0 KECCAK256 SLOAD PUSH1 0x40 MLOAD SWAP1 DUP2 MSTORE RETURN JUMPDEST POP PUSH1 0x40 CALLDATASIZE PUSH1 0x3 NOT ADD SLT PUSH2 0x260 JUMPI PUSH1 0x4 CALLDATALOAD PUSH2 0x10CC PUSH2 0x411C JUMP JUMPDEST SWAP1 PUSH2 0x10D5 PUSH2 0x4B60 JUMP JUMPDEST DUP1 DUP4 MSTORE PUSH1 0x20 PUSH1 0x2 DUP2 MSTORE PUSH2 0x10EA PUSH1 0x40 DUP6 KECCAK256 PUSH2 0x42AC JUMP JUMPDEST SWAP3 DUP3 DUP6 MSTORE PUSH1 0x7 DUP3 MSTORE PUSH1 0x40 DUP6 KECCAK256 SWAP4 PUSH1 0x40 MLOAD SWAP1 PUSH2 0x1104 DUP3 PUSH2 0x41C0 JUMP JUMPDEST PUSH1 0xFF DUP7 SLOAD AND PUSH1 0x3 DUP2 LT ISZERO PUSH2 0x1727 JUMPI DUP3 MSTORE PUSH1 0x1 DUP7 ADD SLOAD DUP5 DUP4 ADD MSTORE PUSH1 0x2 DUP7 ADD SLOAD PUSH1 0x40 DUP4 ADD MSTORE PUSH1 0x3 DUP7 ADD SLOAD SWAP2 PUSH1 0x60 DUP2 ADD SWAP3 DUP4 MSTORE PUSH1 0xE0 PUSH1 0xFF PUSH1 0x7 DUP2 PUSH1 0x4 DUP12 ADD SLOAD AND SWAP10 PUSH1 0x80 DUP6 ADD SWAP11 ISZERO ISZERO DUP12 MSTORE PUSH1 0x5 DUP2 ADD SLOAD PUSH1 0xA0 DUP7 ADD MSTORE PUSH2 0x1161 PUSH1 0x6 DUP3 ADD PUSH2 0x4346 JUMP JUMPDEST PUSH1 0xC0 DUP7 ADD MSTORE ADD SLOAD AND ISZERO ISZERO SWAP2 ADD MSTORE DUP1 MLOAD PUSH1 0x1 PUSH1 0x1 PUSH1 0xA0 SHL SUB SWAP7 SWAP1 PUSH2 0x1187 SWAP1 DUP9 AND ISZERO ISZERO PUSH2 0x458A JUMP JUMPDEST PUSH2 0x1195 PUSH1 0x80 DUP4 ADD MLOAD ISZERO PUSH2 0x43A2 JUMP JUMPDEST MLOAD ISZERO PUSH2 0x16EA JUMPI DUP6 SWAP1 MLOAD AND CALLER EQ PUSH2 0x16B1 JUMPI MLOAD SWAP4 DUP2 DUP2 AND DUP1 PUSH2 0x14E2 JUMPI DUP6 PUSH2 0x11B9 CALLVALUE PUSH2 0x4A0B JUMP JUMPDEST LT PUSH2 0x14A6 JUMPI PUSH2 0x1215 DUP8 SWAP2 JUMPDEST DUP7 DUP4 MSTORE PUSH1 0x2 DUP7 MSTORE PUSH1 0x40 DUP4 KECCAK256 PUSH1 0x4 DUP2 ADD DUP1 SLOAD PUSH1 0x1 PUSH1 0x1 PUSH1 0xA8 SHL SUB NOT AND CALLER PUSH1 0x8 SHL PUSH2 0x100 PUSH1 0x1 PUSH1 0xA8 SHL SUB AND OR PUSH1 0x1 OR SWAP1 SSTORE SWAP1 DUP9 PUSH1 0x5 DUP4 ADD SSTORE PUSH1 0x8 DUP3 ADD SWAP1 PUSH1 0x1 PUSH1 0x1 PUSH1 0x60 SHL SUB PUSH1 0xA0 SHL DUP3 SLOAD AND OR SWAP1 SSTORE PUSH2 0x42AC JUMP JUMPDEST SWAP2 PUSH2 0x140 DUP4 ADD MLOAD SWAP3 PUSH2 0x1237 PUSH2 0x2710 PUSH2 0x122F PUSH1 0x5 SLOAD DUP8 PUSH2 0x440B JUMP JUMPDEST DIV DUP1 SWAP6 PUSH2 0x43DE JUMP JUMPDEST SWAP1 DUP3 PUSH1 0xE0 DUP3 ADD MLOAD AND DUP4 PUSH1 0xA0 DUP4 ADD MLOAD AND PUSH2 0x100 DUP4 ADD MLOAD DUP3 EXTCODESIZE ISZERO PUSH2 0x14A2 JUMPI PUSH1 0x40 MLOAD PUSH4 0x21421707 PUSH1 0xE1 SHL DUP2 MSTORE ADDRESS PUSH1 0x4 DUP3 ADD MSTORE PUSH1 0x1 PUSH1 0x1 PUSH1 0xA0 SHL SUB SWAP3 SWAP1 SWAP3 AND PUSH1 0x24 DUP4 ADD MSTORE PUSH1 0x44 DUP3 ADD MSTORE SWAP1 DUP6 SWAP1 DUP3 SWAP1 PUSH1 0x64 SWAP1 DUP3 SWAP1 DUP5 SWAP1 GAS CALL SWAP1 DUP2 ISZERO PUSH2 0x1497 JUMPI DUP6 SWAP2 PUSH2 0x147F JUMPI JUMPDEST POP POP PUSH2 0x120 DUP2 ADD MLOAD DUP4 AND DUP1 PUSH2 0x1343 JUMPI POP SWAP3 DUP3 PUSH2 0x12E9 DUP3 DUP1 DUP1 DUP1 PUSH2 0x6DA SWAP12 SWAP11 SWAP8 PUSH32 0x25FD3809E71AB0DE85AB3C43A9F9D0B7C57B056AE8873FAEF831E57C691B67D7 SWAP14 SWAP10 PUSH1 0xC SWAP12 MLOAD AND GAS CALL PUSH2 0x69E PUSH2 0x4BC9 JUMP JUMPDEST DUP3 PUSH2 0x1325 JUMPI JUMPDEST POP POP POP JUMPDEST CALLER DUP9 MSTORE MSTORE PUSH2 0x1304 DUP5 PUSH1 0x40 DUP9 KECCAK256 PUSH2 0x4663 JUMP JUMPDEST PUSH1 0x40 DUP1 MLOAD SWAP6 DUP7 MSTORE PUSH1 0x1 PUSH1 0x1 PUSH1 0xA0 SHL SUB SWAP1 SWAP2 AND PUSH1 0x20 DUP7 ADD MSTORE CALLER SWAP5 SWAP2 DUP3 SWAP2 DUP3 ADD SWAP1 JUMP JUMPDEST DUP2 DUP1 PUSH2 0x133B SWAP5 DUP2 SWAP4 PUSH1 0x6 SLOAD AND GAS CALL PUSH2 0x708 PUSH2 0x4BC9 JUMP JUMPDEST CODESIZE DUP9 DUP2 PUSH2 0x12EF JUMP JUMPDEST SWAP1 MLOAD PUSH1 0x40 MLOAD PUSH4 0xA9059CBB PUSH1 0xE0 SHL DUP1 DUP3 MSTORE SWAP2 DUP6 AND PUSH1 0x1 PUSH1 0x1 PUSH1 0xA0 SHL SUB AND PUSH1 0x4 DUP3 ADD MSTORE PUSH1 0x24 DUP2 ADD SWAP4 SWAP1 SWAP4 MSTORE SWAP1 SWAP4 SWAP1 SWAP3 SWAP1 SWAP2 DUP8 DUP2 PUSH1 0x44 DUP2 DUP7 DUP10 GAS CALL DUP1 ISZERO PUSH2 0x861 JUMPI PUSH2 0x1391 SWAP2 DUP5 SWAP2 PUSH2 0x1468 JUMPI POP PUSH2 0x4EE4 JUMP JUMPDEST DUP5 PUSH2 0x13C9 JUMPI JUMPDEST POP POP POP POP POP PUSH2 0x6DA SWAP1 PUSH1 0xC PUSH32 0x25FD3809E71AB0DE85AB3C43A9F9D0B7C57B056AE8873FAEF831E57C691B67D7 SWAP4 PUSH2 0x12F3 JUMP JUMPDEST PUSH1 0x6 SLOAD PUSH1 0x40 MLOAD SWAP4 DUP5 MSTORE AND PUSH1 0x1 PUSH1 0x1 PUSH1 0xA0 SHL SUB AND PUSH1 0x4 DUP4 ADD MSTORE PUSH1 0x24 DUP3 ADD SWAP4 SWAP1 SWAP4 MSTORE SWAP3 SWAP2 DUP5 SWAP2 DUP5 SWAP2 PUSH1 0x44 SWAP2 DUP4 SWAP2 SWAP1 GAS CALL DUP1 ISZERO PUSH2 0x145D JUMPI PUSH32 0x25FD3809E71AB0DE85AB3C43A9F9D0B7C57B056AE8873FAEF831E57C691B67D7 SWAP4 PUSH2 0x1435 PUSH1 0xC SWAP3 PUSH2 0x6DA SWAP6 DUP11 SWAP2 PUSH2 0x1440 JUMPI POP PUSH2 0x4F30 JUMP JUMPDEST SWAP4 DUP3 SWAP4 POP DUP8 CODESIZE PUSH2 0x1397 JUMP JUMPDEST PUSH2 0x1457 SWAP2 POP DUP4 RETURNDATASIZE DUP6 GT PUSH2 0x80E JUMPI PUSH2 0x7FF DUP2 DUP4 PUSH2 0x4226 JUMP JUMPDEST CODESIZE PUSH2 0x708 JUMP JUMPDEST PUSH1 0x40 MLOAD RETURNDATASIZE DUP9 DUP3 RETURNDATACOPY RETURNDATASIZE SWAP1 REVERT JUMPDEST PUSH2 0x837 SWAP2 POP DUP10 RETURNDATASIZE DUP12 GT PUSH2 0x80E JUMPI PUSH2 0x7FF DUP2 DUP4 PUSH2 0x4226 JUMP JUMPDEST PUSH2 0x1488 SWAP1 PUSH2 0x41DC JUMP JUMPDEST PUSH2 0x1493 JUMPI DUP4 CODESIZE PUSH2 0x1298 JUMP JUMPDEST DUP4 DUP1 REVERT JUMPDEST PUSH1 0x40 MLOAD RETURNDATASIZE DUP8 DUP3 RETURNDATACOPY RETURNDATASIZE SWAP1 REVERT JUMPDEST DUP7 DUP1 REVERT JUMPDEST PUSH1 0x40 MLOAD PUSH3 0x461BCD PUSH1 0xE5 SHL DUP2 MSTORE PUSH1 0x4 DUP2 ADD DUP6 SWAP1 MSTORE PUSH1 0x14 PUSH1 0x24 DUP3 ADD MSTORE PUSH20 0x125B9CDD59999A58DA595B9D081C185E5B595B9D PUSH1 0x62 SHL PUSH1 0x44 DUP3 ADD MSTORE PUSH1 0x64 SWAP1 REVERT JUMPDEST PUSH2 0x14F4 PUSH2 0x14EF DUP5 DUP8 PUSH2 0x4DF8 JUMP JUMPDEST PUSH2 0x4863 JUMP JUMPDEST DUP1 DUP8 MSTORE DUP7 DUP5 MSTORE DUP2 PUSH1 0x40 DUP9 KECCAK256 SLOAD AND PUSH2 0x150C DUP2 ISZERO ISZERO PUSH2 0x491B JUMP JUMPDEST PUSH1 0x40 MLOAD PUSH4 0x3FABE5A3 PUSH1 0xE2 SHL DUP2 MSTORE PUSH1 0xA0 DUP2 PUSH1 0x4 DUP2 DUP6 GAS STATICCALL SWAP1 DUP2 ISZERO PUSH2 0x1670 JUMPI PUSH1 0x4 SWAP3 DUP8 SWAP2 DUP12 SWAP4 PUSH2 0x167B JUMPI JUMPDEST POP PUSH2 0x1541 DUP12 DUP5 SGT PUSH2 0x49A5 JUMP JUMPDEST PUSH1 0x40 MLOAD PUSH4 0x313CE567 PUSH1 0xE0 SHL DUP2 MSTORE SWAP4 DUP5 SWAP2 DUP3 SWAP1 GAS STATICCALL SWAP2 DUP3 ISZERO PUSH2 0x1670 JUMPI DUP10 SWAP3 PUSH2 0x1641 JUMPI JUMPDEST POP PUSH8 0xDE0B6B3A7640000 SWAP2 DUP3 DUP3 MUL SWAP2 DUP1 DUP4 DIV DUP5 EQ SWAP1 ISZERO OR ISZERO PUSH2 0x162D JUMPI SWAP1 PUSH2 0x158C PUSH2 0x1592 SWAP3 PUSH2 0x49FA JUMP JUMPDEST SWAP1 PUSH2 0x43EB JUMP JUMPDEST SWAP1 DUP1 DUP9 MUL SWAP1 DUP9 DUP3 DIV EQ DUP9 ISZERO OR ISZERO PUSH2 0x1619 JUMPI SWAP2 DUP6 PUSH2 0x15B3 PUSH2 0x15E0 SWAP4 DUP12 SWAP6 PUSH2 0x43EB JUMP JUMPDEST PUSH1 0x40 MLOAD PUSH4 0x23B872DD PUSH1 0xE0 SHL DUP2 MSTORE CALLER PUSH1 0x4 DUP3 ADD MSTORE ADDRESS PUSH1 0x24 DUP3 ADD MSTORE PUSH1 0x44 DUP2 ADD SWAP2 SWAP1 SWAP2 MSTORE SWAP3 DUP4 SWAP1 DUP2 SWAP1 PUSH1 0x64 DUP3 ADD SWAP1 JUMP JUMPDEST SUB DUP2 DUP7 DUP6 GAS CALL SWAP2 DUP3 ISZERO PUSH2 0x861 JUMPI PUSH2 0x1215 SWAP3 PUSH2 0x15FC JUMPI JUMPDEST POP PUSH2 0x11C4 JUMP JUMPDEST PUSH2 0x1612 SWAP1 DUP8 RETURNDATASIZE DUP10 GT PUSH2 0x80E JUMPI PUSH2 0x7FF DUP2 DUP4 PUSH2 0x4226 JUMP JUMPDEST POP CODESIZE PUSH2 0x15F6 JUMP JUMPDEST PUSH4 0x4E487B71 PUSH1 0xE0 SHL DUP10 MSTORE PUSH1 0x11 PUSH1 0x4 MSTORE PUSH1 0x24 DUP10 REVERT JUMPDEST PUSH4 0x4E487B71 PUSH1 0xE0 SHL DUP11 MSTORE PUSH1 0x11 PUSH1 0x4 MSTORE PUSH1 0x24 DUP11 REVERT JUMPDEST PUSH2 0x1662 SWAP2 SWAP3 POP DUP7 RETURNDATASIZE DUP9 GT PUSH2 0x1669 JUMPI JUMPDEST PUSH2 0x165A DUP2 DUP4 PUSH2 0x4226 JUMP JUMPDEST DUP2 ADD SWAP1 PUSH2 0x49E1 JUMP JUMPDEST SWAP1 CODESIZE PUSH2 0x1563 JUMP JUMPDEST POP RETURNDATASIZE PUSH2 0x1650 JUMP JUMPDEST PUSH1 0x40 MLOAD RETURNDATASIZE DUP12 DUP3 RETURNDATACOPY RETURNDATASIZE SWAP1 REVERT JUMPDEST PUSH2 0x169E SWAP2 SWAP4 POP PUSH1 0xA0 RETURNDATASIZE PUSH1 0xA0 GT PUSH2 0x16AA JUMPI JUMPDEST PUSH2 0x1696 DUP2 DUP4 PUSH2 0x4226 JUMP JUMPDEST DUP2 ADD SWAP1 PUSH2 0x4973 JUMP JUMPDEST POP POP POP SWAP1 POP SWAP2 CODESIZE PUSH2 0x1535 JUMP JUMPDEST POP RETURNDATASIZE PUSH2 0x168C JUMP JUMPDEST PUSH1 0x40 MLOAD PUSH3 0x461BCD PUSH1 0xE5 SHL DUP2 MSTORE PUSH1 0x4 DUP2 ADD DUP5 SWAP1 MSTORE PUSH1 0x11 PUSH1 0x24 DUP3 ADD MSTORE PUSH17 0x53656C6C65722063616E6E6F7420627579 PUSH1 0x78 SHL PUSH1 0x44 DUP3 ADD MSTORE PUSH1 0x64 SWAP1 REVERT JUMPDEST PUSH1 0x40 MLOAD PUSH3 0x461BCD PUSH1 0xE5 SHL DUP2 MSTORE PUSH1 0x4 DUP2 ADD DUP6 SWAP1 MSTORE PUSH1 0x15 PUSH1 0x24 DUP3 ADD MSTORE PUSH21 0x427579206E6F77206E6F7420617661696C61626C65 PUSH1 0x58 SHL PUSH1 0x44 DUP3 ADD MSTORE PUSH1 0x64 SWAP1 REVERT JUMPDEST PUSH4 0x4E487B71 PUSH1 0xE0 SHL DUP9 MSTORE PUSH1 0x21 PUSH1 0x4 MSTORE PUSH1 0x24 DUP9 REVERT JUMPDEST POP CALLVALUE PUSH2 0x260 JUMPI DUP1 PUSH1 0x3 NOT CALLDATASIZE ADD SLT PUSH2 0x260 JUMPI PUSH1 0x0 DUP1 MLOAD PUSH1 0x20 PUSH2 0x5021 DUP4 CODECOPY DUP2 MLOAD SWAP2 MSTORE SLOAD PUSH1 0x40 MLOAD PUSH1 0x1 PUSH1 0x1 PUSH1 0xA0 SHL SUB SWAP1 SWAP2 AND DUP2 MSTORE PUSH1 0x20 SWAP1 RETURN JUMPDEST POP CALLVALUE PUSH2 0x260 JUMPI PUSH1 0x20 CALLDATASIZE PUSH1 0x3 NOT ADD SLT PUSH2 0x260 JUMPI PUSH1 0x20 PUSH2 0x258 PUSH1 0x4 CALLDATALOAD PUSH2 0x47FC JUMP JUMPDEST POP CALLVALUE PUSH2 0x260 JUMPI PUSH2 0x120 CALLDATASIZE PUSH1 0x3 NOT ADD SLT PUSH2 0x260 JUMPI PUSH2 0x17AB PUSH2 0x4148 JUMP JUMPDEST SWAP1 PUSH1 0x3 PUSH1 0xA4 CALLDATALOAD LT ISZERO PUSH2 0x260 JUMPI PUSH1 0x1 PUSH1 0x1 PUSH1 0x40 SHL SUB DUP1 PUSH2 0x104 CALLDATALOAD GT PUSH2 0x53F JUMPI CALLDATASIZE PUSH1 0x23 PUSH2 0x104 CALLDATALOAD ADD SLT ISZERO PUSH2 0x53F JUMPI PUSH2 0x104 CALLDATALOAD PUSH1 0x4 ADD CALLDATALOAD GT PUSH2 0x260 JUMPI CALLDATASIZE PUSH1 0x24 PUSH2 0x104 CALLDATALOAD PUSH1 0x4 ADD CALLDATALOAD PUSH1 0x5 SHL PUSH2 0x104 CALLDATALOAD ADD ADD GT PUSH2 0x260 JUMPI PUSH2 0x1805 PUSH2 0x4B60 JUMP JUMPDEST PUSH1 0x3 SLOAD SWAP2 PUSH2 0x1812 DUP4 PUSH2 0x4750 JUMP JUMPDEST PUSH1 0x3 SSTORE PUSH1 0x40 MLOAD PUSH4 0x31A9108F PUSH1 0xE1 SHL DUP2 MSTORE PUSH1 0x84 CALLDATALOAD PUSH1 0x4 DUP3 ADD MSTORE PUSH1 0x20 DUP2 PUSH1 0x24 DUP2 PUSH1 0x1 PUSH1 0x1 PUSH1 0xA0 SHL SUB DUP7 AND GAS STATICCALL SWAP1 DUP2 ISZERO PUSH2 0x861 JUMPI SWAP1 PUSH2 0x185F SWAP2 DUP5 SWAP2 PUSH2 0xEE8 JUMPI POP PUSH1 0x1 PUSH1 0x1 PUSH1 0xA0 SHL SUB AND CALLER EQ PUSH2 0x477E JUMP JUMPDEST PUSH1 0x40 MLOAD PUSH4 0xE985E9C5 PUSH1 0xE0 SHL DUP2 MSTORE CALLER PUSH1 0x4 DUP3 ADD MSTORE ADDRESS PUSH1 0x24 DUP3 ADD MSTORE PUSH1 0x20 DUP2 PUSH1 0x44 DUP2 PUSH1 0x1 PUSH1 0x1 PUSH1 0xA0 SHL SUB DUP7 AND GAS STATICCALL SWAP1 DUP2 ISZERO PUSH2 0x861 JUMPI DUP4 SWAP2 PUSH2 0x1DCF JUMPI JUMPDEST POP DUP1 ISZERO PUSH2 0x1D62 JUMPI JUMPDEST PUSH2 0x18A9 SWAP1 PUSH2 0x47BD JUMP JUMPDEST PUSH1 0x1 PUSH1 0x1 PUSH1 0xA0 SHL SUB DUP2 AND EXTCODESIZE ISZERO PUSH2 0x53F JUMPI PUSH1 0x40 MLOAD PUSH4 0x21421707 PUSH1 0xE1 SHL DUP2 MSTORE CALLER PUSH1 0x4 DUP3 ADD MSTORE ADDRESS PUSH1 0x24 DUP3 ADD MSTORE PUSH1 0x84 CALLDATALOAD PUSH1 0x44 DUP3 ADD MSTORE DUP3 DUP2 PUSH1 0x64 DUP2 DUP4 PUSH1 0x1 PUSH1 0x1 PUSH1 0xA0 SHL SUB DUP8 AND GAS CALL DUP1 ISZERO PUSH2 0x861 JUMPI SWAP1 DUP4 SWAP2 PUSH2 0x1D4E JUMPI JUMPDEST POP POP PUSH1 0x40 MLOAD PUSH2 0x1908 DUP2 PUSH2 0x41EF JUMP JUMPDEST CALLER DUP2 MSTORE PUSH1 0x4 CALLDATALOAD PUSH1 0x20 DUP3 ADD MSTORE PUSH1 0x24 CALLDATALOAD PUSH1 0x40 DUP3 ADD MSTORE TIMESTAMP PUSH1 0x60 DUP3 ADD MSTORE DUP3 PUSH1 0x80 DUP3 ADD MSTORE DUP3 PUSH1 0xA0 DUP3 ADD MSTORE DUP3 PUSH1 0xC0 DUP3 ADD MSTORE PUSH1 0x1 DUP1 PUSH1 0xA0 SHL SUB DUP3 AND PUSH1 0xE0 DUP3 ADD MSTORE PUSH1 0x84 CALLDATALOAD PUSH2 0x100 DUP3 ADD MSTORE DUP3 PUSH2 0x120 DUP3 ADD MSTORE DUP3 PUSH2 0x140 DUP3 ADD MSTORE PUSH1 0x44 CALLDATALOAD PUSH2 0x160 DUP3 ADD MSTORE DUP4 DUP4 MSTORE PUSH1 0x2 PUSH1 0x20 MSTORE PUSH1 0xA PUSH2 0x160 PUSH1 0x40 DUP6 KECCAK256 SWAP3 PUSH1 0x1 DUP1 PUSH1 0xA0 SHL SUB DUP2 MLOAD AND PUSH1 0x1 PUSH1 0x1 PUSH1 0x60 SHL SUB PUSH1 0xA0 SHL DUP6 SLOAD AND OR DUP5 SSTORE PUSH1 0x20 DUP2 ADD MLOAD PUSH1 0x1 DUP6 ADD SSTORE PUSH1 0x40 DUP2 ADD MLOAD PUSH1 0x2 DUP6 ADD SSTORE PUSH1 0x60 DUP2 ADD MLOAD PUSH1 0x3 DUP6 ADD SSTORE PUSH2 0x19F6 PUSH1 0x4 DUP6 ADD PUSH2 0x19CF PUSH1 0x80 DUP5 ADD MLOAD ISZERO ISZERO DUP3 SWAP1 PUSH1 0xFF DUP1 NOT DUP4 SLOAD AND SWAP2 ISZERO ISZERO AND OR SWAP1 SSTORE JUMP JUMPDEST PUSH1 0xA0 DUP4 ADD MLOAD DUP2 SLOAD PUSH2 0x100 PUSH1 0x1 PUSH1 0xA8 SHL SUB NOT AND PUSH1 0x8 SWAP2 SWAP1 SWAP2 SHL PUSH2 0x100 PUSH1 0x1 PUSH1 0xA8 SHL SUB AND OR SWAP1 SSTORE JUMP JUMPDEST PUSH1 0xC0 DUP2 ADD MLOAD PUSH1 0x5 DUP6 ADD SSTORE PUSH1 0xE0 DUP2 ADD MLOAD PUSH1 0x6 DUP6 ADD DUP1 SLOAD PUSH1 0x1 PUSH1 0x1 PUSH1 0xA0 SHL SUB NOT SWAP1 DUP2 AND PUSH1 0x1 PUSH1 0x1 PUSH1 0xA0 SHL SUB SWAP4 DUP5 AND OR SWAP1 SWAP2 SSTORE PUSH2 0x100 DUP4 ADD MLOAD PUSH1 0x7 DUP8 ADD SSTORE PUSH2 0x120 DUP4 ADD MLOAD PUSH1 0x8 DUP8 ADD DUP1 SLOAD SWAP1 SWAP3 AND SWAP1 DUP4 AND OR SWAP1 SSTORE PUSH2 0x140 DUP3 ADD MLOAD PUSH1 0x9 DUP7 ADD SSTORE SWAP2 ADD MLOAD SWAP2 SWAP1 SWAP3 ADD SSTORE PUSH1 0x40 DUP1 MLOAD PUSH1 0x84 CALLDATALOAD DUP2 MSTORE PUSH1 0x24 CALLDATALOAD PUSH1 0x20 DUP3 ADD MSTORE PUSH1 0x44 CALLDATALOAD SWAP2 DUP2 ADD SWAP2 SWAP1 SWAP2 MSTORE PUSH1 0x4 CALLDATALOAD PUSH1 0x60 DUP3 ADD MSTORE SWAP2 AND SWAP1 CALLER SWAP1 DUP5 SWAP1 PUSH32 0xCAF0AE751FB2B122E8718BF7C0D4B7584D1418A853A4D0CDABA45418D3DA138B SWAP1 PUSH1 0x80 SWAP1 LOG4 DUP2 DUP2 MSTORE PUSH1 0x7 PUSH1 0x20 MSTORE PUSH1 0x40 DUP2 KECCAK256 PUSH1 0xFF NOT DUP2 SLOAD AND PUSH1 0xFF PUSH1 0xA4 CALLDATALOAD AND OR DUP2 SSTORE PUSH1 0xC4 CALLDATALOAD PUSH1 0x3 DUP3 ADD SSTORE PUSH2 0x1AE9 PUSH1 0xC4 CALLDATALOAD ISZERO ISZERO PUSH1 0x4 DUP4 ADD SWAP1 PUSH1 0xFF DUP1 NOT DUP4 SLOAD AND SWAP2 ISZERO ISZERO AND OR SWAP1 SSTORE JUMP JUMPDEST PUSH1 0xE4 CALLDATALOAD PUSH1 0x5 DUP3 ADD SSTORE PUSH1 0x1 PUSH1 0x40 SHL PUSH2 0x104 CALLDATALOAD PUSH1 0x4 ADD CALLDATALOAD GT PUSH2 0x1D3A JUMPI PUSH1 0x6 DUP2 ADD DUP1 SLOAD PUSH1 0x4 PUSH2 0x104 CALLDATALOAD ADD CALLDATALOAD SWAP2 DUP3 SWAP1 SSTORE SWAP1 DUP2 GT PUSH2 0x1D08 JUMPI JUMPDEST POP PUSH1 0x6 DUP2 ADD DUP3 MSTORE PUSH1 0x20 DUP3 KECCAK256 PUSH2 0x104 CALLDATALOAD PUSH1 0x24 ADD DUP4 JUMPDEST PUSH2 0x104 CALLDATALOAD PUSH1 0x4 ADD CALLDATALOAD DUP2 LT PUSH2 0x1CED JUMPI POP POP POP PUSH1 0x7 DUP2 ADD DUP1 SLOAD PUSH1 0xFF NOT AND PUSH2 0x104 CALLDATALOAD PUSH1 0x4 ADD CALLDATALOAD ISZERO ISZERO PUSH1 0xFF AND OR SWAP1 SSTORE PUSH1 0x0 SWAP1 PUSH1 0xA4 CALLDATALOAD PUSH1 0x1 SUB PUSH2 0x1CA0 JUMPI PUSH1 0x24 CALLDATALOAD PUSH1 0x44 CALLDATALOAD LT ISZERO PUSH2 0x1C4D JUMPI PUSH1 0x1 PUSH2 0x1B95 PUSH2 0x1B88 PUSH1 0x44 CALLDATALOAD PUSH1 0x24 CALLDATALOAD PUSH2 0x43DE JUMP JUMPDEST PUSH2 0xE10 PUSH1 0x4 CALLDATALOAD DIV SWAP1 PUSH2 0x43EB JUMP JUMPDEST SWAP2 ADD SSTORE JUMPDEST PUSH1 0x40 MLOAD PUSH2 0x1BA5 DUP2 PUSH2 0x420B JUMP JUMPDEST DUP3 DUP2 MSTORE PUSH1 0x3 PUSH1 0x20 DUP3 ADD DUP5 DUP2 MSTORE PUSH1 0x40 DUP4 ADD DUP6 DUP2 MSTORE PUSH1 0x60 DUP5 ADD SWAP2 DUP7 DUP4 MSTORE DUP8 DUP8 MSTORE PUSH1 0xA PUSH1 0x20 MSTORE PUSH1 0x40 DUP8 KECCAK256 SWAP5 MLOAD DUP6 SSTORE MLOAD PUSH1 0x1 DUP6 ADD SSTORE MLOAD PUSH1 0x2 DUP5 ADD SSTORE MLOAD SWAP2 ADD SSTORE PUSH2 0x1C39 JUMPI PUSH1 0x20 DUP3 PUSH1 0x40 MLOAD PUSH1 0xC4 CALLDATALOAD DUP2 MSTORE PUSH1 0xE4 CALLDATALOAD DUP4 DUP3 ADD MSTORE DUP2 PUSH32 0x4A5D64507C82BC8298D14DEB0D31FDFAFD619BD90AFE131FBEA1F556370A2EB3 PUSH1 0x40 PUSH1 0xA4 CALLDATALOAD SWAP4 LOG3 PUSH1 0x1 PUSH1 0x0 DUP1 MLOAD PUSH1 0x20 PUSH2 0x5061 DUP4 CODECOPY DUP2 MLOAD SWAP2 MSTORE SSTORE PUSH1 0x40 MLOAD SWAP1 DUP2 MSTORE RETURN JUMPDEST PUSH4 0x4E487B71 PUSH1 0xE0 SHL DUP2 MSTORE PUSH1 0x21 PUSH1 0x4 MSTORE PUSH1 0x24 SWAP1 REVERT JUMPDEST PUSH1 0x40 MLOAD PUSH3 0x461BCD PUSH1 0xE5 SHL DUP2 MSTORE PUSH1 0x20 PUSH1 0x4 DUP3 ADD MSTORE PUSH1 0x25 PUSH1 0x24 DUP3 ADD MSTORE PUSH32 0x496E76616C69642070726963652072616E676520666F72204475746368206175 PUSH1 0x44 DUP3 ADD MSTORE PUSH5 0x31BA34B7B7 PUSH1 0xD9 SHL PUSH1 0x64 DUP3 ADD MSTORE PUSH1 0x84 SWAP1 REVERT JUMPDEST PUSH1 0x0 SWAP2 POP PUSH1 0xA4 CALLDATALOAD PUSH1 0x2 EQ PUSH2 0x1CB5 JUMPI JUMPDEST POP PUSH2 0x1B99 JUMP JUMPDEST PUSH2 0x1CC1 PUSH1 0x4 CALLDATALOAD TIMESTAMP PUSH2 0x461B JUMP JUMPDEST SWAP1 PUSH3 0x15180 DUP3 ADD DUP1 SWAP3 GT PUSH2 0x1CD9 JUMPI PUSH1 0x2 ADD SSTORE CODESIZE PUSH2 0x1CAF JUMP JUMPDEST PUSH4 0x4E487B71 PUSH1 0xE0 SHL DUP5 MSTORE PUSH1 0x11 PUSH1 0x4 MSTORE PUSH1 0x24 DUP5 REVERT JUMPDEST PUSH1 0x1 SWAP1 PUSH1 0x20 PUSH2 0x1CFB DUP5 PUSH2 0x4728 JUMP JUMPDEST SWAP4 ADD SWAP3 DUP2 DUP6 ADD SSTORE ADD PUSH2 0x1B31 JUMP JUMPDEST PUSH1 0x6 DUP3 ADD DUP4 MSTORE PUSH1 0x20 DUP4 KECCAK256 SWAP1 PUSH2 0x104 CALLDATALOAD PUSH1 0x4 ADD CALLDATALOAD DUP3 ADD JUMPDEST DUP2 DUP4 ADD DUP2 LT PUSH2 0x1D2E JUMPI POP POP PUSH2 0x1B1D JUMP JUMPDEST PUSH1 0x0 DUP2 SSTORE PUSH1 0x1 ADD PUSH2 0x1D1E JUMP JUMPDEST PUSH4 0x4E487B71 PUSH1 0xE0 SHL DUP3 MSTORE PUSH1 0x41 PUSH1 0x4 MSTORE PUSH1 0x24 DUP3 REVERT JUMPDEST PUSH2 0x1D57 SWAP1 PUSH2 0x41DC JUMP JUMPDEST PUSH2 0x53F JUMPI DUP2 CODESIZE PUSH2 0x18FA JUMP JUMPDEST POP PUSH1 0x40 MLOAD PUSH4 0x20604BF PUSH1 0xE2 SHL DUP2 MSTORE PUSH1 0x84 CALLDATALOAD PUSH1 0x4 DUP3 ADD MSTORE PUSH1 0x20 DUP2 PUSH1 0x24 DUP2 PUSH1 0x1 PUSH1 0x1 PUSH1 0xA0 SHL SUB DUP7 AND GAS STATICCALL SWAP1 DUP2 ISZERO PUSH2 0x861 JUMPI SWAP1 PUSH2 0x18A9 SWAP2 DUP5 SWAP2 PUSH2 0x1DB0 JUMPI JUMPDEST POP PUSH1 0x1 PUSH1 0x1 PUSH1 0xA0 SHL SUB AND ADDRESS EQ SWAP1 POP PUSH2 0x18A0 JUMP JUMPDEST PUSH2 0x1DC9 SWAP2 POP PUSH1 0x20 RETURNDATASIZE PUSH1 0x20 GT PUSH2 0xEC2 JUMPI PUSH2 0xEB4 DUP2 DUP4 PUSH2 0x4226 JUMP JUMPDEST CODESIZE PUSH2 0x1D9D JUMP JUMPDEST PUSH2 0x1DE8 SWAP2 POP PUSH1 0x20 RETURNDATASIZE PUSH1 0x20 GT PUSH2 0x80E JUMPI PUSH2 0x7FF DUP2 DUP4 PUSH2 0x4226 JUMP JUMPDEST CODESIZE PUSH2 0x1898 JUMP JUMPDEST POP CALLVALUE PUSH2 0x260 JUMPI PUSH1 0x20 CALLDATASIZE PUSH1 0x3 NOT ADD SLT PUSH2 0x260 JUMPI PUSH1 0x40 DUP2 PUSH1 0x80 SWAP3 PUSH1 0x60 DUP4 MLOAD PUSH2 0x1E13 DUP2 PUSH2 0x420B JUMP JUMPDEST DUP3 DUP2 MSTORE DUP3 PUSH1 0x20 DUP3 ADD MSTORE DUP3 DUP6 DUP3 ADD MSTORE ADD MSTORE PUSH1 0x4 CALLDATALOAD DUP2 MSTORE PUSH1 0xA PUSH1 0x20 MSTORE KECCAK256 PUSH1 0x40 MLOAD PUSH2 0x1E3A DUP2 PUSH2 0x420B JUMP JUMPDEST DUP2 SLOAD SWAP2 DUP3 DUP3 MSTORE PUSH1 0x1 DUP2 ADD SLOAD PUSH1 0x20 DUP4 ADD SWAP1 DUP2 MSTORE PUSH1 0x60 PUSH1 0x3 PUSH1 0x2 DUP5 ADD SLOAD SWAP4 PUSH1 0x40 DUP7 ADD SWAP5 DUP6 MSTORE ADD SLOAD SWAP4 ADD SWAP3 DUP4 MSTORE PUSH1 0x40 MLOAD SWAP4 DUP5 MSTORE MLOAD PUSH1 0x20 DUP5 ADD MSTORE MLOAD PUSH1 0x40 DUP4 ADD MSTORE MLOAD PUSH1 0x60 DUP3 ADD MSTORE RETURN JUMPDEST POP CALLVALUE PUSH2 0x260 JUMPI PUSH1 0x20 CALLDATASIZE PUSH1 0x3 NOT ADD SLT PUSH2 0x260 JUMPI PUSH1 0x4 CALLDATALOAD DUP2 MSTORE PUSH1 0xA PUSH1 0x20 SWAP1 DUP2 MSTORE PUSH1 0x40 SWAP2 DUP3 SWAP1 KECCAK256 DUP1 SLOAD PUSH1 0x1 DUP3 ADD SLOAD PUSH1 0x2 DUP4 ADD SLOAD PUSH1 0x3 SWAP1 SWAP4 ADD SLOAD DUP6 MLOAD SWAP3 DUP4 MSTORE SWAP4 DUP3 ADD MSTORE SWAP3 DUP4 ADD MSTORE PUSH1 0x60 DUP3 ADD MSTORE PUSH1 0x80 SWAP1 RETURN JUMPDEST POP CALLVALUE PUSH2 0x260 JUMPI DUP1 PUSH1 0x3 NOT CALLDATASIZE ADD SLT PUSH2 0x260 JUMPI PUSH32 0xF0C57E16840DF040F15088DC2F81FE391C3923BEC73E23A9662EFC9C229C6A00 DUP1 SLOAD PUSH1 0xFF DUP2 PUSH1 0x40 SHR AND ISZERO SWAP1 PUSH1 0x1 PUSH1 0x1 PUSH1 0x40 SHL SUB DUP2 AND DUP1 ISZERO SWAP1 DUP2 PUSH2 0x2035 JUMPI JUMPDEST PUSH1 0x1 EQ SWAP1 DUP2 PUSH2 0x202B JUMPI JUMPDEST ISZERO SWAP1 DUP2 PUSH2 0x2022 JUMPI JUMPDEST POP PUSH2 0x2010 JUMPI PUSH8 0xFFFFFFFFFFFFFFFF NOT DUP2 AND PUSH1 0x1 OR DUP4 SSTORE DUP2 PUSH2 0x1FF1 JUMPI JUMPDEST POP PUSH2 0x1F52 PUSH2 0x4F7C JUMP JUMPDEST PUSH2 0x1F5A PUSH2 0x4F7C JUMP JUMPDEST PUSH2 0x1F63 CALLER PUSH2 0x48A7 JUMP JUMPDEST PUSH2 0x1F6B PUSH2 0x4F7C JUMP JUMPDEST PUSH2 0x1F73 PUSH2 0x4F7C JUMP JUMPDEST PUSH2 0x1F7B PUSH2 0x4F7C JUMP JUMPDEST PUSH1 0x1 PUSH1 0x0 DUP1 MLOAD PUSH1 0x20 PUSH2 0x5061 DUP4 CODECOPY DUP2 MLOAD SWAP2 MSTORE SSTORE PUSH1 0x1 PUSH1 0x3 SSTORE PUSH1 0xFA PUSH1 0x5 SSTORE CALLER PUSH1 0x1 PUSH1 0x1 PUSH1 0x60 SHL SUB PUSH1 0xA0 SHL PUSH1 0x6 SLOAD AND OR PUSH1 0x6 SSTORE PUSH2 0x1FB3 JUMPI POP DUP1 RETURN JUMPDEST PUSH9 0xFF0000000000000000 NOT DUP2 SLOAD AND SWAP1 SSTORE PUSH32 0xC7F505B2F371AE2175EE4913F4499E1F2633A7B5936321EED1CDAEB6115181D2 PUSH1 0x20 PUSH1 0x40 MLOAD PUSH1 0x1 DUP2 MSTORE LOG1 DUP1 RETURN JUMPDEST PUSH9 0xFFFFFFFFFFFFFFFFFF NOT AND PUSH9 0x10000000000000001 OR DUP3 SSTORE CODESIZE PUSH2 0x1F49 JUMP JUMPDEST PUSH1 0x40 MLOAD PUSH4 0xF92EE8A9 PUSH1 0xE0 SHL DUP2 MSTORE PUSH1 0x4 SWAP1 REVERT JUMPDEST SWAP1 POP ISZERO CODESIZE PUSH2 0x1F2D JUMP JUMPDEST ADDRESS EXTCODESIZE ISZERO SWAP2 POP PUSH2 0x1F25 JUMP JUMPDEST DUP4 SWAP2 POP PUSH2 0x1F1B JUMP JUMPDEST POP CALLVALUE PUSH2 0x260 JUMPI PUSH1 0x20 CALLDATASIZE PUSH1 0x3 NOT ADD SLT PUSH2 0x260 JUMPI PUSH2 0x2057 PUSH2 0x4132 JUMP JUMPDEST PUSH2 0x205F PUSH2 0x4B90 JUMP JUMPDEST PUSH1 0x1 DUP1 PUSH1 0xA0 SHL SUB AND PUSH1 0x1 PUSH1 0x1 PUSH1 0x60 SHL SUB PUSH1 0xA0 SHL PUSH1 0x1 SLOAD AND OR PUSH1 0x1 SSTORE DUP1 RETURN JUMPDEST POP CALLVALUE PUSH2 0x260 JUMPI PUSH1 0x20 CALLDATASIZE PUSH1 0x3 NOT ADD SLT PUSH2 0x260 JUMPI PUSH1 0x40 MLOAD PUSH2 0x180 SWAP2 PUSH2 0x209F DUP3 PUSH2 0x41EF JUMP JUMPDEST DUP1 DUP3 MSTORE DUP1 PUSH1 0x20 DUP4 ADD MSTORE DUP1 PUSH1 0x40 DUP4 ADD MSTORE DUP1 PUSH1 0x60 DUP4 ADD MSTORE DUP1 PUSH1 0x80 DUP4 ADD MSTORE DUP1 PUSH1 0xA0 DUP4 ADD MSTORE DUP1 PUSH1 0xC0 DUP4 ADD MSTORE DUP1 PUSH1 0xE0 DUP4 ADD MSTORE PUSH2 0x100 SWAP2 DUP2 DUP4 DUP3 ADD MSTORE PUSH2 0x120 DUP3 DUP2 DUP4 ADD MSTORE PUSH2 0x140 DUP4 DUP2 DUP5 ADD MSTORE PUSH2 0x2104 PUSH1 0x40 DUP6 PUSH2 0x160 SWAP7 DUP8 DUP1 SWAP8 ADD MSTORE PUSH1 0x4 CALLDATALOAD DUP2 MSTORE PUSH1 0x2 PUSH1 0x20 MSTORE KECCAK256 PUSH2 0x42AC JUMP JUMPDEST SWAP2 PUSH1 0x40 MLOAD SWAP6 PUSH1 0x1 DUP1 PUSH1 0xA0 SHL SUB SWAP1 DUP2 DUP6 MLOAD AND DUP9 MSTORE PUSH1 0x20 DUP6 ADD MLOAD PUSH1 0x20 DUP10 ADD MSTORE PUSH1 0x40 DUP6 ADD MLOAD PUSH1 0x40 DUP10 ADD MSTORE PUSH1 0x60 DUP6 ADD MLOAD PUSH1 0x60 DUP10 ADD MSTORE PUSH1 0x80 DUP6 ADD MLOAD ISZERO ISZERO PUSH1 0x80 DUP10 ADD MSTORE DUP2 PUSH1 0xA0 DUP7 ADD MLOAD AND PUSH1 0xA0 DUP10 ADD MSTORE PUSH1 0xC0 DUP6 ADD MLOAD PUSH1 0xC0 DUP10 ADD MSTORE DUP2 PUSH1 0xE0 DUP7 ADD MLOAD AND PUSH1 0xE0 DUP10 ADD MSTORE DUP1 DUP6 ADD MLOAD SWAP1 DUP9 ADD MSTORE DUP2 DUP5 ADD MLOAD AND SWAP1 DUP7 ADD MSTORE DUP1 DUP3 ADD MLOAD SWAP1 DUP6 ADD MSTORE ADD MLOAD SWAP1 DUP3 ADD MSTORE RETURN JUMPDEST POP CALLVALUE PUSH2 0x260 JUMPI PUSH1 0x40 CALLDATASIZE PUSH1 0x3 NOT ADD SLT PUSH2 0x260 JUMPI PUSH2 0x219E PUSH2 0x4132 JUMP JUMPDEST PUSH2 0x21A6 PUSH2 0x411C JUMP JUMPDEST PUSH2 0x21AE PUSH2 0x4B90 JUMP JUMPDEST PUSH1 0x1 DUP1 PUSH1 0xA0 SHL SUB DUP1 SWAP2 AND SWAP2 AND DUP1 DUP4 MSTORE DUP3 PUSH1 0x20 MSTORE PUSH1 0x40 DUP4 KECCAK256 DUP3 PUSH1 0x1 PUSH1 0x1 PUSH1 0x60 SHL SUB PUSH1 0xA0 SHL DUP3 SLOAD AND OR SWAP1 SSTORE PUSH32 0xA8ABE0398416476DB5B05737CD4DA3B3CBDE5012D978A6A6C3FD49D321753536 DUP4 DUP1 LOG3 DUP1 RETURN JUMPDEST POP CALLVALUE PUSH2 0x260 JUMPI DUP1 PUSH1 0x3 NOT CALLDATASIZE ADD SLT PUSH2 0x260 JUMPI PUSH2 0x2217 PUSH2 0x4B90 JUMP JUMPDEST PUSH1 0x0 DUP1 MLOAD PUSH1 0x20 PUSH2 0x5021 DUP4 CODECOPY DUP2 MLOAD SWAP2 MSTORE DUP1 SLOAD PUSH1 0x1 PUSH1 0x1 PUSH1 0xA0 SHL SUB NOT DUP2 AND SWAP1 SWAP2 SSTORE PUSH1 0x0 SWAP1 PUSH1 0x1 PUSH1 0x1 PUSH1 0xA0 SHL SUB AND PUSH32 0x8BE0079C531659141344CD1FD0A4F28419497F9722A3DAAFE3B4186F6B6457E0 DUP3 DUP1 LOG3 DUP1 RETURN JUMPDEST POP CALLVALUE PUSH2 0x260 JUMPI PUSH1 0x3 NOT PUSH1 0x20 CALLDATASIZE DUP3 ADD SLT PUSH2 0x53F JUMPI PUSH1 0x1 PUSH1 0x1 PUSH1 0x40 SHL SUB PUSH1 0x4 CALLDATALOAD GT PUSH2 0x53F JUMPI PUSH1 0xE0 SWAP1 PUSH1 0x4 CALLDATALOAD CALLDATASIZE SUB ADD SLT PUSH2 0x260 JUMPI PUSH2 0x22A2 PUSH2 0x4B60 JUMP JUMPDEST PUSH2 0x22B6 PUSH1 0x84 PUSH1 0x4 CALLDATALOAD ADD PUSH1 0x4 CALLDATALOAD PUSH1 0x4 ADD PUSH2 0x46DC JUMP JUMPDEST SWAP1 POP ISZERO PUSH2 0x2569 JUMPI PUSH1 0x32 PUSH2 0x22D3 PUSH1 0x84 PUSH1 0x4 CALLDATALOAD ADD PUSH1 0x4 CALLDATALOAD PUSH1 0x4 ADD PUSH2 0x46DC JUMP JUMPDEST SWAP1 POP GT PUSH2 0x2532 JUMPI PUSH2 0x22EE PUSH1 0x84 PUSH1 0x4 CALLDATALOAD ADD PUSH1 0x4 CALLDATALOAD PUSH1 0x4 ADD PUSH2 0x46DC JUMP JUMPDEST SWAP1 POP PUSH2 0x22F9 DUP2 PUSH2 0x4711 JUMP JUMPDEST SWAP1 PUSH2 0x2307 PUSH1 0x40 MLOAD SWAP3 DUP4 PUSH2 0x4226 JUMP JUMPDEST DUP1 DUP3 MSTORE PUSH2 0x2316 PUSH1 0x1F NOT SWAP2 PUSH2 0x4711 JUMP JUMPDEST ADD CALLDATASIZE PUSH1 0x20 DUP4 ADD CALLDATACOPY DUP2 JUMPDEST PUSH2 0x2333 PUSH1 0x84 PUSH1 0x4 CALLDATALOAD ADD PUSH1 0x4 CALLDATALOAD PUSH1 0x4 ADD PUSH2 0x46DC JUMP JUMPDEST SWAP1 POP DUP2 LT ISZERO PUSH2 0x24A9 JUMPI PUSH2 0x234A PUSH1 0x64 PUSH1 0x4 CALLDATALOAD ADD PUSH2 0x4728 JUMP JUMPDEST SWAP1 PUSH2 0x235F PUSH1 0x84 PUSH1 0x4 CALLDATALOAD ADD PUSH1 0x4 CALLDATALOAD PUSH1 0x4 ADD PUSH2 0x46DC JUMP JUMPDEST DUP3 SWAP4 SWAP2 SWAP4 LT ISZERO PUSH2 0x2495 JUMPI PUSH1 0x3 PUSH1 0xA4 PUSH1 0x4 CALLDATALOAD ADD CALLDATALOAD LT ISZERO PUSH2 0x86C JUMPI PUSH1 0x40 MLOAD SWAP3 DUP4 PUSH1 0x20 DUP2 ADD LT PUSH1 0x1 PUSH1 0x1 PUSH1 0x40 SHL SUB PUSH1 0x20 DUP7 ADD GT OR PUSH2 0xA5E JUMPI PUSH1 0x20 SWAP2 DUP3 DUP6 ADD PUSH1 0x40 MSTORE DUP7 DUP6 MSTORE PUSH2 0x242A PUSH1 0x40 MLOAD SWAP6 DUP7 SWAP4 DUP5 SWAP4 PUSH4 0x4654E65D PUSH1 0xE1 SHL DUP6 MSTORE PUSH1 0x4 CALLDATALOAD PUSH1 0x4 ADD CALLDATALOAD PUSH1 0x4 DUP7 ADD MSTORE PUSH1 0x24 PUSH1 0x4 CALLDATALOAD ADD CALLDATALOAD PUSH1 0x24 DUP7 ADD MSTORE PUSH1 0x44 PUSH1 0x4 CALLDATALOAD ADD CALLDATALOAD PUSH1 0x44 DUP7 ADD MSTORE PUSH1 0x1 DUP1 PUSH1 0xA0 SHL SUB AND PUSH1 0x64 DUP6 ADD MSTORE DUP7 PUSH1 0x5 SHL ADD CALLDATALOAD PUSH1 0x84 DUP5 ADD MSTORE PUSH2 0x2404 PUSH1 0xA4 DUP5 ADD PUSH1 0xA4 PUSH1 0x4 CALLDATALOAD ADD CALLDATALOAD PUSH2 0x429F JUMP JUMPDEST PUSH1 0xC4 PUSH1 0x4 CALLDATALOAD ADD CALLDATALOAD PUSH1 0xC4 DUP5 ADD MSTORE DUP9 PUSH1 0xE4 DUP5 ADD MSTORE PUSH2 0x120 PUSH2 0x104 DUP5 ADD MSTORE PUSH2 0x124 DUP4 ADD SWAP1 PUSH2 0x4262 JUMP JUMPDEST SUB DUP2 DUP8 ADDRESS GAS CALL DUP1 ISZERO PUSH2 0x248A JUMPI DUP5 SWAP1 PUSH2 0x2452 JUMPI JUMPDEST PUSH1 0x1 SWAP3 POP PUSH2 0x244B DUP3 DUP6 PUSH2 0x473C JUMP JUMPDEST MSTORE ADD PUSH2 0x231F JUMP JUMPDEST POP PUSH1 0x20 DUP3 RETURNDATASIZE PUSH1 0x20 GT PUSH2 0x2482 JUMPI JUMPDEST DUP2 PUSH2 0x246C PUSH1 0x20 SWAP4 DUP4 PUSH2 0x4226 JUMP JUMPDEST DUP2 ADD SUB SLT PUSH2 0x247D JUMPI PUSH1 0x1 SWAP2 MLOAD PUSH2 0x243D JUMP JUMPDEST PUSH1 0x0 DUP1 REVERT JUMPDEST RETURNDATASIZE SWAP2 POP PUSH2 0x245F JUMP JUMPDEST PUSH1 0x40 MLOAD RETURNDATASIZE DUP7 DUP3 RETURNDATACOPY RETURNDATASIZE SWAP1 REVERT JUMPDEST PUSH4 0x4E487B71 PUSH1 0xE0 SHL DUP6 MSTORE PUSH1 0x32 PUSH1 0x4 MSTORE PUSH1 0x24 DUP6 REVERT JUMPDEST POP PUSH1 0x3 PUSH1 0xA4 PUSH1 0x4 CALLDATALOAD ADD CALLDATALOAD LT ISZERO PUSH2 0x53F JUMPI PUSH2 0x525 SWAP1 PUSH1 0x40 MLOAD PUSH1 0x40 DUP2 MSTORE PUSH32 0xA6C16B80E996DF657323141EAC9568A3D32A4652B0A15C2C1FE68613C17B5553 PUSH2 0x24F2 PUSH1 0x40 DUP4 ADD DUP5 PUSH2 0x418C JUMP JUMPDEST SWAP2 PUSH2 0x2506 PUSH1 0x20 DUP3 ADD PUSH1 0xA4 PUSH1 0x4 CALLDATALOAD ADD CALLDATALOAD PUSH2 0x429F JUMP JUMPDEST DUP1 CALLER SWAP4 SUB SWAP1 LOG2 PUSH1 0x1 PUSH1 0x0 DUP1 MLOAD PUSH1 0x20 PUSH2 0x5061 DUP4 CODECOPY DUP2 MLOAD SWAP2 MSTORE SSTORE PUSH1 0x40 MLOAD SWAP2 DUP3 SWAP2 PUSH1 0x20 DUP4 MSTORE PUSH1 0x20 DUP4 ADD SWAP1 PUSH2 0x418C JUMP JUMPDEST PUSH1 0x40 MLOAD PUSH3 0x461BCD PUSH1 0xE5 SHL DUP2 MSTORE PUSH1 0x20 PUSH1 0x4 DUP3 ADD MSTORE PUSH1 0xF PUSH1 0x24 DUP3 ADD MSTORE PUSH15 0x546F6F206D616E7920746F6B656E73 PUSH1 0x88 SHL PUSH1 0x44 DUP3 ADD MSTORE PUSH1 0x64 SWAP1 REVERT JUMPDEST PUSH1 0x40 MLOAD PUSH3 0x461BCD PUSH1 0xE5 SHL DUP2 MSTORE PUSH1 0x20 PUSH1 0x4 DUP3 ADD MSTORE PUSH1 0x12 PUSH1 0x24 DUP3 ADD MSTORE PUSH18 0x139BC81D1BDAD95B9CC81C1C9BDD9A591959 PUSH1 0x72 SHL PUSH1 0x44 DUP3 ADD MSTORE PUSH1 0x64 SWAP1 REVERT JUMPDEST POP CALLVALUE PUSH2 0x260 JUMPI DUP1 PUSH1 0x3 NOT CALLDATASIZE ADD SLT PUSH2 0x260 JUMPI PUSH32 0xF0C57E16840DF040F15088DC2F81FE391C3923BEC73E23A9662EFC9C229C6A00 DUP1 SLOAD PUSH1 0xFF DUP2 PUSH1 0x40 SHR AND DUP1 ISZERO PUSH2 0x2629 JUMPI JUMPDEST PUSH2 0x2010 JUMPI PUSH1 0x2 SWAP1 PUSH9 0xFFFFFFFFFFFFFFFFFF NOT AND OR SWAP1 SSTORE PUSH32 0xC7F505B2F371AE2175EE4913F4499E1F2633A7B5936321EED1CDAEB6115181D2 PUSH1 0x20 PUSH1 0x40 MLOAD PUSH1 0x2 DUP2 MSTORE LOG1 DUP1 RETURN JUMPDEST POP PUSH1 0x2 PUSH1 0x1 PUSH1 0x1 PUSH1 0x40 SHL SUB DUP3 AND LT ISZERO PUSH2 0x25E5 JUMP JUMPDEST POP CALLVALUE PUSH2 0x260 JUMPI PUSH1 0x20 CALLDATASIZE PUSH1 0x3 NOT ADD SLT PUSH2 0x260 JUMPI PUSH1 0x40 PUSH2 0x180 SWAP2 PUSH1 0x4 CALLDATALOAD DUP2 MSTORE PUSH1 0x2 PUSH1 0x20 MSTORE KECCAK256 PUSH1 0x1 DUP1 PUSH1 0xA0 SHL SUB DUP1 DUP3 SLOAD AND SWAP2 PUSH1 0x1 DUP2 ADD SLOAD SWAP2 PUSH1 0x2 DUP3 ADD SLOAD SWAP1 PUSH1 0x3 DUP4 ADD SLOAD SWAP1 PUSH1 0x4 DUP5 ADD SLOAD SWAP1 PUSH1 0x5 DUP6 ADD SLOAD SWAP1 DUP1 PUSH1 0x6 DUP8 ADD SLOAD AND SWAP3 PUSH1 0x7 DUP8 ADD SLOAD SWAP5 DUP3 PUSH1 0x8 DUP10 ADD SLOAD AND SWAP7 PUSH1 0xA PUSH1 0x9 DUP11 ADD SLOAD SWAP10 ADD SLOAD SWAP10 PUSH1 0x40 MLOAD SWAP12 DUP13 MSTORE PUSH1 0x20 DUP13 ADD MSTORE PUSH1 0x40 DUP12 ADD MSTORE PUSH1 0x60 DUP11 ADD MSTORE PUSH1 0xFF DUP2 AND ISZERO ISZERO PUSH1 0x80 DUP11 ADD MSTORE PUSH1 0x8 SHR AND PUSH1 0xA0 DUP9 ADD MSTORE PUSH1 0xC0 DUP8 ADD MSTORE PUSH1 0xE0 DUP7 ADD MSTORE PUSH2 0x100 DUP6 ADD MSTORE PUSH2 0x120 DUP5 ADD MSTORE PUSH2 0x140 DUP4 ADD MSTORE PUSH2 0x160 DUP3 ADD MSTORE RETURN JUMPDEST POP CALLVALUE PUSH2 0x260 JUMPI DUP1 PUSH1 0x3 NOT CALLDATASIZE ADD SLT PUSH2 0x260 JUMPI PUSH32 0x0 PUSH1 0x1 PUSH1 0x1 PUSH1 0xA0 SHL SUB AND ADDRESS SUB PUSH2 0x2763 JUMPI PUSH1 0x20 PUSH1 0x40 MLOAD PUSH32 0x360894A13BA1A3210667C828492DB98DCA3E2076CC3735A920A3CA505D382BBC DUP2 MSTORE RETURN JUMPDEST PUSH1 0x40 MLOAD PUSH4 0x703E46DD PUSH1 0xE1 SHL DUP2 MSTORE PUSH1 0x4 SWAP1 REVERT JUMPDEST POP PUSH1 0x40 CALLDATASIZE PUSH1 0x3 NOT ADD SLT PUSH2 0x260 JUMPI PUSH2 0x278A PUSH2 0x4132 JUMP JUMPDEST PUSH1 0x24 SWAP2 DUP3 CALLDATALOAD PUSH1 0x1 PUSH1 0x1 PUSH1 0x40 SHL SUB DUP2 GT PUSH2 0x53F JUMPI CALLDATASIZE PUSH1 0x23 DUP3 ADD SLT ISZERO PUSH2 0x53F JUMPI DUP1 PUSH1 0x4 ADD CALLDATALOAD SWAP3 PUSH2 0x27B7 DUP5 PUSH2 0x4247 JUMP JUMPDEST PUSH2 0x27C4 PUSH1 0x40 MLOAD SWAP2 DUP3 PUSH2 0x4226 JUMP JUMPDEST DUP5 DUP2 MSTORE PUSH1 0x20 SWAP5 DUP6 DUP3 ADD SWAP4 CALLDATASIZE DUP9 DUP4 DUP4 ADD ADD GT PUSH2 0x938 JUMPI DUP2 DUP7 SWAP3 DUP10 DUP10 SWAP4 ADD DUP8 CALLDATACOPY DUP4 ADD ADD MSTORE PUSH1 0x1 PUSH1 0x1 PUSH1 0xA0 SHL SUB PUSH32 0x0 DUP2 AND ADDRESS DUP2 EQ SWAP1 DUP2 ISZERO PUSH2 0x2976 JUMPI JUMPDEST POP PUSH2 0x2763 JUMPI PUSH2 0x2829 PUSH2 0x4B90 JUMP JUMPDEST PUSH1 0x40 MLOAD PUSH4 0x52D1902D PUSH1 0xE0 SHL DUP2 MSTORE SWAP1 DUP4 AND SWAP6 DUP1 DUP3 PUSH1 0x4 DUP2 DUP11 GAS STATICCALL SWAP2 DUP3 SWAP2 DUP8 SWAP4 PUSH2 0x2946 JUMPI JUMPDEST POP POP PUSH2 0x286A JUMPI PUSH1 0x40 MLOAD PUSH4 0x4C9C8CE3 PUSH1 0xE0 SHL DUP2 MSTORE PUSH1 0x4 DUP2 ADD DUP8 SWAP1 MSTORE DUP8 SWAP1 REVERT JUMPDEST DUP6 SWAP1 DUP8 PUSH32 0x360894A13BA1A3210667C828492DB98DCA3E2076CC3735A920A3CA505D382BBC SWAP2 DUP3 DUP2 SUB PUSH2 0x2931 JUMPI POP DUP5 EXTCODESIZE ISZERO PUSH2 0x291B JUMPI POP DUP1 SLOAD PUSH1 0x1 PUSH1 0x1 PUSH1 0xA0 SHL SUB NOT AND DUP3 OR SWAP1 SSTORE PUSH1 0x40 MLOAD DUP6 SWAP3 SWAP2 PUSH32 0xBC7CD75A20EE27FD9ADEBAB32041F755214DBC6BFFA90CC0225B39DA2E5C2D3B DUP5 DUP1 LOG2 DUP2 MLOAD ISZERO PUSH2 0x28FE JUMPI POP PUSH2 0x28FA SWAP4 DUP3 SWAP2 MLOAD SWAP1 DUP5 GAS DELEGATECALL PUSH2 0x28F4 PUSH2 0x4BC9 JUMP JUMPDEST SWAP2 PUSH2 0x4FBD JUMP JUMPDEST POP DUP1 RETURN JUMPDEST SWAP4 POP POP POP POP CALLVALUE PUSH2 0x290C JUMPI POP DUP1 RETURN JUMPDEST PUSH4 0xB398979F PUSH1 0xE0 SHL DUP2 MSTORE PUSH1 0x4 SWAP1 REVERT JUMPDEST PUSH1 0x40 MLOAD PUSH4 0x4C9C8CE3 PUSH1 0xE0 SHL DUP2 MSTORE PUSH1 0x4 DUP2 ADD DUP5 SWAP1 MSTORE REVERT JUMPDEST PUSH1 0x40 MLOAD SWAP1 PUSH4 0x2A875269 PUSH1 0xE2 SHL DUP3 MSTORE PUSH1 0x4 DUP3 ADD MSTORE REVERT JUMPDEST SWAP1 DUP1 SWAP3 SWAP4 POP DUP2 RETURNDATASIZE DUP4 GT PUSH2 0x296F JUMPI JUMPDEST PUSH2 0x295E DUP2 DUP4 PUSH2 0x4226 JUMP JUMPDEST DUP2 ADD SUB SLT PUSH2 0x938 JUMPI MLOAD SWAP1 CODESIZE DUP1 PUSH2 0x284C JUMP JUMPDEST POP RETURNDATASIZE PUSH2 0x2954 JUMP JUMPDEST SWAP1 POP DUP2 PUSH32 0x360894A13BA1A3210667C828492DB98DCA3E2076CC3735A920A3CA505D382BBC SLOAD AND EQ ISZERO CODESIZE PUSH2 0x281C JUMP JUMPDEST POP CALLVALUE PUSH2 0x260 JUMPI PUSH1 0x80 CALLDATASIZE PUSH1 0x3 NOT ADD SLT PUSH2 0x260 JUMPI PUSH1 0x24 DUP1 CALLDATALOAD SWAP1 PUSH1 0x4 CALLDATALOAD SWAP1 PUSH1 0x44 CALLDATALOAD PUSH1 0x1 PUSH1 0x1 PUSH1 0xA0 SHL SUB DUP2 AND SWAP2 SWAP1 DUP3 DUP2 SUB PUSH2 0x247D JUMPI PUSH1 0x64 SWAP1 PUSH2 0x29E0 PUSH2 0x4B60 JUMP JUMPDEST DUP5 DUP8 MSTORE PUSH1 0x20 SWAP4 PUSH1 0x2 DUP6 MSTORE PUSH1 0x40 DUP9 KECCAK256 SWAP3 PUSH1 0x7 DUP7 MSTORE PUSH1 0x40 DUP10 KECCAK256 SWAP5 PUSH1 0x40 MLOAD SWAP6 PUSH2 0x2A05 DUP8 PUSH2 0x41C0 JUMP JUMPDEST PUSH1 0xFF DUP2 SLOAD AND PUSH1 0x3 DUP2 LT ISZERO PUSH2 0x2CD0 JUMPI DUP8 MSTORE PUSH1 0x1 DUP2 ADD SLOAD DUP9 DUP9 ADD MSTORE PUSH1 0xFF PUSH1 0x7 PUSH1 0x2 DUP4 ADD SLOAD SWAP3 PUSH1 0x40 DUP11 ADD SWAP4 DUP5 MSTORE PUSH1 0x3 DUP2 ADD SLOAD PUSH1 0x60 DUP12 ADD MSTORE DUP3 PUSH1 0x4 DUP3 ADD SLOAD AND ISZERO ISZERO PUSH1 0x80 DUP12 ADD MSTORE PUSH1 0x5 DUP2 ADD SLOAD PUSH1 0xA0 DUP12 ADD MSTORE PUSH2 0x2A5D PUSH1 0x6 DUP3 ADD PUSH2 0x4346 JUMP JUMPDEST PUSH1 0xC0 DUP12 ADD MSTORE ADD SLOAD AND ISZERO ISZERO PUSH1 0xE0 DUP9 ADD MSTORE PUSH1 0x4 DUP7 ADD SWAP7 PUSH1 0xFF DUP9 SLOAD AND ISZERO PUSH2 0x2CE3 JUMPI MLOAD PUSH1 0x3 DUP2 LT ISZERO PUSH2 0x2CD0 JUMPI PUSH1 0x2 PUSH2 0x2A91 SWAP2 EQ PUSH2 0x45CF JUMP JUMPDEST MLOAD TIMESTAMP GT PUSH2 0x2C99 JUMPI DUP8 DUP11 MSTORE PUSH1 0x8 DUP8 MSTORE PUSH1 0x40 DUP11 KECCAK256 CALLER PUSH1 0x0 MSTORE DUP8 MSTORE PUSH1 0x40 PUSH1 0x0 KECCAK256 SWAP2 DUP3 SLOAD SWAP1 DUP2 ISZERO PUSH2 0x2C62 JUMPI PUSH1 0x2 DUP5 ADD SWAP3 DUP4 SLOAD SWAP3 PUSH1 0xFF DUP5 AND PUSH2 0x2C2D JUMPI PUSH1 0x40 MLOAD SWAP1 DUP14 DUP13 DUP4 ADD SWAP1 DUP2 MSTORE PUSH1 0x1 PUSH1 0x1 PUSH1 0x60 SHL SUB NOT DUP11 PUSH1 0x60 SHL AND PUSH1 0x40 DUP5 ADD MSTORE DUP5 CALLDATALOAD PUSH1 0x54 DUP5 ADD MSTORE CALLER PUSH1 0x60 SHL PUSH1 0x74 DUP5 ADD MSTORE PUSH1 0x68 DUP4 MSTORE PUSH1 0xA0 DUP4 ADD SWAP4 DUP4 DUP6 LT PUSH1 0x1 PUSH1 0x1 PUSH1 0x40 SHL SUB DUP7 GT OR PUSH2 0x2C19 JUMPI POP DUP4 PUSH1 0x40 MSTORE DUP3 MLOAD SWAP1 KECCAK256 SUB PUSH2 0x2BEA JUMPI POP POP POP DUP10 PUSH1 0x4 PUSH32 0xE114EA9E9A27652A7D68437B8464A4C003A7697F8123821F48A4B83718C05BC6 SWAP10 SWAP9 SWAP7 SWAP5 DUP3 SWAP9 SWAP7 SWAP5 PUSH1 0x1 PUSH2 0x2B7C SWAP6 PUSH1 0xFF NOT AND OR SWAP1 SSTORE DUP3 PUSH1 0x3 DUP3 ADD SSTORE ADD SWAP4 PUSH1 0x1 PUSH1 0x1 PUSH1 0x60 SHL SUB PUSH1 0xA0 SHL SWAP5 DUP5 DUP7 DUP3 SLOAD AND OR SWAP1 SSTORE PUSH2 0x4B3C JUMP JUMPDEST PUSH1 0x5 DUP5 ADD DUP1 SLOAD DUP3 GT PUSH2 0x2BAE JUMPI JUMPDEST POP POP POP POP POP POP POP PUSH1 0x40 MLOAD SWAP4 DUP5 MSTORE CALLER SWAP4 LOG3 PUSH1 0x1 PUSH1 0x0 DUP1 MLOAD PUSH1 0x20 PUSH2 0x5061 DUP4 CODECOPY DUP2 MLOAD SWAP2 MSTORE SSTORE DUP1 RETURN JUMPDEST DUP6 SLOAD PUSH2 0x100 PUSH1 0x1 PUSH1 0xA8 SHL SUB NOT AND CALLER PUSH1 0x8 SHL PUSH2 0x100 PUSH1 0x1 PUSH1 0xA8 SHL SUB AND OR SWAP1 SWAP6 SSTORE PUSH1 0x9 SWAP5 SSTORE PUSH1 0x8 DUP4 ADD SWAP2 DUP3 SLOAD AND OR SWAP1 SSTORE ADD SSTORE DUP4 CODESIZE DUP1 DUP1 DUP1 DUP1 DUP1 PUSH2 0x2B89 JUMP JUMPDEST PUSH1 0xE4 PUSH14 0x125B9D985B1A59081C995D99585B PUSH1 0x92 SHL SWAP2 DUP13 PUSH3 0x461BCD PUSH1 0xE5 SHL DUP6 MSTORE PUSH1 0xA4 DUP3 ADD MSTORE PUSH1 0xE PUSH1 0xC4 DUP3 ADD MSTORE ADD MSTORE REVERT JUMPDEST PUSH4 0x4E487B71 PUSH1 0xE0 SHL PUSH1 0x0 SWAP1 DUP2 MSTORE PUSH1 0x41 PUSH1 0x4 MSTORE REVERT JUMPDEST POP PUSH1 0x10 DUP11 SWAP2 PUSH1 0x40 MLOAD SWAP3 PUSH3 0x461BCD PUSH1 0xE5 SHL DUP5 MSTORE PUSH1 0x4 DUP5 ADD MSTORE DUP3 ADD MSTORE PUSH16 0x105B1C9958591E481C995D99585B1959 PUSH1 0x82 SHL PUSH1 0x44 DUP3 ADD MSTORE REVERT JUMPDEST PUSH1 0x40 MLOAD PUSH3 0x461BCD PUSH1 0xE5 SHL DUP2 MSTORE PUSH1 0x4 DUP2 ADD DUP11 SWAP1 MSTORE PUSH1 0x13 DUP2 DUP6 ADD MSTORE PUSH19 0x139BC818DBDB5B5A5D1B595B9D08199BDD5B99 PUSH1 0x6A SHL PUSH1 0x44 DUP3 ADD MSTORE REVERT JUMPDEST PUSH1 0x13 DUP8 SWAP2 PUSH1 0x40 MLOAD SWAP3 PUSH3 0x461BCD PUSH1 0xE5 SHL DUP5 MSTORE PUSH1 0x4 DUP5 ADD MSTORE DUP3 ADD MSTORE PUSH19 0x14995D99585B081C195C9A5BD908195B991959 PUSH1 0x6A SHL PUSH1 0x44 DUP3 ADD MSTORE REVERT JUMPDEST PUSH4 0x4E487B71 PUSH1 0xE0 SHL DUP13 MSTORE PUSH1 0x21 PUSH1 0x4 MSTORE DUP3 DUP13 REVERT JUMPDEST PUSH1 0x40 MLOAD PUSH3 0x461BCD PUSH1 0xE5 SHL DUP2 MSTORE PUSH1 0x4 DUP2 ADD DUP11 SWAP1 MSTORE PUSH1 0x11 DUP2 DUP6 ADD MSTORE PUSH17 0x105D58DD1A5BDB881B9BDD08195B991959 PUSH1 0x7A SHL PUSH1 0x44 DUP3 ADD MSTORE DUP5 SWAP1 REVERT JUMPDEST POP PUSH1 0x20 DUP1 PUSH1 0x3 NOT CALLDATASIZE ADD SLT PUSH2 0x53F JUMPI PUSH1 0x4 CALLDATALOAD SWAP1 PUSH2 0x2D34 PUSH2 0x4B60 JUMP JUMPDEST CALLVALUE ISZERO PUSH2 0x32C5 JUMPI PUSH2 0x2D43 CALLVALUE PUSH2 0x4A0B JUMP JUMPDEST DUP3 PUSH1 0x0 MSTORE PUSH1 0x7 DUP3 MSTORE PUSH1 0x40 PUSH1 0x0 KECCAK256 SWAP1 PUSH1 0x40 MLOAD SWAP1 PUSH2 0x2D5E DUP3 PUSH2 0x41C0 JUMP JUMPDEST PUSH1 0xFF DUP4 SLOAD AND SWAP3 PUSH1 0x3 SWAP4 DUP5 DUP2 LT ISZERO PUSH2 0x307A JUMPI DUP4 MSTORE PUSH1 0x1 DUP2 ADD SLOAD DUP6 DUP5 ADD MSTORE PUSH1 0x2 SWAP1 DUP2 DUP2 ADD SLOAD PUSH1 0x40 DUP6 ADD MSTORE DUP5 DUP2 ADD SLOAD PUSH1 0x60 DUP6 ADD MSTORE PUSH1 0xFF PUSH1 0x4 DUP3 ADD SLOAD AND ISZERO ISZERO PUSH1 0x80 DUP6 ADD MSTORE PUSH1 0xFF PUSH1 0x7 PUSH1 0x5 DUP4 ADD SLOAD SWAP3 PUSH1 0xA0 DUP8 ADD SWAP4 DUP5 MSTORE PUSH2 0x2DBB PUSH1 0x6 DUP3 ADD PUSH2 0x4346 JUMP JUMPDEST PUSH1 0xC0 DUP9 ADD MSTORE ADD SLOAD AND ISZERO ISZERO PUSH1 0xE0 DUP6 ADD MSTORE PUSH2 0x2DD6 PUSH2 0x14EF DUP9 PUSH2 0x4D06 JUMP JUMPDEST DUP1 MLOAD PUSH2 0x3256 JUMPI JUMPDEST POP DUP3 MLOAD DUP5 DUP2 LT ISZERO PUSH2 0x307A JUMPI DUP2 EQ PUSH2 0x31FD JUMPI PUSH1 0x0 DUP7 DUP2 MSTORE DUP2 DUP7 MSTORE PUSH1 0x40 SWAP1 KECCAK256 DUP1 SLOAD PUSH1 0x1 PUSH1 0x1 PUSH1 0xA0 SHL SUB SWAP1 DUP2 AND SWAP2 PUSH2 0x2E13 DUP4 ISZERO ISZERO PUSH2 0x458A JUMP JUMPDEST PUSH1 0x4 DUP2 ADD DUP1 SLOAD SWAP1 PUSH2 0x2E27 PUSH1 0xFF DUP4 AND ISZERO PUSH2 0x43A2 JUMP JUMPDEST DUP9 DUP4 ADD SWAP4 DUP5 SLOAD SWAP6 PUSH2 0x2E3E PUSH1 0x1 DUP7 ADD SWAP8 DUP9 SLOAD SWAP1 PUSH2 0x461B JUMP JUMPDEST TIMESTAMP LT ISZERO PUSH2 0x31C6 JUMPI CALLER EQ PUSH2 0x318D JUMPI DUP7 DUP5 ADD SLOAD DUP9 LT PUSH2 0x3150 JUMPI PUSH1 0x5 DUP5 ADD SWAP3 DUP4 SLOAD DUP10 GT ISZERO PUSH2 0x3115 JUMPI SWAP2 DUP2 PUSH2 0x2E98 SWAP3 DUP11 SWAP6 SWAP5 PUSH1 0x8 SHR AND DUP1 PUSH2 0x30F9 JUMPI JUMPDEST POP POP DUP1 SLOAD PUSH2 0x100 PUSH1 0x1 PUSH1 0xA8 SHL SUB NOT AND CALLER PUSH1 0x8 SHL PUSH2 0x100 PUSH1 0x1 PUSH1 0xA8 SHL SUB AND OR SWAP1 SSTORE JUMP JUMPDEST SSTORE PUSH1 0x8 DUP2 ADD PUSH1 0x1 PUSH1 0x1 PUSH1 0x60 SHL SUB PUSH1 0xA0 SHL DUP2 SLOAD AND SWAP1 SSTORE PUSH1 0x9 CALLVALUE SWAP2 ADD SSTORE DUP8 PUSH1 0x0 MSTORE PUSH1 0x4 DUP8 MSTORE PUSH1 0x40 PUSH1 0x0 KECCAK256 CALLER PUSH1 0x0 MSTORE DUP8 MSTORE DUP4 PUSH1 0x40 PUSH1 0x0 KECCAK256 SSTORE SLOAD SWAP1 PUSH2 0x2EEB DUP2 SLOAD SWAP3 PUSH2 0x384 SWAP2 DUP3 SWAP2 PUSH2 0x2EE6 DUP7 TIMESTAMP SWAP3 PUSH2 0x461B JUMP JUMPDEST PUSH2 0x43DE JUMP JUMPDEST LT PUSH2 0x30E7 JUMPI JUMPDEST POP POP POP PUSH1 0x0 PUSH1 0x40 MLOAD CALLVALUE DUP2 MSTORE DUP4 DUP8 DUP3 ADD MSTORE DUP8 PUSH32 0x2808DECB743A25D04EFE1BD3DC192ACDE3BE644E2F6AD1DCE5D3C46643E1C602 PUSH1 0x40 CALLER SWAP4 LOG4 DUP6 PUSH1 0x0 MSTORE PUSH1 0xA DUP6 MSTORE PUSH1 0x40 PUSH1 0x0 KECCAK256 SWAP1 PUSH2 0x2F40 DUP3 SLOAD PUSH2 0x4750 JUMP JUMPDEST DUP3 SSTORE TIMESTAMP DUP6 DUP4 ADD SSTORE DUP7 PUSH1 0x0 MSTORE PUSH1 0x4 DUP7 MSTORE PUSH1 0x40 PUSH1 0x0 KECCAK256 CALLER PUSH1 0x0 MSTORE DUP7 MSTORE PUSH1 0x40 PUSH1 0x0 KECCAK256 SLOAD ISZERO PUSH2 0x30A6 JUMPI JUMPDEST DUP2 ADD DUP1 SLOAD SWAP2 SLOAD SWAP1 SWAP3 PUSH1 0x0 NOT DUP3 ADD SWAP1 DUP3 DUP3 GT PUSH2 0x3090 JUMPI PUSH2 0x2F8B PUSH2 0x2F90 SWAP3 PUSH2 0x2F95 SWAP6 PUSH2 0x440B JUMP JUMPDEST PUSH2 0x461B JUMP JUMPDEST PUSH2 0x43EB JUMP JUMPDEST SWAP1 SSTORE MLOAD SWAP1 DUP2 LT ISZERO PUSH2 0x307A JUMPI PUSH1 0x1 EQ PUSH2 0x2FBE JUMPI JUMPDEST DUP3 PUSH1 0x1 PUSH1 0x0 DUP1 MLOAD PUSH1 0x20 PUSH2 0x5061 DUP4 CODECOPY DUP2 MLOAD SWAP2 MSTORE SSTORE DUP1 RETURN JUMPDEST PUSH1 0x40 MLOAD PUSH4 0x6F998A1 PUSH1 0xE2 SHL DUP2 MSTORE PUSH1 0x4 DUP2 ADD DUP4 SWAP1 MSTORE DUP2 DUP2 PUSH1 0x24 DUP2 ADDRESS GAS STATICCALL SWAP1 DUP2 ISZERO PUSH2 0x306E JUMPI PUSH1 0x0 SWAP2 PUSH2 0x3021 JUMPI JUMPDEST POP PUSH1 0x40 SWAP1 PUSH32 0x3E4D8ED649DD2450D7270FF39DE8BE25AA60CE073687CFBCF658A1BBD02E56F4 SWAP3 DUP3 MLOAD SWAP2 DUP3 MSTORE TIMESTAMP SWAP1 DUP3 ADD MSTORE LOG2 CODESIZE DUP1 PUSH2 0x2FA8 JUMP JUMPDEST SWAP1 POP DUP2 DUP2 DUP2 RETURNDATASIZE DUP4 GT PUSH2 0x3067 JUMPI JUMPDEST PUSH2 0x3038 DUP2 DUP4 PUSH2 0x4226 JUMP JUMPDEST DUP2 ADD SUB SLT PUSH2 0x247D JUMPI MLOAD PUSH32 0x3E4D8ED649DD2450D7270FF39DE8BE25AA60CE073687CFBCF658A1BBD02E56F4 PUSH2 0x2FE9 JUMP JUMPDEST POP RETURNDATASIZE PUSH2 0x302E JUMP JUMPDEST PUSH1 0x40 MLOAD RETURNDATASIZE PUSH1 0x0 DUP3 RETURNDATACOPY RETURNDATASIZE SWAP1 REVERT JUMPDEST PUSH4 0x4E487B71 PUSH1 0xE0 SHL PUSH1 0x0 MSTORE PUSH1 0x21 PUSH1 0x4 MSTORE PUSH1 0x24 PUSH1 0x0 REVERT JUMPDEST PUSH4 0x4E487B71 PUSH1 0xE0 SHL PUSH1 0x0 MSTORE PUSH1 0x11 PUSH1 0x4 MSTORE PUSH1 0x24 PUSH1 0x0 REVERT JUMPDEST PUSH1 0x1 DUP3 ADD PUSH2 0x30B4 DUP2 SLOAD PUSH2 0x4750 JUMP JUMPDEST SWAP1 SSTORE DUP7 PUSH1 0x0 MSTORE PUSH1 0x9 DUP7 MSTORE PUSH2 0x30CC CALLER PUSH1 0x40 PUSH1 0x0 KECCAK256 PUSH2 0x4628 JUMP JUMPDEST CALLER PUSH1 0x0 MSTORE PUSH1 0xB DUP7 MSTORE PUSH2 0x30E2 DUP8 PUSH1 0x40 PUSH1 0x0 KECCAK256 PUSH2 0x4663 JUMP JUMPDEST PUSH2 0x2F66 JUMP JUMPDEST DUP3 ADD DUP1 SWAP3 GT PUSH2 0x3090 JUMPI SSTORE CODESIZE DUP1 DUP1 PUSH2 0x2EF1 JUMP JUMPDEST PUSH2 0x310E SWAP2 PUSH1 0x8 DUP9 ADD SLOAD AND PUSH1 0x9 DUP9 ADD SLOAD SWAP2 PUSH2 0x4BF9 JUMP JUMPDEST CODESIZE DUP1 PUSH2 0x2E76 JUMP JUMPDEST PUSH1 0x40 MLOAD PUSH3 0x461BCD PUSH1 0xE5 SHL DUP2 MSTORE PUSH1 0x4 DUP2 ADD DUP14 SWAP1 MSTORE PUSH1 0x13 PUSH1 0x24 DUP3 ADD MSTORE PUSH19 0x84D2C840DCDEE840D0D2CED040CADCDEEACED PUSH1 0x6B SHL PUSH1 0x44 DUP3 ADD MSTORE PUSH1 0x64 SWAP1 REVERT JUMPDEST PUSH1 0x40 MLOAD PUSH3 0x461BCD PUSH1 0xE5 SHL DUP2 MSTORE PUSH1 0x4 DUP2 ADD DUP13 SWAP1 MSTORE PUSH1 0x15 PUSH1 0x24 DUP3 ADD MSTORE PUSH21 0x4269642062656C6F77207374617274207072696365 PUSH1 0x58 SHL PUSH1 0x44 DUP3 ADD MSTORE PUSH1 0x64 SWAP1 REVERT JUMPDEST PUSH1 0x40 MLOAD PUSH3 0x461BCD PUSH1 0xE5 SHL DUP2 MSTORE PUSH1 0x4 DUP2 ADD DUP13 SWAP1 MSTORE PUSH1 0x11 PUSH1 0x24 DUP3 ADD MSTORE PUSH17 0x14D95B1B195C8818D85B9B9BDD08189A59 PUSH1 0x7A SHL PUSH1 0x44 DUP3 ADD MSTORE PUSH1 0x64 SWAP1 REVERT JUMPDEST PUSH1 0x40 MLOAD PUSH3 0x461BCD PUSH1 0xE5 SHL DUP2 MSTORE PUSH1 0x4 DUP2 ADD DUP14 SWAP1 MSTORE PUSH1 0xF PUSH1 0x24 DUP3 ADD MSTORE PUSH15 0x105D58DD1A5BDB88195E1C1A5C9959 PUSH1 0x8A SHL PUSH1 0x44 DUP3 ADD MSTORE PUSH1 0x64 SWAP1 REVERT JUMPDEST PUSH1 0x40 MLOAD PUSH3 0x461BCD PUSH1 0xE5 SHL DUP2 MSTORE PUSH1 0x4 DUP2 ADD DUP7 SWAP1 MSTORE PUSH1 0x2B PUSH1 0x24 DUP3 ADD MSTORE PUSH32 0x55736520636F6D6D69745365616C656442696420666F72207365616C65642062 PUSH1 0x44 DUP3 ADD MSTORE PUSH11 0x69642061756374696F6E73 PUSH1 0xA8 SHL PUSH1 0x64 DUP3 ADD MSTORE PUSH1 0x84 SWAP1 REVERT JUMPDEST PUSH2 0x327A SWAP1 DUP8 PUSH1 0x0 MSTORE DUP3 DUP8 MSTORE PUSH1 0xC0 PUSH2 0x3270 PUSH1 0x40 PUSH1 0x0 KECCAK256 PUSH2 0x42AC JUMP JUMPDEST ADD MLOAD SWAP1 MLOAD SWAP1 PUSH2 0x461B JUMP JUMPDEST DUP3 LT PUSH2 0x3286 JUMPI CODESIZE PUSH2 0x2DDD JUMP JUMPDEST PUSH1 0x40 MLOAD PUSH3 0x461BCD PUSH1 0xE5 SHL DUP2 MSTORE PUSH1 0x4 DUP2 ADD DUP7 SWAP1 MSTORE PUSH1 0x17 PUSH1 0x24 DUP3 ADD MSTORE PUSH23 0x109A59081A5B98DC995B595B9D081D1BDBC81CDB585B1B PUSH1 0x4A SHL PUSH1 0x44 DUP3 ADD MSTORE PUSH1 0x64 SWAP1 REVERT JUMPDEST PUSH1 0x64 SWAP1 PUSH1 0x40 MLOAD SWAP1 PUSH3 0x461BCD PUSH1 0xE5 SHL DUP3 MSTORE PUSH1 0x4 DUP3 ADD MSTORE PUSH1 0x14 PUSH1 0x24 DUP3 ADD MSTORE PUSH20 0x426964206D75737420626520706F736974697665 PUSH1 0x60 SHL PUSH1 0x44 DUP3 ADD MSTORE REVERT JUMPDEST POP CALLVALUE PUSH2 0x260 JUMPI DUP1 PUSH1 0x3 NOT CALLDATASIZE ADD SLT PUSH2 0x260 JUMPI PUSH1 0x6 SLOAD PUSH1 0x40 MLOAD PUSH1 0x1 PUSH1 0x1 PUSH1 0xA0 SHL SUB SWAP1 SWAP2 AND DUP2 MSTORE PUSH1 0x20 SWAP1 RETURN JUMPDEST POP CALLVALUE PUSH2 0x260 JUMPI PUSH1 0x20 DUP1 PUSH1 0x3 NOT CALLDATASIZE ADD SLT PUSH2 0x53F JUMPI PUSH1 0x1 PUSH1 0x1 PUSH1 0xA0 SHL SUB PUSH2 0x334C PUSH2 0x4132 JUMP JUMPDEST AND DUP3 MSTORE PUSH1 0xC DUP2 MSTORE PUSH1 0x40 DUP3 KECCAK256 SWAP2 PUSH1 0x40 MLOAD DUP1 SWAP4 DUP5 SWAP2 DUP5 DUP3 SLOAD SWAP2 DUP3 DUP2 MSTORE ADD SWAP2 DUP5 MSTORE DUP5 DUP5 KECCAK256 SWAP4 JUMPDEST DUP6 DUP3 DUP3 LT PUSH2 0x3386 JUMPI POP POP POP PUSH2 0x511 SWAP3 POP SUB DUP4 PUSH2 0x4226 JUMP JUMPDEST DUP6 SLOAD DUP5 MSTORE PUSH1 0x1 SWAP6 DUP7 ADD SWAP6 DUP9 SWAP6 POP SWAP4 ADD SWAP3 ADD PUSH2 0x336F JUMP JUMPDEST POP CALLVALUE PUSH2 0x260 JUMPI DUP1 PUSH1 0x3 NOT CALLDATASIZE ADD SLT PUSH2 0x260 JUMPI PUSH1 0x20 PUSH1 0x40 MLOAD PUSH3 0x278D00 DUP2 MSTORE RETURN JUMPDEST POP CALLVALUE PUSH2 0x260 JUMPI PUSH1 0x20 CALLDATASIZE PUSH1 0x3 NOT ADD SLT PUSH2 0x260 JUMPI PUSH2 0x33D4 PUSH2 0x4B90 JUMP JUMPDEST PUSH1 0x4 CALLDATALOAD DUP2 MSTORE PUSH1 0x2 PUSH1 0x20 MSTORE PUSH1 0x40 DUP2 KECCAK256 DUP1 SLOAD PUSH1 0x1 PUSH1 0x1 PUSH1 0xA0 SHL SUB SWAP2 SWAP1 DUP3 AND PUSH2 0x33FB DUP2 ISZERO ISZERO PUSH2 0x458A JUMP JUMPDEST PUSH1 0x4 DUP3 ADD SWAP1 PUSH1 0x1 DUP3 SLOAD PUSH2 0x3411 PUSH1 0xFF DUP3 AND ISZERO PUSH2 0x4698 JUMP JUMPDEST PUSH1 0xFF NOT AND OR DUP3 SSTORE PUSH1 0x6 DUP4 ADD SLOAD PUSH1 0x7 DUP5 ADD SLOAD DUP7 SWAP2 DUP7 AND DUP1 EXTCODESIZE ISZERO PUSH2 0x949 JUMPI PUSH1 0x40 MLOAD PUSH4 0x21421707 PUSH1 0xE1 SHL DUP2 MSTORE ADDRESS PUSH1 0x4 DUP3 ADD MSTORE PUSH1 0x1 PUSH1 0x1 PUSH1 0xA0 SHL SUB SWAP5 SWAP1 SWAP5 AND PUSH1 0x24 DUP6 ADD MSTORE PUSH1 0x44 DUP5 ADD SWAP2 SWAP1 SWAP2 MSTORE DUP3 SWAP1 PUSH1 0x64 SWAP1 DUP3 SWAP1 DUP5 SWAP1 GAS CALL DUP1 ISZERO PUSH2 0x1497 JUMPI PUSH2 0x349C JUMPI JUMPDEST POP SLOAD PUSH1 0x8 SHR DUP3 AND SWAP1 DUP2 PUSH2 0x3480 JUMPI DUP4 DUP1 RETURN JUMPDEST PUSH1 0x9 PUSH2 0x3495 SWAP4 PUSH1 0x8 DUP4 ADD SLOAD AND SWAP2 ADD SLOAD SWAP2 PUSH2 0x4BF9 JUMP JUMPDEST CODESIZE DUP1 DUP1 DUP4 DUP1 RETURN JUMPDEST SWAP4 PUSH2 0x34A8 DUP5 SWAP3 SWAP6 PUSH2 0x41DC JUMP JUMPDEST SWAP4 SWAP1 PUSH2 0x346F JUMP JUMPDEST POP PUSH1 0x40 CALLDATASIZE PUSH1 0x3 NOT ADD SLT PUSH2 0x260 JUMPI PUSH1 0x4 CALLDATALOAD PUSH1 0x24 SWAP1 DUP2 CALLDATALOAD SWAP2 PUSH2 0x34CD PUSH2 0x4B60 JUMP JUMPDEST DUP2 DUP5 MSTORE PUSH1 0x20 SWAP1 PUSH1 0x2 DUP3 MSTORE PUSH2 0x34E3 PUSH1 0x40 DUP7 KECCAK256 PUSH2 0x42AC JUMP JUMPDEST DUP4 DUP7 MSTORE PUSH1 0x7 DUP4 MSTORE PUSH1 0x40 DUP7 KECCAK256 PUSH1 0x40 MLOAD SWAP1 PUSH2 0x34FB DUP3 PUSH2 0x41C0 JUMP JUMPDEST PUSH1 0xFF DUP2 SLOAD AND PUSH1 0x3 DUP2 LT ISZERO PUSH2 0x3715 JUMPI PUSH1 0xFF SWAP2 PUSH1 0x7 SWAP2 DUP5 MSTORE PUSH1 0x1 DUP2 ADD SLOAD DUP8 DUP6 ADD MSTORE PUSH1 0x2 DUP2 ADD SLOAD PUSH1 0x40 DUP6 ADD MSTORE PUSH1 0x3 DUP2 ADD SLOAD PUSH1 0x60 DUP6 ADD MSTORE DUP3 PUSH1 0x4 DUP3 ADD SLOAD AND ISZERO ISZERO PUSH1 0x80 DUP6 ADD MSTORE PUSH1 0x5 DUP2 ADD SLOAD PUSH1 0xA0 DUP6 ADD MSTORE PUSH2 0x3552 PUSH1 0x6 DUP3 ADD PUSH2 0x4346 JUMP JUMPDEST PUSH1 0xC0 DUP6 ADD MSTORE ADD SLOAD AND ISZERO ISZERO PUSH1 0xE0 DUP3 ADD MSTORE DUP2 MLOAD PUSH2 0x3577 SWAP1 PUSH1 0x1 PUSH1 0x1 PUSH1 0xA0 SHL SUB AND ISZERO ISZERO PUSH2 0x458A JUMP JUMPDEST PUSH2 0x3585 PUSH1 0x80 DUP4 ADD MLOAD ISZERO PUSH2 0x43A2 JUMP JUMPDEST MLOAD PUSH1 0x3 DUP2 LT ISZERO PUSH2 0x3702 JUMPI SWAP1 PUSH2 0x359F PUSH1 0x2 PUSH2 0x35AE SWAP4 EQ PUSH2 0x45CF JUMP JUMPDEST DUP4 PUSH1 0x60 DUP3 ADD MLOAD SWAP2 ADD MLOAD SWAP1 PUSH2 0x461B JUMP JUMPDEST TIMESTAMP LT ISZERO PUSH2 0x36C8 JUMPI CALLVALUE ISZERO PUSH2 0x3691 JUMPI DUP3 DUP6 MSTORE PUSH1 0x8 DUP3 MSTORE PUSH1 0x40 DUP6 KECCAK256 CALLER DUP7 MSTORE DUP3 MSTORE PUSH1 0x40 DUP6 KECCAK256 SWAP1 DUP2 SLOAD PUSH2 0x365A JUMPI POP DUP1 DUP5 PUSH1 0x2 SWAP3 SSTORE CALLVALUE PUSH1 0x1 DUP3 ADD SSTORE ADD PUSH1 0xFF NOT DUP2 SLOAD AND SWAP1 SSTORE DUP2 DUP5 MSTORE PUSH1 0x9 DUP2 MSTORE PUSH2 0x3600 CALLER PUSH1 0x40 DUP7 KECCAK256 PUSH2 0x4628 JUMP JUMPDEST CALLER DUP5 MSTORE PUSH1 0xB DUP2 MSTORE PUSH2 0x3614 DUP3 PUSH1 0x40 DUP7 KECCAK256 PUSH2 0x4663 JUMP JUMPDEST PUSH1 0x40 MLOAD SWAP3 DUP4 MSTORE CALLVALUE SWAP1 DUP4 ADD MSTORE PUSH32 0x4E71B78E229EFC5F686DF2AFB7777D59C497424A6EEEF4F2E705824FD915FD2 PUSH1 0x40 CALLER SWAP4 LOG3 PUSH1 0x1 PUSH1 0x0 DUP1 MLOAD PUSH1 0x20 PUSH2 0x5061 DUP4 CODECOPY DUP2 MLOAD SWAP2 MSTORE SSTORE DUP1 RETURN JUMPDEST DUP3 PUSH1 0x11 PUSH1 0x64 SWAP3 PUSH1 0x40 MLOAD SWAP3 PUSH3 0x461BCD PUSH1 0xE5 SHL DUP5 MSTORE PUSH1 0x4 DUP5 ADD MSTORE DUP3 ADD MSTORE PUSH17 0x105B1C9958591E4818DBDB5B5A5D1D1959 PUSH1 0x7A SHL PUSH1 0x44 DUP3 ADD MSTORE REVERT JUMPDEST SWAP1 PUSH1 0x11 PUSH1 0x64 SWAP3 PUSH1 0x40 MLOAD SWAP3 PUSH3 0x461BCD PUSH1 0xE5 SHL DUP5 MSTORE PUSH1 0x4 DUP5 ADD MSTORE DUP3 ADD MSTORE PUSH17 0x135D5CDD081CD95B990819195C1BDCDA5D PUSH1 0x7A SHL PUSH1 0x44 DUP3 ADD MSTORE REVERT JUMPDEST SWAP1 PUSH1 0x14 PUSH1 0x64 SWAP3 PUSH1 0x40 MLOAD SWAP3 PUSH3 0x461BCD PUSH1 0xE5 SHL DUP5 MSTORE PUSH1 0x4 DUP5 ADD MSTORE DUP3 ADD MSTORE PUSH20 0x109A59191A5B99C81C195C9A5BD908195B991959 PUSH1 0x62 SHL PUSH1 0x44 DUP3 ADD MSTORE REVERT JUMPDEST PUSH4 0x4E487B71 PUSH1 0xE0 SHL DUP8 MSTORE PUSH1 0x21 PUSH1 0x4 MSTORE DUP3 DUP8 REVERT JUMPDEST PUSH4 0x4E487B71 PUSH1 0xE0 SHL DUP10 MSTORE PUSH1 0x21 PUSH1 0x4 MSTORE DUP5 DUP10 REVERT JUMPDEST POP CALLVALUE PUSH2 0x260 JUMPI PUSH1 0x60 CALLDATASIZE PUSH1 0x3 NOT ADD SLT PUSH2 0x260 JUMPI PUSH2 0x3742 PUSH2 0x411C JUMP JUMPDEST PUSH2 0x374A PUSH2 0x4B60 JUMP JUMPDEST PUSH1 0x44 CALLDATALOAD ISZERO PUSH2 0x3F87 JUMPI PUSH1 0x1 PUSH1 0x1 PUSH1 0xA0 SHL SUB DUP2 AND ISZERO PUSH2 0x3F42 JUMPI PUSH1 0x1 PUSH1 0x1 PUSH1 0xA0 SHL SUB DUP2 DUP2 AND DUP4 MSTORE PUSH1 0x20 DUP4 SWAP1 MSTORE PUSH1 0x40 DUP4 KECCAK256 SLOAD AND ISZERO PUSH2 0x3F07 JUMPI PUSH1 0x40 MLOAD PUSH4 0x70A08231 PUSH1 0xE0 SHL DUP2 MSTORE CALLER PUSH1 0x4 DUP3 ADD MSTORE PUSH1 0x20 DUP2 PUSH1 0x24 DUP2 PUSH1 0x1 PUSH1 0x1 PUSH1 0xA0 SHL SUB DUP7 AND GAS STATICCALL SWAP1 DUP2 ISZERO PUSH2 0x861 JUMPI DUP4 SWAP2 PUSH2 0x3ED5 JUMPI JUMPDEST POP PUSH1 0x44 CALLDATALOAD GT PUSH2 0x3E99 JUMPI PUSH1 0x40 MLOAD PUSH4 0x6EB1769F PUSH1 0xE1 SHL DUP2 MSTORE CALLER PUSH1 0x4 DUP3 ADD MSTORE ADDRESS PUSH1 0x24 DUP3 ADD MSTORE PUSH1 0x20 DUP2 PUSH1 0x44 DUP2 PUSH1 0x1 PUSH1 0x1 PUSH1 0xA0 SHL SUB DUP7 AND GAS STATICCALL SWAP1 DUP2 ISZERO PUSH2 0x861 JUMPI DUP4 SWAP2 PUSH2 0x3E67 JUMPI JUMPDEST POP PUSH1 0x44 CALLDATALOAD GT PUSH2 0x3E29 JUMPI PUSH2 0x3808 PUSH1 0x44 CALLDATALOAD DUP3 PUSH2 0x4B3C JUMP JUMPDEST PUSH1 0x40 MLOAD PUSH4 0x23B872DD PUSH1 0xE0 SHL DUP2 MSTORE CALLER PUSH1 0x4 DUP3 ADD MSTORE ADDRESS PUSH1 0x24 DUP3 ADD MSTORE PUSH1 0x44 DUP1 CALLDATALOAD SWAP1 DUP3 ADD MSTORE PUSH1 0x20 DUP2 PUSH1 0x64 DUP2 DUP8 PUSH1 0x1 PUSH1 0x1 PUSH1 0xA0 SHL SUB DUP9 AND GAS CALL DUP1 ISZERO PUSH2 0x248A JUMPI PUSH2 0x3E0A JUMPI JUMPDEST POP PUSH1 0x4 CALLDATALOAD DUP4 MSTORE PUSH1 0x7 PUSH1 0x20 MSTORE PUSH1 0x40 DUP4 KECCAK256 SWAP2 PUSH1 0x40 MLOAD SWAP3 PUSH2 0x3864 DUP5 PUSH2 0x41C0 JUMP JUMPDEST PUSH1 0xFF DUP2 SLOAD AND PUSH1 0x3 DUP2 LT ISZERO PUSH2 0x3DF6 JUMPI DUP5 MSTORE PUSH1 0x1 DUP2 ADD SLOAD PUSH1 0x20 DUP6 ADD MSTORE PUSH1 0x2 DUP2 ADD SLOAD PUSH1 0x40 DUP6 ADD MSTORE PUSH1 0x3 DUP2 ADD SLOAD PUSH1 0x60 DUP6 ADD MSTORE PUSH1 0xFF PUSH1 0x4 DUP3 ADD SLOAD AND ISZERO ISZERO PUSH1 0x80 DUP6 ADD MSTORE PUSH1 0xFF PUSH1 0x7 PUSH1 0x5 DUP4 ADD SLOAD SWAP3 PUSH1 0xA0 DUP8 ADD SWAP4 DUP5 MSTORE PUSH2 0x38BE PUSH1 0x6 DUP3 ADD PUSH2 0x4346 JUMP JUMPDEST PUSH1 0xC0 DUP9 ADD MSTORE ADD SLOAD AND ISZERO ISZERO PUSH1 0xE0 DUP6 ADD MSTORE PUSH2 0x38DC PUSH2 0x14EF DUP4 PUSH1 0x4 CALLDATALOAD PUSH2 0x4DF8 JUMP JUMPDEST DUP1 MLOAD PUSH2 0x3D8F JUMPI JUMPDEST POP DUP3 MLOAD PUSH1 0x3 DUP2 LT ISZERO PUSH2 0x3D7B JUMPI PUSH1 0x2 EQ PUSH2 0x3D22 JUMPI PUSH1 0x4 CALLDATALOAD DUP5 MSTORE PUSH1 0x2 PUSH1 0x20 MSTORE PUSH1 0x40 DUP5 KECCAK256 DUP1 SLOAD PUSH1 0x1 PUSH1 0x1 PUSH1 0xA0 SHL SUB AND PUSH2 0x391A DUP2 ISZERO ISZERO PUSH2 0x458A JUMP JUMPDEST PUSH1 0x4 DUP3 ADD SLOAD SWAP1 PUSH2 0x392D PUSH1 0xFF DUP4 AND ISZERO PUSH2 0x43A2 JUMP JUMPDEST PUSH2 0x3940 PUSH1 0x3 DUP5 ADD SLOAD PUSH1 0x1 DUP6 ADD SLOAD SWAP1 PUSH2 0x461B JUMP JUMPDEST TIMESTAMP LT ISZERO PUSH2 0x3CEB JUMPI CALLER EQ PUSH2 0x3CB2 JUMPI PUSH1 0x2 DUP3 ADD SLOAD DUP5 LT PUSH2 0x3C75 JUMPI PUSH1 0x5 DUP3 ADD SLOAD DUP5 GT ISZERO PUSH2 0x3C3A JUMPI PUSH1 0x8 SHR PUSH1 0x1 PUSH1 0x1 PUSH1 0xA0 SHL SUB AND DUP1 PUSH2 0x3C15 JUMPI JUMPDEST POP PUSH1 0x4 DUP2 ADD DUP1 SLOAD PUSH2 0x100 PUSH1 0x1 PUSH1 0xA8 SHL SUB NOT AND CALLER PUSH1 0x8 SHL PUSH2 0x100 PUSH1 0x1 PUSH1 0xA8 SHL SUB AND OR SWAP1 SSTORE DUP3 PUSH1 0x5 DUP3 ADD SSTORE PUSH1 0x8 DUP2 ADD PUSH1 0x1 DUP1 PUSH1 0xA0 SHL SUB DUP4 AND PUSH1 0x1 PUSH1 0x1 PUSH1 0x60 SHL SUB PUSH1 0xA0 SHL DUP3 SLOAD AND OR SWAP1 SSTORE PUSH1 0x44 CALLDATALOAD PUSH1 0x9 DUP3 ADD SSTORE PUSH1 0x4 CALLDATALOAD DUP6 MSTORE PUSH1 0x4 PUSH1 0x20 MSTORE PUSH1 0x40 DUP6 KECCAK256 CALLER DUP7 MSTORE PUSH1 0x20 MSTORE DUP3 PUSH1 0x40 DUP7 KECCAK256 SSTORE PUSH1 0x3 DUP2 ADD SLOAD SWAP1 PUSH2 0x39FF PUSH1 0x1 DUP3 ADD SLOAD SWAP3 PUSH2 0x384 SWAP2 DUP3 SWAP2 PUSH2 0x2EE6 DUP7 TIMESTAMP SWAP3 PUSH2 0x461B JUMP JUMPDEST LT PUSH2 0x3BEC JUMPI JUMPDEST POP POP PUSH1 0x40 DUP1 MLOAD PUSH1 0x44 CALLDATALOAD DUP2 MSTORE PUSH1 0x20 DUP2 ADD DUP6 SWAP1 MSTORE PUSH1 0x1 PUSH1 0x1 PUSH1 0xA0 SHL SUB SWAP1 SWAP4 AND SWAP3 CALLER SWAP3 POP PUSH1 0x4 CALLDATALOAD SWAP2 PUSH32 0x2808DECB743A25D04EFE1BD3DC192ACDE3BE644E2F6AD1DCE5D3C46643E1C602 SWAP2 LOG4 PUSH1 0x4 CALLDATALOAD DUP4 MSTORE PUSH1 0xA PUSH1 0x20 MSTORE PUSH1 0x40 DUP4 KECCAK256 PUSH2 0x3A65 DUP2 SLOAD PUSH2 0x4750 JUMP JUMPDEST DUP2 SSTORE TIMESTAMP PUSH1 0x3 DUP3 ADD SSTORE PUSH1 0x4 CALLDATALOAD DUP5 MSTORE PUSH1 0x4 PUSH1 0x20 MSTORE PUSH1 0x40 DUP5 KECCAK256 CALLER DUP6 MSTORE PUSH1 0x20 MSTORE PUSH1 0x40 DUP5 KECCAK256 SLOAD ISZERO PUSH2 0x3BA9 JUMPI JUMPDEST PUSH1 0x2 DUP2 ADD SWAP2 DUP3 SLOAD SWAP2 SLOAD SWAP2 PUSH1 0x0 NOT DUP4 ADD SWAP1 DUP4 DUP3 GT PUSH2 0x3B95 JUMPI SWAP2 PUSH2 0x2F8B PUSH2 0x2F90 SWAP3 PUSH2 0x3AB5 SWAP6 SWAP5 PUSH2 0x440B JUMP JUMPDEST SWAP1 SSTORE MLOAD PUSH1 0x3 DUP2 LT ISZERO PUSH2 0x3B81 JUMPI PUSH1 0x1 EQ PUSH2 0x3ADE JUMPI JUMPDEST PUSH1 0x1 PUSH1 0x0 DUP1 MLOAD PUSH1 0x20 PUSH2 0x5061 DUP4 CODECOPY DUP2 MLOAD SWAP2 MSTORE SSTORE DUP1 RETURN JUMPDEST PUSH1 0x40 MLOAD PUSH4 0x6F998A1 PUSH1 0xE2 SHL DUP2 MSTORE PUSH1 0x4 DUP1 CALLDATALOAD SWAP1 DUP3 ADD MSTORE PUSH1 0x20 DUP2 PUSH1 0x24 DUP2 ADDRESS GAS STATICCALL SWAP1 DUP2 ISZERO PUSH2 0x3B76 JUMPI DUP3 SWAP2 PUSH2 0x3B44 JUMPI JUMPDEST POP PUSH1 0x40 MLOAD SWAP1 DUP2 MSTORE TIMESTAMP PUSH1 0x20 DUP3 ADD MSTORE PUSH32 0x3E4D8ED649DD2450D7270FF39DE8BE25AA60CE073687CFBCF658A1BBD02E56F4 PUSH1 0x40 PUSH1 0x4 CALLDATALOAD SWAP3 LOG2 PUSH2 0x3AC9 JUMP JUMPDEST SWAP1 POP PUSH1 0x20 DUP2 RETURNDATASIZE PUSH1 0x20 GT PUSH2 0x3B6E JUMPI JUMPDEST DUP2 PUSH2 0x3B5F PUSH1 0x20 SWAP4 DUP4 PUSH2 0x4226 JUMP JUMPDEST DUP2 ADD SUB SLT PUSH2 0x53F JUMPI MLOAD CODESIZE PUSH2 0x3B0A JUMP JUMPDEST RETURNDATASIZE SWAP2 POP PUSH2 0x3B52 JUMP JUMPDEST PUSH1 0x40 MLOAD RETURNDATASIZE DUP5 DUP3 RETURNDATACOPY RETURNDATASIZE SWAP1 REVERT JUMPDEST PUSH4 0x4E487B71 PUSH1 0xE0 SHL DUP3 MSTORE PUSH1 0x21 PUSH1 0x4 MSTORE PUSH1 0x24 DUP3 REVERT JUMPDEST PUSH4 0x4E487B71 PUSH1 0xE0 SHL DUP8 MSTORE PUSH1 0x11 PUSH1 0x4 MSTORE PUSH1 0x24 DUP8 REVERT JUMPDEST PUSH1 0x1 DUP2 ADD PUSH2 0x3BB7 DUP2 SLOAD PUSH2 0x4750 JUMP JUMPDEST SWAP1 SSTORE PUSH1 0x4 CALLDATALOAD DUP5 MSTORE PUSH1 0x9 PUSH1 0x20 MSTORE PUSH2 0x3BD0 CALLER PUSH1 0x40 DUP7 KECCAK256 PUSH2 0x4628 JUMP JUMPDEST CALLER DUP5 MSTORE PUSH1 0xB PUSH1 0x20 MSTORE PUSH2 0x3BE7 PUSH1 0x4 CALLDATALOAD PUSH1 0x40 DUP7 KECCAK256 PUSH2 0x4663 JUMP JUMPDEST PUSH2 0x3A8C JUMP JUMPDEST DUP3 ADD DUP1 SWAP3 GT PUSH2 0x3C01 JUMPI PUSH1 0x1 ADD SSTORE CODESIZE DUP1 DUP1 PUSH2 0x3A05 JUMP JUMPDEST PUSH4 0x4E487B71 PUSH1 0xE0 SHL DUP7 MSTORE PUSH1 0x11 PUSH1 0x4 MSTORE PUSH1 0x24 DUP7 REVERT JUMPDEST PUSH1 0x8 DUP3 ADD SLOAD PUSH1 0x9 DUP4 ADD SLOAD PUSH2 0x3C34 SWAP3 SWAP1 SWAP2 PUSH1 0x1 PUSH1 0x1 PUSH1 0xA0 SHL SUB AND SWAP1 PUSH2 0x4BF9 JUMP JUMPDEST CODESIZE PUSH2 0x3976 JUMP JUMPDEST PUSH1 0x40 MLOAD PUSH3 0x461BCD PUSH1 0xE5 SHL DUP2 MSTORE PUSH1 0x20 PUSH1 0x4 DUP3 ADD MSTORE PUSH1 0x13 PUSH1 0x24 DUP3 ADD MSTORE PUSH19 0x84D2C840DCDEE840D0D2CED040CADCDEEACED PUSH1 0x6B SHL PUSH1 0x44 DUP3 ADD MSTORE PUSH1 0x64 SWAP1 REVERT JUMPDEST PUSH1 0x40 MLOAD PUSH3 0x461BCD PUSH1 0xE5 SHL DUP2 MSTORE PUSH1 0x20 PUSH1 0x4 DUP3 ADD MSTORE PUSH1 0x15 PUSH1 0x24 DUP3 ADD MSTORE PUSH21 0x4269642062656C6F77207374617274207072696365 PUSH1 0x58 SHL PUSH1 0x44 DUP3 ADD MSTORE PUSH1 0x64 SWAP1 REVERT JUMPDEST PUSH1 0x40 MLOAD PUSH3 0x461BCD PUSH1 0xE5 SHL DUP2 MSTORE PUSH1 0x20 PUSH1 0x4 DUP3 ADD MSTORE PUSH1 0x11 PUSH1 0x24 DUP3 ADD MSTORE PUSH17 0x14D95B1B195C8818D85B9B9BDD08189A59 PUSH1 0x7A SHL PUSH1 0x44 DUP3 ADD MSTORE PUSH1 0x64 SWAP1 REVERT JUMPDEST PUSH1 0x40 MLOAD PUSH3 0x461BCD PUSH1 0xE5 SHL DUP2 MSTORE PUSH1 0x20 PUSH1 0x4 DUP3 ADD MSTORE PUSH1 0xF PUSH1 0x24 DUP3 ADD MSTORE PUSH15 0x105D58DD1A5BDB88195E1C1A5C9959 PUSH1 0x8A SHL PUSH1 0x44 DUP3 ADD MSTORE PUSH1 0x64 SWAP1 REVERT JUMPDEST PUSH1 0x40 MLOAD PUSH3 0x461BCD PUSH1 0xE5 SHL DUP2 MSTORE PUSH1 0x20 PUSH1 0x4 DUP3 ADD MSTORE PUSH1 0x2B PUSH1 0x24 DUP3 ADD MSTORE PUSH32 0x55736520636F6D6D69745365616C656442696420666F72207365616C65642062 PUSH1 0x44 DUP3 ADD MSTORE PUSH11 0x69642061756374696F6E73 PUSH1 0xA8 SHL PUSH1 0x64 DUP3 ADD MSTORE PUSH1 0x84 SWAP1 REVERT JUMPDEST PUSH4 0x4E487B71 PUSH1 0xE0 SHL DUP6 MSTORE PUSH1 0x21 PUSH1 0x4 MSTORE PUSH1 0x24 DUP6 REVERT JUMPDEST PUSH2 0x3DAB SWAP1 PUSH1 0x4 CALLDATALOAD DUP7 MSTORE PUSH1 0x2 PUSH1 0x20 MSTORE PUSH1 0xC0 PUSH2 0x3270 PUSH1 0x40 DUP9 KECCAK256 PUSH2 0x42AC JUMP JUMPDEST DUP3 LT PUSH2 0x3DB7 JUMPI CODESIZE PUSH2 0x38E3 JUMP JUMPDEST PUSH1 0x40 MLOAD PUSH3 0x461BCD PUSH1 0xE5 SHL DUP2 MSTORE PUSH1 0x20 PUSH1 0x4 DUP3 ADD MSTORE PUSH1 0x17 PUSH1 0x24 DUP3 ADD MSTORE PUSH23 0x109A59081A5B98DC995B595B9D081D1BDBC81CDB585B1B PUSH1 0x4A SHL PUSH1 0x44 DUP3 ADD MSTORE PUSH1 0x64 SWAP1 REVERT JUMPDEST PUSH4 0x4E487B71 PUSH1 0xE0 SHL DUP7 MSTORE PUSH1 0x21 PUSH1 0x4 MSTORE PUSH1 0x24 DUP7 REVERT JUMPDEST PUSH2 0x3E22 SWAP1 PUSH1 0x20 RETURNDATASIZE PUSH1 0x20 GT PUSH2 0x80E JUMPI PUSH2 0x7FF DUP2 DUP4 PUSH2 0x4226 JUMP JUMPDEST POP CODESIZE PUSH2 0x3847 JUMP JUMPDEST PUSH1 0x40 MLOAD PUSH3 0x461BCD PUSH1 0xE5 SHL DUP2 MSTORE PUSH1 0x20 PUSH1 0x4 DUP3 ADD MSTORE PUSH1 0x16 PUSH1 0x24 DUP3 ADD MSTORE PUSH22 0x496E73756666696369656E7420616C6C6F77616E6365 PUSH1 0x50 SHL PUSH1 0x44 DUP3 ADD MSTORE PUSH1 0x64 SWAP1 REVERT JUMPDEST SWAP1 POP PUSH1 0x20 DUP2 RETURNDATASIZE PUSH1 0x20 GT PUSH2 0x3E91 JUMPI JUMPDEST DUP2 PUSH2 0x3E82 PUSH1 0x20 SWAP4 DUP4 PUSH2 0x4226 JUMP JUMPDEST DUP2 ADD SUB SLT PUSH2 0x949 JUMPI MLOAD CODESIZE PUSH2 0x37F3 JUMP JUMPDEST RETURNDATASIZE SWAP2 POP PUSH2 0x3E75 JUMP JUMPDEST PUSH1 0x40 MLOAD PUSH3 0x461BCD PUSH1 0xE5 SHL DUP2 MSTORE PUSH1 0x20 PUSH1 0x4 DUP3 ADD MSTORE PUSH1 0x14 PUSH1 0x24 DUP3 ADD MSTORE PUSH20 0x496E73756666696369656E742062616C616E6365 PUSH1 0x60 SHL PUSH1 0x44 DUP3 ADD MSTORE PUSH1 0x64 SWAP1 REVERT JUMPDEST SWAP1 POP PUSH1 0x20 DUP2 RETURNDATASIZE PUSH1 0x20 GT PUSH2 0x3EFF JUMPI JUMPDEST DUP2 PUSH2 0x3EF0 PUSH1 0x20 SWAP4 DUP4 PUSH2 0x4226 JUMP JUMPDEST DUP2 ADD SUB SLT PUSH2 0x949 JUMPI MLOAD CODESIZE PUSH2 0x37B1 JUMP JUMPDEST RETURNDATASIZE SWAP2 POP PUSH2 0x3EE3 JUMP JUMPDEST PUSH1 0x40 MLOAD PUSH3 0x461BCD PUSH1 0xE5 SHL DUP2 MSTORE PUSH1 0x20 PUSH1 0x4 DUP3 ADD MSTORE PUSH1 0x13 PUSH1 0x24 DUP3 ADD MSTORE PUSH19 0x151BDAD95B881B9BDD081CDD5C1C1BDC9D1959 PUSH1 0x6A SHL PUSH1 0x44 DUP3 ADD MSTORE PUSH1 0x64 SWAP1 REVERT JUMPDEST PUSH1 0x40 MLOAD PUSH3 0x461BCD PUSH1 0xE5 SHL DUP2 MSTORE PUSH1 0x20 PUSH1 0x4 DUP3 ADD MSTORE PUSH1 0x1B PUSH1 0x24 DUP3 ADD MSTORE PUSH32 0x55736520706C6163654269645769746845544820666F72204554480000000000 PUSH1 0x44 DUP3 ADD MSTORE PUSH1 0x64 SWAP1 REVERT JUMPDEST PUSH1 0x40 MLOAD PUSH3 0x461BCD PUSH1 0xE5 SHL DUP2 MSTORE PUSH1 0x20 PUSH1 0x4 DUP3 ADD MSTORE PUSH1 0x17 PUSH1 0x24 DUP3 ADD MSTORE PUSH32 0x416D6F756E74206D75737420626520706F736974697665000000000000000000 PUSH1 0x44 DUP3 ADD MSTORE PUSH1 0x64 SWAP1 REVERT JUMPDEST POP CALLVALUE PUSH2 0x260 JUMPI PUSH1 0x40 CALLDATASIZE PUSH1 0x3 NOT ADD SLT PUSH2 0x260 JUMPI PUSH1 0x24 CALLDATALOAD SWAP1 PUSH1 0x4 CALLDATALOAD DUP2 MSTORE PUSH1 0x9 PUSH1 0x20 MSTORE PUSH1 0x40 DUP2 KECCAK256 SWAP1 DUP2 SLOAD DUP4 LT ISZERO PUSH2 0x260 JUMPI PUSH1 0x20 PUSH2 0x4006 DUP5 DUP5 PUSH2 0x415E JUMP JUMPDEST SWAP1 SLOAD PUSH1 0x40 MLOAD PUSH1 0x3 SWAP3 SWAP1 SWAP3 SHL SHR PUSH1 0x1 PUSH1 0x1 PUSH1 0xA0 SHL SUB AND DUP2 MSTORE RETURN JUMPDEST POP CALLVALUE PUSH2 0x260 JUMPI PUSH1 0x20 CALLDATASIZE PUSH1 0x3 NOT ADD SLT PUSH2 0x260 JUMPI PUSH1 0x20 PUSH2 0x258 PUSH1 0x4 CALLDATALOAD PUSH2 0x441E JUMP JUMPDEST POP CALLVALUE PUSH2 0x260 JUMPI PUSH1 0x80 CALLDATASIZE PUSH1 0x3 NOT ADD SLT PUSH2 0x260 JUMPI PUSH2 0x4058 PUSH2 0x4132 JUMP JUMPDEST POP PUSH2 0x4061 PUSH2 0x411C JUMP JUMPDEST POP PUSH1 0x64 CALLDATALOAD PUSH1 0x1 PUSH1 0x1 PUSH1 0x40 SHL SUB DUP1 DUP3 GT PUSH2 0x949 JUMPI CALLDATASIZE PUSH1 0x23 DUP4 ADD SLT ISZERO PUSH2 0x949 JUMPI DUP2 PUSH1 0x4 ADD CALLDATALOAD SWAP1 DUP2 GT PUSH2 0x949 JUMPI CALLDATASIZE SWAP2 ADD PUSH1 0x24 ADD GT PUSH2 0x260 JUMPI PUSH1 0x40 MLOAD PUSH4 0xA85BD01 PUSH1 0xE1 SHL DUP2 MSTORE PUSH1 0x20 SWAP1 RETURN JUMPDEST SWAP1 POP CALLVALUE PUSH2 0x53F JUMPI PUSH1 0x40 CALLDATASIZE PUSH1 0x3 NOT ADD SLT PUSH2 0x53F JUMPI PUSH1 0xA0 SWAP2 PUSH1 0x40 PUSH2 0x40C8 PUSH2 0x411C JUMP JUMPDEST SWAP2 PUSH1 0x4 CALLDATALOAD DUP2 MSTORE PUSH1 0x8 PUSH1 0x20 MSTORE DUP2 DUP2 KECCAK256 PUSH1 0x1 DUP1 DUP8 SHL SUB DUP1 SWAP5 AND DUP3 MSTORE PUSH1 0x20 MSTORE KECCAK256 DUP1 SLOAD SWAP2 PUSH1 0x1 DUP3 ADD SLOAD PUSH1 0xFF PUSH1 0x2 DUP5 ADD SLOAD AND SWAP2 PUSH1 0x4 PUSH1 0x3 DUP6 ADD SLOAD SWAP5 ADD SLOAD AND SWAP4 DUP6 MSTORE PUSH1 0x20 DUP6 ADD MSTORE ISZERO ISZERO PUSH1 0x40 DUP5 ADD MSTORE PUSH1 0x60 DUP4 ADD MSTORE PUSH1 0x80 DUP3 ADD MSTORE RETURN JUMPDEST PUSH1 0x24 CALLDATALOAD SWAP1 PUSH1 0x1 PUSH1 0x1 PUSH1 0xA0 SHL SUB DUP3 AND DUP3 SUB PUSH2 0x247D JUMPI JUMP JUMPDEST PUSH1 0x4 CALLDATALOAD SWAP1 PUSH1 0x1 PUSH1 0x1 PUSH1 0xA0 SHL SUB DUP3 AND DUP3 SUB PUSH2 0x247D JUMPI JUMP JUMPDEST PUSH1 0x64 CALLDATALOAD SWAP1 PUSH1 0x1 PUSH1 0x1 PUSH1 0xA0 SHL SUB DUP3 AND DUP3 SUB PUSH2 0x247D JUMPI JUMP JUMPDEST DUP1 SLOAD DUP3 LT ISZERO PUSH2 0x4176 JUMPI PUSH1 0x0 MSTORE PUSH1 0x20 PUSH1 0x0 KECCAK256 ADD SWAP1 PUSH1 0x0 SWAP1 JUMP JUMPDEST PUSH4 0x4E487B71 PUSH1 0xE0 SHL PUSH1 0x0 MSTORE PUSH1 0x32 PUSH1 0x4 MSTORE PUSH1 0x24 PUSH1 0x0 REVERT JUMPDEST SWAP1 DUP2 MLOAD DUP1 DUP3 MSTORE PUSH1 0x20 DUP1 DUP1 SWAP4 ADD SWAP4 ADD SWAP2 PUSH1 0x0 JUMPDEST DUP3 DUP2 LT PUSH2 0x41AC JUMPI POP POP POP POP SWAP1 JUMP JUMPDEST DUP4 MLOAD DUP6 MSTORE SWAP4 DUP2 ADD SWAP4 SWAP3 DUP2 ADD SWAP3 PUSH1 0x1 ADD PUSH2 0x419E JUMP JUMPDEST PUSH2 0x100 DUP2 ADD SWAP1 DUP2 LT PUSH1 0x1 PUSH1 0x1 PUSH1 0x40 SHL SUB DUP3 GT OR PUSH2 0xA5E JUMPI PUSH1 0x40 MSTORE JUMP JUMPDEST PUSH1 0x1 PUSH1 0x1 PUSH1 0x40 SHL SUB DUP2 GT PUSH2 0xA5E JUMPI PUSH1 0x40 MSTORE JUMP JUMPDEST PUSH2 0x180 DUP2 ADD SWAP1 DUP2 LT PUSH1 0x1 PUSH1 0x1 PUSH1 0x40 SHL SUB DUP3 GT OR PUSH2 0xA5E JUMPI PUSH1 0x40 MSTORE JUMP JUMPDEST PUSH1 0x80 DUP2 ADD SWAP1 DUP2 LT PUSH1 0x1 PUSH1 0x1 PUSH1 0x40 SHL SUB DUP3 GT OR PUSH2 0xA5E JUMPI PUSH1 0x40 MSTORE JUMP JUMPDEST SWAP1 PUSH1 0x1F DUP1 NOT SWAP2 ADD AND DUP2 ADD SWAP1 DUP2 LT PUSH1 0x1 PUSH1 0x1 PUSH1 0x40 SHL SUB DUP3 GT OR PUSH2 0xA5E JUMPI PUSH1 0x40 MSTORE JUMP JUMPDEST PUSH1 0x1 PUSH1 0x1 PUSH1 0x40 SHL SUB DUP2 GT PUSH2 0xA5E JUMPI PUSH1 0x1F ADD PUSH1 0x1F NOT AND PUSH1 0x20 ADD SWAP1 JUMP JUMPDEST SWAP1 DUP2 MLOAD DUP1 DUP3 MSTORE PUSH1 0x20 DUP1 DUP1 SWAP4 ADD SWAP4 ADD SWAP2 PUSH1 0x0 JUMPDEST DUP3 DUP2 LT PUSH2 0x4282 JUMPI POP POP POP POP SWAP1 JUMP JUMPDEST DUP4 MLOAD PUSH1 0x1 PUSH1 0x1 PUSH1 0xA0 SHL SUB AND DUP6 MSTORE SWAP4 DUP2 ADD SWAP4 SWAP3 DUP2 ADD SWAP3 PUSH1 0x1 ADD PUSH2 0x4274 JUMP JUMPDEST SWAP1 PUSH1 0x3 DUP3 LT ISZERO PUSH2 0x307A JUMPI MSTORE JUMP JUMPDEST SWAP1 PUSH1 0x40 MLOAD PUSH2 0x42B9 DUP2 PUSH2 0x41EF JUMP JUMPDEST DUP3 SLOAD PUSH1 0x1 PUSH1 0x1 PUSH1 0xA0 SHL SUB SWAP1 DUP2 AND DUP3 MSTORE PUSH1 0x1 DUP5 ADD SLOAD PUSH1 0x20 DUP4 ADD MSTORE PUSH1 0x2 DUP5 ADD SLOAD PUSH1 0x40 DUP4 ADD MSTORE PUSH1 0x3 DUP5 ADD SLOAD PUSH1 0x60 DUP4 ADD MSTORE PUSH1 0x4 DUP5 ADD SLOAD PUSH1 0xFF DUP2 AND ISZERO ISZERO PUSH1 0x80 DUP5 ADD MSTORE PUSH1 0x8 SWAP1 DUP2 SHR DUP3 AND PUSH1 0xA0 DUP5 ADD MSTORE PUSH1 0x5 DUP6 ADD SLOAD PUSH1 0xC0 DUP5 ADD MSTORE PUSH1 0x6 DUP6 ADD SLOAD DUP3 AND PUSH1 0xE0 DUP5 ADD MSTORE PUSH1 0x7 DUP6 ADD SLOAD PUSH2 0x100 DUP5 ADD MSTORE DUP5 ADD SLOAD AND PUSH2 0x120 DUP3 ADD MSTORE PUSH1 0x9 DUP4 ADD SLOAD PUSH2 0x140 DUP3 ADD MSTORE PUSH1 0xA SWAP1 SWAP3 ADD SLOAD PUSH2 0x160 DUP4 ADD MSTORE JUMP JUMPDEST SWAP1 PUSH1 0x40 MLOAD SWAP2 DUP3 DUP2 SLOAD SWAP2 DUP3 DUP3 MSTORE PUSH1 0x20 SWAP3 PUSH1 0x20 DUP4 ADD SWAP2 PUSH1 0x0 MSTORE PUSH1 0x20 PUSH1 0x0 KECCAK256 SWAP4 PUSH1 0x0 SWAP1 JUMPDEST DUP3 DUP3 LT PUSH2 0x437F JUMPI POP POP POP PUSH2 0x437D SWAP3 POP SUB DUP4 PUSH2 0x4226 JUMP JUMPDEST JUMP JUMPDEST DUP6 SLOAD PUSH1 0x1 PUSH1 0x1 PUSH1 0xA0 SHL SUB AND DUP5 MSTORE PUSH1 0x1 SWAP6 DUP7 ADD SWAP6 DUP9 SWAP6 POP SWAP4 DUP2 ADD SWAP4 SWAP1 SWAP2 ADD SWAP1 PUSH2 0x4367 JUMP JUMPDEST ISZERO PUSH2 0x43A9 JUMPI JUMP JUMPDEST PUSH1 0x40 MLOAD PUSH3 0x461BCD PUSH1 0xE5 SHL DUP2 MSTORE PUSH1 0x20 PUSH1 0x4 DUP3 ADD MSTORE PUSH1 0xD PUSH1 0x24 DUP3 ADD MSTORE PUSH13 0x105D58DD1A5BDB88195B991959 PUSH1 0x9A SHL PUSH1 0x44 DUP3 ADD MSTORE PUSH1 0x64 SWAP1 REVERT JUMPDEST SWAP2 SWAP1 DUP3 SUB SWAP2 DUP3 GT PUSH2 0x3090 JUMPI JUMP JUMPDEST DUP2 ISZERO PUSH2 0x43F5 JUMPI DIV SWAP1 JUMP JUMPDEST PUSH4 0x4E487B71 PUSH1 0xE0 SHL PUSH1 0x0 MSTORE PUSH1 0x12 PUSH1 0x4 MSTORE PUSH1 0x24 PUSH1 0x0 REVERT JUMPDEST DUP2 DUP2 MUL SWAP3 SWAP2 DUP2 ISZERO SWAP2 DUP5 DIV EQ OR ISZERO PUSH2 0x3090 JUMPI JUMP JUMPDEST PUSH1 0x0 DUP2 DUP2 MSTORE PUSH1 0x2 PUSH1 0x20 MSTORE PUSH1 0x40 SWAP1 PUSH2 0x4436 DUP3 DUP3 KECCAK256 PUSH2 0x42AC JUMP JUMPDEST SWAP3 DUP2 MSTORE PUSH1 0x7 PUSH1 0x20 MSTORE DUP2 DUP2 KECCAK256 SWAP1 DUP3 MLOAD PUSH2 0x444D DUP2 PUSH2 0x41C0 JUMP JUMPDEST PUSH1 0xFF DUP4 SLOAD AND PUSH1 0x3 DUP2 LT ISZERO PUSH2 0x455E JUMPI DUP2 MSTORE PUSH1 0xFF PUSH1 0x7 PUSH1 0x1 DUP6 ADD SLOAD SWAP5 PUSH1 0x20 DUP5 ADD SWAP6 DUP7 MSTORE PUSH1 0x2 DUP2 ADD SLOAD DUP8 DUP6 ADD MSTORE PUSH1 0x3 DUP2 ADD SLOAD PUSH1 0x60 DUP6 ADD MSTORE DUP3 PUSH1 0x4 DUP3 ADD SLOAD AND ISZERO ISZERO PUSH1 0x80 DUP6 ADD MSTORE PUSH1 0x5 DUP2 ADD SLOAD PUSH1 0xA0 DUP6 ADD MSTORE PUSH2 0x44A5 PUSH1 0x6 DUP3 ADD PUSH2 0x4346 JUMP JUMPDEST PUSH1 0xC0 DUP6 ADD MSTORE ADD SLOAD AND ISZERO ISZERO PUSH1 0xE0 DUP3 ADD MSTORE MLOAD SWAP1 PUSH1 0x3 DUP3 LT ISZERO PUSH2 0x1C39 JUMPI POP PUSH1 0x1 SUB PUSH2 0x4524 JUMPI PUSH2 0x44F3 SWAP1 PUSH2 0x44D9 PUSH1 0x80 DUP6 ADD MLOAD ISZERO PUSH2 0x43A2 JUMP JUMPDEST PUSH2 0xE10 PUSH2 0x44EA PUSH1 0x60 DUP7 ADD MLOAD TIMESTAMP PUSH2 0x43DE JUMP JUMPDEST DIV SWAP1 MLOAD SWAP1 PUSH2 0x440B JUMP JUMPDEST SWAP1 DUP3 ADD PUSH2 0x4509 PUSH2 0x160 DUP3 MLOAD SWAP5 ADD SWAP4 DUP5 MLOAD SWAP1 PUSH2 0x43DE JUMP JUMPDEST DUP3 LT ISZERO PUSH2 0x451E JUMPI PUSH2 0x451B SWAP3 POP MLOAD PUSH2 0x43DE JUMP JUMPDEST SWAP1 JUMP JUMPDEST POP POP MLOAD SWAP1 JUMP JUMPDEST DUP2 MLOAD PUSH3 0x461BCD PUSH1 0xE5 SHL DUP2 MSTORE PUSH1 0x20 PUSH1 0x4 DUP3 ADD MSTORE PUSH1 0x13 PUSH1 0x24 DUP3 ADD MSTORE PUSH19 0x2737BA103090223ABA31B41030BAB1BA34B7B7 PUSH1 0x69 SHL PUSH1 0x44 DUP3 ADD MSTORE PUSH1 0x64 SWAP1 REVERT JUMPDEST PUSH4 0x4E487B71 PUSH1 0xE0 SHL DUP4 MSTORE PUSH1 0x21 PUSH1 0x4 MSTORE PUSH1 0x24 DUP4 REVERT JUMPDEST SWAP1 DUP2 PUSH1 0x20 SWAP2 SUB SLT PUSH2 0x247D JUMPI MLOAD DUP1 ISZERO ISZERO DUP2 SUB PUSH2 0x247D JUMPI SWAP1 JUMP JUMPDEST ISZERO PUSH2 0x4591 JUMPI JUMP JUMPDEST PUSH1 0x40 MLOAD PUSH3 0x461BCD PUSH1 0xE5 SHL DUP2 MSTORE PUSH1 0x20 PUSH1 0x4 DUP3 ADD MSTORE PUSH1 0x16 PUSH1 0x24 DUP3 ADD MSTORE PUSH22 0x105D58DD1A5BDB88191BD95CC81B9BDD08195E1A5CDD PUSH1 0x52 SHL PUSH1 0x44 DUP3 ADD MSTORE PUSH1 0x64 SWAP1 REVERT JUMPDEST ISZERO PUSH2 0x45D6 JUMPI JUMP JUMPDEST PUSH1 0x40 MLOAD PUSH3 0x461BCD PUSH1 0xE5 SHL DUP2 MSTORE PUSH1 0x20 PUSH1 0x4 DUP3 ADD MSTORE PUSH1 0x18 PUSH1 0x24 DUP3 ADD MSTORE PUSH32 0x4E6F742061207365616C6564206269642061756374696F6E0000000000000000 PUSH1 0x44 DUP3 ADD MSTORE PUSH1 0x64 SWAP1 REVERT JUMPDEST SWAP2 SWAP1 DUP3 ADD DUP1 SWAP3 GT PUSH2 0x3090 JUMPI JUMP JUMPDEST DUP1 SLOAD PUSH1 0x1 PUSH1 0x40 SHL DUP2 LT ISZERO PUSH2 0xA5E JUMPI PUSH2 0x4645 SWAP2 PUSH1 0x1 DUP3 ADD DUP2 SSTORE PUSH2 0x415E JUMP JUMPDEST PUSH1 0x1 DUP1 PUSH1 0xA0 SWAP5 SWAP4 SWAP5 SHL SUB DUP1 DUP5 SLOAD SWAP3 PUSH1 0x3 SHL SWAP4 AND DUP4 SHL SWAP3 SHL NOT AND OR SWAP1 SSTORE JUMP JUMPDEST DUP1 SLOAD PUSH1 0x1 PUSH1 0x40 SHL DUP2 LT ISZERO PUSH2 0xA5E JUMPI PUSH2 0x4680 SWAP2 PUSH1 0x1 DUP3 ADD DUP2 SSTORE PUSH2 0x415E JUMP JUMPDEST DUP2 SWAP3 SWAP2 SLOAD SWAP1 PUSH1 0x3 SHL SWAP2 DUP3 SHL SWAP2 PUSH1 0x0 NOT SWAP1 SHL NOT AND OR SWAP1 SSTORE JUMP JUMPDEST ISZERO PUSH2 0x469F JUMPI JUMP JUMPDEST PUSH1 0x40 MLOAD PUSH3 0x461BCD PUSH1 0xE5 SHL DUP2 MSTORE PUSH1 0x20 PUSH1 0x4 DUP3 ADD MSTORE PUSH1 0x15 PUSH1 0x24 DUP3 ADD MSTORE PUSH21 0x105D58DD1A5BDB88185B1C9958591E48195B991959 PUSH1 0x5A SHL PUSH1 0x44 DUP3 ADD MSTORE PUSH1 0x64 SWAP1 REVERT JUMPDEST SWAP1 CALLDATALOAD SWAP1 PUSH1 0x1E NOT DUP2 CALLDATASIZE SUB ADD DUP3 SLT ISZERO PUSH2 0x247D JUMPI ADD DUP1 CALLDATALOAD SWAP1 PUSH1 0x1 PUSH1 0x1 PUSH1 0x40 SHL SUB DUP3 GT PUSH2 0x247D JUMPI PUSH1 0x20 ADD SWAP2 DUP2 PUSH1 0x5 SHL CALLDATASIZE SUB DUP4 SGT PUSH2 0x247D JUMPI JUMP JUMPDEST PUSH1 0x1 PUSH1 0x1 PUSH1 0x40 SHL SUB DUP2 GT PUSH2 0xA5E JUMPI PUSH1 0x5 SHL PUSH1 0x20 ADD SWAP1 JUMP JUMPDEST CALLDATALOAD PUSH1 0x1 PUSH1 0x1 PUSH1 0xA0 SHL SUB DUP2 AND DUP2 SUB PUSH2 0x247D JUMPI SWAP1 JUMP JUMPDEST DUP1 MLOAD DUP3 LT ISZERO PUSH2 0x4176 JUMPI PUSH1 0x20 SWAP2 PUSH1 0x5 SHL ADD ADD SWAP1 JUMP JUMPDEST PUSH1 0x0 NOT DUP2 EQ PUSH2 0x3090 JUMPI PUSH1 0x1 ADD SWAP1 JUMP JUMPDEST SWAP1 DUP2 PUSH1 0x20 SWAP2 SUB SLT PUSH2 0x247D JUMPI MLOAD PUSH1 0x1 PUSH1 0x1 PUSH1 0xA0 SHL SUB DUP2 AND DUP2 SUB PUSH2 0x247D JUMPI SWAP1 JUMP JUMPDEST ISZERO PUSH2 0x4785 JUMPI JUMP JUMPDEST PUSH1 0x40 MLOAD PUSH3 0x461BCD PUSH1 0xE5 SHL DUP2 MSTORE PUSH1 0x20 PUSH1 0x4 DUP3 ADD MSTORE PUSH1 0x10 PUSH1 0x24 DUP3 ADD MSTORE PUSH16 0x139BDD081BDDDB995C881BD988139195 PUSH1 0x82 SHL PUSH1 0x44 DUP3 ADD MSTORE PUSH1 0x64 SWAP1 REVERT JUMPDEST ISZERO PUSH2 0x47C4 JUMPI JUMP JUMPDEST PUSH1 0x40 MLOAD PUSH3 0x461BCD PUSH1 0xE5 SHL DUP2 MSTORE PUSH1 0x20 PUSH1 0x4 DUP3 ADD MSTORE PUSH1 0x10 PUSH1 0x24 DUP3 ADD MSTORE PUSH16 0x139195081B9BDD08185C1C1C9BDD9959 PUSH1 0x82 SHL PUSH1 0x44 DUP3 ADD MSTORE PUSH1 0x64 SWAP1 REVERT JUMPDEST PUSH1 0x0 MSTORE PUSH1 0x2 PUSH1 0x20 MSTORE PUSH2 0x4811 PUSH1 0x40 PUSH1 0x0 KECCAK256 PUSH2 0x42AC JUMP JUMPDEST PUSH1 0x80 DUP2 ADD MLOAD ISZERO DUP1 ISZERO SWAP1 PUSH2 0x4847 JUMPI JUMPDEST PUSH2 0x4841 JUMPI PUSH2 0x483A DUP2 PUSH1 0x20 PUSH1 0x60 PUSH2 0x451B SWAP5 ADD MLOAD SWAP2 ADD MLOAD SWAP1 PUSH2 0x461B JUMP JUMPDEST TIMESTAMP SWAP1 PUSH2 0x43DE JUMP JUMPDEST POP PUSH1 0x0 SWAP1 JUMP JUMPDEST POP PUSH2 0x485B PUSH1 0x60 DUP3 ADD MLOAD PUSH1 0x20 DUP4 ADD MLOAD SWAP1 PUSH2 0x461B JUMP JUMPDEST TIMESTAMP LT ISZERO PUSH2 0x481F JUMP JUMPDEST ISZERO PUSH2 0x486A JUMPI JUMP JUMPDEST PUSH1 0x40 MLOAD PUSH3 0x461BCD PUSH1 0xE5 SHL DUP2 MSTORE PUSH1 0x20 PUSH1 0x4 DUP3 ADD MSTORE PUSH1 0x15 PUSH1 0x24 DUP3 ADD MSTORE PUSH21 0x151BDAD95B881B9BDD081DDA1A5D195B1A5CDD1959 PUSH1 0x5A SHL PUSH1 0x44 DUP3 ADD MSTORE PUSH1 0x64 SWAP1 REVERT JUMPDEST PUSH1 0x1 PUSH1 0x1 PUSH1 0xA0 SHL SUB SWAP1 DUP2 AND SWAP1 DUP2 ISZERO PUSH2 0x4902 JUMPI PUSH1 0x0 DUP1 MLOAD PUSH1 0x20 PUSH2 0x5021 DUP4 CODECOPY DUP2 MLOAD SWAP2 MSTORE DUP1 SLOAD PUSH1 0x1 PUSH1 0x1 PUSH1 0xA0 SHL SUB NOT DUP2 AND DUP5 OR SWAP1 SWAP2 SSTORE AND PUSH32 0x8BE0079C531659141344CD1FD0A4F28419497F9722A3DAAFE3B4186F6B6457E0 PUSH1 0x0 DUP1 LOG3 JUMP JUMPDEST PUSH1 0x40 MLOAD PUSH4 0x1E4FBDF7 PUSH1 0xE0 SHL DUP2 MSTORE PUSH1 0x0 PUSH1 0x4 DUP3 ADD MSTORE PUSH1 0x24 SWAP1 REVERT JUMPDEST ISZERO PUSH2 0x4922 JUMPI JUMP JUMPDEST PUSH1 0x40 MLOAD PUSH3 0x461BCD PUSH1 0xE5 SHL DUP2 MSTORE PUSH1 0x20 PUSH1 0x4 DUP3 ADD MSTORE PUSH1 0x12 PUSH1 0x24 DUP3 ADD MSTORE PUSH18 0x141C9A58D94819995959081B9BDD081CD95D PUSH1 0x72 SHL PUSH1 0x44 DUP3 ADD MSTORE PUSH1 0x64 SWAP1 REVERT JUMPDEST MLOAD SWAP1 PUSH10 0xFFFFFFFFFFFFFFFFFFFF DUP3 AND DUP3 SUB PUSH2 0x247D JUMPI JUMP JUMPDEST SWAP1 DUP2 PUSH1 0xA0 SWAP2 SUB SLT PUSH2 0x247D JUMPI PUSH2 0x4987 DUP2 PUSH2 0x495C JUMP JUMPDEST SWAP2 PUSH1 0x20 DUP3 ADD MLOAD SWAP2 PUSH1 0x40 DUP2 ADD MLOAD SWAP2 PUSH2 0x451B PUSH1 0x80 PUSH1 0x60 DUP5 ADD MLOAD SWAP4 ADD PUSH2 0x495C JUMP JUMPDEST ISZERO PUSH2 0x49AC JUMPI JUMP JUMPDEST PUSH1 0x40 MLOAD PUSH3 0x461BCD PUSH1 0xE5 SHL DUP2 MSTORE PUSH1 0x20 PUSH1 0x4 DUP3 ADD MSTORE PUSH1 0xD PUSH1 0x24 DUP3 ADD MSTORE PUSH13 0x496E76616C6964207072696365 PUSH1 0x98 SHL PUSH1 0x44 DUP3 ADD MSTORE PUSH1 0x64 SWAP1 REVERT JUMPDEST SWAP1 DUP2 PUSH1 0x20 SWAP2 SUB SLT PUSH2 0x247D JUMPI MLOAD PUSH1 0xFF DUP2 AND DUP2 SUB PUSH2 0x247D JUMPI SWAP1 JUMP JUMPDEST PUSH1 0xFF AND PUSH1 0x4D DUP2 GT PUSH2 0x3090 JUMPI PUSH1 0xA EXP SWAP1 JUMP JUMPDEST PUSH1 0x0 DUP1 DUP1 MSTORE PUSH1 0x20 DUP2 SWAP1 MSTORE PUSH32 0xAD3228B676F7D3CD4284A5443F17F1962B36E491B30A40B2405849E597BA5FB5 SLOAD SWAP1 SWAP2 SWAP1 PUSH1 0x1 PUSH1 0x1 PUSH1 0xA0 SHL SUB AND PUSH2 0x4A4E DUP2 ISZERO ISZERO PUSH2 0x491B JUMP JUMPDEST PUSH1 0x40 MLOAD PUSH4 0x3FABE5A3 PUSH1 0xE2 SHL DUP2 MSTORE SWAP1 PUSH1 0xA0 DUP3 PUSH1 0x4 DUP2 DUP5 GAS STATICCALL SWAP2 DUP3 ISZERO PUSH2 0x248A JUMPI DUP5 SWAP3 PUSH2 0x4B10 JUMPI JUMPDEST POP PUSH1 0x20 PUSH1 0x4 SWAP2 PUSH2 0x4A84 DUP7 DUP6 SGT PUSH2 0x49A5 JUMP JUMPDEST PUSH1 0x40 MLOAD PUSH4 0x313CE567 PUSH1 0xE0 SHL DUP2 MSTORE SWAP3 DUP4 SWAP2 DUP3 SWAP1 GAS STATICCALL SWAP1 DUP2 ISZERO PUSH2 0x248A JUMPI DUP5 SWAP2 PUSH2 0x4AF1 JUMPI JUMPDEST POP PUSH8 0xDE0B6B3A7640000 SWAP4 DUP5 DUP4 MUL SWAP3 DUP1 DUP5 DIV DUP7 EQ SWAP1 ISZERO OR ISZERO PUSH2 0x4ADD JUMPI POP PUSH2 0x4AD9 SWAP3 SWAP2 PUSH2 0x158C PUSH2 0x4AD4 SWAP3 PUSH2 0x49FA JUMP JUMPDEST PUSH2 0x440B JUMP JUMPDEST DIV SWAP1 JUMP JUMPDEST PUSH4 0x4E487B71 PUSH1 0xE0 SHL DUP2 MSTORE PUSH1 0x11 PUSH1 0x4 MSTORE PUSH1 0x24 SWAP1 REVERT JUMPDEST PUSH2 0x4B0A SWAP2 POP PUSH1 0x20 RETURNDATASIZE PUSH1 0x20 GT PUSH2 0x1669 JUMPI PUSH2 0x165A DUP2 DUP4 PUSH2 0x4226 JUMP JUMPDEST CODESIZE PUSH2 0x4AA6 JUMP JUMPDEST PUSH1 0x4 SWAP2 SWAP3 POP PUSH2 0x4B2F PUSH1 0x20 SWAP2 PUSH1 0xA0 RETURNDATASIZE PUSH1 0xA0 GT PUSH2 0x16AA JUMPI PUSH2 0x1696 DUP2 DUP4 PUSH2 0x4226 JUMP JUMPDEST POP POP POP SWAP1 POP SWAP3 SWAP2 POP PUSH2 0x4A73 JUMP JUMPDEST SWAP1 PUSH1 0x1 DUP1 PUSH1 0xA0 SHL SUB DUP1 PUSH1 0x0 SWAP4 AND DUP4 MSTORE DUP3 PUSH1 0x20 MSTORE PUSH1 0x40 DUP4 KECCAK256 SLOAD AND PUSH2 0x4A4E DUP2 ISZERO ISZERO PUSH2 0x491B JUMP JUMPDEST PUSH1 0x0 DUP1 MLOAD PUSH1 0x20 PUSH2 0x5061 DUP4 CODECOPY DUP2 MLOAD SWAP2 MSTORE PUSH1 0x2 DUP2 SLOAD EQ PUSH2 0x4B7E JUMPI PUSH1 0x2 SWAP1 SSTORE JUMP JUMPDEST PUSH1 0x40 MLOAD PUSH4 0x3EE5AEB5 PUSH1 0xE0 SHL DUP2 MSTORE PUSH1 0x4 SWAP1 REVERT JUMPDEST PUSH1 0x0 DUP1 MLOAD PUSH1 0x20 PUSH2 0x5021 DUP4 CODECOPY DUP2 MLOAD SWAP2 MSTORE SLOAD PUSH1 0x1 PUSH1 0x1 PUSH1 0xA0 SHL SUB AND CALLER SUB PUSH2 0x4BB1 JUMPI JUMP JUMPDEST PUSH1 0x40 MLOAD PUSH4 0x118CDAA7 PUSH1 0xE0 SHL DUP2 MSTORE CALLER PUSH1 0x4 DUP3 ADD MSTORE PUSH1 0x24 SWAP1 REVERT JUMPDEST RETURNDATASIZE ISZERO PUSH2 0x4BF4 JUMPI RETURNDATASIZE SWAP1 PUSH2 0x4BDA DUP3 PUSH2 0x4247 JUMP JUMPDEST SWAP2 PUSH2 0x4BE8 PUSH1 0x40 MLOAD SWAP4 DUP5 PUSH2 0x4226 JUMP JUMPDEST DUP3 MSTORE RETURNDATASIZE PUSH1 0x0 PUSH1 0x20 DUP5 ADD RETURNDATACOPY JUMP JUMPDEST PUSH1 0x60 SWAP1 JUMP JUMPDEST PUSH1 0x1 PUSH1 0x1 PUSH1 0xA0 SHL SUB SWAP2 DUP3 AND DUP1 PUSH2 0x4C5E JUMPI POP PUSH1 0x0 DUP1 SWAP4 DUP2 SWAP4 DUP3 SWAP4 AND GAS CALL PUSH2 0x4C1D PUSH2 0x4BC9 JUMP JUMPDEST POP ISZERO PUSH2 0x4C25 JUMPI JUMP JUMPDEST PUSH1 0x40 MLOAD PUSH3 0x461BCD PUSH1 0xE5 SHL DUP2 MSTORE PUSH1 0x20 PUSH1 0x4 DUP3 ADD MSTORE PUSH1 0x11 PUSH1 0x24 DUP3 ADD MSTORE PUSH17 0x115512081C99599D5B990819985A5B1959 PUSH1 0x7A SHL PUSH1 0x44 DUP3 ADD MSTORE PUSH1 0x64 SWAP1 REVERT JUMPDEST PUSH1 0x40 MLOAD PUSH4 0xA9059CBB PUSH1 0xE0 SHL DUP2 MSTORE PUSH1 0x1 PUSH1 0x1 PUSH1 0xA0 SHL SUB SWAP3 SWAP1 SWAP3 AND PUSH1 0x4 DUP4 ADD MSTORE PUSH1 0x24 DUP3 ADD SWAP4 SWAP1 SWAP4 MSTORE SWAP2 PUSH1 0x20 SWAP2 POP DUP3 SWAP1 PUSH1 0x44 SWAP1 DUP3 SWAP1 PUSH1 0x0 SWAP1 GAS CALL SWAP1 DUP2 ISZERO PUSH2 0x306E JUMPI PUSH1 0x0 SWAP2 PUSH2 0x4CE7 JUMPI JUMPDEST POP ISZERO PUSH2 0x4CAC JUMPI JUMP JUMPDEST PUSH1 0x40 MLOAD PUSH3 0x461BCD PUSH1 0xE5 SHL DUP2 MSTORE PUSH1 0x20 PUSH1 0x4 DUP3 ADD MSTORE PUSH1 0x13 PUSH1 0x24 DUP3 ADD MSTORE PUSH19 0x151BDAD95B881C99599D5B990819985A5B1959 PUSH1 0x6A SHL PUSH1 0x44 DUP3 ADD MSTORE PUSH1 0x64 SWAP1 REVERT JUMPDEST PUSH2 0x4D00 SWAP2 POP PUSH1 0x20 RETURNDATASIZE PUSH1 0x20 GT PUSH2 0x80E JUMPI PUSH2 0x7FF DUP2 DUP4 PUSH2 0x4226 JUMP JUMPDEST CODESIZE PUSH2 0x4CA4 JUMP JUMPDEST PUSH1 0x0 SWAP1 DUP2 MSTORE PUSH1 0x7 PUSH1 0x20 MSTORE PUSH1 0x40 DUP2 KECCAK256 PUSH1 0x40 MLOAD SWAP1 PUSH2 0x4D21 DUP3 PUSH2 0x41C0 JUMP JUMPDEST PUSH1 0xFF DUP2 SLOAD AND PUSH1 0x3 DUP2 LT ISZERO PUSH2 0x4DE4 JUMPI DUP3 MSTORE PUSH1 0x1 SWAP2 PUSH1 0x1 DUP3 ADD SLOAD PUSH1 0x20 DUP3 ADD MSTORE PUSH1 0x2 DUP3 ADD SLOAD PUSH1 0x40 DUP3 ADD MSTORE PUSH1 0x3 DUP3 ADD SLOAD PUSH1 0x60 DUP3 ADD MSTORE PUSH1 0xFF PUSH1 0x4 DUP4 ADD SLOAD AND ISZERO ISZERO PUSH1 0x80 DUP3 ADD MSTORE PUSH1 0x5 DUP3 ADD SLOAD PUSH1 0xA0 DUP3 ADD MSTORE PUSH1 0xFF PUSH1 0x7 PUSH2 0x4D7B PUSH1 0x6 DUP6 ADD PUSH2 0x4346 JUMP JUMPDEST SWAP4 PUSH1 0xC0 DUP5 ADD SWAP5 DUP6 MSTORE ADD SLOAD AND ISZERO SWAP1 PUSH1 0xE0 DUP3 ISZERO SWAP2 ADD MSTORE PUSH2 0x4DDC JUMPI DUP3 DUP3 JUMPDEST PUSH2 0x4DA1 JUMPI JUMPDEST POP POP POP SWAP1 JUMP JUMPDEST DUP2 MLOAD DUP1 MLOAD DUP3 LT ISZERO PUSH2 0x4DD6 JUMPI PUSH1 0x1 PUSH1 0x1 PUSH1 0xA0 SHL SUB SWAP1 PUSH2 0x4DC0 SWAP1 DUP4 SWAP1 PUSH2 0x473C JUMP JUMPDEST MLOAD AND ISZERO PUSH2 0x4DCF JUMPI DUP3 ADD DUP3 PUSH2 0x4D96 JUMP JUMPDEST POP POP SWAP1 POP SWAP1 JUMP JUMPDEST POP PUSH2 0x4D9B JUMP JUMPDEST POP POP POP PUSH1 0x1 SWAP1 JUMP JUMPDEST PUSH4 0x4E487B71 PUSH1 0xE0 SHL DUP5 MSTORE PUSH1 0x21 PUSH1 0x4 MSTORE PUSH1 0x24 DUP5 REVERT JUMPDEST SWAP1 PUSH1 0x0 SWAP2 DUP3 MSTORE PUSH1 0x7 PUSH1 0x20 MSTORE PUSH1 0x40 DUP3 KECCAK256 PUSH1 0x40 MLOAD SWAP2 PUSH2 0x4E14 DUP4 PUSH2 0x41C0 JUMP JUMPDEST PUSH1 0xFF DUP3 SLOAD AND PUSH1 0x3 DUP2 LT ISZERO PUSH2 0x3D7B JUMPI DUP4 MSTORE PUSH1 0x1 SWAP3 PUSH1 0x1 DUP4 ADD SLOAD PUSH1 0x20 DUP3 ADD MSTORE PUSH1 0x2 DUP4 ADD SLOAD PUSH1 0x40 DUP3 ADD MSTORE PUSH1 0x3 DUP4 ADD SLOAD PUSH1 0x60 DUP3 ADD MSTORE PUSH1 0xFF PUSH1 0x4 DUP5 ADD SLOAD AND ISZERO ISZERO PUSH1 0x80 DUP3 ADD MSTORE PUSH1 0x5 DUP4 ADD SLOAD PUSH1 0xA0 DUP3 ADD MSTORE PUSH1 0xFF PUSH1 0x7 PUSH2 0x4E6E PUSH1 0x6 DUP7 ADD PUSH2 0x4346 JUMP JUMPDEST SWAP5 PUSH1 0xC0 DUP5 ADD SWAP6 DUP7 MSTORE ADD SLOAD AND ISZERO SWAP1 PUSH1 0xE0 DUP3 ISZERO SWAP2 ADD MSTORE PUSH2 0x4EDB JUMPI DUP4 SWAP3 SWAP2 DUP3 JUMPDEST PUSH2 0x4E98 JUMPI JUMPDEST POP POP POP SWAP1 POP SWAP1 JUMP JUMPDEST DUP1 MLOAD DUP1 MLOAD DUP7 LT ISZERO PUSH2 0x4ED5 JUMPI PUSH1 0x1 PUSH1 0x1 PUSH1 0xA0 SHL SUB SWAP1 DUP2 SWAP1 PUSH2 0x4EB9 SWAP1 DUP9 SWAP1 PUSH2 0x473C JUMP JUMPDEST MLOAD AND SWAP1 DUP4 AND EQ PUSH2 0x4ECD JUMPI SWAP4 DUP3 ADD SWAP4 DUP3 PUSH2 0x4E8B JUMP JUMPDEST POP POP SWAP2 POP POP SWAP1 JUMP JUMPDEST POP PUSH2 0x4E90 JUMP JUMPDEST POP POP POP POP PUSH1 0x1 SWAP1 JUMP JUMPDEST ISZERO PUSH2 0x4EEB JUMPI JUMP JUMPDEST PUSH1 0x40 MLOAD PUSH3 0x461BCD PUSH1 0xE5 SHL DUP2 MSTORE PUSH1 0x20 PUSH1 0x4 DUP3 ADD MSTORE PUSH1 0x18 PUSH1 0x24 DUP3 ADD MSTORE PUSH32 0x5061796D656E7420746F2073656C6C6572206661696C65640000000000000000 PUSH1 0x44 DUP3 ADD MSTORE PUSH1 0x64 SWAP1 REVERT JUMPDEST ISZERO PUSH2 0x4F37 JUMPI JUMP JUMPDEST PUSH1 0x40 MLOAD PUSH3 0x461BCD PUSH1 0xE5 SHL DUP2 MSTORE PUSH1 0x20 PUSH1 0x4 DUP3 ADD MSTORE PUSH1 0x1C PUSH1 0x24 DUP3 ADD MSTORE PUSH32 0x506C6174666F726D20666565207472616E73666572206661696C656400000000 PUSH1 0x44 DUP3 ADD MSTORE PUSH1 0x64 SWAP1 REVERT JUMPDEST PUSH1 0xFF PUSH32 0xF0C57E16840DF040F15088DC2F81FE391C3923BEC73E23A9662EFC9C229C6A00 SLOAD PUSH1 0x40 SHR AND ISZERO PUSH2 0x4FAB JUMPI JUMP JUMPDEST PUSH1 0x40 MLOAD PUSH4 0x1AFCD79F PUSH1 0xE3 SHL DUP2 MSTORE PUSH1 0x4 SWAP1 REVERT JUMPDEST SWAP1 PUSH2 0x4FE4 JUMPI POP DUP1 MLOAD ISZERO PUSH2 0x4FD2 JUMPI PUSH1 0x20 DUP2 MLOAD SWAP2 ADD REVERT JUMPDEST PUSH1 0x40 MLOAD PUSH4 0xD6BDA275 PUSH1 0xE0 SHL DUP2 MSTORE PUSH1 0x4 SWAP1 REVERT JUMPDEST DUP2 MLOAD ISZERO DUP1 PUSH2 0x5017 JUMPI JUMPDEST PUSH2 0x4FF5 JUMPI POP SWAP1 JUMP JUMPDEST PUSH1 0x40 MLOAD PUSH4 0x9996B315 PUSH1 0xE0 SHL DUP2 MSTORE PUSH1 0x1 PUSH1 0x1 PUSH1 0xA0 SHL SUB SWAP1 SWAP2 AND PUSH1 0x4 DUP3 ADD MSTORE PUSH1 0x24 SWAP1 REVERT JUMPDEST POP DUP1 EXTCODESIZE ISZERO PUSH2 0x4FED JUMP INVALID SWAP1 AND 0xD0 SWAP14 PUSH19 0xD40FDAE2FD8CEAC6B6234C7706214FD39C1CD1 0xE6 MULMOD LOG0 MSTORE DUP13 NOT SWAP4 STOP 0xBB PUSH8 0x64412C29916BDF4A 0x5C PUSH16 0xE6B1C079DE35682160B2289928CE003A 0xB4 MSIZE 0xA7 0x49 SWAP12 PUSH24 0x9B17422D0DF92223018B32B4D1FA46E071723D6817E2486D STOP EXTCODESIZE 0xEC 0xC5 PUSH0 STOP LOG2 PUSH5 0x6970667358 0x22 SLT KECCAK256 EXTCODESIZE 0xB7 0xF7 DUP8 DUP16 SWAP7 0xDA 0x25 0xEA COINBASE 0xE8 0x5C 0xAD PUSH26 0xA71E85C30628D3479192C70DB11512BF8D2164736F6C63430008 AND STOP CALLER "},"gasEstimates":{"creation":{"codeDepositCost":"4132400","executionCost":"infinite","totalCost":"infinite"},"external":{"MAX_AUCTION_DURATION()":"317","MIN_AUCTION_DURATION()":"1021","UPGRADE_INTERFACE_VERSION()":"infinite","auctionParticipants(uint256,uint256)":"6786","auctionStats(uint256)":"9231","auctions(uint256)":"23985","auctionsV2(uint256)":"16053","batchCreateAuctions((uint256,uint256,uint256,address,uint256[],uint8,uint256))":"infinite","bidRecords(uint256,address)":"2860","buyNow(uint256,address)":"infinite","commitSealedBid(uint256,bytes32)":"infinite","createAuction(uint256,uint256,uint256,address,uint256)":"infinite","createAuctionV2(uint256,uint256,uint256,address,uint256,uint8,uint256,uint256,address[])":"infinite","crossChainBridge()":"3082","emergencyCancelAuction(uint256)":"infinite","endAuction(uint256)":"infinite","feeRecipient()":"2488","getAuction(uint256)":"infinite","getAuctionParticipants(uint256)":"infinite","getAuctionStats(uint256)":"infinite","getDutchAuctionCurrentPrice(uint256)":"infinite","getTimeRemaining(uint256)":"24587","getTokenPriceInUSD(address,uint256)":"infinite","getUserBidAmount(uint256,address)":"3124","getUserParticipatedAuctions(address)":"infinite","getUserWonAuctions(address)":"infinite","initialize()":"infinite","initializeV2()":"25824","isAuctionActive(uint256)":"24926","nextAuctionId()":"3278","onERC721Received(address,address,uint256,bytes)":"481","owner()":"infinite","placeBidWithETH(uint256)":"infinite","placeBidWithToken(uint256,address,uint256)":"infinite","platformFeeRate()":"3234","priceFeeds(address)":"3133","proxiableUUID()":"infinite","renounceOwnership()":"infinite","revealSealedBid(uint256,uint256,address,uint256)":"infinite","sealedBids(uint256,address)":"11007","setCrossChainBridge(address)":"infinite","setFeeRecipient(address)":"infinite","setPlatformFeeRate(uint256)":"infinite","setPriceFeed(address,address)":"infinite","transferOwnership(address)":"infinite","upgradeToAndCall(address,bytes)":"infinite","userParticipatedAuctions(address,uint256)":"7683","userWonAuctions(address,uint256)":"7507"},"internal":{"_calculateTokenAmount(address,uint256)":"infinite","_isTokenWhitelisted(uint256,address)":"infinite","_placeBid(uint256,address,uint256,uint256)":"infinite"}},"methodIdentifiers":{"MAX_AUCTION_DURATION()":"3fb35178","MIN_AUCTION_DURATION()":"c2f50a7a","UPGRADE_INTERFACE_VERSION()":"ad3cb1cc","auctionParticipants(uint256,uint256)":"1fd95ac9","auctionStats(uint256)":"866a2f71","auctions(uint256)":"571a26a0","auctionsV2(uint256)":"c65feb27","batchCreateAuctions((uint256,uint256,uint256,address,uint256[],uint8,uint256))":"6c3203ef","bidRecords(uint256,address)":"6ce0572e","buyNow(uint256,address)":"8f347257","commitSealedBid(uint256,bytes32)":"283a4218","createAuction(uint256,uint256,uint256,address,uint256)":"9bfd3b38","createAuctionV2(uint256,uint256,uint256,address,uint256,uint8,uint256,uint256,address[])":"8ca9ccba","crossChainBridge()":"b3e26566","emergencyCancelAuction(uint256)":"2ae11ca8","endAuction(uint256)":"b9a2de3a","feeRecipient()":"46904840","getAuction(uint256)":"78bd7935","getAuctionParticipants(uint256)":"a11d0dc4","getAuctionStats(uint256)":"8bc31a35","getDutchAuctionCurrentPrice(uint256)":"1be66284","getTimeRemaining(uint256)":"8cd42991","getTokenPriceInUSD(address,uint256)":"fc927400","getUserBidAmount(uint256,address)":"91dad307","getUserParticipatedAuctions(address)":"bd9ff32b","getUserWonAuctions(address)":"45cdba45","initialize()":"8129fc1c","initializeV2()":"5cd8a76b","isAuctionActive(uint256)":"e71f7b15","nextAuctionId()":"fc528482","onERC721Received(address,address,uint256,bytes)":"150b7a02","owner()":"8da5cb5b","placeBidWithETH(uint256)":"4a5e0051","placeBidWithToken(uint256,address,uint256)":"2184630e","platformFeeRate()":"eeca08f0","priceFeeds(address)":"9dcb511a","proxiableUUID()":"52d1902d","renounceOwnership()":"715018a6","revealSealedBid(uint256,uint256,address,uint256)":"4e2d7f39","sealedBids(uint256,address)":"03700a5e","setCrossChainBridge(address)":"7f0ebb03","setFeeRecipient(address)":"e74b981b","setPlatformFeeRate(uint256)":"927fef2e","setPriceFeed(address,address)":"76e11286","transferOwnership(address)":"f2fde38b","upgradeToAndCall(address,bytes)":"4f1ef286","userParticipatedAuctions(address,uint256)":"ded75d79","userWonAuctions(address,uint256)":"a0c048fa"}},"storageLayout":{"storage":[{"astId":1883,"contract":"contracts/task3/NFTAuctionPlatformV2.sol:NFTAuctionPlatformV2","label":"priceFeeds","offset":0,"slot":"0","type":"t_mapping(t_address,t_contract(AggregatorV3Interface)45)"},{"astId":1885,"contract":"contracts/task3/NFTAuctionPlatformV2.sol:NFTAuctionPlatformV2","label":"crossChainBridge","offset":0,"slot":"1","type":"t_address"},{"astId":1890,"contract":"contracts/task3/NFTAuctionPlatformV2.sol:NFTAuctionPlatformV2","label":"auctions","offset":0,"slot":"2","type":"t_mapping(t_uint256,t_struct(Auction)1878_storage)"},{"astId":1892,"contract":"contracts/task3/NFTAuctionPlatformV2.sol:NFTAuctionPlatformV2","label":"nextAuctionId","offset":0,"slot":"3","type":"t_uint256"},{"astId":1898,"contract":"contracts/task3/NFTAuctionPlatformV2.sol:NFTAuctionPlatformV2","label":"bidRecords","offset":0,"slot":"4","type":"t_mapping(t_uint256,t_mapping(t_address,t_uint256))"},{"astId":1900,"contract":"contracts/task3/NFTAuctionPlatformV2.sol:NFTAuctionPlatformV2","label":"platformFeeRate","offset":0,"slot":"5","type":"t_uint256"},{"astId":1902,"contract":"contracts/task3/NFTAuctionPlatformV2.sol:NFTAuctionPlatformV2","label":"feeRecipient","offset":0,"slot":"6","type":"t_address"},{"astId":3184,"contract":"contracts/task3/NFTAuctionPlatformV2.sol:NFTAuctionPlatformV2","label":"auctionsV2","offset":0,"slot":"7","type":"t_mapping(t_uint256,t_struct(AuctionV2)3168_storage)"},{"astId":3191,"contract":"contracts/task3/NFTAuctionPlatformV2.sol:NFTAuctionPlatformV2","label":"sealedBids","offset":0,"slot":"8","type":"t_mapping(t_uint256,t_mapping(t_address,t_struct(SealedBid)3179_storage))"},{"astId":3196,"contract":"contracts/task3/NFTAuctionPlatformV2.sol:NFTAuctionPlatformV2","label":"auctionParticipants","offset":0,"slot":"9","type":"t_mapping(t_uint256,t_array(t_address)dyn_storage)"},{"astId":3210,"contract":"contracts/task3/NFTAuctionPlatformV2.sol:NFTAuctionPlatformV2","label":"auctionStats","offset":0,"slot":"10","type":"t_mapping(t_uint256,t_struct(AuctionStats)3205_storage)"},{"astId":3215,"contract":"contracts/task3/NFTAuctionPlatformV2.sol:NFTAuctionPlatformV2","label":"userParticipatedAuctions","offset":0,"slot":"11","type":"t_mapping(t_address,t_array(t_uint256)dyn_storage)"},{"astId":3220,"contract":"contracts/task3/NFTAuctionPlatformV2.sol:NFTAuctionPlatformV2","label":"userWonAuctions","offset":0,"slot":"12","type":"t_mapping(t_address,t_array(t_uint256)dyn_storage)"}],"types":{"t_address":{"encoding":"inplace","label":"address","numberOfBytes":"20"},"t_array(t_address)dyn_storage":{"base":"t_address","encoding":"dynamic_array","label":"address[]","numberOfBytes":"32"},"t_array(t_uint256)dyn_storage":{"base":"t_uint256","encoding":"dynamic_array","label":"uint256[]","numberOfBytes":"32"},"t_bool":{"encoding":"inplace","label":"bool","numberOfBytes":"1"},"t_bytes32":{"encoding":"inplace","label":"bytes32","numberOfBytes":"32"},"t_contract(AggregatorV3Interface)45":{"encoding":"inplace","label":"contract AggregatorV3Interface","numberOfBytes":"20"},"t_enum(AuctionType)3149":{"encoding":"inplace","label":"enum NFTAuctionPlatformV2.AuctionType","numberOfBytes":"1"},"t_mapping(t_address,t_array(t_uint256)dyn_storage)":{"encoding":"mapping","key":"t_address","label":"mapping(address => uint256[])","numberOfBytes":"32","value":"t_array(t_uint256)dyn_storage"},"t_mapping(t_address,t_contract(AggregatorV3Interface)45)":{"encoding":"mapping","key":"t_address","label":"mapping(address => contract AggregatorV3Interface)","numberOfBytes":"32","value":"t_contract(AggregatorV3Interface)45"},"t_mapping(t_address,t_struct(SealedBid)3179_storage)":{"encoding":"mapping","key":"t_address","label":"mapping(address => struct NFTAuctionPlatformV2.SealedBid)","numberOfBytes":"32","value":"t_struct(SealedBid)3179_storage"},"t_mapping(t_address,t_uint256)":{"encoding":"mapping","key":"t_address","label":"mapping(address => uint256)","numberOfBytes":"32","value":"t_uint256"},"t_mapping(t_uint256,t_array(t_address)dyn_storage)":{"encoding":"mapping","key":"t_uint256","label":"mapping(uint256 => address[])","numberOfBytes":"32","value":"t_array(t_address)dyn_storage"},"t_mapping(t_uint256,t_mapping(t_address,t_struct(SealedBid)3179_storage))":{"encoding":"mapping","key":"t_uint256","label":"mapping(uint256 => mapping(address => struct NFTAuctionPlatformV2.SealedBid))","numberOfBytes":"32","value":"t_mapping(t_address,t_struct(SealedBid)3179_storage)"},"t_mapping(t_uint256,t_mapping(t_address,t_uint256))":{"encoding":"mapping","key":"t_uint256","label":"mapping(uint256 => mapping(address => uint256))","numberOfBytes":"32","value":"t_mapping(t_address,t_uint256)"},"t_mapping(t_uint256,t_struct(Auction)1878_storage)":{"encoding":"mapping","key":"t_uint256","label":"mapping(uint256 => struct NFTAuctionPlatform.Auction)","numberOfBytes":"32","value":"t_struct(Auction)1878_storage"},"t_mapping(t_uint256,t_struct(AuctionStats)3205_storage)":{"encoding":"mapping","key":"t_uint256","label":"mapping(uint256 => struct NFTAuctionPlatformV2.AuctionStats)","numberOfBytes":"32","value":"t_struct(AuctionStats)3205_storage"},"t_mapping(t_uint256,t_struct(AuctionV2)3168_storage)":{"encoding":"mapping","key":"t_uint256","label":"mapping(uint256 => struct NFTAuctionPlatformV2.AuctionV2)","numberOfBytes":"32","value":"t_struct(AuctionV2)3168_storage"},"t_struct(Auction)1878_storage":{"encoding":"inplace","label":"struct NFTAuctionPlatform.Auction","members":[{"astId":1855,"contract":"contracts/task3/NFTAuctionPlatformV2.sol:NFTAuctionPlatformV2","label":"seller","offset":0,"slot":"0","type":"t_address"},{"astId":1857,"contract":"contracts/task3/NFTAuctionPlatformV2.sol:NFTAuctionPlatformV2","label":"duration","offset":0,"slot":"1","type":"t_uint256"},{"astId":1859,"contract":"contracts/task3/NFTAuctionPlatformV2.sol:NFTAuctionPlatformV2","label":"startPrice","offset":0,"slot":"2","type":"t_uint256"},{"astId":1861,"contract":"contracts/task3/NFTAuctionPlatformV2.sol:NFTAuctionPlatformV2","label":"startTime","offset":0,"slot":"3","type":"t_uint256"},{"astId":1863,"contract":"contracts/task3/NFTAuctionPlatformV2.sol:NFTAuctionPlatformV2","label":"ended","offset":0,"slot":"4","type":"t_bool"},{"astId":1865,"contract":"contracts/task3/NFTAuctionPlatformV2.sol:NFTAuctionPlatformV2","label":"highestBidder","offset":1,"slot":"4","type":"t_address"},{"astId":1867,"contract":"contracts/task3/NFTAuctionPlatformV2.sol:NFTAuctionPlatformV2","label":"highestBid","offset":0,"slot":"5","type":"t_uint256"},{"astId":1869,"contract":"contracts/task3/NFTAuctionPlatformV2.sol:NFTAuctionPlatformV2","label":"nftContract","offset":0,"slot":"6","type":"t_address"},{"astId":1871,"contract":"contracts/task3/NFTAuctionPlatformV2.sol:NFTAuctionPlatformV2","label":"tokenId","offset":0,"slot":"7","type":"t_uint256"},{"astId":1873,"contract":"contracts/task3/NFTAuctionPlatformV2.sol:NFTAuctionPlatformV2","label":"bidToken","offset":0,"slot":"8","type":"t_address"},{"astId":1875,"contract":"contracts/task3/NFTAuctionPlatformV2.sol:NFTAuctionPlatformV2","label":"originalBidAmount","offset":0,"slot":"9","type":"t_uint256"},{"astId":1877,"contract":"contracts/task3/NFTAuctionPlatformV2.sol:NFTAuctionPlatformV2","label":"reservePrice","offset":0,"slot":"10","type":"t_uint256"}],"numberOfBytes":"352"},"t_struct(AuctionStats)3205_storage":{"encoding":"inplace","label":"struct NFTAuctionPlatformV2.AuctionStats","members":[{"astId":3198,"contract":"contracts/task3/NFTAuctionPlatformV2.sol:NFTAuctionPlatformV2","label":"totalBids","offset":0,"slot":"0","type":"t_uint256"},{"astId":3200,"contract":"contracts/task3/NFTAuctionPlatformV2.sol:NFTAuctionPlatformV2","label":"uniqueBidders","offset":0,"slot":"1","type":"t_uint256"},{"astId":3202,"contract":"contracts/task3/NFTAuctionPlatformV2.sol:NFTAuctionPlatformV2","label":"averageBidAmount","offset":0,"slot":"2","type":"t_uint256"},{"astId":3204,"contract":"contracts/task3/NFTAuctionPlatformV2.sol:NFTAuctionPlatformV2","label":"lastBidTime","offset":0,"slot":"3","type":"t_uint256"}],"numberOfBytes":"128"},"t_struct(AuctionV2)3168_storage":{"encoding":"inplace","label":"struct NFTAuctionPlatformV2.AuctionV2","members":[{"astId":3152,"contract":"contracts/task3/NFTAuctionPlatformV2.sol:NFTAuctionPlatformV2","label":"auctionType","offset":0,"slot":"0","type":"t_enum(AuctionType)3149"},{"astId":3154,"contract":"contracts/task3/NFTAuctionPlatformV2.sol:NFTAuctionPlatformV2","label":"decreaseRate","offset":0,"slot":"1","type":"t_uint256"},{"astId":3156,"contract":"contracts/task3/NFTAuctionPlatformV2.sol:NFTAuctionPlatformV2","label":"revealDeadline","offset":0,"slot":"2","type":"t_uint256"},{"astId":3158,"contract":"contracts/task3/NFTAuctionPlatformV2.sol:NFTAuctionPlatformV2","label":"buyNowPrice","offset":0,"slot":"3","type":"t_uint256"},{"astId":3160,"contract":"contracts/task3/NFTAuctionPlatformV2.sol:NFTAuctionPlatformV2","label":"allowBuyNow","offset":0,"slot":"4","type":"t_bool"},{"astId":3162,"contract":"contracts/task3/NFTAuctionPlatformV2.sol:NFTAuctionPlatformV2","label":"minimumBidIncrement","offset":0,"slot":"5","type":"t_uint256"},{"astId":3165,"contract":"contracts/task3/NFTAuctionPlatformV2.sol:NFTAuctionPlatformV2","label":"bidTokenWhitelist","offset":0,"slot":"6","type":"t_array(t_address)dyn_storage"},{"astId":3167,"contract":"contracts/task3/NFTAuctionPlatformV2.sol:NFTAuctionPlatformV2","label":"isWhitelistEnabled","offset":0,"slot":"7","type":"t_bool"}],"numberOfBytes":"256"},"t_struct(SealedBid)3179_storage":{"encoding":"inplace","label":"struct NFTAuctionPlatformV2.SealedBid","members":[{"astId":3170,"contract":"contracts/task3/NFTAuctionPlatformV2.sol:NFTAuctionPlatformV2","label":"commitment","offset":0,"slot":"0","type":"t_bytes32"},{"astId":3172,"contract":"contracts/task3/NFTAuctionPlatformV2.sol:NFTAuctionPlatformV2","label":"deposit","offset":0,"slot":"1","type":"t_uint256"},{"astId":3174,"contract":"contracts/task3/NFTAuctionPlatformV2.sol:NFTAuctionPlatformV2","label":"revealed","offset":0,"slot":"2","type":"t_bool"},{"astId":3176,"contract":"contracts/task3/NFTAuctionPlatformV2.sol:NFTAuctionPlatformV2","label":"actualBid","offset":0,"slot":"3","type":"t_uint256"},{"astId":3178,"contract":"contracts/task3/NFTAuctionPlatformV2.sol:NFTAuctionPlatformV2","label":"bidToken","offset":0,"slot":"4","type":"t_address"}],"numberOfBytes":"160"},"t_uint256":{"encoding":"inplace","label":"uint256","numberOfBytes":"32"}}},"userdoc":{"kind":"user","methods":{},"version":1}}}}