{
  "_format": "hh-sol-artifact-1",
  "contractName": "MockLinkToken",
  "sourceName": "contracts/task3/MockLinkToken.sol",
  "abi": [
    {
      "inputs": [],
      "stateMutability": "nonpayable",
      "type": "constructor"
    },
    {
      "inputs": [
        {
          "internalType": "address",
          "name": "spender",
          "type": "address"
        },
        {
          "internalType": "uint256",
          "name": "allowance",
          "type": "uint256"
        },
        {
          "internalType": "uint256",
          "name": "needed",
          "type": "uint256"
        }
      ],
      "name": "ERC20InsufficientAllowance",
      "type": "error"
    },
    {
      "inputs": [
        {
          "internalType": "address",
          "name": "sender",
          "type": "address"
        },
        {
          "internalType": "uint256",
          "name": "balance",
          "type": "uint256"
        },
        {
          "internalType": "uint256",
          "name": "needed",
          "type": "uint256"
        }
      ],
      "name": "ERC20InsufficientBalance",
      "type": "error"
    },
    {
      "inputs": [
        {
          "internalType": "address",
          "name": "approver",
          "type": "address"
        }
      ],
      "name": "ERC20InvalidApprover",
      "type": "error"
    },
    {
      "inputs": [
        {
          "internalType": "address",
          "name": "receiver",
          "type": "address"
        }
      ],
      "name": "ERC20InvalidReceiver",
      "type": "error"
    },
    {
      "inputs": [
        {
          "internalType": "address",
          "name": "sender",
          "type": "address"
        }
      ],
      "name": "ERC20InvalidSender",
      "type": "error"
    },
    {
      "inputs": [
        {
          "internalType": "address",
          "name": "spender",
          "type": "address"
        }
      ],
      "name": "ERC20InvalidSpender",
      "type": "error"
    },
    {
      "inputs": [
        {
          "internalType": "address",
          "name": "owner",
          "type": "address"
        }
      ],
      "name": "OwnableInvalidOwner",
      "type": "error"
    },
    {
      "inputs": [
        {
          "internalType": "address",
          "name": "account",
          "type": "address"
        }
      ],
      "name": "OwnableUnauthorizedAccount",
      "type": "error"
    },
    {
      "anonymous": false,
      "inputs": [
        {
          "indexed": true,
          "internalType": "address",
          "name": "owner",
          "type": "address"
        },
        {
          "indexed": true,
          "internalType": "address",
          "name": "spender",
          "type": "address"
        },
        {
          "indexed": false,
          "internalType": "uint256",
          "name": "value",
          "type": "uint256"
        }
      ],
      "name": "Approval",
      "type": "event"
    },
    {
      "anonymous": false,
      "inputs": [
        {
          "indexed": true,
          "internalType": "address",
          "name": "previousOwner",
          "type": "address"
        },
        {
          "indexed": true,
          "internalType": "address",
          "name": "newOwner",
          "type": "address"
        }
      ],
      "name": "OwnershipTransferred",
      "type": "event"
    },
    {
      "anonymous": false,
      "inputs": [
        {
          "indexed": true,
          "internalType": "address",
          "name": "from",
          "type": "address"
        },
        {
          "indexed": true,
          "internalType": "address",
          "name": "to",
          "type": "address"
        },
        {
          "indexed": false,
          "internalType": "uint256",
          "name": "value",
          "type": "uint256"
        }
      ],
      "name": "Transfer",
      "type": "event"
    },
    {
      "inputs": [
        {
          "internalType": "address",
          "name": "owner",
          "type": "address"
        },
        {
          "internalType": "address",
          "name": "spender",
          "type": "address"
        }
      ],
      "name": "allowance",
      "outputs": [
        {
          "internalType": "uint256",
          "name": "",
          "type": "uint256"
        }
      ],
      "stateMutability": "view",
      "type": "function"
    },
    {
      "inputs": [
        {
          "internalType": "address",
          "name": "spender",
          "type": "address"
        },
        {
          "internalType": "uint256",
          "name": "value",
          "type": "uint256"
        }
      ],
      "name": "approve",
      "outputs": [
        {
          "internalType": "bool",
          "name": "",
          "type": "bool"
        }
      ],
      "stateMutability": "nonpayable",
      "type": "function"
    },
    {
      "inputs": [
        {
          "internalType": "address",
          "name": "account",
          "type": "address"
        }
      ],
      "name": "balanceOf",
      "outputs": [
        {
          "internalType": "uint256",
          "name": "",
          "type": "uint256"
        }
      ],
      "stateMutability": "view",
      "type": "function"
    },
    {
      "inputs": [
        {
          "internalType": "address[]",
          "name": "recipients",
          "type": "address[]"
        },
        {
          "internalType": "uint256[]",
          "name": "amounts",
          "type": "uint256[]"
        }
      ],
      "name": "batchTransfer",
      "outputs": [],
      "stateMutability": "nonpayable",
      "type": "function"
    },
    {
      "inputs": [
        {
          "internalType": "uint256",
          "name": "amount",
          "type": "uint256"
        }
      ],
      "name": "burn",
      "outputs": [],
      "stateMutability": "nonpayable",
      "type": "function"
    },
    {
      "inputs": [],
      "name": "decimals",
      "outputs": [
        {
          "internalType": "uint8",
          "name": "",
          "type": "uint8"
        }
      ],
      "stateMutability": "view",
      "type": "function"
    },
    {
      "inputs": [
        {
          "internalType": "address",
          "name": "to",
          "type": "address"
        },
        {
          "internalType": "uint256",
          "name": "amount",
          "type": "uint256"
        }
      ],
      "name": "faucet",
      "outputs": [],
      "stateMutability": "nonpayable",
      "type": "function"
    },
    {
      "inputs": [
        {
          "internalType": "address",
          "name": "to",
          "type": "address"
        },
        {
          "internalType": "uint256",
          "name": "amount",
          "type": "uint256"
        }
      ],
      "name": "mint",
      "outputs": [],
      "stateMutability": "nonpayable",
      "type": "function"
    },
    {
      "inputs": [],
      "name": "name",
      "outputs": [
        {
          "internalType": "string",
          "name": "",
          "type": "string"
        }
      ],
      "stateMutability": "view",
      "type": "function"
    },
    {
      "inputs": [],
      "name": "owner",
      "outputs": [
        {
          "internalType": "address",
          "name": "",
          "type": "address"
        }
      ],
      "stateMutability": "view",
      "type": "function"
    },
    {
      "inputs": [],
      "name": "renounceOwnership",
      "outputs": [],
      "stateMutability": "nonpayable",
      "type": "function"
    },
    {
      "inputs": [],
      "name": "symbol",
      "outputs": [
        {
          "internalType": "string",
          "name": "",
          "type": "string"
        }
      ],
      "stateMutability": "view",
      "type": "function"
    },
    {
      "inputs": [],
      "name": "totalSupply",
      "outputs": [
        {
          "internalType": "uint256",
          "name": "",
          "type": "uint256"
        }
      ],
      "stateMutability": "view",
      "type": "function"
    },
    {
      "inputs": [
        {
          "internalType": "address",
          "name": "to",
          "type": "address"
        },
        {
          "internalType": "uint256",
          "name": "value",
          "type": "uint256"
        }
      ],
      "name": "transfer",
      "outputs": [
        {
          "internalType": "bool",
          "name": "",
          "type": "bool"
        }
      ],
      "stateMutability": "nonpayable",
      "type": "function"
    },
    {
      "inputs": [
        {
          "internalType": "address",
          "name": "from",
          "type": "address"
        },
        {
          "internalType": "address",
          "name": "to",
          "type": "address"
        },
        {
          "internalType": "uint256",
          "name": "value",
          "type": "uint256"
        }
      ],
      "name": "transferFrom",
      "outputs": [
        {
          "internalType": "bool",
          "name": "",
          "type": "bool"
        }
      ],
      "stateMutability": "nonpayable",
      "type": "function"
    },
    {
      "inputs": [
        {
          "internalType": "address",
          "name": "newOwner",
          "type": "address"
        }
      ],
      "name": "transferOwnership",
      "outputs": [],
      "stateMutability": "nonpayable",
      "type": "function"
    }
  ],
  "bytecode": "0x60803462000419576040906001600160401b03908083018281118282101762000403578352601481526020907f4d6f636b20436861696e4c696e6b20546f6b656e000000000000000000000000828201528351928484018481108282111762000403578552600493848152634c494e4b60e01b848201528251828111620003ee576003918254916001958684811c94168015620003e3575b88851014620003ce578190601f9485811162000378575b508890858311600114620003115760009262000305575b505060001982861b1c191690861b1783555b8051938411620002f05786548581811c91168015620002e5575b87821014620002d05782811162000285575b50859184116001146200021a579383949184926000956200020e575b50501b92600019911b1c19161782555b3315620001f75760058054336001600160a01b0319821681179092556001600160a01b03167f8be0079c531659141344cd1fd0a4f28419497f9722a3daafe3b4186f6b6457e0600080a36002546a084595161401484a00000092838201809211620001e257506000917fddf252ad1be2c89b69c2b068fc378daa952ba7f163c4a11628f55a4df523b3ef9160025533835282815284832084815401905584519384523393a351610b6590816200041f8239f35b601190634e487b7160e01b6000525260246000fd5b5060006024925191631e4fbdf760e01b8352820152fd5b0151935038806200011f565b9190601f198416928760005284876000209460005b89898383106200026d575050501062000252575b50505050811b0182556200012f565b01519060f884600019921b161c191690553880808062000243565b8686015189559097019694850194889350016200022f565b87600052866000208380870160051c820192898810620002c6575b0160051c019086905b828110620002b957505062000103565b60008155018690620002a9565b92508192620002a0565b602288634e487b7160e01b6000525260246000fd5b90607f1690620000f1565b604187634e487b7160e01b6000525260246000fd5b015190503880620000c5565b90889350601f19831691876000528a6000209260005b8c82821062000361575050841162000348575b505050811b018355620000d7565b015160001983881b60f8161c191690553880806200033a565b8385015186558c9790950194938401930162000327565b90915085600052886000208580850160051c8201928b8610620003c4575b918a91869594930160051c01915b828110620003b4575050620000ae565b600081558594508a9101620003a4565b9250819262000396565b602289634e487b7160e01b6000525260246000fd5b93607f169362000097565b604186634e487b7160e01b6000525260246000fd5b634e487b7160e01b600052604160045260246000fd5b600080fdfe6080604081815260048036101561001557600080fd5b600092833560e01c90816306fdde03146107e657508063095ea7b31461073d57806318160ddd1461071e57806323b872dd1461062b578063313ce5671461060f57806340c10f19146105e257806342966c681461052c57806370a08231146104f5578063715018a6146104955780637b56c2b21461041557806388d695b21461032e5780638da5cb5b1461030557806395d89b41146101e3578063a9059cbb146101b2578063dd62ed3e146101655763f2fde38b146100d357600080fd5b34610161576020366003190112610161576100ec610926565b906100f5610a8c565b6001600160a01b0391821692831561014b575050600554826bffffffffffffffffffffffff60a01b821617600555167f8be0079c531659141344cd1fd0a4f28419497f9722a3daafe3b4186f6b6457e08380a380f35b51631e4fbdf760e01b8152908101849052602490fd5b8280fd5b5050346101ae57806003193601126101ae5780602092610183610926565b61018b610941565b6001600160a01b0391821683526001865283832091168252845220549051908152f35b5080fd5b5050346101ae57806003193601126101ae576020906101dc6101d2610926565b60243590336109ae565b5160018152f35b509190346101ae57816003193601126101ae5780519082845460018160011c90600183169283156102fb575b60209384841081146102e8578388529081156102cc5750600114610277575b505050829003601f01601f191682019267ffffffffffffffff84118385101761026457508291826102609252826108dd565b0390f35b634e487b7160e01b815260418552602490fd5b8787529192508591837f8a35acfbc15ff81a39ae7d344fd709f28e8600b4aa8c65c6b64bfe7fe36bd19b5b8385106102b8575050505083010138808061022e565b8054888601830152930192849082016102a2565b60ff1916878501525050151560051b840101905038808061022e565b634e487b7160e01b895260228a52602489fd5b91607f169161020f565b5050346101ae57816003193601126101ae5760055490516001600160a01b039091168152602090f35b503461016157816003193601126101615767ffffffffffffffff9181358381116104115761035f9036908401610957565b909360243590811161040d576103789036908501610957565b9390928483036103d1575050845b818110610391578580f35b61039c818387610988565b35906001600160a01b03821682036103cd576103c76001926103bf838888610988565b3590336109ae565b01610386565b8680fd5b906020606492519162461bcd60e51b83528201526016602482015275082e4e4c2f2e640d8cadccee8d040dad2e6dac2e8c6d60531b6044820152fd5b8580fd5b8480fd5b508290346101ae57826003193601126101ae57610430610926565b60243591683635c9adc5dea00000831161045257509061044f91610ab8565b80f35b606490602086519162461bcd60e51b8352820152601860248201527f4d61782031303030204c494e4b207065722066617563657400000000000000006044820152fd5b83346104f257806003193601126104f2576104ae610a8c565b600580546001600160a01b0319811690915581906001600160a01b03167f8be0079c531659141344cd1fd0a4f28419497f9722a3daafe3b4186f6b6457e08280a380f35b80fd5b5050346101ae5760203660031901126101ae5760209181906001600160a01b0361051d610926565b16815280845220549051908152f35b509190346101ae5760203660031901126101ae5782359033156105cc573383528260205280832054938285106105a157508183943385528460205203818420558160025403600255519081527fddf252ad1be2c89b69c2b068fc378daa952ba7f163c4a11628f55a4df523b3ef60203392a380f35b905163391434e360e21b81523391810191825260208201859052604082018390529081906060010390fd5b51634b637e8f60e11b8152808401839052602490fd5b5050346101ae573660031901126104f25761044f6105fe610926565b610606610a8c565b60243590610ab8565b5050346101ae57816003193601126101ae576020905160128152f35b5082346104f25760603660031901126104f257610646610926565b61064e610941565b916044359360018060a01b03831680835260016020528683203384526020528683205491600019831061068a575b6020886101dc8989896109ae565b8683106106f25781156106db5733156106c4575082526001602090815286832033845281529186902090859003905582906101dc8761067c565b8751634a1406b160e11b8152908101849052602490fd5b875163e602df0560e01b8152908101849052602490fd5b8751637dc7a0d960e11b8152339181019182526020820193909352604081018790528291506060010390fd5b5050346101ae57816003193601126101ae576020906002549051908152f35b5034610161578160031936011261016157610756610926565b6024359033156107cf576001600160a01b03169182156107b857508083602095338152600187528181208582528752205582519081527f8c5be1e5ebec7d5bd14f71427d1e84f3dd0314c0f7b2291e5b200ac8c7c3b925843392a35160018152f35b8351634a1406b160e11b8152908101859052602490fd5b835163e602df0560e01b8152808401869052602490fd5b84915083346101615782600319360112610161578260035460018160011c90600183169283156108d3575b60209384841081146102e8578388529081156108b7575060011461086157505050829003601f01601f191682019267ffffffffffffffff84118385101761026457508291826102609252826108dd565b600387529192508591837fc2575a0e9e593c00f959f8c92f12db2869c3395a3b0502d05e2516446f71f85b5b8385106108a3575050505083010185808061022e565b80548886018301529301928490820161088d565b60ff1916878501525050151560051b840101905085808061022e565b91607f1691610811565b6020808252825181830181905290939260005b82811061091257505060409293506000838284010152601f8019910116010190565b8181018601518482016040015285016108f0565b600435906001600160a01b038216820361093c57565b600080fd5b602435906001600160a01b038216820361093c57565b9181601f8401121561093c5782359167ffffffffffffffff831161093c576020808501948460051b01011161093c57565b91908110156109985760051b0190565b634e487b7160e01b600052603260045260246000fd5b916001600160a01b03808416928315610a735716928315610a5a5760009083825281602052604082205490838210610a28575091604082827fddf252ad1be2c89b69c2b068fc378daa952ba7f163c4a11628f55a4df523b3ef958760209652828652038282205586815220818154019055604051908152a3565b60405163391434e360e21b81526001600160a01b03919091166004820152602481019190915260448101839052606490fd5b60405163ec442f0560e01b815260006004820152602490fd5b604051634b637e8f60e11b815260006004820152602490fd5b6005546001600160a01b03163303610aa057565b60405163118cdaa760e01b8152336004820152602490fd5b6001600160a01b0316908115610a5a5760025490808201809211610b195760207fddf252ad1be2c89b69c2b068fc378daa952ba7f163c4a11628f55a4df523b3ef9160009360025584845283825260408420818154019055604051908152a3565b634e487b7160e01b600052601160045260246000fdfea2646970667358221220b8cbb63081c9cbc465d1a2912ae2850fc6e9acdaa3b2922178699a4691ed563364736f6c63430008160033",
  "linkReferences": {},
  "deployedLinkReferences": {}
}