{
  "_format": "hh-sol-artifact-1",
  "contractName": "AuctionNFT",
  "sourceName": "contracts/task3/AuctionNFT.sol",
  "abi": [
    {
      "inputs": [
        {
          "internalType": "string",
          "name": "name",
          "type": "string"
        },
        {
          "internalType": "string",
          "name": "symbol",
          "type": "string"
        },
        {
          "internalType": "string",
          "name": "baseTokenURI",
          "type": "string"
        }
      ],
      "stateMutability": "nonpayable",
      "type": "constructor"
    },
    {
      "inputs": [],
      "name": "ERC721EnumerableForbiddenBatchMint",
      "type": "error"
    },
    {
      "inputs": [
        {
          "internalType": "address",
          "name": "sender",
          "type": "address"
        },
        {
          "internalType": "uint256",
          "name": "tokenId",
          "type": "uint256"
        },
        {
          "internalType": "address",
          "name": "owner",
          "type": "address"
        }
      ],
      "name": "ERC721IncorrectOwner",
      "type": "error"
    },
    {
      "inputs": [
        {
          "internalType": "address",
          "name": "operator",
          "type": "address"
        },
        {
          "internalType": "uint256",
          "name": "tokenId",
          "type": "uint256"
        }
      ],
      "name": "ERC721InsufficientApproval",
      "type": "error"
    },
    {
      "inputs": [
        {
          "internalType": "address",
          "name": "approver",
          "type": "address"
        }
      ],
      "name": "ERC721InvalidApprover",
      "type": "error"
    },
    {
      "inputs": [
        {
          "internalType": "address",
          "name": "operator",
          "type": "address"
        }
      ],
      "name": "ERC721InvalidOperator",
      "type": "error"
    },
    {
      "inputs": [
        {
          "internalType": "address",
          "name": "owner",
          "type": "address"
        }
      ],
      "name": "ERC721InvalidOwner",
      "type": "error"
    },
    {
      "inputs": [
        {
          "internalType": "address",
          "name": "receiver",
          "type": "address"
        }
      ],
      "name": "ERC721InvalidReceiver",
      "type": "error"
    },
    {
      "inputs": [
        {
          "internalType": "address",
          "name": "sender",
          "type": "address"
        }
      ],
      "name": "ERC721InvalidSender",
      "type": "error"
    },
    {
      "inputs": [
        {
          "internalType": "uint256",
          "name": "tokenId",
          "type": "uint256"
        }
      ],
      "name": "ERC721NonexistentToken",
      "type": "error"
    },
    {
      "inputs": [
        {
          "internalType": "address",
          "name": "owner",
          "type": "address"
        },
        {
          "internalType": "uint256",
          "name": "index",
          "type": "uint256"
        }
      ],
      "name": "ERC721OutOfBoundsIndex",
      "type": "error"
    },
    {
      "inputs": [
        {
          "internalType": "address",
          "name": "owner",
          "type": "address"
        }
      ],
      "name": "OwnableInvalidOwner",
      "type": "error"
    },
    {
      "inputs": [
        {
          "internalType": "address",
          "name": "account",
          "type": "address"
        }
      ],
      "name": "OwnableUnauthorizedAccount",
      "type": "error"
    },
    {
      "anonymous": false,
      "inputs": [
        {
          "indexed": true,
          "internalType": "address",
          "name": "owner",
          "type": "address"
        },
        {
          "indexed": true,
          "internalType": "address",
          "name": "approved",
          "type": "address"
        },
        {
          "indexed": true,
          "internalType": "uint256",
          "name": "tokenId",
          "type": "uint256"
        }
      ],
      "name": "Approval",
      "type": "event"
    },
    {
      "anonymous": false,
      "inputs": [
        {
          "indexed": true,
          "internalType": "address",
          "name": "owner",
          "type": "address"
        },
        {
          "indexed": true,
          "internalType": "address",
          "name": "operator",
          "type": "address"
        },
        {
          "indexed": false,
          "internalType": "bool",
          "name": "approved",
          "type": "bool"
        }
      ],
      "name": "ApprovalForAll",
      "type": "event"
    },
    {
      "anonymous": false,
      "inputs": [
        {
          "indexed": false,
          "internalType": "uint256",
          "name": "_fromTokenId",
          "type": "uint256"
        },
        {
          "indexed": false,
          "internalType": "uint256",
          "name": "_toTokenId",
          "type": "uint256"
        }
      ],
      "name": "BatchMetadataUpdate",
      "type": "event"
    },
    {
      "anonymous": false,
      "inputs": [
        {
          "indexed": false,
          "internalType": "uint256",
          "name": "_tokenId",
          "type": "uint256"
        }
      ],
      "name": "MetadataUpdate",
      "type": "event"
    },
    {
      "anonymous": false,
      "inputs": [
        {
          "indexed": true,
          "internalType": "address",
          "name": "to",
          "type": "address"
        },
        {
          "indexed": true,
          "internalType": "uint256",
          "name": "tokenId",
          "type": "uint256"
        },
        {
          "indexed": false,
          "internalType": "string",
          "name": "tokenURI",
          "type": "string"
        }
      ],
      "name": "NFTMinted",
      "type": "event"
    },
    {
      "anonymous": false,
      "inputs": [
        {
          "indexed": true,
          "internalType": "address",
          "name": "previousOwner",
          "type": "address"
        },
        {
          "indexed": true,
          "internalType": "address",
          "name": "newOwner",
          "type": "address"
        }
      ],
      "name": "OwnershipTransferred",
      "type": "event"
    },
    {
      "anonymous": false,
      "inputs": [
        {
          "indexed": true,
          "internalType": "address",
          "name": "from",
          "type": "address"
        },
        {
          "indexed": true,
          "internalType": "address",
          "name": "to",
          "type": "address"
        },
        {
          "indexed": true,
          "internalType": "uint256",
          "name": "tokenId",
          "type": "uint256"
        }
      ],
      "name": "Transfer",
      "type": "event"
    },
    {
      "inputs": [
        {
          "internalType": "address",
          "name": "to",
          "type": "address"
        },
        {
          "internalType": "uint256",
          "name": "tokenId",
          "type": "uint256"
        }
      ],
      "name": "approve",
      "outputs": [],
      "stateMutability": "nonpayable",
      "type": "function"
    },
    {
      "inputs": [
        {
          "internalType": "address",
          "name": "owner",
          "type": "address"
        }
      ],
      "name": "balanceOf",
      "outputs": [
        {
          "internalType": "uint256",
          "name": "",
          "type": "uint256"
        }
      ],
      "stateMutability": "view",
      "type": "function"
    },
    {
      "inputs": [
        {
          "internalType": "address",
          "name": "to",
          "type": "address"
        },
        {
          "internalType": "string[]",
          "name": "tokenURIs",
          "type": "string[]"
        }
      ],
      "name": "batchMint",
      "outputs": [],
      "stateMutability": "payable",
      "type": "function"
    },
    {
      "inputs": [
        {
          "internalType": "uint256",
          "name": "tokenId",
          "type": "uint256"
        }
      ],
      "name": "getApproved",
      "outputs": [
        {
          "internalType": "address",
          "name": "",
          "type": "address"
        }
      ],
      "stateMutability": "view",
      "type": "function"
    },
    {
      "inputs": [],
      "name": "getNextTokenId",
      "outputs": [
        {
          "internalType": "uint256",
          "name": "",
          "type": "uint256"
        }
      ],
      "stateMutability": "view",
      "type": "function"
    },
    {
      "inputs": [
        {
          "internalType": "address",
          "name": "owner",
          "type": "address"
        }
      ],
      "name": "getTokensByOwner",
      "outputs": [
        {
          "internalType": "uint256[]",
          "name": "",
          "type": "uint256[]"
        }
      ],
      "stateMutability": "view",
      "type": "function"
    },
    {
      "inputs": [
        {
          "internalType": "address",
          "name": "owner",
          "type": "address"
        },
        {
          "internalType": "address",
          "name": "operator",
          "type": "address"
        }
      ],
      "name": "isApprovedForAll",
      "outputs": [
        {
          "internalType": "bool",
          "name": "",
          "type": "bool"
        }
      ],
      "stateMutability": "view",
      "type": "function"
    },
    {
      "inputs": [],
      "name": "maxSupply",
      "outputs": [
        {
          "internalType": "uint256",
          "name": "",
          "type": "uint256"
        }
      ],
      "stateMutability": "view",
      "type": "function"
    },
    {
      "inputs": [
        {
          "internalType": "address",
          "name": "to",
          "type": "address"
        },
        {
          "internalType": "string",
          "name": "uri",
          "type": "string"
        }
      ],
      "name": "mint",
      "outputs": [
        {
          "internalType": "uint256",
          "name": "",
          "type": "uint256"
        }
      ],
      "stateMutability": "nonpayable",
      "type": "function"
    },
    {
      "inputs": [
        {
          "internalType": "address",
          "name": "to",
          "type": "address"
        },
        {
          "internalType": "string",
          "name": "uri",
          "type": "string"
        }
      ],
      "name": "mintNFT",
      "outputs": [
        {
          "internalType": "uint256",
          "name": "",
          "type": "uint256"
        }
      ],
      "stateMutability": "payable",
      "type": "function"
    },
    {
      "inputs": [],
      "name": "mintPrice",
      "outputs": [
        {
          "internalType": "uint256",
          "name": "",
          "type": "uint256"
        }
      ],
      "stateMutability": "view",
      "type": "function"
    },
    {
      "inputs": [],
      "name": "name",
      "outputs": [
        {
          "internalType": "string",
          "name": "",
          "type": "string"
        }
      ],
      "stateMutability": "view",
      "type": "function"
    },
    {
      "inputs": [],
      "name": "owner",
      "outputs": [
        {
          "internalType": "address",
          "name": "",
          "type": "address"
        }
      ],
      "stateMutability": "view",
      "type": "function"
    },
    {
      "inputs": [
        {
          "internalType": "uint256",
          "name": "tokenId",
          "type": "uint256"
        }
      ],
      "name": "ownerOf",
      "outputs": [
        {
          "internalType": "address",
          "name": "",
          "type": "address"
        }
      ],
      "stateMutability": "view",
      "type": "function"
    },
    {
      "inputs": [],
      "name": "renounceOwnership",
      "outputs": [],
      "stateMutability": "nonpayable",
      "type": "function"
    },
    {
      "inputs": [
        {
          "internalType": "address",
          "name": "from",
          "type": "address"
        },
        {
          "internalType": "address",
          "name": "to",
          "type": "address"
        },
        {
          "internalType": "uint256",
          "name": "tokenId",
          "type": "uint256"
        }
      ],
      "name": "safeTransferFrom",
      "outputs": [],
      "stateMutability": "nonpayable",
      "type": "function"
    },
    {
      "inputs": [
        {
          "internalType": "address",
          "name": "from",
          "type": "address"
        },
        {
          "internalType": "address",
          "name": "to",
          "type": "address"
        },
        {
          "internalType": "uint256",
          "name": "tokenId",
          "type": "uint256"
        },
        {
          "internalType": "bytes",
          "name": "data",
          "type": "bytes"
        }
      ],
      "name": "safeTransferFrom",
      "outputs": [],
      "stateMutability": "nonpayable",
      "type": "function"
    },
    {
      "inputs": [
        {
          "internalType": "address",
          "name": "operator",
          "type": "address"
        },
        {
          "internalType": "bool",
          "name": "approved",
          "type": "bool"
        }
      ],
      "name": "setApprovalForAll",
      "outputs": [],
      "stateMutability": "nonpayable",
      "type": "function"
    },
    {
      "inputs": [
        {
          "internalType": "uint256",
          "name": "newMaxSupply",
          "type": "uint256"
        }
      ],
      "name": "setMaxSupply",
      "outputs": [],
      "stateMutability": "nonpayable",
      "type": "function"
    },
    {
      "inputs": [
        {
          "internalType": "uint256",
          "name": "newPrice",
          "type": "uint256"
        }
      ],
      "name": "setMintPrice",
      "outputs": [],
      "stateMutability": "nonpayable",
      "type": "function"
    },
    {
      "inputs": [
        {
          "internalType": "bytes4",
          "name": "interfaceId",
          "type": "bytes4"
        }
      ],
      "name": "supportsInterface",
      "outputs": [
        {
          "internalType": "bool",
          "name": "",
          "type": "bool"
        }
      ],
      "stateMutability": "view",
      "type": "function"
    },
    {
      "inputs": [],
      "name": "symbol",
      "outputs": [
        {
          "internalType": "string",
          "name": "",
          "type": "string"
        }
      ],
      "stateMutability": "view",
      "type": "function"
    },
    {
      "inputs": [
        {
          "internalType": "uint256",
          "name": "index",
          "type": "uint256"
        }
      ],
      "name": "tokenByIndex",
      "outputs": [
        {
          "internalType": "uint256",
          "name": "",
          "type": "uint256"
        }
      ],
      "stateMutability": "view",
      "type": "function"
    },
    {
      "inputs": [
        {
          "internalType": "address",
          "name": "owner",
          "type": "address"
        },
        {
          "internalType": "uint256",
          "name": "index",
          "type": "uint256"
        }
      ],
      "name": "tokenOfOwnerByIndex",
      "outputs": [
        {
          "internalType": "uint256",
          "name": "",
          "type": "uint256"
        }
      ],
      "stateMutability": "view",
      "type": "function"
    },
    {
      "inputs": [
        {
          "internalType": "uint256",
          "name": "tokenId",
          "type": "uint256"
        }
      ],
      "name": "tokenURI",
      "outputs": [
        {
          "internalType": "string",
          "name": "",
          "type": "string"
        }
      ],
      "stateMutability": "view",
      "type": "function"
    },
    {
      "inputs": [],
      "name": "totalSupply",
      "outputs": [
        {
          "internalType": "uint256",
          "name": "",
          "type": "uint256"
        }
      ],
      "stateMutability": "view",
      "type": "function"
    },
    {
      "inputs": [
        {
          "internalType": "address",
          "name": "from",
          "type": "address"
        },
        {
          "internalType": "address",
          "name": "to",
          "type": "address"
        },
        {
          "internalType": "uint256",
          "name": "tokenId",
          "type": "uint256"
        }
      ],
      "name": "transferFrom",
      "outputs": [],
      "stateMutability": "nonpayable",
      "type": "function"
    },
    {
      "inputs": [
        {
          "internalType": "address",
          "name": "newOwner",
          "type": "address"
        }
      ],
      "name": "transferOwnership",
      "outputs": [],
      "stateMutability": "nonpayable",
      "type": "function"
    },
    {
      "inputs": [],
      "name": "withdraw",
      "outputs": [],
      "stateMutability": "nonpayable",
      "type": "function"
    }
  ],
  "bytecode": "0x608060405234620004ec5762002100803803806200001d81620004f1565b9283398101606082820312620004ec5781516001600160401b039190828111620004ec57816200004f91850162000517565b9060209384810151848111620004ec57826200006d91830162000517565b916040820151858111620004ec5762000087920162000517565b825191848311620004d6576000908154936001958686811c96168015620004cb575b89871014620003d5578190601f9687811162000478575b5089908783116001146200041457859262000408575b5050600019600383901b1c191690861b1782555b805190868211620003f45785548681811c91168015620003e9575b89821014620003d55790818684931162000382575b5088908683116001146200031e57849262000312575b5050600019600383901b1c191690851b1784555b3315620002fa57600b8054336001600160a01b0319821681179092556001600160a01b03167f8be0079c531659141344cd1fd0a4f28419497f9722a3daafe3b4186f6b6457e08380a38151948511620002e657600d548481811c91168015620002db575b87821014620002c7578381116200027e575b50859285116001146200021557939450849291908362000209575b50501b916000199060031b1c191617600d555b662386f26fc10000600e55612710600f55604051611b7690816200058a8239f35b015192503880620001d5565b600d815285812093958591601f198316915b8883831062000263575050501062000249575b505050811b01600d55620001e8565b015160001960f88460031b161c191690553880806200023a565b85870151885590960195948501948793509081019062000227565b600d82528682208480880160051c820192898910620002bd575b0160051c019085905b828110620002b1575050620001ba565b838155018590620002a1565b9250819262000298565b634e487b7160e01b82526022600452602482fd5b90607f1690620001a8565b634e487b7160e01b81526041600452602490fd5b60249060405190631e4fbdf760e01b82526004820152fd5b01519050388062000130565b8785528985208894509190601f198416865b8c8282106200036b575050841162000351575b505050811b01845562000144565b015160001960f88460031b161c1916905538808062000343565b8385015186558b9790950194938401930162000330565b9091508684528884208680850160051c8201928b8610620003cb575b918991869594930160051c01915b828110620003bc5750506200011a565b868155859450899101620003ac565b925081926200039e565b634e487b7160e01b84526022600452602484fd5b90607f169062000105565b634e487b7160e01b83526041600452602483fd5b015190503880620000d6565b8580528a86208994509190601f198416875b8d82821062000461575050841162000447575b505050811b018255620000ea565b015160001960f88460031b161c1916905538808062000439565b8385015186558c9790950194938401930162000426565b9091508480528985208780850160051c8201928c8610620004c1575b918a91869594930160051c01915b828110620004b2575050620000c0565b8781558594508a9101620004a2565b9250819262000494565b95607f1695620000a9565b634e487b7160e01b600052604160045260246000fd5b600080fd5b6040519190601f01601f191682016001600160401b03811183821017620004d657604052565b919080601f84011215620004ec5782516001600160401b038111620004d6576020906200054d601f8201601f19168301620004f1565b92818452828287010111620004ec5760005b8181106200057557508260009394955001015290565b85810183015184820184015282016200055f56fe60806040908082526004908136101561001757600080fd5b600092833560e01c91826301ffc9a714610dfe5750816306fdde0314610d4e578163081812fc14610d11578163095ea7b314610c3557816318160ddd14610c1657816323b872dd14610bfe5781632f745c5914610bd55781633ccfd60b14610b1b57816340398d6714610a5457816342842e0e14610a255781634f6ccce7146109cf5781636352211e1461099d5781636817c76c1461097e5781636f8b44b01461090057816370a08231146108d3578163715018a6146108765781638da5cb5b1461084d57816395d89b4114610763578163a22cb465146106c2578163b88d4fde1461064f578163c87b56dd1461055d578163caa0f92a1461051e578163d0def52114610501578163d5abeb01146104e2578163e985e9c514610494578163eacabe14146103fc578163f2f18baa1461021e578163f2fde38b14610189575063f4a0a5281461016557600080fd5b346101855760203660031901126101855761017e61156d565b35600e5580f35b5080fd5b9190503461021a57602036600319011261021a576101a5610ede565b906101ae61156d565b6001600160a01b03918216928315610204575050600b54826bffffffffffffffffffffffff60a01b821617600b55167f8be0079c531659141344cd1fd0a4f28419497f9722a3daafe3b4186f6b6457e08380a380f35b51631e4fbdf760e01b8152908101849052602490fd5b8280fd5b8284826003193601126103f957610233610ede565b9060249283359067ffffffffffffffff908183116103f557366023840112156103f557828101359161026483611049565b9261027189519485610f76565b808452602094888686019260051b820101923684116103f157898201925b8484106103c7575050505050600e548251908181029181830414901517156103b5576102bd903410156114ef565b600c95600c54835181018091116103a357600f541061036c575092946001600160a01b0385169350855b8251811015610368576001906102fd83546114ca565b80845561030a81896116b6565b61031e61031783876113ef565b51826119ca565b867fd35bb95e09c04b219e35047ce7b7b300e3384264ef84a40456943dbc0fc17c1461035f61034d85896113ef565b518d519182918b83528b830190610e9e565b0390a3016102e7565b8680f35b875162461bcd60e51b81529182018490526012908201527145786365656473206d617820737570706c7960701b6044820152606490fd5b50634e487b7160e01b85526011825284fd5b634e487b7160e01b8552601182528685fd5b83358281116103ed5788916103e283928e3691880101610feb565b81520193019261028f565b8980fd5b8780fd5b8380fd5b80fd5b61048b60209161040b36611009565b610419600e543410156114ef565b7fd35bb95e09c04b219e35047ce7b7b300e3384264ef84a40456943dbc0fc17c14610452600c5461044d600f548210611489565b6114ca565b94859384600c5561046385826116b6565b61046d84866119ca565b85518881526001600160a01b03909116939091829189830190610e9e565b0390a351908152f35b83903461018557806003193601126101855760ff816020936104b4610ede565b6104bc610ef9565b6001600160a01b0391821683526005875283832091168252855220549151911615158152f35b839034610185578160031936011261018557602090600f549051908152f35b83346103f957602061048b8361051636611009565b61041961156d565b83915034610185578160031936011261018557600c54916001830180931161054a576020838351908152f35b634e487b7160e01b815260118452602490fd5b90503461021a57602091826003193601126103f5573561057c81611532565b508352600a825280832092815180948290805461059881611061565b91828552600191886001821691826000146106285750506001146105ea575b5050506105e69392916105cb910386610f76565b81516105d681610f44565b5251928284938452830190610e9e565b0390f35b8552868520879350859291905b82841061061057505050820101816105cb6105e66105b7565b8054848b0186015289955088949093019281016105f7565b60ff19168782015293151560051b860190930193508492506105cb91506105e690506105b7565b5050346101855760803660031901126101855761066a610ede565b610672610ef9565b6044359060643567ffffffffffffffff81116106be57366023820112156106be576106bb948160246106a993369301359101610fb4565b926106b583838361109b565b33611599565b80f35b8580fd5b90503461021a578060031936011261021a576106dc610ede565b906024359182151580930361075f576001600160a01b031692831561074a5750338452600560205280842083855260205280842060ff1981541660ff8416179055519081527f17307eab39ab6107e8899845ad3d59bd9653f200f220920489ca2b5937696c3160203392a380f35b836024925191630b61174360e31b8352820152fd5b8480fd5b83346103f957806003193601126103f95781519182826001936001549461078986611061565b91828552602096876001821691826000146108265750506001146107ca575b5050506105e692916107bb910385610f76565b51928284938452830190610e9e565b9190869350600183527fb10e2d527612073b26eecdfd717e6a320cf44b4afac2b0732d9fcbe2b7fa0cf65b82841061080e57505050820101816107bb6105e66107a8565b8054848a0186015288955087949093019281016107f5565b60ff19168782015293151560051b860190930193508492506107bb91506105e690506107a8565b839034610185578160031936011261018557600b5490516001600160a01b039091168152602090f35b83346103f957806003193601126103f95761088f61156d565b600b80546001600160a01b0319811690915581906001600160a01b03167f8be0079c531659141344cd1fd0a4f28419497f9722a3daafe3b4186f6b6457e08280a380f35b839034610185576020366003190112610185576020906108f96108f4610ede565b611450565b9051908152f35b9190503461021a57602036600319011261021a5780359161091f61156d565b600c548310610930575050600f5580f35b906020608492519162461bcd60e51b8352820152602260248201527f43616e6e6f74207265647563652062656c6f772063757272656e7420737570706044820152616c7960f01b6064820152fd5b839034610185578160031936011261018557602090600e549051908152f35b905082346103f95760203660031901126103f957506109be60209235611532565b90516001600160a01b039091168152f35b9190503461021a57602036600319011261021a57803592600854841015610a0a576020836109fc86611419565b91905490519160031b1c8152f35b6044939192519263295f44f760e21b84528301526024820152fd5b839034610185576106bb90610a3936610f0f565b91925192610a4684610f44565b8584526106b583838361109b565b83346103f957602090816003193601126103f9578290610a72610ede565b90610a7c82611450565b610a8581611049565b90610a9285519283610f76565b808252610a9e81611049565b8287019490601f1901368637835b828110610af15750505083519485948186019282875251809352850193925b828110610ada57505050500390f35b835185528695509381019392810192600101610acb565b80610b04600192849a979698999a61135f565b610b0e82896113ef565b5201969594929396610aac565b90503461021a578260031936011261021a57610b3561156d565b478015610b9b57600b5484918291829182916001600160a01b03165af1610b5a6113bf565b5015610b64578280f35b906020606492519162461bcd60e51b8352820152601160248201527015da5d1a191c985dd85b0819985a5b1959607a1b6044820152fd5b815162461bcd60e51b815260208185015260146024820152734e6f2066756e647320746f20776974686472617760601b6044820152606490fd5b8390346101855780600319360112610185576020906108f9610bf5610ede565b6024359061135f565b83346103f9576106bb610c1036610f0f565b9161109b565b8390346101855781600319360112610185576020906008549051908152f35b90503461021a578060031936011261021a57610c4f610ede565b91602435610c5c81611532565b33151580610cfe575b80610cd5575b610cbf576001600160a01b039485169482918691167f8c5be1e5ebec7d5bd14f71427d1e84f3dd0314c0f7b2291e5b200ac8c7c3b9258880a48452602052822080546001600160a01b031916909117905580f35b835163a9fbf51f60e01b81523381850152602490fd5b506001600160a01b03811686526005602090815284872033885290528386205460ff1615610c6b565b506001600160a01b038116331415610c65565b9190503461021a57602036600319011261021a57918260209335610d3481611532565b50825283528190205490516001600160a01b039091168152f35b83346103f957806003193601126103f95781519182828354610d6f81611061565b9081845260209560019187600182169182600014610826575050600114610da3575050506105e692916107bb910385610f76565b91908693508280527f290decd9548b62a8d60345a988386fc84ba6bc95484008f6362f93160ef3e5635b828410610de657505050820101816107bb6105e66107a8565b8054848a018601528895508794909301928101610dcd565b8490843461021a57602036600319011261021a573563ffffffff60e01b811680910361021a5760209250632483248360e11b8114908115610e41575b5015158152f35b63780e9d6360e01b811491508115610e5b575b5083610e3a565b6380ac58cd60e01b811491508115610e8d575b8115610e7c575b5083610e54565b6301ffc9a760e01b14905083610e75565b635b5e139f60e01b81149150610e6e565b919082519283825260005b848110610eca575050826000602080949584010152601f8019910116010190565b602081830181015184830182015201610ea9565b600435906001600160a01b0382168203610ef457565b600080fd5b602435906001600160a01b0382168203610ef457565b6060906003190112610ef4576001600160a01b03906004358281168103610ef457916024359081168103610ef4579060443590565b6020810190811067ffffffffffffffff821117610f6057604052565b634e487b7160e01b600052604160045260246000fd5b90601f8019910116810190811067ffffffffffffffff821117610f6057604052565b67ffffffffffffffff8111610f6057601f01601f191660200190565b929192610fc082610f98565b91610fce6040519384610f76565b829481845281830111610ef4578281602093846000960137010152565b9080601f83011215610ef45781602061100693359101610fb4565b90565b906040600319830112610ef4576004356001600160a01b0381168103610ef457916024359067ffffffffffffffff8211610ef45761100691600401610feb565b67ffffffffffffffff8111610f605760051b60200190565b90600182811c92168015611091575b602083101461107b57565b634e487b7160e01b600052602260045260246000fd5b91607f1691611070565b6001600160a01b0382811693918415611346576000948386526020956002875260409684888320541696331515806112b8575b5087158015611285575b84845260038352898420805460010190558784526002835289842080546001600160a01b0319168617905587858a7fddf252ad1be2c89b69c2b068fc378daa952ba7f163c4a11628f55a4df523b3ef8780a4156112195760085487845260098352808a852055600160401b811015611205578761115e8260016111779401600855611419565b90919082549060031b91821b91600019901b1916179055565b8388036111b3575b5050505016928383036111925750505050565b6064945051926364283d7b60e01b8452600484015260248301526044820152fd5b6111bc90611450565b6000198101939084116111f15782916007918a945260068152838320858452815287848420558783525220553880808061117f565b634e487b7160e01b83526011600452602483fd5b634e487b7160e01b84526041600452602484fd5b8784146111775761122988611450565b878452600783528984205490898552600684528a852091818103611263575b5088855260078452848b812055845282528289812055611177565b8186528285528b862054818752808d8820558652600785528b86205538611248565b600088815260046020526040902080546001600160a01b03191690558884526003835289842080546000190190556110d8565b80611305575b156112c957386110ce565b8887896112e6576024915190637e27328960e01b82526004820152fd5b905163177e802f60e01b81523360048201526024810191909152604490fd5b50338814801561132a575b806112be57508683526004825233868a85205416146112be565b5087835260058252888320338452825260ff8984205416611310565b604051633250574960e11b815260006004820152602490fd5b61136881611450565b8210156113945760018060a01b0316600052600660205260406000209060005260205260406000205490565b60405163295f44f760e21b81526001600160a01b039190911660048201526024810191909152604490fd5b3d156113ea573d906113d082610f98565b916113de6040519384610f76565b82523d6000602084013e565b606090565b80518210156114035760209160051b010190565b634e487b7160e01b600052603260045260246000fd5b6008548110156114035760086000527ff3f7a9fe364faab93b216da50a3214154f22a0a2b415b23a84c8169e8b636ee30190600090565b6001600160a01b0316801561147057600052600360205260406000205490565b6040516322718ad960e21b815260006004820152602490fd5b1561149057565b60405162461bcd60e51b815260206004820152601260248201527113585e081cdd5c1c1b1e481c995858da195960721b6044820152606490fd5b60001981146114d95760010190565b634e487b7160e01b600052601160045260246000fd5b156114f657565b60405162461bcd60e51b8152602060048201526014602482015273125b9cdd59999a58da595b9d081c185e5b595b9d60621b6044820152606490fd5b6000818152600260205260409020546001600160a01b0316908115611555575090565b60249060405190637e27328960e01b82526004820152fd5b600b546001600160a01b0316330361158157565b60405163118cdaa760e01b8152336004820152602490fd5b9293823b6115a9575b5050505050565b6115ed9060018060a01b038094169560405194859481630a85bd0160e11b988988521660048701521660248501526044840152608060648401526084830190610e9e565b03906020816000938185885af19082908261166d575b505061163b57826116126113bf565b805191908261163457604051633250574960e11b815260048101839052602490fd5b6020915001fd5b6001600160e01b03191603611655575038808080806115a2565b60249060405190633250574960e11b82526004820152fd5b909192506020813d6020116116ae575b8161168a60209383610f76565b810103126101855751906001600160e01b0319821682036103f95750903880611603565b3d915061167d565b60408051926116c484610f44565b60008085526001600160a01b03948486169485156119b257838352602096600288528584205416801590878215928361197f575b81875260038b528887208054600101905587875260028b5288872080546001600160a01b031916831790558782847fddf252ad1be2c89b69c2b068fc378daa952ba7f163c4a11628f55a4df523b3ef8a80a415611912575060085486865260098a528088872055600160401b8110156118fe57906117818761115e8460018d9601600855611419565b036118b1575b611899573b611799575b505050505050565b856117d69185969798955180938192630a85bd0160e11b978884523360048501528760248501526044840152608060648401526084830190610e9e565b0381858a5af190829082611855575b505061181d575050506117f66113bf565b8051939084611817578251633250574960e11b815260048101859052602490fd5b84925001fd5b9194506001600160e01b03199091160361183e575050388080808080611791565b602492505190633250574960e11b82526004820152fd5b909192508781813d8311611892575b61186e8183610f76565b810103126101855751906001600160e01b0319821682036103f957509038806117e5565b503d611864565b84516339e3563760e11b815260048101849052602490fd5b6118ba82611450565b60001981019081116118ea5787855260068952868520818652895285878620558585526007895286852055611787565b634e487b7160e01b85526011600452602485fd5b634e487b7160e01b86526041600452602486fd5b908082146117815761192381611450565b87875260078b52888720549082885260068c528988209181810361195d575b5088885260078c52878a81205587528a528588812055611781565b818952828d528a892054818a52808c8b2055895260078d528a89205538611942565b600088815260046020526040902080546001600160a01b031916905582875260038b5288872080546000190190556116f8565b8451633250574960e11b815260048101849052602490fd5b919091600090808252602091600a8352604081209085519067ffffffffffffffff8211611b2c576119fb8354611061565b601f8111611ae9575b508490601f8311600114611a6557907ff8e1a15aba9398e019f0b49df1a4fde98ee17ae345cb5f6b5e2c27f5033e8ce7969783611a5a575b50508160011b916000199060031b1c19161790555b604051908152a1565b015190503880611a3c565b9196601f198816848452868420935b818110611ad257509160019391897ff8e1a15aba9398e019f0b49df1a4fde98ee17ae345cb5f6b5e2c27f5033e8ce7999a9410611ab9575b505050811b019055611a51565b015160001960f88460031b161c19169055388080611aac565b929387600181928786015181550195019301611a74565b838252858220601f840160051c810191878510611b22575b601f0160051c01905b818110611b175750611a04565b828155600101611b0a565b9091508190611b01565b634e487b7160e01b81526041600452602490fdfea2646970667358221220eec88aca883aa4b78f762d0c9b9a3f60299bf195065e9b933517317e49b940c264736f6c63430008160033",
  "linkReferences": {},
  "deployedLinkReferences": {}
}