{
  "_format": "hh-sol-artifact-1",
  "contractName": "CallTestCaller",
  "sourceName": "contracts/test/CallDelegateCallTest.sol",
  "abi": [
    {
      "inputs": [],
      "name": "contractAddress",
      "outputs": [
        {
          "internalType": "address",
          "name": "",
          "type": "address"
        }
      ],
      "stateMutability": "view",
      "type": "function"
    },
    {
      "inputs": [],
      "name": "getCurrentState",
      "outputs": [
        {
          "internalType": "uint256",
          "name": "",
          "type": "uint256"
        },
        {
          "internalType": "address",
          "name": "",
          "type": "address"
        },
        {
          "internalType": "address",
          "name": "",
          "type": "address"
        }
      ],
      "stateMutability": "view",
      "type": "function"
    },
    {
      "inputs": [],
      "name": "reset",
      "outputs": [],
      "stateMutability": "nonpayable",
      "type": "function"
    },
    {
      "inputs": [],
      "name": "sender",
      "outputs": [
        {
          "internalType": "address",
          "name": "",
          "type": "address"
        }
      ],
      "stateMutability": "view",
      "type": "function"
    },
    {
      "inputs": [
        {
          "internalType": "address",
          "name": "target",
          "type": "address"
        },
        {
          "internalType": "uint256",
          "name": "_value",
          "type": "uint256"
        }
      ],
      "name": "testCall",
      "outputs": [],
      "stateMutability": "nonpayable",
      "type": "function"
    },
    {
      "inputs": [
        {
          "internalType": "address",
          "name": "target",
          "type": "address"
        },
        {
          "internalType": "uint256",
          "name": "_value",
          "type": "uint256"
        }
      ],
      "name": "testDelegateCall",
      "outputs": [],
      "stateMutability": "nonpayable",
      "type": "function"
    },
    {
      "inputs": [],
      "name": "value",
      "outputs": [
        {
          "internalType": "uint256",
          "name": "",
          "type": "uint256"
        }
      ],
      "stateMutability": "view",
      "type": "function"
    }
  ],
  "bytecode": "0x608080604052346100165761032e908161001c8239f35b600080fdfe60806040818152600436101561001457600080fd5b600091823560e01c908163378aa70114610216575080633fa4f245146101fa57806359c75ada1461017e57806367e404ce14610156578063c3ffae73146100d3578063d826f88f1461009a5763f6b4dfb41461006f57600080fd5b3461009657816003193601126100965760025490516001600160a01b039091168152602090f35b5080fd5b82346100d057806003193601126100d0578080556bffffffffffffffffffffffff60a01b80600154166001556002541660025580f35b80fd5b50346100965781806100e436610250565b845160208101916366452af160e11b83526024820152602481526101078161027b565b51915af46101136102ad565b501561011d575080f35b5162461bcd60e51b815260206004820152601360248201527211195b1959d85d1950d85b1b0819985a5b1959606a1b6044820152606490fd5b503461009657816003193601126100965760015490516001600160a01b039091168152602090f35b503461009657818061018f36610250565b82855160208101926366452af160e11b84526024820152602481526101b38161027b565b51925af16101bf6102ad565b50156101c9575080f35b5162461bcd60e51b815260206004820152600b60248201526a10d85b1b0819985a5b195960aa1b6044820152606490fd5b5034610096578160031936011261009657602091549051908152f35b9190503461024c578260031936011261024c57606092549060018060a01b03806001541690600254169284526020840152820152f35b8280fd5b6040906003190112610276576004356001600160a01b0381168103610276579060243590565b600080fd5b6060810190811067ffffffffffffffff82111761029757604052565b634e487b7160e01b600052604160045260246000fd5b3d156102f35767ffffffffffffffff903d8281116102975760405192601f8201601f19908116603f01168401908111848210176102975760405282523d6000602084013e565b60609056fea2646970667358221220b49b8a17c9458522e2287eaa6442043b3d491025fd6febca296e4657aa9c698564736f6c63430008160033",
  "linkReferences": {},
  "deployedLinkReferences": {}
}