{
  "_format": "hh-sol-artifact-1",
  "contractName": "InitializerDemo",
  "sourceName": "contracts/test/CallDelegateCallTest.sol",
  "abi": [
    {
      "inputs": [
        {
          "internalType": "address",
          "name": "_owner",
          "type": "address"
        },
        {
          "internalType": "uint256",
          "name": "_value",
          "type": "uint256"
        }
      ],
      "name": "initialize",
      "outputs": [],
      "stateMutability": "nonpayable",
      "type": "function"
    },
    {
      "inputs": [],
      "name": "owner",
      "outputs": [
        {
          "internalType": "address",
          "name": "",
          "type": "address"
        }
      ],
      "stateMutability": "view",
      "type": "function"
    },
    {
      "inputs": [
        {
          "internalType": "uint256",
          "name": "_value",
          "type": "uint256"
        }
      ],
      "name": "setValue",
      "outputs": [],
      "stateMutability": "nonpayable",
      "type": "function"
    },
    {
      "inputs": [],
      "name": "value",
      "outputs": [
        {
          "internalType": "uint256",
          "name": "",
          "type": "uint256"
        }
      ],
      "stateMutability": "view",
      "type": "function"
    }
  ],
  "bytecode": "0x60808060405234610016576101c8908161001c8239f35b600080fdfe608080604052600436101561001357600080fd5b600090813560e01c9081633fa4f245146101765750806355241077146101155780638da5cb5b146100ea5763cd6dc6871461004d57600080fd5b346100e75760403660031901126100e7576004356001600160a01b03811681036100e357815460ff81166100a85760019160243583556101008360a81b039060081b16906affffffffffffffffffffff60a81b161717815580f35b60405162461bcd60e51b8152602060048201526013602482015272105b1c9958591e481a5b9a5d1a585b1a5e9959606a1b6044820152606490fd5b5080fd5b80fd5b50346100e757806003193601126100e7575460405160089190911c6001600160a01b03168152602090f35b50346100e75760203660031901126100e757805460081c6001600160a01b031633036101445760043560015580f35b60405162461bcd60e51b815260206004820152600a60248201526927b7363c9037bbb732b960b11b6044820152606490fd5b9050346100e357816003193601126100e3576020906001548152f3fea264697066735822122053fb18b6167d4376a903aa230dada5793cd4a2f09071e576a132d5594171ec8564736f6c63430008160033",
  "linkReferences": {},
  "deployedLinkReferences": {}
}