{
  "_format": "hh-sol-artifact-1",
  "contractName": "NftAuctionFactory",
  "sourceName": "contracts/NftAuctionFactory.sol",
  "abi": [
    {
      "anonymous": false,
      "inputs": [
        {
          "indexed": true,
          "internalType": "address",
          "name": "auctionAddress",
          "type": "address"
        },
        {
          "indexed": false,
          "internalType": "uint256",
          "name": "tokenId",
          "type": "uint256"
        }
      ],
      "name": "AuctionCreated",
      "type": "event"
    },
    {
      "inputs": [
        {
          "internalType": "uint256",
          "name": "tokenId",
          "type": "uint256"
        }
      ],
      "name": "auctionMap",
      "outputs": [
        {
          "internalType": "contract NftAuction",
          "name": "",
          "type": "address"
        }
      ],
      "stateMutability": "view",
      "type": "function"
    },
    {
      "inputs": [
        {
          "internalType": "uint256",
          "name": "",
          "type": "uint256"
        }
      ],
      "name": "auctions",
      "outputs": [
        {
          "internalType": "address",
          "name": "",
          "type": "address"
        }
      ],
      "stateMutability": "view",
      "type": "function"
    },
    {
      "inputs": [
        {
          "internalType": "uint256",
          "name": "duration",
          "type": "uint256"
        },
        {
          "internalType": "uint256",
          "name": "startPrice",
          "type": "uint256"
        },
        {
          "internalType": "address",
          "name": "nftContractAddress",
          "type": "address"
        },
        {
          "internalType": "uint256",
          "name": "tokenId",
          "type": "uint256"
        }
      ],
      "name": "createAuction",
      "outputs": [
        {
          "internalType": "address",
          "name": "",
          "type": "address"
        }
      ],
      "stateMutability": "nonpayable",
      "type": "function"
    },
    {
      "inputs": [
        {
          "internalType": "uint256",
          "name": "tokenId",
          "type": "uint256"
        }
      ],
      "name": "getAuction",
      "outputs": [
        {
          "internalType": "address",
          "name": "",
          "type": "address"
        }
      ],
      "stateMutability": "view",
      "type": "function"
    },
    {
      "inputs": [],
      "name": "getAuctions",
      "outputs": [
        {
          "internalType": "address[]",
          "name": "",
          "type": "address[]"
        }
      ],
      "stateMutability": "view",
      "type": "function"
    }
  ],
  "bytecode": "0x60808060405234610016576116cd908161001c8239f35b600080fdfe6040608081526004908136101561001557600080fd5b600091823560e01c8063571a26a01461037257806378bd7935146102f6578063b1cb48ef14610180578063d7c069191461008d5763d92623a31461005857600080fd5b346100895760203660031901126100895735825260016020908152918190205490516001600160a01b039091168152f35b8280fd5b50913461017d578060031936011261017d5781518091805493848352602080930180958380527f290decd9548b62a8d60345a988386fc84ba6bc95484008f6362f93160ef3e56390845b868282106101605750505050849003601f01601f191684019567ffffffffffffffff87118588101761014b575085815282865292518583018190528594938501939290915b82811061012b57505050500390f35b83516001600160a01b03168552869550938101939281019260010161011c565b604190634e487b7160e01b6000525260246000fd5b83546001600160a01b0316855290930192600192830192016100d7565b80fd5b509190346102d35760803660031901126102d3576001600160a01b036044358181160361008957606435908251936112b69485810167ffffffffffffffff96828210888311176102e3579082916103e28339039082f080156102d757821694853b156102d357845163204a7f0760e21b81529082828981838b5af180156102c9576102a7575b505090815468010000000000000000811015610294576020965092847f3249a06bd478adf780bb7930214ad005e9cfa517d63221c0b77f27199d1a58b39388936102568760018b99018455610397565b819291549060031b9189831b921b19161790558281526001845220846bffffffffffffffffffffffff60a01b8254161790558451908152a251908152f35b634e487b7160e01b835260418752602483fd5b81116102b65784523880610206565b634e487b7160e01b825260418752602482fd5b86513d85823e3d90fd5b5080fd5b508351903d90823e3d90fd5b634e487b7160e01b845260418952602484fd5b508290346102d35760203660031901126102d357803591548210156103375760208361032184610397565b905491519160018060a01b039160031b1c168152f35b606490602084519162461bcd60e51b83528201526015602482015274746f6b656e4964206f7574206f6620626f756e647360581b6044820152fd5b5034610089576020366003190112610089573591805483101561017d57506103216020925b9060009182548110156103cd578280527f290decd9548b62a8d60345a988386fc84ba6bc95484008f6362f93160ef3e563019190565b634e487b7160e01b83526032600452602483fdfe60a0806040523461002a573060805261128690816100308239608051818181610c290152610d090152f35b600080fdfe608060408181526004918236101561001657600080fd5b600092833560e01c918263150b7a0214610f32575081634f1ef28614610c8d57816352d1902d14610c14578163571a26a014610b7657816376e1128614610b245781638129fc1c146109cb5781639dcb511a14610990578163ad3cb1cc14610947578163ad6561ec146105c2578163b1cb48ef146102f2578163b9a2de3a1461013457508063e7078f9214610108578063f851a440146100e05763fc528482146100bf57600080fd5b346100dc57816003193601126100dc576020906001549051908152f35b5080fd5b50346100dc57816003193601126100dc5760025490516001600160a01b039091168152602090f35b50346100dc5760203660031901126100dc5760209061012d610128610fa3565b611113565b9051908152f35b919050346102ee5760203660031901126102ee5781358352826020528083209060038201546001830154938580845161016c81611014565b600a81526932b73220bab1ba34b7b760b11b602082015285516101cc816101ac602082019463a7a8785360e01b86526080602484015260a483019061106e565b8860448301528b606483015242608483015203601f198101835282611030565b51906a636f6e736f6c652e6c6f675afa508084019485549260ff84161591826102d9575b50501561029e576006840154600790940154869490939291906001600160a01b0390811690813b1561029a578451632142170760e11b81523093810193845260089490941c166001600160a01b0316602083015260408201949094529092849184919082908490829060600103925af1908115610291575061027d575b5050805460ff1916600117905580f35b61028690610fea565b6100dc57813861026d565b513d84823e3d90fd5b8680fd5b606490602084519162461bcd60e51b83528201526015602482015274105d58dd1a5bdb881a185cc81b9bdd08195b991959605a1b6044820152fd5b4292506102e5916110ae565b111538806101f0565b8280fd5b8284346105bf5760803660031901126105bf57823592602493843593610316610fd4565b6002546001600160a01b039291606435918416330361057d57600a85106105315787156104e4578316803b1561029a578251632142170760e11b81523387820190815230602082015260408101849052889082908190606001038183865af180156104da576104c7575b50825192610140840198848a1067ffffffffffffffff8b11176104b357889982999899523385526020850196875281850190815285606086019142835260808701928a845260a08801918b83528360c08a01968d885260e08b019889526101008b01998a528d6101208c019e8f52600154815280602052209951169a6bffffffffffffffffffffffff60a01b9b8c8b5416178a555160018a01555160028901555160038801558a87019251151560ff198454169060ff1617835551166104639190815490610100600160a81b039060081b1690610100600160a81b031916179055565b516005840155836006840191511685825416179055516007820155600801925116908254161790556001549060001982146104a2575060010160015580f35b634e487b7160e01b83526011905250fd5b8a604189634e487b7160e01b600052526000fd5b6104d390979197610fea565b9589610380565b84513d8a823e3d90fd5b825162461bcd60e51b81526020818801526022818b01527f5374617274207072696365206d7573742062652067726561746572207468616e604482015261020360f41b6064820152608490fd5b825162461bcd60e51b81526020818801526021818b01527f4475726174696f6e206d7573742062652067726561746572207468616e2031306044820152607360f81b6064820152608490fd5b825162461bcd60e51b8152602081880152601e818b01527f4f6e6c792061646d696e2063616e206372656174652061756374696f6e7300006044820152606490fd5b80fd5b905060603660031901126102ee576105d8610fd4565b6024359082358552602092858452848620908082019460ff865416158061092c575b156108f6576001600160a01b038481168015801596919492939291906108555761062661062c91611113565b886110d1565b955b60028601549660088701966106636005610655888b54169b61064f8d611113565b906110d1565b92019961064f8b5491611113565b90821015918261084b575b5050156107f157908a93929161078a575b865490816106c6575b505084546001600160a01b03191693909317909355505050558054610100600160a81b0319163360081b610100600160a81b03161790555080f35b80f35b865484169081610712575050505081808092895460081c16875490828215610709575bf1156106ff576106c395505b8638808080610688565b85513d88823e3d90fd5b506108fc6106e9565b839560449293958c5460081c16938d51968795869463a9059cbb60e01b865285015260248401525af18015610780576106c39850610752575b50506106f5565b8161077192903d10610779575b6107698183611030565b8101906110e4565b50388061074b565b503d61075f565b88513d8b823e3d90fd5b89516323b872dd60e01b815233828201908152306020820152604081018a90528390829081906060010381888a5af180156107e7576107ca575b5061067f565b6107e090833d8511610779576107698183611030565b50386107c4565b8b513d87823e3d90fd5b5060849189519162461bcd60e51b8352820152602f60248201527f426964206d75737420626520686967686572207468616e20746865206375727260448201526e195b9d081a1a59da195cdd08189a59608a1b6064820152fd5b119050388061066e565b5095503495898052600382528060a0848b8d2054168b5192838092633fabe5a360e21b82525afa80156108ec578b9061089a575b6108949150346110d1565b9561062e565b5060a0813d60a0116108e4575b816108b460a09383611030565b810103126108e057806108c9610894926110fc565b506108da60808583015192016110fc565b50610889565b8a80fd5b3d91506108a7565b8a513d8d823e3d90fd5b865162461bcd60e51b8152918201526011602482015270105d58dd1a5bdb881a185cc8195b991959607a1b604482015260649150fd5b5061094060038401546001850154906110ae565b42106105fa565b5050346100dc57816003193601126100dc57805161098c9161096882611014565b60058252640352e302e360dc1b60208301525191829160208352602083019061106e565b0390f35b5050346100dc5760203660031901126100dc576020916001600160a01b03908290826109ba610fa3565b168152600385522054169051908152f35b9050346102ee57826003193601126102ee577ff0c57e16840df040f15088dc2f81fe391c3923bec73e23a9662efc9c229c6a0090815460ff81851c16159167ffffffffffffffff821680159081610b1c575b6001149081610b12575b159081610b09575b50610afb575067ffffffffffffffff198116600117835581610adc575b50610a556111ac565b610a5d6111ac565b60017f9b779b17422d0df92223018b32b4d1fa46e071723d6817e2486d003becc55f0055600280546001600160a01b03191633179055610a9b578280f35b805468ff00000000000000001916905551600181527fc7f505b2f371ae2175ee4913f4499e1f2633a7b5936321eed1cdaeb6115181d290602090a138808280f35b68ffffffffffffffffff19166801000000000000000117825538610a4c565b845163f92ee8a960e01b8152fd5b90501538610a2f565b303b159150610a27565b849150610a1d565b5050346100dc57806003193601126100dc57610b3e610fa3565b906001600160a01b0380610b50610fbe565b169216835260036020528220906bffffffffffffffffffffffff60a01b82541617905580f35b919050346102ee5760203660031901126102ee57806101409383358152806020522060018060a01b0391828254169360018301549360028401549160038501549085015490600586015493836006880154169584600860078a0154990154169881519a8b5260208b0152890152606088015260ff81161515608088015260081c1660a086015260c085015260e0840152610100830152610120820152f35b8284346105bf57806003193601126105bf57507f00000000000000000000000000000000000000000000000000000000000000006001600160a01b03163003610c8057602090517f360894a13ba1a3210667c828492db98dca3e2076cc3735a920a3ca505d382bbc8152f35b5163703e46dd60e11b8152fd5b918091506003193601126102ee57610ca3610fa3565b90602493843567ffffffffffffffff81116100dc57366023820112156100dc5780850135610cd081611052565b94610cdd85519687611030565b81865260209182870193368a8383010111610f2e578186928b8693018737880101526001600160a01b037f00000000000000000000000000000000000000000000000000000000000000008116308114908115610f00575b50610ef05780600254163303610eb55781169585516352d1902d60e01b815283818a818b5afa869181610e86575b50610d7f575050505050505191634c9c8ce360e01b8352820152fd5b9088888894938c7f360894a13ba1a3210667c828492db98dca3e2076cc3735a920a3ca505d382bbc91828103610e715750853b15610e5d575080546001600160a01b031916821790558451889392917fbc7cd75a20ee27fd9adebab32041f755214dbc6bffa90cc0225b39da2e5c2d3b8580a2825115610e3f575050610e319582915190845af4913d15610e35573d610e23610e1a82611052565b92519283611030565b81528581943d92013e6111ed565b5080f35b50606092506111ed565b955095505050505034610e5157505080f35b63b398979f60e01b8152fd5b8651634c9c8ce360e01b8152808501849052fd5b8751632a87526960e21b815280860191909152fd5b9091508481813d8311610eae575b610e9e8183611030565b8101031261029a57519038610d63565b503d610e94565b855162461bcd60e51b81528089018490526016818b0152754f6e6c792061646d696e2063616e207570677261646560501b6044820152606490fd5b855163703e46dd60e11b81528890fd5b9050817f360894a13ba1a3210667c828492db98dca3e2076cc3735a920a3ca505d382bbc5416141538610d35565b8580fd5b8491346102ee5760803660031901126102ee57610f4d610fa3565b50610f56610fbe565b506064359067ffffffffffffffff90818311610f9f5736602384011215610f9f57820135908111610f9b57369101602401116100dc57630a85bd0160e11b8152602090f35b8380fd5b8480fd5b600435906001600160a01b0382168203610fb957565b600080fd5b602435906001600160a01b0382168203610fb957565b604435906001600160a01b0382168203610fb957565b67ffffffffffffffff8111610ffe57604052565b634e487b7160e01b600052604160045260246000fd5b6040810190811067ffffffffffffffff821117610ffe57604052565b90601f8019910116810190811067ffffffffffffffff821117610ffe57604052565b67ffffffffffffffff8111610ffe57601f01601f191660200190565b919082519283825260005b84811061109a575050826000602080949584010152601f8019910116010190565b602081830181015184830182015201611079565b919082018092116110bb57565b634e487b7160e01b600052601160045260246000fd5b818102929181159184041417156110bb57565b90816020910312610fb957518015158103610fb95790565b519069ffffffffffffffffffff82168203610fb957565b600460a0600180821b0380600094168452600360205260408420541660405192838092633fabe5a360e21b82525afa9182156111a057809261115457505090565b90915060a0823d60a011611198575b8161117060a09383611030565b810103126105bf5750611182816110fc565b506111946080602083015192016110fc565b5090565b3d9150611163565b604051903d90823e3d90fd5b60ff7ff0c57e16840df040f15088dc2f81fe391c3923bec73e23a9662efc9c229c6a005460401c16156111db57565b604051631afcd79f60e31b8152600490fd5b90611214575080511561120257602081519101fd5b60405163d6bda27560e01b8152600490fd5b81511580611247575b611225575090565b604051639996b31560e01b81526001600160a01b039091166004820152602490fd5b50803b1561121d56fea264697066735822122032afe6884c46eb89595212ee6d0fb17e763d4a57ae7cc08280e80586dd95d13d64736f6c63430008160033a264697066735822122097f9df8e6029b6550f1e591dcdfbead71418c5fb5e9170a158617c7c169388bc64736f6c63430008160033",
  "linkReferences": {},
  "deployedLinkReferences": {}
}