{
  "_format": "hh-sol-artifact-1",
  "contractName": "TestERC721",
  "sourceName": "contracts/test/TestERC721.sol",
  "abi": [
    {
      "inputs": [],
      "stateMutability": "nonpayable",
      "type": "constructor"
    },
    {
      "inputs": [],
      "name": "ERC721EnumerableForbiddenBatchMint",
      "type": "error"
    },
    {
      "inputs": [
        {
          "internalType": "address",
          "name": "sender",
          "type": "address"
        },
        {
          "internalType": "uint256",
          "name": "tokenId",
          "type": "uint256"
        },
        {
          "internalType": "address",
          "name": "owner",
          "type": "address"
        }
      ],
      "name": "ERC721IncorrectOwner",
      "type": "error"
    },
    {
      "inputs": [
        {
          "internalType": "address",
          "name": "operator",
          "type": "address"
        },
        {
          "internalType": "uint256",
          "name": "tokenId",
          "type": "uint256"
        }
      ],
      "name": "ERC721InsufficientApproval",
      "type": "error"
    },
    {
      "inputs": [
        {
          "internalType": "address",
          "name": "approver",
          "type": "address"
        }
      ],
      "name": "ERC721InvalidApprover",
      "type": "error"
    },
    {
      "inputs": [
        {
          "internalType": "address",
          "name": "operator",
          "type": "address"
        }
      ],
      "name": "ERC721InvalidOperator",
      "type": "error"
    },
    {
      "inputs": [
        {
          "internalType": "address",
          "name": "owner",
          "type": "address"
        }
      ],
      "name": "ERC721InvalidOwner",
      "type": "error"
    },
    {
      "inputs": [
        {
          "internalType": "address",
          "name": "receiver",
          "type": "address"
        }
      ],
      "name": "ERC721InvalidReceiver",
      "type": "error"
    },
    {
      "inputs": [
        {
          "internalType": "address",
          "name": "sender",
          "type": "address"
        }
      ],
      "name": "ERC721InvalidSender",
      "type": "error"
    },
    {
      "inputs": [
        {
          "internalType": "uint256",
          "name": "tokenId",
          "type": "uint256"
        }
      ],
      "name": "ERC721NonexistentToken",
      "type": "error"
    },
    {
      "inputs": [
        {
          "internalType": "address",
          "name": "owner",
          "type": "address"
        },
        {
          "internalType": "uint256",
          "name": "index",
          "type": "uint256"
        }
      ],
      "name": "ERC721OutOfBoundsIndex",
      "type": "error"
    },
    {
      "inputs": [
        {
          "internalType": "address",
          "name": "owner",
          "type": "address"
        }
      ],
      "name": "OwnableInvalidOwner",
      "type": "error"
    },
    {
      "inputs": [
        {
          "internalType": "address",
          "name": "account",
          "type": "address"
        }
      ],
      "name": "OwnableUnauthorizedAccount",
      "type": "error"
    },
    {
      "anonymous": false,
      "inputs": [
        {
          "indexed": true,
          "internalType": "address",
          "name": "owner",
          "type": "address"
        },
        {
          "indexed": true,
          "internalType": "address",
          "name": "approved",
          "type": "address"
        },
        {
          "indexed": true,
          "internalType": "uint256",
          "name": "tokenId",
          "type": "uint256"
        }
      ],
      "name": "Approval",
      "type": "event"
    },
    {
      "anonymous": false,
      "inputs": [
        {
          "indexed": true,
          "internalType": "address",
          "name": "owner",
          "type": "address"
        },
        {
          "indexed": true,
          "internalType": "address",
          "name": "operator",
          "type": "address"
        },
        {
          "indexed": false,
          "internalType": "bool",
          "name": "approved",
          "type": "bool"
        }
      ],
      "name": "ApprovalForAll",
      "type": "event"
    },
    {
      "anonymous": false,
      "inputs": [
        {
          "indexed": true,
          "internalType": "address",
          "name": "previousOwner",
          "type": "address"
        },
        {
          "indexed": true,
          "internalType": "address",
          "name": "newOwner",
          "type": "address"
        }
      ],
      "name": "OwnershipTransferred",
      "type": "event"
    },
    {
      "anonymous": false,
      "inputs": [
        {
          "indexed": true,
          "internalType": "address",
          "name": "from",
          "type": "address"
        },
        {
          "indexed": true,
          "internalType": "address",
          "name": "to",
          "type": "address"
        },
        {
          "indexed": true,
          "internalType": "uint256",
          "name": "tokenId",
          "type": "uint256"
        }
      ],
      "name": "Transfer",
      "type": "event"
    },
    {
      "inputs": [
        {
          "internalType": "address",
          "name": "to",
          "type": "address"
        },
        {
          "internalType": "uint256",
          "name": "tokenId",
          "type": "uint256"
        }
      ],
      "name": "approve",
      "outputs": [],
      "stateMutability": "nonpayable",
      "type": "function"
    },
    {
      "inputs": [
        {
          "internalType": "address",
          "name": "owner",
          "type": "address"
        }
      ],
      "name": "balanceOf",
      "outputs": [
        {
          "internalType": "uint256",
          "name": "",
          "type": "uint256"
        }
      ],
      "stateMutability": "view",
      "type": "function"
    },
    {
      "inputs": [
        {
          "internalType": "uint256",
          "name": "tokenId",
          "type": "uint256"
        }
      ],
      "name": "getApproved",
      "outputs": [
        {
          "internalType": "address",
          "name": "",
          "type": "address"
        }
      ],
      "stateMutability": "view",
      "type": "function"
    },
    {
      "inputs": [
        {
          "internalType": "address",
          "name": "owner",
          "type": "address"
        },
        {
          "internalType": "address",
          "name": "operator",
          "type": "address"
        }
      ],
      "name": "isApprovedForAll",
      "outputs": [
        {
          "internalType": "bool",
          "name": "",
          "type": "bool"
        }
      ],
      "stateMutability": "view",
      "type": "function"
    },
    {
      "inputs": [
        {
          "internalType": "address",
          "name": "to",
          "type": "address"
        },
        {
          "internalType": "uint256",
          "name": "tokenId",
          "type": "uint256"
        }
      ],
      "name": "mint",
      "outputs": [],
      "stateMutability": "nonpayable",
      "type": "function"
    },
    {
      "inputs": [],
      "name": "name",
      "outputs": [
        {
          "internalType": "string",
          "name": "",
          "type": "string"
        }
      ],
      "stateMutability": "view",
      "type": "function"
    },
    {
      "inputs": [],
      "name": "owner",
      "outputs": [
        {
          "internalType": "address",
          "name": "",
          "type": "address"
        }
      ],
      "stateMutability": "view",
      "type": "function"
    },
    {
      "inputs": [
        {
          "internalType": "uint256",
          "name": "tokenId",
          "type": "uint256"
        }
      ],
      "name": "ownerOf",
      "outputs": [
        {
          "internalType": "address",
          "name": "",
          "type": "address"
        }
      ],
      "stateMutability": "view",
      "type": "function"
    },
    {
      "inputs": [],
      "name": "renounceOwnership",
      "outputs": [],
      "stateMutability": "nonpayable",
      "type": "function"
    },
    {
      "inputs": [
        {
          "internalType": "address",
          "name": "from",
          "type": "address"
        },
        {
          "internalType": "address",
          "name": "to",
          "type": "address"
        },
        {
          "internalType": "uint256",
          "name": "tokenId",
          "type": "uint256"
        }
      ],
      "name": "safeTransferFrom",
      "outputs": [],
      "stateMutability": "nonpayable",
      "type": "function"
    },
    {
      "inputs": [
        {
          "internalType": "address",
          "name": "from",
          "type": "address"
        },
        {
          "internalType": "address",
          "name": "to",
          "type": "address"
        },
        {
          "internalType": "uint256",
          "name": "tokenId",
          "type": "uint256"
        },
        {
          "internalType": "bytes",
          "name": "data",
          "type": "bytes"
        }
      ],
      "name": "safeTransferFrom",
      "outputs": [],
      "stateMutability": "nonpayable",
      "type": "function"
    },
    {
      "inputs": [
        {
          "internalType": "address",
          "name": "operator",
          "type": "address"
        },
        {
          "internalType": "bool",
          "name": "approved",
          "type": "bool"
        }
      ],
      "name": "setApprovalForAll",
      "outputs": [],
      "stateMutability": "nonpayable",
      "type": "function"
    },
    {
      "inputs": [
        {
          "internalType": "string",
          "name": "newTokenURI",
          "type": "string"
        }
      ],
      "name": "setTokenURI",
      "outputs": [],
      "stateMutability": "nonpayable",
      "type": "function"
    },
    {
      "inputs": [
        {
          "internalType": "bytes4",
          "name": "interfaceId",
          "type": "bytes4"
        }
      ],
      "name": "supportsInterface",
      "outputs": [
        {
          "internalType": "bool",
          "name": "",
          "type": "bool"
        }
      ],
      "stateMutability": "view",
      "type": "function"
    },
    {
      "inputs": [],
      "name": "symbol",
      "outputs": [
        {
          "internalType": "string",
          "name": "",
          "type": "string"
        }
      ],
      "stateMutability": "view",
      "type": "function"
    },
    {
      "inputs": [
        {
          "internalType": "uint256",
          "name": "index",
          "type": "uint256"
        }
      ],
      "name": "tokenByIndex",
      "outputs": [
        {
          "internalType": "uint256",
          "name": "",
          "type": "uint256"
        }
      ],
      "stateMutability": "view",
      "type": "function"
    },
    {
      "inputs": [
        {
          "internalType": "address",
          "name": "owner",
          "type": "address"
        },
        {
          "internalType": "uint256",
          "name": "index",
          "type": "uint256"
        }
      ],
      "name": "tokenOfOwnerByIndex",
      "outputs": [
        {
          "internalType": "uint256",
          "name": "",
          "type": "uint256"
        }
      ],
      "stateMutability": "view",
      "type": "function"
    },
    {
      "inputs": [
        {
          "internalType": "uint256",
          "name": "tokenId",
          "type": "uint256"
        }
      ],
      "name": "tokenURI",
      "outputs": [
        {
          "internalType": "string",
          "name": "",
          "type": "string"
        }
      ],
      "stateMutability": "view",
      "type": "function"
    },
    {
      "inputs": [],
      "name": "totalSupply",
      "outputs": [
        {
          "internalType": "uint256",
          "name": "",
          "type": "uint256"
        }
      ],
      "stateMutability": "view",
      "type": "function"
    },
    {
      "inputs": [
        {
          "internalType": "address",
          "name": "from",
          "type": "address"
        },
        {
          "internalType": "address",
          "name": "to",
          "type": "address"
        },
        {
          "internalType": "uint256",
          "name": "tokenId",
          "type": "uint256"
        }
      ],
      "name": "transferFrom",
      "outputs": [],
      "stateMutability": "nonpayable",
      "type": "function"
    },
    {
      "inputs": [
        {
          "internalType": "address",
          "name": "newOwner",
          "type": "address"
        }
      ],
      "name": "transferOwnership",
      "outputs": [],
      "stateMutability": "nonpayable",
      "type": "function"
    }
  ],
  "bytecode": "0x60806040523462000343576200001462000348565b6200001e62000348565b81519091906001600160401b038082116200032d576000928354906001938483811c931691821562000322575b602092838510146200030e578190601f94858111620002bb575b508390858311600114620002575788926200024b575b5050600019600383901b1c191690851b1785555b8551928311620002375783548481811c911680156200022c575b828210146200021857828111620001d0575b50809183116001146200016a57508394829394926200015e575b5050600019600383901b1c191690821b1790555b33156200014657600a8054336001600160a01b031982168117909255604051926001600160a01b03909116907f8be0079c531659141344cd1fd0a4f28419497f9722a3daafe3b4186f6b6457e09080a361139890816200037b8239f35b60249060405190631e4fbdf760e01b82526004820152fd5b015190503880620000d5565b90601f198316958486528286209286905b888210620001b857505083859697106200019e575b505050811b019055620000e9565b015160001960f88460031b161c1916905538808062000190565b8087859682949686015181550195019301906200017b565b8486528186208380860160051c8201928487106200020e575b0160051c019085905b82811062000202575050620000bb565b878155018590620001f2565b92508192620001e9565b634e487b7160e01b86526022600452602486fd5b90607f1690620000a9565b634e487b7160e01b85526041600452602485fd5b0151905038806200007b565b8880528489208894509190601f1984168a5b87828210620002a457505084116200028a575b505050811b0185556200008f565b015160001960f88460031b161c191690553880806200027c565b8385015186558b9790950194938401930162000269565b9091508780528388208580850160051c82019286861062000304575b918991869594930160051c01915b828110620002f557505062000065565b8a8155859450899101620002e5565b92508192620002d7565b634e487b7160e01b87526022600452602487fd5b92607f16926200004b565b634e487b7160e01b600052604160045260246000fd5b600080fd5b60408051919082016001600160401b038111838210176200032d576040526005825264151c9bdb1b60da1b602083015256fe6080604081815260048036101561001557600080fd5b600092833560e01c90816301ffc9a714610c845750806306fdde0314610bd3578063081812fc14610b98578063095ea7b314610abc57806318160ddd14610a9d57806323b872dd14610a855780632f745c5914610a0157806340c10f19146107c457806342842e0e146107755780634f6ccce7146107215780636352211e146106f057806370a08231146106c3578063715018a6146106665780638da5cb5b1461063d57806395d89b4114610589578063a22cb465146104ec578063b88d4fde14610484578063c87b56dd14610395578063e0df5b6f146101ee578063e985e9c51461019c5763f2fde38b1461010a57600080fd5b3461019857602036600319011261019857610123610d4a565b9061012c611336565b6001600160a01b03918216928315610182575050600a54826bffffffffffffffffffffffff60a01b821617600a55167f8be0079c531659141344cd1fd0a4f28419497f9722a3daafe3b4186f6b6457e08380a380f35b51631e4fbdf760e01b8152908101849052602490fd5b8280fd5b5050346101ea57806003193601126101ea5760ff816020936101bc610d4a565b6101c4610d65565b6001600160a01b0391821683526005875283832091168252855220549151911615158152f35b5080fd5b508234610392576020806003193601126101ea5767ffffffffffffffff90833582811161038e573660238201121561038e576102339036906024818801359101610e04565b9361023c611336565b845192831161037b5750610251600b54610e3b565b601f8111610318575b50602090601f83116001146102975750829382939261028c575b50508160011b916000199060031b1c191617600b5580f35b015190508380610274565b600b8452601f198316947f0175b7a638427703f0dbe7bb9bbf987a2551717b34e79f33b5b1008d1fa01db9929185905b8782106103005750508360019596106102e7575b505050811b01600b5580f35b015160001960f88460031b161c191690558380806102db565b806001859682949686015181550195019301906102c7565b600b84527f0175b7a638427703f0dbe7bb9bbf987a2551717b34e79f33b5b1008d1fa01db9601f840160051c81019160208510610371575b601f0160051c01905b818110610366575061025a565b848155600101610359565b9091508190610350565b634e487b7160e01b845260419052602483fd5b8380fd5b80fd5b5050346101ea576020908160031936011261019857805183819490600b546103bc81610e3b565b918285526001918760018216918260001461045d575050600114610401575b5050506103fd92916103ee910385610db0565b51928284938452830190610d0a565b0390f35b9190869350600b83527f0175b7a638427703f0dbe7bb9bbf987a2551717b34e79f33b5b1008d1fa01db95b82841061044557505050820101816103ee6103fd6103db565b8054848a01860152889550879490930192810161042c565b60ff19168782015293151560051b860190930193508492506103ee91506103fd90506103db565b8382346101ea5760803660031901126101ea5761049f610d4a565b6104a7610d65565b9060643567ffffffffffffffff81116104e857366023820112156104e8576104e5938160246104db93369301359101610e04565b91604435916111a6565b80f35b8480fd5b509034610198578060031936011261019857610506610d4a565b90602435918215158093036104e8576001600160a01b03169283156105745750338452600560205280842083855260205280842060ff1981541660ff8416179055519081527f17307eab39ab6107e8899845ad3d59bd9653f200f220920489ca2b5937696c3160203392a380f35b836024925191630b61174360e31b8352820152fd5b8284346103925780600319360112610392578151918282600193600154946105b086610e3b565b918285526020968760018216918260001461045d5750506001146105e1575050506103fd92916103ee910385610db0565b9190869350600183527fb10e2d527612073b26eecdfd717e6a320cf44b4afac2b0732d9fcbe2b7fa0cf65b82841061062557505050820101816103ee6103fd6103db565b8054848a01860152889550879490930192810161060c565b5050346101ea57816003193601126101ea57600a5490516001600160a01b039091168152602090f35b833461039257806003193601126103925761067f611336565b600a80546001600160a01b0319811690915581906001600160a01b03167f8be0079c531659141344cd1fd0a4f28419497f9722a3daafe3b4186f6b6457e08280a380f35b5050346101ea5760203660031901126101ea576020906106e96106e4610d4a565b61116d565b9051908152f35b5091346103925760203660031901126103925750610710602092356112fb565b90516001600160a01b039091168152f35b50346101985760203660031901126101985780359260085484101561075a5760208361074c86611120565b91905490519160031b1c8152f35b6044939192519263295f44f760e21b84528301526024820152fd5b509190346101ea5761078636610d7b565b91835193602085019085821067ffffffffffffffff8311176107b1576104e5969750528584526111a6565b634e487b7160e01b875260418852602487fd5b5090346101985780600319360112610198576107de610d4a565b6024356107e9611336565b6001600160a01b038281169290919083156109ea5790869392918185526020926002845286862054168481158482847fddf252ad1be2c89b69c2b068fc378daa952ba7f163c4a11628f55a4df523b3ef84159b8c6109b7575b83815260038b528d81208054600101905584815260028b528d812080546001600160a01b0319168517905580a4156109495750600854838a526009855280888b2055600160401b81101561093657906108bf846108a68460018a9601600855611120565b90919082549060031b91821b91600019901b1916179055565b036108e6575b505050506108d1578280f35b9160249251916339e3563760e11b8352820152fd5b6108ef9061116d565b60001981019390841161092357875260068252848720838852825284872081905586526007905282852055388080806108c5565b634e487b7160e01b885260118752602488fd5b634e487b7160e01b8a526041895260248afd5b908082146108bf5761095a8161116d565b848b5260078652888b205490828c5260068752898c2091818103610994575b50858c52600787528b8a8120558b52855289888120556108bf565b818d528288528a8d2054818e528b8e208190558d52600788528a8d205538610979565b600085815260046020526040902080546001600160a01b031916905582815260038b528d81208054600019019055610842565b8451633250574960e11b8152808701889052602490fd5b509134610392578160031936011261039257610a1b610d4a565b9260243590610a298561116d565b821015610a5957506001600160a01b03909316815260066020908152828220938252928352819020549051908152f35b925163295f44f760e21b81526001600160a01b0390941692840192835260208301525081906040010390fd5b8334610392576104e5610a9736610d7b565b91610e75565b5050346101ea57816003193601126101ea576020906008549051908152f35b509034610198578060031936011261019857610ad6610d4a565b91602435610ae3816112fb565b33151580610b85575b80610b5c575b610b46576001600160a01b039485169482918691167f8c5be1e5ebec7d5bd14f71427d1e84f3dd0314c0f7b2291e5b200ac8c7c3b9258880a48452602052822080546001600160a01b031916909117905580f35b835163a9fbf51f60e01b81523381850152602490fd5b506001600160a01b03811686526005602090815284872033885290528386205460ff1615610af2565b506001600160a01b038116331415610aec565b503461019857602036600319011261019857918260209335610bb9816112fb565b50825283528190205490516001600160a01b039091168152f35b82843461039257806003193601126103925781519182828354610bf581610e3b565b908184526020956001918760018216918260001461045d575050600114610c29575050506103fd92916103ee910385610db0565b91908693508280527f290decd9548b62a8d60345a988386fc84ba6bc95484008f6362f93160ef3e5635b828410610c6c57505050820101816103ee6103fd6103db565b8054848a018601528895508794909301928101610c53565b92505034610198576020366003190112610198573563ffffffff60e01b8116809103610198576020925063780e9d6360e01b8114908115610cc7575b5015158152f35b6380ac58cd60e01b811491508115610cf9575b8115610ce8575b5038610cc0565b6301ffc9a760e01b14905038610ce1565b635b5e139f60e01b81149150610cda565b919082519283825260005b848110610d36575050826000602080949584010152601f8019910116010190565b602081830181015184830182015201610d15565b600435906001600160a01b0382168203610d6057565b600080fd5b602435906001600160a01b0382168203610d6057565b6060906003190112610d60576001600160a01b03906004358281168103610d6057916024359081168103610d60579060443590565b90601f8019910116810190811067ffffffffffffffff821117610dd257604052565b634e487b7160e01b600052604160045260246000fd5b67ffffffffffffffff8111610dd257601f01601f191660200190565b929192610e1082610de8565b91610e1e6040519384610db0565b829481845281830111610d60578281602093846000960137010152565b90600182811c92168015610e6b575b6020831014610e5557565b634e487b7160e01b600052602260045260246000fd5b91607f1691610e4a565b6001600160a01b038281169391841561110757600094838652602095600287526040968488832054169633151580611079575b5087158015611046575b84845260038352898420805460010190558784526002835289842080546001600160a01b0319168617905587858a7fddf252ad1be2c89b69c2b068fc378daa952ba7f163c4a11628f55a4df523b3ef8780a415610fda5760085487845260098352808a852055600160401b811015610fc657876108a6826001610f389401600855611120565b838803610f74575b505050501692838303610f535750505050565b6064945051926364283d7b60e01b8452600484015260248301526044820152fd5b610f7d9061116d565b600019810193908411610fb25782916007918a9452600681528383208584528152878484205587835252205538808080610f40565b634e487b7160e01b83526011600452602483fd5b634e487b7160e01b84526041600452602484fd5b878414610f3857610fea8861116d565b878452600783528984205490898552600684528a852091818103611024575b5088855260078452848b812055845282528289812055610f38565b8186528285528b862054818752808d8820558652600785528b86205538611009565b600088815260046020526040902080546001600160a01b0319169055888452600383528984208054600019019055610eb2565b806110c6575b1561108a5738610ea8565b8887896110a7576024915190637e27328960e01b82526004820152fd5b905163177e802f60e01b81523360048201526024810191909152604490fd5b5033881480156110eb575b8061107f57508683526004825233868a852054161461107f565b5087835260058252888320338452825260ff89842054166110d1565b604051633250574960e11b815260006004820152602490fd5b6008548110156111575760086000527ff3f7a9fe364faab93b216da50a3214154f22a0a2b415b23a84c8169e8b636ee30190600090565b634e487b7160e01b600052603260045260246000fd5b6001600160a01b0316801561118d57600052600360205260406000205490565b6040516322718ad960e21b815260006004820152602490fd5b9290926111b4838583610e75565b833b6111c1575b50505050565b604051630a85bd0160e11b8082523360048301526001600160a01b039283166024830152604482019490945260806064820152949316926020929091859061120d906084830190610d0a565b039483816000978189895af18691816112b7575b50611282575050503d600014611279573d61123b81610de8565b906112496040519283610db0565b81528093823d92013e5b8251928361127457604051633250574960e11b815260048101849052602490fd5b019050fd5b60609250611253565b919450915063ffffffff60e01b160361129f5750388080806111bb565b60249060405190633250574960e11b82526004820152fd5b9091508481813d83116112f4575b6112cf8183610db0565b810103126112f057516001600160e01b0319811681036112f0579038611221565b8680fd5b503d6112c5565b6000818152600260205260409020546001600160a01b031690811561131e575090565b60249060405190637e27328960e01b82526004820152fd5b600a546001600160a01b0316330361134a57565b60405163118cdaa760e01b8152336004820152602490fdfea26469706673582212203aeec259aa183213c999b9c482c98500c46e9505b1c135008ea682f6a99ead0e64736f6c63430008160033",
  "linkReferences": {},
  "deployedLinkReferences": {}
}