{
  "_format": "hh-sol-artifact-1",
  "contractName": "MockPriceFeed",
  "sourceName": "contracts/task3/MockPriceFeed.sol",
  "abi": [
    {
      "inputs": [
        {
          "internalType": "uint8",
          "name": "_decimals",
          "type": "uint8"
        },
        {
          "internalType": "string",
          "name": "_description",
          "type": "string"
        },
        {
          "internalType": "uint256",
          "name": "_version",
          "type": "uint256"
        },
        {
          "internalType": "int256",
          "name": "_initialPrice",
          "type": "int256"
        }
      ],
      "stateMutability": "nonpayable",
      "type": "constructor"
    },
    {
      "inputs": [],
      "name": "decimals",
      "outputs": [
        {
          "internalType": "uint8",
          "name": "",
          "type": "uint8"
        }
      ],
      "stateMutability": "view",
      "type": "function"
    },
    {
      "inputs": [],
      "name": "description",
      "outputs": [
        {
          "internalType": "string",
          "name": "",
          "type": "string"
        }
      ],
      "stateMutability": "view",
      "type": "function"
    },
    {
      "inputs": [
        {
          "internalType": "uint80",
          "name": "_roundId",
          "type": "uint80"
        }
      ],
      "name": "getRoundData",
      "outputs": [
        {
          "internalType": "uint80",
          "name": "roundId",
          "type": "uint80"
        },
        {
          "internalType": "int256",
          "name": "answer",
          "type": "int256"
        },
        {
          "internalType": "uint256",
          "name": "startedAt",
          "type": "uint256"
        },
        {
          "internalType": "uint256",
          "name": "updatedAt",
          "type": "uint256"
        },
        {
          "internalType": "uint80",
          "name": "answeredInRound",
          "type": "uint80"
        }
      ],
      "stateMutability": "view",
      "type": "function"
    },
    {
      "inputs": [],
      "name": "latestRoundData",
      "outputs": [
        {
          "internalType": "uint80",
          "name": "roundId",
          "type": "uint80"
        },
        {
          "internalType": "int256",
          "name": "answer",
          "type": "int256"
        },
        {
          "internalType": "uint256",
          "name": "startedAt",
          "type": "uint256"
        },
        {
          "internalType": "uint256",
          "name": "updatedAt",
          "type": "uint256"
        },
        {
          "internalType": "uint80",
          "name": "answeredInRound",
          "type": "uint80"
        }
      ],
      "stateMutability": "view",
      "type": "function"
    },
    {
      "inputs": [],
      "name": "latestRoundData_",
      "outputs": [
        {
          "internalType": "uint80",
          "name": "roundId",
          "type": "uint80"
        },
        {
          "internalType": "int256",
          "name": "answer",
          "type": "int256"
        },
        {
          "internalType": "uint256",
          "name": "startedAt",
          "type": "uint256"
        },
        {
          "internalType": "uint256",
          "name": "updatedAt",
          "type": "uint256"
        },
        {
          "internalType": "uint80",
          "name": "answeredInRound",
          "type": "uint80"
        }
      ],
      "stateMutability": "view",
      "type": "function"
    },
    {
      "inputs": [
        {
          "internalType": "uint80",
          "name": "",
          "type": "uint80"
        }
      ],
      "name": "rounds",
      "outputs": [
        {
          "internalType": "uint80",
          "name": "roundId",
          "type": "uint80"
        },
        {
          "internalType": "int256",
          "name": "answer",
          "type": "int256"
        },
        {
          "internalType": "uint256",
          "name": "startedAt",
          "type": "uint256"
        },
        {
          "internalType": "uint256",
          "name": "updatedAt",
          "type": "uint256"
        },
        {
          "internalType": "uint80",
          "name": "answeredInRound",
          "type": "uint80"
        }
      ],
      "stateMutability": "view",
      "type": "function"
    },
    {
      "inputs": [
        {
          "internalType": "int256",
          "name": "_price",
          "type": "int256"
        }
      ],
      "name": "updatePrice",
      "outputs": [],
      "stateMutability": "nonpayable",
      "type": "function"
    },
    {
      "inputs": [],
      "name": "version",
      "outputs": [
        {
          "internalType": "uint256",
          "name": "",
          "type": "uint256"
        }
      ],
      "stateMutability": "view",
      "type": "function"
    }
  ],
  "bytecode": "0x604060808152346102ca576107c58038038061001a816102cf565b92833981016080828203126102ca5781519160ff83168093036102ca576020818101516001600160401b0392908381116102ca578101601f908582820112156102ca5780518581116101c057601f1991610079828501841687016102cf565b978289528683830101116102ca57859060005b8381106102b6575050600091880101526060888401519301519660ff1960005416176000558551918583116101c0576001968754928884811c941680156102ac575b87851014610296578383869511610241575b50869284116001146101e157506000926101d6575b5050600019600383901b1c191690851b1784555b600255845160a08101928311818410176101c05760808491600894885282815286848201524288820152426060820152015260018060501b0319938385600354161760035560045542600555426006558284600754161760075582600052528260002060038103610183575b83516104d090816102f58239f35b816004928483541617825582549082015560055460028201556006546003820155019060018060501b036007541690825416179055388080610175565b634e487b7160e01b600052604160045260246000fd5b0151905038806100f5565b8894929192169184600052866000209260005b8882821061022b5750508411610212575b505050811b018455610109565b015160001960f88460031b161c19169055388080610205565b8385015186558b979095019493840193016101f4565b909192935088600052866000208480870160051c82019289881061028d575b9187968c92969594930160051c01915b82811061027e5750506100e0565b600081558796508b9101610270565b92508192610260565b634e487b7160e01b600052602260045260246000fd5b93607f16936100ce565b8181018301518a820184015287920161008c565b600080fd5b6040519190601f01601f191682016001600160401b038111838210176101c05760405256fe60806040908082526004908136101561001757600080fd5b600090813560e01c9081632ede662f1461040857508063313ce567146103e857806354fd4d50146103c95780635fc22f661461038d5780637284e4161461022c5780639a6fc8f514610179578063d4c19bda146100bf5763feaf968c1461007d57600080fd5b346100bc57806003193601126100bc57506100b86001600160501b03928360035416925493600554600654916007541692519586958661046a565b0390f35b80fd5b5091903461017557602036600319011261017557600354906001600160501b039260018484160184811161016257841690816001600160501b0319809516176003558235835542600555426006558184600754161760075581865260086020528520906003820361012e578580f35b8382541617815581546001820155600554600282015560065460038201550191600754169082541617905538808080808580f35b634e487b7160e01b865260118352602486fd5b8280fd5b508234610228576020366003190112610228578235926001600160501b039384811680910361022457835260086020528183209180519360a085019085821067ffffffffffffffff831117610211575091816080936100b8959352868354169586815260018401549788602083015260028501549384848401526003860154958660608501520154169485910152519586958661046a565b634e487b7160e01b815260418452602490fd5b8380fd5b5080fd5b509134610175578260031936011261017557805183600194600154908160011c60018316978815610383575b6020938483108a1461037057848798999a8489529182600014610354575050600114610300575b5050601f801995869203011683019583871067ffffffffffffffff8811176102ed575085929391838652818452845191828186015281955b8387106102d55750508394508582601f949501015201168101030190f35b868101820151898801890152958101958895506102b7565b634e487b7160e01b835260419052602482fd5b600185528492507fb10e2d527612073b26eecdfd717e6a320cf44b4afac2b0732d9fcbe2b7fa0cf65b82841061033e5750505083018101388061027f565b8054888501860152879650928401928101610329565b925093505060ff191682860152151560051b840101388061027f565b634e487b7160e01b865260228952602486fd5b90607f1690610258565b50346100bc57806003193601126100bc57506100b86001600160501b03928360035416925493600554600654916007541692519586958661046a565b5082346102285781600319360112610228576020906002549051908152f35b50823461022857816003193601126102285760ff60209254169051908152f35b9050838334610224576020366003190112610224578035916001600160501b03928381168091036104665790856100b8949392869752600860205220908282541692600183015490600284015492600385015494015416938661046a565b8580fd5b93608093969591929660a08601976001600160501b0380951687526020870152604086015260608501521691015256fea26469706673582212202835b28209865e62b211d0ec3ef3deed73dff7257c8eaf57fccfb3e908817d9564736f6c63430008160033",
  "linkReferences": {},
  "deployedLinkReferences": {}
}