{
  "_format": "hh-sol-artifact-1",
  "contractName": "PriceFeedRegistry",
  "sourceName": "contracts/task3/MockPriceFeed.sol",
  "abi": [
    {
      "anonymous": false,
      "inputs": [
        {
          "indexed": true,
          "internalType": "address",
          "name": "token",
          "type": "address"
        },
        {
          "indexed": true,
          "internalType": "address",
          "name": "priceFeed",
          "type": "address"
        }
      ],
      "name": "PriceFeedAdded",
      "type": "event"
    },
    {
      "anonymous": false,
      "inputs": [
        {
          "indexed": true,
          "internalType": "address",
          "name": "token",
          "type": "address"
        },
        {
          "indexed": true,
          "internalType": "address",
          "name": "oldPriceFeed",
          "type": "address"
        },
        {
          "indexed": true,
          "internalType": "address",
          "name": "newPriceFeed",
          "type": "address"
        }
      ],
      "name": "PriceFeedUpdated",
      "type": "event"
    },
    {
      "inputs": [
        {
          "internalType": "address",
          "name": "token",
          "type": "address"
        }
      ],
      "name": "getPrice",
      "outputs": [
        {
          "internalType": "int256",
          "name": "",
          "type": "int256"
        }
      ],
      "stateMutability": "view",
      "type": "function"
    },
    {
      "inputs": [],
      "name": "getSupportedTokens",
      "outputs": [
        {
          "internalType": "address[]",
          "name": "",
          "type": "address[]"
        }
      ],
      "stateMutability": "view",
      "type": "function"
    },
    {
      "inputs": [
        {
          "internalType": "address",
          "name": "token",
          "type": "address"
        }
      ],
      "name": "isTokenSupported",
      "outputs": [
        {
          "internalType": "bool",
          "name": "",
          "type": "bool"
        }
      ],
      "stateMutability": "view",
      "type": "function"
    },
    {
      "inputs": [
        {
          "internalType": "address",
          "name": "",
          "type": "address"
        }
      ],
      "name": "priceFeeds",
      "outputs": [
        {
          "internalType": "address",
          "name": "",
          "type": "address"
        }
      ],
      "stateMutability": "view",
      "type": "function"
    },
    {
      "inputs": [
        {
          "internalType": "address",
          "name": "token",
          "type": "address"
        },
        {
          "internalType": "address",
          "name": "priceFeed",
          "type": "address"
        }
      ],
      "name": "setPriceFeed",
      "outputs": [],
      "stateMutability": "nonpayable",
      "type": "function"
    },
    {
      "inputs": [
        {
          "internalType": "uint256",
          "name": "",
          "type": "uint256"
        }
      ],
      "name": "supportedTokens",
      "outputs": [
        {
          "internalType": "address",
          "name": "",
          "type": "address"
        }
      ],
      "stateMutability": "view",
      "type": "function"
    }
  ],
  "bytecode": "0x6080806040523461001657610514908161001c8239f35b600080fdfe608060408181526004918236101561001657600080fd5b600092833560e01c91826341976e09146103285750816375151b63146102ec57816376e11286146101a65781639dcb511a1461016c578163c625562614610124575063d3c7c2c71461006757600080fd5b3461012057816003193601126101205780516001805480835281855260208084019592939186907fb10e2d527612073b26eecdfd717e6a320cf44b4afac2b0732d9fcbe2b7fa0cf690855b81811061010457505050826100c891038361048f565b8451948186019282875251809352850195925b8281106100e85785870386f35b83516001600160a01b03168752958101959281019284016100db565b82546001600160a01b03168452928401929187019187016100b2565b5080fd5b905034610168576020366003190112610168573591600154831015610165575061014f602092610442565b905491519160018060a01b039160031b1c168152f35b80fd5b8280fd5b505034610120576020366003190112610120576020916001600160a01b0390829082610196610427565b1681528085522054169051908152f35b919050346101685780600319360112610168576101c1610427565b6001600160a01b03602435818116949192908590036102e85784156102a5578216808652602086905292852080546001600160a01b03198116861790915582168061027a57506001549068010000000000000000821015610267575080600161022d9201600155610442565b819291549060031b9184831b921b19161790557f2940c4bfb544a4b0a5b4262767947b0acc0b8f144197528463c4d476658cff798380a380f35b634e487b7160e01b865260419052602485fd5b929150507f749f8bd52d751fb993fa16283117f0242f19e5471f5cb26f1185d1028cd803e58480a480f35b835162461bcd60e51b8152602081840152601a60248201527f496e76616c6964207072696365206665656420616464726573730000000000006044820152606490fd5b8580fd5b505034610120576020366003190112610120576020916001600160a01b0390829082610316610427565b16815280855220541615159051908152f35b9092915034610423576020366003190112610423576001600160a01b038061034e610427565b1685528460205282852054169081156103eb575060a090825193848092633fabe5a360e21b82525afa9182156103e157839261038f575b6020838351908152f35b90915060a0813d60a0116103d9575b816103ab60a0938361048f565b8101031261016857602092506103c0816104c7565b506103d160808483015192016104c7565b509038610385565b3d915061039e565b81513d85823e3d90fd5b62461bcd60e51b81526020848201526014602482015273141c9a58d94819995959081b9bdd08199bdd5b9960621b6044820152606490fd5b8380fd5b600435906001600160a01b038216820361043d57565b600080fd5b6001548110156104795760016000527fb10e2d527612073b26eecdfd717e6a320cf44b4afac2b0732d9fcbe2b7fa0cf60190600090565b634e487b7160e01b600052603260045260246000fd5b90601f8019910116810190811067ffffffffffffffff8211176104b157604052565b634e487b7160e01b600052604160045260246000fd5b519069ffffffffffffffffffff8216820361043d5756fea26469706673582212202012d35068168e37efc2a1b057c0982d7b8a7c8b6e577a53a8f9bf07d8e7eebf64736f6c63430008160033",
  "linkReferences": {},
  "deployedLinkReferences": {}
}