{
  "_format": "hh-sol-artifact-1",
  "contractName": "NftAuctionV2",
  "sourceName": "contracts/NftAuctionV2.sol",
  "abi": [
    {
      "inputs": [
        {
          "internalType": "address",
          "name": "target",
          "type": "address"
        }
      ],
      "name": "AddressEmptyCode",
      "type": "error"
    },
    {
      "inputs": [
        {
          "internalType": "address",
          "name": "implementation",
          "type": "address"
        }
      ],
      "name": "ERC1967InvalidImplementation",
      "type": "error"
    },
    {
      "inputs": [],
      "name": "ERC1967NonPayable",
      "type": "error"
    },
    {
      "inputs": [],
      "name": "FailedCall",
      "type": "error"
    },
    {
      "inputs": [],
      "name": "InvalidInitialization",
      "type": "error"
    },
    {
      "inputs": [],
      "name": "NotInitializing",
      "type": "error"
    },
    {
      "inputs": [],
      "name": "UUPSUnauthorizedCallContext",
      "type": "error"
    },
    {
      "inputs": [
        {
          "internalType": "bytes32",
          "name": "slot",
          "type": "bytes32"
        }
      ],
      "name": "UUPSUnsupportedProxiableUUID",
      "type": "error"
    },
    {
      "anonymous": false,
      "inputs": [
        {
          "indexed": false,
          "internalType": "uint64",
          "name": "version",
          "type": "uint64"
        }
      ],
      "name": "Initialized",
      "type": "event"
    },
    {
      "anonymous": false,
      "inputs": [
        {
          "indexed": true,
          "internalType": "address",
          "name": "implementation",
          "type": "address"
        }
      ],
      "name": "Upgraded",
      "type": "event"
    },
    {
      "inputs": [],
      "name": "UPGRADE_INTERFACE_VERSION",
      "outputs": [
        {
          "internalType": "string",
          "name": "",
          "type": "string"
        }
      ],
      "stateMutability": "view",
      "type": "function"
    },
    {
      "inputs": [],
      "name": "admin",
      "outputs": [
        {
          "internalType": "address",
          "name": "",
          "type": "address"
        }
      ],
      "stateMutability": "view",
      "type": "function"
    },
    {
      "inputs": [
        {
          "internalType": "uint256",
          "name": "",
          "type": "uint256"
        }
      ],
      "name": "auctions",
      "outputs": [
        {
          "internalType": "address",
          "name": "seller",
          "type": "address"
        },
        {
          "internalType": "uint256",
          "name": "duration",
          "type": "uint256"
        },
        {
          "internalType": "uint256",
          "name": "startPrice",
          "type": "uint256"
        },
        {
          "internalType": "uint256",
          "name": "startTime",
          "type": "uint256"
        },
        {
          "internalType": "bool",
          "name": "ended",
          "type": "bool"
        },
        {
          "internalType": "address",
          "name": "highestBidder",
          "type": "address"
        },
        {
          "internalType": "uint256",
          "name": "highestBid",
          "type": "uint256"
        },
        {
          "internalType": "address",
          "name": "nftContract",
          "type": "address"
        },
        {
          "internalType": "uint256",
          "name": "tokenId",
          "type": "uint256"
        },
        {
          "internalType": "address",
          "name": "tokenAddress",
          "type": "address"
        }
      ],
      "stateMutability": "view",
      "type": "function"
    },
    {
      "inputs": [
        {
          "internalType": "uint256",
          "name": "_duration",
          "type": "uint256"
        },
        {
          "internalType": "uint256",
          "name": "_startPrice",
          "type": "uint256"
        },
        {
          "internalType": "address",
          "name": "_nftAddress",
          "type": "address"
        },
        {
          "internalType": "uint256",
          "name": "_tokenId",
          "type": "uint256"
        }
      ],
      "name": "createAuction",
      "outputs": [],
      "stateMutability": "nonpayable",
      "type": "function"
    },
    {
      "inputs": [
        {
          "internalType": "uint256",
          "name": "_auctionID",
          "type": "uint256"
        }
      ],
      "name": "endAuction",
      "outputs": [],
      "stateMutability": "nonpayable",
      "type": "function"
    },
    {
      "inputs": [
        {
          "internalType": "address",
          "name": "tokenAddress",
          "type": "address"
        }
      ],
      "name": "getChainlinkDataFeedLatestAnswer",
      "outputs": [
        {
          "internalType": "int256",
          "name": "",
          "type": "int256"
        }
      ],
      "stateMutability": "view",
      "type": "function"
    },
    {
      "inputs": [],
      "name": "initialize",
      "outputs": [],
      "stateMutability": "nonpayable",
      "type": "function"
    },
    {
      "inputs": [],
      "name": "nextAuctionId",
      "outputs": [
        {
          "internalType": "uint256",
          "name": "",
          "type": "uint256"
        }
      ],
      "stateMutability": "view",
      "type": "function"
    },
    {
      "inputs": [
        {
          "internalType": "address",
          "name": "operator",
          "type": "address"
        },
        {
          "internalType": "address",
          "name": "from",
          "type": "address"
        },
        {
          "internalType": "uint256",
          "name": "tokenId",
          "type": "uint256"
        },
        {
          "internalType": "bytes",
          "name": "data",
          "type": "bytes"
        }
      ],
      "name": "onERC721Received",
      "outputs": [
        {
          "internalType": "bytes4",
          "name": "",
          "type": "bytes4"
        }
      ],
      "stateMutability": "pure",
      "type": "function"
    },
    {
      "inputs": [
        {
          "internalType": "uint256",
          "name": "_auctionID",
          "type": "uint256"
        },
        {
          "internalType": "uint256",
          "name": "amount",
          "type": "uint256"
        },
        {
          "internalType": "address",
          "name": "_tokenAddress",
          "type": "address"
        }
      ],
      "name": "placeBid",
      "outputs": [],
      "stateMutability": "payable",
      "type": "function"
    },
    {
      "inputs": [
        {
          "internalType": "address",
          "name": "",
          "type": "address"
        }
      ],
      "name": "priceFeeds",
      "outputs": [
        {
          "internalType": "contract AggregatorV3Interface",
          "name": "",
          "type": "address"
        }
      ],
      "stateMutability": "view",
      "type": "function"
    },
    {
      "inputs": [],
      "name": "proxiableUUID",
      "outputs": [
        {
          "internalType": "bytes32",
          "name": "",
          "type": "bytes32"
        }
      ],
      "stateMutability": "view",
      "type": "function"
    },
    {
      "inputs": [
        {
          "internalType": "address",
          "name": "tokenAddress",
          "type": "address"
        },
        {
          "internalType": "address",
          "name": "_priceFeed",
          "type": "address"
        }
      ],
      "name": "setPriceFeed",
      "outputs": [],
      "stateMutability": "nonpayable",
      "type": "function"
    },
    {
      "inputs": [],
      "name": "testHello",
      "outputs": [
        {
          "internalType": "string",
          "name": "",
          "type": "string"
        }
      ],
      "stateMutability": "pure",
      "type": "function"
    },
    {
      "inputs": [
        {
          "internalType": "address",
          "name": "newImplementation",
          "type": "address"
        },
        {
          "internalType": "bytes",
          "name": "data",
          "type": "bytes"
        }
      ],
      "name": "upgradeToAndCall",
      "outputs": [],
      "stateMutability": "payable",
      "type": "function"
    }
  ],
  "bytecode": "0x60a06040523060805234801561001457600080fd5b5060805161168161003e60003960008181610d9f01528181610dc80152610f5e01526116816000f3fe6080604052600436106100e85760003560e01c8063ad3cb1cc1161008a578063c97c635311610059578063c97c635314610384578063e7078f92146103ba578063f851a440146103da578063fc528482146103fa57600080fd5b8063ad3cb1cc146102f3578063ad6561ec14610331578063b1cb48ef14610344578063b9a2de3a1461036457600080fd5b8063571a26a0116100c6578063571a26a01461016f57806376e11286146102475780638129fc1c146102905780639dcb511a146102a557600080fd5b8063150b7a02146100ed5780634f1ef2861461013757806352d1902d1461014c575b600080fd5b3480156100f957600080fd5b50610119610108366004611233565b630a85bd0160e11b95945050505050565b6040516001600160e01b031990911681526020015b60405180910390f35b61014a6101453660046112e4565b610410565b005b34801561015857600080fd5b5061016161042f565b60405190815260200161012e565b34801561017b57600080fd5b506101ec61018a3660046113a6565b6000602081905290815260409020805460018201546002830154600384015460048501546005860154600687015460078801546008909801546001600160a01b039788169896979596949560ff8516956101009095048116949281169291168a565b604080516001600160a01b039b8c168152602081019a909a528901979097526060880195909552921515608087015290861660a086015260c0850152841660e08401526101008301529091166101208201526101400161012e565b34801561025357600080fd5b5061014a6102623660046113bf565b6001600160a01b03918216600090815260036020526040902080546001600160a01b03191691909216179055565b34801561029c57600080fd5b5061014a61044c565b3480156102b157600080fd5b506102db6102c03660046113f2565b6003602052600090815260409020546001600160a01b031681565b6040516001600160a01b03909116815260200161012e565b3480156102ff57600080fd5b50610324604051806040016040528060058152602001640352e302e360dc1b81525081565b60405161012e919061145d565b61014a61033f366004611470565b610550565b34801561035057600080fd5b5061014a61035f3660046114a5565b61089b565b34801561037057600080fd5b5061014a61037f3660046113a6565b610bbe565b34801561039057600080fd5b5060408051808201909152600d81526c48656c6c6f2c20576f726c642160981b6020820152610324565b3480156103c657600080fd5b506101616103d53660046113f2565b610d07565b3480156103e657600080fd5b506002546102db906001600160a01b031681565b34801561040657600080fd5b5061016160015481565b610418610d94565b61042182610e3b565b61042b8282610e91565b5050565b6000610439610f53565b5060008051602061162c83398151915290565b6000610456610f9c565b805490915060ff600160401b820416159067ffffffffffffffff1660008115801561047e5750825b905060008267ffffffffffffffff16600114801561049b5750303b155b9050811580156104a9575080155b156104c75760405163f92ee8a960e01b815260040160405180910390fd5b845467ffffffffffffffff1916600117855583156104f157845460ff60401b1916600160401b1785555b600280546001600160a01b03191633179055831561054957845460ff60401b19168555604051600181527fc7f505b2f371ae2175ee4913f4499e1f2633a7b5936321eed1cdaeb6115181d29060200160405180910390a15b5050505050565b6000838152602081905260409020600481015460ff161580156105855750428160010154826003015461058391906114f8565b115b6105ca5760405162461bcd60e51b8152602060048201526011602482015270105d58dd1a5bdb881a185cc8195b991959607a1b60448201526064015b60405180910390fd5b60006001600160a01b038316156105f5576105e483610d07565b6105ee908561150b565b905061060f565b3493506106026000610d07565b61060c908561150b565b90505b6008820154600090610629906001600160a01b0316610d07565b8360020154610638919061150b565b6008840154909150600090610655906001600160a01b0316610d07565b8460050154610664919061150b565b905081831015801561067557508083115b6106d95760405162461bcd60e51b815260206004820152602f60248201527f426964206d75737420626520686967686572207468616e20746865206375727260448201526e195b9d081a1a59da195cdd08189a59608a1b60648201526084016105c1565b6001600160a01b03851615610761576040516323b872dd60e01b8152336004820152306024820152604481018790526001600160a01b038616906323b872dd906064016020604051808303816000875af115801561073b573d6000803e3d6000fd5b505050506040513d601f19601f8201168201806040525081019061075f9190611522565b505b6005840154156108525760088401546001600160a01b03166107c757600484015460058501546040516101009092046001600160a01b0316916108fc82150291906000818181858888f193505050501580156107c1573d6000803e3d6000fd5b50610852565b6008840154600480860154600587015460405163a9059cbb60e01b81526101009092046001600160a01b0390811693830193909352602482015291169063a9059cbb906044016020604051808303816000875af115801561082c573d6000803e3d6000fd5b505050506040513d601f19601f820116820180604052508101906108509190611522565b505b5050506008810180546001600160a01b0319166001600160a01b03939093169290921790915560058101919091556004018054610100600160a81b031916610100330217905550565b6002546001600160a01b031633146108f55760405162461bcd60e51b815260206004820152601e60248201527f4f6e6c792061646d696e2063616e206372656174652061756374696f6e73000060448201526064016105c1565b600a8410156109505760405162461bcd60e51b815260206004820152602160248201527f4475726174696f6e206d7573742062652067726561746572207468616e2031306044820152607360f81b60648201526084016105c1565b600083116109ab5760405162461bcd60e51b815260206004820152602260248201527f5374617274207072696365206d7573742062652067726561746572207468616e604482015261020360f41b60648201526084016105c1565b604051632142170760e11b8152336004820152306024820152604481018290526001600160a01b038316906342842e0e90606401600060405180830381600087803b1580156109f957600080fd5b505af1158015610a0d573d6000803e3d6000fd5b50505050604051806101400160405280336001600160a01b0316815260200185815260200184815260200142815260200160001515815260200160006001600160a01b0316815260200160008152602001836001600160a01b0316815260200182815260200160006001600160a01b0316815250600080600154815260200190815260200160002060008201518160000160006101000a8154816001600160a01b0302191690836001600160a01b0316021790555060208201518160010155604082015181600201556060820151816003015560808201518160040160006101000a81548160ff02191690831515021790555060a08201518160040160016101000a8154816001600160a01b0302191690836001600160a01b0316021790555060c0820151816005015560e08201518160060160006101000a8154816001600160a01b0302191690836001600160a01b0316021790555061010082015181600701556101208201518160080160006101000a8154816001600160a01b0302191690836001600160a01b0316021790555090505060016000815480929190610bb390611544565b919050555050505050565b60008060008381526020019081526020016000209050610c0a6040518060400160405280600a81526020016932b73220bab1ba34b7b760b11b8152508260030154836001015442610fc7565b600481015460ff16158015610c3257504281600101548260030154610c2f91906114f8565b11155b610c765760405162461bcd60e51b8152602060048201526015602482015274105d58dd1a5bdb881a185cc81b9bdd08195b991959605a1b60448201526064016105c1565b60068101546004808301546007840154604051632142170760e11b815230938101939093526001600160a01b03610100909204821660248401526044830152909116906342842e0e90606401600060405180830381600087803b158015610cdc57600080fd5b505af1158015610cf0573d6000803e3d6000fd5b5050506004909101805460ff191660011790555050565b6001600160a01b03808216600090815260036020526040808220548151633fabe5a360e21b81529151929316918391839163feaf968c9160048082019260a0929091908290030181865afa158015610d63573d6000803e3d6000fd5b505050506040513d601f19601f82011682018060405250810190610d879190611577565b5091979650505050505050565b306001600160a01b037f0000000000000000000000000000000000000000000000000000000000000000161480610e1b57507f00000000000000000000000000000000000000000000000000000000000000006001600160a01b0316610e0f60008051602061162c833981519152546001600160a01b031690565b6001600160a01b031614155b15610e395760405163703e46dd60e11b815260040160405180910390fd5b565b6002546001600160a01b03163314610e8e5760405162461bcd60e51b81526020600482015260166024820152754f6e6c792061646d696e2063616e207570677261646560501b60448201526064016105c1565b50565b816001600160a01b03166352d1902d6040518163ffffffff1660e01b8152600401602060405180830381865afa925050508015610eeb575060408051601f3d908101601f19168201909252610ee8918101906115c7565b60015b610f1357604051634c9c8ce360e01b81526001600160a01b03831660048201526024016105c1565b60008051602061162c8339815191528114610f4457604051632a87526960e21b8152600481018290526024016105c1565b610f4e8383611016565b505050565b306001600160a01b037f00000000000000000000000000000000000000000000000000000000000000001614610e395760405163703e46dd60e11b815260040160405180910390fd5b6000807ff0c57e16840df040f15088dc2f81fe391c3923bec73e23a9662efc9c229c6a005b92915050565b61101084848484604051602401610fe194939291906115e0565b60408051601f198184030181529190526020810180516001600160e01b031663a7a8785360e01b17905261106c565b50505050565b61101f82611075565b6040516001600160a01b038316907fbc7cd75a20ee27fd9adebab32041f755214dbc6bffa90cc0225b39da2e5c2d3b90600090a280511561106457610f4e82826110da565b61042b611150565b610e8e8161116f565b806001600160a01b03163b6000036110ab57604051634c9c8ce360e01b81526001600160a01b03821660048201526024016105c1565b60008051602061162c83398151915280546001600160a01b0319166001600160a01b0392909216919091179055565b6060600080846001600160a01b0316846040516110f7919061160f565b600060405180830381855af49150503d8060008114611132576040519150601f19603f3d011682016040523d82523d6000602084013e611137565b606091505b5091509150611147858383611190565b95945050505050565b3415610e395760405163b398979f60e01b815260040160405180910390fd5b60006a636f6e736f6c652e6c6f679050600080835160208501845afa505050565b6060826111a5576111a0826111ef565b6111e8565b81511580156111bc57506001600160a01b0384163b155b156111e557604051639996b31560e01b81526001600160a01b03851660048201526024016105c1565b50805b9392505050565b8051156111fe57805160208201fd5b60405163d6bda27560e01b815260040160405180910390fd5b80356001600160a01b038116811461122e57600080fd5b919050565b60008060008060006080868803121561124b57600080fd5b61125486611217565b945061126260208701611217565b935060408601359250606086013567ffffffffffffffff8082111561128657600080fd5b818801915088601f83011261129a57600080fd5b8135818111156112a957600080fd5b8960208285010111156112bb57600080fd5b9699959850939650602001949392505050565b634e487b7160e01b600052604160045260246000fd5b600080604083850312156112f757600080fd5b61130083611217565b9150602083013567ffffffffffffffff8082111561131d57600080fd5b818501915085601f83011261133157600080fd5b813581811115611343576113436112ce565b604051601f8201601f19908116603f0116810190838211818310171561136b5761136b6112ce565b8160405282815288602084870101111561138457600080fd5b8260208601602083013760006020848301015280955050505050509250929050565b6000602082840312156113b857600080fd5b5035919050565b600080604083850312156113d257600080fd5b6113db83611217565b91506113e960208401611217565b90509250929050565b60006020828403121561140457600080fd5b6111e882611217565b60005b83811015611428578181015183820152602001611410565b50506000910152565b6000815180845261144981602086016020860161140d565b601f01601f19169290920160200192915050565b6020815260006111e86020830184611431565b60008060006060848603121561148557600080fd5b833592506020840135915061149c60408501611217565b90509250925092565b600080600080608085870312156114bb57600080fd5b84359350602085013592506114d260408601611217565b9396929550929360600135925050565b634e487b7160e01b600052601160045260246000fd5b80820180821115610fc157610fc16114e2565b8082028115828204841417610fc157610fc16114e2565b60006020828403121561153457600080fd5b815180151581146111e857600080fd5b600060018201611556576115566114e2565b5060010190565b805169ffffffffffffffffffff8116811461122e57600080fd5b600080600080600060a0868803121561158f57600080fd5b6115988661155d565b94506020860151935060408601519250606086015191506115bb6080870161155d565b90509295509295909350565b6000602082840312156115d957600080fd5b5051919050565b6080815260006115f36080830187611431565b6020830195909552506040810192909252606090910152919050565b6000825161162181846020870161140d565b919091019291505056fe360894a13ba1a3210667c828492db98dca3e2076cc3735a920a3ca505d382bbca264697066735822122092c875c5b658e52e6135035ca94cc3fc1c969423b4c9eaac02a949899e870b4764736f6c63430008160033",
  "linkReferences": {},
  "deployedLinkReferences": {}
}