{
  "_format": "hh-sol-artifact-1",
  "contractName": "NftAuctionV2",
  "sourceName": "contracts/NftAuctionV2.sol",
  "abi": [
    {
      "inputs": [
        {
          "internalType": "address",
          "name": "target",
          "type": "address"
        }
      ],
      "name": "AddressEmptyCode",
      "type": "error"
    },
    {
      "inputs": [
        {
          "internalType": "address",
          "name": "implementation",
          "type": "address"
        }
      ],
      "name": "ERC1967InvalidImplementation",
      "type": "error"
    },
    {
      "inputs": [],
      "name": "ERC1967NonPayable",
      "type": "error"
    },
    {
      "inputs": [],
      "name": "FailedCall",
      "type": "error"
    },
    {
      "inputs": [],
      "name": "InvalidInitialization",
      "type": "error"
    },
    {
      "inputs": [],
      "name": "NotInitializing",
      "type": "error"
    },
    {
      "inputs": [],
      "name": "ReentrancyGuardReentrantCall",
      "type": "error"
    },
    {
      "inputs": [],
      "name": "UUPSUnauthorizedCallContext",
      "type": "error"
    },
    {
      "inputs": [
        {
          "internalType": "bytes32",
          "name": "slot",
          "type": "bytes32"
        }
      ],
      "name": "UUPSUnsupportedProxiableUUID",
      "type": "error"
    },
    {
      "anonymous": false,
      "inputs": [
        {
          "indexed": false,
          "internalType": "uint64",
          "name": "version",
          "type": "uint64"
        }
      ],
      "name": "Initialized",
      "type": "event"
    },
    {
      "anonymous": false,
      "inputs": [
        {
          "indexed": true,
          "internalType": "address",
          "name": "implementation",
          "type": "address"
        }
      ],
      "name": "Upgraded",
      "type": "event"
    },
    {
      "inputs": [],
      "name": "UPGRADE_INTERFACE_VERSION",
      "outputs": [
        {
          "internalType": "string",
          "name": "",
          "type": "string"
        }
      ],
      "stateMutability": "view",
      "type": "function"
    },
    {
      "inputs": [],
      "name": "admin",
      "outputs": [
        {
          "internalType": "address",
          "name": "",
          "type": "address"
        }
      ],
      "stateMutability": "view",
      "type": "function"
    },
    {
      "inputs": [
        {
          "internalType": "uint256",
          "name": "",
          "type": "uint256"
        }
      ],
      "name": "auctions",
      "outputs": [
        {
          "internalType": "address",
          "name": "seller",
          "type": "address"
        },
        {
          "internalType": "uint256",
          "name": "duration",
          "type": "uint256"
        },
        {
          "internalType": "uint256",
          "name": "startPrice",
          "type": "uint256"
        },
        {
          "internalType": "uint256",
          "name": "startTime",
          "type": "uint256"
        },
        {
          "internalType": "bool",
          "name": "ended",
          "type": "bool"
        },
        {
          "internalType": "address",
          "name": "highestBidder",
          "type": "address"
        },
        {
          "internalType": "uint256",
          "name": "highestBid",
          "type": "uint256"
        },
        {
          "internalType": "address",
          "name": "nftContract",
          "type": "address"
        },
        {
          "internalType": "uint256",
          "name": "tokenId",
          "type": "uint256"
        },
        {
          "internalType": "address",
          "name": "tokenAddress",
          "type": "address"
        }
      ],
      "stateMutability": "view",
      "type": "function"
    },
    {
      "inputs": [
        {
          "internalType": "uint256",
          "name": "_duration",
          "type": "uint256"
        },
        {
          "internalType": "uint256",
          "name": "_startPrice",
          "type": "uint256"
        },
        {
          "internalType": "address",
          "name": "_nftAddress",
          "type": "address"
        },
        {
          "internalType": "uint256",
          "name": "_tokenId",
          "type": "uint256"
        }
      ],
      "name": "createAuction",
      "outputs": [],
      "stateMutability": "nonpayable",
      "type": "function"
    },
    {
      "inputs": [
        {
          "internalType": "uint256",
          "name": "_auctionID",
          "type": "uint256"
        }
      ],
      "name": "endAuction",
      "outputs": [],
      "stateMutability": "nonpayable",
      "type": "function"
    },
    {
      "inputs": [
        {
          "internalType": "address",
          "name": "tokenAddress",
          "type": "address"
        }
      ],
      "name": "getChainlinkDataFeedLatestAnswer",
      "outputs": [
        {
          "internalType": "int256",
          "name": "",
          "type": "int256"
        }
      ],
      "stateMutability": "view",
      "type": "function"
    },
    {
      "inputs": [],
      "name": "initialize",
      "outputs": [],
      "stateMutability": "nonpayable",
      "type": "function"
    },
    {
      "inputs": [],
      "name": "nextAuctionId",
      "outputs": [
        {
          "internalType": "uint256",
          "name": "",
          "type": "uint256"
        }
      ],
      "stateMutability": "view",
      "type": "function"
    },
    {
      "inputs": [
        {
          "internalType": "address",
          "name": "operator",
          "type": "address"
        },
        {
          "internalType": "address",
          "name": "from",
          "type": "address"
        },
        {
          "internalType": "uint256",
          "name": "tokenId",
          "type": "uint256"
        },
        {
          "internalType": "bytes",
          "name": "data",
          "type": "bytes"
        }
      ],
      "name": "onERC721Received",
      "outputs": [
        {
          "internalType": "bytes4",
          "name": "",
          "type": "bytes4"
        }
      ],
      "stateMutability": "pure",
      "type": "function"
    },
    {
      "inputs": [
        {
          "internalType": "uint256",
          "name": "_auctionID",
          "type": "uint256"
        },
        {
          "internalType": "uint256",
          "name": "amount",
          "type": "uint256"
        },
        {
          "internalType": "address",
          "name": "_tokenAddress",
          "type": "address"
        }
      ],
      "name": "placeBid",
      "outputs": [],
      "stateMutability": "payable",
      "type": "function"
    },
    {
      "inputs": [
        {
          "internalType": "address",
          "name": "",
          "type": "address"
        }
      ],
      "name": "priceFeeds",
      "outputs": [
        {
          "internalType": "contract AggregatorV3Interface",
          "name": "",
          "type": "address"
        }
      ],
      "stateMutability": "view",
      "type": "function"
    },
    {
      "inputs": [],
      "name": "proxiableUUID",
      "outputs": [
        {
          "internalType": "bytes32",
          "name": "",
          "type": "bytes32"
        }
      ],
      "stateMutability": "view",
      "type": "function"
    },
    {
      "inputs": [
        {
          "internalType": "address",
          "name": "tokenAddress",
          "type": "address"
        },
        {
          "internalType": "address",
          "name": "_priceFeed",
          "type": "address"
        }
      ],
      "name": "setPriceFeed",
      "outputs": [],
      "stateMutability": "nonpayable",
      "type": "function"
    },
    {
      "inputs": [],
      "name": "testHello",
      "outputs": [
        {
          "internalType": "string",
          "name": "",
          "type": "string"
        }
      ],
      "stateMutability": "pure",
      "type": "function"
    },
    {
      "inputs": [
        {
          "internalType": "address",
          "name": "newImplementation",
          "type": "address"
        },
        {
          "internalType": "bytes",
          "name": "data",
          "type": "bytes"
        }
      ],
      "name": "upgradeToAndCall",
      "outputs": [],
      "stateMutability": "payable",
      "type": "function"
    }
  ],
  "bytecode": "0x60a0806040523461002a57306080526112dd90816100308239608051818181610c800152610d600152f35b600080fdfe608060408181526004918236101561001657600080fd5b600092833560e01c918263150b7a0214610f89575081634f1ef28614610ce457816352d1902d14610c6b578163571a26a014610bcd57816376e1128614610b7b5781638129fc1c14610a225781639dcb511a146109e7578163ad3cb1cc146109a2578163ad6561ec1461061d578163b1cb48ef1461034d578163b9a2de3a1461018f57508063c97c63531461013f578063e7078f9214610113578063f851a440146100eb5763fc528482146100ca57600080fd5b346100e757816003193601126100e7576020906001549051908152f35b5080fd5b50346100e757816003193601126100e75760025490516001600160a01b039091168152602090f35b50346100e75760203660031901126100e757602090610138610133610ffa565b61116a565b9051908152f35b50346100e757816003193601126100e757805161018b9161015f8261106b565b600d82526c48656c6c6f2c20576f726c642160981b6020830152519182916020835260208301906110c5565b0390f35b91905034610349576020366003190112610349578135835282602052808320906003820154600183015493858084516101c78161106b565b600a81526932b73220bab1ba34b7b760b11b6020820152855161022781610207602082019463a7a8785360e01b86526080602484015260a48301906110c5565b8860448301528b606483015242608483015203601f198101835282611087565b51906a636f6e736f6c652e6c6f675afa508084019485549260ff8416159182610334575b5050156102f9576006840154600790940154869490939291906001600160a01b0390811690813b156102f5578451632142170760e11b81523093810193845260089490941c166001600160a01b0316602083015260408201949094529092849184919082908490829060600103925af19081156102ec57506102d8575b5050805460ff1916600117905580f35b6102e190611041565b6100e75781386102c8565b513d84823e3d90fd5b8680fd5b606490602084519162461bcd60e51b83528201526015602482015274105d58dd1a5bdb881a185cc81b9bdd08195b991959605a1b6044820152fd5b42925061034091611105565b1115388061024b565b8280fd5b82843461061a57608036600319011261061a5782359260249384359361037161102b565b6002546001600160a01b03929160643591841633036105d857600a851061058c57871561053f578316803b156102f5578251632142170760e11b81523387820190815230602082015260408101849052889082908190606001038183865af1801561053557610522575b50825192610140840198848a1067ffffffffffffffff8b111761050e57889982999899523385526020850196875281850190815285606086019142835260808701928a845260a08801918b83528360c08a01968d885260e08b019889526101008b01998a528d6101208c019e8f52600154815280602052209951169a6bffffffffffffffffffffffff60a01b9b8c8b5416178a555160018a01555160028901555160038801558a87019251151560ff198454169060ff1617835551166104be9190815490610100600160a81b039060081b1690610100600160a81b031916179055565b516005840155836006840191511685825416179055516007820155600801925116908254161790556001549060001982146104fd575060010160015580f35b634e487b7160e01b83526011905250fd5b8a604189634e487b7160e01b600052526000fd5b61052e90979197611041565b95896103db565b84513d8a823e3d90fd5b825162461bcd60e51b81526020818801526022818b01527f5374617274207072696365206d7573742062652067726561746572207468616e604482015261020360f41b6064820152608490fd5b825162461bcd60e51b81526020818801526021818b01527f4475726174696f6e206d7573742062652067726561746572207468616e2031306044820152607360f81b6064820152608490fd5b825162461bcd60e51b8152602081880152601e818b01527f4f6e6c792061646d696e2063616e206372656174652061756374696f6e7300006044820152606490fd5b80fd5b905060603660031901126103495761063361102b565b6024359082358552602092858452848620908082019460ff8654161580610987575b15610951576001600160a01b038481168015801596919492939291906108b0576106816106879161116a565b88611128565b955b60028601549660088701966106be60056106b0888b54169b6106aa8d61116a565b90611128565b9201996106aa8b549161116a565b9082101591826108a6575b50501561084c57908a9392916107e5575b86549081610721575b505084546001600160a01b03191693909317909355505050558054610100600160a81b0319163360081b610100600160a81b03161790555080f35b80f35b86548416908161076d575050505081808092895460081c16875490828215610764575bf11561075a5761071e95505b86388080806106e3565b85513d88823e3d90fd5b506108fc610744565b839560449293958c5460081c16938d51968795869463a9059cbb60e01b865285015260248401525af180156107db5761071e98506107ad575b5050610750565b816107cc92903d106107d4575b6107c48183611087565b81019061113b565b5038806107a6565b503d6107ba565b88513d8b823e3d90fd5b89516323b872dd60e01b815233828201908152306020820152604081018a90528390829081906060010381888a5af1801561084257610825575b506106da565b61083b90833d85116107d4576107c48183611087565b503861081f565b8b513d87823e3d90fd5b5060849189519162461bcd60e51b8352820152602f60248201527f426964206d75737420626520686967686572207468616e20746865206375727260448201526e195b9d081a1a59da195cdd08189a59608a1b6064820152fd5b11905038806106c9565b5095503495898052600382528060a0848b8d2054168b5192838092633fabe5a360e21b82525afa8015610947578b906108f5575b6108ef915034611128565b95610689565b5060a0813d60a01161093f575b8161090f60a09383611087565b8101031261093b57806109246108ef92611153565b506109356080858301519201611153565b506108e4565b8a80fd5b3d9150610902565b8a513d8d823e3d90fd5b865162461bcd60e51b8152918201526011602482015270105d58dd1a5bdb881a185cc8195b991959607a1b604482015260649150fd5b5061099b6003840154600185015490611105565b4210610655565b5050346100e757816003193601126100e757805161018b916109c38261106b565b60058252640352e302e360dc1b6020830152519182916020835260208301906110c5565b5050346100e75760203660031901126100e7576020916001600160a01b0390829082610a11610ffa565b168152600385522054169051908152f35b9050346103495782600319360112610349577ff0c57e16840df040f15088dc2f81fe391c3923bec73e23a9662efc9c229c6a0090815460ff81851c16159167ffffffffffffffff821680159081610b73575b6001149081610b69575b159081610b60575b50610b52575067ffffffffffffffff198116600117835581610b33575b50610aac611203565b610ab4611203565b60017f9b779b17422d0df92223018b32b4d1fa46e071723d6817e2486d003becc55f0055600280546001600160a01b03191633179055610af2578280f35b805468ff00000000000000001916905551600181527fc7f505b2f371ae2175ee4913f4499e1f2633a7b5936321eed1cdaeb6115181d290602090a138808280f35b68ffffffffffffffffff19166801000000000000000117825538610aa3565b845163f92ee8a960e01b8152fd5b90501538610a86565b303b159150610a7e565b849150610a74565b5050346100e757806003193601126100e757610b95610ffa565b906001600160a01b0380610ba7611015565b169216835260036020528220906bffffffffffffffffffffffff60a01b82541617905580f35b9190503461034957602036600319011261034957806101409383358152806020522060018060a01b0391828254169360018301549360028401549160038501549085015490600586015493836006880154169584600860078a0154990154169881519a8b5260208b0152890152606088015260ff81161515608088015260081c1660a086015260c085015260e0840152610100830152610120820152f35b82843461061a578060031936011261061a57507f00000000000000000000000000000000000000000000000000000000000000006001600160a01b03163003610cd757602090517f360894a13ba1a3210667c828492db98dca3e2076cc3735a920a3ca505d382bbc8152f35b5163703e46dd60e11b8152fd5b9180915060031936011261034957610cfa610ffa565b90602493843567ffffffffffffffff81116100e757366023820112156100e75780850135610d27816110a9565b94610d3485519687611087565b81865260209182870193368a8383010111610f85578186928b8693018737880101526001600160a01b037f00000000000000000000000000000000000000000000000000000000000000008116308114908115610f57575b50610f475780600254163303610f0c5781169585516352d1902d60e01b815283818a818b5afa869181610edd575b50610dd6575050505050505191634c9c8ce360e01b8352820152fd5b9088888894938c7f360894a13ba1a3210667c828492db98dca3e2076cc3735a920a3ca505d382bbc91828103610ec85750853b15610eb4575080546001600160a01b031916821790558451889392917fbc7cd75a20ee27fd9adebab32041f755214dbc6bffa90cc0225b39da2e5c2d3b8580a2825115610e96575050610e889582915190845af4913d15610e8c573d610e7a610e71826110a9565b92519283611087565b81528581943d92013e611244565b5080f35b5060609250611244565b955095505050505034610ea857505080f35b63b398979f60e01b8152fd5b8651634c9c8ce360e01b8152808501849052fd5b8751632a87526960e21b815280860191909152fd5b9091508481813d8311610f05575b610ef58183611087565b810103126102f557519038610dba565b503d610eeb565b855162461bcd60e51b81528089018490526016818b0152754f6e6c792061646d696e2063616e207570677261646560501b6044820152606490fd5b855163703e46dd60e11b81528890fd5b9050817f360894a13ba1a3210667c828492db98dca3e2076cc3735a920a3ca505d382bbc5416141538610d8c565b8580fd5b84913461034957608036600319011261034957610fa4610ffa565b50610fad611015565b506064359067ffffffffffffffff90818311610ff65736602384011215610ff657820135908111610ff257369101602401116100e757630a85bd0160e11b8152602090f35b8380fd5b8480fd5b600435906001600160a01b038216820361101057565b600080fd5b602435906001600160a01b038216820361101057565b604435906001600160a01b038216820361101057565b67ffffffffffffffff811161105557604052565b634e487b7160e01b600052604160045260246000fd5b6040810190811067ffffffffffffffff82111761105557604052565b90601f8019910116810190811067ffffffffffffffff82111761105557604052565b67ffffffffffffffff811161105557601f01601f191660200190565b919082519283825260005b8481106110f1575050826000602080949584010152601f8019910116010190565b6020818301810151848301820152016110d0565b9190820180921161111257565b634e487b7160e01b600052601160045260246000fd5b8181029291811591840414171561111257565b90816020910312611010575180151581036110105790565b519069ffffffffffffffffffff8216820361101057565b600460a0600180821b0380600094168452600360205260408420541660405192838092633fabe5a360e21b82525afa9182156111f75780926111ab57505090565b90915060a0823d60a0116111ef575b816111c760a09383611087565b8101031261061a57506111d981611153565b506111eb608060208301519201611153565b5090565b3d91506111ba565b604051903d90823e3d90fd5b60ff7ff0c57e16840df040f15088dc2f81fe391c3923bec73e23a9662efc9c229c6a005460401c161561123257565b604051631afcd79f60e31b8152600490fd5b9061126b575080511561125957602081519101fd5b60405163d6bda27560e01b8152600490fd5b8151158061129e575b61127c575090565b604051639996b31560e01b81526001600160a01b039091166004820152602490fd5b50803b1561127456fea2646970667358221220ead265e6c152c2a661db19df018128e18aa10a70eb73d4e2051de7e2889a8e5564736f6c63430008160033",
  "linkReferences": {},
  "deployedLinkReferences": {}
}