{
  "_format": "hh-sol-artifact-1",
  "contractName": "SimpleCrossChainBridge",
  "sourceName": "contracts/task3/SimpleCrossChainBridge.sol",
  "abi": [
    {
      "inputs": [],
      "stateMutability": "nonpayable",
      "type": "constructor"
    },
    {
      "inputs": [
        {
          "internalType": "address",
          "name": "owner",
          "type": "address"
        }
      ],
      "name": "OwnableInvalidOwner",
      "type": "error"
    },
    {
      "inputs": [
        {
          "internalType": "address",
          "name": "account",
          "type": "address"
        }
      ],
      "name": "OwnableUnauthorizedAccount",
      "type": "error"
    },
    {
      "inputs": [],
      "name": "ReentrancyGuardReentrantCall",
      "type": "error"
    },
    {
      "anonymous": false,
      "inputs": [
        {
          "indexed": true,
          "internalType": "uint64",
          "name": "chainId",
          "type": "uint64"
        },
        {
          "indexed": false,
          "internalType": "bool",
          "name": "supported",
          "type": "bool"
        }
      ],
      "name": "ChainSupported",
      "type": "event"
    },
    {
      "anonymous": false,
      "inputs": [
        {
          "indexed": true,
          "internalType": "bytes32",
          "name": "transferId",
          "type": "bytes32"
        },
        {
          "indexed": true,
          "internalType": "address",
          "name": "recipient",
          "type": "address"
        },
        {
          "indexed": false,
          "internalType": "address",
          "name": "token",
          "type": "address"
        },
        {
          "indexed": false,
          "internalType": "uint256",
          "name": "amount",
          "type": "uint256"
        }
      ],
      "name": "CrossChainTransferCompleted",
      "type": "event"
    },
    {
      "anonymous": false,
      "inputs": [
        {
          "indexed": true,
          "internalType": "bytes32",
          "name": "transferId",
          "type": "bytes32"
        },
        {
          "indexed": true,
          "internalType": "address",
          "name": "sender",
          "type": "address"
        },
        {
          "indexed": true,
          "internalType": "address",
          "name": "recipient",
          "type": "address"
        },
        {
          "indexed": false,
          "internalType": "address",
          "name": "token",
          "type": "address"
        },
        {
          "indexed": false,
          "internalType": "uint256",
          "name": "amount",
          "type": "uint256"
        },
        {
          "indexed": false,
          "internalType": "uint64",
          "name": "destinationChain",
          "type": "uint64"
        },
        {
          "indexed": false,
          "internalType": "string",
          "name": "message",
          "type": "string"
        }
      ],
      "name": "CrossChainTransferInitiated",
      "type": "event"
    },
    {
      "anonymous": false,
      "inputs": [
        {
          "indexed": false,
          "internalType": "uint256",
          "name": "newFee",
          "type": "uint256"
        }
      ],
      "name": "FeeUpdated",
      "type": "event"
    },
    {
      "anonymous": false,
      "inputs": [
        {
          "indexed": true,
          "internalType": "address",
          "name": "previousOwner",
          "type": "address"
        },
        {
          "indexed": true,
          "internalType": "address",
          "name": "newOwner",
          "type": "address"
        }
      ],
      "name": "OwnershipTransferred",
      "type": "event"
    },
    {
      "anonymous": false,
      "inputs": [
        {
          "indexed": true,
          "internalType": "uint64",
          "name": "chainId",
          "type": "uint64"
        },
        {
          "indexed": false,
          "internalType": "address",
          "name": "bridge",
          "type": "address"
        }
      ],
      "name": "RemoteBridgeSet",
      "type": "event"
    },
    {
      "inputs": [
        {
          "internalType": "bytes32",
          "name": "transferId",
          "type": "bytes32"
        },
        {
          "internalType": "address",
          "name": "recipient",
          "type": "address"
        },
        {
          "internalType": "address",
          "name": "token",
          "type": "address"
        },
        {
          "internalType": "uint256",
          "name": "amount",
          "type": "uint256"
        }
      ],
      "name": "completeTransfer",
      "outputs": [],
      "stateMutability": "nonpayable",
      "type": "function"
    },
    {
      "inputs": [
        {
          "internalType": "address",
          "name": "token",
          "type": "address"
        },
        {
          "internalType": "uint256",
          "name": "amount",
          "type": "uint256"
        }
      ],
      "name": "emergencyWithdraw",
      "outputs": [],
      "stateMutability": "nonpayable",
      "type": "function"
    },
    {
      "inputs": [
        {
          "internalType": "bytes32",
          "name": "transferId",
          "type": "bytes32"
        }
      ],
      "name": "getTransfer",
      "outputs": [
        {
          "components": [
            {
              "internalType": "address",
              "name": "sender",
              "type": "address"
            },
            {
              "internalType": "address",
              "name": "recipient",
              "type": "address"
            },
            {
              "internalType": "address",
              "name": "token",
              "type": "address"
            },
            {
              "internalType": "uint256",
              "name": "amount",
              "type": "uint256"
            },
            {
              "internalType": "uint64",
              "name": "destinationChain",
              "type": "uint64"
            },
            {
              "internalType": "string",
              "name": "message",
              "type": "string"
            },
            {
              "internalType": "uint256",
              "name": "timestamp",
              "type": "uint256"
            },
            {
              "internalType": "bool",
              "name": "completed",
              "type": "bool"
            }
          ],
          "internalType": "struct SimpleCrossChainBridge.CrossChainTransfer",
          "name": "",
          "type": "tuple"
        }
      ],
      "stateMutability": "view",
      "type": "function"
    },
    {
      "inputs": [],
      "name": "owner",
      "outputs": [
        {
          "internalType": "address",
          "name": "",
          "type": "address"
        }
      ],
      "stateMutability": "view",
      "type": "function"
    },
    {
      "inputs": [
        {
          "internalType": "uint64",
          "name": "",
          "type": "uint64"
        }
      ],
      "name": "remoteBridges",
      "outputs": [
        {
          "internalType": "address",
          "name": "",
          "type": "address"
        }
      ],
      "stateMutability": "view",
      "type": "function"
    },
    {
      "inputs": [],
      "name": "renounceOwnership",
      "outputs": [],
      "stateMutability": "nonpayable",
      "type": "function"
    },
    {
      "inputs": [
        {
          "internalType": "uint64",
          "name": "chainId",
          "type": "uint64"
        },
        {
          "internalType": "address",
          "name": "bridgeAddress",
          "type": "address"
        }
      ],
      "name": "setRemoteBridge",
      "outputs": [],
      "stateMutability": "nonpayable",
      "type": "function"
    },
    {
      "inputs": [
        {
          "internalType": "uint64",
          "name": "chainId",
          "type": "uint64"
        },
        {
          "internalType": "bool",
          "name": "supported",
          "type": "bool"
        }
      ],
      "name": "setSupportedChain",
      "outputs": [],
      "stateMutability": "nonpayable",
      "type": "function"
    },
    {
      "inputs": [
        {
          "internalType": "uint256",
          "name": "newFee",
          "type": "uint256"
        }
      ],
      "name": "setTransferFee",
      "outputs": [],
      "stateMutability": "nonpayable",
      "type": "function"
    },
    {
      "inputs": [
        {
          "internalType": "address",
          "name": "sender",
          "type": "address"
        },
        {
          "internalType": "address",
          "name": "recipient",
          "type": "address"
        },
        {
          "internalType": "address",
          "name": "token",
          "type": "address"
        },
        {
          "internalType": "uint256",
          "name": "amount",
          "type": "uint256"
        },
        {
          "internalType": "string",
          "name": "message",
          "type": "string"
        }
      ],
      "name": "simulateReceiveTransfer",
      "outputs": [],
      "stateMutability": "nonpayable",
      "type": "function"
    },
    {
      "inputs": [
        {
          "internalType": "uint64",
          "name": "",
          "type": "uint64"
        }
      ],
      "name": "supportedChains",
      "outputs": [
        {
          "internalType": "bool",
          "name": "",
          "type": "bool"
        }
      ],
      "stateMutability": "view",
      "type": "function"
    },
    {
      "inputs": [],
      "name": "transferCounter",
      "outputs": [
        {
          "internalType": "uint256",
          "name": "",
          "type": "uint256"
        }
      ],
      "stateMutability": "view",
      "type": "function"
    },
    {
      "inputs": [
        {
          "internalType": "uint64",
          "name": "destinationChain",
          "type": "uint64"
        },
        {
          "internalType": "address",
          "name": "recipient",
          "type": "address"
        },
        {
          "internalType": "string",
          "name": "message",
          "type": "string"
        }
      ],
      "name": "transferETHCrossChain",
      "outputs": [],
      "stateMutability": "payable",
      "type": "function"
    },
    {
      "inputs": [],
      "name": "transferFee",
      "outputs": [
        {
          "internalType": "uint256",
          "name": "",
          "type": "uint256"
        }
      ],
      "stateMutability": "view",
      "type": "function"
    },
    {
      "inputs": [
        {
          "internalType": "address",
          "name": "newOwner",
          "type": "address"
        }
      ],
      "name": "transferOwnership",
      "outputs": [],
      "stateMutability": "nonpayable",
      "type": "function"
    },
    {
      "inputs": [
        {
          "internalType": "uint64",
          "name": "destinationChain",
          "type": "uint64"
        },
        {
          "internalType": "address",
          "name": "recipient",
          "type": "address"
        },
        {
          "internalType": "address",
          "name": "token",
          "type": "address"
        },
        {
          "internalType": "uint256",
          "name": "amount",
          "type": "uint256"
        },
        {
          "internalType": "string",
          "name": "message",
          "type": "string"
        }
      ],
      "name": "transferTokenCrossChain",
      "outputs": [],
      "stateMutability": "payable",
      "type": "function"
    },
    {
      "inputs": [
        {
          "internalType": "bytes32",
          "name": "",
          "type": "bytes32"
        }
      ],
      "name": "transfers",
      "outputs": [
        {
          "internalType": "address",
          "name": "sender",
          "type": "address"
        },
        {
          "internalType": "address",
          "name": "recipient",
          "type": "address"
        },
        {
          "internalType": "address",
          "name": "token",
          "type": "address"
        },
        {
          "internalType": "uint256",
          "name": "amount",
          "type": "uint256"
        },
        {
          "internalType": "uint64",
          "name": "destinationChain",
          "type": "uint64"
        },
        {
          "internalType": "string",
          "name": "message",
          "type": "string"
        },
        {
          "internalType": "uint256",
          "name": "timestamp",
          "type": "uint256"
        },
        {
          "internalType": "bool",
          "name": "completed",
          "type": "bool"
        }
      ],
      "stateMutability": "view",
      "type": "function"
    },
    {
      "inputs": [],
      "name": "withdrawFees",
      "outputs": [],
      "stateMutability": "nonpayable",
      "type": "function"
    },
    {
      "stateMutability": "payable",
      "type": "receive"
    }
  ],
  "bytecode": "0x608080604052346100895733156100735760008054336001600160a01b03198216811783556040519290916001600160a01b0316907f8be0079c531659141344cd1fd0a4f28419497f9722a3daafe3b4186f6b6457e09080a36001805566038d7ea4c6800060055561197c908161008f8239f35b631e4fbdf760e01b815260006004820152602490fd5b600080fdfe608080604052600436101561001d575b50361561001b57600080fd5b005b60003560e01c908163260958a5146113e4575080633c64f04b146113365780633cf8ddf214611318578063476343ee14611262578063715018a6146112095780638da5cb5b146111e05780638f02bb5b1461119457806395ccea67146110a6578063a6a849b714610cfd578063acb2ad6f14610cdf578063d047c80614610842578063d9e05c02146106c2578063e6f8ca6514610680578063ec0e97f9146102cf578063f2fde38b14610246578063f5b5b804146101bd578063f9c3f3321461017e5763ffa739df146100f0573861000f565b34610179576040366003190112610179576101096116c1565b7f904bd135b5f2791af10b42bb9c934453298d028f5bb7aa70ab054222012b4b4560206001600160401b0361013c611695565b93610145611862565b1660008181526004835260409081902080546001600160a01b0319166001600160a01b0390961695861790555193845292a2005b600080fd5b34610179576020366003190112610179576001600160401b0361019f6116c1565b166000526003602052602060ff604060002054166040519015158152f35b34610179576040366003190112610179576101d66116c1565b6024359081151590818303610179577f1e0c3057f04400da671fb47f00beb7d5ac4d6ffc2280ddcdf55321419659ebef9161023d6001600160401b0360209361021d611862565b1694856000526003845260406000209060ff801983541691151516179055565b604051908152a2005b346101795760203660031901126101795761025f61167f565b610267611862565b6001600160a01b039081169081156102b657600054826001600160601b0360a01b821617600055167f8be0079c531659141344cd1fd0a4f28419497f9722a3daafe3b4186f6b6457e0600080a3005b604051631e4fbdf760e01b815260006004820152602490fd5b346101795760a0366003190112610179576102e861167f565b6102f0611695565b906102f96116ab565b916084356001600160401b038111610179576103199036906004016116d7565b9092610323611862565b61032b6118b1565b93604051916103398361159d565b6001600160a01b039081168352848116602084015286166040830190815260643560608401908152466001600160401b031660808501908152919490926103819136916117e9565b9160a084019283524260c0850152600160e085015286600052600260205260406000209460018060a01b038551166001600160601b0360a01b90818854161787556001870160018060a01b0360208801511682825416179055600287019160018060a01b03905116908254161790555160038501556001600160401b03600485019151166001600160401b0319825416179055518051906001600160401b03821161066a576104336005850154611563565b601f8111610623575b50602090601f83116001146105aa57928260079360e093610499979660009261059f575b50508160011b916000199060031b1c19161760058501555b60c081015160068501550151151591019060ff801983541691151516179055565b6001600160a01b038316610501576104fc600080516020611907833981519152916104d66000808080606435865af16104d061171f565b50611820565b604080516001600160a01b03968716815260643560208201529590911694918291820190565b0390a3005b60405163a9059cbb60e01b81526001600160a01b03821660048201526064356024820152906020828060448101038160006001600160a01b0389165af190811561059357600080516020611907833981519152926104fc92610564575b506104d6565b6105859060203d60201161058c575b61057d81836115b9565b81019061174f565b508561055e565b503d610573565b6040513d6000823e3d90fd5b015190508a80610460565b906005850160005260206000209160005b601f198516811061060b57508360e093610499979693600193600797601f198116106105f2575b505050811b016005850155610478565b015160001960f88460031b161c191690558a80806105e2565b919260206001819286850151815501940192016105bb565b600585016000526020600020601f840160051c810160208510610663575b601f830160051c8201811061065757505061043c565b60008155600101610641565b5080610641565b634e487b7160e01b600052604160045260246000fd5b34610179576020366003190112610179576001600160401b036106a16116c1565b166000526004602052602060018060a01b0360406000205416604051908152f35b34610179576080366003190112610179576004356106de611695565b906106e76116ab565b916064356106f3611862565b826000526020916002835260ff600760406000200154166107fd576001600160a01b03918583168061078557508060026000805160206119078339815191529561074a60008080806104fc988a5af16104d061171f565b87600052526007604060002001600160ff1982541617905560405193849316968360209093929193604081019460018060a01b031681520152565b60405163a9059cbb60e01b81526001600160a01b03841660048201526024810183905291908590839060449082906000905af1801561059357600080516020611907833981519152956104fc936002926107e0575b5061074a565b6107f690823d841161058c5761057d81836115b9565b50896107da565b60405162461bcd60e51b815260048101849052601a60248201527f5472616e7366657220616c726561647920636f6d706c657465640000000000006044820152606490fd5b60a0366003190112610179576108566116c1565b61085e611695565b906108676116ab565b916084356001600160401b038111610179576108879036906004016116d7565b92909161089261188e565b6001600160401b03821660005260036020526108b560ff60406000205416611767565b6108c96001600160a01b03821615156117a9565b6001600160a01b03851615610caa5760643515610c74576005543410610c3c576040516323b872dd60e01b815233600482015230602482015260648035604483015260209082908160006001600160a01b038b165af1801561059357610c1d575b506109336118b1565b92604051906109418261159d565b3382526001600160a01b0383811660208401528716604083015260643560608301526001600160401b038416608083015261097d3687836117e9565b60a08301524260c0830152600060e0830152846000526002602052604060002060018060a01b038351166001600160601b0360a01b8254161781556001810160018060a01b036020850151166001600160601b0360a01b8254161790556002810160018060a01b036040850151166001600160601b0360a01b82541617905560608301516003820155600481016001600160401b036080850151166001600160401b031982541617905560a08301519283516001600160401b03811161066a578894610a4c6005850154611563565b601f8111610bc2575b50602090601f8311600114610b2b5760e0600080516020611927833981519152999484610ac8956001600160401b039895600795600092610b205750508160011b916000199060031b1c191617600585015560c081015160068501550151151591019060ff801983541691151516179055565b6040519860018060a01b0316895260643560208a01521660408801526080606088015281608088015260a0870137600060a0858701015260018060a01b03169360a0813395601f80199101168101030190a460018055005b015190503880610460565b60058594939299950160005260206000209060005b601f1984168110610ba75750610ac8936001846007946000805160206119278339815191529d60e0956001600160401b039b9a98601f19811610610b8e57505050811b016005850155610478565b015160001960f88460031b161c191690553880806105e2565b818b0151835560209a8b019a8d995060019093019201610b40565b90919293949550600585016000526020600020601f840160051c810160208510610c16575b908b979695949392915b601f830160051c82018110610c07575050610a55565b600081558c9850600101610bf1565b5080610be7565b610c359060203d60201161058c5761057d81836115b9565b508561092a565b60405162461bcd60e51b815260206004820152601060248201526f496e73756666696369656e742066656560801b6044820152606490fd5b60405162461bcd60e51b815260206004820152600e60248201526d125b9d985b1a5908185b5bdd5b9d60921b6044820152606490fd5b60405162461bcd60e51b815260206004820152600d60248201526c24b73b30b634b2103a37b5b2b760991b6044820152606490fd5b34610179576000366003190112610179576020600554604051908152f35b606036600319011261017957610d116116c1565b610d19611695565b906044356001600160401b03811161017957610d399036906004016116d7565b91610d4261188e565b6001600160401b0381166000526003602052610d6560ff60406000205416611767565b610d796001600160a01b03851615156117a9565b600554938434111561106b57348534031161105557610d966118b1565b9260405190610da48261159d565b3382526001600160a01b0383166020830152600060408301523487900360608301526001600160401b0384166080830152610de03687836117e9565b60a08301524260c0830152600060e0830152846000526002602052604060002060018060a01b038351166001600160601b0360a01b8254161781556001810160018060a01b036020850151166001600160601b0360a01b8254161790556002810160018060a01b036040850151166001600160601b0360a01b82541617905560608301516003820155600481016001600160401b036080850151166001600160401b031982541617905560a08301519283516001600160401b03811161066a578894610eaf6005850154611563565b601f8111610ffa575b50602090601f8311600114610f7c5760e0600080516020611927833981519152999484610f2b956001600160401b039895600795600092610b205750508160011b916000199060031b1c191617600585015560c081015160068501550151151591019060ff801983541691151516179055565b6040519860008a52340360208a01521660408801526080606088015281608088015260a0870137600060a0858701015260018060a01b03169360a0813395601f80199101168101030190a460018055005b60058594939299950160005260206000209060005b601f1984168110610fdf5750610f2b936001846007946000805160206119278339815191529d60e0956001600160401b039b9a98601f19811610610b8e57505050811b016005850155610478565b818b0151835560209a8b019a8d995060019093019201610f91565b90919293949550600585016000526020600020601f840160051c81016020851061104e575b908b979695949392915b601f830160051c8201811061103f575050610eb8565b600081558c9850600101611029565b508061101f565b634e487b7160e01b600052601160045260246000fd5b60405162461bcd60e51b8152602060048201526013602482015272125b9cdd59999a58da595b9d08185b5bdd5b9d606a1b6044820152606490fd5b34610179576040366003190112610179576110bf61167f565b602435906110cb611862565b6001600160a01b03908116806111355750600080809381938254165af16110f061171f565b50156110f857005b60405162461bcd60e51b8152602060048201526015602482015274115512081dda5d1a191c985dd85b0819985a5b1959605a1b6044820152606490fd5b6000805460405163a9059cbb60e01b815293166001600160a01b031660048401526024830193909352909160209183918290816044810103925af180156105935761117c57005b61001b9060203d60201161058c5761057d81836115b9565b34610179576020366003190112610179577f8c4d35e54a3f2ef1134138fd8ea3daee6a3c89e10d2665996babdf70261e2c7660206004356111d3611862565b80600555604051908152a1005b34610179576000366003190112610179576000546040516001600160a01b039091168152602090f35b3461017957600036600319011261017957611222611862565b600080546001600160a01b0319811682556001600160a01b03167f8be0079c531659141344cd1fd0a4f28419497f9722a3daafe3b4186f6b6457e08280a3005b346101795760003660031901126101795761127b611862565b4780156112dd5760008080809360018060a01b038254165af161129c61171f565b50156112a457005b60405162461bcd60e51b815260206004820152601160248201527015da5d1a191c985dd85b0819985a5b1959607a1b6044820152606490fd5b60405162461bcd60e51b81526020600482015260136024820152724e6f206665657320746f20776974686472617760681b6044820152606490fd5b34610179576000366003190112610179576020600654604051908152f35b34610179576020366003190112610179576004356000526002602052604060002060018060a01b0380825416918160018201541691600282015416926113d36003830154916001600160401b0360048501541690611396600586016115da565b9160ff600760068801549701541694604051988998610100948a5260208a01526040890152606088015260808701528060a0870152850190611523565b9160c0840152151560e08301520390f35b3461017957602090816003193601126101795760e08161140560009361159d565b8281528284820152826040820152826060820152826080820152606060a08201528260c0820152015260043560005260028152604060002090604051809261144c8261159d565b60018060a01b0390818154168352816001820154169184840192835280600283015416604085019081526003830154606086019081526001600160401b03928360048601541692608088019384528160ff60076114ab60058a016115da565b9860a08c01998a5260c060068201549c019b8c520154169760e08c0198151589528a826040519d8e9d8e525116908c0152511660408a015251166060880152516080870152511660a08501525190611511610100928360c0870152610120860190611523565b925160e0850152511515908301520390f35b919082519283825260005b84811061154f575050826000602080949584010152601f8019910116010190565b60208183018101518483018201520161152e565b90600182811c92168015611593575b602083101461157d57565b634e487b7160e01b600052602260045260246000fd5b91607f1691611572565b61010081019081106001600160401b0382111761066a57604052565b90601f801991011681019081106001600160401b0382111761066a57604052565b906040519182600082546115ed81611563565b9081845260209460019160018116908160001461165d575060011461161e575b50505061161c925003836115b9565b565b600090815285812095935091905b81831061164557505061161c935082010138808061160d565b8554888401850152948501948794509183019161162c565b9250505061161c94925060ff191682840152151560051b82010138808061160d565b600435906001600160a01b038216820361017957565b602435906001600160a01b038216820361017957565b604435906001600160a01b038216820361017957565b600435906001600160401b038216820361017957565b9181601f84011215610179578235916001600160401b038311610179576020838186019501011161017957565b6001600160401b03811161066a57601f01601f191660200190565b3d1561174a573d9061173082611704565b9161173e60405193846115b9565b82523d6000602084013e565b606090565b90816020910312610179575180151581036101795790565b1561176e57565b60405162461bcd60e51b815260206004820152601360248201527210da185a5b881b9bdd081cdd5c1c1bdc9d1959606a1b6044820152606490fd5b156117b057565b60405162461bcd60e51b8152602060048201526011602482015270125b9d985b1a59081c9958da5c1a595b9d607a1b6044820152606490fd5b9291926117f582611704565b9161180360405193846115b9565b829481845281830111610179578281602093846000960137010152565b1561182757565b60405162461bcd60e51b8152602060048201526013602482015272115512081d1c985b9cd9995c8819985a5b1959606a1b6044820152606490fd5b6000546001600160a01b0316330361187657565b60405163118cdaa760e01b8152336004820152602490fd5b60026001541461189f576002600155565b604051633ee5aeb560e01b8152600490fd5b6006546000198114611055576001018060065560405160208101914283524460408301523360601b606083015260748201526074815260a081018181106001600160401b0382111761066a576040525190209056fe174132cbe441741d0eabc42bd8d4344c92da5172baf0d4adac5296082a6e768bf5e7668fc05e2bc8c6ef0c7c2e8c88b96b9788cf4818cfc618c2cf43ad0bab3ba26469706673582212205baecca74a063da55f9775dbe74eaa82729fbb6d1b56f02f6da1a7f53d056f0464736f6c63430008160033",
  "linkReferences": {},
  "deployedLinkReferences": {}
}