{
  "_format": "hh-sol-artifact-1",
  "contractName": "NftAuction",
  "sourceName": "contracts/NftAuction.sol",
  "abi": [
    {
      "inputs": [
        {
          "internalType": "address",
          "name": "target",
          "type": "address"
        }
      ],
      "name": "AddressEmptyCode",
      "type": "error"
    },
    {
      "inputs": [
        {
          "internalType": "address",
          "name": "implementation",
          "type": "address"
        }
      ],
      "name": "ERC1967InvalidImplementation",
      "type": "error"
    },
    {
      "inputs": [],
      "name": "ERC1967NonPayable",
      "type": "error"
    },
    {
      "inputs": [],
      "name": "FailedCall",
      "type": "error"
    },
    {
      "inputs": [],
      "name": "InvalidInitialization",
      "type": "error"
    },
    {
      "inputs": [],
      "name": "NotInitializing",
      "type": "error"
    },
    {
      "inputs": [],
      "name": "UUPSUnauthorizedCallContext",
      "type": "error"
    },
    {
      "inputs": [
        {
          "internalType": "bytes32",
          "name": "slot",
          "type": "bytes32"
        }
      ],
      "name": "UUPSUnsupportedProxiableUUID",
      "type": "error"
    },
    {
      "anonymous": false,
      "inputs": [
        {
          "indexed": false,
          "internalType": "uint64",
          "name": "version",
          "type": "uint64"
        }
      ],
      "name": "Initialized",
      "type": "event"
    },
    {
      "anonymous": false,
      "inputs": [
        {
          "indexed": true,
          "internalType": "address",
          "name": "implementation",
          "type": "address"
        }
      ],
      "name": "Upgraded",
      "type": "event"
    },
    {
      "inputs": [],
      "name": "UPGRADE_INTERFACE_VERSION",
      "outputs": [
        {
          "internalType": "string",
          "name": "",
          "type": "string"
        }
      ],
      "stateMutability": "view",
      "type": "function"
    },
    {
      "inputs": [],
      "name": "admin",
      "outputs": [
        {
          "internalType": "address",
          "name": "",
          "type": "address"
        }
      ],
      "stateMutability": "view",
      "type": "function"
    },
    {
      "inputs": [
        {
          "internalType": "uint256",
          "name": "",
          "type": "uint256"
        }
      ],
      "name": "auctions",
      "outputs": [
        {
          "internalType": "address",
          "name": "seller",
          "type": "address"
        },
        {
          "internalType": "uint256",
          "name": "duration",
          "type": "uint256"
        },
        {
          "internalType": "uint256",
          "name": "startPrice",
          "type": "uint256"
        },
        {
          "internalType": "uint256",
          "name": "startTime",
          "type": "uint256"
        },
        {
          "internalType": "bool",
          "name": "ended",
          "type": "bool"
        },
        {
          "internalType": "address",
          "name": "highestBidder",
          "type": "address"
        },
        {
          "internalType": "uint256",
          "name": "highestBid",
          "type": "uint256"
        },
        {
          "internalType": "address",
          "name": "nftContract",
          "type": "address"
        },
        {
          "internalType": "uint256",
          "name": "tokenId",
          "type": "uint256"
        },
        {
          "internalType": "address",
          "name": "tokenAddress",
          "type": "address"
        }
      ],
      "stateMutability": "view",
      "type": "function"
    },
    {
      "inputs": [
        {
          "internalType": "uint256",
          "name": "_duration",
          "type": "uint256"
        },
        {
          "internalType": "uint256",
          "name": "_startPrice",
          "type": "uint256"
        },
        {
          "internalType": "address",
          "name": "_nftAddress",
          "type": "address"
        },
        {
          "internalType": "uint256",
          "name": "_tokenId",
          "type": "uint256"
        }
      ],
      "name": "createAuction",
      "outputs": [],
      "stateMutability": "nonpayable",
      "type": "function"
    },
    {
      "inputs": [
        {
          "internalType": "uint256",
          "name": "_auctionID",
          "type": "uint256"
        }
      ],
      "name": "endAuction",
      "outputs": [],
      "stateMutability": "nonpayable",
      "type": "function"
    },
    {
      "inputs": [
        {
          "internalType": "address",
          "name": "tokenAddress",
          "type": "address"
        }
      ],
      "name": "getChainlinkDataFeedLatestAnswer",
      "outputs": [
        {
          "internalType": "int256",
          "name": "",
          "type": "int256"
        }
      ],
      "stateMutability": "view",
      "type": "function"
    },
    {
      "inputs": [],
      "name": "initialize",
      "outputs": [],
      "stateMutability": "nonpayable",
      "type": "function"
    },
    {
      "inputs": [],
      "name": "nextAuctionId",
      "outputs": [
        {
          "internalType": "uint256",
          "name": "",
          "type": "uint256"
        }
      ],
      "stateMutability": "view",
      "type": "function"
    },
    {
      "inputs": [
        {
          "internalType": "address",
          "name": "operator",
          "type": "address"
        },
        {
          "internalType": "address",
          "name": "from",
          "type": "address"
        },
        {
          "internalType": "uint256",
          "name": "tokenId",
          "type": "uint256"
        },
        {
          "internalType": "bytes",
          "name": "data",
          "type": "bytes"
        }
      ],
      "name": "onERC721Received",
      "outputs": [
        {
          "internalType": "bytes4",
          "name": "",
          "type": "bytes4"
        }
      ],
      "stateMutability": "pure",
      "type": "function"
    },
    {
      "inputs": [
        {
          "internalType": "uint256",
          "name": "_auctionID",
          "type": "uint256"
        },
        {
          "internalType": "uint256",
          "name": "amount",
          "type": "uint256"
        },
        {
          "internalType": "address",
          "name": "_tokenAddress",
          "type": "address"
        }
      ],
      "name": "placeBid",
      "outputs": [],
      "stateMutability": "payable",
      "type": "function"
    },
    {
      "inputs": [
        {
          "internalType": "address",
          "name": "",
          "type": "address"
        }
      ],
      "name": "priceFeeds",
      "outputs": [
        {
          "internalType": "contract AggregatorV3Interface",
          "name": "",
          "type": "address"
        }
      ],
      "stateMutability": "view",
      "type": "function"
    },
    {
      "inputs": [],
      "name": "proxiableUUID",
      "outputs": [
        {
          "internalType": "bytes32",
          "name": "",
          "type": "bytes32"
        }
      ],
      "stateMutability": "view",
      "type": "function"
    },
    {
      "inputs": [
        {
          "internalType": "address",
          "name": "tokenAddress",
          "type": "address"
        },
        {
          "internalType": "address",
          "name": "_priceFeed",
          "type": "address"
        }
      ],
      "name": "setPriceFeed",
      "outputs": [],
      "stateMutability": "nonpayable",
      "type": "function"
    },
    {
      "inputs": [
        {
          "internalType": "address",
          "name": "newImplementation",
          "type": "address"
        },
        {
          "internalType": "bytes",
          "name": "data",
          "type": "bytes"
        }
      ],
      "name": "upgradeToAndCall",
      "outputs": [],
      "stateMutability": "payable",
      "type": "function"
    }
  ],
  "bytecode": "0x60a06040523060805234801561001457600080fd5b5060805161164061003e60003960008181610d5e01528181610d870152610f1d01526116406000f3fe6080604052600436106100dd5760003560e01c8063ad3cb1cc1161007f578063b9a2de3a11610059578063b9a2de3a14610359578063e7078f9214610379578063f851a44014610399578063fc528482146103b957600080fd5b8063ad3cb1cc146102e8578063ad6561ec14610326578063b1cb48ef1461033957600080fd5b8063571a26a0116100bb578063571a26a01461016457806376e112861461023c5780638129fc1c146102855780639dcb511a1461029a57600080fd5b8063150b7a02146100e25780634f1ef2861461012c57806352d1902d14610141575b600080fd5b3480156100ee57600080fd5b5061010e6100fd3660046111f2565b630a85bd0160e11b95945050505050565b6040516001600160e01b031990911681526020015b60405180910390f35b61013f61013a3660046112a3565b6103cf565b005b34801561014d57600080fd5b506101566103ee565b604051908152602001610123565b34801561017057600080fd5b506101e161017f366004611365565b6000602081905290815260409020805460018201546002830154600384015460048501546005860154600687015460078801546008909801546001600160a01b039788169896979596949560ff8516956101009095048116949281169291168a565b604080516001600160a01b039b8c168152602081019a909a528901979097526060880195909552921515608087015290861660a086015260c0850152841660e084015261010083015290911661012082015261014001610123565b34801561024857600080fd5b5061013f61025736600461137e565b6001600160a01b03918216600090815260036020526040902080546001600160a01b03191691909216179055565b34801561029157600080fd5b5061013f61040b565b3480156102a657600080fd5b506102d06102b53660046113b1565b6003602052600090815260409020546001600160a01b031681565b6040516001600160a01b039091168152602001610123565b3480156102f457600080fd5b50610319604051806040016040528060058152602001640352e302e360dc1b81525081565b604051610123919061141c565b61013f61033436600461142f565b61050f565b34801561034557600080fd5b5061013f610354366004611464565b61085a565b34801561036557600080fd5b5061013f610374366004611365565b610b7d565b34801561038557600080fd5b506101566103943660046113b1565b610cc6565b3480156103a557600080fd5b506002546102d0906001600160a01b031681565b3480156103c557600080fd5b5061015660015481565b6103d7610d53565b6103e082610dfa565b6103ea8282610e50565b5050565b60006103f8610f12565b506000805160206115eb83398151915290565b6000610415610f5b565b805490915060ff600160401b820416159067ffffffffffffffff1660008115801561043d5750825b905060008267ffffffffffffffff16600114801561045a5750303b155b905081158015610468575080155b156104865760405163f92ee8a960e01b815260040160405180910390fd5b845467ffffffffffffffff1916600117855583156104b057845460ff60401b1916600160401b1785555b600280546001600160a01b03191633179055831561050857845460ff60401b19168555604051600181527fc7f505b2f371ae2175ee4913f4499e1f2633a7b5936321eed1cdaeb6115181d29060200160405180910390a15b5050505050565b6000838152602081905260409020600481015460ff161580156105445750428160010154826003015461054291906114b7565b115b6105895760405162461bcd60e51b8152602060048201526011602482015270105d58dd1a5bdb881a185cc8195b991959607a1b60448201526064015b60405180910390fd5b60006001600160a01b038316156105b4576105a383610cc6565b6105ad90856114ca565b90506105ce565b3493506105c16000610cc6565b6105cb90856114ca565b90505b60088201546000906105e8906001600160a01b0316610cc6565b83600201546105f791906114ca565b6008840154909150600090610614906001600160a01b0316610cc6565b846005015461062391906114ca565b905081831015801561063457508083115b6106985760405162461bcd60e51b815260206004820152602f60248201527f426964206d75737420626520686967686572207468616e20746865206375727260448201526e195b9d081a1a59da195cdd08189a59608a1b6064820152608401610580565b6001600160a01b03851615610720576040516323b872dd60e01b8152336004820152306024820152604481018790526001600160a01b038616906323b872dd906064016020604051808303816000875af11580156106fa573d6000803e3d6000fd5b505050506040513d601f19601f8201168201806040525081019061071e91906114e1565b505b6005840154156108115760088401546001600160a01b031661078657600484015460058501546040516101009092046001600160a01b0316916108fc82150291906000818181858888f19350505050158015610780573d6000803e3d6000fd5b50610811565b6008840154600480860154600587015460405163a9059cbb60e01b81526101009092046001600160a01b0390811693830193909352602482015291169063a9059cbb906044016020604051808303816000875af11580156107eb573d6000803e3d6000fd5b505050506040513d601f19601f8201168201806040525081019061080f91906114e1565b505b5050506008810180546001600160a01b0319166001600160a01b03939093169290921790915560058101919091556004018054610100600160a81b031916610100330217905550565b6002546001600160a01b031633146108b45760405162461bcd60e51b815260206004820152601e60248201527f4f6e6c792061646d696e2063616e206372656174652061756374696f6e7300006044820152606401610580565b600a84101561090f5760405162461bcd60e51b815260206004820152602160248201527f4475726174696f6e206d7573742062652067726561746572207468616e2031306044820152607360f81b6064820152608401610580565b6000831161096a5760405162461bcd60e51b815260206004820152602260248201527f5374617274207072696365206d7573742062652067726561746572207468616e604482015261020360f41b6064820152608401610580565b604051632142170760e11b8152336004820152306024820152604481018290526001600160a01b038316906342842e0e90606401600060405180830381600087803b1580156109b857600080fd5b505af11580156109cc573d6000803e3d6000fd5b50505050604051806101400160405280336001600160a01b0316815260200185815260200184815260200142815260200160001515815260200160006001600160a01b0316815260200160008152602001836001600160a01b0316815260200182815260200160006001600160a01b0316815250600080600154815260200190815260200160002060008201518160000160006101000a8154816001600160a01b0302191690836001600160a01b0316021790555060208201518160010155604082015181600201556060820151816003015560808201518160040160006101000a81548160ff02191690831515021790555060a08201518160040160016101000a8154816001600160a01b0302191690836001600160a01b0316021790555060c0820151816005015560e08201518160060160006101000a8154816001600160a01b0302191690836001600160a01b0316021790555061010082015181600701556101208201518160080160006101000a8154816001600160a01b0302191690836001600160a01b0316021790555090505060016000815480929190610b7290611503565b919050555050505050565b60008060008381526020019081526020016000209050610bc96040518060400160405280600a81526020016932b73220bab1ba34b7b760b11b8152508260030154836001015442610f86565b600481015460ff16158015610bf157504281600101548260030154610bee91906114b7565b11155b610c355760405162461bcd60e51b8152602060048201526015602482015274105d58dd1a5bdb881a185cc81b9bdd08195b991959605a1b6044820152606401610580565b60068101546004808301546007840154604051632142170760e11b815230938101939093526001600160a01b03610100909204821660248401526044830152909116906342842e0e90606401600060405180830381600087803b158015610c9b57600080fd5b505af1158015610caf573d6000803e3d6000fd5b5050506004909101805460ff191660011790555050565b6001600160a01b03808216600090815260036020526040808220548151633fabe5a360e21b81529151929316918391839163feaf968c9160048082019260a0929091908290030181865afa158015610d22573d6000803e3d6000fd5b505050506040513d601f19601f82011682018060405250810190610d469190611536565b5091979650505050505050565b306001600160a01b037f0000000000000000000000000000000000000000000000000000000000000000161480610dda57507f00000000000000000000000000000000000000000000000000000000000000006001600160a01b0316610dce6000805160206115eb833981519152546001600160a01b031690565b6001600160a01b031614155b15610df85760405163703e46dd60e11b815260040160405180910390fd5b565b6002546001600160a01b03163314610e4d5760405162461bcd60e51b81526020600482015260166024820152754f6e6c792061646d696e2063616e207570677261646560501b6044820152606401610580565b50565b816001600160a01b03166352d1902d6040518163ffffffff1660e01b8152600401602060405180830381865afa925050508015610eaa575060408051601f3d908101601f19168201909252610ea791810190611586565b60015b610ed257604051634c9c8ce360e01b81526001600160a01b0383166004820152602401610580565b6000805160206115eb8339815191528114610f0357604051632a87526960e21b815260048101829052602401610580565b610f0d8383610fd5565b505050565b306001600160a01b037f00000000000000000000000000000000000000000000000000000000000000001614610df85760405163703e46dd60e11b815260040160405180910390fd5b6000807ff0c57e16840df040f15088dc2f81fe391c3923bec73e23a9662efc9c229c6a005b92915050565b610fcf84848484604051602401610fa0949392919061159f565b60408051601f198184030181529190526020810180516001600160e01b031663a7a8785360e01b17905261102b565b50505050565b610fde82611034565b6040516001600160a01b038316907fbc7cd75a20ee27fd9adebab32041f755214dbc6bffa90cc0225b39da2e5c2d3b90600090a280511561102357610f0d8282611099565b6103ea61110f565b610e4d8161112e565b806001600160a01b03163b60000361106a57604051634c9c8ce360e01b81526001600160a01b0382166004820152602401610580565b6000805160206115eb83398151915280546001600160a01b0319166001600160a01b0392909216919091179055565b6060600080846001600160a01b0316846040516110b691906115ce565b600060405180830381855af49150503d80600081146110f1576040519150601f19603f3d011682016040523d82523d6000602084013e6110f6565b606091505b509150915061110685838361114f565b95945050505050565b3415610df85760405163b398979f60e01b815260040160405180910390fd5b60006a636f6e736f6c652e6c6f679050600080835160208501845afa505050565b6060826111645761115f826111ae565b6111a7565b815115801561117b57506001600160a01b0384163b155b156111a457604051639996b31560e01b81526001600160a01b0385166004820152602401610580565b50805b9392505050565b8051156111bd57805160208201fd5b60405163d6bda27560e01b815260040160405180910390fd5b80356001600160a01b03811681146111ed57600080fd5b919050565b60008060008060006080868803121561120a57600080fd5b611213866111d6565b9450611221602087016111d6565b935060408601359250606086013567ffffffffffffffff8082111561124557600080fd5b818801915088601f83011261125957600080fd5b81358181111561126857600080fd5b89602082850101111561127a57600080fd5b9699959850939650602001949392505050565b634e487b7160e01b600052604160045260246000fd5b600080604083850312156112b657600080fd5b6112bf836111d6565b9150602083013567ffffffffffffffff808211156112dc57600080fd5b818501915085601f8301126112f057600080fd5b8135818111156113025761130261128d565b604051601f8201601f19908116603f0116810190838211818310171561132a5761132a61128d565b8160405282815288602084870101111561134357600080fd5b8260208601602083013760006020848301015280955050505050509250929050565b60006020828403121561137757600080fd5b5035919050565b6000806040838503121561139157600080fd5b61139a836111d6565b91506113a8602084016111d6565b90509250929050565b6000602082840312156113c357600080fd5b6111a7826111d6565b60005b838110156113e75781810151838201526020016113cf565b50506000910152565b600081518084526114088160208601602086016113cc565b601f01601f19169290920160200192915050565b6020815260006111a760208301846113f0565b60008060006060848603121561144457600080fd5b833592506020840135915061145b604085016111d6565b90509250925092565b6000806000806080858703121561147a57600080fd5b8435935060208501359250611491604086016111d6565b9396929550929360600135925050565b634e487b7160e01b600052601160045260246000fd5b80820180821115610f8057610f806114a1565b8082028115828204841417610f8057610f806114a1565b6000602082840312156114f357600080fd5b815180151581146111a757600080fd5b600060018201611515576115156114a1565b5060010190565b805169ffffffffffffffffffff811681146111ed57600080fd5b600080600080600060a0868803121561154e57600080fd5b6115578661151c565b945060208601519350604086015192506060860151915061157a6080870161151c565b90509295509295909350565b60006020828403121561159857600080fd5b5051919050565b6080815260006115b260808301876113f0565b6020830195909552506040810192909252606090910152919050565b600082516115e08184602087016113cc565b919091019291505056fe360894a13ba1a3210667c828492db98dca3e2076cc3735a920a3ca505d382bbca2646970667358221220ccd9560c707437b4cf2650bcfa280562064f9430814d3712ffcb07ef855a21f664736f6c63430008160033",
  "linkReferences": {},
  "deployedLinkReferences": {}
}